{
	"contracts/9_struckTest01.sol": {
		"test01": {
			"abi": [
				{
					"inputs": [
						{
							"internalType": "string",
							"name": "name",
							"type": "string"
						},
						{
							"internalType": "uint256",
							"name": "price",
							"type": "uint256"
						},
						{
							"internalType": "uint256",
							"name": "num",
							"type": "uint256"
						}
					],
					"name": "addProduct",
					"outputs": [],
					"stateMutability": "nonpayable",
					"type": "function"
				},
				{
					"inputs": [],
					"name": "count",
					"outputs": [
						{
							"internalType": "uint256",
							"name": "",
							"type": "uint256"
						}
					],
					"stateMutability": "view",
					"type": "function"
				},
				{
					"inputs": [
						{
							"internalType": "uint256",
							"name": "id",
							"type": "uint256"
						}
					],
					"name": "getProduct",
					"outputs": [
						{
							"components": [
								{
									"internalType": "uint256",
									"name": "id",
									"type": "uint256"
								},
								{
									"internalType": "string",
									"name": "name",
									"type": "string"
								},
								{
									"internalType": "uint256",
									"name": "price",
									"type": "uint256"
								},
								{
									"internalType": "uint256",
									"name": "num",
									"type": "uint256"
								}
							],
							"internalType": "struct test01.Product",
							"name": "",
							"type": "tuple"
						}
					],
					"stateMutability": "view",
					"type": "function"
				},
				{
					"inputs": [
						{
							"internalType": "uint256",
							"name": "",
							"type": "uint256"
						}
					],
					"name": "products",
					"outputs": [
						{
							"internalType": "uint256",
							"name": "id",
							"type": "uint256"
						},
						{
							"internalType": "string",
							"name": "name",
							"type": "string"
						},
						{
							"internalType": "uint256",
							"name": "price",
							"type": "uint256"
						},
						{
							"internalType": "uint256",
							"name": "num",
							"type": "uint256"
						}
					],
					"stateMutability": "view",
					"type": "function"
				},
				{
					"inputs": [
						{
							"internalType": "uint256",
							"name": "id",
							"type": "uint256"
						},
						{
							"internalType": "uint256",
							"name": "newNum",
							"type": "uint256"
						}
					],
					"name": "updateProduct",
					"outputs": [],
					"stateMutability": "nonpayable",
					"type": "function"
				}
			],
			"devdoc": {
				"kind": "dev",
				"methods": {},
				"version": 1
			},
			"evm": {
				"assembly": "    /* \"contracts/9_struckTest01.sol\":60:668  contract test01{... */\n  mstore(0x40, 0x80)\n  callvalue\n  dup1\n  iszero\n  tag_1\n  jumpi\n  0x00\n  dup1\n  revert\ntag_1:\n  pop\n  dataSize(sub_0)\n  dup1\n  dataOffset(sub_0)\n  0x00\n  codecopy\n  0x00\n  return\nstop\n\nsub_0: assembly {\n        /* \"contracts/9_struckTest01.sol\":60:668  contract test01{... */\n      mstore(0x40, 0x80)\n      callvalue\n      dup1\n      iszero\n      tag_1\n      jumpi\n      0x00\n      dup1\n      revert\n    tag_1:\n      pop\n      jumpi(tag_2, lt(calldatasize, 0x04))\n      shr(0xe0, calldataload(0x00))\n      dup1\n      0x06661abd\n      eq\n      tag_3\n      jumpi\n      dup1\n      0x125b0b34\n      eq\n      tag_4\n      jumpi\n      dup1\n      0x31f45cab\n      eq\n      tag_5\n      jumpi\n      dup1\n      0x7acc0b20\n      eq\n      tag_6\n      jumpi\n      dup1\n      0xb9db15b4\n      eq\n      tag_7\n      jumpi\n    tag_2:\n      0x00\n      dup1\n      revert\n        /* \"contracts/9_struckTest01.sol\":258:276  uint public  count */\n    tag_3:\n      tag_8\n      tag_9\n      jump\t// in\n    tag_8:\n      mload(0x40)\n      tag_10\n      swap2\n      swap1\n      tag_11\n      jump\t// in\n    tag_10:\n      mload(0x40)\n      dup1\n      swap2\n      sub\n      swap1\n      return\n        /* \"contracts/9_struckTest01.sol\":508:659  function addProduct(string memory name, uint256 price, uint256 num) public {... */\n    tag_4:\n      tag_12\n      0x04\n      dup1\n      calldatasize\n      sub\n      dup2\n      add\n      swap1\n      tag_13\n      swap2\n      swap1\n      tag_14\n      jump\t// in\n    tag_13:\n      tag_15\n      jump\t// in\n    tag_12:\n      stop\n        /* \"contracts/9_struckTest01.sol\":399:500  function updateProduct(uint256 id,uint256 newNum) public {... */\n    tag_5:\n      tag_16\n      0x04\n      dup1\n      calldatasize\n      sub\n      dup2\n      add\n      swap1\n      tag_17\n      swap2\n      swap1\n      tag_18\n      jump\t// in\n    tag_17:\n      tag_19\n      jump\t// in\n    tag_16:\n      stop\n        /* \"contracts/9_struckTest01.sol\":207:251  mapping (uint256 => Product) public products */\n    tag_6:\n      tag_20\n      0x04\n      dup1\n      calldatasize\n      sub\n      dup2\n      add\n      swap1\n      tag_21\n      swap2\n      swap1\n      tag_22\n      jump\t// in\n    tag_21:\n      tag_23\n      jump\t// in\n    tag_20:\n      mload(0x40)\n      tag_24\n      swap5\n      swap4\n      swap3\n      swap2\n      swap1\n      tag_25\n      jump\t// in\n    tag_24:\n      mload(0x40)\n      dup1\n      swap2\n      sub\n      swap1\n      return\n        /* \"contracts/9_struckTest01.sol\":285:391  function getProduct(uint256 id) public view returns (Product memory){... */\n    tag_7:\n      tag_26\n      0x04\n      dup1\n      calldatasize\n      sub\n      dup2\n      add\n      swap1\n      tag_27\n      swap2\n      swap1\n      tag_22\n      jump\t// in\n    tag_27:\n      tag_28\n      jump\t// in\n    tag_26:\n      mload(0x40)\n      tag_29\n      swap2\n      swap1\n      tag_30\n      jump\t// in\n    tag_29:\n      mload(0x40)\n      dup1\n      swap2\n      sub\n      swap1\n      return\n        /* \"contracts/9_struckTest01.sol\":258:276  uint public  count */\n    tag_9:\n      sload(0x01)\n      dup2\n      jump\t// out\n        /* \"contracts/9_struckTest01.sol\":508:659  function addProduct(string memory name, uint256 price, uint256 num) public {... */\n    tag_15:\n        /* \"contracts/9_struckTest01.sol\":620:651  Product(count++,name,price,num) */\n      mload(0x40)\n      dup1\n      0x80\n      add\n      0x40\n      mstore\n      dup1\n        /* \"contracts/9_struckTest01.sol\":628:633  count */\n      0x01\n      0x00\n        /* \"contracts/9_struckTest01.sol\":628:635  count++ */\n      dup2\n      sload\n      dup1\n      swap3\n      swap2\n      swap1\n      tag_32\n      swap1\n      tag_33\n      jump\t// in\n    tag_32:\n      swap2\n      swap1\n      pop\n      sstore\n        /* \"contracts/9_struckTest01.sol\":620:651  Product(count++,name,price,num) */\n      dup2\n      mstore\n      0x20\n      add\n        /* \"contracts/9_struckTest01.sol\":636:640  name */\n      dup5\n        /* \"contracts/9_struckTest01.sol\":620:651  Product(count++,name,price,num) */\n      dup2\n      mstore\n      0x20\n      add\n        /* \"contracts/9_struckTest01.sol\":641:646  price */\n      dup4\n        /* \"contracts/9_struckTest01.sol\":620:651  Product(count++,name,price,num) */\n      dup2\n      mstore\n      0x20\n      add\n        /* \"contracts/9_struckTest01.sol\":647:650  num */\n      dup3\n        /* \"contracts/9_struckTest01.sol\":620:651  Product(count++,name,price,num) */\n      dup2\n      mstore\n      pop\n        /* \"contracts/9_struckTest01.sol\":600:608  products */\n      0x00\n        /* \"contracts/9_struckTest01.sol\":600:617  products[count++] */\n      dup1\n        /* \"contracts/9_struckTest01.sol\":609:614  count */\n      0x01\n      0x00\n        /* \"contracts/9_struckTest01.sol\":609:616  count++ */\n      dup2\n      sload\n      dup1\n      swap3\n      swap2\n      swap1\n      tag_34\n      swap1\n      tag_33\n      jump\t// in\n    tag_34:\n      swap2\n      swap1\n      pop\n      sstore\n        /* \"contracts/9_struckTest01.sol\":600:617  products[count++] */\n      dup2\n      mstore\n      0x20\n      add\n      swap1\n      dup2\n      mstore\n      0x20\n      add\n      0x00\n      keccak256\n        /* \"contracts/9_struckTest01.sol\":600:651  products[count++] = Product(count++,name,price,num) */\n      0x00\n      dup3\n      add\n      mload\n      dup2\n      0x00\n      add\n      sstore\n      0x20\n      dup3\n      add\n      mload\n      dup2\n      0x01\n      add\n      swap1\n      dup2\n      tag_35\n      swap2\n      swap1\n      tag_36\n      jump\t// in\n    tag_35:\n      pop\n      0x40\n      dup3\n      add\n      mload\n      dup2\n      0x02\n      add\n      sstore\n      0x60\n      dup3\n      add\n      mload\n      dup2\n      0x03\n      add\n      sstore\n      swap1\n      pop\n      pop\n        /* \"contracts/9_struckTest01.sol\":508:659  function addProduct(string memory name, uint256 price, uint256 num) public {... */\n      pop\n      pop\n      pop\n      jump\t// out\n        /* \"contracts/9_struckTest01.sol\":399:500  function updateProduct(uint256 id,uint256 newNum) public {... */\n    tag_19:\n        /* \"contracts/9_struckTest01.sol\":486:492  newNum */\n      dup1\n        /* \"contracts/9_struckTest01.sol\":467:475  products */\n      0x00\n        /* \"contracts/9_struckTest01.sol\":467:479  products[id] */\n      dup1\n        /* \"contracts/9_struckTest01.sol\":476:478  id */\n      dup5\n        /* \"contracts/9_struckTest01.sol\":467:479  products[id] */\n      dup2\n      mstore\n      0x20\n      add\n      swap1\n      dup2\n      mstore\n      0x20\n      add\n      0x00\n      keccak256\n        /* \"contracts/9_struckTest01.sol\":467:483  products[id].num */\n      0x03\n      add\n        /* \"contracts/9_struckTest01.sol\":467:492  products[id].num = newNum */\n      dup2\n      swap1\n      sstore\n      pop\n        /* \"contracts/9_struckTest01.sol\":399:500  function updateProduct(uint256 id,uint256 newNum) public {... */\n      pop\n      pop\n      jump\t// out\n        /* \"contracts/9_struckTest01.sol\":207:251  mapping (uint256 => Product) public products */\n    tag_23:\n      mstore(0x20, 0x00)\n      dup1\n      0x00\n      mstore\n      keccak256(0x00, 0x40)\n      0x00\n      swap2\n      pop\n      swap1\n      pop\n      dup1\n      0x00\n      add\n      sload\n      swap1\n      dup1\n      0x01\n      add\n      dup1\n      sload\n      tag_38\n      swap1\n      tag_39\n      jump\t// in\n    tag_38:\n      dup1\n      0x1f\n      add\n      0x20\n      dup1\n      swap2\n      div\n      mul\n      0x20\n      add\n      mload(0x40)\n      swap1\n      dup2\n      add\n      0x40\n      mstore\n      dup1\n      swap3\n      swap2\n      swap1\n      dup2\n      dup2\n      mstore\n      0x20\n      add\n      dup3\n      dup1\n      sload\n      tag_40\n      swap1\n      tag_39\n      jump\t// in\n    tag_40:\n      dup1\n      iszero\n      tag_41\n      jumpi\n      dup1\n      0x1f\n      lt\n      tag_42\n      jumpi\n      0x0100\n      dup1\n      dup4\n      sload\n      div\n      mul\n      dup4\n      mstore\n      swap2\n      0x20\n      add\n      swap2\n      jump(tag_41)\n    tag_42:\n      dup3\n      add\n      swap2\n      swap1\n      0x00\n      mstore\n      keccak256(0x00, 0x20)\n      swap1\n    tag_43:\n      dup2\n      sload\n      dup2\n      mstore\n      swap1\n      0x01\n      add\n      swap1\n      0x20\n      add\n      dup1\n      dup4\n      gt\n      tag_43\n      jumpi\n      dup3\n      swap1\n      sub\n      0x1f\n      and\n      dup3\n      add\n      swap2\n    tag_41:\n      pop\n      pop\n      pop\n      pop\n      pop\n      swap1\n      dup1\n      0x02\n      add\n      sload\n      swap1\n      dup1\n      0x03\n      add\n      sload\n      swap1\n      pop\n      dup5\n      jump\t// out\n        /* \"contracts/9_struckTest01.sol\":285:391  function getProduct(uint256 id) public view returns (Product memory){... */\n    tag_28:\n        /* \"contracts/9_struckTest01.sol\":338:352  Product memory */\n      tag_44\n      tag_45\n      jump\t// in\n    tag_44:\n        /* \"contracts/9_struckTest01.sol\":371:379  products */\n      0x00\n        /* \"contracts/9_struckTest01.sol\":371:383  products[id] */\n      dup1\n        /* \"contracts/9_struckTest01.sol\":380:382  id */\n      dup4\n        /* \"contracts/9_struckTest01.sol\":371:383  products[id] */\n      dup2\n      mstore\n      0x20\n      add\n      swap1\n      dup2\n      mstore\n      0x20\n      add\n      0x00\n      keccak256\n        /* \"contracts/9_struckTest01.sol\":364:383  return products[id] */\n      mload(0x40)\n      dup1\n      0x80\n      add\n      0x40\n      mstore\n      swap1\n      dup2\n      0x00\n      dup3\n      add\n      sload\n      dup2\n      mstore\n      0x20\n      add\n      0x01\n      dup3\n      add\n      dup1\n      sload\n      tag_47\n      swap1\n      tag_39\n      jump\t// in\n    tag_47:\n      dup1\n      0x1f\n      add\n      0x20\n      dup1\n      swap2\n      div\n      mul\n      0x20\n      add\n      mload(0x40)\n      swap1\n      dup2\n      add\n      0x40\n      mstore\n      dup1\n      swap3\n      swap2\n      swap1\n      dup2\n      dup2\n      mstore\n      0x20\n      add\n      dup3\n      dup1\n      sload\n      tag_48\n      swap1\n      tag_39\n      jump\t// in\n    tag_48:\n      dup1\n      iszero\n      tag_49\n      jumpi\n      dup1\n      0x1f\n      lt\n      tag_50\n      jumpi\n      0x0100\n      dup1\n      dup4\n      sload\n      div\n      mul\n      dup4\n      mstore\n      swap2\n      0x20\n      add\n      swap2\n      jump(tag_49)\n    tag_50:\n      dup3\n      add\n      swap2\n      swap1\n      0x00\n      mstore\n      keccak256(0x00, 0x20)\n      swap1\n    tag_51:\n      dup2\n      sload\n      dup2\n      mstore\n      swap1\n      0x01\n      add\n      swap1\n      0x20\n      add\n      dup1\n      dup4\n      gt\n      tag_51\n      jumpi\n      dup3\n      swap1\n      sub\n      0x1f\n      and\n      dup3\n      add\n      swap2\n    tag_49:\n      pop\n      pop\n      pop\n      pop\n      pop\n      dup2\n      mstore\n      0x20\n      add\n      0x02\n      dup3\n      add\n      sload\n      dup2\n      mstore\n      0x20\n      add\n      0x03\n      dup3\n      add\n      sload\n      dup2\n      mstore\n      pop\n      pop\n      swap1\n      pop\n        /* \"contracts/9_struckTest01.sol\":285:391  function getProduct(uint256 id) public view returns (Product memory){... */\n      swap2\n      swap1\n      pop\n      jump\t// out\n    tag_45:\n      mload(0x40)\n      dup1\n      0x80\n      add\n      0x40\n      mstore\n      dup1\n      0x00\n      dup2\n      mstore\n      0x20\n      add\n      0x60\n      dup2\n      mstore\n      0x20\n      add\n      0x00\n      dup2\n      mstore\n      0x20\n      add\n      0x00\n      dup2\n      mstore\n      pop\n      swap1\n      jump\t// out\n        /* \"#utility.yul\":7:84   */\n    tag_52:\n        /* \"#utility.yul\":44:51   */\n      0x00\n        /* \"#utility.yul\":73:78   */\n      dup2\n        /* \"#utility.yul\":62:78   */\n      swap1\n      pop\n        /* \"#utility.yul\":7:84   */\n      swap2\n      swap1\n      pop\n      jump\t// out\n        /* \"#utility.yul\":90:208   */\n    tag_53:\n        /* \"#utility.yul\":177:201   */\n      tag_97\n        /* \"#utility.yul\":195:200   */\n      dup2\n        /* \"#utility.yul\":177:201   */\n      tag_52\n      jump\t// in\n    tag_97:\n        /* \"#utility.yul\":172:175   */\n      dup3\n        /* \"#utility.yul\":165:202   */\n      mstore\n        /* \"#utility.yul\":90:208   */\n      pop\n      pop\n      jump\t// out\n        /* \"#utility.yul\":214:436   */\n    tag_11:\n        /* \"#utility.yul\":307:311   */\n      0x00\n        /* \"#utility.yul\":345:347   */\n      0x20\n        /* \"#utility.yul\":334:343   */\n      dup3\n        /* \"#utility.yul\":330:348   */\n      add\n        /* \"#utility.yul\":322:348   */\n      swap1\n      pop\n        /* \"#utility.yul\":358:429   */\n      tag_99\n        /* \"#utility.yul\":426:427   */\n      0x00\n        /* \"#utility.yul\":415:424   */\n      dup4\n        /* \"#utility.yul\":411:428   */\n      add\n        /* \"#utility.yul\":402:408   */\n      dup5\n        /* \"#utility.yul\":358:429   */\n      tag_53\n      jump\t// in\n    tag_99:\n        /* \"#utility.yul\":214:436   */\n      swap3\n      swap2\n      pop\n      pop\n      jump\t// out\n        /* \"#utility.yul\":442:517   */\n    tag_54:\n        /* \"#utility.yul\":475:481   */\n      0x00\n        /* \"#utility.yul\":508:510   */\n      0x40\n        /* \"#utility.yul\":502:511   */\n      mload\n        /* \"#utility.yul\":492:511   */\n      swap1\n      pop\n        /* \"#utility.yul\":442:517   */\n      swap1\n      jump\t// out\n        /* \"#utility.yul\":523:640   */\n    tag_55:\n        /* \"#utility.yul\":632:633   */\n      0x00\n        /* \"#utility.yul\":629:630   */\n      dup1\n        /* \"#utility.yul\":622:634   */\n      revert\n        /* \"#utility.yul\":646:763   */\n    tag_56:\n        /* \"#utility.yul\":755:756   */\n      0x00\n        /* \"#utility.yul\":752:753   */\n      dup1\n        /* \"#utility.yul\":745:757   */\n      revert\n        /* \"#utility.yul\":769:886   */\n    tag_57:\n        /* \"#utility.yul\":878:879   */\n      0x00\n        /* \"#utility.yul\":875:876   */\n      dup1\n        /* \"#utility.yul\":868:880   */\n      revert\n        /* \"#utility.yul\":892:1009   */\n    tag_58:\n        /* \"#utility.yul\":1001:1002   */\n      0x00\n        /* \"#utility.yul\":998:999   */\n      dup1\n        /* \"#utility.yul\":991:1003   */\n      revert\n        /* \"#utility.yul\":1015:1117   */\n    tag_59:\n        /* \"#utility.yul\":1056:1062   */\n      0x00\n        /* \"#utility.yul\":1107:1109   */\n      0x1f\n        /* \"#utility.yul\":1103:1110   */\n      not\n        /* \"#utility.yul\":1098:1100   */\n      0x1f\n        /* \"#utility.yul\":1091:1096   */\n      dup4\n        /* \"#utility.yul\":1087:1101   */\n      add\n        /* \"#utility.yul\":1083:1111   */\n      and\n        /* \"#utility.yul\":1073:1111   */\n      swap1\n      pop\n        /* \"#utility.yul\":1015:1117   */\n      swap2\n      swap1\n      pop\n      jump\t// out\n        /* \"#utility.yul\":1123:1303   */\n    tag_60:\n        /* \"#utility.yul\":1171:1248   */\n      0x4e487b7100000000000000000000000000000000000000000000000000000000\n        /* \"#utility.yul\":1168:1169   */\n      0x00\n        /* \"#utility.yul\":1161:1249   */\n      mstore\n        /* \"#utility.yul\":1268:1272   */\n      0x41\n        /* \"#utility.yul\":1265:1266   */\n      0x04\n        /* \"#utility.yul\":1258:1273   */\n      mstore\n        /* \"#utility.yul\":1292:1296   */\n      0x24\n        /* \"#utility.yul\":1289:1290   */\n      0x00\n        /* \"#utility.yul\":1282:1297   */\n      revert\n        /* \"#utility.yul\":1309:1590   */\n    tag_61:\n        /* \"#utility.yul\":1392:1419   */\n      tag_108\n        /* \"#utility.yul\":1414:1418   */\n      dup3\n        /* \"#utility.yul\":1392:1419   */\n      tag_59\n      jump\t// in\n    tag_108:\n        /* \"#utility.yul\":1384:1390   */\n      dup2\n        /* \"#utility.yul\":1380:1420   */\n      add\n        /* \"#utility.yul\":1522:1528   */\n      dup2\n        /* \"#utility.yul\":1510:1520   */\n      dup2\n        /* \"#utility.yul\":1507:1529   */\n      lt\n        /* \"#utility.yul\":1486:1504   */\n      0xffffffffffffffff\n        /* \"#utility.yul\":1474:1484   */\n      dup3\n        /* \"#utility.yul\":1471:1505   */\n      gt\n        /* \"#utility.yul\":1468:1530   */\n      or\n        /* \"#utility.yul\":1465:1553   */\n      iszero\n      tag_109\n      jumpi\n        /* \"#utility.yul\":1533:1551   */\n      tag_110\n      tag_60\n      jump\t// in\n    tag_110:\n        /* \"#utility.yul\":1465:1553   */\n    tag_109:\n        /* \"#utility.yul\":1573:1583   */\n      dup1\n        /* \"#utility.yul\":1569:1571   */\n      0x40\n        /* \"#utility.yul\":1562:1584   */\n      mstore\n        /* \"#utility.yul\":1352:1590   */\n      pop\n        /* \"#utility.yul\":1309:1590   */\n      pop\n      pop\n      jump\t// out\n        /* \"#utility.yul\":1596:1725   */\n    tag_62:\n        /* \"#utility.yul\":1630:1636   */\n      0x00\n        /* \"#utility.yul\":1657:1677   */\n      tag_112\n      tag_54\n      jump\t// in\n    tag_112:\n        /* \"#utility.yul\":1647:1677   */\n      swap1\n      pop\n        /* \"#utility.yul\":1686:1719   */\n      tag_113\n        /* \"#utility.yul\":1714:1718   */\n      dup3\n        /* \"#utility.yul\":1706:1712   */\n      dup3\n        /* \"#utility.yul\":1686:1719   */\n      tag_61\n      jump\t// in\n    tag_113:\n        /* \"#utility.yul\":1596:1725   */\n      swap2\n      swap1\n      pop\n      jump\t// out\n        /* \"#utility.yul\":1731:2039   */\n    tag_63:\n        /* \"#utility.yul\":1793:1797   */\n      0x00\n        /* \"#utility.yul\":1883:1901   */\n      0xffffffffffffffff\n        /* \"#utility.yul\":1875:1881   */\n      dup3\n        /* \"#utility.yul\":1872:1902   */\n      gt\n        /* \"#utility.yul\":1869:1925   */\n      iszero\n      tag_115\n      jumpi\n        /* \"#utility.yul\":1905:1923   */\n      tag_116\n      tag_60\n      jump\t// in\n    tag_116:\n        /* \"#utility.yul\":1869:1925   */\n    tag_115:\n        /* \"#utility.yul\":1943:1972   */\n      tag_117\n        /* \"#utility.yul\":1965:1971   */\n      dup3\n        /* \"#utility.yul\":1943:1972   */\n      tag_59\n      jump\t// in\n    tag_117:\n        /* \"#utility.yul\":1935:1972   */\n      swap1\n      pop\n        /* \"#utility.yul\":2027:2031   */\n      0x20\n        /* \"#utility.yul\":2021:2025   */\n      dup2\n        /* \"#utility.yul\":2017:2032   */\n      add\n        /* \"#utility.yul\":2009:2032   */\n      swap1\n      pop\n        /* \"#utility.yul\":1731:2039   */\n      swap2\n      swap1\n      pop\n      jump\t// out\n        /* \"#utility.yul\":2045:2193   */\n    tag_64:\n        /* \"#utility.yul\":2143:2149   */\n      dup3\n        /* \"#utility.yul\":2138:2141   */\n      dup2\n        /* \"#utility.yul\":2133:2136   */\n      dup4\n        /* \"#utility.yul\":2120:2150   */\n      calldatacopy\n        /* \"#utility.yul\":2184:2185   */\n      0x00\n        /* \"#utility.yul\":2175:2181   */\n      dup4\n        /* \"#utility.yul\":2170:2173   */\n      dup4\n        /* \"#utility.yul\":2166:2182   */\n      add\n        /* \"#utility.yul\":2159:2186   */\n      mstore\n        /* \"#utility.yul\":2045:2193   */\n      pop\n      pop\n      pop\n      jump\t// out\n        /* \"#utility.yul\":2199:2624   */\n    tag_65:\n        /* \"#utility.yul\":2277:2282   */\n      0x00\n        /* \"#utility.yul\":2302:2368   */\n      tag_120\n        /* \"#utility.yul\":2318:2367   */\n      tag_121\n        /* \"#utility.yul\":2360:2366   */\n      dup5\n        /* \"#utility.yul\":2318:2367   */\n      tag_63\n      jump\t// in\n    tag_121:\n        /* \"#utility.yul\":2302:2368   */\n      tag_62\n      jump\t// in\n    tag_120:\n        /* \"#utility.yul\":2293:2368   */\n      swap1\n      pop\n        /* \"#utility.yul\":2391:2397   */\n      dup3\n        /* \"#utility.yul\":2384:2389   */\n      dup2\n        /* \"#utility.yul\":2377:2398   */\n      mstore\n        /* \"#utility.yul\":2429:2433   */\n      0x20\n        /* \"#utility.yul\":2422:2427   */\n      dup2\n        /* \"#utility.yul\":2418:2434   */\n      add\n        /* \"#utility.yul\":2467:2470   */\n      dup5\n        /* \"#utility.yul\":2458:2464   */\n      dup5\n        /* \"#utility.yul\":2453:2456   */\n      dup5\n        /* \"#utility.yul\":2449:2465   */\n      add\n        /* \"#utility.yul\":2446:2471   */\n      gt\n        /* \"#utility.yul\":2443:2555   */\n      iszero\n      tag_122\n      jumpi\n        /* \"#utility.yul\":2474:2553   */\n      tag_123\n      tag_58\n      jump\t// in\n    tag_123:\n        /* \"#utility.yul\":2443:2555   */\n    tag_122:\n        /* \"#utility.yul\":2564:2618   */\n      tag_124\n        /* \"#utility.yul\":2611:2617   */\n      dup5\n        /* \"#utility.yul\":2606:2609   */\n      dup3\n        /* \"#utility.yul\":2601:2604   */\n      dup6\n        /* \"#utility.yul\":2564:2618   */\n      tag_64\n      jump\t// in\n    tag_124:\n        /* \"#utility.yul\":2283:2624   */\n      pop\n        /* \"#utility.yul\":2199:2624   */\n      swap4\n      swap3\n      pop\n      pop\n      pop\n      jump\t// out\n        /* \"#utility.yul\":2644:2984   */\n    tag_66:\n        /* \"#utility.yul\":2700:2705   */\n      0x00\n        /* \"#utility.yul\":2749:2752   */\n      dup3\n        /* \"#utility.yul\":2742:2746   */\n      0x1f\n        /* \"#utility.yul\":2734:2740   */\n      dup4\n        /* \"#utility.yul\":2730:2747   */\n      add\n        /* \"#utility.yul\":2726:2753   */\n      slt\n        /* \"#utility.yul\":2716:2838   */\n      tag_126\n      jumpi\n        /* \"#utility.yul\":2757:2836   */\n      tag_127\n      tag_57\n      jump\t// in\n    tag_127:\n        /* \"#utility.yul\":2716:2838   */\n    tag_126:\n        /* \"#utility.yul\":2874:2880   */\n      dup2\n        /* \"#utility.yul\":2861:2881   */\n      calldataload\n        /* \"#utility.yul\":2899:2978   */\n      tag_128\n        /* \"#utility.yul\":2974:2977   */\n      dup5\n        /* \"#utility.yul\":2966:2972   */\n      dup3\n        /* \"#utility.yul\":2959:2963   */\n      0x20\n        /* \"#utility.yul\":2951:2957   */\n      dup7\n        /* \"#utility.yul\":2947:2964   */\n      add\n        /* \"#utility.yul\":2899:2978   */\n      tag_65\n      jump\t// in\n    tag_128:\n        /* \"#utility.yul\":2890:2978   */\n      swap2\n      pop\n        /* \"#utility.yul\":2706:2984   */\n      pop\n        /* \"#utility.yul\":2644:2984   */\n      swap3\n      swap2\n      pop\n      pop\n      jump\t// out\n        /* \"#utility.yul\":2990:3112   */\n    tag_67:\n        /* \"#utility.yul\":3063:3087   */\n      tag_130\n        /* \"#utility.yul\":3081:3086   */\n      dup2\n        /* \"#utility.yul\":3063:3087   */\n      tag_52\n      jump\t// in\n    tag_130:\n        /* \"#utility.yul\":3056:3061   */\n      dup2\n        /* \"#utility.yul\":3053:3088   */\n      eq\n        /* \"#utility.yul\":3043:3106   */\n      tag_131\n      jumpi\n        /* \"#utility.yul\":3102:3103   */\n      0x00\n        /* \"#utility.yul\":3099:3100   */\n      dup1\n        /* \"#utility.yul\":3092:3104   */\n      revert\n        /* \"#utility.yul\":3043:3106   */\n    tag_131:\n        /* \"#utility.yul\":2990:3112   */\n      pop\n      jump\t// out\n        /* \"#utility.yul\":3118:3257   */\n    tag_68:\n        /* \"#utility.yul\":3164:3169   */\n      0x00\n        /* \"#utility.yul\":3202:3208   */\n      dup2\n        /* \"#utility.yul\":3189:3209   */\n      calldataload\n        /* \"#utility.yul\":3180:3209   */\n      swap1\n      pop\n        /* \"#utility.yul\":3218:3251   */\n      tag_133\n        /* \"#utility.yul\":3245:3250   */\n      dup2\n        /* \"#utility.yul\":3218:3251   */\n      tag_67\n      jump\t// in\n    tag_133:\n        /* \"#utility.yul\":3118:3257   */\n      swap3\n      swap2\n      pop\n      pop\n      jump\t// out\n        /* \"#utility.yul\":3263:4062   */\n    tag_14:\n        /* \"#utility.yul\":3350:3356   */\n      0x00\n        /* \"#utility.yul\":3358:3364   */\n      dup1\n        /* \"#utility.yul\":3366:3372   */\n      0x00\n        /* \"#utility.yul\":3415:3417   */\n      0x60\n        /* \"#utility.yul\":3403:3412   */\n      dup5\n        /* \"#utility.yul\":3394:3401   */\n      dup7\n        /* \"#utility.yul\":3390:3413   */\n      sub\n        /* \"#utility.yul\":3386:3418   */\n      slt\n        /* \"#utility.yul\":3383:3502   */\n      iszero\n      tag_135\n      jumpi\n        /* \"#utility.yul\":3421:3500   */\n      tag_136\n      tag_55\n      jump\t// in\n    tag_136:\n        /* \"#utility.yul\":3383:3502   */\n    tag_135:\n        /* \"#utility.yul\":3569:3570   */\n      0x00\n        /* \"#utility.yul\":3558:3567   */\n      dup5\n        /* \"#utility.yul\":3554:3571   */\n      add\n        /* \"#utility.yul\":3541:3572   */\n      calldataload\n        /* \"#utility.yul\":3599:3617   */\n      0xffffffffffffffff\n        /* \"#utility.yul\":3591:3597   */\n      dup2\n        /* \"#utility.yul\":3588:3618   */\n      gt\n        /* \"#utility.yul\":3585:3702   */\n      iszero\n      tag_137\n      jumpi\n        /* \"#utility.yul\":3621:3700   */\n      tag_138\n      tag_56\n      jump\t// in\n    tag_138:\n        /* \"#utility.yul\":3585:3702   */\n    tag_137:\n        /* \"#utility.yul\":3726:3789   */\n      tag_139\n        /* \"#utility.yul\":3781:3788   */\n      dup7\n        /* \"#utility.yul\":3772:3778   */\n      dup3\n        /* \"#utility.yul\":3761:3770   */\n      dup8\n        /* \"#utility.yul\":3757:3779   */\n      add\n        /* \"#utility.yul\":3726:3789   */\n      tag_66\n      jump\t// in\n    tag_139:\n        /* \"#utility.yul\":3716:3789   */\n      swap4\n      pop\n        /* \"#utility.yul\":3512:3799   */\n      pop\n        /* \"#utility.yul\":3838:3840   */\n      0x20\n        /* \"#utility.yul\":3864:3917   */\n      tag_140\n        /* \"#utility.yul\":3909:3916   */\n      dup7\n        /* \"#utility.yul\":3900:3906   */\n      dup3\n        /* \"#utility.yul\":3889:3898   */\n      dup8\n        /* \"#utility.yul\":3885:3907   */\n      add\n        /* \"#utility.yul\":3864:3917   */\n      tag_68\n      jump\t// in\n    tag_140:\n        /* \"#utility.yul\":3854:3917   */\n      swap3\n      pop\n        /* \"#utility.yul\":3809:3927   */\n      pop\n        /* \"#utility.yul\":3966:3968   */\n      0x40\n        /* \"#utility.yul\":3992:4045   */\n      tag_141\n        /* \"#utility.yul\":4037:4044   */\n      dup7\n        /* \"#utility.yul\":4028:4034   */\n      dup3\n        /* \"#utility.yul\":4017:4026   */\n      dup8\n        /* \"#utility.yul\":4013:4035   */\n      add\n        /* \"#utility.yul\":3992:4045   */\n      tag_68\n      jump\t// in\n    tag_141:\n        /* \"#utility.yul\":3982:4045   */\n      swap2\n      pop\n        /* \"#utility.yul\":3937:4055   */\n      pop\n        /* \"#utility.yul\":3263:4062   */\n      swap3\n      pop\n      swap3\n      pop\n      swap3\n      jump\t// out\n        /* \"#utility.yul\":4068:4542   */\n    tag_18:\n        /* \"#utility.yul\":4136:4142   */\n      0x00\n        /* \"#utility.yul\":4144:4150   */\n      dup1\n        /* \"#utility.yul\":4193:4195   */\n      0x40\n        /* \"#utility.yul\":4181:4190   */\n      dup4\n        /* \"#utility.yul\":4172:4179   */\n      dup6\n        /* \"#utility.yul\":4168:4191   */\n      sub\n        /* \"#utility.yul\":4164:4196   */\n      slt\n        /* \"#utility.yul\":4161:4280   */\n      iszero\n      tag_143\n      jumpi\n        /* \"#utility.yul\":4199:4278   */\n      tag_144\n      tag_55\n      jump\t// in\n    tag_144:\n        /* \"#utility.yul\":4161:4280   */\n    tag_143:\n        /* \"#utility.yul\":4319:4320   */\n      0x00\n        /* \"#utility.yul\":4344:4397   */\n      tag_145\n        /* \"#utility.yul\":4389:4396   */\n      dup6\n        /* \"#utility.yul\":4380:4386   */\n      dup3\n        /* \"#utility.yul\":4369:4378   */\n      dup7\n        /* \"#utility.yul\":4365:4387   */\n      add\n        /* \"#utility.yul\":4344:4397   */\n      tag_68\n      jump\t// in\n    tag_145:\n        /* \"#utility.yul\":4334:4397   */\n      swap3\n      pop\n        /* \"#utility.yul\":4290:4407   */\n      pop\n        /* \"#utility.yul\":4446:4448   */\n      0x20\n        /* \"#utility.yul\":4472:4525   */\n      tag_146\n        /* \"#utility.yul\":4517:4524   */\n      dup6\n        /* \"#utility.yul\":4508:4514   */\n      dup3\n        /* \"#utility.yul\":4497:4506   */\n      dup7\n        /* \"#utility.yul\":4493:4515   */\n      add\n        /* \"#utility.yul\":4472:4525   */\n      tag_68\n      jump\t// in\n    tag_146:\n        /* \"#utility.yul\":4462:4525   */\n      swap2\n      pop\n        /* \"#utility.yul\":4417:4535   */\n      pop\n        /* \"#utility.yul\":4068:4542   */\n      swap3\n      pop\n      swap3\n      swap1\n      pop\n      jump\t// out\n        /* \"#utility.yul\":4548:4877   */\n    tag_22:\n        /* \"#utility.yul\":4607:4613   */\n      0x00\n        /* \"#utility.yul\":4656:4658   */\n      0x20\n        /* \"#utility.yul\":4644:4653   */\n      dup3\n        /* \"#utility.yul\":4635:4642   */\n      dup5\n        /* \"#utility.yul\":4631:4654   */\n      sub\n        /* \"#utility.yul\":4627:4659   */\n      slt\n        /* \"#utility.yul\":4624:4743   */\n      iszero\n      tag_148\n      jumpi\n        /* \"#utility.yul\":4662:4741   */\n      tag_149\n      tag_55\n      jump\t// in\n    tag_149:\n        /* \"#utility.yul\":4624:4743   */\n    tag_148:\n        /* \"#utility.yul\":4782:4783   */\n      0x00\n        /* \"#utility.yul\":4807:4860   */\n      tag_150\n        /* \"#utility.yul\":4852:4859   */\n      dup5\n        /* \"#utility.yul\":4843:4849   */\n      dup3\n        /* \"#utility.yul\":4832:4841   */\n      dup6\n        /* \"#utility.yul\":4828:4850   */\n      add\n        /* \"#utility.yul\":4807:4860   */\n      tag_68\n      jump\t// in\n    tag_150:\n        /* \"#utility.yul\":4797:4860   */\n      swap2\n      pop\n        /* \"#utility.yul\":4753:4870   */\n      pop\n        /* \"#utility.yul\":4548:4877   */\n      swap3\n      swap2\n      pop\n      pop\n      jump\t// out\n        /* \"#utility.yul\":4883:4982   */\n    tag_69:\n        /* \"#utility.yul\":4935:4941   */\n      0x00\n        /* \"#utility.yul\":4969:4974   */\n      dup2\n        /* \"#utility.yul\":4963:4975   */\n      mload\n        /* \"#utility.yul\":4953:4975   */\n      swap1\n      pop\n        /* \"#utility.yul\":4883:4982   */\n      swap2\n      swap1\n      pop\n      jump\t// out\n        /* \"#utility.yul\":4988:5157   */\n    tag_70:\n        /* \"#utility.yul\":5072:5083   */\n      0x00\n        /* \"#utility.yul\":5106:5112   */\n      dup3\n        /* \"#utility.yul\":5101:5104   */\n      dup3\n        /* \"#utility.yul\":5094:5113   */\n      mstore\n        /* \"#utility.yul\":5146:5150   */\n      0x20\n        /* \"#utility.yul\":5141:5144   */\n      dup3\n        /* \"#utility.yul\":5137:5151   */\n      add\n        /* \"#utility.yul\":5122:5151   */\n      swap1\n      pop\n        /* \"#utility.yul\":4988:5157   */\n      swap3\n      swap2\n      pop\n      pop\n      jump\t// out\n        /* \"#utility.yul\":5163:5302   */\n    tag_71:\n        /* \"#utility.yul\":5252:5258   */\n      dup3\n        /* \"#utility.yul\":5247:5250   */\n      dup2\n        /* \"#utility.yul\":5242:5245   */\n      dup4\n        /* \"#utility.yul\":5236:5259   */\n      mcopy\n        /* \"#utility.yul\":5293:5294   */\n      0x00\n        /* \"#utility.yul\":5284:5290   */\n      dup4\n        /* \"#utility.yul\":5279:5282   */\n      dup4\n        /* \"#utility.yul\":5275:5291   */\n      add\n        /* \"#utility.yul\":5268:5295   */\n      mstore\n        /* \"#utility.yul\":5163:5302   */\n      pop\n      pop\n      pop\n      jump\t// out\n        /* \"#utility.yul\":5308:5685   */\n    tag_72:\n        /* \"#utility.yul\":5396:5399   */\n      0x00\n        /* \"#utility.yul\":5424:5463   */\n      tag_155\n        /* \"#utility.yul\":5457:5462   */\n      dup3\n        /* \"#utility.yul\":5424:5463   */\n      tag_69\n      jump\t// in\n    tag_155:\n        /* \"#utility.yul\":5479:5550   */\n      tag_156\n        /* \"#utility.yul\":5543:5549   */\n      dup2\n        /* \"#utility.yul\":5538:5541   */\n      dup6\n        /* \"#utility.yul\":5479:5550   */\n      tag_70\n      jump\t// in\n    tag_156:\n        /* \"#utility.yul\":5472:5550   */\n      swap4\n      pop\n        /* \"#utility.yul\":5559:5624   */\n      tag_157\n        /* \"#utility.yul\":5617:5623   */\n      dup2\n        /* \"#utility.yul\":5612:5615   */\n      dup6\n        /* \"#utility.yul\":5605:5609   */\n      0x20\n        /* \"#utility.yul\":5598:5603   */\n      dup7\n        /* \"#utility.yul\":5594:5610   */\n      add\n        /* \"#utility.yul\":5559:5624   */\n      tag_71\n      jump\t// in\n    tag_157:\n        /* \"#utility.yul\":5649:5678   */\n      tag_158\n        /* \"#utility.yul\":5671:5677   */\n      dup2\n        /* \"#utility.yul\":5649:5678   */\n      tag_59\n      jump\t// in\n    tag_158:\n        /* \"#utility.yul\":5644:5647   */\n      dup5\n        /* \"#utility.yul\":5640:5679   */\n      add\n        /* \"#utility.yul\":5633:5679   */\n      swap2\n      pop\n        /* \"#utility.yul\":5400:5685   */\n      pop\n        /* \"#utility.yul\":5308:5685   */\n      swap3\n      swap2\n      pop\n      pop\n      jump\t// out\n        /* \"#utility.yul\":5691:6335   */\n    tag_25:\n        /* \"#utility.yul\":5888:5892   */\n      0x00\n        /* \"#utility.yul\":5926:5929   */\n      0x80\n        /* \"#utility.yul\":5915:5924   */\n      dup3\n        /* \"#utility.yul\":5911:5930   */\n      add\n        /* \"#utility.yul\":5903:5930   */\n      swap1\n      pop\n        /* \"#utility.yul\":5940:6011   */\n      tag_160\n        /* \"#utility.yul\":6008:6009   */\n      0x00\n        /* \"#utility.yul\":5997:6006   */\n      dup4\n        /* \"#utility.yul\":5993:6010   */\n      add\n        /* \"#utility.yul\":5984:5990   */\n      dup8\n        /* \"#utility.yul\":5940:6011   */\n      tag_53\n      jump\t// in\n    tag_160:\n        /* \"#utility.yul\":6058:6067   */\n      dup2\n        /* \"#utility.yul\":6052:6056   */\n      dup2\n        /* \"#utility.yul\":6048:6068   */\n      sub\n        /* \"#utility.yul\":6043:6045   */\n      0x20\n        /* \"#utility.yul\":6032:6041   */\n      dup4\n        /* \"#utility.yul\":6028:6046   */\n      add\n        /* \"#utility.yul\":6021:6069   */\n      mstore\n        /* \"#utility.yul\":6086:6164   */\n      tag_161\n        /* \"#utility.yul\":6159:6163   */\n      dup2\n        /* \"#utility.yul\":6150:6156   */\n      dup7\n        /* \"#utility.yul\":6086:6164   */\n      tag_72\n      jump\t// in\n    tag_161:\n        /* \"#utility.yul\":6078:6164   */\n      swap1\n      pop\n        /* \"#utility.yul\":6174:6246   */\n      tag_162\n        /* \"#utility.yul\":6242:6244   */\n      0x40\n        /* \"#utility.yul\":6231:6240   */\n      dup4\n        /* \"#utility.yul\":6227:6245   */\n      add\n        /* \"#utility.yul\":6218:6224   */\n      dup6\n        /* \"#utility.yul\":6174:6246   */\n      tag_53\n      jump\t// in\n    tag_162:\n        /* \"#utility.yul\":6256:6328   */\n      tag_163\n        /* \"#utility.yul\":6324:6326   */\n      0x60\n        /* \"#utility.yul\":6313:6322   */\n      dup4\n        /* \"#utility.yul\":6309:6327   */\n      add\n        /* \"#utility.yul\":6300:6306   */\n      dup5\n        /* \"#utility.yul\":6256:6328   */\n      tag_53\n      jump\t// in\n    tag_163:\n        /* \"#utility.yul\":5691:6335   */\n      swap6\n      swap5\n      pop\n      pop\n      pop\n      pop\n      pop\n      jump\t// out\n        /* \"#utility.yul\":6341:6449   */\n    tag_73:\n        /* \"#utility.yul\":6418:6442   */\n      tag_165\n        /* \"#utility.yul\":6436:6441   */\n      dup2\n        /* \"#utility.yul\":6418:6442   */\n      tag_52\n      jump\t// in\n    tag_165:\n        /* \"#utility.yul\":6413:6416   */\n      dup3\n        /* \"#utility.yul\":6406:6443   */\n      mstore\n        /* \"#utility.yul\":6341:6449   */\n      pop\n      pop\n      jump\t// out\n        /* \"#utility.yul\":6455:6614   */\n    tag_74:\n        /* \"#utility.yul\":6529:6540   */\n      0x00\n        /* \"#utility.yul\":6563:6569   */\n      dup3\n        /* \"#utility.yul\":6558:6561   */\n      dup3\n        /* \"#utility.yul\":6551:6570   */\n      mstore\n        /* \"#utility.yul\":6603:6607   */\n      0x20\n        /* \"#utility.yul\":6598:6601   */\n      dup3\n        /* \"#utility.yul\":6594:6608   */\n      add\n        /* \"#utility.yul\":6579:6608   */\n      swap1\n      pop\n        /* \"#utility.yul\":6455:6614   */\n      swap3\n      swap2\n      pop\n      pop\n      jump\t// out\n        /* \"#utility.yul\":6620:6977   */\n    tag_75:\n        /* \"#utility.yul\":6698:6701   */\n      0x00\n        /* \"#utility.yul\":6726:6765   */\n      tag_168\n        /* \"#utility.yul\":6759:6764   */\n      dup3\n        /* \"#utility.yul\":6726:6765   */\n      tag_69\n      jump\t// in\n    tag_168:\n        /* \"#utility.yul\":6781:6842   */\n      tag_169\n        /* \"#utility.yul\":6835:6841   */\n      dup2\n        /* \"#utility.yul\":6830:6833   */\n      dup6\n        /* \"#utility.yul\":6781:6842   */\n      tag_74\n      jump\t// in\n    tag_169:\n        /* \"#utility.yul\":6774:6842   */\n      swap4\n      pop\n        /* \"#utility.yul\":6851:6916   */\n      tag_170\n        /* \"#utility.yul\":6909:6915   */\n      dup2\n        /* \"#utility.yul\":6904:6907   */\n      dup6\n        /* \"#utility.yul\":6897:6901   */\n      0x20\n        /* \"#utility.yul\":6890:6895   */\n      dup7\n        /* \"#utility.yul\":6886:6902   */\n      add\n        /* \"#utility.yul\":6851:6916   */\n      tag_71\n      jump\t// in\n    tag_170:\n        /* \"#utility.yul\":6941:6970   */\n      tag_171\n        /* \"#utility.yul\":6963:6969   */\n      dup2\n        /* \"#utility.yul\":6941:6970   */\n      tag_59\n      jump\t// in\n    tag_171:\n        /* \"#utility.yul\":6936:6939   */\n      dup5\n        /* \"#utility.yul\":6932:6971   */\n      add\n        /* \"#utility.yul\":6925:6971   */\n      swap2\n      pop\n        /* \"#utility.yul\":6702:6977   */\n      pop\n        /* \"#utility.yul\":6620:6977   */\n      swap3\n      swap2\n      pop\n      pop\n      jump\t// out\n        /* \"#utility.yul\":7037:7985   */\n    tag_76:\n        /* \"#utility.yul\":7152:7155   */\n      0x00\n        /* \"#utility.yul\":7188:7192   */\n      0x80\n        /* \"#utility.yul\":7183:7186   */\n      dup4\n        /* \"#utility.yul\":7179:7193   */\n      add\n        /* \"#utility.yul\":7273:7277   */\n      0x00\n        /* \"#utility.yul\":7266:7271   */\n      dup4\n        /* \"#utility.yul\":7262:7278   */\n      add\n        /* \"#utility.yul\":7256:7279   */\n      mload\n        /* \"#utility.yul\":7292:7355   */\n      tag_173\n        /* \"#utility.yul\":7349:7353   */\n      0x00\n        /* \"#utility.yul\":7344:7347   */\n      dup7\n        /* \"#utility.yul\":7340:7354   */\n      add\n        /* \"#utility.yul\":7326:7338   */\n      dup3\n        /* \"#utility.yul\":7292:7355   */\n      tag_73\n      jump\t// in\n    tag_173:\n        /* \"#utility.yul\":7203:7365   */\n      pop\n        /* \"#utility.yul\":7447:7451   */\n      0x20\n        /* \"#utility.yul\":7440:7445   */\n      dup4\n        /* \"#utility.yul\":7436:7452   */\n      add\n        /* \"#utility.yul\":7430:7453   */\n      mload\n        /* \"#utility.yul\":7500:7503   */\n      dup5\n        /* \"#utility.yul\":7494:7498   */\n      dup3\n        /* \"#utility.yul\":7490:7504   */\n      sub\n        /* \"#utility.yul\":7483:7487   */\n      0x20\n        /* \"#utility.yul\":7478:7481   */\n      dup7\n        /* \"#utility.yul\":7474:7488   */\n      add\n        /* \"#utility.yul\":7467:7505   */\n      mstore\n        /* \"#utility.yul\":7526:7599   */\n      tag_174\n        /* \"#utility.yul\":7594:7598   */\n      dup3\n        /* \"#utility.yul\":7580:7592   */\n      dup3\n        /* \"#utility.yul\":7526:7599   */\n      tag_75\n      jump\t// in\n    tag_174:\n        /* \"#utility.yul\":7518:7599   */\n      swap2\n      pop\n        /* \"#utility.yul\":7375:7610   */\n      pop\n        /* \"#utility.yul\":7693:7697   */\n      0x40\n        /* \"#utility.yul\":7686:7691   */\n      dup4\n        /* \"#utility.yul\":7682:7698   */\n      add\n        /* \"#utility.yul\":7676:7699   */\n      mload\n        /* \"#utility.yul\":7712:7775   */\n      tag_175\n        /* \"#utility.yul\":7769:7773   */\n      0x40\n        /* \"#utility.yul\":7764:7767   */\n      dup7\n        /* \"#utility.yul\":7760:7774   */\n      add\n        /* \"#utility.yul\":7746:7758   */\n      dup3\n        /* \"#utility.yul\":7712:7775   */\n      tag_73\n      jump\t// in\n    tag_175:\n        /* \"#utility.yul\":7620:7785   */\n      pop\n        /* \"#utility.yul\":7866:7870   */\n      0x60\n        /* \"#utility.yul\":7859:7864   */\n      dup4\n        /* \"#utility.yul\":7855:7871   */\n      add\n        /* \"#utility.yul\":7849:7872   */\n      mload\n        /* \"#utility.yul\":7885:7948   */\n      tag_176\n        /* \"#utility.yul\":7942:7946   */\n      0x60\n        /* \"#utility.yul\":7937:7940   */\n      dup7\n        /* \"#utility.yul\":7933:7947   */\n      add\n        /* \"#utility.yul\":7919:7931   */\n      dup3\n        /* \"#utility.yul\":7885:7948   */\n      tag_73\n      jump\t// in\n    tag_176:\n        /* \"#utility.yul\":7795:7958   */\n      pop\n        /* \"#utility.yul\":7975:7979   */\n      dup1\n        /* \"#utility.yul\":7968:7979   */\n      swap2\n      pop\n        /* \"#utility.yul\":7157:7985   */\n      pop\n        /* \"#utility.yul\":7037:7985   */\n      swap3\n      swap2\n      pop\n      pop\n      jump\t// out\n        /* \"#utility.yul\":7991:8356   */\n    tag_30:\n        /* \"#utility.yul\":8130:8134   */\n      0x00\n        /* \"#utility.yul\":8168:8170   */\n      0x20\n        /* \"#utility.yul\":8157:8166   */\n      dup3\n        /* \"#utility.yul\":8153:8171   */\n      add\n        /* \"#utility.yul\":8145:8171   */\n      swap1\n      pop\n        /* \"#utility.yul\":8217:8226   */\n      dup2\n        /* \"#utility.yul\":8211:8215   */\n      dup2\n        /* \"#utility.yul\":8207:8227   */\n      sub\n        /* \"#utility.yul\":8203:8204   */\n      0x00\n        /* \"#utility.yul\":8192:8201   */\n      dup4\n        /* \"#utility.yul\":8188:8205   */\n      add\n        /* \"#utility.yul\":8181:8228   */\n      mstore\n        /* \"#utility.yul\":8245:8349   */\n      tag_178\n        /* \"#utility.yul\":8344:8348   */\n      dup2\n        /* \"#utility.yul\":8335:8341   */\n      dup5\n        /* \"#utility.yul\":8245:8349   */\n      tag_76\n      jump\t// in\n    tag_178:\n        /* \"#utility.yul\":8237:8349   */\n      swap1\n      pop\n        /* \"#utility.yul\":7991:8356   */\n      swap3\n      swap2\n      pop\n      pop\n      jump\t// out\n        /* \"#utility.yul\":8362:8542   */\n    tag_77:\n        /* \"#utility.yul\":8410:8487   */\n      0x4e487b7100000000000000000000000000000000000000000000000000000000\n        /* \"#utility.yul\":8407:8408   */\n      0x00\n        /* \"#utility.yul\":8400:8488   */\n      mstore\n        /* \"#utility.yul\":8507:8511   */\n      0x11\n        /* \"#utility.yul\":8504:8505   */\n      0x04\n        /* \"#utility.yul\":8497:8512   */\n      mstore\n        /* \"#utility.yul\":8531:8535   */\n      0x24\n        /* \"#utility.yul\":8528:8529   */\n      0x00\n        /* \"#utility.yul\":8521:8536   */\n      revert\n        /* \"#utility.yul\":8548:8781   */\n    tag_33:\n        /* \"#utility.yul\":8587:8590   */\n      0x00\n        /* \"#utility.yul\":8610:8634   */\n      tag_181\n        /* \"#utility.yul\":8628:8633   */\n      dup3\n        /* \"#utility.yul\":8610:8634   */\n      tag_52\n      jump\t// in\n    tag_181:\n        /* \"#utility.yul\":8601:8634   */\n      swap2\n      pop\n        /* \"#utility.yul\":8656:8722   */\n      0xffffffffffffffffffffffffffffffffffffffffffffffffffffffffffffffff\n        /* \"#utility.yul\":8649:8654   */\n      dup3\n        /* \"#utility.yul\":8646:8723   */\n      sub\n        /* \"#utility.yul\":8643:8746   */\n      tag_182\n      jumpi\n        /* \"#utility.yul\":8726:8744   */\n      tag_183\n      tag_77\n      jump\t// in\n    tag_183:\n        /* \"#utility.yul\":8643:8746   */\n    tag_182:\n        /* \"#utility.yul\":8773:8774   */\n      0x01\n        /* \"#utility.yul\":8766:8771   */\n      dup3\n        /* \"#utility.yul\":8762:8775   */\n      add\n        /* \"#utility.yul\":8755:8775   */\n      swap1\n      pop\n        /* \"#utility.yul\":8548:8781   */\n      swap2\n      swap1\n      pop\n      jump\t// out\n        /* \"#utility.yul\":8787:8967   */\n    tag_78:\n        /* \"#utility.yul\":8835:8912   */\n      0x4e487b7100000000000000000000000000000000000000000000000000000000\n        /* \"#utility.yul\":8832:8833   */\n      0x00\n        /* \"#utility.yul\":8825:8913   */\n      mstore\n        /* \"#utility.yul\":8932:8936   */\n      0x22\n        /* \"#utility.yul\":8929:8930   */\n      0x04\n        /* \"#utility.yul\":8922:8937   */\n      mstore\n        /* \"#utility.yul\":8956:8960   */\n      0x24\n        /* \"#utility.yul\":8953:8954   */\n      0x00\n        /* \"#utility.yul\":8946:8961   */\n      revert\n        /* \"#utility.yul\":8973:9293   */\n    tag_39:\n        /* \"#utility.yul\":9017:9023   */\n      0x00\n        /* \"#utility.yul\":9054:9055   */\n      0x02\n        /* \"#utility.yul\":9048:9052   */\n      dup3\n        /* \"#utility.yul\":9044:9056   */\n      div\n        /* \"#utility.yul\":9034:9056   */\n      swap1\n      pop\n        /* \"#utility.yul\":9101:9102   */\n      0x01\n        /* \"#utility.yul\":9095:9099   */\n      dup3\n        /* \"#utility.yul\":9091:9103   */\n      and\n        /* \"#utility.yul\":9122:9140   */\n      dup1\n        /* \"#utility.yul\":9112:9193   */\n      tag_186\n      jumpi\n        /* \"#utility.yul\":9178:9182   */\n      0x7f\n        /* \"#utility.yul\":9170:9176   */\n      dup3\n        /* \"#utility.yul\":9166:9183   */\n      and\n        /* \"#utility.yul\":9156:9183   */\n      swap2\n      pop\n        /* \"#utility.yul\":9112:9193   */\n    tag_186:\n        /* \"#utility.yul\":9240:9242   */\n      0x20\n        /* \"#utility.yul\":9232:9238   */\n      dup3\n        /* \"#utility.yul\":9229:9243   */\n      lt\n        /* \"#utility.yul\":9209:9227   */\n      dup2\n        /* \"#utility.yul\":9206:9244   */\n      sub\n        /* \"#utility.yul\":9203:9287   */\n      tag_187\n      jumpi\n        /* \"#utility.yul\":9259:9277   */\n      tag_188\n      tag_78\n      jump\t// in\n    tag_188:\n        /* \"#utility.yul\":9203:9287   */\n    tag_187:\n        /* \"#utility.yul\":9024:9293   */\n      pop\n        /* \"#utility.yul\":8973:9293   */\n      swap2\n      swap1\n      pop\n      jump\t// out\n        /* \"#utility.yul\":9299:9440   */\n    tag_79:\n        /* \"#utility.yul\":9348:9352   */\n      0x00\n        /* \"#utility.yul\":9371:9374   */\n      dup2\n        /* \"#utility.yul\":9363:9374   */\n      swap1\n      pop\n        /* \"#utility.yul\":9394:9397   */\n      dup2\n        /* \"#utility.yul\":9391:9392   */\n      0x00\n        /* \"#utility.yul\":9384:9398   */\n      mstore\n        /* \"#utility.yul\":9428:9432   */\n      0x20\n        /* \"#utility.yul\":9425:9426   */\n      0x00\n        /* \"#utility.yul\":9415:9433   */\n      keccak256\n        /* \"#utility.yul\":9407:9433   */\n      swap1\n      pop\n        /* \"#utility.yul\":9299:9440   */\n      swap2\n      swap1\n      pop\n      jump\t// out\n        /* \"#utility.yul\":9446:9539   */\n    tag_80:\n        /* \"#utility.yul\":9483:9489   */\n      0x00\n        /* \"#utility.yul\":9530:9532   */\n      0x20\n        /* \"#utility.yul\":9525:9527   */\n      0x1f\n        /* \"#utility.yul\":9518:9523   */\n      dup4\n        /* \"#utility.yul\":9514:9528   */\n      add\n        /* \"#utility.yul\":9510:9533   */\n      div\n        /* \"#utility.yul\":9500:9533   */\n      swap1\n      pop\n        /* \"#utility.yul\":9446:9539   */\n      swap2\n      swap1\n      pop\n      jump\t// out\n        /* \"#utility.yul\":9545:9652   */\n    tag_81:\n        /* \"#utility.yul\":9589:9597   */\n      0x00\n        /* \"#utility.yul\":9639:9644   */\n      dup3\n        /* \"#utility.yul\":9633:9637   */\n      dup3\n        /* \"#utility.yul\":9629:9645   */\n      shl\n        /* \"#utility.yul\":9608:9645   */\n      swap1\n      pop\n        /* \"#utility.yul\":9545:9652   */\n      swap3\n      swap2\n      pop\n      pop\n      jump\t// out\n        /* \"#utility.yul\":9658:10051   */\n    tag_82:\n        /* \"#utility.yul\":9727:9733   */\n      0x00\n        /* \"#utility.yul\":9777:9778   */\n      0x08\n        /* \"#utility.yul\":9765:9775   */\n      dup4\n        /* \"#utility.yul\":9761:9779   */\n      mul\n        /* \"#utility.yul\":9800:9897   */\n      tag_193\n        /* \"#utility.yul\":9830:9896   */\n      0xffffffffffffffffffffffffffffffffffffffffffffffffffffffffffffffff\n        /* \"#utility.yul\":9819:9828   */\n      dup3\n        /* \"#utility.yul\":9800:9897   */\n      tag_81\n      jump\t// in\n    tag_193:\n        /* \"#utility.yul\":9918:9957   */\n      tag_194\n        /* \"#utility.yul\":9948:9956   */\n      dup7\n        /* \"#utility.yul\":9937:9946   */\n      dup4\n        /* \"#utility.yul\":9918:9957   */\n      tag_81\n      jump\t// in\n    tag_194:\n        /* \"#utility.yul\":9906:9957   */\n      swap6\n      pop\n        /* \"#utility.yul\":9990:9994   */\n      dup1\n        /* \"#utility.yul\":9986:9995   */\n      not\n        /* \"#utility.yul\":9979:9984   */\n      dup5\n        /* \"#utility.yul\":9975:9996   */\n      and\n        /* \"#utility.yul\":9966:9996   */\n      swap4\n      pop\n        /* \"#utility.yul\":10039:10043   */\n      dup1\n        /* \"#utility.yul\":10029:10037   */\n      dup7\n        /* \"#utility.yul\":10025:10044   */\n      and\n        /* \"#utility.yul\":10018:10023   */\n      dup5\n        /* \"#utility.yul\":10015:10045   */\n      or\n        /* \"#utility.yul\":10005:10045   */\n      swap3\n      pop\n        /* \"#utility.yul\":9734:10051   */\n      pop\n      pop\n        /* \"#utility.yul\":9658:10051   */\n      swap4\n      swap3\n      pop\n      pop\n      pop\n      jump\t// out\n        /* \"#utility.yul\":10057:10117   */\n    tag_83:\n        /* \"#utility.yul\":10085:10088   */\n      0x00\n        /* \"#utility.yul\":10106:10111   */\n      dup2\n        /* \"#utility.yul\":10099:10111   */\n      swap1\n      pop\n        /* \"#utility.yul\":10057:10117   */\n      swap2\n      swap1\n      pop\n      jump\t// out\n        /* \"#utility.yul\":10123:10265   */\n    tag_84:\n        /* \"#utility.yul\":10173:10182   */\n      0x00\n        /* \"#utility.yul\":10206:10259   */\n      tag_197\n        /* \"#utility.yul\":10224:10258   */\n      tag_198\n        /* \"#utility.yul\":10233:10257   */\n      tag_199\n        /* \"#utility.yul\":10251:10256   */\n      dup5\n        /* \"#utility.yul\":10233:10257   */\n      tag_52\n      jump\t// in\n    tag_199:\n        /* \"#utility.yul\":10224:10258   */\n      tag_83\n      jump\t// in\n    tag_198:\n        /* \"#utility.yul\":10206:10259   */\n      tag_52\n      jump\t// in\n    tag_197:\n        /* \"#utility.yul\":10193:10259   */\n      swap1\n      pop\n        /* \"#utility.yul\":10123:10265   */\n      swap2\n      swap1\n      pop\n      jump\t// out\n        /* \"#utility.yul\":10271:10346   */\n    tag_85:\n        /* \"#utility.yul\":10314:10317   */\n      0x00\n        /* \"#utility.yul\":10335:10340   */\n      dup2\n        /* \"#utility.yul\":10328:10340   */\n      swap1\n      pop\n        /* \"#utility.yul\":10271:10346   */\n      swap2\n      swap1\n      pop\n      jump\t// out\n        /* \"#utility.yul\":10352:10621   */\n    tag_86:\n        /* \"#utility.yul\":10462:10501   */\n      tag_202\n        /* \"#utility.yul\":10493:10500   */\n      dup4\n        /* \"#utility.yul\":10462:10501   */\n      tag_84\n      jump\t// in\n    tag_202:\n        /* \"#utility.yul\":10523:10614   */\n      tag_203\n        /* \"#utility.yul\":10572:10613   */\n      tag_204\n        /* \"#utility.yul\":10596:10612   */\n      dup3\n        /* \"#utility.yul\":10572:10613   */\n      tag_85\n      jump\t// in\n    tag_204:\n        /* \"#utility.yul\":10564:10570   */\n      dup5\n        /* \"#utility.yul\":10557:10561   */\n      dup5\n        /* \"#utility.yul\":10551:10562   */\n      sload\n        /* \"#utility.yul\":10523:10614   */\n      tag_82\n      jump\t// in\n    tag_203:\n        /* \"#utility.yul\":10517:10521   */\n      dup3\n        /* \"#utility.yul\":10510:10615   */\n      sstore\n        /* \"#utility.yul\":10428:10621   */\n      pop\n        /* \"#utility.yul\":10352:10621   */\n      pop\n      pop\n      pop\n      jump\t// out\n        /* \"#utility.yul\":10627:10700   */\n    tag_87:\n        /* \"#utility.yul\":10672:10675   */\n      0x00\n        /* \"#utility.yul\":10627:10700   */\n      swap1\n      jump\t// out\n        /* \"#utility.yul\":10706:10895   */\n    tag_88:\n        /* \"#utility.yul\":10783:10815   */\n      tag_207\n      tag_87\n      jump\t// in\n    tag_207:\n        /* \"#utility.yul\":10824:10889   */\n      tag_208\n        /* \"#utility.yul\":10882:10888   */\n      dup2\n        /* \"#utility.yul\":10874:10880   */\n      dup5\n        /* \"#utility.yul\":10868:10872   */\n      dup5\n        /* \"#utility.yul\":10824:10889   */\n      tag_86\n      jump\t// in\n    tag_208:\n        /* \"#utility.yul\":10759:10895   */\n      pop\n        /* \"#utility.yul\":10706:10895   */\n      pop\n      pop\n      jump\t// out\n        /* \"#utility.yul\":10901:11087   */\n    tag_89:\n        /* \"#utility.yul\":10961:11081   */\n    tag_210:\n        /* \"#utility.yul\":10978:10981   */\n      dup2\n        /* \"#utility.yul\":10971:10976   */\n      dup2\n        /* \"#utility.yul\":10968:10982   */\n      lt\n        /* \"#utility.yul\":10961:11081   */\n      iszero\n      tag_212\n      jumpi\n        /* \"#utility.yul\":11032:11071   */\n      tag_213\n        /* \"#utility.yul\":11069:11070   */\n      0x00\n        /* \"#utility.yul\":11062:11067   */\n      dup3\n        /* \"#utility.yul\":11032:11071   */\n      tag_88\n      jump\t// in\n    tag_213:\n        /* \"#utility.yul\":11005:11006   */\n      0x01\n        /* \"#utility.yul\":10998:11003   */\n      dup2\n        /* \"#utility.yul\":10994:11007   */\n      add\n        /* \"#utility.yul\":10985:11007   */\n      swap1\n      pop\n        /* \"#utility.yul\":10961:11081   */\n      jump(tag_210)\n    tag_212:\n        /* \"#utility.yul\":10901:11087   */\n      pop\n      pop\n      jump\t// out\n        /* \"#utility.yul\":11093:11636   */\n    tag_90:\n        /* \"#utility.yul\":11194:11196   */\n      0x1f\n        /* \"#utility.yul\":11189:11192   */\n      dup3\n        /* \"#utility.yul\":11186:11197   */\n      gt\n        /* \"#utility.yul\":11183:11629   */\n      iszero\n      tag_215\n      jumpi\n        /* \"#utility.yul\":11228:11266   */\n      tag_216\n        /* \"#utility.yul\":11260:11265   */\n      dup2\n        /* \"#utility.yul\":11228:11266   */\n      tag_79\n      jump\t// in\n    tag_216:\n        /* \"#utility.yul\":11312:11341   */\n      tag_217\n        /* \"#utility.yul\":11330:11340   */\n      dup5\n        /* \"#utility.yul\":11312:11341   */\n      tag_80\n      jump\t// in\n    tag_217:\n        /* \"#utility.yul\":11302:11310   */\n      dup2\n        /* \"#utility.yul\":11298:11342   */\n      add\n        /* \"#utility.yul\":11495:11497   */\n      0x20\n        /* \"#utility.yul\":11483:11493   */\n      dup6\n        /* \"#utility.yul\":11480:11498   */\n      lt\n        /* \"#utility.yul\":11477:11526   */\n      iszero\n      tag_218\n      jumpi\n        /* \"#utility.yul\":11516:11524   */\n      dup2\n        /* \"#utility.yul\":11501:11524   */\n      swap1\n      pop\n        /* \"#utility.yul\":11477:11526   */\n    tag_218:\n        /* \"#utility.yul\":11539:11619   */\n      tag_219\n        /* \"#utility.yul\":11595:11617   */\n      tag_220\n        /* \"#utility.yul\":11613:11616   */\n      dup6\n        /* \"#utility.yul\":11595:11617   */\n      tag_80\n      jump\t// in\n    tag_220:\n        /* \"#utility.yul\":11585:11593   */\n      dup4\n        /* \"#utility.yul\":11581:11618   */\n      add\n        /* \"#utility.yul\":11568:11579   */\n      dup3\n        /* \"#utility.yul\":11539:11619   */\n      tag_89\n      jump\t// in\n    tag_219:\n        /* \"#utility.yul\":11198:11629   */\n      pop\n      pop\n        /* \"#utility.yul\":11183:11629   */\n    tag_215:\n        /* \"#utility.yul\":11093:11636   */\n      pop\n      pop\n      pop\n      jump\t// out\n        /* \"#utility.yul\":11642:11759   */\n    tag_91:\n        /* \"#utility.yul\":11696:11704   */\n      0x00\n        /* \"#utility.yul\":11746:11751   */\n      dup3\n        /* \"#utility.yul\":11740:11744   */\n      dup3\n        /* \"#utility.yul\":11736:11752   */\n      shr\n        /* \"#utility.yul\":11715:11752   */\n      swap1\n      pop\n        /* \"#utility.yul\":11642:11759   */\n      swap3\n      swap2\n      pop\n      pop\n      jump\t// out\n        /* \"#utility.yul\":11765:11934   */\n    tag_92:\n        /* \"#utility.yul\":11809:11815   */\n      0x00\n        /* \"#utility.yul\":11842:11893   */\n      tag_223\n        /* \"#utility.yul\":11890:11891   */\n      0x00\n        /* \"#utility.yul\":11886:11892   */\n      not\n        /* \"#utility.yul\":11878:11883   */\n      dup5\n        /* \"#utility.yul\":11875:11876   */\n      0x08\n        /* \"#utility.yul\":11871:11884   */\n      mul\n        /* \"#utility.yul\":11842:11893   */\n      tag_91\n      jump\t// in\n    tag_223:\n        /* \"#utility.yul\":11838:11894   */\n      not\n        /* \"#utility.yul\":11923:11927   */\n      dup1\n        /* \"#utility.yul\":11917:11921   */\n      dup4\n        /* \"#utility.yul\":11913:11928   */\n      and\n        /* \"#utility.yul\":11903:11928   */\n      swap2\n      pop\n        /* \"#utility.yul\":11816:11934   */\n      pop\n        /* \"#utility.yul\":11765:11934   */\n      swap3\n      swap2\n      pop\n      pop\n      jump\t// out\n        /* \"#utility.yul\":11939:12234   */\n    tag_93:\n        /* \"#utility.yul\":12015:12019   */\n      0x00\n        /* \"#utility.yul\":12161:12190   */\n      tag_225\n        /* \"#utility.yul\":12186:12189   */\n      dup4\n        /* \"#utility.yul\":12180:12184   */\n      dup4\n        /* \"#utility.yul\":12161:12190   */\n      tag_92\n      jump\t// in\n    tag_225:\n        /* \"#utility.yul\":12153:12190   */\n      swap2\n      pop\n        /* \"#utility.yul\":12223:12226   */\n      dup3\n        /* \"#utility.yul\":12220:12221   */\n      0x02\n        /* \"#utility.yul\":12216:12227   */\n      mul\n        /* \"#utility.yul\":12210:12214   */\n      dup3\n        /* \"#utility.yul\":12207:12228   */\n      or\n        /* \"#utility.yul\":12199:12228   */\n      swap1\n      pop\n        /* \"#utility.yul\":11939:12234   */\n      swap3\n      swap2\n      pop\n      pop\n      jump\t// out\n        /* \"#utility.yul\":12239:13634   */\n    tag_36:\n        /* \"#utility.yul\":12356:12393   */\n      tag_227\n        /* \"#utility.yul\":12389:12392   */\n      dup3\n        /* \"#utility.yul\":12356:12393   */\n      tag_69\n      jump\t// in\n    tag_227:\n        /* \"#utility.yul\":12458:12476   */\n      0xffffffffffffffff\n        /* \"#utility.yul\":12450:12456   */\n      dup2\n        /* \"#utility.yul\":12447:12477   */\n      gt\n        /* \"#utility.yul\":12444:12500   */\n      iszero\n      tag_228\n      jumpi\n        /* \"#utility.yul\":12480:12498   */\n      tag_229\n      tag_60\n      jump\t// in\n    tag_229:\n        /* \"#utility.yul\":12444:12500   */\n    tag_228:\n        /* \"#utility.yul\":12524:12562   */\n      tag_230\n        /* \"#utility.yul\":12556:12560   */\n      dup3\n        /* \"#utility.yul\":12550:12561   */\n      sload\n        /* \"#utility.yul\":12524:12562   */\n      tag_39\n      jump\t// in\n    tag_230:\n        /* \"#utility.yul\":12609:12676   */\n      tag_231\n        /* \"#utility.yul\":12669:12675   */\n      dup3\n        /* \"#utility.yul\":12661:12667   */\n      dup3\n        /* \"#utility.yul\":12655:12659   */\n      dup6\n        /* \"#utility.yul\":12609:12676   */\n      tag_90\n      jump\t// in\n    tag_231:\n        /* \"#utility.yul\":12703:12704   */\n      0x00\n        /* \"#utility.yul\":12727:12731   */\n      0x20\n        /* \"#utility.yul\":12714:12731   */\n      swap1\n      pop\n        /* \"#utility.yul\":12759:12761   */\n      0x1f\n        /* \"#utility.yul\":12751:12757   */\n      dup4\n        /* \"#utility.yul\":12748:12762   */\n      gt\n        /* \"#utility.yul\":12776:12777   */\n      0x01\n        /* \"#utility.yul\":12771:13389   */\n      dup2\n      eq\n      tag_233\n      jumpi\n        /* \"#utility.yul\":13433:13434   */\n      0x00\n        /* \"#utility.yul\":13450:13456   */\n      dup5\n        /* \"#utility.yul\":13447:13524   */\n      iszero\n      tag_234\n      jumpi\n        /* \"#utility.yul\":13499:13508   */\n      dup3\n        /* \"#utility.yul\":13494:13497   */\n      dup8\n        /* \"#utility.yul\":13490:13509   */\n      add\n        /* \"#utility.yul\":13484:13510   */\n      mload\n        /* \"#utility.yul\":13475:13510   */\n      swap1\n      pop\n        /* \"#utility.yul\":13447:13524   */\n    tag_234:\n        /* \"#utility.yul\":13550:13617   */\n      tag_235\n        /* \"#utility.yul\":13610:13616   */\n      dup6\n        /* \"#utility.yul\":13603:13608   */\n      dup3\n        /* \"#utility.yul\":13550:13617   */\n      tag_93\n      jump\t// in\n    tag_235:\n        /* \"#utility.yul\":13544:13548   */\n      dup7\n        /* \"#utility.yul\":13537:13618   */\n      sstore\n        /* \"#utility.yul\":13406:13628   */\n      pop\n        /* \"#utility.yul\":12741:13628   */\n      jump(tag_232)\n        /* \"#utility.yul\":12771:13389   */\n    tag_233:\n        /* \"#utility.yul\":12823:12827   */\n      0x1f\n        /* \"#utility.yul\":12819:12828   */\n      not\n        /* \"#utility.yul\":12811:12817   */\n      dup5\n        /* \"#utility.yul\":12807:12829   */\n      and\n        /* \"#utility.yul\":12857:12894   */\n      tag_236\n        /* \"#utility.yul\":12889:12893   */\n      dup7\n        /* \"#utility.yul\":12857:12894   */\n      tag_79\n      jump\t// in\n    tag_236:\n        /* \"#utility.yul\":12916:12917   */\n      0x00\n        /* \"#utility.yul\":12930:13138   */\n    tag_237:\n        /* \"#utility.yul\":12944:12951   */\n      dup3\n        /* \"#utility.yul\":12941:12942   */\n      dup2\n        /* \"#utility.yul\":12938:12952   */\n      lt\n        /* \"#utility.yul\":12930:13138   */\n      iszero\n      tag_239\n      jumpi\n        /* \"#utility.yul\":13023:13032   */\n      dup5\n        /* \"#utility.yul\":13018:13021   */\n      dup10\n        /* \"#utility.yul\":13014:13033   */\n      add\n        /* \"#utility.yul\":13008:13034   */\n      mload\n        /* \"#utility.yul\":13000:13006   */\n      dup3\n        /* \"#utility.yul\":12993:13035   */\n      sstore\n        /* \"#utility.yul\":13074:13075   */\n      0x01\n        /* \"#utility.yul\":13066:13072   */\n      dup3\n        /* \"#utility.yul\":13062:13076   */\n      add\n        /* \"#utility.yul\":13052:13076   */\n      swap2\n      pop\n        /* \"#utility.yul\":13121:13123   */\n      0x20\n        /* \"#utility.yul\":13110:13119   */\n      dup6\n        /* \"#utility.yul\":13106:13124   */\n      add\n        /* \"#utility.yul\":13093:13124   */\n      swap5\n      pop\n        /* \"#utility.yul\":12967:12971   */\n      0x20\n        /* \"#utility.yul\":12964:12965   */\n      dup2\n        /* \"#utility.yul\":12960:12972   */\n      add\n        /* \"#utility.yul\":12955:12972   */\n      swap1\n      pop\n        /* \"#utility.yul\":12930:13138   */\n      jump(tag_237)\n    tag_239:\n        /* \"#utility.yul\":13166:13172   */\n      dup7\n        /* \"#utility.yul\":13157:13164   */\n      dup4\n        /* \"#utility.yul\":13154:13173   */\n      lt\n        /* \"#utility.yul\":13151:13330   */\n      iszero\n      tag_240\n      jumpi\n        /* \"#utility.yul\":13224:13233   */\n      dup5\n        /* \"#utility.yul\":13219:13222   */\n      dup10\n        /* \"#utility.yul\":13215:13234   */\n      add\n        /* \"#utility.yul\":13209:13235   */\n      mload\n        /* \"#utility.yul\":13267:13315   */\n      tag_241\n        /* \"#utility.yul\":13309:13313   */\n      0x1f\n        /* \"#utility.yul\":13301:13307   */\n      dup10\n        /* \"#utility.yul\":13297:13314   */\n      and\n        /* \"#utility.yul\":13286:13295   */\n      dup3\n        /* \"#utility.yul\":13267:13315   */\n      tag_92\n      jump\t// in\n    tag_241:\n        /* \"#utility.yul\":13259:13265   */\n      dup4\n        /* \"#utility.yul\":13252:13316   */\n      sstore\n        /* \"#utility.yul\":13174:13330   */\n      pop\n        /* \"#utility.yul\":13151:13330   */\n    tag_240:\n        /* \"#utility.yul\":13376:13377   */\n      0x01\n        /* \"#utility.yul\":13372:13373   */\n      0x02\n        /* \"#utility.yul\":13364:13370   */\n      dup9\n        /* \"#utility.yul\":13360:13374   */\n      mul\n        /* \"#utility.yul\":13356:13378   */\n      add\n        /* \"#utility.yul\":13350:13354   */\n      dup9\n        /* \"#utility.yul\":13343:13379   */\n      sstore\n        /* \"#utility.yul\":12778:13389   */\n      pop\n      pop\n      pop\n        /* \"#utility.yul\":12741:13628   */\n    tag_232:\n      pop\n        /* \"#utility.yul\":12331:13634   */\n      pop\n      pop\n      pop\n        /* \"#utility.yul\":12239:13634   */\n      pop\n      pop\n      jump\t// out\n\n    auxdata: 0xa2646970667358221220f0a588bd1c62b98de4d7921ddff42dd0199fd56b71bdb5733ed392a61ddcbf0d64736f6c634300081a0033\n}\n",
				"bytecode": {
					"linkReferences": {},
					"object": "6080604052348015600e575f80fd5b50610ae78061001c5f395ff3fe608060405234801561000f575f80fd5b5060043610610055575f3560e01c806306661abd14610059578063125b0b341461007757806331f45cab146100935780637acc0b20146100af578063b9db15b4146100e2575b5f80fd5b610061610112565b60405161006e919061038e565b60405180910390f35b610091600480360381019061008c919061051e565b610118565b005b6100ad60048036038101906100a8919061058a565b6101ad565b005b6100c960048036038101906100c491906105c8565b6101c9565b6040516100d99493929190610653565b60405180910390f35b6100fc60048036038101906100f791906105c8565b61027a565b6040516101099190610754565b60405180910390f35b60015481565b604051806080016040528060015f815480929190610135906107a1565b919050558152602001848152602001838152602001828152505f8060015f815480929190610162906107a1565b9190505581526020019081526020015f205f820151815f0155602082015181600101908161019091906109e2565b506040820151816002015560608201518160030155905050505050565b805f808481526020019081526020015f20600301819055505050565b5f602052805f5260405f205f91509050805f0154908060010180546101ed90610815565b80601f016020809104026020016040519081016040528092919081815260200182805461021990610815565b80156102645780601f1061023b57610100808354040283529160200191610264565b820191905f5260205f20905b81548152906001019060200180831161024757829003601f168201915b5050505050908060020154908060030154905084565b610282610351565b5f808381526020019081526020015f206040518060800160405290815f82015481526020016001820180546102b690610815565b80601f01602080910402602001604051908101604052809291908181526020018280546102e290610815565b801561032d5780601f106103045761010080835404028352916020019161032d565b820191905f5260205f20905b81548152906001019060200180831161031057829003601f168201915b50505050508152602001600282015481526020016003820154815250509050919050565b60405180608001604052805f8152602001606081526020015f81526020015f81525090565b5f819050919050565b61038881610376565b82525050565b5f6020820190506103a15f83018461037f565b92915050565b5f604051905090565b5f80fd5b5f80fd5b5f80fd5b5f80fd5b5f601f19601f8301169050919050565b7f4e487b71000000000000000000000000000000000000000000000000000000005f52604160045260245ffd5b610406826103c0565b810181811067ffffffffffffffff82111715610425576104246103d0565b5b80604052505050565b5f6104376103a7565b905061044382826103fd565b919050565b5f67ffffffffffffffff821115610462576104616103d0565b5b61046b826103c0565b9050602081019050919050565b828183375f83830152505050565b5f61049861049384610448565b61042e565b9050828152602081018484840111156104b4576104b36103bc565b5b6104bf848285610478565b509392505050565b5f82601f8301126104db576104da6103b8565b5b81356104eb848260208601610486565b91505092915050565b6104fd81610376565b8114610507575f80fd5b50565b5f81359050610518816104f4565b92915050565b5f805f60608486031215610535576105346103b0565b5b5f84013567ffffffffffffffff811115610552576105516103b4565b5b61055e868287016104c7565b935050602061056f8682870161050a565b92505060406105808682870161050a565b9150509250925092565b5f80604083850312156105a05761059f6103b0565b5b5f6105ad8582860161050a565b92505060206105be8582860161050a565b9150509250929050565b5f602082840312156105dd576105dc6103b0565b5b5f6105ea8482850161050a565b91505092915050565b5f81519050919050565b5f82825260208201905092915050565b8281835e5f83830152505050565b5f610625826105f3565b61062f81856105fd565b935061063f81856020860161060d565b610648816103c0565b840191505092915050565b5f6080820190506106665f83018761037f565b8181036020830152610678818661061b565b9050610687604083018561037f565b610694606083018461037f565b95945050505050565b6106a681610376565b82525050565b5f82825260208201905092915050565b5f6106c6826105f3565b6106d081856106ac565b93506106e081856020860161060d565b6106e9816103c0565b840191505092915050565b5f608083015f8301516107095f86018261069d565b506020830151848203602086015261072182826106bc565b9150506040830151610736604086018261069d565b506060830151610749606086018261069d565b508091505092915050565b5f6020820190508181035f83015261076c81846106f4565b905092915050565b7f4e487b71000000000000000000000000000000000000000000000000000000005f52601160045260245ffd5b5f6107ab82610376565b91507fffffffffffffffffffffffffffffffffffffffffffffffffffffffffffffffff82036107dd576107dc610774565b5b600182019050919050565b7f4e487b71000000000000000000000000000000000000000000000000000000005f52602260045260245ffd5b5f600282049050600182168061082c57607f821691505b60208210810361083f5761083e6107e8565b5b50919050565b5f819050815f5260205f209050919050565b5f6020601f8301049050919050565b5f82821b905092915050565b5f600883026108a17fffffffffffffffffffffffffffffffffffffffffffffffffffffffffffffffff82610866565b6108ab8683610866565b95508019841693508086168417925050509392505050565b5f819050919050565b5f6108e66108e16108dc84610376565b6108c3565b610376565b9050919050565b5f819050919050565b6108ff836108cc565b61091361090b826108ed565b848454610872565b825550505050565b5f90565b61092761091b565b6109328184846108f6565b505050565b5b818110156109555761094a5f8261091f565b600181019050610938565b5050565b601f82111561099a5761096b81610845565b61097484610857565b81016020851015610983578190505b61099761098f85610857565b830182610937565b50505b505050565b5f82821c905092915050565b5f6109ba5f198460080261099f565b1980831691505092915050565b5f6109d283836109ab565b9150826002028217905092915050565b6109eb826105f3565b67ffffffffffffffff811115610a0457610a036103d0565b5b610a0e8254610815565b610a19828285610959565b5f60209050601f831160018114610a4a575f8415610a38578287015190505b610a4285826109c7565b865550610aa9565b601f198416610a5886610845565b5f5b82811015610a7f57848901518255600182019150602085019450602081019050610a5a565b86831015610a9c5784890151610a98601f8916826109ab565b8355505b6001600288020188555050505b50505050505056fea2646970667358221220f0a588bd1c62b98de4d7921ddff42dd0199fd56b71bdb5733ed392a61ddcbf0d64736f6c634300081a0033",
					"opcodes": "PUSH1 0x80 PUSH1 0x40 MSTORE CALLVALUE DUP1 ISZERO PUSH1 0xE JUMPI PUSH0 DUP1 REVERT JUMPDEST POP PUSH2 0xAE7 DUP1 PUSH2 0x1C PUSH0 CODECOPY PUSH0 RETURN INVALID PUSH1 0x80 PUSH1 0x40 MSTORE CALLVALUE DUP1 ISZERO PUSH2 0xF JUMPI PUSH0 DUP1 REVERT JUMPDEST POP PUSH1 0x4 CALLDATASIZE LT PUSH2 0x55 JUMPI PUSH0 CALLDATALOAD PUSH1 0xE0 SHR DUP1 PUSH4 0x6661ABD EQ PUSH2 0x59 JUMPI DUP1 PUSH4 0x125B0B34 EQ PUSH2 0x77 JUMPI DUP1 PUSH4 0x31F45CAB EQ PUSH2 0x93 JUMPI DUP1 PUSH4 0x7ACC0B20 EQ PUSH2 0xAF JUMPI DUP1 PUSH4 0xB9DB15B4 EQ PUSH2 0xE2 JUMPI JUMPDEST PUSH0 DUP1 REVERT JUMPDEST PUSH2 0x61 PUSH2 0x112 JUMP JUMPDEST PUSH1 0x40 MLOAD PUSH2 0x6E SWAP2 SWAP1 PUSH2 0x38E JUMP JUMPDEST PUSH1 0x40 MLOAD DUP1 SWAP2 SUB SWAP1 RETURN JUMPDEST PUSH2 0x91 PUSH1 0x4 DUP1 CALLDATASIZE SUB DUP2 ADD SWAP1 PUSH2 0x8C SWAP2 SWAP1 PUSH2 0x51E JUMP JUMPDEST PUSH2 0x118 JUMP JUMPDEST STOP JUMPDEST PUSH2 0xAD PUSH1 0x4 DUP1 CALLDATASIZE SUB DUP2 ADD SWAP1 PUSH2 0xA8 SWAP2 SWAP1 PUSH2 0x58A JUMP JUMPDEST PUSH2 0x1AD JUMP JUMPDEST STOP JUMPDEST PUSH2 0xC9 PUSH1 0x4 DUP1 CALLDATASIZE SUB DUP2 ADD SWAP1 PUSH2 0xC4 SWAP2 SWAP1 PUSH2 0x5C8 JUMP JUMPDEST PUSH2 0x1C9 JUMP JUMPDEST PUSH1 0x40 MLOAD PUSH2 0xD9 SWAP5 SWAP4 SWAP3 SWAP2 SWAP1 PUSH2 0x653 JUMP JUMPDEST PUSH1 0x40 MLOAD DUP1 SWAP2 SUB SWAP1 RETURN JUMPDEST PUSH2 0xFC PUSH1 0x4 DUP1 CALLDATASIZE SUB DUP2 ADD SWAP1 PUSH2 0xF7 SWAP2 SWAP1 PUSH2 0x5C8 JUMP JUMPDEST PUSH2 0x27A JUMP JUMPDEST PUSH1 0x40 MLOAD PUSH2 0x109 SWAP2 SWAP1 PUSH2 0x754 JUMP JUMPDEST PUSH1 0x40 MLOAD DUP1 SWAP2 SUB SWAP1 RETURN JUMPDEST PUSH1 0x1 SLOAD DUP2 JUMP JUMPDEST PUSH1 0x40 MLOAD DUP1 PUSH1 0x80 ADD PUSH1 0x40 MSTORE DUP1 PUSH1 0x1 PUSH0 DUP2 SLOAD DUP1 SWAP3 SWAP2 SWAP1 PUSH2 0x135 SWAP1 PUSH2 0x7A1 JUMP JUMPDEST SWAP2 SWAP1 POP SSTORE DUP2 MSTORE PUSH1 0x20 ADD DUP5 DUP2 MSTORE PUSH1 0x20 ADD DUP4 DUP2 MSTORE PUSH1 0x20 ADD DUP3 DUP2 MSTORE POP PUSH0 DUP1 PUSH1 0x1 PUSH0 DUP2 SLOAD DUP1 SWAP3 SWAP2 SWAP1 PUSH2 0x162 SWAP1 PUSH2 0x7A1 JUMP JUMPDEST SWAP2 SWAP1 POP SSTORE DUP2 MSTORE PUSH1 0x20 ADD SWAP1 DUP2 MSTORE PUSH1 0x20 ADD PUSH0 KECCAK256 PUSH0 DUP3 ADD MLOAD DUP2 PUSH0 ADD SSTORE PUSH1 0x20 DUP3 ADD MLOAD DUP2 PUSH1 0x1 ADD SWAP1 DUP2 PUSH2 0x190 SWAP2 SWAP1 PUSH2 0x9E2 JUMP JUMPDEST POP PUSH1 0x40 DUP3 ADD MLOAD DUP2 PUSH1 0x2 ADD SSTORE PUSH1 0x60 DUP3 ADD MLOAD DUP2 PUSH1 0x3 ADD SSTORE SWAP1 POP POP POP POP POP JUMP JUMPDEST DUP1 PUSH0 DUP1 DUP5 DUP2 MSTORE PUSH1 0x20 ADD SWAP1 DUP2 MSTORE PUSH1 0x20 ADD PUSH0 KECCAK256 PUSH1 0x3 ADD DUP2 SWAP1 SSTORE POP POP POP JUMP JUMPDEST PUSH0 PUSH1 0x20 MSTORE DUP1 PUSH0 MSTORE PUSH1 0x40 PUSH0 KECCAK256 PUSH0 SWAP2 POP SWAP1 POP DUP1 PUSH0 ADD SLOAD SWAP1 DUP1 PUSH1 0x1 ADD DUP1 SLOAD PUSH2 0x1ED SWAP1 PUSH2 0x815 JUMP JUMPDEST DUP1 PUSH1 0x1F ADD PUSH1 0x20 DUP1 SWAP2 DIV MUL PUSH1 0x20 ADD PUSH1 0x40 MLOAD SWAP1 DUP2 ADD PUSH1 0x40 MSTORE DUP1 SWAP3 SWAP2 SWAP1 DUP2 DUP2 MSTORE PUSH1 0x20 ADD DUP3 DUP1 SLOAD PUSH2 0x219 SWAP1 PUSH2 0x815 JUMP JUMPDEST DUP1 ISZERO PUSH2 0x264 JUMPI DUP1 PUSH1 0x1F LT PUSH2 0x23B JUMPI PUSH2 0x100 DUP1 DUP4 SLOAD DIV MUL DUP4 MSTORE SWAP2 PUSH1 0x20 ADD SWAP2 PUSH2 0x264 JUMP JUMPDEST DUP3 ADD SWAP2 SWAP1 PUSH0 MSTORE PUSH1 0x20 PUSH0 KECCAK256 SWAP1 JUMPDEST DUP2 SLOAD DUP2 MSTORE SWAP1 PUSH1 0x1 ADD SWAP1 PUSH1 0x20 ADD DUP1 DUP4 GT PUSH2 0x247 JUMPI DUP3 SWAP1 SUB PUSH1 0x1F AND DUP3 ADD SWAP2 JUMPDEST POP POP POP POP POP SWAP1 DUP1 PUSH1 0x2 ADD SLOAD SWAP1 DUP1 PUSH1 0x3 ADD SLOAD SWAP1 POP DUP5 JUMP JUMPDEST PUSH2 0x282 PUSH2 0x351 JUMP JUMPDEST PUSH0 DUP1 DUP4 DUP2 MSTORE PUSH1 0x20 ADD SWAP1 DUP2 MSTORE PUSH1 0x20 ADD PUSH0 KECCAK256 PUSH1 0x40 MLOAD DUP1 PUSH1 0x80 ADD PUSH1 0x40 MSTORE SWAP1 DUP2 PUSH0 DUP3 ADD SLOAD DUP2 MSTORE PUSH1 0x20 ADD PUSH1 0x1 DUP3 ADD DUP1 SLOAD PUSH2 0x2B6 SWAP1 PUSH2 0x815 JUMP JUMPDEST DUP1 PUSH1 0x1F ADD PUSH1 0x20 DUP1 SWAP2 DIV MUL PUSH1 0x20 ADD PUSH1 0x40 MLOAD SWAP1 DUP2 ADD PUSH1 0x40 MSTORE DUP1 SWAP3 SWAP2 SWAP1 DUP2 DUP2 MSTORE PUSH1 0x20 ADD DUP3 DUP1 SLOAD PUSH2 0x2E2 SWAP1 PUSH2 0x815 JUMP JUMPDEST DUP1 ISZERO PUSH2 0x32D JUMPI DUP1 PUSH1 0x1F LT PUSH2 0x304 JUMPI PUSH2 0x100 DUP1 DUP4 SLOAD DIV MUL DUP4 MSTORE SWAP2 PUSH1 0x20 ADD SWAP2 PUSH2 0x32D JUMP JUMPDEST DUP3 ADD SWAP2 SWAP1 PUSH0 MSTORE PUSH1 0x20 PUSH0 KECCAK256 SWAP1 JUMPDEST DUP2 SLOAD DUP2 MSTORE SWAP1 PUSH1 0x1 ADD SWAP1 PUSH1 0x20 ADD DUP1 DUP4 GT PUSH2 0x310 JUMPI DUP3 SWAP1 SUB PUSH1 0x1F AND DUP3 ADD SWAP2 JUMPDEST POP POP POP POP POP DUP2 MSTORE PUSH1 0x20 ADD PUSH1 0x2 DUP3 ADD SLOAD DUP2 MSTORE PUSH1 0x20 ADD PUSH1 0x3 DUP3 ADD SLOAD DUP2 MSTORE POP POP SWAP1 POP SWAP2 SWAP1 POP JUMP JUMPDEST PUSH1 0x40 MLOAD DUP1 PUSH1 0x80 ADD PUSH1 0x40 MSTORE DUP1 PUSH0 DUP2 MSTORE PUSH1 0x20 ADD PUSH1 0x60 DUP2 MSTORE PUSH1 0x20 ADD PUSH0 DUP2 MSTORE PUSH1 0x20 ADD PUSH0 DUP2 MSTORE POP SWAP1 JUMP JUMPDEST PUSH0 DUP2 SWAP1 POP SWAP2 SWAP1 POP JUMP JUMPDEST PUSH2 0x388 DUP2 PUSH2 0x376 JUMP JUMPDEST DUP3 MSTORE POP POP JUMP JUMPDEST PUSH0 PUSH1 0x20 DUP3 ADD SWAP1 POP PUSH2 0x3A1 PUSH0 DUP4 ADD DUP5 PUSH2 0x37F JUMP JUMPDEST SWAP3 SWAP2 POP POP JUMP JUMPDEST PUSH0 PUSH1 0x40 MLOAD SWAP1 POP SWAP1 JUMP JUMPDEST PUSH0 DUP1 REVERT JUMPDEST PUSH0 DUP1 REVERT JUMPDEST PUSH0 DUP1 REVERT JUMPDEST PUSH0 DUP1 REVERT JUMPDEST PUSH0 PUSH1 0x1F NOT PUSH1 0x1F DUP4 ADD AND SWAP1 POP SWAP2 SWAP1 POP JUMP JUMPDEST PUSH32 0x4E487B7100000000000000000000000000000000000000000000000000000000 PUSH0 MSTORE PUSH1 0x41 PUSH1 0x4 MSTORE PUSH1 0x24 PUSH0 REVERT JUMPDEST PUSH2 0x406 DUP3 PUSH2 0x3C0 JUMP JUMPDEST DUP2 ADD DUP2 DUP2 LT PUSH8 0xFFFFFFFFFFFFFFFF DUP3 GT OR ISZERO PUSH2 0x425 JUMPI PUSH2 0x424 PUSH2 0x3D0 JUMP JUMPDEST JUMPDEST DUP1 PUSH1 0x40 MSTORE POP POP POP JUMP JUMPDEST PUSH0 PUSH2 0x437 PUSH2 0x3A7 JUMP JUMPDEST SWAP1 POP PUSH2 0x443 DUP3 DUP3 PUSH2 0x3FD JUMP JUMPDEST SWAP2 SWAP1 POP JUMP JUMPDEST PUSH0 PUSH8 0xFFFFFFFFFFFFFFFF DUP3 GT ISZERO PUSH2 0x462 JUMPI PUSH2 0x461 PUSH2 0x3D0 JUMP JUMPDEST JUMPDEST PUSH2 0x46B DUP3 PUSH2 0x3C0 JUMP JUMPDEST SWAP1 POP PUSH1 0x20 DUP2 ADD SWAP1 POP SWAP2 SWAP1 POP JUMP JUMPDEST DUP3 DUP2 DUP4 CALLDATACOPY PUSH0 DUP4 DUP4 ADD MSTORE POP POP POP JUMP JUMPDEST PUSH0 PUSH2 0x498 PUSH2 0x493 DUP5 PUSH2 0x448 JUMP JUMPDEST PUSH2 0x42E JUMP JUMPDEST SWAP1 POP DUP3 DUP2 MSTORE PUSH1 0x20 DUP2 ADD DUP5 DUP5 DUP5 ADD GT ISZERO PUSH2 0x4B4 JUMPI PUSH2 0x4B3 PUSH2 0x3BC JUMP JUMPDEST JUMPDEST PUSH2 0x4BF DUP5 DUP3 DUP6 PUSH2 0x478 JUMP JUMPDEST POP SWAP4 SWAP3 POP POP POP JUMP JUMPDEST PUSH0 DUP3 PUSH1 0x1F DUP4 ADD SLT PUSH2 0x4DB JUMPI PUSH2 0x4DA PUSH2 0x3B8 JUMP JUMPDEST JUMPDEST DUP2 CALLDATALOAD PUSH2 0x4EB DUP5 DUP3 PUSH1 0x20 DUP7 ADD PUSH2 0x486 JUMP JUMPDEST SWAP2 POP POP SWAP3 SWAP2 POP POP JUMP JUMPDEST PUSH2 0x4FD DUP2 PUSH2 0x376 JUMP JUMPDEST DUP2 EQ PUSH2 0x507 JUMPI PUSH0 DUP1 REVERT JUMPDEST POP JUMP JUMPDEST PUSH0 DUP2 CALLDATALOAD SWAP1 POP PUSH2 0x518 DUP2 PUSH2 0x4F4 JUMP JUMPDEST SWAP3 SWAP2 POP POP JUMP JUMPDEST PUSH0 DUP1 PUSH0 PUSH1 0x60 DUP5 DUP7 SUB SLT ISZERO PUSH2 0x535 JUMPI PUSH2 0x534 PUSH2 0x3B0 JUMP JUMPDEST JUMPDEST PUSH0 DUP5 ADD CALLDATALOAD PUSH8 0xFFFFFFFFFFFFFFFF DUP2 GT ISZERO PUSH2 0x552 JUMPI PUSH2 0x551 PUSH2 0x3B4 JUMP JUMPDEST JUMPDEST PUSH2 0x55E DUP7 DUP3 DUP8 ADD PUSH2 0x4C7 JUMP JUMPDEST SWAP4 POP POP PUSH1 0x20 PUSH2 0x56F DUP7 DUP3 DUP8 ADD PUSH2 0x50A JUMP JUMPDEST SWAP3 POP POP PUSH1 0x40 PUSH2 0x580 DUP7 DUP3 DUP8 ADD PUSH2 0x50A JUMP JUMPDEST SWAP2 POP POP SWAP3 POP SWAP3 POP SWAP3 JUMP JUMPDEST PUSH0 DUP1 PUSH1 0x40 DUP4 DUP6 SUB SLT ISZERO PUSH2 0x5A0 JUMPI PUSH2 0x59F PUSH2 0x3B0 JUMP JUMPDEST JUMPDEST PUSH0 PUSH2 0x5AD DUP6 DUP3 DUP7 ADD PUSH2 0x50A JUMP JUMPDEST SWAP3 POP POP PUSH1 0x20 PUSH2 0x5BE DUP6 DUP3 DUP7 ADD PUSH2 0x50A JUMP JUMPDEST SWAP2 POP POP SWAP3 POP SWAP3 SWAP1 POP JUMP JUMPDEST PUSH0 PUSH1 0x20 DUP3 DUP5 SUB SLT ISZERO PUSH2 0x5DD JUMPI PUSH2 0x5DC PUSH2 0x3B0 JUMP JUMPDEST JUMPDEST PUSH0 PUSH2 0x5EA DUP5 DUP3 DUP6 ADD PUSH2 0x50A JUMP JUMPDEST SWAP2 POP POP SWAP3 SWAP2 POP POP JUMP JUMPDEST PUSH0 DUP2 MLOAD SWAP1 POP SWAP2 SWAP1 POP JUMP JUMPDEST PUSH0 DUP3 DUP3 MSTORE PUSH1 0x20 DUP3 ADD SWAP1 POP SWAP3 SWAP2 POP POP JUMP JUMPDEST DUP3 DUP2 DUP4 MCOPY PUSH0 DUP4 DUP4 ADD MSTORE POP POP POP JUMP JUMPDEST PUSH0 PUSH2 0x625 DUP3 PUSH2 0x5F3 JUMP JUMPDEST PUSH2 0x62F DUP2 DUP6 PUSH2 0x5FD JUMP JUMPDEST SWAP4 POP PUSH2 0x63F DUP2 DUP6 PUSH1 0x20 DUP7 ADD PUSH2 0x60D JUMP JUMPDEST PUSH2 0x648 DUP2 PUSH2 0x3C0 JUMP JUMPDEST DUP5 ADD SWAP2 POP POP SWAP3 SWAP2 POP POP JUMP JUMPDEST PUSH0 PUSH1 0x80 DUP3 ADD SWAP1 POP PUSH2 0x666 PUSH0 DUP4 ADD DUP8 PUSH2 0x37F JUMP JUMPDEST DUP2 DUP2 SUB PUSH1 0x20 DUP4 ADD MSTORE PUSH2 0x678 DUP2 DUP7 PUSH2 0x61B JUMP JUMPDEST SWAP1 POP PUSH2 0x687 PUSH1 0x40 DUP4 ADD DUP6 PUSH2 0x37F JUMP JUMPDEST PUSH2 0x694 PUSH1 0x60 DUP4 ADD DUP5 PUSH2 0x37F JUMP JUMPDEST SWAP6 SWAP5 POP POP POP POP POP JUMP JUMPDEST PUSH2 0x6A6 DUP2 PUSH2 0x376 JUMP JUMPDEST DUP3 MSTORE POP POP JUMP JUMPDEST PUSH0 DUP3 DUP3 MSTORE PUSH1 0x20 DUP3 ADD SWAP1 POP SWAP3 SWAP2 POP POP JUMP JUMPDEST PUSH0 PUSH2 0x6C6 DUP3 PUSH2 0x5F3 JUMP JUMPDEST PUSH2 0x6D0 DUP2 DUP6 PUSH2 0x6AC JUMP JUMPDEST SWAP4 POP PUSH2 0x6E0 DUP2 DUP6 PUSH1 0x20 DUP7 ADD PUSH2 0x60D JUMP JUMPDEST PUSH2 0x6E9 DUP2 PUSH2 0x3C0 JUMP JUMPDEST DUP5 ADD SWAP2 POP POP SWAP3 SWAP2 POP POP JUMP JUMPDEST PUSH0 PUSH1 0x80 DUP4 ADD PUSH0 DUP4 ADD MLOAD PUSH2 0x709 PUSH0 DUP7 ADD DUP3 PUSH2 0x69D JUMP JUMPDEST POP PUSH1 0x20 DUP4 ADD MLOAD DUP5 DUP3 SUB PUSH1 0x20 DUP7 ADD MSTORE PUSH2 0x721 DUP3 DUP3 PUSH2 0x6BC JUMP JUMPDEST SWAP2 POP POP PUSH1 0x40 DUP4 ADD MLOAD PUSH2 0x736 PUSH1 0x40 DUP7 ADD DUP3 PUSH2 0x69D JUMP JUMPDEST POP PUSH1 0x60 DUP4 ADD MLOAD PUSH2 0x749 PUSH1 0x60 DUP7 ADD DUP3 PUSH2 0x69D JUMP JUMPDEST POP DUP1 SWAP2 POP POP SWAP3 SWAP2 POP POP JUMP JUMPDEST PUSH0 PUSH1 0x20 DUP3 ADD SWAP1 POP DUP2 DUP2 SUB PUSH0 DUP4 ADD MSTORE PUSH2 0x76C DUP2 DUP5 PUSH2 0x6F4 JUMP JUMPDEST SWAP1 POP SWAP3 SWAP2 POP POP JUMP JUMPDEST PUSH32 0x4E487B7100000000000000000000000000000000000000000000000000000000 PUSH0 MSTORE PUSH1 0x11 PUSH1 0x4 MSTORE PUSH1 0x24 PUSH0 REVERT JUMPDEST PUSH0 PUSH2 0x7AB DUP3 PUSH2 0x376 JUMP JUMPDEST SWAP2 POP PUSH32 0xFFFFFFFFFFFFFFFFFFFFFFFFFFFFFFFFFFFFFFFFFFFFFFFFFFFFFFFFFFFFFFFF DUP3 SUB PUSH2 0x7DD JUMPI PUSH2 0x7DC PUSH2 0x774 JUMP JUMPDEST JUMPDEST PUSH1 0x1 DUP3 ADD SWAP1 POP SWAP2 SWAP1 POP JUMP JUMPDEST PUSH32 0x4E487B7100000000000000000000000000000000000000000000000000000000 PUSH0 MSTORE PUSH1 0x22 PUSH1 0x4 MSTORE PUSH1 0x24 PUSH0 REVERT JUMPDEST PUSH0 PUSH1 0x2 DUP3 DIV SWAP1 POP PUSH1 0x1 DUP3 AND DUP1 PUSH2 0x82C JUMPI PUSH1 0x7F DUP3 AND SWAP2 POP JUMPDEST PUSH1 0x20 DUP3 LT DUP2 SUB PUSH2 0x83F JUMPI PUSH2 0x83E PUSH2 0x7E8 JUMP JUMPDEST JUMPDEST POP SWAP2 SWAP1 POP JUMP JUMPDEST PUSH0 DUP2 SWAP1 POP DUP2 PUSH0 MSTORE PUSH1 0x20 PUSH0 KECCAK256 SWAP1 POP SWAP2 SWAP1 POP JUMP JUMPDEST PUSH0 PUSH1 0x20 PUSH1 0x1F DUP4 ADD DIV SWAP1 POP SWAP2 SWAP1 POP JUMP JUMPDEST PUSH0 DUP3 DUP3 SHL SWAP1 POP SWAP3 SWAP2 POP POP JUMP JUMPDEST PUSH0 PUSH1 0x8 DUP4 MUL PUSH2 0x8A1 PUSH32 0xFFFFFFFFFFFFFFFFFFFFFFFFFFFFFFFFFFFFFFFFFFFFFFFFFFFFFFFFFFFFFFFF DUP3 PUSH2 0x866 JUMP JUMPDEST PUSH2 0x8AB DUP7 DUP4 PUSH2 0x866 JUMP JUMPDEST SWAP6 POP DUP1 NOT DUP5 AND SWAP4 POP DUP1 DUP7 AND DUP5 OR SWAP3 POP POP POP SWAP4 SWAP3 POP POP POP JUMP JUMPDEST PUSH0 DUP2 SWAP1 POP SWAP2 SWAP1 POP JUMP JUMPDEST PUSH0 PUSH2 0x8E6 PUSH2 0x8E1 PUSH2 0x8DC DUP5 PUSH2 0x376 JUMP JUMPDEST PUSH2 0x8C3 JUMP JUMPDEST PUSH2 0x376 JUMP JUMPDEST SWAP1 POP SWAP2 SWAP1 POP JUMP JUMPDEST PUSH0 DUP2 SWAP1 POP SWAP2 SWAP1 POP JUMP JUMPDEST PUSH2 0x8FF DUP4 PUSH2 0x8CC JUMP JUMPDEST PUSH2 0x913 PUSH2 0x90B DUP3 PUSH2 0x8ED JUMP JUMPDEST DUP5 DUP5 SLOAD PUSH2 0x872 JUMP JUMPDEST DUP3 SSTORE POP POP POP POP JUMP JUMPDEST PUSH0 SWAP1 JUMP JUMPDEST PUSH2 0x927 PUSH2 0x91B JUMP JUMPDEST PUSH2 0x932 DUP2 DUP5 DUP5 PUSH2 0x8F6 JUMP JUMPDEST POP POP POP JUMP JUMPDEST JUMPDEST DUP2 DUP2 LT ISZERO PUSH2 0x955 JUMPI PUSH2 0x94A PUSH0 DUP3 PUSH2 0x91F JUMP JUMPDEST PUSH1 0x1 DUP2 ADD SWAP1 POP PUSH2 0x938 JUMP JUMPDEST POP POP JUMP JUMPDEST PUSH1 0x1F DUP3 GT ISZERO PUSH2 0x99A JUMPI PUSH2 0x96B DUP2 PUSH2 0x845 JUMP JUMPDEST PUSH2 0x974 DUP5 PUSH2 0x857 JUMP JUMPDEST DUP2 ADD PUSH1 0x20 DUP6 LT ISZERO PUSH2 0x983 JUMPI DUP2 SWAP1 POP JUMPDEST PUSH2 0x997 PUSH2 0x98F DUP6 PUSH2 0x857 JUMP JUMPDEST DUP4 ADD DUP3 PUSH2 0x937 JUMP JUMPDEST POP POP JUMPDEST POP POP POP JUMP JUMPDEST PUSH0 DUP3 DUP3 SHR SWAP1 POP SWAP3 SWAP2 POP POP JUMP JUMPDEST PUSH0 PUSH2 0x9BA PUSH0 NOT DUP5 PUSH1 0x8 MUL PUSH2 0x99F JUMP JUMPDEST NOT DUP1 DUP4 AND SWAP2 POP POP SWAP3 SWAP2 POP POP JUMP JUMPDEST PUSH0 PUSH2 0x9D2 DUP4 DUP4 PUSH2 0x9AB JUMP JUMPDEST SWAP2 POP DUP3 PUSH1 0x2 MUL DUP3 OR SWAP1 POP SWAP3 SWAP2 POP POP JUMP JUMPDEST PUSH2 0x9EB DUP3 PUSH2 0x5F3 JUMP JUMPDEST PUSH8 0xFFFFFFFFFFFFFFFF DUP2 GT ISZERO PUSH2 0xA04 JUMPI PUSH2 0xA03 PUSH2 0x3D0 JUMP JUMPDEST JUMPDEST PUSH2 0xA0E DUP3 SLOAD PUSH2 0x815 JUMP JUMPDEST PUSH2 0xA19 DUP3 DUP3 DUP6 PUSH2 0x959 JUMP JUMPDEST PUSH0 PUSH1 0x20 SWAP1 POP PUSH1 0x1F DUP4 GT PUSH1 0x1 DUP2 EQ PUSH2 0xA4A JUMPI PUSH0 DUP5 ISZERO PUSH2 0xA38 JUMPI DUP3 DUP8 ADD MLOAD SWAP1 POP JUMPDEST PUSH2 0xA42 DUP6 DUP3 PUSH2 0x9C7 JUMP JUMPDEST DUP7 SSTORE POP PUSH2 0xAA9 JUMP JUMPDEST PUSH1 0x1F NOT DUP5 AND PUSH2 0xA58 DUP7 PUSH2 0x845 JUMP JUMPDEST PUSH0 JUMPDEST DUP3 DUP2 LT ISZERO PUSH2 0xA7F JUMPI DUP5 DUP10 ADD MLOAD DUP3 SSTORE PUSH1 0x1 DUP3 ADD SWAP2 POP PUSH1 0x20 DUP6 ADD SWAP5 POP PUSH1 0x20 DUP2 ADD SWAP1 POP PUSH2 0xA5A JUMP JUMPDEST DUP7 DUP4 LT ISZERO PUSH2 0xA9C JUMPI DUP5 DUP10 ADD MLOAD PUSH2 0xA98 PUSH1 0x1F DUP10 AND DUP3 PUSH2 0x9AB JUMP JUMPDEST DUP4 SSTORE POP JUMPDEST PUSH1 0x1 PUSH1 0x2 DUP9 MUL ADD DUP9 SSTORE POP POP POP JUMPDEST POP POP POP POP POP POP JUMP INVALID LOG2 PUSH5 0x6970667358 0x22 SLT KECCAK256 CREATE 0xA5 DUP9 0xBD SHR PUSH3 0xB98DE4 0xD7 SWAP3 SAR 0xDF DELEGATECALL 0x2D 0xD0 NOT SWAP16 0xD5 PUSH12 0x71BDB5733ED392A61DDCBF0D PUSH5 0x736F6C6343 STOP ADDMOD BYTE STOP CALLER "
				},
				"gasEstimates": {
					"creation": {
						"codeDepositCost": "558200",
						"executionCost": "592",
						"totalCost": "558792"
					},
					"external": {
						"addProduct(string,uint256,uint256)": "infinite",
						"count()": "2403",
						"getProduct(uint256)": "infinite",
						"products(uint256)": "infinite",
						"updateProduct(uint256,uint256)": "infinite"
					}
				},
				"methodIdentifiers": {
					"addProduct(string,uint256,uint256)": "125b0b34",
					"count()": "06661abd",
					"getProduct(uint256)": "b9db15b4",
					"products(uint256)": "7acc0b20",
					"updateProduct(uint256,uint256)": "31f45cab"
				}
			},
			"storageLayout": {
				"storage": [
					{
						"astId": 15,
						"contract": "contracts/9_struckTest01.sol:test01",
						"label": "products",
						"offset": 0,
						"slot": "0",
						"type": "t_mapping(t_uint256,t_struct(Product)10_storage)"
					},
					{
						"astId": 17,
						"contract": "contracts/9_struckTest01.sol:test01",
						"label": "count",
						"offset": 0,
						"slot": "1",
						"type": "t_uint256"
					}
				],
				"types": {
					"t_mapping(t_uint256,t_struct(Product)10_storage)": {
						"encoding": "mapping",
						"key": "t_uint256",
						"label": "mapping(uint256 => struct test01.Product)",
						"numberOfBytes": "32",
						"value": "t_struct(Product)10_storage"
					},
					"t_string_storage": {
						"encoding": "bytes",
						"label": "string",
						"numberOfBytes": "32"
					},
					"t_struct(Product)10_storage": {
						"encoding": "inplace",
						"label": "struct test01.Product",
						"members": [
							{
								"astId": 3,
								"contract": "contracts/9_struckTest01.sol:test01",
								"label": "id",
								"offset": 0,
								"slot": "0",
								"type": "t_uint256"
							},
							{
								"astId": 5,
								"contract": "contracts/9_struckTest01.sol:test01",
								"label": "name",
								"offset": 0,
								"slot": "1",
								"type": "t_string_storage"
							},
							{
								"astId": 7,
								"contract": "contracts/9_struckTest01.sol:test01",
								"label": "price",
								"offset": 0,
								"slot": "2",
								"type": "t_uint256"
							},
							{
								"astId": 9,
								"contract": "contracts/9_struckTest01.sol:test01",
								"label": "num",
								"offset": 0,
								"slot": "3",
								"type": "t_uint256"
							}
						],
						"numberOfBytes": "128"
					},
					"t_uint256": {
						"encoding": "inplace",
						"label": "uint256",
						"numberOfBytes": "32"
					}
				}
			},
			"userdoc": {
				"kind": "user",
				"methods": {},
				"version": 1
			}
		}
	}
}