{
	"contracts/22_librartTest02.sol": {
		"Test01": {
			"abi": [
				{
					"inputs": [
						{
							"internalType": "uint256[]",
							"name": "to",
							"type": "uint256[]"
						},
						{
							"internalType": "uint256",
							"name": "a",
							"type": "uint256"
						}
					],
					"name": "contains",
					"outputs": [
						{
							"internalType": "bool",
							"name": "",
							"type": "bool"
						}
					],
					"stateMutability": "pure",
					"type": "function"
				},
				{
					"inputs": [
						{
							"internalType": "uint256[]",
							"name": "to",
							"type": "uint256[]"
						},
						{
							"internalType": "uint256",
							"name": "a",
							"type": "uint256"
						}
					],
					"name": "contains1",
					"outputs": [
						{
							"internalType": "bool",
							"name": "",
							"type": "bool"
						}
					],
					"stateMutability": "pure",
					"type": "function"
				},
				{
					"inputs": [
						{
							"internalType": "uint256",
							"name": "a",
							"type": "uint256"
						},
						{
							"internalType": "uint256",
							"name": "b",
							"type": "uint256"
						}
					],
					"name": "sum",
					"outputs": [
						{
							"internalType": "uint256",
							"name": "",
							"type": "uint256"
						}
					],
					"stateMutability": "pure",
					"type": "function"
				}
			],
			"devdoc": {
				"kind": "dev",
				"methods": {},
				"version": 1
			},
			"evm": {
				"assembly": "    /* \"contracts/22_librartTest02.sol\":87:557  contract Test01{... */\n  mstore(0x40, 0x80)\n  callvalue\n  dup1\n  iszero\n  tag_1\n  jumpi\n  0x00\n  dup1\n  revert\ntag_1:\n  pop\n  dataSize(sub_0)\n  dup1\n  dataOffset(sub_0)\n  0x00\n  codecopy\n  0x00\n  return\nstop\n\nsub_0: assembly {\n        /* \"contracts/22_librartTest02.sol\":87:557  contract Test01{... */\n      mstore(0x40, 0x80)\n      callvalue\n      dup1\n      iszero\n      tag_1\n      jumpi\n      0x00\n      dup1\n      revert\n    tag_1:\n      pop\n      jumpi(tag_2, lt(calldatasize, 0x04))\n      shr(0xe0, calldataload(0x00))\n      dup1\n      0xb32b8e2c\n      eq\n      tag_3\n      jumpi\n      dup1\n      0xcad0899b\n      eq\n      tag_4\n      jumpi\n      dup1\n      0xfb5eb30b\n      eq\n      tag_5\n      jumpi\n    tag_2:\n      0x00\n      dup1\n      revert\n        /* \"contracts/22_librartTest02.sol\":300:427  function contains( uint[] memory to,uint a ) public pure   returns(bool){... */\n    tag_3:\n      tag_6\n      0x04\n      dup1\n      calldatasize\n      sub\n      dup2\n      add\n      swap1\n      tag_7\n      swap2\n      swap1\n      tag_8\n      jump\t// in\n    tag_7:\n      tag_9\n      jump\t// in\n    tag_6:\n      mload(0x40)\n      tag_10\n      swap2\n      swap1\n      tag_11\n      jump\t// in\n    tag_10:\n      mload(0x40)\n      dup1\n      swap2\n      sub\n      swap1\n      return\n        /* \"contracts/22_librartTest02.sol\":113:258  function sum(uint a, uint b) public pure returns (uint){... */\n    tag_4:\n      tag_12\n      0x04\n      dup1\n      calldatasize\n      sub\n      dup2\n      add\n      swap1\n      tag_13\n      swap2\n      swap1\n      tag_14\n      jump\t// in\n    tag_13:\n      tag_15\n      jump\t// in\n    tag_12:\n      mload(0x40)\n      tag_16\n      swap2\n      swap1\n      tag_17\n      jump\t// in\n    tag_16:\n      mload(0x40)\n      dup1\n      swap2\n      sub\n      swap1\n      return\n        /* \"contracts/22_librartTest02.sol\":435:554  function contains1( uint[] memory to,uint a ) public pure   returns(bool){... */\n    tag_5:\n      tag_18\n      0x04\n      dup1\n      calldatasize\n      sub\n      dup2\n      add\n      swap1\n      tag_19\n      swap2\n      swap1\n      tag_8\n      jump\t// in\n    tag_19:\n      tag_20\n      jump\t// in\n    tag_18:\n      mload(0x40)\n      tag_21\n      swap2\n      swap1\n      tag_11\n      jump\t// in\n    tag_21:\n      mload(0x40)\n      dup1\n      swap2\n      sub\n      swap1\n      return\n        /* \"contracts/22_librartTest02.sol\":300:427  function contains( uint[] memory to,uint a ) public pure   returns(bool){... */\n    tag_9:\n        /* \"contracts/22_librartTest02.sol\":367:371  bool */\n      0x00\n        /* \"contracts/22_librartTest02.sol\":396:404  MyMath01 */\n      linkerSymbol(\"576b70a3b00e12a249a0d7d0944903cdb0fa22cbcd66bdc24ec3e6fbf0e6a9c4\")\n        /* \"contracts/22_librartTest02.sol\":396:412  MyMath01.contans */\n      0x59664efd\n        /* \"contracts/22_librartTest02.sol\":413:415  to */\n      dup5\n        /* \"contracts/22_librartTest02.sol\":416:417  a */\n      dup5\n        /* \"contracts/22_librartTest02.sol\":396:418  MyMath01.contans(to,a) */\n      mload(0x40)\n      dup4\n      0xffffffff\n      and\n      0xe0\n      shl\n      dup2\n      mstore\n      0x04\n      add\n      tag_23\n      swap3\n      swap2\n      swap1\n      tag_24\n      jump\t// in\n    tag_23:\n      0x20\n      mload(0x40)\n      dup1\n      dup4\n      sub\n      dup2\n      dup7\n      gas\n      delegatecall\n      iszero\n      dup1\n      iszero\n      tag_26\n      jumpi\n      returndatasize\n      0x00\n      dup1\n      returndatacopy\n      revert(0x00, returndatasize)\n    tag_26:\n      pop\n      pop\n      pop\n      pop\n      mload(0x40)\n      returndatasize\n      not(0x1f)\n      0x1f\n      dup3\n      add\n      and\n      dup3\n      add\n      dup1\n      0x40\n      mstore\n      pop\n      dup2\n      add\n      swap1\n      tag_27\n      swap2\n      swap1\n      tag_28\n      jump\t// in\n    tag_27:\n        /* \"contracts/22_librartTest02.sol\":387:418  return   MyMath01.contans(to,a) */\n      swap1\n      pop\n        /* \"contracts/22_librartTest02.sol\":300:427  function contains( uint[] memory to,uint a ) public pure   returns(bool){... */\n      swap3\n      swap2\n      pop\n      pop\n      jump\t// out\n        /* \"contracts/22_librartTest02.sol\":113:258  function sum(uint a, uint b) public pure returns (uint){... */\n    tag_15:\n        /* \"contracts/22_librartTest02.sol\":163:167  uint */\n      0x00\n        /* \"contracts/22_librartTest02.sol\":191:197  uint z */\n      dup1\n        /* \"contracts/22_librartTest02.sol\":199:205  MyMath */\n      linkerSymbol(\"5d15bed652054862cdb2c50aa00dd63259af3d0f77a6ccb8a5ea9c3cf3c4f58f\")\n        /* \"contracts/22_librartTest02.sol\":199:209  MyMath.sum */\n      0xcad0899b\n        /* \"contracts/22_librartTest02.sol\":210:211  a */\n      dup6\n        /* \"contracts/22_librartTest02.sol\":213:214  b */\n      dup6\n        /* \"contracts/22_librartTest02.sol\":199:215  MyMath.sum(a, b) */\n      mload(0x40)\n      dup4\n      0xffffffff\n      and\n      0xe0\n      shl\n      dup2\n      mstore\n      0x04\n      add\n      tag_30\n      swap3\n      swap2\n      swap1\n      tag_31\n      jump\t// in\n    tag_30:\n      0x20\n      mload(0x40)\n      dup1\n      dup4\n      sub\n      dup2\n      dup7\n      gas\n      delegatecall\n      iszero\n      dup1\n      iszero\n      tag_33\n      jumpi\n      returndatasize\n      0x00\n      dup1\n      returndatacopy\n      revert(0x00, returndatasize)\n    tag_33:\n      pop\n      pop\n      pop\n      pop\n      mload(0x40)\n      returndatasize\n      not(0x1f)\n      0x1f\n      dup3\n      add\n      and\n      dup3\n      add\n      dup1\n      0x40\n      mstore\n      pop\n      dup2\n      add\n      swap1\n      tag_34\n      swap2\n      swap1\n      tag_35\n      jump\t// in\n    tag_34:\n        /* \"contracts/22_librartTest02.sol\":191:215  uint z= MyMath.sum(a, b) */\n      swap1\n      pop\n        /* \"contracts/22_librartTest02.sol\":239:240  z */\n      dup1\n        /* \"contracts/22_librartTest02.sol\":232:240  return z */\n      swap2\n      pop\n      pop\n        /* \"contracts/22_librartTest02.sol\":113:258  function sum(uint a, uint b) public pure returns (uint){... */\n      swap3\n      swap2\n      pop\n      pop\n      jump\t// out\n        /* \"contracts/22_librartTest02.sol\":435:554  function contains1( uint[] memory to,uint a ) public pure   returns(bool){... */\n    tag_20:\n        /* \"contracts/22_librartTest02.sol\":503:507  bool */\n      0x00\n        /* \"contracts/22_librartTest02.sol\":532:534  to */\n      dup3\n        /* \"contracts/22_librartTest02.sol\":532:542  to.contans */\n      linkerSymbol(\"576b70a3b00e12a249a0d7d0944903cdb0fa22cbcd66bdc24ec3e6fbf0e6a9c4\")\n      0x59664efd\n      swap1\n      swap2\n        /* \"contracts/22_librartTest02.sol\":543:544  a */\n      dup5\n        /* \"contracts/22_librartTest02.sol\":532:545  to.contans(a) */\n      mload(0x40)\n      dup4\n      0xffffffff\n      and\n      0xe0\n      shl\n      dup2\n      mstore\n      0x04\n      add\n      tag_37\n      swap3\n      swap2\n      swap1\n      tag_24\n      jump\t// in\n    tag_37:\n      0x20\n      mload(0x40)\n      dup1\n      dup4\n      sub\n      dup2\n      dup7\n      gas\n      delegatecall\n      iszero\n      dup1\n      iszero\n      tag_39\n      jumpi\n      returndatasize\n      0x00\n      dup1\n      returndatacopy\n      revert(0x00, returndatasize)\n    tag_39:\n      pop\n      pop\n      pop\n      pop\n      mload(0x40)\n      returndatasize\n      not(0x1f)\n      0x1f\n      dup3\n      add\n      and\n      dup3\n      add\n      dup1\n      0x40\n      mstore\n      pop\n      dup2\n      add\n      swap1\n      tag_40\n      swap2\n      swap1\n      tag_28\n      jump\t// in\n    tag_40:\n        /* \"contracts/22_librartTest02.sol\":523:545  return   to.contans(a) */\n      swap1\n      pop\n        /* \"contracts/22_librartTest02.sol\":435:554  function contains1( uint[] memory to,uint a ) public pure   returns(bool){... */\n      swap3\n      swap2\n      pop\n      pop\n      jump\t// out\n        /* \"#utility.yul\":7:82   */\n    tag_41:\n        /* \"#utility.yul\":40:46   */\n      0x00\n        /* \"#utility.yul\":73:75   */\n      0x40\n        /* \"#utility.yul\":67:76   */\n      mload\n        /* \"#utility.yul\":57:76   */\n      swap1\n      pop\n        /* \"#utility.yul\":7:82   */\n      swap1\n      jump\t// out\n        /* \"#utility.yul\":88:205   */\n    tag_42:\n        /* \"#utility.yul\":197:198   */\n      0x00\n        /* \"#utility.yul\":194:195   */\n      dup1\n        /* \"#utility.yul\":187:199   */\n      revert\n        /* \"#utility.yul\":211:328   */\n    tag_43:\n        /* \"#utility.yul\":320:321   */\n      0x00\n        /* \"#utility.yul\":317:318   */\n      dup1\n        /* \"#utility.yul\":310:322   */\n      revert\n        /* \"#utility.yul\":334:451   */\n    tag_44:\n        /* \"#utility.yul\":443:444   */\n      0x00\n        /* \"#utility.yul\":440:441   */\n      dup1\n        /* \"#utility.yul\":433:445   */\n      revert\n        /* \"#utility.yul\":457:559   */\n    tag_45:\n        /* \"#utility.yul\":498:504   */\n      0x00\n        /* \"#utility.yul\":549:551   */\n      0x1f\n        /* \"#utility.yul\":545:552   */\n      not\n        /* \"#utility.yul\":540:542   */\n      0x1f\n        /* \"#utility.yul\":533:538   */\n      dup4\n        /* \"#utility.yul\":529:543   */\n      add\n        /* \"#utility.yul\":525:553   */\n      and\n        /* \"#utility.yul\":515:553   */\n      swap1\n      pop\n        /* \"#utility.yul\":457:559   */\n      swap2\n      swap1\n      pop\n      jump\t// out\n        /* \"#utility.yul\":565:745   */\n    tag_46:\n        /* \"#utility.yul\":613:690   */\n      0x4e487b7100000000000000000000000000000000000000000000000000000000\n        /* \"#utility.yul\":610:611   */\n      0x00\n        /* \"#utility.yul\":603:691   */\n      mstore\n        /* \"#utility.yul\":710:714   */\n      0x41\n        /* \"#utility.yul\":707:708   */\n      0x04\n        /* \"#utility.yul\":700:715   */\n      mstore\n        /* \"#utility.yul\":734:738   */\n      0x24\n        /* \"#utility.yul\":731:732   */\n      0x00\n        /* \"#utility.yul\":724:739   */\n      revert\n        /* \"#utility.yul\":751:1032   */\n    tag_47:\n        /* \"#utility.yul\":834:861   */\n      tag_78\n        /* \"#utility.yul\":856:860   */\n      dup3\n        /* \"#utility.yul\":834:861   */\n      tag_45\n      jump\t// in\n    tag_78:\n        /* \"#utility.yul\":826:832   */\n      dup2\n        /* \"#utility.yul\":822:862   */\n      add\n        /* \"#utility.yul\":964:970   */\n      dup2\n        /* \"#utility.yul\":952:962   */\n      dup2\n        /* \"#utility.yul\":949:971   */\n      lt\n        /* \"#utility.yul\":928:946   */\n      0xffffffffffffffff\n        /* \"#utility.yul\":916:926   */\n      dup3\n        /* \"#utility.yul\":913:947   */\n      gt\n        /* \"#utility.yul\":910:972   */\n      or\n        /* \"#utility.yul\":907:995   */\n      iszero\n      tag_79\n      jumpi\n        /* \"#utility.yul\":975:993   */\n      tag_80\n      tag_46\n      jump\t// in\n    tag_80:\n        /* \"#utility.yul\":907:995   */\n    tag_79:\n        /* \"#utility.yul\":1015:1025   */\n      dup1\n        /* \"#utility.yul\":1011:1013   */\n      0x40\n        /* \"#utility.yul\":1004:1026   */\n      mstore\n        /* \"#utility.yul\":794:1032   */\n      pop\n        /* \"#utility.yul\":751:1032   */\n      pop\n      pop\n      jump\t// out\n        /* \"#utility.yul\":1038:1167   */\n    tag_48:\n        /* \"#utility.yul\":1072:1078   */\n      0x00\n        /* \"#utility.yul\":1099:1119   */\n      tag_82\n      tag_41\n      jump\t// in\n    tag_82:\n        /* \"#utility.yul\":1089:1119   */\n      swap1\n      pop\n        /* \"#utility.yul\":1128:1161   */\n      tag_83\n        /* \"#utility.yul\":1156:1160   */\n      dup3\n        /* \"#utility.yul\":1148:1154   */\n      dup3\n        /* \"#utility.yul\":1128:1161   */\n      tag_47\n      jump\t// in\n    tag_83:\n        /* \"#utility.yul\":1038:1167   */\n      swap2\n      swap1\n      pop\n      jump\t// out\n        /* \"#utility.yul\":1173:1484   */\n    tag_49:\n        /* \"#utility.yul\":1250:1254   */\n      0x00\n        /* \"#utility.yul\":1340:1358   */\n      0xffffffffffffffff\n        /* \"#utility.yul\":1332:1338   */\n      dup3\n        /* \"#utility.yul\":1329:1359   */\n      gt\n        /* \"#utility.yul\":1326:1382   */\n      iszero\n      tag_85\n      jumpi\n        /* \"#utility.yul\":1362:1380   */\n      tag_86\n      tag_46\n      jump\t// in\n    tag_86:\n        /* \"#utility.yul\":1326:1382   */\n    tag_85:\n        /* \"#utility.yul\":1412:1416   */\n      0x20\n        /* \"#utility.yul\":1404:1410   */\n      dup3\n        /* \"#utility.yul\":1400:1417   */\n      mul\n        /* \"#utility.yul\":1392:1417   */\n      swap1\n      pop\n        /* \"#utility.yul\":1472:1476   */\n      0x20\n        /* \"#utility.yul\":1466:1470   */\n      dup2\n        /* \"#utility.yul\":1462:1477   */\n      add\n        /* \"#utility.yul\":1454:1477   */\n      swap1\n      pop\n        /* \"#utility.yul\":1173:1484   */\n      swap2\n      swap1\n      pop\n      jump\t// out\n        /* \"#utility.yul\":1490:1607   */\n    tag_50:\n        /* \"#utility.yul\":1599:1600   */\n      0x00\n        /* \"#utility.yul\":1596:1597   */\n      dup1\n        /* \"#utility.yul\":1589:1601   */\n      revert\n        /* \"#utility.yul\":1613:1690   */\n    tag_51:\n        /* \"#utility.yul\":1650:1657   */\n      0x00\n        /* \"#utility.yul\":1679:1684   */\n      dup2\n        /* \"#utility.yul\":1668:1684   */\n      swap1\n      pop\n        /* \"#utility.yul\":1613:1690   */\n      swap2\n      swap1\n      pop\n      jump\t// out\n        /* \"#utility.yul\":1696:1818   */\n    tag_52:\n        /* \"#utility.yul\":1769:1793   */\n      tag_90\n        /* \"#utility.yul\":1787:1792   */\n      dup2\n        /* \"#utility.yul\":1769:1793   */\n      tag_51\n      jump\t// in\n    tag_90:\n        /* \"#utility.yul\":1762:1767   */\n      dup2\n        /* \"#utility.yul\":1759:1794   */\n      eq\n        /* \"#utility.yul\":1749:1812   */\n      tag_91\n      jumpi\n        /* \"#utility.yul\":1808:1809   */\n      0x00\n        /* \"#utility.yul\":1805:1806   */\n      dup1\n        /* \"#utility.yul\":1798:1810   */\n      revert\n        /* \"#utility.yul\":1749:1812   */\n    tag_91:\n        /* \"#utility.yul\":1696:1818   */\n      pop\n      jump\t// out\n        /* \"#utility.yul\":1824:1963   */\n    tag_53:\n        /* \"#utility.yul\":1870:1875   */\n      0x00\n        /* \"#utility.yul\":1908:1914   */\n      dup2\n        /* \"#utility.yul\":1895:1915   */\n      calldataload\n        /* \"#utility.yul\":1886:1915   */\n      swap1\n      pop\n        /* \"#utility.yul\":1924:1957   */\n      tag_93\n        /* \"#utility.yul\":1951:1956   */\n      dup2\n        /* \"#utility.yul\":1924:1957   */\n      tag_52\n      jump\t// in\n    tag_93:\n        /* \"#utility.yul\":1824:1963   */\n      swap3\n      swap2\n      pop\n      pop\n      jump\t// out\n        /* \"#utility.yul\":1986:2696   */\n    tag_54:\n        /* \"#utility.yul\":2082:2087   */\n      0x00\n        /* \"#utility.yul\":2107:2188   */\n      tag_95\n        /* \"#utility.yul\":2123:2187   */\n      tag_96\n        /* \"#utility.yul\":2180:2186   */\n      dup5\n        /* \"#utility.yul\":2123:2187   */\n      tag_49\n      jump\t// in\n    tag_96:\n        /* \"#utility.yul\":2107:2188   */\n      tag_48\n      jump\t// in\n    tag_95:\n        /* \"#utility.yul\":2098:2188   */\n      swap1\n      pop\n        /* \"#utility.yul\":2208:2213   */\n      dup1\n        /* \"#utility.yul\":2237:2243   */\n      dup4\n        /* \"#utility.yul\":2230:2235   */\n      dup3\n        /* \"#utility.yul\":2223:2244   */\n      mstore\n        /* \"#utility.yul\":2271:2275   */\n      0x20\n        /* \"#utility.yul\":2264:2269   */\n      dup3\n        /* \"#utility.yul\":2260:2276   */\n      add\n        /* \"#utility.yul\":2253:2276   */\n      swap1\n      pop\n        /* \"#utility.yul\":2324:2328   */\n      0x20\n        /* \"#utility.yul\":2316:2322   */\n      dup5\n        /* \"#utility.yul\":2312:2329   */\n      mul\n        /* \"#utility.yul\":2304:2310   */\n      dup4\n        /* \"#utility.yul\":2300:2330   */\n      add\n        /* \"#utility.yul\":2353:2356   */\n      dup6\n        /* \"#utility.yul\":2345:2351   */\n      dup2\n        /* \"#utility.yul\":2342:2357   */\n      gt\n        /* \"#utility.yul\":2339:2461   */\n      iszero\n      tag_97\n      jumpi\n        /* \"#utility.yul\":2372:2451   */\n      tag_98\n      tag_50\n      jump\t// in\n    tag_98:\n        /* \"#utility.yul\":2339:2461   */\n    tag_97:\n        /* \"#utility.yul\":2487:2493   */\n      dup4\n        /* \"#utility.yul\":2470:2690   */\n    tag_99:\n        /* \"#utility.yul\":2504:2510   */\n      dup2\n        /* \"#utility.yul\":2499:2502   */\n      dup2\n        /* \"#utility.yul\":2496:2511   */\n      lt\n        /* \"#utility.yul\":2470:2690   */\n      iszero\n      tag_101\n      jumpi\n        /* \"#utility.yul\":2579:2582   */\n      dup1\n        /* \"#utility.yul\":2608:2645   */\n      tag_102\n        /* \"#utility.yul\":2641:2644   */\n      dup9\n        /* \"#utility.yul\":2629:2639   */\n      dup3\n        /* \"#utility.yul\":2608:2645   */\n      tag_53\n      jump\t// in\n    tag_102:\n        /* \"#utility.yul\":2603:2606   */\n      dup5\n        /* \"#utility.yul\":2596:2646   */\n      mstore\n        /* \"#utility.yul\":2675:2679   */\n      0x20\n        /* \"#utility.yul\":2670:2673   */\n      dup5\n        /* \"#utility.yul\":2666:2680   */\n      add\n        /* \"#utility.yul\":2659:2680   */\n      swap4\n      pop\n        /* \"#utility.yul\":2546:2690   */\n      pop\n        /* \"#utility.yul\":2530:2534   */\n      0x20\n        /* \"#utility.yul\":2525:2528   */\n      dup2\n        /* \"#utility.yul\":2521:2535   */\n      add\n        /* \"#utility.yul\":2514:2535   */\n      swap1\n      pop\n        /* \"#utility.yul\":2470:2690   */\n      jump(tag_99)\n    tag_101:\n        /* \"#utility.yul\":2474:2495   */\n      pop\n        /* \"#utility.yul\":2088:2696   */\n      pop\n      pop\n        /* \"#utility.yul\":1986:2696   */\n      swap4\n      swap3\n      pop\n      pop\n      pop\n      jump\t// out\n        /* \"#utility.yul\":2719:3089   */\n    tag_55:\n        /* \"#utility.yul\":2790:2795   */\n      0x00\n        /* \"#utility.yul\":2839:2842   */\n      dup3\n        /* \"#utility.yul\":2832:2836   */\n      0x1f\n        /* \"#utility.yul\":2824:2830   */\n      dup4\n        /* \"#utility.yul\":2820:2837   */\n      add\n        /* \"#utility.yul\":2816:2843   */\n      slt\n        /* \"#utility.yul\":2806:2928   */\n      tag_104\n      jumpi\n        /* \"#utility.yul\":2847:2926   */\n      tag_105\n      tag_44\n      jump\t// in\n    tag_105:\n        /* \"#utility.yul\":2806:2928   */\n    tag_104:\n        /* \"#utility.yul\":2964:2970   */\n      dup2\n        /* \"#utility.yul\":2951:2971   */\n      calldataload\n        /* \"#utility.yul\":2989:3083   */\n      tag_106\n        /* \"#utility.yul\":3079:3082   */\n      dup5\n        /* \"#utility.yul\":3071:3077   */\n      dup3\n        /* \"#utility.yul\":3064:3068   */\n      0x20\n        /* \"#utility.yul\":3056:3062   */\n      dup7\n        /* \"#utility.yul\":3052:3069   */\n      add\n        /* \"#utility.yul\":2989:3083   */\n      tag_54\n      jump\t// in\n    tag_106:\n        /* \"#utility.yul\":2980:3083   */\n      swap2\n      pop\n        /* \"#utility.yul\":2796:3089   */\n      pop\n        /* \"#utility.yul\":2719:3089   */\n      swap3\n      swap2\n      pop\n      pop\n      jump\t// out\n        /* \"#utility.yul\":3095:3779   */\n    tag_8:\n        /* \"#utility.yul\":3188:3194   */\n      0x00\n        /* \"#utility.yul\":3196:3202   */\n      dup1\n        /* \"#utility.yul\":3245:3247   */\n      0x40\n        /* \"#utility.yul\":3233:3242   */\n      dup4\n        /* \"#utility.yul\":3224:3231   */\n      dup6\n        /* \"#utility.yul\":3220:3243   */\n      sub\n        /* \"#utility.yul\":3216:3248   */\n      slt\n        /* \"#utility.yul\":3213:3332   */\n      iszero\n      tag_108\n      jumpi\n        /* \"#utility.yul\":3251:3330   */\n      tag_109\n      tag_42\n      jump\t// in\n    tag_109:\n        /* \"#utility.yul\":3213:3332   */\n    tag_108:\n        /* \"#utility.yul\":3399:3400   */\n      0x00\n        /* \"#utility.yul\":3388:3397   */\n      dup4\n        /* \"#utility.yul\":3384:3401   */\n      add\n        /* \"#utility.yul\":3371:3402   */\n      calldataload\n        /* \"#utility.yul\":3429:3447   */\n      0xffffffffffffffff\n        /* \"#utility.yul\":3421:3427   */\n      dup2\n        /* \"#utility.yul\":3418:3448   */\n      gt\n        /* \"#utility.yul\":3415:3532   */\n      iszero\n      tag_110\n      jumpi\n        /* \"#utility.yul\":3451:3530   */\n      tag_111\n      tag_43\n      jump\t// in\n    tag_111:\n        /* \"#utility.yul\":3415:3532   */\n    tag_110:\n        /* \"#utility.yul\":3556:3634   */\n      tag_112\n        /* \"#utility.yul\":3626:3633   */\n      dup6\n        /* \"#utility.yul\":3617:3623   */\n      dup3\n        /* \"#utility.yul\":3606:3615   */\n      dup7\n        /* \"#utility.yul\":3602:3624   */\n      add\n        /* \"#utility.yul\":3556:3634   */\n      tag_55\n      jump\t// in\n    tag_112:\n        /* \"#utility.yul\":3546:3634   */\n      swap3\n      pop\n        /* \"#utility.yul\":3342:3644   */\n      pop\n        /* \"#utility.yul\":3683:3685   */\n      0x20\n        /* \"#utility.yul\":3709:3762   */\n      tag_113\n        /* \"#utility.yul\":3754:3761   */\n      dup6\n        /* \"#utility.yul\":3745:3751   */\n      dup3\n        /* \"#utility.yul\":3734:3743   */\n      dup7\n        /* \"#utility.yul\":3730:3752   */\n      add\n        /* \"#utility.yul\":3709:3762   */\n      tag_53\n      jump\t// in\n    tag_113:\n        /* \"#utility.yul\":3699:3762   */\n      swap2\n      pop\n        /* \"#utility.yul\":3654:3772   */\n      pop\n        /* \"#utility.yul\":3095:3779   */\n      swap3\n      pop\n      swap3\n      swap1\n      pop\n      jump\t// out\n        /* \"#utility.yul\":3785:3875   */\n    tag_56:\n        /* \"#utility.yul\":3819:3826   */\n      0x00\n        /* \"#utility.yul\":3862:3867   */\n      dup2\n        /* \"#utility.yul\":3855:3868   */\n      iszero\n        /* \"#utility.yul\":3848:3869   */\n      iszero\n        /* \"#utility.yul\":3837:3869   */\n      swap1\n      pop\n        /* \"#utility.yul\":3785:3875   */\n      swap2\n      swap1\n      pop\n      jump\t// out\n        /* \"#utility.yul\":3881:3990   */\n    tag_57:\n        /* \"#utility.yul\":3962:3983   */\n      tag_116\n        /* \"#utility.yul\":3977:3982   */\n      dup2\n        /* \"#utility.yul\":3962:3983   */\n      tag_56\n      jump\t// in\n    tag_116:\n        /* \"#utility.yul\":3957:3960   */\n      dup3\n        /* \"#utility.yul\":3950:3984   */\n      mstore\n        /* \"#utility.yul\":3881:3990   */\n      pop\n      pop\n      jump\t// out\n        /* \"#utility.yul\":3996:4206   */\n    tag_11:\n        /* \"#utility.yul\":4083:4087   */\n      0x00\n        /* \"#utility.yul\":4121:4123   */\n      0x20\n        /* \"#utility.yul\":4110:4119   */\n      dup3\n        /* \"#utility.yul\":4106:4124   */\n      add\n        /* \"#utility.yul\":4098:4124   */\n      swap1\n      pop\n        /* \"#utility.yul\":4134:4199   */\n      tag_118\n        /* \"#utility.yul\":4196:4197   */\n      0x00\n        /* \"#utility.yul\":4185:4194   */\n      dup4\n        /* \"#utility.yul\":4181:4198   */\n      add\n        /* \"#utility.yul\":4172:4178   */\n      dup5\n        /* \"#utility.yul\":4134:4199   */\n      tag_57\n      jump\t// in\n    tag_118:\n        /* \"#utility.yul\":3996:4206   */\n      swap3\n      swap2\n      pop\n      pop\n      jump\t// out\n        /* \"#utility.yul\":4212:4686   */\n    tag_14:\n        /* \"#utility.yul\":4280:4286   */\n      0x00\n        /* \"#utility.yul\":4288:4294   */\n      dup1\n        /* \"#utility.yul\":4337:4339   */\n      0x40\n        /* \"#utility.yul\":4325:4334   */\n      dup4\n        /* \"#utility.yul\":4316:4323   */\n      dup6\n        /* \"#utility.yul\":4312:4335   */\n      sub\n        /* \"#utility.yul\":4308:4340   */\n      slt\n        /* \"#utility.yul\":4305:4424   */\n      iszero\n      tag_120\n      jumpi\n        /* \"#utility.yul\":4343:4422   */\n      tag_121\n      tag_42\n      jump\t// in\n    tag_121:\n        /* \"#utility.yul\":4305:4424   */\n    tag_120:\n        /* \"#utility.yul\":4463:4464   */\n      0x00\n        /* \"#utility.yul\":4488:4541   */\n      tag_122\n        /* \"#utility.yul\":4533:4540   */\n      dup6\n        /* \"#utility.yul\":4524:4530   */\n      dup3\n        /* \"#utility.yul\":4513:4522   */\n      dup7\n        /* \"#utility.yul\":4509:4531   */\n      add\n        /* \"#utility.yul\":4488:4541   */\n      tag_53\n      jump\t// in\n    tag_122:\n        /* \"#utility.yul\":4478:4541   */\n      swap3\n      pop\n        /* \"#utility.yul\":4434:4551   */\n      pop\n        /* \"#utility.yul\":4590:4592   */\n      0x20\n        /* \"#utility.yul\":4616:4669   */\n      tag_123\n        /* \"#utility.yul\":4661:4668   */\n      dup6\n        /* \"#utility.yul\":4652:4658   */\n      dup3\n        /* \"#utility.yul\":4641:4650   */\n      dup7\n        /* \"#utility.yul\":4637:4659   */\n      add\n        /* \"#utility.yul\":4616:4669   */\n      tag_53\n      jump\t// in\n    tag_123:\n        /* \"#utility.yul\":4606:4669   */\n      swap2\n      pop\n        /* \"#utility.yul\":4561:4679   */\n      pop\n        /* \"#utility.yul\":4212:4686   */\n      swap3\n      pop\n      swap3\n      swap1\n      pop\n      jump\t// out\n        /* \"#utility.yul\":4692:4810   */\n    tag_58:\n        /* \"#utility.yul\":4779:4803   */\n      tag_125\n        /* \"#utility.yul\":4797:4802   */\n      dup2\n        /* \"#utility.yul\":4779:4803   */\n      tag_51\n      jump\t// in\n    tag_125:\n        /* \"#utility.yul\":4774:4777   */\n      dup3\n        /* \"#utility.yul\":4767:4804   */\n      mstore\n        /* \"#utility.yul\":4692:4810   */\n      pop\n      pop\n      jump\t// out\n        /* \"#utility.yul\":4816:5038   */\n    tag_17:\n        /* \"#utility.yul\":4909:4913   */\n      0x00\n        /* \"#utility.yul\":4947:4949   */\n      0x20\n        /* \"#utility.yul\":4936:4945   */\n      dup3\n        /* \"#utility.yul\":4932:4950   */\n      add\n        /* \"#utility.yul\":4924:4950   */\n      swap1\n      pop\n        /* \"#utility.yul\":4960:5031   */\n      tag_127\n        /* \"#utility.yul\":5028:5029   */\n      0x00\n        /* \"#utility.yul\":5017:5026   */\n      dup4\n        /* \"#utility.yul\":5013:5030   */\n      add\n        /* \"#utility.yul\":5004:5010   */\n      dup5\n        /* \"#utility.yul\":4960:5031   */\n      tag_58\n      jump\t// in\n    tag_127:\n        /* \"#utility.yul\":4816:5038   */\n      swap3\n      swap2\n      pop\n      pop\n      jump\t// out\n        /* \"#utility.yul\":5044:5158   */\n    tag_59:\n        /* \"#utility.yul\":5111:5117   */\n      0x00\n        /* \"#utility.yul\":5145:5150   */\n      dup2\n        /* \"#utility.yul\":5139:5151   */\n      mload\n        /* \"#utility.yul\":5129:5151   */\n      swap1\n      pop\n        /* \"#utility.yul\":5044:5158   */\n      swap2\n      swap1\n      pop\n      jump\t// out\n        /* \"#utility.yul\":5164:5356   */\n    tag_60:\n        /* \"#utility.yul\":5271:5282   */\n      0x00\n        /* \"#utility.yul\":5305:5311   */\n      dup3\n        /* \"#utility.yul\":5300:5303   */\n      dup3\n        /* \"#utility.yul\":5293:5312   */\n      mstore\n        /* \"#utility.yul\":5345:5349   */\n      0x20\n        /* \"#utility.yul\":5340:5343   */\n      dup3\n        /* \"#utility.yul\":5336:5350   */\n      add\n        /* \"#utility.yul\":5321:5350   */\n      swap1\n      pop\n        /* \"#utility.yul\":5164:5356   */\n      swap3\n      swap2\n      pop\n      pop\n      jump\t// out\n        /* \"#utility.yul\":5362:5494   */\n    tag_61:\n        /* \"#utility.yul\":5429:5433   */\n      0x00\n        /* \"#utility.yul\":5452:5455   */\n      dup2\n        /* \"#utility.yul\":5444:5455   */\n      swap1\n      pop\n        /* \"#utility.yul\":5482:5486   */\n      0x20\n        /* \"#utility.yul\":5477:5480   */\n      dup3\n        /* \"#utility.yul\":5473:5487   */\n      add\n        /* \"#utility.yul\":5465:5487   */\n      swap1\n      pop\n        /* \"#utility.yul\":5362:5494   */\n      swap2\n      swap1\n      pop\n      jump\t// out\n        /* \"#utility.yul\":5500:5616   */\n    tag_62:\n        /* \"#utility.yul\":5585:5609   */\n      tag_132\n        /* \"#utility.yul\":5603:5608   */\n      dup2\n        /* \"#utility.yul\":5585:5609   */\n      tag_51\n      jump\t// in\n    tag_132:\n        /* \"#utility.yul\":5580:5583   */\n      dup3\n        /* \"#utility.yul\":5573:5610   */\n      mstore\n        /* \"#utility.yul\":5500:5616   */\n      pop\n      pop\n      jump\t// out\n        /* \"#utility.yul\":5622:5817   */\n    tag_63:\n        /* \"#utility.yul\":5699:5709   */\n      0x00\n        /* \"#utility.yul\":5720:5774   */\n      tag_134\n        /* \"#utility.yul\":5770:5773   */\n      dup4\n        /* \"#utility.yul\":5762:5768   */\n      dup4\n        /* \"#utility.yul\":5720:5774   */\n      tag_62\n      jump\t// in\n    tag_134:\n        /* \"#utility.yul\":5806:5810   */\n      0x20\n        /* \"#utility.yul\":5801:5804   */\n      dup4\n        /* \"#utility.yul\":5797:5811   */\n      add\n        /* \"#utility.yul\":5783:5811   */\n      swap1\n      pop\n        /* \"#utility.yul\":5622:5817   */\n      swap3\n      swap2\n      pop\n      pop\n      jump\t// out\n        /* \"#utility.yul\":5823:5936   */\n    tag_64:\n        /* \"#utility.yul\":5893:5897   */\n      0x00\n        /* \"#utility.yul\":5925:5929   */\n      0x20\n        /* \"#utility.yul\":5920:5923   */\n      dup3\n        /* \"#utility.yul\":5916:5930   */\n      add\n        /* \"#utility.yul\":5908:5930   */\n      swap1\n      pop\n        /* \"#utility.yul\":5823:5936   */\n      swap2\n      swap1\n      pop\n      jump\t// out\n        /* \"#utility.yul\":5972:6728   */\n    tag_65:\n        /* \"#utility.yul\":6099:6102   */\n      0x00\n        /* \"#utility.yul\":6128:6182   */\n      tag_137\n        /* \"#utility.yul\":6176:6181   */\n      dup3\n        /* \"#utility.yul\":6128:6182   */\n      tag_59\n      jump\t// in\n    tag_137:\n        /* \"#utility.yul\":6198:6292   */\n      tag_138\n        /* \"#utility.yul\":6285:6291   */\n      dup2\n        /* \"#utility.yul\":6280:6283   */\n      dup6\n        /* \"#utility.yul\":6198:6292   */\n      tag_60\n      jump\t// in\n    tag_138:\n        /* \"#utility.yul\":6191:6292   */\n      swap4\n      pop\n        /* \"#utility.yul\":6316:6372   */\n      tag_139\n        /* \"#utility.yul\":6366:6371   */\n      dup4\n        /* \"#utility.yul\":6316:6372   */\n      tag_61\n      jump\t// in\n    tag_139:\n        /* \"#utility.yul\":6395:6402   */\n      dup1\n        /* \"#utility.yul\":6426:6427   */\n      0x00\n        /* \"#utility.yul\":6411:6703   */\n    tag_140:\n        /* \"#utility.yul\":6436:6442   */\n      dup4\n        /* \"#utility.yul\":6433:6434   */\n      dup2\n        /* \"#utility.yul\":6430:6443   */\n      lt\n        /* \"#utility.yul\":6411:6703   */\n      iszero\n      tag_142\n      jumpi\n        /* \"#utility.yul\":6512:6518   */\n      dup2\n        /* \"#utility.yul\":6506:6519   */\n      mload\n        /* \"#utility.yul\":6539:6610   */\n      tag_143\n        /* \"#utility.yul\":6606:6609   */\n      dup9\n        /* \"#utility.yul\":6591:6604   */\n      dup3\n        /* \"#utility.yul\":6539:6610   */\n      tag_63\n      jump\t// in\n    tag_143:\n        /* \"#utility.yul\":6532:6610   */\n      swap8\n      pop\n        /* \"#utility.yul\":6633:6693   */\n      tag_144\n        /* \"#utility.yul\":6686:6692   */\n      dup4\n        /* \"#utility.yul\":6633:6693   */\n      tag_64\n      jump\t// in\n    tag_144:\n        /* \"#utility.yul\":6623:6693   */\n      swap3\n      pop\n        /* \"#utility.yul\":6471:6703   */\n      pop\n        /* \"#utility.yul\":6458:6459   */\n      0x01\n        /* \"#utility.yul\":6455:6456   */\n      dup2\n        /* \"#utility.yul\":6451:6460   */\n      add\n        /* \"#utility.yul\":6446:6460   */\n      swap1\n      pop\n        /* \"#utility.yul\":6411:6703   */\n      jump(tag_140)\n    tag_142:\n        /* \"#utility.yul\":6415:6429   */\n      pop\n        /* \"#utility.yul\":6719:6722   */\n      dup6\n        /* \"#utility.yul\":6712:6722   */\n      swap4\n      pop\n        /* \"#utility.yul\":6104:6728   */\n      pop\n      pop\n      pop\n        /* \"#utility.yul\":5972:6728   */\n      swap3\n      swap2\n      pop\n      pop\n      jump\t// out\n        /* \"#utility.yul\":6734:6860   */\n    tag_66:\n        /* \"#utility.yul\":6829:6853   */\n      tag_146\n        /* \"#utility.yul\":6847:6852   */\n      dup2\n        /* \"#utility.yul\":6829:6853   */\n      tag_51\n      jump\t// in\n    tag_146:\n        /* \"#utility.yul\":6824:6827   */\n      dup3\n        /* \"#utility.yul\":6817:6854   */\n      mstore\n        /* \"#utility.yul\":6734:6860   */\n      pop\n      pop\n      jump\t// out\n        /* \"#utility.yul\":6866:7373   */\n    tag_24:\n        /* \"#utility.yul\":7045:7049   */\n      0x00\n        /* \"#utility.yul\":7083:7085   */\n      0x40\n        /* \"#utility.yul\":7072:7081   */\n      dup3\n        /* \"#utility.yul\":7068:7086   */\n      add\n        /* \"#utility.yul\":7060:7086   */\n      swap1\n      pop\n        /* \"#utility.yul\":7132:7141   */\n      dup2\n        /* \"#utility.yul\":7126:7130   */\n      dup2\n        /* \"#utility.yul\":7122:7142   */\n      sub\n        /* \"#utility.yul\":7118:7119   */\n      0x00\n        /* \"#utility.yul\":7107:7116   */\n      dup4\n        /* \"#utility.yul\":7103:7120   */\n      add\n        /* \"#utility.yul\":7096:7143   */\n      mstore\n        /* \"#utility.yul\":7160:7276   */\n      tag_148\n        /* \"#utility.yul\":7271:7275   */\n      dup2\n        /* \"#utility.yul\":7262:7268   */\n      dup6\n        /* \"#utility.yul\":7160:7276   */\n      tag_65\n      jump\t// in\n    tag_148:\n        /* \"#utility.yul\":7152:7276   */\n      swap1\n      pop\n        /* \"#utility.yul\":7286:7366   */\n      tag_149\n        /* \"#utility.yul\":7362:7364   */\n      0x20\n        /* \"#utility.yul\":7351:7360   */\n      dup4\n        /* \"#utility.yul\":7347:7365   */\n      add\n        /* \"#utility.yul\":7338:7344   */\n      dup5\n        /* \"#utility.yul\":7286:7366   */\n      tag_66\n      jump\t// in\n    tag_149:\n        /* \"#utility.yul\":6866:7373   */\n      swap4\n      swap3\n      pop\n      pop\n      pop\n      jump\t// out\n        /* \"#utility.yul\":7379:7495   */\n    tag_67:\n        /* \"#utility.yul\":7449:7470   */\n      tag_151\n        /* \"#utility.yul\":7464:7469   */\n      dup2\n        /* \"#utility.yul\":7449:7470   */\n      tag_56\n      jump\t// in\n    tag_151:\n        /* \"#utility.yul\":7442:7447   */\n      dup2\n        /* \"#utility.yul\":7439:7471   */\n      eq\n        /* \"#utility.yul\":7429:7489   */\n      tag_152\n      jumpi\n        /* \"#utility.yul\":7485:7486   */\n      0x00\n        /* \"#utility.yul\":7482:7483   */\n      dup1\n        /* \"#utility.yul\":7475:7487   */\n      revert\n        /* \"#utility.yul\":7429:7489   */\n    tag_152:\n        /* \"#utility.yul\":7379:7495   */\n      pop\n      jump\t// out\n        /* \"#utility.yul\":7501:7638   */\n    tag_68:\n        /* \"#utility.yul\":7555:7560   */\n      0x00\n        /* \"#utility.yul\":7586:7592   */\n      dup2\n        /* \"#utility.yul\":7580:7593   */\n      mload\n        /* \"#utility.yul\":7571:7593   */\n      swap1\n      pop\n        /* \"#utility.yul\":7602:7632   */\n      tag_154\n        /* \"#utility.yul\":7626:7631   */\n      dup2\n        /* \"#utility.yul\":7602:7632   */\n      tag_67\n      jump\t// in\n    tag_154:\n        /* \"#utility.yul\":7501:7638   */\n      swap3\n      swap2\n      pop\n      pop\n      jump\t// out\n        /* \"#utility.yul\":7644:7989   */\n    tag_28:\n        /* \"#utility.yul\":7711:7717   */\n      0x00\n        /* \"#utility.yul\":7760:7762   */\n      0x20\n        /* \"#utility.yul\":7748:7757   */\n      dup3\n        /* \"#utility.yul\":7739:7746   */\n      dup5\n        /* \"#utility.yul\":7735:7758   */\n      sub\n        /* \"#utility.yul\":7731:7763   */\n      slt\n        /* \"#utility.yul\":7728:7847   */\n      iszero\n      tag_156\n      jumpi\n        /* \"#utility.yul\":7766:7845   */\n      tag_157\n      tag_42\n      jump\t// in\n    tag_157:\n        /* \"#utility.yul\":7728:7847   */\n    tag_156:\n        /* \"#utility.yul\":7886:7887   */\n      0x00\n        /* \"#utility.yul\":7911:7972   */\n      tag_158\n        /* \"#utility.yul\":7964:7971   */\n      dup5\n        /* \"#utility.yul\":7955:7961   */\n      dup3\n        /* \"#utility.yul\":7944:7953   */\n      dup6\n        /* \"#utility.yul\":7940:7962   */\n      add\n        /* \"#utility.yul\":7911:7972   */\n      tag_68\n      jump\t// in\n    tag_158:\n        /* \"#utility.yul\":7901:7972   */\n      swap2\n      pop\n        /* \"#utility.yul\":7857:7982   */\n      pop\n        /* \"#utility.yul\":7644:7989   */\n      swap3\n      swap2\n      pop\n      pop\n      jump\t// out\n        /* \"#utility.yul\":7995:8351   */\n    tag_31:\n        /* \"#utility.yul\":8124:8128   */\n      0x00\n        /* \"#utility.yul\":8162:8164   */\n      0x40\n        /* \"#utility.yul\":8151:8160   */\n      dup3\n        /* \"#utility.yul\":8147:8165   */\n      add\n        /* \"#utility.yul\":8139:8165   */\n      swap1\n      pop\n        /* \"#utility.yul\":8175:8254   */\n      tag_160\n        /* \"#utility.yul\":8251:8252   */\n      0x00\n        /* \"#utility.yul\":8240:8249   */\n      dup4\n        /* \"#utility.yul\":8236:8253   */\n      add\n        /* \"#utility.yul\":8227:8233   */\n      dup6\n        /* \"#utility.yul\":8175:8254   */\n      tag_66\n      jump\t// in\n    tag_160:\n        /* \"#utility.yul\":8264:8344   */\n      tag_161\n        /* \"#utility.yul\":8340:8342   */\n      0x20\n        /* \"#utility.yul\":8329:8338   */\n      dup4\n        /* \"#utility.yul\":8325:8343   */\n      add\n        /* \"#utility.yul\":8316:8322   */\n      dup5\n        /* \"#utility.yul\":8264:8344   */\n      tag_66\n      jump\t// in\n    tag_161:\n        /* \"#utility.yul\":7995:8351   */\n      swap4\n      swap3\n      pop\n      pop\n      pop\n      jump\t// out\n        /* \"#utility.yul\":8357:8500   */\n    tag_69:\n        /* \"#utility.yul\":8414:8419   */\n      0x00\n        /* \"#utility.yul\":8445:8451   */\n      dup2\n        /* \"#utility.yul\":8439:8452   */\n      mload\n        /* \"#utility.yul\":8430:8452   */\n      swap1\n      pop\n        /* \"#utility.yul\":8461:8494   */\n      tag_163\n        /* \"#utility.yul\":8488:8493   */\n      dup2\n        /* \"#utility.yul\":8461:8494   */\n      tag_52\n      jump\t// in\n    tag_163:\n        /* \"#utility.yul\":8357:8500   */\n      swap3\n      swap2\n      pop\n      pop\n      jump\t// out\n        /* \"#utility.yul\":8506:8857   */\n    tag_35:\n        /* \"#utility.yul\":8576:8582   */\n      0x00\n        /* \"#utility.yul\":8625:8627   */\n      0x20\n        /* \"#utility.yul\":8613:8622   */\n      dup3\n        /* \"#utility.yul\":8604:8611   */\n      dup5\n        /* \"#utility.yul\":8600:8623   */\n      sub\n        /* \"#utility.yul\":8596:8628   */\n      slt\n        /* \"#utility.yul\":8593:8712   */\n      iszero\n      tag_165\n      jumpi\n        /* \"#utility.yul\":8631:8710   */\n      tag_166\n      tag_42\n      jump\t// in\n    tag_166:\n        /* \"#utility.yul\":8593:8712   */\n    tag_165:\n        /* \"#utility.yul\":8751:8752   */\n      0x00\n        /* \"#utility.yul\":8776:8840   */\n      tag_167\n        /* \"#utility.yul\":8832:8839   */\n      dup5\n        /* \"#utility.yul\":8823:8829   */\n      dup3\n        /* \"#utility.yul\":8812:8821   */\n      dup6\n        /* \"#utility.yul\":8808:8830   */\n      add\n        /* \"#utility.yul\":8776:8840   */\n      tag_69\n      jump\t// in\n    tag_167:\n        /* \"#utility.yul\":8766:8840   */\n      swap2\n      pop\n        /* \"#utility.yul\":8722:8850   */\n      pop\n        /* \"#utility.yul\":8506:8857   */\n      swap3\n      swap2\n      pop\n      pop\n      jump\t// out\n\n    auxdata: 0xa2646970667358221220fefc3452927601c2b8a197c6aeba7a6dc8b436873ecd48b4668498dfd0ab0e1664736f6c634300081a0033\n}\n",
				"bytecode": {
					"linkReferences": {
						"contracts/MyMath.sol": {
							"MyMath": [
								{
									"length": 20,
									"start": 372
								}
							],
							"MyMath01": [
								{
									"length": 20,
									"start": 242
								},
								{
									"length": 20,
									"start": 506
								}
							]
						}
					},
					"object": "6080604052348015600e575f80fd5b506106c98061001c5f395ff3fe608060405234801561000f575f80fd5b506004361061003f575f3560e01c8063b32b8e2c14610043578063cad0899b14610073578063fb5eb30b146100a3575b5f80fd5b61005d600480360381019061005891906103f1565b6100d3565b60405161006a9190610465565b60405180910390f35b61008d6004803603810190610088919061047e565b610154565b60405161009a91906104cb565b60405180910390f35b6100bd60048036038101906100b891906103f1565b6101da565b6040516100ca9190610465565b60405180910390f35b5f73__$576b70a3b00e12a249a0d7d0944903cdb0$__6359664efd84846040518363ffffffff1660e01b815260040161010d9291906105aa565b602060405180830381865af4158015610128573d5f803e3d5ffd5b505050506040513d601f19601f8201168201806040525081019061014c9190610602565b905092915050565b5f8073__$5d15bed652054862cdb2c50aa00dd63259$__63cad0899b85856040518363ffffffff1660e01b815260040161018f92919061062d565b602060405180830381865af41580156101aa573d5f803e3d5ffd5b505050506040513d601f19601f820116820180604052508101906101ce9190610668565b90508091505092915050565b5f8273__$576b70a3b00e12a249a0d7d0944903cdb0$__6359664efd9091846040518363ffffffff1660e01b81526004016102169291906105aa565b602060405180830381865af4158015610231573d5f803e3d5ffd5b505050506040513d601f19601f820116820180604052508101906102559190610602565b905092915050565b5f604051905090565b5f80fd5b5f80fd5b5f80fd5b5f601f19601f8301169050919050565b7f4e487b71000000000000000000000000000000000000000000000000000000005f52604160045260245ffd5b6102b882610272565b810181811067ffffffffffffffff821117156102d7576102d6610282565b5b80604052505050565b5f6102e961025d565b90506102f582826102af565b919050565b5f67ffffffffffffffff82111561031457610313610282565b5b602082029050602081019050919050565b5f80fd5b5f819050919050565b61033b81610329565b8114610345575f80fd5b50565b5f8135905061035681610332565b92915050565b5f61036e610369846102fa565b6102e0565b9050808382526020820190506020840283018581111561039157610390610325565b5b835b818110156103ba57806103a68882610348565b845260208401935050602081019050610393565b5050509392505050565b5f82601f8301126103d8576103d761026e565b5b81356103e884826020860161035c565b91505092915050565b5f806040838503121561040757610406610266565b5b5f83013567ffffffffffffffff8111156104245761042361026a565b5b610430858286016103c4565b925050602061044185828601610348565b9150509250929050565b5f8115159050919050565b61045f8161044b565b82525050565b5f6020820190506104785f830184610456565b92915050565b5f806040838503121561049457610493610266565b5b5f6104a185828601610348565b92505060206104b285828601610348565b9150509250929050565b6104c581610329565b82525050565b5f6020820190506104de5f8301846104bc565b92915050565b5f81519050919050565b5f82825260208201905092915050565b5f819050602082019050919050565b61051681610329565b82525050565b5f610527838361050d565b60208301905092915050565b5f602082019050919050565b5f610549826104e4565b61055381856104ee565b935061055e836104fe565b805f5b8381101561058e578151610575888261051c565b975061058083610533565b925050600181019050610561565b5085935050505092915050565b6105a481610329565b82525050565b5f6040820190508181035f8301526105c2818561053f565b90506105d1602083018461059b565b9392505050565b6105e18161044b565b81146105eb575f80fd5b50565b5f815190506105fc816105d8565b92915050565b5f6020828403121561061757610616610266565b5b5f610624848285016105ee565b91505092915050565b5f6040820190506106405f83018561059b565b61064d602083018461059b565b9392505050565b5f8151905061066281610332565b92915050565b5f6020828403121561067d5761067c610266565b5b5f61068a84828501610654565b9150509291505056fea2646970667358221220fefc3452927601c2b8a197c6aeba7a6dc8b436873ecd48b4668498dfd0ab0e1664736f6c634300081a0033",
					"opcodes": "PUSH1 0x80 PUSH1 0x40 MSTORE CALLVALUE DUP1 ISZERO PUSH1 0xE JUMPI PUSH0 DUP1 REVERT JUMPDEST POP PUSH2 0x6C9 DUP1 PUSH2 0x1C PUSH0 CODECOPY PUSH0 RETURN INVALID PUSH1 0x80 PUSH1 0x40 MSTORE CALLVALUE DUP1 ISZERO PUSH2 0xF JUMPI PUSH0 DUP1 REVERT JUMPDEST POP PUSH1 0x4 CALLDATASIZE LT PUSH2 0x3F JUMPI PUSH0 CALLDATALOAD PUSH1 0xE0 SHR DUP1 PUSH4 0xB32B8E2C EQ PUSH2 0x43 JUMPI DUP1 PUSH4 0xCAD0899B EQ PUSH2 0x73 JUMPI DUP1 PUSH4 0xFB5EB30B EQ PUSH2 0xA3 JUMPI JUMPDEST PUSH0 DUP1 REVERT JUMPDEST PUSH2 0x5D PUSH1 0x4 DUP1 CALLDATASIZE SUB DUP2 ADD SWAP1 PUSH2 0x58 SWAP2 SWAP1 PUSH2 0x3F1 JUMP JUMPDEST PUSH2 0xD3 JUMP JUMPDEST PUSH1 0x40 MLOAD PUSH2 0x6A SWAP2 SWAP1 PUSH2 0x465 JUMP JUMPDEST PUSH1 0x40 MLOAD DUP1 SWAP2 SUB SWAP1 RETURN JUMPDEST PUSH2 0x8D PUSH1 0x4 DUP1 CALLDATASIZE SUB DUP2 ADD SWAP1 PUSH2 0x88 SWAP2 SWAP1 PUSH2 0x47E JUMP JUMPDEST PUSH2 0x154 JUMP JUMPDEST PUSH1 0x40 MLOAD PUSH2 0x9A SWAP2 SWAP1 PUSH2 0x4CB JUMP JUMPDEST PUSH1 0x40 MLOAD DUP1 SWAP2 SUB SWAP1 RETURN JUMPDEST PUSH2 0xBD PUSH1 0x4 DUP1 CALLDATASIZE SUB DUP2 ADD SWAP1 PUSH2 0xB8 SWAP2 SWAP1 PUSH2 0x3F1 JUMP JUMPDEST PUSH2 0x1DA JUMP JUMPDEST PUSH1 0x40 MLOAD PUSH2 0xCA SWAP2 SWAP1 PUSH2 0x465 JUMP JUMPDEST PUSH1 0x40 MLOAD DUP1 SWAP2 SUB SWAP1 RETURN JUMPDEST PUSH0 PUSH20 0x0 PUSH4 0x59664EFD DUP5 DUP5 PUSH1 0x40 MLOAD DUP4 PUSH4 0xFFFFFFFF AND PUSH1 0xE0 SHL DUP2 MSTORE PUSH1 0x4 ADD PUSH2 0x10D SWAP3 SWAP2 SWAP1 PUSH2 0x5AA JUMP JUMPDEST PUSH1 0x20 PUSH1 0x40 MLOAD DUP1 DUP4 SUB DUP2 DUP7 GAS DELEGATECALL ISZERO DUP1 ISZERO PUSH2 0x128 JUMPI RETURNDATASIZE PUSH0 DUP1 RETURNDATACOPY RETURNDATASIZE PUSH0 REVERT JUMPDEST POP POP POP POP PUSH1 0x40 MLOAD RETURNDATASIZE PUSH1 0x1F NOT PUSH1 0x1F DUP3 ADD AND DUP3 ADD DUP1 PUSH1 0x40 MSTORE POP DUP2 ADD SWAP1 PUSH2 0x14C SWAP2 SWAP1 PUSH2 0x602 JUMP JUMPDEST SWAP1 POP SWAP3 SWAP2 POP POP JUMP JUMPDEST PUSH0 DUP1 PUSH20 0x0 PUSH4 0xCAD0899B DUP6 DUP6 PUSH1 0x40 MLOAD DUP4 PUSH4 0xFFFFFFFF AND PUSH1 0xE0 SHL DUP2 MSTORE PUSH1 0x4 ADD PUSH2 0x18F SWAP3 SWAP2 SWAP1 PUSH2 0x62D JUMP JUMPDEST PUSH1 0x20 PUSH1 0x40 MLOAD DUP1 DUP4 SUB DUP2 DUP7 GAS DELEGATECALL ISZERO DUP1 ISZERO PUSH2 0x1AA JUMPI RETURNDATASIZE PUSH0 DUP1 RETURNDATACOPY RETURNDATASIZE PUSH0 REVERT JUMPDEST POP POP POP POP PUSH1 0x40 MLOAD RETURNDATASIZE PUSH1 0x1F NOT PUSH1 0x1F DUP3 ADD AND DUP3 ADD DUP1 PUSH1 0x40 MSTORE POP DUP2 ADD SWAP1 PUSH2 0x1CE SWAP2 SWAP1 PUSH2 0x668 JUMP JUMPDEST SWAP1 POP DUP1 SWAP2 POP POP SWAP3 SWAP2 POP POP JUMP JUMPDEST PUSH0 DUP3 PUSH20 0x0 PUSH4 0x59664EFD SWAP1 SWAP2 DUP5 PUSH1 0x40 MLOAD DUP4 PUSH4 0xFFFFFFFF AND PUSH1 0xE0 SHL DUP2 MSTORE PUSH1 0x4 ADD PUSH2 0x216 SWAP3 SWAP2 SWAP1 PUSH2 0x5AA JUMP JUMPDEST PUSH1 0x20 PUSH1 0x40 MLOAD DUP1 DUP4 SUB DUP2 DUP7 GAS DELEGATECALL ISZERO DUP1 ISZERO PUSH2 0x231 JUMPI RETURNDATASIZE PUSH0 DUP1 RETURNDATACOPY RETURNDATASIZE PUSH0 REVERT JUMPDEST POP POP POP POP PUSH1 0x40 MLOAD RETURNDATASIZE PUSH1 0x1F NOT PUSH1 0x1F DUP3 ADD AND DUP3 ADD DUP1 PUSH1 0x40 MSTORE POP DUP2 ADD SWAP1 PUSH2 0x255 SWAP2 SWAP1 PUSH2 0x602 JUMP JUMPDEST SWAP1 POP SWAP3 SWAP2 POP POP JUMP JUMPDEST PUSH0 PUSH1 0x40 MLOAD SWAP1 POP SWAP1 JUMP JUMPDEST PUSH0 DUP1 REVERT JUMPDEST PUSH0 DUP1 REVERT JUMPDEST PUSH0 DUP1 REVERT JUMPDEST PUSH0 PUSH1 0x1F NOT PUSH1 0x1F DUP4 ADD AND SWAP1 POP SWAP2 SWAP1 POP JUMP JUMPDEST PUSH32 0x4E487B7100000000000000000000000000000000000000000000000000000000 PUSH0 MSTORE PUSH1 0x41 PUSH1 0x4 MSTORE PUSH1 0x24 PUSH0 REVERT JUMPDEST PUSH2 0x2B8 DUP3 PUSH2 0x272 JUMP JUMPDEST DUP2 ADD DUP2 DUP2 LT PUSH8 0xFFFFFFFFFFFFFFFF DUP3 GT OR ISZERO PUSH2 0x2D7 JUMPI PUSH2 0x2D6 PUSH2 0x282 JUMP JUMPDEST JUMPDEST DUP1 PUSH1 0x40 MSTORE POP POP POP JUMP JUMPDEST PUSH0 PUSH2 0x2E9 PUSH2 0x25D JUMP JUMPDEST SWAP1 POP PUSH2 0x2F5 DUP3 DUP3 PUSH2 0x2AF JUMP JUMPDEST SWAP2 SWAP1 POP JUMP JUMPDEST PUSH0 PUSH8 0xFFFFFFFFFFFFFFFF DUP3 GT ISZERO PUSH2 0x314 JUMPI PUSH2 0x313 PUSH2 0x282 JUMP JUMPDEST JUMPDEST PUSH1 0x20 DUP3 MUL SWAP1 POP PUSH1 0x20 DUP2 ADD SWAP1 POP SWAP2 SWAP1 POP JUMP JUMPDEST PUSH0 DUP1 REVERT JUMPDEST PUSH0 DUP2 SWAP1 POP SWAP2 SWAP1 POP JUMP JUMPDEST PUSH2 0x33B DUP2 PUSH2 0x329 JUMP JUMPDEST DUP2 EQ PUSH2 0x345 JUMPI PUSH0 DUP1 REVERT JUMPDEST POP JUMP JUMPDEST PUSH0 DUP2 CALLDATALOAD SWAP1 POP PUSH2 0x356 DUP2 PUSH2 0x332 JUMP JUMPDEST SWAP3 SWAP2 POP POP JUMP JUMPDEST PUSH0 PUSH2 0x36E PUSH2 0x369 DUP5 PUSH2 0x2FA JUMP JUMPDEST PUSH2 0x2E0 JUMP JUMPDEST SWAP1 POP DUP1 DUP4 DUP3 MSTORE PUSH1 0x20 DUP3 ADD SWAP1 POP PUSH1 0x20 DUP5 MUL DUP4 ADD DUP6 DUP2 GT ISZERO PUSH2 0x391 JUMPI PUSH2 0x390 PUSH2 0x325 JUMP JUMPDEST JUMPDEST DUP4 JUMPDEST DUP2 DUP2 LT ISZERO PUSH2 0x3BA JUMPI DUP1 PUSH2 0x3A6 DUP9 DUP3 PUSH2 0x348 JUMP JUMPDEST DUP5 MSTORE PUSH1 0x20 DUP5 ADD SWAP4 POP POP PUSH1 0x20 DUP2 ADD SWAP1 POP PUSH2 0x393 JUMP JUMPDEST POP POP POP SWAP4 SWAP3 POP POP POP JUMP JUMPDEST PUSH0 DUP3 PUSH1 0x1F DUP4 ADD SLT PUSH2 0x3D8 JUMPI PUSH2 0x3D7 PUSH2 0x26E JUMP JUMPDEST JUMPDEST DUP2 CALLDATALOAD PUSH2 0x3E8 DUP5 DUP3 PUSH1 0x20 DUP7 ADD PUSH2 0x35C JUMP JUMPDEST SWAP2 POP POP SWAP3 SWAP2 POP POP JUMP JUMPDEST PUSH0 DUP1 PUSH1 0x40 DUP4 DUP6 SUB SLT ISZERO PUSH2 0x407 JUMPI PUSH2 0x406 PUSH2 0x266 JUMP JUMPDEST JUMPDEST PUSH0 DUP4 ADD CALLDATALOAD PUSH8 0xFFFFFFFFFFFFFFFF DUP2 GT ISZERO PUSH2 0x424 JUMPI PUSH2 0x423 PUSH2 0x26A JUMP JUMPDEST JUMPDEST PUSH2 0x430 DUP6 DUP3 DUP7 ADD PUSH2 0x3C4 JUMP JUMPDEST SWAP3 POP POP PUSH1 0x20 PUSH2 0x441 DUP6 DUP3 DUP7 ADD PUSH2 0x348 JUMP JUMPDEST SWAP2 POP POP SWAP3 POP SWAP3 SWAP1 POP JUMP JUMPDEST PUSH0 DUP2 ISZERO ISZERO SWAP1 POP SWAP2 SWAP1 POP JUMP JUMPDEST PUSH2 0x45F DUP2 PUSH2 0x44B JUMP JUMPDEST DUP3 MSTORE POP POP JUMP JUMPDEST PUSH0 PUSH1 0x20 DUP3 ADD SWAP1 POP PUSH2 0x478 PUSH0 DUP4 ADD DUP5 PUSH2 0x456 JUMP JUMPDEST SWAP3 SWAP2 POP POP JUMP JUMPDEST PUSH0 DUP1 PUSH1 0x40 DUP4 DUP6 SUB SLT ISZERO PUSH2 0x494 JUMPI PUSH2 0x493 PUSH2 0x266 JUMP JUMPDEST JUMPDEST PUSH0 PUSH2 0x4A1 DUP6 DUP3 DUP7 ADD PUSH2 0x348 JUMP JUMPDEST SWAP3 POP POP PUSH1 0x20 PUSH2 0x4B2 DUP6 DUP3 DUP7 ADD PUSH2 0x348 JUMP JUMPDEST SWAP2 POP POP SWAP3 POP SWAP3 SWAP1 POP JUMP JUMPDEST PUSH2 0x4C5 DUP2 PUSH2 0x329 JUMP JUMPDEST DUP3 MSTORE POP POP JUMP JUMPDEST PUSH0 PUSH1 0x20 DUP3 ADD SWAP1 POP PUSH2 0x4DE PUSH0 DUP4 ADD DUP5 PUSH2 0x4BC JUMP JUMPDEST SWAP3 SWAP2 POP POP JUMP JUMPDEST PUSH0 DUP2 MLOAD SWAP1 POP SWAP2 SWAP1 POP JUMP JUMPDEST PUSH0 DUP3 DUP3 MSTORE PUSH1 0x20 DUP3 ADD SWAP1 POP SWAP3 SWAP2 POP POP JUMP JUMPDEST PUSH0 DUP2 SWAP1 POP PUSH1 0x20 DUP3 ADD SWAP1 POP SWAP2 SWAP1 POP JUMP JUMPDEST PUSH2 0x516 DUP2 PUSH2 0x329 JUMP JUMPDEST DUP3 MSTORE POP POP JUMP JUMPDEST PUSH0 PUSH2 0x527 DUP4 DUP4 PUSH2 0x50D JUMP JUMPDEST PUSH1 0x20 DUP4 ADD SWAP1 POP SWAP3 SWAP2 POP POP JUMP JUMPDEST PUSH0 PUSH1 0x20 DUP3 ADD SWAP1 POP SWAP2 SWAP1 POP JUMP JUMPDEST PUSH0 PUSH2 0x549 DUP3 PUSH2 0x4E4 JUMP JUMPDEST PUSH2 0x553 DUP2 DUP6 PUSH2 0x4EE JUMP JUMPDEST SWAP4 POP PUSH2 0x55E DUP4 PUSH2 0x4FE JUMP JUMPDEST DUP1 PUSH0 JUMPDEST DUP4 DUP2 LT ISZERO PUSH2 0x58E JUMPI DUP2 MLOAD PUSH2 0x575 DUP9 DUP3 PUSH2 0x51C JUMP JUMPDEST SWAP8 POP PUSH2 0x580 DUP4 PUSH2 0x533 JUMP JUMPDEST SWAP3 POP POP PUSH1 0x1 DUP2 ADD SWAP1 POP PUSH2 0x561 JUMP JUMPDEST POP DUP6 SWAP4 POP POP POP POP SWAP3 SWAP2 POP POP JUMP JUMPDEST PUSH2 0x5A4 DUP2 PUSH2 0x329 JUMP JUMPDEST DUP3 MSTORE POP POP JUMP JUMPDEST PUSH0 PUSH1 0x40 DUP3 ADD SWAP1 POP DUP2 DUP2 SUB PUSH0 DUP4 ADD MSTORE PUSH2 0x5C2 DUP2 DUP6 PUSH2 0x53F JUMP JUMPDEST SWAP1 POP PUSH2 0x5D1 PUSH1 0x20 DUP4 ADD DUP5 PUSH2 0x59B JUMP JUMPDEST SWAP4 SWAP3 POP POP POP JUMP JUMPDEST PUSH2 0x5E1 DUP2 PUSH2 0x44B JUMP JUMPDEST DUP2 EQ PUSH2 0x5EB JUMPI PUSH0 DUP1 REVERT JUMPDEST POP JUMP JUMPDEST PUSH0 DUP2 MLOAD SWAP1 POP PUSH2 0x5FC DUP2 PUSH2 0x5D8 JUMP JUMPDEST SWAP3 SWAP2 POP POP JUMP JUMPDEST PUSH0 PUSH1 0x20 DUP3 DUP5 SUB SLT ISZERO PUSH2 0x617 JUMPI PUSH2 0x616 PUSH2 0x266 JUMP JUMPDEST JUMPDEST PUSH0 PUSH2 0x624 DUP5 DUP3 DUP6 ADD PUSH2 0x5EE JUMP JUMPDEST SWAP2 POP POP SWAP3 SWAP2 POP POP JUMP JUMPDEST PUSH0 PUSH1 0x40 DUP3 ADD SWAP1 POP PUSH2 0x640 PUSH0 DUP4 ADD DUP6 PUSH2 0x59B JUMP JUMPDEST PUSH2 0x64D PUSH1 0x20 DUP4 ADD DUP5 PUSH2 0x59B JUMP JUMPDEST SWAP4 SWAP3 POP POP POP JUMP JUMPDEST PUSH0 DUP2 MLOAD SWAP1 POP PUSH2 0x662 DUP2 PUSH2 0x332 JUMP JUMPDEST SWAP3 SWAP2 POP POP JUMP JUMPDEST PUSH0 PUSH1 0x20 DUP3 DUP5 SUB SLT ISZERO PUSH2 0x67D JUMPI PUSH2 0x67C PUSH2 0x266 JUMP JUMPDEST JUMPDEST PUSH0 PUSH2 0x68A DUP5 DUP3 DUP6 ADD PUSH2 0x654 JUMP JUMPDEST SWAP2 POP POP SWAP3 SWAP2 POP POP JUMP INVALID LOG2 PUSH5 0x6970667358 0x22 SLT KECCAK256 INVALID 0xFC CALLVALUE MSTORE SWAP3 PUSH23 0x1C2B8A197C6AEBA7A6DC8B436873ECD48B4668498DFD0 0xAB 0xE AND PUSH5 0x736F6C6343 STOP ADDMOD BYTE STOP CALLER "
				},
				"gasEstimates": {
					"creation": {
						"codeDepositCost": "347400",
						"executionCost": "384",
						"totalCost": "347784"
					},
					"external": {
						"contains(uint256[],uint256)": "infinite",
						"contains1(uint256[],uint256)": "infinite",
						"sum(uint256,uint256)": "infinite"
					}
				},
				"methodIdentifiers": {
					"contains(uint256[],uint256)": "b32b8e2c",
					"contains1(uint256[],uint256)": "fb5eb30b",
					"sum(uint256,uint256)": "cad0899b"
				}
			},
			"storageLayout": {
				"storage": [],
				"types": null
			},
			"userdoc": {
				"kind": "user",
				"methods": {},
				"version": 1
			}
		}
	}
}