{
	"contracts/8_mappingTest03.sol": {
		"test03": {
			"abi": [
				{
					"inputs": [
						{
							"internalType": "address",
							"name": "newAddress",
							"type": "address"
						},
						{
							"internalType": "uint256",
							"name": "balance",
							"type": "uint256"
						}
					],
					"name": "addUserBalance",
					"outputs": [],
					"stateMutability": "nonpayable",
					"type": "function"
				},
				{
					"inputs": [
						{
							"internalType": "address",
							"name": "user",
							"type": "address"
						}
					],
					"name": "getBalances",
					"outputs": [
						{
							"internalType": "uint256",
							"name": "",
							"type": "uint256"
						}
					],
					"stateMutability": "view",
					"type": "function"
				},
				{
					"inputs": [],
					"name": "getLeaderboard",
					"outputs": [
						{
							"internalType": "address[]",
							"name": "",
							"type": "address[]"
						},
						{
							"internalType": "uint256[]",
							"name": "",
							"type": "uint256[]"
						}
					],
					"stateMutability": "view",
					"type": "function"
				},
				{
					"inputs": [
						{
							"internalType": "uint256",
							"name": "",
							"type": "uint256"
						}
					],
					"name": "userAddress",
					"outputs": [
						{
							"internalType": "address",
							"name": "",
							"type": "address"
						}
					],
					"stateMutability": "view",
					"type": "function"
				}
			],
			"devdoc": {
				"kind": "dev",
				"methods": {},
				"version": 1
			},
			"evm": {
				"assembly": "    /* \"contracts/8_mappingTest03.sol\":27:2009  contract test03{... */\n  mstore(0x40, 0x80)\n  callvalue\n  dup1\n  iszero\n  tag_1\n  jumpi\n  0x00\n  dup1\n  revert\ntag_1:\n  pop\n  dataSize(sub_0)\n  dup1\n  dataOffset(sub_0)\n  0x00\n  codecopy\n  0x00\n  return\nstop\n\nsub_0: assembly {\n        /* \"contracts/8_mappingTest03.sol\":27:2009  contract test03{... */\n      mstore(0x40, 0x80)\n      callvalue\n      dup1\n      iszero\n      tag_1\n      jumpi\n      0x00\n      dup1\n      revert\n    tag_1:\n      pop\n      jumpi(tag_2, lt(calldatasize, 0x04))\n      shr(0xe0, calldataload(0x00))\n      dup1\n      0x068dbb24\n      eq\n      tag_3\n      jumpi\n      dup1\n      0x6d763a6e\n      eq\n      tag_4\n      jumpi\n      dup1\n      0x9674a0ac\n      eq\n      tag_5\n      jumpi\n      dup1\n      0xc84aae17\n      eq\n      tag_6\n      jumpi\n    tag_2:\n      0x00\n      dup1\n      revert\n        /* \"contracts/8_mappingTest03.sol\":141:353  function addUserBalance(address newAddress,uint balance)external {... */\n    tag_3:\n      tag_7\n      0x04\n      dup1\n      calldatasize\n      sub\n      dup2\n      add\n      swap1\n      tag_8\n      swap2\n      swap1\n      tag_9\n      jump\t// in\n    tag_8:\n      tag_10\n      jump\t// in\n    tag_7:\n      stop\n        /* \"contracts/8_mappingTest03.sol\":360:516  function getLeaderboard() external view returns (address[] memory, uint256[] memory) {... */\n    tag_4:\n      tag_11\n      tag_12\n      jump\t// in\n    tag_11:\n      mload(0x40)\n      tag_13\n      swap3\n      swap2\n      swap1\n      tag_14\n      jump\t// in\n    tag_13:\n      mload(0x40)\n      dup1\n      swap2\n      sub\n      swap1\n      return\n        /* \"contracts/8_mappingTest03.sol\":51:80  address[] public  userAddress */\n    tag_5:\n      tag_15\n      0x04\n      dup1\n      calldatasize\n      sub\n      dup2\n      add\n      swap1\n      tag_16\n      swap2\n      swap1\n      tag_17\n      jump\t// in\n    tag_16:\n      tag_18\n      jump\t// in\n    tag_15:\n      mload(0x40)\n      tag_19\n      swap2\n      swap1\n      tag_20\n      jump\t// in\n    tag_19:\n      mload(0x40)\n      dup1\n      swap2\n      sub\n      swap1\n      return\n        /* \"contracts/8_mappingTest03.sol\":1613:2006  function getBalances(address user) external view   returns (uint256){... */\n    tag_6:\n      tag_21\n      0x04\n      dup1\n      calldatasize\n      sub\n      dup2\n      add\n      swap1\n      tag_22\n      swap2\n      swap1\n      tag_23\n      jump\t// in\n    tag_22:\n      tag_24\n      jump\t// in\n    tag_21:\n      mload(0x40)\n      tag_25\n      swap2\n      swap1\n      tag_26\n      jump\t// in\n    tag_25:\n      mload(0x40)\n      dup1\n      swap2\n      sub\n      swap1\n      return\n        /* \"contracts/8_mappingTest03.sol\":141:353  function addUserBalance(address newAddress,uint balance)external {... */\n    tag_10:\n        /* \"contracts/8_mappingTest03.sol\":249:250  0 */\n      0x00\n        /* \"contracts/8_mappingTest03.sol\":225:233  balances */\n      0x01\n        /* \"contracts/8_mappingTest03.sol\":225:245  balances[newAddress] */\n      0x00\n        /* \"contracts/8_mappingTest03.sol\":234:244  newAddress */\n      dup5\n        /* \"contracts/8_mappingTest03.sol\":225:245  balances[newAddress] */\n      0xffffffffffffffffffffffffffffffffffffffff\n      and\n      0xffffffffffffffffffffffffffffffffffffffff\n      and\n      dup2\n      mstore\n      0x20\n      add\n      swap1\n      dup2\n      mstore\n      0x20\n      add\n      0x00\n      keccak256\n      sload\n        /* \"contracts/8_mappingTest03.sol\":225:250  balances[newAddress] == 0 */\n      eq\n        /* \"contracts/8_mappingTest03.sol\":217:263  require(balances[newAddress] == 0,\" new user\") */\n      tag_28\n      jumpi\n      mload(0x40)\n      0x08c379a000000000000000000000000000000000000000000000000000000000\n      dup2\n      mstore\n      0x04\n      add\n      tag_29\n      swap1\n      tag_30\n      jump\t// in\n    tag_29:\n      mload(0x40)\n      dup1\n      swap2\n      sub\n      swap1\n      revert\n    tag_28:\n        /* \"contracts/8_mappingTest03.sol\":276:287  userAddress */\n      0x00\n        /* \"contracts/8_mappingTest03.sol\":293:303  newAddress */\n      dup3\n        /* \"contracts/8_mappingTest03.sol\":276:304  userAddress.push(newAddress) */\n      swap1\n      dup1\n      0x01\n      dup2\n      sload\n      add\n      dup1\n      dup3\n      sstore\n      dup1\n      swap2\n      pop\n      pop\n      0x01\n      swap1\n      sub\n      swap1\n      0x00\n      mstore\n      keccak256(0x00, 0x20)\n      add\n      0x00\n      swap1\n      swap2\n      swap1\n      swap2\n      swap1\n      swap2\n      0x0100\n      exp\n      dup2\n      sload\n      dup2\n      0xffffffffffffffffffffffffffffffffffffffff\n      mul\n      not\n      and\n      swap1\n      dup4\n      0xffffffffffffffffffffffffffffffffffffffff\n      and\n      mul\n      or\n      swap1\n      sstore\n      pop\n        /* \"contracts/8_mappingTest03.sol\":338:345  balance */\n      dup1\n        /* \"contracts/8_mappingTest03.sol\":315:323  balances */\n      0x01\n        /* \"contracts/8_mappingTest03.sol\":315:335  balances[newAddress] */\n      0x00\n        /* \"contracts/8_mappingTest03.sol\":324:334  newAddress */\n      dup5\n        /* \"contracts/8_mappingTest03.sol\":315:335  balances[newAddress] */\n      0xffffffffffffffffffffffffffffffffffffffff\n      and\n      0xffffffffffffffffffffffffffffffffffffffff\n      and\n      dup2\n      mstore\n      0x20\n      add\n      swap1\n      dup2\n      mstore\n      0x20\n      add\n      0x00\n      keccak256\n        /* \"contracts/8_mappingTest03.sol\":315:345  balances[newAddress] = balance */\n      dup2\n      swap1\n      sstore\n      pop\n        /* \"contracts/8_mappingTest03.sol\":141:353  function addUserBalance(address newAddress,uint balance)external {... */\n      pop\n      pop\n      jump\t// out\n        /* \"contracts/8_mappingTest03.sol\":360:516  function getLeaderboard() external view returns (address[] memory, uint256[] memory) {... */\n    tag_12:\n        /* \"contracts/8_mappingTest03.sol\":409:425  address[] memory */\n      0x60\n        /* \"contracts/8_mappingTest03.sol\":427:443  uint256[] memory */\n      dup1\n        /* \"contracts/8_mappingTest03.sol\":463:486  sortAllUserAndBalance() */\n      tag_33\n        /* \"contracts/8_mappingTest03.sol\":463:484  sortAllUserAndBalance */\n      tag_34\n        /* \"contracts/8_mappingTest03.sol\":463:486  sortAllUserAndBalance() */\n      jump\t// in\n    tag_33:\n        /* \"contracts/8_mappingTest03.sol\":456:486  return sortAllUserAndBalance() */\n      swap2\n      pop\n      swap2\n      pop\n        /* \"contracts/8_mappingTest03.sol\":360:516  function getLeaderboard() external view returns (address[] memory, uint256[] memory) {... */\n      swap1\n      swap2\n      jump\t// out\n        /* \"contracts/8_mappingTest03.sol\":51:80  address[] public  userAddress */\n    tag_18:\n      0x00\n      dup2\n      dup2\n      sload\n      dup2\n      lt\n      tag_35\n      jumpi\n      0x00\n      dup1\n      revert\n    tag_35:\n      swap1\n      0x00\n      mstore\n      keccak256(0x00, 0x20)\n      add\n      0x00\n      swap2\n      pop\n      sload\n      swap1\n      0x0100\n      exp\n      swap1\n      div\n      0xffffffffffffffffffffffffffffffffffffffff\n      and\n      dup2\n      jump\t// out\n        /* \"contracts/8_mappingTest03.sol\":1613:2006  function getBalances(address user) external view   returns (uint256){... */\n    tag_24:\n        /* \"contracts/8_mappingTest03.sol\":1673:1680  uint256 */\n      0x00\n        /* \"contracts/8_mappingTest03.sol\":1697:1729  address[] memory sortUserAddress */\n      dup1\n        /* \"contracts/8_mappingTest03.sol\":1730:1758  uint256[] memory sortBalance */\n      0x00\n        /* \"contracts/8_mappingTest03.sol\":1760:1783  sortAllUserAndBalance() */\n      tag_38\n        /* \"contracts/8_mappingTest03.sol\":1760:1781  sortAllUserAndBalance */\n      tag_34\n        /* \"contracts/8_mappingTest03.sol\":1760:1783  sortAllUserAndBalance() */\n      jump\t// in\n    tag_38:\n        /* \"contracts/8_mappingTest03.sol\":1696:1783  (address[] memory sortUserAddress,uint256[] memory sortBalance)=sortAllUserAndBalance() */\n      swap2\n      pop\n      swap2\n      pop\n        /* \"contracts/8_mappingTest03.sol\":1816:1825  uint256 i */\n      0x00\n        /* \"contracts/8_mappingTest03.sol\":1812:1976  for(uint256 i =0; i<sortUserAddress.length;i++){... */\n    tag_39:\n        /* \"contracts/8_mappingTest03.sol\":1832:1847  sortUserAddress */\n      dup3\n        /* \"contracts/8_mappingTest03.sol\":1832:1854  sortUserAddress.length */\n      mload\n        /* \"contracts/8_mappingTest03.sol\":1830:1831  i */\n      dup2\n        /* \"contracts/8_mappingTest03.sol\":1830:1854  i<sortUserAddress.length */\n      lt\n        /* \"contracts/8_mappingTest03.sol\":1812:1976  for(uint256 i =0; i<sortUserAddress.length;i++){... */\n      iszero\n      tag_40\n      jumpi\n        /* \"contracts/8_mappingTest03.sol\":1889:1904  sortUserAddress */\n      dup3\n        /* \"contracts/8_mappingTest03.sol\":1905:1906  i */\n      dup2\n        /* \"contracts/8_mappingTest03.sol\":1889:1907  sortUserAddress[i] */\n      dup2\n      mload\n      dup2\n      lt\n      tag_42\n      jumpi\n      tag_43\n      tag_44\n      jump\t// in\n    tag_43:\n    tag_42:\n      0x20\n      mul\n      0x20\n      add\n      add\n      mload\n        /* \"contracts/8_mappingTest03.sol\":1881:1907  user == sortUserAddress[i] */\n      0xffffffffffffffffffffffffffffffffffffffff\n      and\n        /* \"contracts/8_mappingTest03.sol\":1881:1885  user */\n      dup6\n        /* \"contracts/8_mappingTest03.sol\":1881:1907  user == sortUserAddress[i] */\n      0xffffffffffffffffffffffffffffffffffffffff\n      and\n      sub\n        /* \"contracts/8_mappingTest03.sol\":1877:1961  if (user == sortUserAddress[i]){... */\n      tag_45\n      jumpi\n        /* \"contracts/8_mappingTest03.sol\":1940:1941  1 */\n      0x01\n        /* \"contracts/8_mappingTest03.sol\":1938:1939  i */\n      dup2\n        /* \"contracts/8_mappingTest03.sol\":1938:1941  i+1 */\n      tag_46\n      swap2\n      swap1\n      tag_47\n      jump\t// in\n    tag_46:\n        /* \"contracts/8_mappingTest03.sol\":1931:1941  return i+1 */\n      swap4\n      pop\n      pop\n      pop\n      pop\n      jump(tag_37)\n        /* \"contracts/8_mappingTest03.sol\":1877:1961  if (user == sortUserAddress[i]){... */\n    tag_45:\n        /* \"contracts/8_mappingTest03.sol\":1855:1858  i++ */\n      dup1\n      dup1\n      0x01\n      add\n      swap2\n      pop\n      pop\n        /* \"contracts/8_mappingTest03.sol\":1812:1976  for(uint256 i =0; i<sortUserAddress.length;i++){... */\n      jump(tag_39)\n    tag_40:\n      pop\n        /* \"contracts/8_mappingTest03.sol\":1997:1998  0 */\n      0x00\n        /* \"contracts/8_mappingTest03.sol\":1990:1998  return 0 */\n      swap3\n      pop\n      pop\n      pop\n        /* \"contracts/8_mappingTest03.sol\":1613:2006  function getBalances(address user) external view   returns (uint256){... */\n    tag_37:\n      swap2\n      swap1\n      pop\n      jump\t// out\n        /* \"contracts/8_mappingTest03.sol\":578:1603  function sortAllUserAndBalance() internal view returns (address[] memory, uint256[] memory) {... */\n    tag_34:\n        /* \"contracts/8_mappingTest03.sol\":634:650  address[] memory */\n      0x60\n        /* \"contracts/8_mappingTest03.sol\":652:668  uint256[] memory */\n      dup1\n        /* \"contracts/8_mappingTest03.sol\":681:713  address[] memory sortUserAddress */\n      0x00\n        /* \"contracts/8_mappingTest03.sol\":716:727  userAddress */\n      dup1\n        /* \"contracts/8_mappingTest03.sol\":681:727  address[] memory sortUserAddress = userAddress */\n      dup1\n      sload\n      dup1\n      0x20\n      mul\n      0x20\n      add\n      mload(0x40)\n      swap1\n      dup2\n      add\n      0x40\n      mstore\n      dup1\n      swap3\n      swap2\n      swap1\n      dup2\n      dup2\n      mstore\n      0x20\n      add\n      dup3\n      dup1\n      sload\n      dup1\n      iszero\n      tag_49\n      jumpi\n      0x20\n      mul\n      dup3\n      add\n      swap2\n      swap1\n      0x00\n      mstore\n      keccak256(0x00, 0x20)\n      swap1\n    tag_50:\n      dup2\n      0x00\n      swap1\n      sload\n      swap1\n      0x0100\n      exp\n      swap1\n      div\n      0xffffffffffffffffffffffffffffffffffffffff\n      and\n      0xffffffffffffffffffffffffffffffffffffffff\n      and\n      dup2\n      mstore\n      0x20\n      add\n      swap1\n      0x01\n      add\n      swap1\n      dup1\n      dup4\n      gt\n      tag_50\n      jumpi\n    tag_49:\n      pop\n      pop\n      pop\n      pop\n      pop\n      swap1\n      pop\n        /* \"contracts/8_mappingTest03.sol\":738:766  uint256[] memory sortBalance */\n      0x00\n        /* \"contracts/8_mappingTest03.sol\":783:798  sortUserAddress */\n      dup2\n        /* \"contracts/8_mappingTest03.sol\":783:805  sortUserAddress.length */\n      mload\n        /* \"contracts/8_mappingTest03.sol\":769:806  new uint256[](sortUserAddress.length) */\n      0xffffffffffffffff\n      dup2\n      gt\n      iszero\n      tag_51\n      jumpi\n      tag_52\n      tag_53\n      jump\t// in\n    tag_52:\n    tag_51:\n      mload(0x40)\n      swap1\n      dup1\n      dup3\n      mstore\n      dup1\n      0x20\n      mul\n      0x20\n      add\n      dup3\n      add\n      0x40\n      mstore\n      dup1\n      iszero\n      tag_54\n      jumpi\n      dup2\n      0x20\n      add\n      0x20\n      dup3\n      mul\n      dup1\n      calldatasize\n      dup4\n      calldatacopy\n      dup1\n      dup3\n      add\n      swap2\n      pop\n      pop\n      swap1\n      pop\n    tag_54:\n      pop\n        /* \"contracts/8_mappingTest03.sol\":738:806  uint256[] memory sortBalance = new uint256[](sortUserAddress.length) */\n      swap1\n      pop\n        /* \"contracts/8_mappingTest03.sol\":864:873  uint256 i */\n      0x00\n        /* \"contracts/8_mappingTest03.sol\":859:984  for (uint256 i = 0; i < sortUserAddress.length; i++) {... */\n    tag_55:\n        /* \"contracts/8_mappingTest03.sol\":883:898  sortUserAddress */\n      dup3\n        /* \"contracts/8_mappingTest03.sol\":883:905  sortUserAddress.length */\n      mload\n        /* \"contracts/8_mappingTest03.sol\":879:880  i */\n      dup2\n        /* \"contracts/8_mappingTest03.sol\":879:905  i < sortUserAddress.length */\n      lt\n        /* \"contracts/8_mappingTest03.sol\":859:984  for (uint256 i = 0; i < sortUserAddress.length; i++) {... */\n      iszero\n      tag_56\n      jumpi\n        /* \"contracts/8_mappingTest03.sol\":944:952  balances */\n      0x01\n        /* \"contracts/8_mappingTest03.sol\":944:972  balances[sortUserAddress[i]] */\n      0x00\n        /* \"contracts/8_mappingTest03.sol\":953:968  sortUserAddress */\n      dup5\n        /* \"contracts/8_mappingTest03.sol\":969:970  i */\n      dup4\n        /* \"contracts/8_mappingTest03.sol\":953:971  sortUserAddress[i] */\n      dup2\n      mload\n      dup2\n      lt\n      tag_58\n      jumpi\n      tag_59\n      tag_44\n      jump\t// in\n    tag_59:\n    tag_58:\n      0x20\n      mul\n      0x20\n      add\n      add\n      mload\n        /* \"contracts/8_mappingTest03.sol\":944:972  balances[sortUserAddress[i]] */\n      0xffffffffffffffffffffffffffffffffffffffff\n      and\n      0xffffffffffffffffffffffffffffffffffffffff\n      and\n      dup2\n      mstore\n      0x20\n      add\n      swap1\n      dup2\n      mstore\n      0x20\n      add\n      0x00\n      keccak256\n      sload\n        /* \"contracts/8_mappingTest03.sol\":927:938  sortBalance */\n      dup3\n        /* \"contracts/8_mappingTest03.sol\":939:940  i */\n      dup3\n        /* \"contracts/8_mappingTest03.sol\":927:941  sortBalance[i] */\n      dup2\n      mload\n      dup2\n      lt\n      tag_60\n      jumpi\n      tag_61\n      tag_44\n      jump\t// in\n    tag_61:\n    tag_60:\n      0x20\n      mul\n      0x20\n      add\n      add\n        /* \"contracts/8_mappingTest03.sol\":927:972  sortBalance[i] = balances[sortUserAddress[i]] */\n      dup2\n      dup2\n      mstore\n      pop\n      pop\n        /* \"contracts/8_mappingTest03.sol\":907:910  i++ */\n      dup1\n      dup1\n      0x01\n      add\n      swap2\n      pop\n      pop\n        /* \"contracts/8_mappingTest03.sol\":859:984  for (uint256 i = 0; i < sortUserAddress.length; i++) {... */\n      jump(tag_55)\n    tag_56:\n      pop\n        /* \"contracts/8_mappingTest03.sol\":1026:1035  uint256 i */\n      0x00\n        /* \"contracts/8_mappingTest03.sol\":1021:1546  for (uint256 i = 0; i < sortUserAddress.length - 1; i++) {... */\n    tag_62:\n        /* \"contracts/8_mappingTest03.sol\":1070:1071  1 */\n      0x01\n        /* \"contracts/8_mappingTest03.sol\":1045:1060  sortUserAddress */\n      dup4\n        /* \"contracts/8_mappingTest03.sol\":1045:1067  sortUserAddress.length */\n      mload\n        /* \"contracts/8_mappingTest03.sol\":1045:1071  sortUserAddress.length - 1 */\n      tag_65\n      swap2\n      swap1\n      tag_66\n      jump\t// in\n    tag_65:\n        /* \"contracts/8_mappingTest03.sol\":1041:1042  i */\n      dup2\n        /* \"contracts/8_mappingTest03.sol\":1041:1071  i < sortUserAddress.length - 1 */\n      lt\n        /* \"contracts/8_mappingTest03.sol\":1021:1546  for (uint256 i = 0; i < sortUserAddress.length - 1; i++) {... */\n      iszero\n      tag_63\n      jumpi\n        /* \"contracts/8_mappingTest03.sol\":1098:1107  uint256 j */\n      0x00\n        /* \"contracts/8_mappingTest03.sol\":1093:1535  for (uint256 j = 0; j < sortUserAddress.length - i - 1; j++) {... */\n    tag_67:\n        /* \"contracts/8_mappingTest03.sol\":1146:1147  1 */\n      0x01\n        /* \"contracts/8_mappingTest03.sol\":1142:1143  i */\n      dup3\n        /* \"contracts/8_mappingTest03.sol\":1117:1132  sortUserAddress */\n      dup6\n        /* \"contracts/8_mappingTest03.sol\":1117:1139  sortUserAddress.length */\n      mload\n        /* \"contracts/8_mappingTest03.sol\":1117:1143  sortUserAddress.length - i */\n      tag_70\n      swap2\n      swap1\n      tag_66\n      jump\t// in\n    tag_70:\n        /* \"contracts/8_mappingTest03.sol\":1117:1147  sortUserAddress.length - i - 1 */\n      tag_71\n      swap2\n      swap1\n      tag_66\n      jump\t// in\n    tag_71:\n        /* \"contracts/8_mappingTest03.sol\":1113:1114  j */\n      dup2\n        /* \"contracts/8_mappingTest03.sol\":1113:1147  j < sortUserAddress.length - i - 1 */\n      lt\n        /* \"contracts/8_mappingTest03.sol\":1093:1535  for (uint256 j = 0; j < sortUserAddress.length - i - 1; j++) {... */\n      iszero\n      tag_68\n      jumpi\n        /* \"contracts/8_mappingTest03.sol\":1194:1205  sortBalance */\n      dup3\n        /* \"contracts/8_mappingTest03.sol\":1210:1211  1 */\n      0x01\n        /* \"contracts/8_mappingTest03.sol\":1206:1207  j */\n      dup3\n        /* \"contracts/8_mappingTest03.sol\":1206:1211  j + 1 */\n      tag_72\n      swap2\n      swap1\n      tag_47\n      jump\t// in\n    tag_72:\n        /* \"contracts/8_mappingTest03.sol\":1194:1212  sortBalance[j + 1] */\n      dup2\n      mload\n      dup2\n      lt\n      tag_73\n      jumpi\n      tag_74\n      tag_44\n      jump\t// in\n    tag_74:\n    tag_73:\n      0x20\n      mul\n      0x20\n      add\n      add\n      mload\n        /* \"contracts/8_mappingTest03.sol\":1177:1188  sortBalance */\n      dup4\n        /* \"contracts/8_mappingTest03.sol\":1189:1190  j */\n      dup3\n        /* \"contracts/8_mappingTest03.sol\":1177:1191  sortBalance[j] */\n      dup2\n      mload\n      dup2\n      lt\n      tag_75\n      jumpi\n      tag_76\n      tag_44\n      jump\t// in\n    tag_76:\n    tag_75:\n      0x20\n      mul\n      0x20\n      add\n      add\n      mload\n        /* \"contracts/8_mappingTest03.sol\":1177:1212  sortBalance[j] > sortBalance[j + 1] */\n      gt\n        /* \"contracts/8_mappingTest03.sol\":1173:1520  if (sortBalance[j] > sortBalance[j + 1]) {... */\n      iszero\n      tag_77\n      jumpi\n        /* \"contracts/8_mappingTest03.sol\":1314:1325  sortBalance */\n      dup3\n        /* \"contracts/8_mappingTest03.sol\":1330:1331  1 */\n      0x01\n        /* \"contracts/8_mappingTest03.sol\":1326:1327  j */\n      dup3\n        /* \"contracts/8_mappingTest03.sol\":1326:1331  j + 1 */\n      tag_78\n      swap2\n      swap1\n      tag_47\n      jump\t// in\n    tag_78:\n        /* \"contracts/8_mappingTest03.sol\":1314:1332  sortBalance[j + 1] */\n      dup2\n      mload\n      dup2\n      lt\n      tag_79\n      jumpi\n      tag_80\n      tag_44\n      jump\t// in\n    tag_80:\n    tag_79:\n      0x20\n      mul\n      0x20\n      add\n      add\n      mload\n        /* \"contracts/8_mappingTest03.sol\":1334:1345  sortBalance */\n      dup4\n        /* \"contracts/8_mappingTest03.sol\":1346:1347  j */\n      dup3\n        /* \"contracts/8_mappingTest03.sol\":1334:1348  sortBalance[j] */\n      dup2\n      mload\n      dup2\n      lt\n      tag_81\n      jumpi\n      tag_82\n      tag_44\n      jump\t// in\n    tag_82:\n    tag_81:\n      0x20\n      mul\n      0x20\n      add\n      add\n      mload\n        /* \"contracts/8_mappingTest03.sol\":1275:1286  sortBalance */\n      dup5\n        /* \"contracts/8_mappingTest03.sol\":1287:1288  j */\n      dup4\n        /* \"contracts/8_mappingTest03.sol\":1275:1289  sortBalance[j] */\n      dup2\n      mload\n      dup2\n      lt\n      tag_83\n      jumpi\n      tag_84\n      tag_44\n      jump\t// in\n    tag_84:\n    tag_83:\n      0x20\n      mul\n      0x20\n      add\n      add\n        /* \"contracts/8_mappingTest03.sol\":1291:1302  sortBalance */\n      dup6\n        /* \"contracts/8_mappingTest03.sol\":1307:1308  1 */\n      0x01\n        /* \"contracts/8_mappingTest03.sol\":1303:1304  j */\n      dup6\n        /* \"contracts/8_mappingTest03.sol\":1303:1308  j + 1 */\n      tag_85\n      swap2\n      swap1\n      tag_47\n      jump\t// in\n    tag_85:\n        /* \"contracts/8_mappingTest03.sol\":1291:1309  sortBalance[j + 1] */\n      dup2\n      mload\n      dup2\n      lt\n      tag_86\n      jumpi\n      tag_87\n      tag_44\n      jump\t// in\n    tag_87:\n    tag_86:\n      0x20\n      mul\n      0x20\n      add\n      add\n        /* \"contracts/8_mappingTest03.sol\":1274:1349  (sortBalance[j], sortBalance[j + 1]) = (sortBalance[j + 1], sortBalance[j]) */\n      dup3\n      dup2\n      mstore\n      pop\n      dup3\n      dup2\n      mstore\n      pop\n      pop\n      pop\n        /* \"contracts/8_mappingTest03.sol\":1457:1472  sortUserAddress */\n      dup4\n        /* \"contracts/8_mappingTest03.sol\":1477:1478  1 */\n      0x01\n        /* \"contracts/8_mappingTest03.sol\":1473:1474  j */\n      dup3\n        /* \"contracts/8_mappingTest03.sol\":1473:1478  j + 1 */\n      tag_88\n      swap2\n      swap1\n      tag_47\n      jump\t// in\n    tag_88:\n        /* \"contracts/8_mappingTest03.sol\":1457:1479  sortUserAddress[j + 1] */\n      dup2\n      mload\n      dup2\n      lt\n      tag_89\n      jumpi\n      tag_90\n      tag_44\n      jump\t// in\n    tag_90:\n    tag_89:\n      0x20\n      mul\n      0x20\n      add\n      add\n      mload\n        /* \"contracts/8_mappingTest03.sol\":1481:1496  sortUserAddress */\n      dup5\n        /* \"contracts/8_mappingTest03.sol\":1497:1498  j */\n      dup3\n        /* \"contracts/8_mappingTest03.sol\":1481:1499  sortUserAddress[j] */\n      dup2\n      mload\n      dup2\n      lt\n      tag_91\n      jumpi\n      tag_92\n      tag_44\n      jump\t// in\n    tag_92:\n    tag_91:\n      0x20\n      mul\n      0x20\n      add\n      add\n      mload\n        /* \"contracts/8_mappingTest03.sol\":1410:1425  sortUserAddress */\n      dup6\n        /* \"contracts/8_mappingTest03.sol\":1426:1427  j */\n      dup4\n        /* \"contracts/8_mappingTest03.sol\":1410:1428  sortUserAddress[j] */\n      dup2\n      mload\n      dup2\n      lt\n      tag_93\n      jumpi\n      tag_94\n      tag_44\n      jump\t// in\n    tag_94:\n    tag_93:\n      0x20\n      mul\n      0x20\n      add\n      add\n        /* \"contracts/8_mappingTest03.sol\":1430:1445  sortUserAddress */\n      dup7\n        /* \"contracts/8_mappingTest03.sol\":1450:1451  1 */\n      0x01\n        /* \"contracts/8_mappingTest03.sol\":1446:1447  j */\n      dup6\n        /* \"contracts/8_mappingTest03.sol\":1446:1451  j + 1 */\n      tag_95\n      swap2\n      swap1\n      tag_47\n      jump\t// in\n    tag_95:\n        /* \"contracts/8_mappingTest03.sol\":1430:1452  sortUserAddress[j + 1] */\n      dup2\n      mload\n      dup2\n      lt\n      tag_96\n      jumpi\n      tag_97\n      tag_44\n      jump\t// in\n    tag_97:\n    tag_96:\n      0x20\n      mul\n      0x20\n      add\n      add\n        /* \"contracts/8_mappingTest03.sol\":1409:1500  (sortUserAddress[j], sortUserAddress[j + 1]) = (sortUserAddress[j + 1], sortUserAddress[j]) */\n      dup3\n      0xffffffffffffffffffffffffffffffffffffffff\n      and\n      0xffffffffffffffffffffffffffffffffffffffff\n      and\n      dup2\n      mstore\n      pop\n      dup3\n      0xffffffffffffffffffffffffffffffffffffffff\n      and\n      0xffffffffffffffffffffffffffffffffffffffff\n      and\n      dup2\n      mstore\n      pop\n      pop\n      pop\n        /* \"contracts/8_mappingTest03.sol\":1173:1520  if (sortBalance[j] > sortBalance[j + 1]) {... */\n    tag_77:\n        /* \"contracts/8_mappingTest03.sol\":1149:1152  j++ */\n      dup1\n      dup1\n      0x01\n      add\n      swap2\n      pop\n      pop\n        /* \"contracts/8_mappingTest03.sol\":1093:1535  for (uint256 j = 0; j < sortUserAddress.length - i - 1; j++) {... */\n      jump(tag_67)\n    tag_68:\n      pop\n        /* \"contracts/8_mappingTest03.sol\":1073:1076  i++ */\n      dup1\n      dup1\n      0x01\n      add\n      swap2\n      pop\n      pop\n        /* \"contracts/8_mappingTest03.sol\":1021:1546  for (uint256 i = 0; i < sortUserAddress.length - 1; i++) {... */\n      jump(tag_62)\n    tag_63:\n      pop\n        /* \"contracts/8_mappingTest03.sol\":1566:1581  sortUserAddress */\n      dup2\n        /* \"contracts/8_mappingTest03.sol\":1583:1594  sortBalance */\n      dup2\n        /* \"contracts/8_mappingTest03.sol\":1558:1595  return (sortUserAddress, sortBalance) */\n      swap4\n      pop\n      swap4\n      pop\n      pop\n      pop\n        /* \"contracts/8_mappingTest03.sol\":578:1603  function sortAllUserAndBalance() internal view returns (address[] memory, uint256[] memory) {... */\n      swap1\n      swap2\n      jump\t// out\n        /* \"#utility.yul\":88:205   */\n    tag_99:\n        /* \"#utility.yul\":197:198   */\n      0x00\n        /* \"#utility.yul\":194:195   */\n      dup1\n        /* \"#utility.yul\":187:199   */\n      revert\n        /* \"#utility.yul\":334:460   */\n    tag_101:\n        /* \"#utility.yul\":371:378   */\n      0x00\n        /* \"#utility.yul\":411:453   */\n      0xffffffffffffffffffffffffffffffffffffffff\n        /* \"#utility.yul\":404:409   */\n      dup3\n        /* \"#utility.yul\":400:454   */\n      and\n        /* \"#utility.yul\":389:454   */\n      swap1\n      pop\n        /* \"#utility.yul\":334:460   */\n      swap2\n      swap1\n      pop\n      jump\t// out\n        /* \"#utility.yul\":466:562   */\n    tag_102:\n        /* \"#utility.yul\":503:510   */\n      0x00\n        /* \"#utility.yul\":532:556   */\n      tag_134\n        /* \"#utility.yul\":550:555   */\n      dup3\n        /* \"#utility.yul\":532:556   */\n      tag_101\n      jump\t// in\n    tag_134:\n        /* \"#utility.yul\":521:556   */\n      swap1\n      pop\n        /* \"#utility.yul\":466:562   */\n      swap2\n      swap1\n      pop\n      jump\t// out\n        /* \"#utility.yul\":568:690   */\n    tag_103:\n        /* \"#utility.yul\":641:665   */\n      tag_136\n        /* \"#utility.yul\":659:664   */\n      dup2\n        /* \"#utility.yul\":641:665   */\n      tag_102\n      jump\t// in\n    tag_136:\n        /* \"#utility.yul\":634:639   */\n      dup2\n        /* \"#utility.yul\":631:666   */\n      eq\n        /* \"#utility.yul\":621:684   */\n      tag_137\n      jumpi\n        /* \"#utility.yul\":680:681   */\n      0x00\n        /* \"#utility.yul\":677:678   */\n      dup1\n        /* \"#utility.yul\":670:682   */\n      revert\n        /* \"#utility.yul\":621:684   */\n    tag_137:\n        /* \"#utility.yul\":568:690   */\n      pop\n      jump\t// out\n        /* \"#utility.yul\":696:835   */\n    tag_104:\n        /* \"#utility.yul\":742:747   */\n      0x00\n        /* \"#utility.yul\":780:786   */\n      dup2\n        /* \"#utility.yul\":767:787   */\n      calldataload\n        /* \"#utility.yul\":758:787   */\n      swap1\n      pop\n        /* \"#utility.yul\":796:829   */\n      tag_139\n        /* \"#utility.yul\":823:828   */\n      dup2\n        /* \"#utility.yul\":796:829   */\n      tag_103\n      jump\t// in\n    tag_139:\n        /* \"#utility.yul\":696:835   */\n      swap3\n      swap2\n      pop\n      pop\n      jump\t// out\n        /* \"#utility.yul\":841:918   */\n    tag_105:\n        /* \"#utility.yul\":878:885   */\n      0x00\n        /* \"#utility.yul\":907:912   */\n      dup2\n        /* \"#utility.yul\":896:912   */\n      swap1\n      pop\n        /* \"#utility.yul\":841:918   */\n      swap2\n      swap1\n      pop\n      jump\t// out\n        /* \"#utility.yul\":924:1046   */\n    tag_106:\n        /* \"#utility.yul\":997:1021   */\n      tag_142\n        /* \"#utility.yul\":1015:1020   */\n      dup2\n        /* \"#utility.yul\":997:1021   */\n      tag_105\n      jump\t// in\n    tag_142:\n        /* \"#utility.yul\":990:995   */\n      dup2\n        /* \"#utility.yul\":987:1022   */\n      eq\n        /* \"#utility.yul\":977:1040   */\n      tag_143\n      jumpi\n        /* \"#utility.yul\":1036:1037   */\n      0x00\n        /* \"#utility.yul\":1033:1034   */\n      dup1\n        /* \"#utility.yul\":1026:1038   */\n      revert\n        /* \"#utility.yul\":977:1040   */\n    tag_143:\n        /* \"#utility.yul\":924:1046   */\n      pop\n      jump\t// out\n        /* \"#utility.yul\":1052:1191   */\n    tag_107:\n        /* \"#utility.yul\":1098:1103   */\n      0x00\n        /* \"#utility.yul\":1136:1142   */\n      dup2\n        /* \"#utility.yul\":1123:1143   */\n      calldataload\n        /* \"#utility.yul\":1114:1143   */\n      swap1\n      pop\n        /* \"#utility.yul\":1152:1185   */\n      tag_145\n        /* \"#utility.yul\":1179:1184   */\n      dup2\n        /* \"#utility.yul\":1152:1185   */\n      tag_106\n      jump\t// in\n    tag_145:\n        /* \"#utility.yul\":1052:1191   */\n      swap3\n      swap2\n      pop\n      pop\n      jump\t// out\n        /* \"#utility.yul\":1197:1671   */\n    tag_9:\n        /* \"#utility.yul\":1265:1271   */\n      0x00\n        /* \"#utility.yul\":1273:1279   */\n      dup1\n        /* \"#utility.yul\":1322:1324   */\n      0x40\n        /* \"#utility.yul\":1310:1319   */\n      dup4\n        /* \"#utility.yul\":1301:1308   */\n      dup6\n        /* \"#utility.yul\":1297:1320   */\n      sub\n        /* \"#utility.yul\":1293:1325   */\n      slt\n        /* \"#utility.yul\":1290:1409   */\n      iszero\n      tag_147\n      jumpi\n        /* \"#utility.yul\":1328:1407   */\n      tag_148\n      tag_99\n      jump\t// in\n    tag_148:\n        /* \"#utility.yul\":1290:1409   */\n    tag_147:\n        /* \"#utility.yul\":1448:1449   */\n      0x00\n        /* \"#utility.yul\":1473:1526   */\n      tag_149\n        /* \"#utility.yul\":1518:1525   */\n      dup6\n        /* \"#utility.yul\":1509:1515   */\n      dup3\n        /* \"#utility.yul\":1498:1507   */\n      dup7\n        /* \"#utility.yul\":1494:1516   */\n      add\n        /* \"#utility.yul\":1473:1526   */\n      tag_104\n      jump\t// in\n    tag_149:\n        /* \"#utility.yul\":1463:1526   */\n      swap3\n      pop\n        /* \"#utility.yul\":1419:1536   */\n      pop\n        /* \"#utility.yul\":1575:1577   */\n      0x20\n        /* \"#utility.yul\":1601:1654   */\n      tag_150\n        /* \"#utility.yul\":1646:1653   */\n      dup6\n        /* \"#utility.yul\":1637:1643   */\n      dup3\n        /* \"#utility.yul\":1626:1635   */\n      dup7\n        /* \"#utility.yul\":1622:1644   */\n      add\n        /* \"#utility.yul\":1601:1654   */\n      tag_107\n      jump\t// in\n    tag_150:\n        /* \"#utility.yul\":1591:1654   */\n      swap2\n      pop\n        /* \"#utility.yul\":1546:1664   */\n      pop\n        /* \"#utility.yul\":1197:1671   */\n      swap3\n      pop\n      swap3\n      swap1\n      pop\n      jump\t// out\n        /* \"#utility.yul\":1677:1791   */\n    tag_108:\n        /* \"#utility.yul\":1744:1750   */\n      0x00\n        /* \"#utility.yul\":1778:1783   */\n      dup2\n        /* \"#utility.yul\":1772:1784   */\n      mload\n        /* \"#utility.yul\":1762:1784   */\n      swap1\n      pop\n        /* \"#utility.yul\":1677:1791   */\n      swap2\n      swap1\n      pop\n      jump\t// out\n        /* \"#utility.yul\":1797:1981   */\n    tag_109:\n        /* \"#utility.yul\":1896:1907   */\n      0x00\n        /* \"#utility.yul\":1930:1936   */\n      dup3\n        /* \"#utility.yul\":1925:1928   */\n      dup3\n        /* \"#utility.yul\":1918:1937   */\n      mstore\n        /* \"#utility.yul\":1970:1974   */\n      0x20\n        /* \"#utility.yul\":1965:1968   */\n      dup3\n        /* \"#utility.yul\":1961:1975   */\n      add\n        /* \"#utility.yul\":1946:1975   */\n      swap1\n      pop\n        /* \"#utility.yul\":1797:1981   */\n      swap3\n      swap2\n      pop\n      pop\n      jump\t// out\n        /* \"#utility.yul\":1987:2119   */\n    tag_110:\n        /* \"#utility.yul\":2054:2058   */\n      0x00\n        /* \"#utility.yul\":2077:2080   */\n      dup2\n        /* \"#utility.yul\":2069:2080   */\n      swap1\n      pop\n        /* \"#utility.yul\":2107:2111   */\n      0x20\n        /* \"#utility.yul\":2102:2105   */\n      dup3\n        /* \"#utility.yul\":2098:2112   */\n      add\n        /* \"#utility.yul\":2090:2112   */\n      swap1\n      pop\n        /* \"#utility.yul\":1987:2119   */\n      swap2\n      swap1\n      pop\n      jump\t// out\n        /* \"#utility.yul\":2125:2233   */\n    tag_111:\n        /* \"#utility.yul\":2202:2226   */\n      tag_155\n        /* \"#utility.yul\":2220:2225   */\n      dup2\n        /* \"#utility.yul\":2202:2226   */\n      tag_102\n      jump\t// in\n    tag_155:\n        /* \"#utility.yul\":2197:2200   */\n      dup3\n        /* \"#utility.yul\":2190:2227   */\n      mstore\n        /* \"#utility.yul\":2125:2233   */\n      pop\n      pop\n      jump\t// out\n        /* \"#utility.yul\":2239:2418   */\n    tag_112:\n        /* \"#utility.yul\":2308:2318   */\n      0x00\n        /* \"#utility.yul\":2329:2375   */\n      tag_157\n        /* \"#utility.yul\":2371:2374   */\n      dup4\n        /* \"#utility.yul\":2363:2369   */\n      dup4\n        /* \"#utility.yul\":2329:2375   */\n      tag_111\n      jump\t// in\n    tag_157:\n        /* \"#utility.yul\":2407:2411   */\n      0x20\n        /* \"#utility.yul\":2402:2405   */\n      dup4\n        /* \"#utility.yul\":2398:2412   */\n      add\n        /* \"#utility.yul\":2384:2412   */\n      swap1\n      pop\n        /* \"#utility.yul\":2239:2418   */\n      swap3\n      swap2\n      pop\n      pop\n      jump\t// out\n        /* \"#utility.yul\":2424:2537   */\n    tag_113:\n        /* \"#utility.yul\":2494:2498   */\n      0x00\n        /* \"#utility.yul\":2526:2530   */\n      0x20\n        /* \"#utility.yul\":2521:2524   */\n      dup3\n        /* \"#utility.yul\":2517:2531   */\n      add\n        /* \"#utility.yul\":2509:2531   */\n      swap1\n      pop\n        /* \"#utility.yul\":2424:2537   */\n      swap2\n      swap1\n      pop\n      jump\t// out\n        /* \"#utility.yul\":2573:3305   */\n    tag_114:\n        /* \"#utility.yul\":2692:2695   */\n      0x00\n        /* \"#utility.yul\":2721:2775   */\n      tag_160\n        /* \"#utility.yul\":2769:2774   */\n      dup3\n        /* \"#utility.yul\":2721:2775   */\n      tag_108\n      jump\t// in\n    tag_160:\n        /* \"#utility.yul\":2791:2877   */\n      tag_161\n        /* \"#utility.yul\":2870:2876   */\n      dup2\n        /* \"#utility.yul\":2865:2868   */\n      dup6\n        /* \"#utility.yul\":2791:2877   */\n      tag_109\n      jump\t// in\n    tag_161:\n        /* \"#utility.yul\":2784:2877   */\n      swap4\n      pop\n        /* \"#utility.yul\":2901:2957   */\n      tag_162\n        /* \"#utility.yul\":2951:2956   */\n      dup4\n        /* \"#utility.yul\":2901:2957   */\n      tag_110\n      jump\t// in\n    tag_162:\n        /* \"#utility.yul\":2980:2987   */\n      dup1\n        /* \"#utility.yul\":3011:3012   */\n      0x00\n        /* \"#utility.yul\":2996:3280   */\n    tag_163:\n        /* \"#utility.yul\":3021:3027   */\n      dup4\n        /* \"#utility.yul\":3018:3019   */\n      dup2\n        /* \"#utility.yul\":3015:3028   */\n      lt\n        /* \"#utility.yul\":2996:3280   */\n      iszero\n      tag_165\n      jumpi\n        /* \"#utility.yul\":3097:3103   */\n      dup2\n        /* \"#utility.yul\":3091:3104   */\n      mload\n        /* \"#utility.yul\":3124:3187   */\n      tag_166\n        /* \"#utility.yul\":3183:3186   */\n      dup9\n        /* \"#utility.yul\":3168:3181   */\n      dup3\n        /* \"#utility.yul\":3124:3187   */\n      tag_112\n      jump\t// in\n    tag_166:\n        /* \"#utility.yul\":3117:3187   */\n      swap8\n      pop\n        /* \"#utility.yul\":3210:3270   */\n      tag_167\n        /* \"#utility.yul\":3263:3269   */\n      dup4\n        /* \"#utility.yul\":3210:3270   */\n      tag_113\n      jump\t// in\n    tag_167:\n        /* \"#utility.yul\":3200:3270   */\n      swap3\n      pop\n        /* \"#utility.yul\":3056:3280   */\n      pop\n        /* \"#utility.yul\":3043:3044   */\n      0x01\n        /* \"#utility.yul\":3040:3041   */\n      dup2\n        /* \"#utility.yul\":3036:3045   */\n      add\n        /* \"#utility.yul\":3031:3045   */\n      swap1\n      pop\n        /* \"#utility.yul\":2996:3280   */\n      jump(tag_163)\n    tag_165:\n        /* \"#utility.yul\":3000:3014   */\n      pop\n        /* \"#utility.yul\":3296:3299   */\n      dup6\n        /* \"#utility.yul\":3289:3299   */\n      swap4\n      pop\n        /* \"#utility.yul\":2697:3305   */\n      pop\n      pop\n      pop\n        /* \"#utility.yul\":2573:3305   */\n      swap3\n      swap2\n      pop\n      pop\n      jump\t// out\n        /* \"#utility.yul\":3311:3425   */\n    tag_115:\n        /* \"#utility.yul\":3378:3384   */\n      0x00\n        /* \"#utility.yul\":3412:3417   */\n      dup2\n        /* \"#utility.yul\":3406:3418   */\n      mload\n        /* \"#utility.yul\":3396:3418   */\n      swap1\n      pop\n        /* \"#utility.yul\":3311:3425   */\n      swap2\n      swap1\n      pop\n      jump\t// out\n        /* \"#utility.yul\":3431:3615   */\n    tag_116:\n        /* \"#utility.yul\":3530:3541   */\n      0x00\n        /* \"#utility.yul\":3564:3570   */\n      dup3\n        /* \"#utility.yul\":3559:3562   */\n      dup3\n        /* \"#utility.yul\":3552:3571   */\n      mstore\n        /* \"#utility.yul\":3604:3608   */\n      0x20\n        /* \"#utility.yul\":3599:3602   */\n      dup3\n        /* \"#utility.yul\":3595:3609   */\n      add\n        /* \"#utility.yul\":3580:3609   */\n      swap1\n      pop\n        /* \"#utility.yul\":3431:3615   */\n      swap3\n      swap2\n      pop\n      pop\n      jump\t// out\n        /* \"#utility.yul\":3621:3753   */\n    tag_117:\n        /* \"#utility.yul\":3688:3692   */\n      0x00\n        /* \"#utility.yul\":3711:3714   */\n      dup2\n        /* \"#utility.yul\":3703:3714   */\n      swap1\n      pop\n        /* \"#utility.yul\":3741:3745   */\n      0x20\n        /* \"#utility.yul\":3736:3739   */\n      dup3\n        /* \"#utility.yul\":3732:3746   */\n      add\n        /* \"#utility.yul\":3724:3746   */\n      swap1\n      pop\n        /* \"#utility.yul\":3621:3753   */\n      swap2\n      swap1\n      pop\n      jump\t// out\n        /* \"#utility.yul\":3759:3867   */\n    tag_118:\n        /* \"#utility.yul\":3836:3860   */\n      tag_172\n        /* \"#utility.yul\":3854:3859   */\n      dup2\n        /* \"#utility.yul\":3836:3860   */\n      tag_105\n      jump\t// in\n    tag_172:\n        /* \"#utility.yul\":3831:3834   */\n      dup3\n        /* \"#utility.yul\":3824:3861   */\n      mstore\n        /* \"#utility.yul\":3759:3867   */\n      pop\n      pop\n      jump\t// out\n        /* \"#utility.yul\":3873:4052   */\n    tag_119:\n        /* \"#utility.yul\":3942:3952   */\n      0x00\n        /* \"#utility.yul\":3963:4009   */\n      tag_174\n        /* \"#utility.yul\":4005:4008   */\n      dup4\n        /* \"#utility.yul\":3997:4003   */\n      dup4\n        /* \"#utility.yul\":3963:4009   */\n      tag_118\n      jump\t// in\n    tag_174:\n        /* \"#utility.yul\":4041:4045   */\n      0x20\n        /* \"#utility.yul\":4036:4039   */\n      dup4\n        /* \"#utility.yul\":4032:4046   */\n      add\n        /* \"#utility.yul\":4018:4046   */\n      swap1\n      pop\n        /* \"#utility.yul\":3873:4052   */\n      swap3\n      swap2\n      pop\n      pop\n      jump\t// out\n        /* \"#utility.yul\":4058:4171   */\n    tag_120:\n        /* \"#utility.yul\":4128:4132   */\n      0x00\n        /* \"#utility.yul\":4160:4164   */\n      0x20\n        /* \"#utility.yul\":4155:4158   */\n      dup3\n        /* \"#utility.yul\":4151:4165   */\n      add\n        /* \"#utility.yul\":4143:4165   */\n      swap1\n      pop\n        /* \"#utility.yul\":4058:4171   */\n      swap2\n      swap1\n      pop\n      jump\t// out\n        /* \"#utility.yul\":4207:4939   */\n    tag_121:\n        /* \"#utility.yul\":4326:4329   */\n      0x00\n        /* \"#utility.yul\":4355:4409   */\n      tag_177\n        /* \"#utility.yul\":4403:4408   */\n      dup3\n        /* \"#utility.yul\":4355:4409   */\n      tag_115\n      jump\t// in\n    tag_177:\n        /* \"#utility.yul\":4425:4511   */\n      tag_178\n        /* \"#utility.yul\":4504:4510   */\n      dup2\n        /* \"#utility.yul\":4499:4502   */\n      dup6\n        /* \"#utility.yul\":4425:4511   */\n      tag_116\n      jump\t// in\n    tag_178:\n        /* \"#utility.yul\":4418:4511   */\n      swap4\n      pop\n        /* \"#utility.yul\":4535:4591   */\n      tag_179\n        /* \"#utility.yul\":4585:4590   */\n      dup4\n        /* \"#utility.yul\":4535:4591   */\n      tag_117\n      jump\t// in\n    tag_179:\n        /* \"#utility.yul\":4614:4621   */\n      dup1\n        /* \"#utility.yul\":4645:4646   */\n      0x00\n        /* \"#utility.yul\":4630:4914   */\n    tag_180:\n        /* \"#utility.yul\":4655:4661   */\n      dup4\n        /* \"#utility.yul\":4652:4653   */\n      dup2\n        /* \"#utility.yul\":4649:4662   */\n      lt\n        /* \"#utility.yul\":4630:4914   */\n      iszero\n      tag_182\n      jumpi\n        /* \"#utility.yul\":4731:4737   */\n      dup2\n        /* \"#utility.yul\":4725:4738   */\n      mload\n        /* \"#utility.yul\":4758:4821   */\n      tag_183\n        /* \"#utility.yul\":4817:4820   */\n      dup9\n        /* \"#utility.yul\":4802:4815   */\n      dup3\n        /* \"#utility.yul\":4758:4821   */\n      tag_119\n      jump\t// in\n    tag_183:\n        /* \"#utility.yul\":4751:4821   */\n      swap8\n      pop\n        /* \"#utility.yul\":4844:4904   */\n      tag_184\n        /* \"#utility.yul\":4897:4903   */\n      dup4\n        /* \"#utility.yul\":4844:4904   */\n      tag_120\n      jump\t// in\n    tag_184:\n        /* \"#utility.yul\":4834:4904   */\n      swap3\n      pop\n        /* \"#utility.yul\":4690:4914   */\n      pop\n        /* \"#utility.yul\":4677:4678   */\n      0x01\n        /* \"#utility.yul\":4674:4675   */\n      dup2\n        /* \"#utility.yul\":4670:4679   */\n      add\n        /* \"#utility.yul\":4665:4679   */\n      swap1\n      pop\n        /* \"#utility.yul\":4630:4914   */\n      jump(tag_180)\n    tag_182:\n        /* \"#utility.yul\":4634:4648   */\n      pop\n        /* \"#utility.yul\":4930:4933   */\n      dup6\n        /* \"#utility.yul\":4923:4933   */\n      swap4\n      pop\n        /* \"#utility.yul\":4331:4939   */\n      pop\n      pop\n      pop\n        /* \"#utility.yul\":4207:4939   */\n      swap3\n      swap2\n      pop\n      pop\n      jump\t// out\n        /* \"#utility.yul\":4945:5579   */\n    tag_14:\n        /* \"#utility.yul\":5166:5170   */\n      0x00\n        /* \"#utility.yul\":5204:5206   */\n      0x40\n        /* \"#utility.yul\":5193:5202   */\n      dup3\n        /* \"#utility.yul\":5189:5207   */\n      add\n        /* \"#utility.yul\":5181:5207   */\n      swap1\n      pop\n        /* \"#utility.yul\":5253:5262   */\n      dup2\n        /* \"#utility.yul\":5247:5251   */\n      dup2\n        /* \"#utility.yul\":5243:5263   */\n      sub\n        /* \"#utility.yul\":5239:5240   */\n      0x00\n        /* \"#utility.yul\":5228:5237   */\n      dup4\n        /* \"#utility.yul\":5224:5241   */\n      add\n        /* \"#utility.yul\":5217:5264   */\n      mstore\n        /* \"#utility.yul\":5281:5389   */\n      tag_186\n        /* \"#utility.yul\":5384:5388   */\n      dup2\n        /* \"#utility.yul\":5375:5381   */\n      dup6\n        /* \"#utility.yul\":5281:5389   */\n      tag_114\n      jump\t// in\n    tag_186:\n        /* \"#utility.yul\":5273:5389   */\n      swap1\n      pop\n        /* \"#utility.yul\":5436:5445   */\n      dup2\n        /* \"#utility.yul\":5430:5434   */\n      dup2\n        /* \"#utility.yul\":5426:5446   */\n      sub\n        /* \"#utility.yul\":5421:5423   */\n      0x20\n        /* \"#utility.yul\":5410:5419   */\n      dup4\n        /* \"#utility.yul\":5406:5424   */\n      add\n        /* \"#utility.yul\":5399:5447   */\n      mstore\n        /* \"#utility.yul\":5464:5572   */\n      tag_187\n        /* \"#utility.yul\":5567:5571   */\n      dup2\n        /* \"#utility.yul\":5558:5564   */\n      dup5\n        /* \"#utility.yul\":5464:5572   */\n      tag_121\n      jump\t// in\n    tag_187:\n        /* \"#utility.yul\":5456:5572   */\n      swap1\n      pop\n        /* \"#utility.yul\":4945:5579   */\n      swap4\n      swap3\n      pop\n      pop\n      pop\n      jump\t// out\n        /* \"#utility.yul\":5585:5914   */\n    tag_17:\n        /* \"#utility.yul\":5644:5650   */\n      0x00\n        /* \"#utility.yul\":5693:5695   */\n      0x20\n        /* \"#utility.yul\":5681:5690   */\n      dup3\n        /* \"#utility.yul\":5672:5679   */\n      dup5\n        /* \"#utility.yul\":5668:5691   */\n      sub\n        /* \"#utility.yul\":5664:5696   */\n      slt\n        /* \"#utility.yul\":5661:5780   */\n      iszero\n      tag_189\n      jumpi\n        /* \"#utility.yul\":5699:5778   */\n      tag_190\n      tag_99\n      jump\t// in\n    tag_190:\n        /* \"#utility.yul\":5661:5780   */\n    tag_189:\n        /* \"#utility.yul\":5819:5820   */\n      0x00\n        /* \"#utility.yul\":5844:5897   */\n      tag_191\n        /* \"#utility.yul\":5889:5896   */\n      dup5\n        /* \"#utility.yul\":5880:5886   */\n      dup3\n        /* \"#utility.yul\":5869:5878   */\n      dup6\n        /* \"#utility.yul\":5865:5887   */\n      add\n        /* \"#utility.yul\":5844:5897   */\n      tag_107\n      jump\t// in\n    tag_191:\n        /* \"#utility.yul\":5834:5897   */\n      swap2\n      pop\n        /* \"#utility.yul\":5790:5907   */\n      pop\n        /* \"#utility.yul\":5585:5914   */\n      swap3\n      swap2\n      pop\n      pop\n      jump\t// out\n        /* \"#utility.yul\":5920:6038   */\n    tag_122:\n        /* \"#utility.yul\":6007:6031   */\n      tag_193\n        /* \"#utility.yul\":6025:6030   */\n      dup2\n        /* \"#utility.yul\":6007:6031   */\n      tag_102\n      jump\t// in\n    tag_193:\n        /* \"#utility.yul\":6002:6005   */\n      dup3\n        /* \"#utility.yul\":5995:6032   */\n      mstore\n        /* \"#utility.yul\":5920:6038   */\n      pop\n      pop\n      jump\t// out\n        /* \"#utility.yul\":6044:6266   */\n    tag_20:\n        /* \"#utility.yul\":6137:6141   */\n      0x00\n        /* \"#utility.yul\":6175:6177   */\n      0x20\n        /* \"#utility.yul\":6164:6173   */\n      dup3\n        /* \"#utility.yul\":6160:6178   */\n      add\n        /* \"#utility.yul\":6152:6178   */\n      swap1\n      pop\n        /* \"#utility.yul\":6188:6259   */\n      tag_195\n        /* \"#utility.yul\":6256:6257   */\n      0x00\n        /* \"#utility.yul\":6245:6254   */\n      dup4\n        /* \"#utility.yul\":6241:6258   */\n      add\n        /* \"#utility.yul\":6232:6238   */\n      dup5\n        /* \"#utility.yul\":6188:6259   */\n      tag_122\n      jump\t// in\n    tag_195:\n        /* \"#utility.yul\":6044:6266   */\n      swap3\n      swap2\n      pop\n      pop\n      jump\t// out\n        /* \"#utility.yul\":6272:6601   */\n    tag_23:\n        /* \"#utility.yul\":6331:6337   */\n      0x00\n        /* \"#utility.yul\":6380:6382   */\n      0x20\n        /* \"#utility.yul\":6368:6377   */\n      dup3\n        /* \"#utility.yul\":6359:6366   */\n      dup5\n        /* \"#utility.yul\":6355:6378   */\n      sub\n        /* \"#utility.yul\":6351:6383   */\n      slt\n        /* \"#utility.yul\":6348:6467   */\n      iszero\n      tag_197\n      jumpi\n        /* \"#utility.yul\":6386:6465   */\n      tag_198\n      tag_99\n      jump\t// in\n    tag_198:\n        /* \"#utility.yul\":6348:6467   */\n    tag_197:\n        /* \"#utility.yul\":6506:6507   */\n      0x00\n        /* \"#utility.yul\":6531:6584   */\n      tag_199\n        /* \"#utility.yul\":6576:6583   */\n      dup5\n        /* \"#utility.yul\":6567:6573   */\n      dup3\n        /* \"#utility.yul\":6556:6565   */\n      dup6\n        /* \"#utility.yul\":6552:6574   */\n      add\n        /* \"#utility.yul\":6531:6584   */\n      tag_104\n      jump\t// in\n    tag_199:\n        /* \"#utility.yul\":6521:6584   */\n      swap2\n      pop\n        /* \"#utility.yul\":6477:6594   */\n      pop\n        /* \"#utility.yul\":6272:6601   */\n      swap3\n      swap2\n      pop\n      pop\n      jump\t// out\n        /* \"#utility.yul\":6607:6725   */\n    tag_123:\n        /* \"#utility.yul\":6694:6718   */\n      tag_201\n        /* \"#utility.yul\":6712:6717   */\n      dup2\n        /* \"#utility.yul\":6694:6718   */\n      tag_105\n      jump\t// in\n    tag_201:\n        /* \"#utility.yul\":6689:6692   */\n      dup3\n        /* \"#utility.yul\":6682:6719   */\n      mstore\n        /* \"#utility.yul\":6607:6725   */\n      pop\n      pop\n      jump\t// out\n        /* \"#utility.yul\":6731:6953   */\n    tag_26:\n        /* \"#utility.yul\":6824:6828   */\n      0x00\n        /* \"#utility.yul\":6862:6864   */\n      0x20\n        /* \"#utility.yul\":6851:6860   */\n      dup3\n        /* \"#utility.yul\":6847:6865   */\n      add\n        /* \"#utility.yul\":6839:6865   */\n      swap1\n      pop\n        /* \"#utility.yul\":6875:6946   */\n      tag_203\n        /* \"#utility.yul\":6943:6944   */\n      0x00\n        /* \"#utility.yul\":6932:6941   */\n      dup4\n        /* \"#utility.yul\":6928:6945   */\n      add\n        /* \"#utility.yul\":6919:6925   */\n      dup5\n        /* \"#utility.yul\":6875:6946   */\n      tag_123\n      jump\t// in\n    tag_203:\n        /* \"#utility.yul\":6731:6953   */\n      swap3\n      swap2\n      pop\n      pop\n      jump\t// out\n        /* \"#utility.yul\":6959:7128   */\n    tag_124:\n        /* \"#utility.yul\":7043:7054   */\n      0x00\n        /* \"#utility.yul\":7077:7083   */\n      dup3\n        /* \"#utility.yul\":7072:7075   */\n      dup3\n        /* \"#utility.yul\":7065:7084   */\n      mstore\n        /* \"#utility.yul\":7117:7121   */\n      0x20\n        /* \"#utility.yul\":7112:7115   */\n      dup3\n        /* \"#utility.yul\":7108:7122   */\n      add\n        /* \"#utility.yul\":7093:7122   */\n      swap1\n      pop\n        /* \"#utility.yul\":6959:7128   */\n      swap3\n      swap2\n      pop\n      pop\n      jump\t// out\n        /* \"#utility.yul\":7134:7293   */\n    tag_125:\n        /* \"#utility.yul\":7274:7285   */\n      0x206e657720757365720000000000000000000000000000000000000000000000\n        /* \"#utility.yul\":7270:7271   */\n      0x00\n        /* \"#utility.yul\":7262:7268   */\n      dup3\n        /* \"#utility.yul\":7258:7272   */\n      add\n        /* \"#utility.yul\":7251:7286   */\n      mstore\n        /* \"#utility.yul\":7134:7293   */\n      pop\n      jump\t// out\n        /* \"#utility.yul\":7299:7664   */\n    tag_126:\n        /* \"#utility.yul\":7441:7444   */\n      0x00\n        /* \"#utility.yul\":7462:7528   */\n      tag_207\n        /* \"#utility.yul\":7526:7527   */\n      0x09\n        /* \"#utility.yul\":7521:7524   */\n      dup4\n        /* \"#utility.yul\":7462:7528   */\n      tag_124\n      jump\t// in\n    tag_207:\n        /* \"#utility.yul\":7455:7528   */\n      swap2\n      pop\n        /* \"#utility.yul\":7537:7630   */\n      tag_208\n        /* \"#utility.yul\":7626:7629   */\n      dup3\n        /* \"#utility.yul\":7537:7630   */\n      tag_125\n      jump\t// in\n    tag_208:\n        /* \"#utility.yul\":7655:7657   */\n      0x20\n        /* \"#utility.yul\":7650:7653   */\n      dup3\n        /* \"#utility.yul\":7646:7658   */\n      add\n        /* \"#utility.yul\":7639:7658   */\n      swap1\n      pop\n        /* \"#utility.yul\":7299:7664   */\n      swap2\n      swap1\n      pop\n      jump\t// out\n        /* \"#utility.yul\":7670:8089   */\n    tag_30:\n        /* \"#utility.yul\":7836:7840   */\n      0x00\n        /* \"#utility.yul\":7874:7876   */\n      0x20\n        /* \"#utility.yul\":7863:7872   */\n      dup3\n        /* \"#utility.yul\":7859:7877   */\n      add\n        /* \"#utility.yul\":7851:7877   */\n      swap1\n      pop\n        /* \"#utility.yul\":7923:7932   */\n      dup2\n        /* \"#utility.yul\":7917:7921   */\n      dup2\n        /* \"#utility.yul\":7913:7933   */\n      sub\n        /* \"#utility.yul\":7909:7910   */\n      0x00\n        /* \"#utility.yul\":7898:7907   */\n      dup4\n        /* \"#utility.yul\":7894:7911   */\n      add\n        /* \"#utility.yul\":7887:7934   */\n      mstore\n        /* \"#utility.yul\":7951:8082   */\n      tag_210\n        /* \"#utility.yul\":8077:8081   */\n      dup2\n        /* \"#utility.yul\":7951:8082   */\n      tag_126\n      jump\t// in\n    tag_210:\n        /* \"#utility.yul\":7943:8082   */\n      swap1\n      pop\n        /* \"#utility.yul\":7670:8089   */\n      swap2\n      swap1\n      pop\n      jump\t// out\n        /* \"#utility.yul\":8095:8275   */\n    tag_44:\n        /* \"#utility.yul\":8143:8220   */\n      0x4e487b7100000000000000000000000000000000000000000000000000000000\n        /* \"#utility.yul\":8140:8141   */\n      0x00\n        /* \"#utility.yul\":8133:8221   */\n      mstore\n        /* \"#utility.yul\":8240:8244   */\n      0x32\n        /* \"#utility.yul\":8237:8238   */\n      0x04\n        /* \"#utility.yul\":8230:8245   */\n      mstore\n        /* \"#utility.yul\":8264:8268   */\n      0x24\n        /* \"#utility.yul\":8261:8262   */\n      0x00\n        /* \"#utility.yul\":8254:8269   */\n      revert\n        /* \"#utility.yul\":8281:8461   */\n    tag_127:\n        /* \"#utility.yul\":8329:8406   */\n      0x4e487b7100000000000000000000000000000000000000000000000000000000\n        /* \"#utility.yul\":8326:8327   */\n      0x00\n        /* \"#utility.yul\":8319:8407   */\n      mstore\n        /* \"#utility.yul\":8426:8430   */\n      0x11\n        /* \"#utility.yul\":8423:8424   */\n      0x04\n        /* \"#utility.yul\":8416:8431   */\n      mstore\n        /* \"#utility.yul\":8450:8454   */\n      0x24\n        /* \"#utility.yul\":8447:8448   */\n      0x00\n        /* \"#utility.yul\":8440:8455   */\n      revert\n        /* \"#utility.yul\":8467:8658   */\n    tag_47:\n        /* \"#utility.yul\":8507:8510   */\n      0x00\n        /* \"#utility.yul\":8526:8546   */\n      tag_214\n        /* \"#utility.yul\":8544:8545   */\n      dup3\n        /* \"#utility.yul\":8526:8546   */\n      tag_105\n      jump\t// in\n    tag_214:\n        /* \"#utility.yul\":8521:8546   */\n      swap2\n      pop\n        /* \"#utility.yul\":8560:8580   */\n      tag_215\n        /* \"#utility.yul\":8578:8579   */\n      dup4\n        /* \"#utility.yul\":8560:8580   */\n      tag_105\n      jump\t// in\n    tag_215:\n        /* \"#utility.yul\":8555:8580   */\n      swap3\n      pop\n        /* \"#utility.yul\":8603:8604   */\n      dup3\n        /* \"#utility.yul\":8600:8601   */\n      dup3\n        /* \"#utility.yul\":8596:8605   */\n      add\n        /* \"#utility.yul\":8589:8605   */\n      swap1\n      pop\n        /* \"#utility.yul\":8624:8627   */\n      dup1\n        /* \"#utility.yul\":8621:8622   */\n      dup3\n        /* \"#utility.yul\":8618:8628   */\n      gt\n        /* \"#utility.yul\":8615:8651   */\n      iszero\n      tag_216\n      jumpi\n        /* \"#utility.yul\":8631:8649   */\n      tag_217\n      tag_127\n      jump\t// in\n    tag_217:\n        /* \"#utility.yul\":8615:8651   */\n    tag_216:\n        /* \"#utility.yul\":8467:8658   */\n      swap3\n      swap2\n      pop\n      pop\n      jump\t// out\n        /* \"#utility.yul\":8664:8844   */\n    tag_53:\n        /* \"#utility.yul\":8712:8789   */\n      0x4e487b7100000000000000000000000000000000000000000000000000000000\n        /* \"#utility.yul\":8709:8710   */\n      0x00\n        /* \"#utility.yul\":8702:8790   */\n      mstore\n        /* \"#utility.yul\":8809:8813   */\n      0x41\n        /* \"#utility.yul\":8806:8807   */\n      0x04\n        /* \"#utility.yul\":8799:8814   */\n      mstore\n        /* \"#utility.yul\":8833:8837   */\n      0x24\n        /* \"#utility.yul\":8830:8831   */\n      0x00\n        /* \"#utility.yul\":8823:8838   */\n      revert\n        /* \"#utility.yul\":8850:9044   */\n    tag_66:\n        /* \"#utility.yul\":8890:8894   */\n      0x00\n        /* \"#utility.yul\":8910:8930   */\n      tag_220\n        /* \"#utility.yul\":8928:8929   */\n      dup3\n        /* \"#utility.yul\":8910:8930   */\n      tag_105\n      jump\t// in\n    tag_220:\n        /* \"#utility.yul\":8905:8930   */\n      swap2\n      pop\n        /* \"#utility.yul\":8944:8964   */\n      tag_221\n        /* \"#utility.yul\":8962:8963   */\n      dup4\n        /* \"#utility.yul\":8944:8964   */\n      tag_105\n      jump\t// in\n    tag_221:\n        /* \"#utility.yul\":8939:8964   */\n      swap3\n      pop\n        /* \"#utility.yul\":8988:8989   */\n      dup3\n        /* \"#utility.yul\":8985:8986   */\n      dup3\n        /* \"#utility.yul\":8981:8990   */\n      sub\n        /* \"#utility.yul\":8973:8990   */\n      swap1\n      pop\n        /* \"#utility.yul\":9012:9013   */\n      dup2\n        /* \"#utility.yul\":9006:9010   */\n      dup2\n        /* \"#utility.yul\":9003:9014   */\n      gt\n        /* \"#utility.yul\":9000:9037   */\n      iszero\n      tag_222\n      jumpi\n        /* \"#utility.yul\":9017:9035   */\n      tag_223\n      tag_127\n      jump\t// in\n    tag_223:\n        /* \"#utility.yul\":9000:9037   */\n    tag_222:\n        /* \"#utility.yul\":8850:9044   */\n      swap3\n      swap2\n      pop\n      pop\n      jump\t// out\n\n    auxdata: 0xa2646970667358221220c96aa8b4c7234d21940812ebd530057c32d19510a4dd405b510a2a1e220cd0a764736f6c634300081a0033\n}\n",
				"bytecode": {
					"linkReferences": {},
					"object": "6080604052348015600e575f80fd5b50610b248061001c5f395ff3fe608060405234801561000f575f80fd5b506004361061004a575f3560e01c8063068dbb241461004e5780636d763a6e1461006a5780639674a0ac14610089578063c84aae17146100b9575b5f80fd5b61006860048036038101906100639190610702565b6100e9565b005b61007261020d565b6040516100809291906108ae565b60405180910390f35b6100a3600480360381019061009e91906108e3565b610220565b6040516100b0919061091d565b60405180910390f35b6100d360048036038101906100ce9190610936565b61025a565b6040516100e09190610970565b60405180910390f35b5f60015f8473ffffffffffffffffffffffffffffffffffffffff1673ffffffffffffffffffffffffffffffffffffffff1681526020019081526020015f205414610168576040517f08c379a000000000000000000000000000000000000000000000000000000000815260040161015f906109e3565b60405180910390fd5b5f82908060018154018082558091505060019003905f5260205f20015f9091909190916101000a81548173ffffffffffffffffffffffffffffffffffffffff021916908373ffffffffffffffffffffffffffffffffffffffff1602179055508060015f8473ffffffffffffffffffffffffffffffffffffffff1673ffffffffffffffffffffffffffffffffffffffff1681526020019081526020015f20819055505050565b6060806102186102f1565b915091509091565b5f818154811061022e575f80fd5b905f5260205f20015f915054906101000a900473ffffffffffffffffffffffffffffffffffffffff1681565b5f805f6102656102f1565b915091505f5b82518110156102e55782818151811061028757610286610a01565b5b602002602001015173ffffffffffffffffffffffffffffffffffffffff168573ffffffffffffffffffffffffffffffffffffffff16036102d8576001816102ce9190610a5b565b93505050506102ec565b808060010191505061026b565b505f925050505b919050565b6060805f8080548060200260200160405190810160405280929190818152602001828054801561037357602002820191905f5260205f20905b815f9054906101000a900473ffffffffffffffffffffffffffffffffffffffff1673ffffffffffffffffffffffffffffffffffffffff168152602001906001019080831161032a575b505050505090505f815167ffffffffffffffff81111561039657610395610a8e565b5b6040519080825280602002602001820160405280156103c45781602001602082028036833780820191505090505b5090505f5b82518110156104565760015f8483815181106103e8576103e7610a01565b5b602002602001015173ffffffffffffffffffffffffffffffffffffffff1673ffffffffffffffffffffffffffffffffffffffff1681526020019081526020015f205482828151811061043d5761043c610a01565b5b60200260200101818152505080806001019150506103c9565b505f5b600183516104679190610abb565b811015610664575f5b600182855161047f9190610abb565b6104899190610abb565b811015610656578260018261049e9190610a5b565b815181106104af576104ae610a01565b5b60200260200101518382815181106104ca576104c9610a01565b5b6020026020010151111561064957826001826104e69190610a5b565b815181106104f7576104f6610a01565b5b602002602001015183828151811061051257610511610a01565b5b602002602001015184838151811061052d5761052c610a01565b5b60200260200101856001856105429190610a5b565b8151811061055357610552610a01565b5b6020026020010182815250828152505050836001826105729190610a5b565b8151811061058357610582610a01565b5b602002602001015184828151811061059e5761059d610a01565b5b60200260200101518583815181106105b9576105b8610a01565b5b60200260200101866001856105ce9190610a5b565b815181106105df576105de610a01565b5b602002602001018273ffffffffffffffffffffffffffffffffffffffff1673ffffffffffffffffffffffffffffffffffffffff168152508273ffffffffffffffffffffffffffffffffffffffff1673ffffffffffffffffffffffffffffffffffffffff1681525050505b8080600101915050610470565b508080600101915050610459565b5081819350935050509091565b5f80fd5b5f73ffffffffffffffffffffffffffffffffffffffff82169050919050565b5f61069e82610675565b9050919050565b6106ae81610694565b81146106b8575f80fd5b50565b5f813590506106c9816106a5565b92915050565b5f819050919050565b6106e1816106cf565b81146106eb575f80fd5b50565b5f813590506106fc816106d8565b92915050565b5f806040838503121561071857610717610671565b5b5f610725858286016106bb565b9250506020610736858286016106ee565b9150509250929050565b5f81519050919050565b5f82825260208201905092915050565b5f819050602082019050919050565b61077281610694565b82525050565b5f6107838383610769565b60208301905092915050565b5f602082019050919050565b5f6107a582610740565b6107af818561074a565b93506107ba8361075a565b805f5b838110156107ea5781516107d18882610778565b97506107dc8361078f565b9250506001810190506107bd565b5085935050505092915050565b5f81519050919050565b5f82825260208201905092915050565b5f819050602082019050919050565b610829816106cf565b82525050565b5f61083a8383610820565b60208301905092915050565b5f602082019050919050565b5f61085c826107f7565b6108668185610801565b935061087183610811565b805f5b838110156108a1578151610888888261082f565b975061089383610846565b925050600181019050610874565b5085935050505092915050565b5f6040820190508181035f8301526108c6818561079b565b905081810360208301526108da8184610852565b90509392505050565b5f602082840312156108f8576108f7610671565b5b5f610905848285016106ee565b91505092915050565b61091781610694565b82525050565b5f6020820190506109305f83018461090e565b92915050565b5f6020828403121561094b5761094a610671565b5b5f610958848285016106bb565b91505092915050565b61096a816106cf565b82525050565b5f6020820190506109835f830184610961565b92915050565b5f82825260208201905092915050565b7f206e6577207573657200000000000000000000000000000000000000000000005f82015250565b5f6109cd600983610989565b91506109d882610999565b602082019050919050565b5f6020820190508181035f8301526109fa816109c1565b9050919050565b7f4e487b71000000000000000000000000000000000000000000000000000000005f52603260045260245ffd5b7f4e487b71000000000000000000000000000000000000000000000000000000005f52601160045260245ffd5b5f610a65826106cf565b9150610a70836106cf565b9250828201905080821115610a8857610a87610a2e565b5b92915050565b7f4e487b71000000000000000000000000000000000000000000000000000000005f52604160045260245ffd5b5f610ac5826106cf565b9150610ad0836106cf565b9250828203905081811115610ae857610ae7610a2e565b5b9291505056fea2646970667358221220c96aa8b4c7234d21940812ebd530057c32d19510a4dd405b510a2a1e220cd0a764736f6c634300081a0033",
					"opcodes": "PUSH1 0x80 PUSH1 0x40 MSTORE CALLVALUE DUP1 ISZERO PUSH1 0xE JUMPI PUSH0 DUP1 REVERT JUMPDEST POP PUSH2 0xB24 DUP1 PUSH2 0x1C PUSH0 CODECOPY PUSH0 RETURN INVALID PUSH1 0x80 PUSH1 0x40 MSTORE CALLVALUE DUP1 ISZERO PUSH2 0xF JUMPI PUSH0 DUP1 REVERT JUMPDEST POP PUSH1 0x4 CALLDATASIZE LT PUSH2 0x4A JUMPI PUSH0 CALLDATALOAD PUSH1 0xE0 SHR DUP1 PUSH4 0x68DBB24 EQ PUSH2 0x4E JUMPI DUP1 PUSH4 0x6D763A6E EQ PUSH2 0x6A JUMPI DUP1 PUSH4 0x9674A0AC EQ PUSH2 0x89 JUMPI DUP1 PUSH4 0xC84AAE17 EQ PUSH2 0xB9 JUMPI JUMPDEST PUSH0 DUP1 REVERT JUMPDEST PUSH2 0x68 PUSH1 0x4 DUP1 CALLDATASIZE SUB DUP2 ADD SWAP1 PUSH2 0x63 SWAP2 SWAP1 PUSH2 0x702 JUMP JUMPDEST PUSH2 0xE9 JUMP JUMPDEST STOP JUMPDEST PUSH2 0x72 PUSH2 0x20D JUMP JUMPDEST PUSH1 0x40 MLOAD PUSH2 0x80 SWAP3 SWAP2 SWAP1 PUSH2 0x8AE JUMP JUMPDEST PUSH1 0x40 MLOAD DUP1 SWAP2 SUB SWAP1 RETURN JUMPDEST PUSH2 0xA3 PUSH1 0x4 DUP1 CALLDATASIZE SUB DUP2 ADD SWAP1 PUSH2 0x9E SWAP2 SWAP1 PUSH2 0x8E3 JUMP JUMPDEST PUSH2 0x220 JUMP JUMPDEST PUSH1 0x40 MLOAD PUSH2 0xB0 SWAP2 SWAP1 PUSH2 0x91D JUMP JUMPDEST PUSH1 0x40 MLOAD DUP1 SWAP2 SUB SWAP1 RETURN JUMPDEST PUSH2 0xD3 PUSH1 0x4 DUP1 CALLDATASIZE SUB DUP2 ADD SWAP1 PUSH2 0xCE SWAP2 SWAP1 PUSH2 0x936 JUMP JUMPDEST PUSH2 0x25A JUMP JUMPDEST PUSH1 0x40 MLOAD PUSH2 0xE0 SWAP2 SWAP1 PUSH2 0x970 JUMP JUMPDEST PUSH1 0x40 MLOAD DUP1 SWAP2 SUB SWAP1 RETURN JUMPDEST PUSH0 PUSH1 0x1 PUSH0 DUP5 PUSH20 0xFFFFFFFFFFFFFFFFFFFFFFFFFFFFFFFFFFFFFFFF AND PUSH20 0xFFFFFFFFFFFFFFFFFFFFFFFFFFFFFFFFFFFFFFFF AND DUP2 MSTORE PUSH1 0x20 ADD SWAP1 DUP2 MSTORE PUSH1 0x20 ADD PUSH0 KECCAK256 SLOAD EQ PUSH2 0x168 JUMPI PUSH1 0x40 MLOAD PUSH32 0x8C379A000000000000000000000000000000000000000000000000000000000 DUP2 MSTORE PUSH1 0x4 ADD PUSH2 0x15F SWAP1 PUSH2 0x9E3 JUMP JUMPDEST PUSH1 0x40 MLOAD DUP1 SWAP2 SUB SWAP1 REVERT JUMPDEST PUSH0 DUP3 SWAP1 DUP1 PUSH1 0x1 DUP2 SLOAD ADD DUP1 DUP3 SSTORE DUP1 SWAP2 POP POP PUSH1 0x1 SWAP1 SUB SWAP1 PUSH0 MSTORE PUSH1 0x20 PUSH0 KECCAK256 ADD PUSH0 SWAP1 SWAP2 SWAP1 SWAP2 SWAP1 SWAP2 PUSH2 0x100 EXP DUP2 SLOAD DUP2 PUSH20 0xFFFFFFFFFFFFFFFFFFFFFFFFFFFFFFFFFFFFFFFF MUL NOT AND SWAP1 DUP4 PUSH20 0xFFFFFFFFFFFFFFFFFFFFFFFFFFFFFFFFFFFFFFFF AND MUL OR SWAP1 SSTORE POP DUP1 PUSH1 0x1 PUSH0 DUP5 PUSH20 0xFFFFFFFFFFFFFFFFFFFFFFFFFFFFFFFFFFFFFFFF AND PUSH20 0xFFFFFFFFFFFFFFFFFFFFFFFFFFFFFFFFFFFFFFFF AND DUP2 MSTORE PUSH1 0x20 ADD SWAP1 DUP2 MSTORE PUSH1 0x20 ADD PUSH0 KECCAK256 DUP2 SWAP1 SSTORE POP POP POP JUMP JUMPDEST PUSH1 0x60 DUP1 PUSH2 0x218 PUSH2 0x2F1 JUMP JUMPDEST SWAP2 POP SWAP2 POP SWAP1 SWAP2 JUMP JUMPDEST PUSH0 DUP2 DUP2 SLOAD DUP2 LT PUSH2 0x22E JUMPI PUSH0 DUP1 REVERT JUMPDEST SWAP1 PUSH0 MSTORE PUSH1 0x20 PUSH0 KECCAK256 ADD PUSH0 SWAP2 POP SLOAD SWAP1 PUSH2 0x100 EXP SWAP1 DIV PUSH20 0xFFFFFFFFFFFFFFFFFFFFFFFFFFFFFFFFFFFFFFFF AND DUP2 JUMP JUMPDEST PUSH0 DUP1 PUSH0 PUSH2 0x265 PUSH2 0x2F1 JUMP JUMPDEST SWAP2 POP SWAP2 POP PUSH0 JUMPDEST DUP3 MLOAD DUP2 LT ISZERO PUSH2 0x2E5 JUMPI DUP3 DUP2 DUP2 MLOAD DUP2 LT PUSH2 0x287 JUMPI PUSH2 0x286 PUSH2 0xA01 JUMP JUMPDEST JUMPDEST PUSH1 0x20 MUL PUSH1 0x20 ADD ADD MLOAD PUSH20 0xFFFFFFFFFFFFFFFFFFFFFFFFFFFFFFFFFFFFFFFF AND DUP6 PUSH20 0xFFFFFFFFFFFFFFFFFFFFFFFFFFFFFFFFFFFFFFFF AND SUB PUSH2 0x2D8 JUMPI PUSH1 0x1 DUP2 PUSH2 0x2CE SWAP2 SWAP1 PUSH2 0xA5B JUMP JUMPDEST SWAP4 POP POP POP POP PUSH2 0x2EC JUMP JUMPDEST DUP1 DUP1 PUSH1 0x1 ADD SWAP2 POP POP PUSH2 0x26B JUMP JUMPDEST POP PUSH0 SWAP3 POP POP POP JUMPDEST SWAP2 SWAP1 POP JUMP JUMPDEST PUSH1 0x60 DUP1 PUSH0 DUP1 DUP1 SLOAD DUP1 PUSH1 0x20 MUL PUSH1 0x20 ADD PUSH1 0x40 MLOAD SWAP1 DUP2 ADD PUSH1 0x40 MSTORE DUP1 SWAP3 SWAP2 SWAP1 DUP2 DUP2 MSTORE PUSH1 0x20 ADD DUP3 DUP1 SLOAD DUP1 ISZERO PUSH2 0x373 JUMPI PUSH1 0x20 MUL DUP3 ADD SWAP2 SWAP1 PUSH0 MSTORE PUSH1 0x20 PUSH0 KECCAK256 SWAP1 JUMPDEST DUP2 PUSH0 SWAP1 SLOAD SWAP1 PUSH2 0x100 EXP SWAP1 DIV PUSH20 0xFFFFFFFFFFFFFFFFFFFFFFFFFFFFFFFFFFFFFFFF AND PUSH20 0xFFFFFFFFFFFFFFFFFFFFFFFFFFFFFFFFFFFFFFFF AND DUP2 MSTORE PUSH1 0x20 ADD SWAP1 PUSH1 0x1 ADD SWAP1 DUP1 DUP4 GT PUSH2 0x32A JUMPI JUMPDEST POP POP POP POP POP SWAP1 POP PUSH0 DUP2 MLOAD PUSH8 0xFFFFFFFFFFFFFFFF DUP2 GT ISZERO PUSH2 0x396 JUMPI PUSH2 0x395 PUSH2 0xA8E JUMP JUMPDEST JUMPDEST PUSH1 0x40 MLOAD SWAP1 DUP1 DUP3 MSTORE DUP1 PUSH1 0x20 MUL PUSH1 0x20 ADD DUP3 ADD PUSH1 0x40 MSTORE DUP1 ISZERO PUSH2 0x3C4 JUMPI DUP2 PUSH1 0x20 ADD PUSH1 0x20 DUP3 MUL DUP1 CALLDATASIZE DUP4 CALLDATACOPY DUP1 DUP3 ADD SWAP2 POP POP SWAP1 POP JUMPDEST POP SWAP1 POP PUSH0 JUMPDEST DUP3 MLOAD DUP2 LT ISZERO PUSH2 0x456 JUMPI PUSH1 0x1 PUSH0 DUP5 DUP4 DUP2 MLOAD DUP2 LT PUSH2 0x3E8 JUMPI PUSH2 0x3E7 PUSH2 0xA01 JUMP JUMPDEST JUMPDEST PUSH1 0x20 MUL PUSH1 0x20 ADD ADD MLOAD PUSH20 0xFFFFFFFFFFFFFFFFFFFFFFFFFFFFFFFFFFFFFFFF AND PUSH20 0xFFFFFFFFFFFFFFFFFFFFFFFFFFFFFFFFFFFFFFFF AND DUP2 MSTORE PUSH1 0x20 ADD SWAP1 DUP2 MSTORE PUSH1 0x20 ADD PUSH0 KECCAK256 SLOAD DUP3 DUP3 DUP2 MLOAD DUP2 LT PUSH2 0x43D JUMPI PUSH2 0x43C PUSH2 0xA01 JUMP JUMPDEST JUMPDEST PUSH1 0x20 MUL PUSH1 0x20 ADD ADD DUP2 DUP2 MSTORE POP POP DUP1 DUP1 PUSH1 0x1 ADD SWAP2 POP POP PUSH2 0x3C9 JUMP JUMPDEST POP PUSH0 JUMPDEST PUSH1 0x1 DUP4 MLOAD PUSH2 0x467 SWAP2 SWAP1 PUSH2 0xABB JUMP JUMPDEST DUP2 LT ISZERO PUSH2 0x664 JUMPI PUSH0 JUMPDEST PUSH1 0x1 DUP3 DUP6 MLOAD PUSH2 0x47F SWAP2 SWAP1 PUSH2 0xABB JUMP JUMPDEST PUSH2 0x489 SWAP2 SWAP1 PUSH2 0xABB JUMP JUMPDEST DUP2 LT ISZERO PUSH2 0x656 JUMPI DUP3 PUSH1 0x1 DUP3 PUSH2 0x49E SWAP2 SWAP1 PUSH2 0xA5B JUMP JUMPDEST DUP2 MLOAD DUP2 LT PUSH2 0x4AF JUMPI PUSH2 0x4AE PUSH2 0xA01 JUMP JUMPDEST JUMPDEST PUSH1 0x20 MUL PUSH1 0x20 ADD ADD MLOAD DUP4 DUP3 DUP2 MLOAD DUP2 LT PUSH2 0x4CA JUMPI PUSH2 0x4C9 PUSH2 0xA01 JUMP JUMPDEST JUMPDEST PUSH1 0x20 MUL PUSH1 0x20 ADD ADD MLOAD GT ISZERO PUSH2 0x649 JUMPI DUP3 PUSH1 0x1 DUP3 PUSH2 0x4E6 SWAP2 SWAP1 PUSH2 0xA5B JUMP JUMPDEST DUP2 MLOAD DUP2 LT PUSH2 0x4F7 JUMPI PUSH2 0x4F6 PUSH2 0xA01 JUMP JUMPDEST JUMPDEST PUSH1 0x20 MUL PUSH1 0x20 ADD ADD MLOAD DUP4 DUP3 DUP2 MLOAD DUP2 LT PUSH2 0x512 JUMPI PUSH2 0x511 PUSH2 0xA01 JUMP JUMPDEST JUMPDEST PUSH1 0x20 MUL PUSH1 0x20 ADD ADD MLOAD DUP5 DUP4 DUP2 MLOAD DUP2 LT PUSH2 0x52D JUMPI PUSH2 0x52C PUSH2 0xA01 JUMP JUMPDEST JUMPDEST PUSH1 0x20 MUL PUSH1 0x20 ADD ADD DUP6 PUSH1 0x1 DUP6 PUSH2 0x542 SWAP2 SWAP1 PUSH2 0xA5B JUMP JUMPDEST DUP2 MLOAD DUP2 LT PUSH2 0x553 JUMPI PUSH2 0x552 PUSH2 0xA01 JUMP JUMPDEST JUMPDEST PUSH1 0x20 MUL PUSH1 0x20 ADD ADD DUP3 DUP2 MSTORE POP DUP3 DUP2 MSTORE POP POP POP DUP4 PUSH1 0x1 DUP3 PUSH2 0x572 SWAP2 SWAP1 PUSH2 0xA5B JUMP JUMPDEST DUP2 MLOAD DUP2 LT PUSH2 0x583 JUMPI PUSH2 0x582 PUSH2 0xA01 JUMP JUMPDEST JUMPDEST PUSH1 0x20 MUL PUSH1 0x20 ADD ADD MLOAD DUP5 DUP3 DUP2 MLOAD DUP2 LT PUSH2 0x59E JUMPI PUSH2 0x59D PUSH2 0xA01 JUMP JUMPDEST JUMPDEST PUSH1 0x20 MUL PUSH1 0x20 ADD ADD MLOAD DUP6 DUP4 DUP2 MLOAD DUP2 LT PUSH2 0x5B9 JUMPI PUSH2 0x5B8 PUSH2 0xA01 JUMP JUMPDEST JUMPDEST PUSH1 0x20 MUL PUSH1 0x20 ADD ADD DUP7 PUSH1 0x1 DUP6 PUSH2 0x5CE SWAP2 SWAP1 PUSH2 0xA5B JUMP JUMPDEST DUP2 MLOAD DUP2 LT PUSH2 0x5DF JUMPI PUSH2 0x5DE PUSH2 0xA01 JUMP JUMPDEST JUMPDEST PUSH1 0x20 MUL PUSH1 0x20 ADD ADD DUP3 PUSH20 0xFFFFFFFFFFFFFFFFFFFFFFFFFFFFFFFFFFFFFFFF AND PUSH20 0xFFFFFFFFFFFFFFFFFFFFFFFFFFFFFFFFFFFFFFFF AND DUP2 MSTORE POP DUP3 PUSH20 0xFFFFFFFFFFFFFFFFFFFFFFFFFFFFFFFFFFFFFFFF AND PUSH20 0xFFFFFFFFFFFFFFFFFFFFFFFFFFFFFFFFFFFFFFFF AND DUP2 MSTORE POP POP POP JUMPDEST DUP1 DUP1 PUSH1 0x1 ADD SWAP2 POP POP PUSH2 0x470 JUMP JUMPDEST POP DUP1 DUP1 PUSH1 0x1 ADD SWAP2 POP POP PUSH2 0x459 JUMP JUMPDEST POP DUP2 DUP2 SWAP4 POP SWAP4 POP POP POP SWAP1 SWAP2 JUMP JUMPDEST PUSH0 DUP1 REVERT JUMPDEST PUSH0 PUSH20 0xFFFFFFFFFFFFFFFFFFFFFFFFFFFFFFFFFFFFFFFF DUP3 AND SWAP1 POP SWAP2 SWAP1 POP JUMP JUMPDEST PUSH0 PUSH2 0x69E DUP3 PUSH2 0x675 JUMP JUMPDEST SWAP1 POP SWAP2 SWAP1 POP JUMP JUMPDEST PUSH2 0x6AE DUP2 PUSH2 0x694 JUMP JUMPDEST DUP2 EQ PUSH2 0x6B8 JUMPI PUSH0 DUP1 REVERT JUMPDEST POP JUMP JUMPDEST PUSH0 DUP2 CALLDATALOAD SWAP1 POP PUSH2 0x6C9 DUP2 PUSH2 0x6A5 JUMP JUMPDEST SWAP3 SWAP2 POP POP JUMP JUMPDEST PUSH0 DUP2 SWAP1 POP SWAP2 SWAP1 POP JUMP JUMPDEST PUSH2 0x6E1 DUP2 PUSH2 0x6CF JUMP JUMPDEST DUP2 EQ PUSH2 0x6EB JUMPI PUSH0 DUP1 REVERT JUMPDEST POP JUMP JUMPDEST PUSH0 DUP2 CALLDATALOAD SWAP1 POP PUSH2 0x6FC DUP2 PUSH2 0x6D8 JUMP JUMPDEST SWAP3 SWAP2 POP POP JUMP JUMPDEST PUSH0 DUP1 PUSH1 0x40 DUP4 DUP6 SUB SLT ISZERO PUSH2 0x718 JUMPI PUSH2 0x717 PUSH2 0x671 JUMP JUMPDEST JUMPDEST PUSH0 PUSH2 0x725 DUP6 DUP3 DUP7 ADD PUSH2 0x6BB JUMP JUMPDEST SWAP3 POP POP PUSH1 0x20 PUSH2 0x736 DUP6 DUP3 DUP7 ADD PUSH2 0x6EE JUMP JUMPDEST SWAP2 POP POP SWAP3 POP SWAP3 SWAP1 POP JUMP JUMPDEST PUSH0 DUP2 MLOAD SWAP1 POP SWAP2 SWAP1 POP JUMP JUMPDEST PUSH0 DUP3 DUP3 MSTORE PUSH1 0x20 DUP3 ADD SWAP1 POP SWAP3 SWAP2 POP POP JUMP JUMPDEST PUSH0 DUP2 SWAP1 POP PUSH1 0x20 DUP3 ADD SWAP1 POP SWAP2 SWAP1 POP JUMP JUMPDEST PUSH2 0x772 DUP2 PUSH2 0x694 JUMP JUMPDEST DUP3 MSTORE POP POP JUMP JUMPDEST PUSH0 PUSH2 0x783 DUP4 DUP4 PUSH2 0x769 JUMP JUMPDEST PUSH1 0x20 DUP4 ADD SWAP1 POP SWAP3 SWAP2 POP POP JUMP JUMPDEST PUSH0 PUSH1 0x20 DUP3 ADD SWAP1 POP SWAP2 SWAP1 POP JUMP JUMPDEST PUSH0 PUSH2 0x7A5 DUP3 PUSH2 0x740 JUMP JUMPDEST PUSH2 0x7AF DUP2 DUP6 PUSH2 0x74A JUMP JUMPDEST SWAP4 POP PUSH2 0x7BA DUP4 PUSH2 0x75A JUMP JUMPDEST DUP1 PUSH0 JUMPDEST DUP4 DUP2 LT ISZERO PUSH2 0x7EA JUMPI DUP2 MLOAD PUSH2 0x7D1 DUP9 DUP3 PUSH2 0x778 JUMP JUMPDEST SWAP8 POP PUSH2 0x7DC DUP4 PUSH2 0x78F JUMP JUMPDEST SWAP3 POP POP PUSH1 0x1 DUP2 ADD SWAP1 POP PUSH2 0x7BD JUMP JUMPDEST POP DUP6 SWAP4 POP POP POP POP SWAP3 SWAP2 POP POP JUMP JUMPDEST PUSH0 DUP2 MLOAD SWAP1 POP SWAP2 SWAP1 POP JUMP JUMPDEST PUSH0 DUP3 DUP3 MSTORE PUSH1 0x20 DUP3 ADD SWAP1 POP SWAP3 SWAP2 POP POP JUMP JUMPDEST PUSH0 DUP2 SWAP1 POP PUSH1 0x20 DUP3 ADD SWAP1 POP SWAP2 SWAP1 POP JUMP JUMPDEST PUSH2 0x829 DUP2 PUSH2 0x6CF JUMP JUMPDEST DUP3 MSTORE POP POP JUMP JUMPDEST PUSH0 PUSH2 0x83A DUP4 DUP4 PUSH2 0x820 JUMP JUMPDEST PUSH1 0x20 DUP4 ADD SWAP1 POP SWAP3 SWAP2 POP POP JUMP JUMPDEST PUSH0 PUSH1 0x20 DUP3 ADD SWAP1 POP SWAP2 SWAP1 POP JUMP JUMPDEST PUSH0 PUSH2 0x85C DUP3 PUSH2 0x7F7 JUMP JUMPDEST PUSH2 0x866 DUP2 DUP6 PUSH2 0x801 JUMP JUMPDEST SWAP4 POP PUSH2 0x871 DUP4 PUSH2 0x811 JUMP JUMPDEST DUP1 PUSH0 JUMPDEST DUP4 DUP2 LT ISZERO PUSH2 0x8A1 JUMPI DUP2 MLOAD PUSH2 0x888 DUP9 DUP3 PUSH2 0x82F JUMP JUMPDEST SWAP8 POP PUSH2 0x893 DUP4 PUSH2 0x846 JUMP JUMPDEST SWAP3 POP POP PUSH1 0x1 DUP2 ADD SWAP1 POP PUSH2 0x874 JUMP JUMPDEST POP DUP6 SWAP4 POP POP POP POP SWAP3 SWAP2 POP POP JUMP JUMPDEST PUSH0 PUSH1 0x40 DUP3 ADD SWAP1 POP DUP2 DUP2 SUB PUSH0 DUP4 ADD MSTORE PUSH2 0x8C6 DUP2 DUP6 PUSH2 0x79B JUMP JUMPDEST SWAP1 POP DUP2 DUP2 SUB PUSH1 0x20 DUP4 ADD MSTORE PUSH2 0x8DA DUP2 DUP5 PUSH2 0x852 JUMP JUMPDEST SWAP1 POP SWAP4 SWAP3 POP POP POP JUMP JUMPDEST PUSH0 PUSH1 0x20 DUP3 DUP5 SUB SLT ISZERO PUSH2 0x8F8 JUMPI PUSH2 0x8F7 PUSH2 0x671 JUMP JUMPDEST JUMPDEST PUSH0 PUSH2 0x905 DUP5 DUP3 DUP6 ADD PUSH2 0x6EE JUMP JUMPDEST SWAP2 POP POP SWAP3 SWAP2 POP POP JUMP JUMPDEST PUSH2 0x917 DUP2 PUSH2 0x694 JUMP JUMPDEST DUP3 MSTORE POP POP JUMP JUMPDEST PUSH0 PUSH1 0x20 DUP3 ADD SWAP1 POP PUSH2 0x930 PUSH0 DUP4 ADD DUP5 PUSH2 0x90E JUMP JUMPDEST SWAP3 SWAP2 POP POP JUMP JUMPDEST PUSH0 PUSH1 0x20 DUP3 DUP5 SUB SLT ISZERO PUSH2 0x94B JUMPI PUSH2 0x94A PUSH2 0x671 JUMP JUMPDEST JUMPDEST PUSH0 PUSH2 0x958 DUP5 DUP3 DUP6 ADD PUSH2 0x6BB JUMP JUMPDEST SWAP2 POP POP SWAP3 SWAP2 POP POP JUMP JUMPDEST PUSH2 0x96A DUP2 PUSH2 0x6CF JUMP JUMPDEST DUP3 MSTORE POP POP JUMP JUMPDEST PUSH0 PUSH1 0x20 DUP3 ADD SWAP1 POP PUSH2 0x983 PUSH0 DUP4 ADD DUP5 PUSH2 0x961 JUMP JUMPDEST SWAP3 SWAP2 POP POP JUMP JUMPDEST PUSH0 DUP3 DUP3 MSTORE PUSH1 0x20 DUP3 ADD SWAP1 POP SWAP3 SWAP2 POP POP JUMP JUMPDEST PUSH32 0x206E657720757365720000000000000000000000000000000000000000000000 PUSH0 DUP3 ADD MSTORE POP JUMP JUMPDEST PUSH0 PUSH2 0x9CD PUSH1 0x9 DUP4 PUSH2 0x989 JUMP JUMPDEST SWAP2 POP PUSH2 0x9D8 DUP3 PUSH2 0x999 JUMP JUMPDEST PUSH1 0x20 DUP3 ADD SWAP1 POP SWAP2 SWAP1 POP JUMP JUMPDEST PUSH0 PUSH1 0x20 DUP3 ADD SWAP1 POP DUP2 DUP2 SUB PUSH0 DUP4 ADD MSTORE PUSH2 0x9FA DUP2 PUSH2 0x9C1 JUMP JUMPDEST SWAP1 POP SWAP2 SWAP1 POP JUMP JUMPDEST PUSH32 0x4E487B7100000000000000000000000000000000000000000000000000000000 PUSH0 MSTORE PUSH1 0x32 PUSH1 0x4 MSTORE PUSH1 0x24 PUSH0 REVERT JUMPDEST PUSH32 0x4E487B7100000000000000000000000000000000000000000000000000000000 PUSH0 MSTORE PUSH1 0x11 PUSH1 0x4 MSTORE PUSH1 0x24 PUSH0 REVERT JUMPDEST PUSH0 PUSH2 0xA65 DUP3 PUSH2 0x6CF JUMP JUMPDEST SWAP2 POP PUSH2 0xA70 DUP4 PUSH2 0x6CF JUMP JUMPDEST SWAP3 POP DUP3 DUP3 ADD SWAP1 POP DUP1 DUP3 GT ISZERO PUSH2 0xA88 JUMPI PUSH2 0xA87 PUSH2 0xA2E JUMP JUMPDEST JUMPDEST SWAP3 SWAP2 POP POP JUMP JUMPDEST PUSH32 0x4E487B7100000000000000000000000000000000000000000000000000000000 PUSH0 MSTORE PUSH1 0x41 PUSH1 0x4 MSTORE PUSH1 0x24 PUSH0 REVERT JUMPDEST PUSH0 PUSH2 0xAC5 DUP3 PUSH2 0x6CF JUMP JUMPDEST SWAP2 POP PUSH2 0xAD0 DUP4 PUSH2 0x6CF JUMP JUMPDEST SWAP3 POP DUP3 DUP3 SUB SWAP1 POP DUP2 DUP2 GT ISZERO PUSH2 0xAE8 JUMPI PUSH2 0xAE7 PUSH2 0xA2E JUMP JUMPDEST JUMPDEST SWAP3 SWAP2 POP POP JUMP INVALID LOG2 PUSH5 0x6970667358 0x22 SLT KECCAK256 0xC9 PUSH11 0xA8B4C7234D21940812EBD5 ADDRESS SDIV PUSH29 0x32D19510A4DD405B510A2A1E220CD0A764736F6C634300081A00330000 "
				},
				"gasEstimates": {
					"creation": {
						"codeDepositCost": "570400",
						"executionCost": "604",
						"totalCost": "571004"
					},
					"external": {
						"addUserBalance(address,uint256)": "73585",
						"getBalances(address)": "infinite",
						"getLeaderboard()": "infinite",
						"userAddress(uint256)": "4965"
					},
					"internal": {
						"sortAllUserAndBalance()": "infinite"
					}
				},
				"methodIdentifiers": {
					"addUserBalance(address,uint256)": "068dbb24",
					"getBalances(address)": "c84aae17",
					"getLeaderboard()": "6d763a6e",
					"userAddress(uint256)": "9674a0ac"
				}
			},
			"storageLayout": {
				"storage": [
					{
						"astId": 4,
						"contract": "contracts/8_mappingTest03.sol:test03",
						"label": "userAddress",
						"offset": 0,
						"slot": "0",
						"type": "t_array(t_address)dyn_storage"
					},
					{
						"astId": 8,
						"contract": "contracts/8_mappingTest03.sol:test03",
						"label": "balances",
						"offset": 0,
						"slot": "1",
						"type": "t_mapping(t_address,t_uint256)"
					}
				],
				"types": {
					"t_address": {
						"encoding": "inplace",
						"label": "address",
						"numberOfBytes": "20"
					},
					"t_array(t_address)dyn_storage": {
						"base": "t_address",
						"encoding": "dynamic_array",
						"label": "address[]",
						"numberOfBytes": "32"
					},
					"t_mapping(t_address,t_uint256)": {
						"encoding": "mapping",
						"key": "t_address",
						"label": "mapping(address => uint256)",
						"numberOfBytes": "32",
						"value": "t_uint256"
					},
					"t_uint256": {
						"encoding": "inplace",
						"label": "uint256",
						"numberOfBytes": "32"
					}
				}
			},
			"userdoc": {
				"kind": "user",
				"methods": {},
				"version": 1
			}
		}
	}
}