{
	"contracts/EtherStore.sol": {
		"EtherStore": {
			"abi": [
				{
					"inputs": [
						{
							"internalType": "address",
							"name": "",
							"type": "address"
						}
					],
					"name": "balances",
					"outputs": [
						{
							"internalType": "uint256",
							"name": "",
							"type": "uint256"
						}
					],
					"stateMutability": "view",
					"type": "function"
				},
				{
					"inputs": [],
					"name": "depositFunds",
					"outputs": [],
					"stateMutability": "payable",
					"type": "function"
				},
				{
					"inputs": [
						{
							"internalType": "address",
							"name": "",
							"type": "address"
						}
					],
					"name": "lastWithdrawTime",
					"outputs": [
						{
							"internalType": "uint256",
							"name": "",
							"type": "uint256"
						}
					],
					"stateMutability": "view",
					"type": "function"
				},
				{
					"inputs": [
						{
							"internalType": "uint256",
							"name": "_weiToWithdraw",
							"type": "uint256"
						}
					],
					"name": "withdrawFunds",
					"outputs": [],
					"stateMutability": "nonpayable",
					"type": "function"
				},
				{
					"inputs": [],
					"name": "withdrawalLimit",
					"outputs": [
						{
							"internalType": "uint256",
							"name": "",
							"type": "uint256"
						}
					],
					"stateMutability": "view",
					"type": "function"
				}
			],
			"devdoc": {
				"kind": "dev",
				"methods": {},
				"version": 1
			},
			"evm": {
				"assembly": "    /* \"contracts/EtherStore.sol\":61:1049  contract EtherStore {... */\n  mstore(0x40, 0x80)\n    /* \"contracts/EtherStore.sol\":123:130  1 ether */\n  0x0de0b6b3a7640000\n    /* \"contracts/EtherStore.sol\":90:130  uint256 public withdrawalLimit = 1 ether */\n  0x00\n  sstore\n    /* \"contracts/EtherStore.sol\":61:1049  contract EtherStore {... */\n  callvalue\n  dup1\n  iszero\n  tag_1\n  jumpi\n  0x00\n  dup1\n  revert\ntag_1:\n  pop\n  dataSize(sub_0)\n  dup1\n  dataOffset(sub_0)\n  0x00\n  codecopy\n  0x00\n  return\nstop\n\nsub_0: assembly {\n        /* \"contracts/EtherStore.sol\":61:1049  contract EtherStore {... */\n      mstore(0x40, 0x80)\n      jumpi(tag_1, lt(calldatasize, 0x04))\n      shr(0xe0, calldataload(0x00))\n      dup1\n      0x1031ec31\n      eq\n      tag_2\n      jumpi\n      dup1\n      0x155dd5ee\n      eq\n      tag_3\n      jumpi\n      dup1\n      0x27e235e3\n      eq\n      tag_4\n      jumpi\n      dup1\n      0x7ddfe78d\n      eq\n      tag_5\n      jumpi\n      dup1\n      0xe2c41dbc\n      eq\n      tag_6\n      jumpi\n    tag_1:\n      0x00\n      dup1\n      revert\n        /* \"contracts/EtherStore.sol\":137:188  mapping(address => uint256) public lastWithdrawTime */\n    tag_2:\n      callvalue\n      dup1\n      iszero\n      tag_7\n      jumpi\n      0x00\n      dup1\n      revert\n    tag_7:\n      pop\n      tag_8\n      0x04\n      dup1\n      calldatasize\n      sub\n      dup2\n      add\n      swap1\n      tag_9\n      swap2\n      swap1\n      tag_10\n      jump\t// in\n    tag_9:\n      tag_11\n      jump\t// in\n    tag_8:\n      mload(0x40)\n      tag_12\n      swap2\n      swap1\n      tag_13\n      jump\t// in\n    tag_12:\n      mload(0x40)\n      dup1\n      swap2\n      sub\n      swap1\n      return\n        /* \"contracts/EtherStore.sol\":346:1046  function withdrawFunds(uint256 _weiToWithdraw) public {... */\n    tag_3:\n      callvalue\n      dup1\n      iszero\n      tag_14\n      jumpi\n      0x00\n      dup1\n      revert\n    tag_14:\n      pop\n      tag_15\n      0x04\n      dup1\n      calldatasize\n      sub\n      dup2\n      add\n      swap1\n      tag_16\n      swap2\n      swap1\n      tag_17\n      jump\t// in\n    tag_16:\n      tag_18\n      jump\t// in\n    tag_15:\n      stop\n        /* \"contracts/EtherStore.sol\":195:238  mapping(address => uint256) public balances */\n    tag_4:\n      callvalue\n      dup1\n      iszero\n      tag_19\n      jumpi\n      0x00\n      dup1\n      revert\n    tag_19:\n      pop\n      tag_20\n      0x04\n      dup1\n      calldatasize\n      sub\n      dup2\n      add\n      swap1\n      tag_21\n      swap2\n      swap1\n      tag_10\n      jump\t// in\n    tag_21:\n      tag_22\n      jump\t// in\n    tag_20:\n      mload(0x40)\n      tag_23\n      swap2\n      swap1\n      tag_13\n      jump\t// in\n    tag_23:\n      mload(0x40)\n      dup1\n      swap2\n      sub\n      swap1\n      return\n        /* \"contracts/EtherStore.sol\":90:130  uint256 public withdrawalLimit = 1 ether */\n    tag_5:\n      callvalue\n      dup1\n      iszero\n      tag_24\n      jumpi\n      0x00\n      dup1\n      revert\n    tag_24:\n      pop\n      tag_25\n      tag_26\n      jump\t// in\n    tag_25:\n      mload(0x40)\n      tag_27\n      swap2\n      swap1\n      tag_13\n      jump\t// in\n    tag_27:\n      mload(0x40)\n      dup1\n      swap2\n      sub\n      swap1\n      return\n        /* \"contracts/EtherStore.sol\":247:338  function depositFunds() public payable {... */\n    tag_6:\n      tag_28\n      tag_29\n      jump\t// in\n    tag_28:\n      stop\n        /* \"contracts/EtherStore.sol\":137:188  mapping(address => uint256) public lastWithdrawTime */\n    tag_11:\n      mstore(0x20, 0x01)\n      dup1\n      0x00\n      mstore\n      keccak256(0x00, 0x40)\n      0x00\n      swap2\n      pop\n      swap1\n      pop\n      sload\n      dup2\n      jump\t// out\n        /* \"contracts/EtherStore.sol\":346:1046  function withdrawFunds(uint256 _weiToWithdraw) public {... */\n    tag_18:\n        /* \"contracts/EtherStore.sol\":443:457  _weiToWithdraw */\n      dup1\n        /* \"contracts/EtherStore.sol\":419:427  balances */\n      0x02\n        /* \"contracts/EtherStore.sol\":419:439  balances[msg.sender] */\n      0x00\n        /* \"contracts/EtherStore.sol\":428:438  msg.sender */\n      caller\n        /* \"contracts/EtherStore.sol\":419:439  balances[msg.sender] */\n      0xffffffffffffffffffffffffffffffffffffffff\n      and\n      0xffffffffffffffffffffffffffffffffffffffff\n      and\n      dup2\n      mstore\n      0x20\n      add\n      swap1\n      dup2\n      mstore\n      0x20\n      add\n      0x00\n      keccak256\n      sload\n        /* \"contracts/EtherStore.sol\":419:457  balances[msg.sender] >= _weiToWithdraw */\n      lt\n      iszero\n        /* \"contracts/EtherStore.sol\":411:482  require(balances[msg.sender] >= _weiToWithdraw, \"Insufficient balance\") */\n      tag_31\n      jumpi\n      mload(0x40)\n      0x08c379a000000000000000000000000000000000000000000000000000000000\n      dup2\n      mstore\n      0x04\n      add\n      tag_32\n      swap1\n      tag_33\n      jump\t// in\n    tag_32:\n      mload(0x40)\n      dup1\n      swap2\n      sub\n      swap1\n      revert\n    tag_31:\n        /* \"contracts/EtherStore.sol\":550:565  withdrawalLimit */\n      sload(0x00)\n        /* \"contracts/EtherStore.sol\":532:546  _weiToWithdraw */\n      dup2\n        /* \"contracts/EtherStore.sol\":532:565  _weiToWithdraw <= withdrawalLimit */\n      gt\n      iszero\n        /* \"contracts/EtherStore.sol\":524:594  require(_weiToWithdraw <= withdrawalLimit, \"Exceeds withdrawal limit\") */\n      tag_34\n      jumpi\n      mload(0x40)\n      0x08c379a000000000000000000000000000000000000000000000000000000000\n      dup2\n      mstore\n      0x04\n      add\n      tag_35\n      swap1\n      tag_36\n      jump\t// in\n    tag_35:\n      mload(0x40)\n      dup1\n      swap2\n      sub\n      swap1\n      revert\n    tag_34:\n        /* \"contracts/EtherStore.sol\":703:710  1 weeks */\n      0x093a80\n        /* \"contracts/EtherStore.sol\":672:688  lastWithdrawTime */\n      0x01\n        /* \"contracts/EtherStore.sol\":672:700  lastWithdrawTime[msg.sender] */\n      0x00\n        /* \"contracts/EtherStore.sol\":689:699  msg.sender */\n      caller\n        /* \"contracts/EtherStore.sol\":672:700  lastWithdrawTime[msg.sender] */\n      0xffffffffffffffffffffffffffffffffffffffff\n      and\n      0xffffffffffffffffffffffffffffffffffffffff\n      and\n      dup2\n      mstore\n      0x20\n      add\n      swap1\n      dup2\n      mstore\n      0x20\n      add\n      0x00\n      keccak256\n      sload\n        /* \"contracts/EtherStore.sol\":672:710  lastWithdrawTime[msg.sender] + 1 weeks */\n      tag_37\n      swap2\n      swap1\n      tag_38\n      jump\t// in\n    tag_37:\n        /* \"contracts/EtherStore.sol\":653:668  block.timestamp */\n      timestamp\n        /* \"contracts/EtherStore.sol\":653:710  block.timestamp >= lastWithdrawTime[msg.sender] + 1 weeks */\n      lt\n      iszero\n        /* \"contracts/EtherStore.sol\":645:741  require(block.timestamp >= lastWithdrawTime[msg.sender] + 1 weeks, \"Withdrawal not allowed yet\") */\n      tag_39\n      jumpi\n      mload(0x40)\n      0x08c379a000000000000000000000000000000000000000000000000000000000\n      dup2\n      mstore\n      0x04\n      add\n      tag_40\n      swap1\n      tag_41\n      jump\t// in\n    tag_40:\n      mload(0x40)\n      dup1\n      swap2\n      sub\n      swap1\n      revert\n    tag_39:\n        /* \"contracts/EtherStore.sol\":818:830  bool success */\n      0x00\n        /* \"contracts/EtherStore.sol\":836:846  msg.sender */\n      caller\n        /* \"contracts/EtherStore.sol\":836:851  msg.sender.call */\n      0xffffffffffffffffffffffffffffffffffffffff\n      and\n        /* \"contracts/EtherStore.sol\":859:880  address(this).balance */\n      selfbalance\n        /* \"contracts/EtherStore.sol\":836:885  msg.sender.call{value: address(this).balance}(\"\") */\n      mload(0x40)\n      tag_42\n      swap1\n      tag_43\n      jump\t// in\n    tag_42:\n      0x00\n      mload(0x40)\n      dup1\n      dup4\n      sub\n      dup2\n      dup6\n      dup8\n      gas\n      call\n      swap3\n      pop\n      pop\n      pop\n      returndatasize\n      dup1\n      0x00\n      dup2\n      eq\n      tag_46\n      jumpi\n      mload(0x40)\n      swap2\n      pop\n      and(add(returndatasize, 0x3f), not(0x1f))\n      dup3\n      add\n      0x40\n      mstore\n      returndatasize\n      dup3\n      mstore\n      returndatasize\n      0x00\n      0x20\n      dup5\n      add\n      returndatacopy\n      jump(tag_45)\n    tag_46:\n      0x60\n      swap2\n      pop\n    tag_45:\n      pop\n        /* \"contracts/EtherStore.sol\":817:885  (bool success, ) = msg.sender.call{value: address(this).balance}(\"\") */\n      pop\n      swap1\n      pop\n        /* \"contracts/EtherStore.sol\":903:910  success */\n      dup1\n        /* \"contracts/EtherStore.sol\":895:930  require(success, \"Transfer failed\") */\n      tag_47\n      jumpi\n      mload(0x40)\n      0x08c379a000000000000000000000000000000000000000000000000000000000\n      dup2\n      mstore\n      0x04\n      add\n      tag_48\n      swap1\n      tag_49\n      jump\t// in\n    tag_48:\n      mload(0x40)\n      dup1\n      swap2\n      sub\n      swap1\n      revert\n    tag_47:\n        /* \"contracts/EtherStore.sol\":967:981  _weiToWithdraw */\n      dup2\n        /* \"contracts/EtherStore.sol\":943:951  balances */\n      0x02\n        /* \"contracts/EtherStore.sol\":943:963  balances[msg.sender] */\n      0x00\n        /* \"contracts/EtherStore.sol\":952:962  msg.sender */\n      caller\n        /* \"contracts/EtherStore.sol\":943:963  balances[msg.sender] */\n      0xffffffffffffffffffffffffffffffffffffffff\n      and\n      0xffffffffffffffffffffffffffffffffffffffff\n      and\n      dup2\n      mstore\n      0x20\n      add\n      swap1\n      dup2\n      mstore\n      0x20\n      add\n      0x00\n      keccak256\n      0x00\n        /* \"contracts/EtherStore.sol\":943:981  balances[msg.sender] -= _weiToWithdraw */\n      dup3\n      dup3\n      sload\n      tag_50\n      swap2\n      swap1\n      tag_51\n      jump\t// in\n    tag_50:\n      swap3\n      pop\n      pop\n      dup2\n      swap1\n      sstore\n      pop\n        /* \"contracts/EtherStore.sol\":1023:1038  block.timestamp */\n      timestamp\n        /* \"contracts/EtherStore.sol\":992:1008  lastWithdrawTime */\n      0x01\n        /* \"contracts/EtherStore.sol\":992:1020  lastWithdrawTime[msg.sender] */\n      0x00\n        /* \"contracts/EtherStore.sol\":1009:1019  msg.sender */\n      caller\n        /* \"contracts/EtherStore.sol\":992:1020  lastWithdrawTime[msg.sender] */\n      0xffffffffffffffffffffffffffffffffffffffff\n      and\n      0xffffffffffffffffffffffffffffffffffffffff\n      and\n      dup2\n      mstore\n      0x20\n      add\n      swap1\n      dup2\n      mstore\n      0x20\n      add\n      0x00\n      keccak256\n        /* \"contracts/EtherStore.sol\":992:1038  lastWithdrawTime[msg.sender] = block.timestamp */\n      dup2\n      swap1\n      sstore\n      pop\n        /* \"contracts/EtherStore.sol\":400:1046  {... */\n      pop\n        /* \"contracts/EtherStore.sol\":346:1046  function withdrawFunds(uint256 _weiToWithdraw) public {... */\n      pop\n      jump\t// out\n        /* \"contracts/EtherStore.sol\":195:238  mapping(address => uint256) public balances */\n    tag_22:\n      mstore(0x20, 0x02)\n      dup1\n      0x00\n      mstore\n      keccak256(0x00, 0x40)\n      0x00\n      swap2\n      pop\n      swap1\n      pop\n      sload\n      dup2\n      jump\t// out\n        /* \"contracts/EtherStore.sol\":90:130  uint256 public withdrawalLimit = 1 ether */\n    tag_26:\n      sload(0x00)\n      dup2\n      jump\t// out\n        /* \"contracts/EtherStore.sol\":247:338  function depositFunds() public payable {... */\n    tag_29:\n        /* \"contracts/EtherStore.sol\":321:330  msg.value */\n      callvalue\n        /* \"contracts/EtherStore.sol\":297:305  balances */\n      0x02\n        /* \"contracts/EtherStore.sol\":297:317  balances[msg.sender] */\n      0x00\n        /* \"contracts/EtherStore.sol\":306:316  msg.sender */\n      caller\n        /* \"contracts/EtherStore.sol\":297:317  balances[msg.sender] */\n      0xffffffffffffffffffffffffffffffffffffffff\n      and\n      0xffffffffffffffffffffffffffffffffffffffff\n      and\n      dup2\n      mstore\n      0x20\n      add\n      swap1\n      dup2\n      mstore\n      0x20\n      add\n      0x00\n      keccak256\n      0x00\n        /* \"contracts/EtherStore.sol\":297:330  balances[msg.sender] += msg.value */\n      dup3\n      dup3\n      sload\n      tag_53\n      swap2\n      swap1\n      tag_38\n      jump\t// in\n    tag_53:\n      swap3\n      pop\n      pop\n      dup2\n      swap1\n      sstore\n      pop\n        /* \"contracts/EtherStore.sol\":247:338  function depositFunds() public payable {... */\n      jump\t// out\n        /* \"#utility.yul\":88:205   */\n    tag_55:\n        /* \"#utility.yul\":197:198   */\n      0x00\n        /* \"#utility.yul\":194:195   */\n      dup1\n        /* \"#utility.yul\":187:199   */\n      revert\n        /* \"#utility.yul\":334:460   */\n    tag_57:\n        /* \"#utility.yul\":371:378   */\n      0x00\n        /* \"#utility.yul\":411:453   */\n      0xffffffffffffffffffffffffffffffffffffffff\n        /* \"#utility.yul\":404:409   */\n      dup3\n        /* \"#utility.yul\":400:454   */\n      and\n        /* \"#utility.yul\":389:454   */\n      swap1\n      pop\n        /* \"#utility.yul\":334:460   */\n      swap2\n      swap1\n      pop\n      jump\t// out\n        /* \"#utility.yul\":466:562   */\n    tag_58:\n        /* \"#utility.yul\":503:510   */\n      0x00\n        /* \"#utility.yul\":532:556   */\n      tag_84\n        /* \"#utility.yul\":550:555   */\n      dup3\n        /* \"#utility.yul\":532:556   */\n      tag_57\n      jump\t// in\n    tag_84:\n        /* \"#utility.yul\":521:556   */\n      swap1\n      pop\n        /* \"#utility.yul\":466:562   */\n      swap2\n      swap1\n      pop\n      jump\t// out\n        /* \"#utility.yul\":568:690   */\n    tag_59:\n        /* \"#utility.yul\":641:665   */\n      tag_86\n        /* \"#utility.yul\":659:664   */\n      dup2\n        /* \"#utility.yul\":641:665   */\n      tag_58\n      jump\t// in\n    tag_86:\n        /* \"#utility.yul\":634:639   */\n      dup2\n        /* \"#utility.yul\":631:666   */\n      eq\n        /* \"#utility.yul\":621:684   */\n      tag_87\n      jumpi\n        /* \"#utility.yul\":680:681   */\n      0x00\n        /* \"#utility.yul\":677:678   */\n      dup1\n        /* \"#utility.yul\":670:682   */\n      revert\n        /* \"#utility.yul\":621:684   */\n    tag_87:\n        /* \"#utility.yul\":568:690   */\n      pop\n      jump\t// out\n        /* \"#utility.yul\":696:835   */\n    tag_60:\n        /* \"#utility.yul\":742:747   */\n      0x00\n        /* \"#utility.yul\":780:786   */\n      dup2\n        /* \"#utility.yul\":767:787   */\n      calldataload\n        /* \"#utility.yul\":758:787   */\n      swap1\n      pop\n        /* \"#utility.yul\":796:829   */\n      tag_89\n        /* \"#utility.yul\":823:828   */\n      dup2\n        /* \"#utility.yul\":796:829   */\n      tag_59\n      jump\t// in\n    tag_89:\n        /* \"#utility.yul\":696:835   */\n      swap3\n      swap2\n      pop\n      pop\n      jump\t// out\n        /* \"#utility.yul\":841:1170   */\n    tag_10:\n        /* \"#utility.yul\":900:906   */\n      0x00\n        /* \"#utility.yul\":949:951   */\n      0x20\n        /* \"#utility.yul\":937:946   */\n      dup3\n        /* \"#utility.yul\":928:935   */\n      dup5\n        /* \"#utility.yul\":924:947   */\n      sub\n        /* \"#utility.yul\":920:952   */\n      slt\n        /* \"#utility.yul\":917:1036   */\n      iszero\n      tag_91\n      jumpi\n        /* \"#utility.yul\":955:1034   */\n      tag_92\n      tag_55\n      jump\t// in\n    tag_92:\n        /* \"#utility.yul\":917:1036   */\n    tag_91:\n        /* \"#utility.yul\":1075:1076   */\n      0x00\n        /* \"#utility.yul\":1100:1153   */\n      tag_93\n        /* \"#utility.yul\":1145:1152   */\n      dup5\n        /* \"#utility.yul\":1136:1142   */\n      dup3\n        /* \"#utility.yul\":1125:1134   */\n      dup6\n        /* \"#utility.yul\":1121:1143   */\n      add\n        /* \"#utility.yul\":1100:1153   */\n      tag_60\n      jump\t// in\n    tag_93:\n        /* \"#utility.yul\":1090:1153   */\n      swap2\n      pop\n        /* \"#utility.yul\":1046:1163   */\n      pop\n        /* \"#utility.yul\":841:1170   */\n      swap3\n      swap2\n      pop\n      pop\n      jump\t// out\n        /* \"#utility.yul\":1176:1253   */\n    tag_61:\n        /* \"#utility.yul\":1213:1220   */\n      0x00\n        /* \"#utility.yul\":1242:1247   */\n      dup2\n        /* \"#utility.yul\":1231:1247   */\n      swap1\n      pop\n        /* \"#utility.yul\":1176:1253   */\n      swap2\n      swap1\n      pop\n      jump\t// out\n        /* \"#utility.yul\":1259:1377   */\n    tag_62:\n        /* \"#utility.yul\":1346:1370   */\n      tag_96\n        /* \"#utility.yul\":1364:1369   */\n      dup2\n        /* \"#utility.yul\":1346:1370   */\n      tag_61\n      jump\t// in\n    tag_96:\n        /* \"#utility.yul\":1341:1344   */\n      dup3\n        /* \"#utility.yul\":1334:1371   */\n      mstore\n        /* \"#utility.yul\":1259:1377   */\n      pop\n      pop\n      jump\t// out\n        /* \"#utility.yul\":1383:1605   */\n    tag_13:\n        /* \"#utility.yul\":1476:1480   */\n      0x00\n        /* \"#utility.yul\":1514:1516   */\n      0x20\n        /* \"#utility.yul\":1503:1512   */\n      dup3\n        /* \"#utility.yul\":1499:1517   */\n      add\n        /* \"#utility.yul\":1491:1517   */\n      swap1\n      pop\n        /* \"#utility.yul\":1527:1598   */\n      tag_98\n        /* \"#utility.yul\":1595:1596   */\n      0x00\n        /* \"#utility.yul\":1584:1593   */\n      dup4\n        /* \"#utility.yul\":1580:1597   */\n      add\n        /* \"#utility.yul\":1571:1577   */\n      dup5\n        /* \"#utility.yul\":1527:1598   */\n      tag_62\n      jump\t// in\n    tag_98:\n        /* \"#utility.yul\":1383:1605   */\n      swap3\n      swap2\n      pop\n      pop\n      jump\t// out\n        /* \"#utility.yul\":1611:1733   */\n    tag_63:\n        /* \"#utility.yul\":1684:1708   */\n      tag_100\n        /* \"#utility.yul\":1702:1707   */\n      dup2\n        /* \"#utility.yul\":1684:1708   */\n      tag_61\n      jump\t// in\n    tag_100:\n        /* \"#utility.yul\":1677:1682   */\n      dup2\n        /* \"#utility.yul\":1674:1709   */\n      eq\n        /* \"#utility.yul\":1664:1727   */\n      tag_101\n      jumpi\n        /* \"#utility.yul\":1723:1724   */\n      0x00\n        /* \"#utility.yul\":1720:1721   */\n      dup1\n        /* \"#utility.yul\":1713:1725   */\n      revert\n        /* \"#utility.yul\":1664:1727   */\n    tag_101:\n        /* \"#utility.yul\":1611:1733   */\n      pop\n      jump\t// out\n        /* \"#utility.yul\":1739:1878   */\n    tag_64:\n        /* \"#utility.yul\":1785:1790   */\n      0x00\n        /* \"#utility.yul\":1823:1829   */\n      dup2\n        /* \"#utility.yul\":1810:1830   */\n      calldataload\n        /* \"#utility.yul\":1801:1830   */\n      swap1\n      pop\n        /* \"#utility.yul\":1839:1872   */\n      tag_103\n        /* \"#utility.yul\":1866:1871   */\n      dup2\n        /* \"#utility.yul\":1839:1872   */\n      tag_63\n      jump\t// in\n    tag_103:\n        /* \"#utility.yul\":1739:1878   */\n      swap3\n      swap2\n      pop\n      pop\n      jump\t// out\n        /* \"#utility.yul\":1884:2213   */\n    tag_17:\n        /* \"#utility.yul\":1943:1949   */\n      0x00\n        /* \"#utility.yul\":1992:1994   */\n      0x20\n        /* \"#utility.yul\":1980:1989   */\n      dup3\n        /* \"#utility.yul\":1971:1978   */\n      dup5\n        /* \"#utility.yul\":1967:1990   */\n      sub\n        /* \"#utility.yul\":1963:1995   */\n      slt\n        /* \"#utility.yul\":1960:2079   */\n      iszero\n      tag_105\n      jumpi\n        /* \"#utility.yul\":1998:2077   */\n      tag_106\n      tag_55\n      jump\t// in\n    tag_106:\n        /* \"#utility.yul\":1960:2079   */\n    tag_105:\n        /* \"#utility.yul\":2118:2119   */\n      0x00\n        /* \"#utility.yul\":2143:2196   */\n      tag_107\n        /* \"#utility.yul\":2188:2195   */\n      dup5\n        /* \"#utility.yul\":2179:2185   */\n      dup3\n        /* \"#utility.yul\":2168:2177   */\n      dup6\n        /* \"#utility.yul\":2164:2186   */\n      add\n        /* \"#utility.yul\":2143:2196   */\n      tag_64\n      jump\t// in\n    tag_107:\n        /* \"#utility.yul\":2133:2196   */\n      swap2\n      pop\n        /* \"#utility.yul\":2089:2206   */\n      pop\n        /* \"#utility.yul\":1884:2213   */\n      swap3\n      swap2\n      pop\n      pop\n      jump\t// out\n        /* \"#utility.yul\":2219:2388   */\n    tag_65:\n        /* \"#utility.yul\":2303:2314   */\n      0x00\n        /* \"#utility.yul\":2337:2343   */\n      dup3\n        /* \"#utility.yul\":2332:2335   */\n      dup3\n        /* \"#utility.yul\":2325:2344   */\n      mstore\n        /* \"#utility.yul\":2377:2381   */\n      0x20\n        /* \"#utility.yul\":2372:2375   */\n      dup3\n        /* \"#utility.yul\":2368:2382   */\n      add\n        /* \"#utility.yul\":2353:2382   */\n      swap1\n      pop\n        /* \"#utility.yul\":2219:2388   */\n      swap3\n      swap2\n      pop\n      pop\n      jump\t// out\n        /* \"#utility.yul\":2394:2564   */\n    tag_66:\n        /* \"#utility.yul\":2534:2556   */\n      0x496e73756666696369656e742062616c616e6365000000000000000000000000\n        /* \"#utility.yul\":2530:2531   */\n      0x00\n        /* \"#utility.yul\":2522:2528   */\n      dup3\n        /* \"#utility.yul\":2518:2532   */\n      add\n        /* \"#utility.yul\":2511:2557   */\n      mstore\n        /* \"#utility.yul\":2394:2564   */\n      pop\n      jump\t// out\n        /* \"#utility.yul\":2570:2936   */\n    tag_67:\n        /* \"#utility.yul\":2712:2715   */\n      0x00\n        /* \"#utility.yul\":2733:2800   */\n      tag_111\n        /* \"#utility.yul\":2797:2799   */\n      0x14\n        /* \"#utility.yul\":2792:2795   */\n      dup4\n        /* \"#utility.yul\":2733:2800   */\n      tag_65\n      jump\t// in\n    tag_111:\n        /* \"#utility.yul\":2726:2800   */\n      swap2\n      pop\n        /* \"#utility.yul\":2809:2902   */\n      tag_112\n        /* \"#utility.yul\":2898:2901   */\n      dup3\n        /* \"#utility.yul\":2809:2902   */\n      tag_66\n      jump\t// in\n    tag_112:\n        /* \"#utility.yul\":2927:2929   */\n      0x20\n        /* \"#utility.yul\":2922:2925   */\n      dup3\n        /* \"#utility.yul\":2918:2930   */\n      add\n        /* \"#utility.yul\":2911:2930   */\n      swap1\n      pop\n        /* \"#utility.yul\":2570:2936   */\n      swap2\n      swap1\n      pop\n      jump\t// out\n        /* \"#utility.yul\":2942:3361   */\n    tag_33:\n        /* \"#utility.yul\":3108:3112   */\n      0x00\n        /* \"#utility.yul\":3146:3148   */\n      0x20\n        /* \"#utility.yul\":3135:3144   */\n      dup3\n        /* \"#utility.yul\":3131:3149   */\n      add\n        /* \"#utility.yul\":3123:3149   */\n      swap1\n      pop\n        /* \"#utility.yul\":3195:3204   */\n      dup2\n        /* \"#utility.yul\":3189:3193   */\n      dup2\n        /* \"#utility.yul\":3185:3205   */\n      sub\n        /* \"#utility.yul\":3181:3182   */\n      0x00\n        /* \"#utility.yul\":3170:3179   */\n      dup4\n        /* \"#utility.yul\":3166:3183   */\n      add\n        /* \"#utility.yul\":3159:3206   */\n      mstore\n        /* \"#utility.yul\":3223:3354   */\n      tag_114\n        /* \"#utility.yul\":3349:3353   */\n      dup2\n        /* \"#utility.yul\":3223:3354   */\n      tag_67\n      jump\t// in\n    tag_114:\n        /* \"#utility.yul\":3215:3354   */\n      swap1\n      pop\n        /* \"#utility.yul\":2942:3361   */\n      swap2\n      swap1\n      pop\n      jump\t// out\n        /* \"#utility.yul\":3367:3541   */\n    tag_68:\n        /* \"#utility.yul\":3507:3533   */\n      0x45786365656473207769746864726177616c206c696d69740000000000000000\n        /* \"#utility.yul\":3503:3504   */\n      0x00\n        /* \"#utility.yul\":3495:3501   */\n      dup3\n        /* \"#utility.yul\":3491:3505   */\n      add\n        /* \"#utility.yul\":3484:3534   */\n      mstore\n        /* \"#utility.yul\":3367:3541   */\n      pop\n      jump\t// out\n        /* \"#utility.yul\":3547:3913   */\n    tag_69:\n        /* \"#utility.yul\":3689:3692   */\n      0x00\n        /* \"#utility.yul\":3710:3777   */\n      tag_117\n        /* \"#utility.yul\":3774:3776   */\n      0x18\n        /* \"#utility.yul\":3769:3772   */\n      dup4\n        /* \"#utility.yul\":3710:3777   */\n      tag_65\n      jump\t// in\n    tag_117:\n        /* \"#utility.yul\":3703:3777   */\n      swap2\n      pop\n        /* \"#utility.yul\":3786:3879   */\n      tag_118\n        /* \"#utility.yul\":3875:3878   */\n      dup3\n        /* \"#utility.yul\":3786:3879   */\n      tag_68\n      jump\t// in\n    tag_118:\n        /* \"#utility.yul\":3904:3906   */\n      0x20\n        /* \"#utility.yul\":3899:3902   */\n      dup3\n        /* \"#utility.yul\":3895:3907   */\n      add\n        /* \"#utility.yul\":3888:3907   */\n      swap1\n      pop\n        /* \"#utility.yul\":3547:3913   */\n      swap2\n      swap1\n      pop\n      jump\t// out\n        /* \"#utility.yul\":3919:4338   */\n    tag_36:\n        /* \"#utility.yul\":4085:4089   */\n      0x00\n        /* \"#utility.yul\":4123:4125   */\n      0x20\n        /* \"#utility.yul\":4112:4121   */\n      dup3\n        /* \"#utility.yul\":4108:4126   */\n      add\n        /* \"#utility.yul\":4100:4126   */\n      swap1\n      pop\n        /* \"#utility.yul\":4172:4181   */\n      dup2\n        /* \"#utility.yul\":4166:4170   */\n      dup2\n        /* \"#utility.yul\":4162:4182   */\n      sub\n        /* \"#utility.yul\":4158:4159   */\n      0x00\n        /* \"#utility.yul\":4147:4156   */\n      dup4\n        /* \"#utility.yul\":4143:4160   */\n      add\n        /* \"#utility.yul\":4136:4183   */\n      mstore\n        /* \"#utility.yul\":4200:4331   */\n      tag_120\n        /* \"#utility.yul\":4326:4330   */\n      dup2\n        /* \"#utility.yul\":4200:4331   */\n      tag_69\n      jump\t// in\n    tag_120:\n        /* \"#utility.yul\":4192:4331   */\n      swap1\n      pop\n        /* \"#utility.yul\":3919:4338   */\n      swap2\n      swap1\n      pop\n      jump\t// out\n        /* \"#utility.yul\":4344:4524   */\n    tag_70:\n        /* \"#utility.yul\":4392:4469   */\n      0x4e487b7100000000000000000000000000000000000000000000000000000000\n        /* \"#utility.yul\":4389:4390   */\n      0x00\n        /* \"#utility.yul\":4382:4470   */\n      mstore\n        /* \"#utility.yul\":4489:4493   */\n      0x11\n        /* \"#utility.yul\":4486:4487   */\n      0x04\n        /* \"#utility.yul\":4479:4494   */\n      mstore\n        /* \"#utility.yul\":4513:4517   */\n      0x24\n        /* \"#utility.yul\":4510:4511   */\n      0x00\n        /* \"#utility.yul\":4503:4518   */\n      revert\n        /* \"#utility.yul\":4530:4721   */\n    tag_38:\n        /* \"#utility.yul\":4570:4573   */\n      0x00\n        /* \"#utility.yul\":4589:4609   */\n      tag_123\n        /* \"#utility.yul\":4607:4608   */\n      dup3\n        /* \"#utility.yul\":4589:4609   */\n      tag_61\n      jump\t// in\n    tag_123:\n        /* \"#utility.yul\":4584:4609   */\n      swap2\n      pop\n        /* \"#utility.yul\":4623:4643   */\n      tag_124\n        /* \"#utility.yul\":4641:4642   */\n      dup4\n        /* \"#utility.yul\":4623:4643   */\n      tag_61\n      jump\t// in\n    tag_124:\n        /* \"#utility.yul\":4618:4643   */\n      swap3\n      pop\n        /* \"#utility.yul\":4666:4667   */\n      dup3\n        /* \"#utility.yul\":4663:4664   */\n      dup3\n        /* \"#utility.yul\":4659:4668   */\n      add\n        /* \"#utility.yul\":4652:4668   */\n      swap1\n      pop\n        /* \"#utility.yul\":4687:4690   */\n      dup1\n        /* \"#utility.yul\":4684:4685   */\n      dup3\n        /* \"#utility.yul\":4681:4691   */\n      gt\n        /* \"#utility.yul\":4678:4714   */\n      iszero\n      tag_125\n      jumpi\n        /* \"#utility.yul\":4694:4712   */\n      tag_126\n      tag_70\n      jump\t// in\n    tag_126:\n        /* \"#utility.yul\":4678:4714   */\n    tag_125:\n        /* \"#utility.yul\":4530:4721   */\n      swap3\n      swap2\n      pop\n      pop\n      jump\t// out\n        /* \"#utility.yul\":4727:4903   */\n    tag_71:\n        /* \"#utility.yul\":4867:4895   */\n      0x5769746864726177616c206e6f7420616c6c6f77656420796574000000000000\n        /* \"#utility.yul\":4863:4864   */\n      0x00\n        /* \"#utility.yul\":4855:4861   */\n      dup3\n        /* \"#utility.yul\":4851:4865   */\n      add\n        /* \"#utility.yul\":4844:4896   */\n      mstore\n        /* \"#utility.yul\":4727:4903   */\n      pop\n      jump\t// out\n        /* \"#utility.yul\":4909:5275   */\n    tag_72:\n        /* \"#utility.yul\":5051:5054   */\n      0x00\n        /* \"#utility.yul\":5072:5139   */\n      tag_129\n        /* \"#utility.yul\":5136:5138   */\n      0x1a\n        /* \"#utility.yul\":5131:5134   */\n      dup4\n        /* \"#utility.yul\":5072:5139   */\n      tag_65\n      jump\t// in\n    tag_129:\n        /* \"#utility.yul\":5065:5139   */\n      swap2\n      pop\n        /* \"#utility.yul\":5148:5241   */\n      tag_130\n        /* \"#utility.yul\":5237:5240   */\n      dup3\n        /* \"#utility.yul\":5148:5241   */\n      tag_71\n      jump\t// in\n    tag_130:\n        /* \"#utility.yul\":5266:5268   */\n      0x20\n        /* \"#utility.yul\":5261:5264   */\n      dup3\n        /* \"#utility.yul\":5257:5269   */\n      add\n        /* \"#utility.yul\":5250:5269   */\n      swap1\n      pop\n        /* \"#utility.yul\":4909:5275   */\n      swap2\n      swap1\n      pop\n      jump\t// out\n        /* \"#utility.yul\":5281:5700   */\n    tag_41:\n        /* \"#utility.yul\":5447:5451   */\n      0x00\n        /* \"#utility.yul\":5485:5487   */\n      0x20\n        /* \"#utility.yul\":5474:5483   */\n      dup3\n        /* \"#utility.yul\":5470:5488   */\n      add\n        /* \"#utility.yul\":5462:5488   */\n      swap1\n      pop\n        /* \"#utility.yul\":5534:5543   */\n      dup2\n        /* \"#utility.yul\":5528:5532   */\n      dup2\n        /* \"#utility.yul\":5524:5544   */\n      sub\n        /* \"#utility.yul\":5520:5521   */\n      0x00\n        /* \"#utility.yul\":5509:5518   */\n      dup4\n        /* \"#utility.yul\":5505:5522   */\n      add\n        /* \"#utility.yul\":5498:5545   */\n      mstore\n        /* \"#utility.yul\":5562:5693   */\n      tag_132\n        /* \"#utility.yul\":5688:5692   */\n      dup2\n        /* \"#utility.yul\":5562:5693   */\n      tag_72\n      jump\t// in\n    tag_132:\n        /* \"#utility.yul\":5554:5693   */\n      swap1\n      pop\n        /* \"#utility.yul\":5281:5700   */\n      swap2\n      swap1\n      pop\n      jump\t// out\n        /* \"#utility.yul\":5706:5853   */\n    tag_73:\n        /* \"#utility.yul\":5807:5818   */\n      0x00\n        /* \"#utility.yul\":5844:5847   */\n      dup2\n        /* \"#utility.yul\":5829:5847   */\n      swap1\n      pop\n        /* \"#utility.yul\":5706:5853   */\n      swap3\n      swap2\n      pop\n      pop\n      jump\t// out\n        /* \"#utility.yul\":5859:5973   */\n    tag_74:\n      pop\n      jump\t// out\n        /* \"#utility.yul\":5979:6377   */\n    tag_75:\n        /* \"#utility.yul\":6138:6141   */\n      0x00\n        /* \"#utility.yul\":6159:6242   */\n      tag_136\n        /* \"#utility.yul\":6240:6241   */\n      0x00\n        /* \"#utility.yul\":6235:6238   */\n      dup4\n        /* \"#utility.yul\":6159:6242   */\n      tag_73\n      jump\t// in\n    tag_136:\n        /* \"#utility.yul\":6152:6242   */\n      swap2\n      pop\n        /* \"#utility.yul\":6251:6344   */\n      tag_137\n        /* \"#utility.yul\":6340:6343   */\n      dup3\n        /* \"#utility.yul\":6251:6344   */\n      tag_74\n      jump\t// in\n    tag_137:\n        /* \"#utility.yul\":6369:6370   */\n      0x00\n        /* \"#utility.yul\":6364:6367   */\n      dup3\n        /* \"#utility.yul\":6360:6371   */\n      add\n        /* \"#utility.yul\":6353:6371   */\n      swap1\n      pop\n        /* \"#utility.yul\":5979:6377   */\n      swap2\n      swap1\n      pop\n      jump\t// out\n        /* \"#utility.yul\":6383:6762   */\n    tag_43:\n        /* \"#utility.yul\":6567:6570   */\n      0x00\n        /* \"#utility.yul\":6589:6736   */\n      tag_139\n        /* \"#utility.yul\":6732:6735   */\n      dup3\n        /* \"#utility.yul\":6589:6736   */\n      tag_75\n      jump\t// in\n    tag_139:\n        /* \"#utility.yul\":6582:6736   */\n      swap2\n      pop\n        /* \"#utility.yul\":6753:6756   */\n      dup2\n        /* \"#utility.yul\":6746:6756   */\n      swap1\n      pop\n        /* \"#utility.yul\":6383:6762   */\n      swap2\n      swap1\n      pop\n      jump\t// out\n        /* \"#utility.yul\":6768:6933   */\n    tag_76:\n        /* \"#utility.yul\":6908:6925   */\n      0x5472616e73666572206661696c65640000000000000000000000000000000000\n        /* \"#utility.yul\":6904:6905   */\n      0x00\n        /* \"#utility.yul\":6896:6902   */\n      dup3\n        /* \"#utility.yul\":6892:6906   */\n      add\n        /* \"#utility.yul\":6885:6926   */\n      mstore\n        /* \"#utility.yul\":6768:6933   */\n      pop\n      jump\t// out\n        /* \"#utility.yul\":6939:7305   */\n    tag_77:\n        /* \"#utility.yul\":7081:7084   */\n      0x00\n        /* \"#utility.yul\":7102:7169   */\n      tag_142\n        /* \"#utility.yul\":7166:7168   */\n      0x0f\n        /* \"#utility.yul\":7161:7164   */\n      dup4\n        /* \"#utility.yul\":7102:7169   */\n      tag_65\n      jump\t// in\n    tag_142:\n        /* \"#utility.yul\":7095:7169   */\n      swap2\n      pop\n        /* \"#utility.yul\":7178:7271   */\n      tag_143\n        /* \"#utility.yul\":7267:7270   */\n      dup3\n        /* \"#utility.yul\":7178:7271   */\n      tag_76\n      jump\t// in\n    tag_143:\n        /* \"#utility.yul\":7296:7298   */\n      0x20\n        /* \"#utility.yul\":7291:7294   */\n      dup3\n        /* \"#utility.yul\":7287:7299   */\n      add\n        /* \"#utility.yul\":7280:7299   */\n      swap1\n      pop\n        /* \"#utility.yul\":6939:7305   */\n      swap2\n      swap1\n      pop\n      jump\t// out\n        /* \"#utility.yul\":7311:7730   */\n    tag_49:\n        /* \"#utility.yul\":7477:7481   */\n      0x00\n        /* \"#utility.yul\":7515:7517   */\n      0x20\n        /* \"#utility.yul\":7504:7513   */\n      dup3\n        /* \"#utility.yul\":7500:7518   */\n      add\n        /* \"#utility.yul\":7492:7518   */\n      swap1\n      pop\n        /* \"#utility.yul\":7564:7573   */\n      dup2\n        /* \"#utility.yul\":7558:7562   */\n      dup2\n        /* \"#utility.yul\":7554:7574   */\n      sub\n        /* \"#utility.yul\":7550:7551   */\n      0x00\n        /* \"#utility.yul\":7539:7548   */\n      dup4\n        /* \"#utility.yul\":7535:7552   */\n      add\n        /* \"#utility.yul\":7528:7575   */\n      mstore\n        /* \"#utility.yul\":7592:7723   */\n      tag_145\n        /* \"#utility.yul\":7718:7722   */\n      dup2\n        /* \"#utility.yul\":7592:7723   */\n      tag_77\n      jump\t// in\n    tag_145:\n        /* \"#utility.yul\":7584:7723   */\n      swap1\n      pop\n        /* \"#utility.yul\":7311:7730   */\n      swap2\n      swap1\n      pop\n      jump\t// out\n        /* \"#utility.yul\":7736:7930   */\n    tag_51:\n        /* \"#utility.yul\":7776:7780   */\n      0x00\n        /* \"#utility.yul\":7796:7816   */\n      tag_147\n        /* \"#utility.yul\":7814:7815   */\n      dup3\n        /* \"#utility.yul\":7796:7816   */\n      tag_61\n      jump\t// in\n    tag_147:\n        /* \"#utility.yul\":7791:7816   */\n      swap2\n      pop\n        /* \"#utility.yul\":7830:7850   */\n      tag_148\n        /* \"#utility.yul\":7848:7849   */\n      dup4\n        /* \"#utility.yul\":7830:7850   */\n      tag_61\n      jump\t// in\n    tag_148:\n        /* \"#utility.yul\":7825:7850   */\n      swap3\n      pop\n        /* \"#utility.yul\":7874:7875   */\n      dup3\n        /* \"#utility.yul\":7871:7872   */\n      dup3\n        /* \"#utility.yul\":7867:7876   */\n      sub\n        /* \"#utility.yul\":7859:7876   */\n      swap1\n      pop\n        /* \"#utility.yul\":7898:7899   */\n      dup2\n        /* \"#utility.yul\":7892:7896   */\n      dup2\n        /* \"#utility.yul\":7889:7900   */\n      gt\n        /* \"#utility.yul\":7886:7923   */\n      iszero\n      tag_149\n      jumpi\n        /* \"#utility.yul\":7903:7921   */\n      tag_150\n      tag_70\n      jump\t// in\n    tag_150:\n        /* \"#utility.yul\":7886:7923   */\n    tag_149:\n        /* \"#utility.yul\":7736:7930   */\n      swap3\n      swap2\n      pop\n      pop\n      jump\t// out\n\n    auxdata: 0xa2646970667358221220afedfb42bb29e22ec8d31cd2cc8f089200ac5adc30f2bd7d17079333555341a364736f6c634300081a0033\n}\n",
				"bytecode": {
					"linkReferences": {},
					"object": "6080604052670de0b6b3a76400005f553480156019575f80fd5b50610801806100275f395ff3fe608060405260043610610049575f3560e01c80631031ec311461004d578063155dd5ee1461008957806327e235e3146100b15780637ddfe78d146100ed578063e2c41dbc14610117575b5f80fd5b348015610058575f80fd5b50610073600480360381019061006e9190610496565b610121565b60405161008091906104d9565b60405180910390f35b348015610094575f80fd5b506100af60048036038101906100aa919061051c565b610136565b005b3480156100bc575f80fd5b506100d760048036038101906100d29190610496565b6103c9565b6040516100e491906104d9565b60405180910390f35b3480156100f8575f80fd5b506101016103de565b60405161010e91906104d9565b60405180910390f35b61011f6103e3565b005b6001602052805f5260405f205f915090505481565b8060025f3373ffffffffffffffffffffffffffffffffffffffff1673ffffffffffffffffffffffffffffffffffffffff1681526020019081526020015f205410156101b6576040517f08c379a00000000000000000000000000000000000000000000000000000000081526004016101ad906105a1565b60405180910390fd5b5f548111156101fa576040517f08c379a00000000000000000000000000000000000000000000000000000000081526004016101f190610609565b60405180910390fd5b62093a8060015f3373ffffffffffffffffffffffffffffffffffffffff1673ffffffffffffffffffffffffffffffffffffffff1681526020019081526020015f20546102469190610654565b421015610288576040517f08c379a000000000000000000000000000000000000000000000000000000000815260040161027f906106d1565b60405180910390fd5b5f3373ffffffffffffffffffffffffffffffffffffffff16476040516102ad9061071c565b5f6040518083038185875af1925050503d805f81146102e7576040519150601f19603f3d011682016040523d82523d5f602084013e6102ec565b606091505b5050905080610330576040517f08c379a00000000000000000000000000000000000000000000000000000000081526004016103279061077a565b60405180910390fd5b8160025f3373ffffffffffffffffffffffffffffffffffffffff1673ffffffffffffffffffffffffffffffffffffffff1681526020019081526020015f205f82825461037c9190610798565b925050819055504260015f3373ffffffffffffffffffffffffffffffffffffffff1673ffffffffffffffffffffffffffffffffffffffff1681526020019081526020015f20819055505050565b6002602052805f5260405f205f915090505481565b5f5481565b3460025f3373ffffffffffffffffffffffffffffffffffffffff1673ffffffffffffffffffffffffffffffffffffffff1681526020019081526020015f205f82825461042f9190610654565b92505081905550565b5f80fd5b5f73ffffffffffffffffffffffffffffffffffffffff82169050919050565b5f6104658261043c565b9050919050565b6104758161045b565b811461047f575f80fd5b50565b5f813590506104908161046c565b92915050565b5f602082840312156104ab576104aa610438565b5b5f6104b884828501610482565b91505092915050565b5f819050919050565b6104d3816104c1565b82525050565b5f6020820190506104ec5f8301846104ca565b92915050565b6104fb816104c1565b8114610505575f80fd5b50565b5f81359050610516816104f2565b92915050565b5f6020828403121561053157610530610438565b5b5f61053e84828501610508565b91505092915050565b5f82825260208201905092915050565b7f496e73756666696369656e742062616c616e63650000000000000000000000005f82015250565b5f61058b601483610547565b915061059682610557565b602082019050919050565b5f6020820190508181035f8301526105b88161057f565b9050919050565b7f45786365656473207769746864726177616c206c696d697400000000000000005f82015250565b5f6105f3601883610547565b91506105fe826105bf565b602082019050919050565b5f6020820190508181035f830152610620816105e7565b9050919050565b7f4e487b71000000000000000000000000000000000000000000000000000000005f52601160045260245ffd5b5f61065e826104c1565b9150610669836104c1565b925082820190508082111561068157610680610627565b5b92915050565b7f5769746864726177616c206e6f7420616c6c6f776564207965740000000000005f82015250565b5f6106bb601a83610547565b91506106c682610687565b602082019050919050565b5f6020820190508181035f8301526106e8816106af565b9050919050565b5f81905092915050565b50565b5f6107075f836106ef565b9150610712826106f9565b5f82019050919050565b5f610726826106fc565b9150819050919050565b7f5472616e73666572206661696c656400000000000000000000000000000000005f82015250565b5f610764600f83610547565b915061076f82610730565b602082019050919050565b5f6020820190508181035f83015261079181610758565b9050919050565b5f6107a2826104c1565b91506107ad836104c1565b92508282039050818111156107c5576107c4610627565b5b9291505056fea2646970667358221220afedfb42bb29e22ec8d31cd2cc8f089200ac5adc30f2bd7d17079333555341a364736f6c634300081a0033",
					"opcodes": "PUSH1 0x80 PUSH1 0x40 MSTORE PUSH8 0xDE0B6B3A7640000 PUSH0 SSTORE CALLVALUE DUP1 ISZERO PUSH1 0x19 JUMPI PUSH0 DUP1 REVERT JUMPDEST POP PUSH2 0x801 DUP1 PUSH2 0x27 PUSH0 CODECOPY PUSH0 RETURN INVALID PUSH1 0x80 PUSH1 0x40 MSTORE PUSH1 0x4 CALLDATASIZE LT PUSH2 0x49 JUMPI PUSH0 CALLDATALOAD PUSH1 0xE0 SHR DUP1 PUSH4 0x1031EC31 EQ PUSH2 0x4D JUMPI DUP1 PUSH4 0x155DD5EE EQ PUSH2 0x89 JUMPI DUP1 PUSH4 0x27E235E3 EQ PUSH2 0xB1 JUMPI DUP1 PUSH4 0x7DDFE78D EQ PUSH2 0xED JUMPI DUP1 PUSH4 0xE2C41DBC EQ PUSH2 0x117 JUMPI JUMPDEST PUSH0 DUP1 REVERT JUMPDEST CALLVALUE DUP1 ISZERO PUSH2 0x58 JUMPI PUSH0 DUP1 REVERT JUMPDEST POP PUSH2 0x73 PUSH1 0x4 DUP1 CALLDATASIZE SUB DUP2 ADD SWAP1 PUSH2 0x6E SWAP2 SWAP1 PUSH2 0x496 JUMP JUMPDEST PUSH2 0x121 JUMP JUMPDEST PUSH1 0x40 MLOAD PUSH2 0x80 SWAP2 SWAP1 PUSH2 0x4D9 JUMP JUMPDEST PUSH1 0x40 MLOAD DUP1 SWAP2 SUB SWAP1 RETURN JUMPDEST CALLVALUE DUP1 ISZERO PUSH2 0x94 JUMPI PUSH0 DUP1 REVERT JUMPDEST POP PUSH2 0xAF PUSH1 0x4 DUP1 CALLDATASIZE SUB DUP2 ADD SWAP1 PUSH2 0xAA SWAP2 SWAP1 PUSH2 0x51C JUMP JUMPDEST PUSH2 0x136 JUMP JUMPDEST STOP JUMPDEST CALLVALUE DUP1 ISZERO PUSH2 0xBC JUMPI PUSH0 DUP1 REVERT JUMPDEST POP PUSH2 0xD7 PUSH1 0x4 DUP1 CALLDATASIZE SUB DUP2 ADD SWAP1 PUSH2 0xD2 SWAP2 SWAP1 PUSH2 0x496 JUMP JUMPDEST PUSH2 0x3C9 JUMP JUMPDEST PUSH1 0x40 MLOAD PUSH2 0xE4 SWAP2 SWAP1 PUSH2 0x4D9 JUMP JUMPDEST PUSH1 0x40 MLOAD DUP1 SWAP2 SUB SWAP1 RETURN JUMPDEST CALLVALUE DUP1 ISZERO PUSH2 0xF8 JUMPI PUSH0 DUP1 REVERT JUMPDEST POP PUSH2 0x101 PUSH2 0x3DE JUMP JUMPDEST PUSH1 0x40 MLOAD PUSH2 0x10E SWAP2 SWAP1 PUSH2 0x4D9 JUMP JUMPDEST PUSH1 0x40 MLOAD DUP1 SWAP2 SUB SWAP1 RETURN JUMPDEST PUSH2 0x11F PUSH2 0x3E3 JUMP JUMPDEST STOP JUMPDEST PUSH1 0x1 PUSH1 0x20 MSTORE DUP1 PUSH0 MSTORE PUSH1 0x40 PUSH0 KECCAK256 PUSH0 SWAP2 POP SWAP1 POP SLOAD DUP2 JUMP JUMPDEST DUP1 PUSH1 0x2 PUSH0 CALLER PUSH20 0xFFFFFFFFFFFFFFFFFFFFFFFFFFFFFFFFFFFFFFFF AND PUSH20 0xFFFFFFFFFFFFFFFFFFFFFFFFFFFFFFFFFFFFFFFF AND DUP2 MSTORE PUSH1 0x20 ADD SWAP1 DUP2 MSTORE PUSH1 0x20 ADD PUSH0 KECCAK256 SLOAD LT ISZERO PUSH2 0x1B6 JUMPI PUSH1 0x40 MLOAD PUSH32 0x8C379A000000000000000000000000000000000000000000000000000000000 DUP2 MSTORE PUSH1 0x4 ADD PUSH2 0x1AD SWAP1 PUSH2 0x5A1 JUMP JUMPDEST PUSH1 0x40 MLOAD DUP1 SWAP2 SUB SWAP1 REVERT JUMPDEST PUSH0 SLOAD DUP2 GT ISZERO PUSH2 0x1FA JUMPI PUSH1 0x40 MLOAD PUSH32 0x8C379A000000000000000000000000000000000000000000000000000000000 DUP2 MSTORE PUSH1 0x4 ADD PUSH2 0x1F1 SWAP1 PUSH2 0x609 JUMP JUMPDEST PUSH1 0x40 MLOAD DUP1 SWAP2 SUB SWAP1 REVERT JUMPDEST PUSH3 0x93A80 PUSH1 0x1 PUSH0 CALLER PUSH20 0xFFFFFFFFFFFFFFFFFFFFFFFFFFFFFFFFFFFFFFFF AND PUSH20 0xFFFFFFFFFFFFFFFFFFFFFFFFFFFFFFFFFFFFFFFF AND DUP2 MSTORE PUSH1 0x20 ADD SWAP1 DUP2 MSTORE PUSH1 0x20 ADD PUSH0 KECCAK256 SLOAD PUSH2 0x246 SWAP2 SWAP1 PUSH2 0x654 JUMP JUMPDEST TIMESTAMP LT ISZERO PUSH2 0x288 JUMPI PUSH1 0x40 MLOAD PUSH32 0x8C379A000000000000000000000000000000000000000000000000000000000 DUP2 MSTORE PUSH1 0x4 ADD PUSH2 0x27F SWAP1 PUSH2 0x6D1 JUMP JUMPDEST PUSH1 0x40 MLOAD DUP1 SWAP2 SUB SWAP1 REVERT JUMPDEST PUSH0 CALLER PUSH20 0xFFFFFFFFFFFFFFFFFFFFFFFFFFFFFFFFFFFFFFFF AND SELFBALANCE PUSH1 0x40 MLOAD PUSH2 0x2AD SWAP1 PUSH2 0x71C JUMP JUMPDEST PUSH0 PUSH1 0x40 MLOAD DUP1 DUP4 SUB DUP2 DUP6 DUP8 GAS CALL SWAP3 POP POP POP RETURNDATASIZE DUP1 PUSH0 DUP2 EQ PUSH2 0x2E7 JUMPI PUSH1 0x40 MLOAD SWAP2 POP PUSH1 0x1F NOT PUSH1 0x3F RETURNDATASIZE ADD AND DUP3 ADD PUSH1 0x40 MSTORE RETURNDATASIZE DUP3 MSTORE RETURNDATASIZE PUSH0 PUSH1 0x20 DUP5 ADD RETURNDATACOPY PUSH2 0x2EC JUMP JUMPDEST PUSH1 0x60 SWAP2 POP JUMPDEST POP POP SWAP1 POP DUP1 PUSH2 0x330 JUMPI PUSH1 0x40 MLOAD PUSH32 0x8C379A000000000000000000000000000000000000000000000000000000000 DUP2 MSTORE PUSH1 0x4 ADD PUSH2 0x327 SWAP1 PUSH2 0x77A JUMP JUMPDEST PUSH1 0x40 MLOAD DUP1 SWAP2 SUB SWAP1 REVERT JUMPDEST DUP2 PUSH1 0x2 PUSH0 CALLER PUSH20 0xFFFFFFFFFFFFFFFFFFFFFFFFFFFFFFFFFFFFFFFF AND PUSH20 0xFFFFFFFFFFFFFFFFFFFFFFFFFFFFFFFFFFFFFFFF AND DUP2 MSTORE PUSH1 0x20 ADD SWAP1 DUP2 MSTORE PUSH1 0x20 ADD PUSH0 KECCAK256 PUSH0 DUP3 DUP3 SLOAD PUSH2 0x37C SWAP2 SWAP1 PUSH2 0x798 JUMP JUMPDEST SWAP3 POP POP DUP2 SWAP1 SSTORE POP TIMESTAMP PUSH1 0x1 PUSH0 CALLER PUSH20 0xFFFFFFFFFFFFFFFFFFFFFFFFFFFFFFFFFFFFFFFF AND PUSH20 0xFFFFFFFFFFFFFFFFFFFFFFFFFFFFFFFFFFFFFFFF AND DUP2 MSTORE PUSH1 0x20 ADD SWAP1 DUP2 MSTORE PUSH1 0x20 ADD PUSH0 KECCAK256 DUP2 SWAP1 SSTORE POP POP POP JUMP JUMPDEST PUSH1 0x2 PUSH1 0x20 MSTORE DUP1 PUSH0 MSTORE PUSH1 0x40 PUSH0 KECCAK256 PUSH0 SWAP2 POP SWAP1 POP SLOAD DUP2 JUMP JUMPDEST PUSH0 SLOAD DUP2 JUMP JUMPDEST CALLVALUE PUSH1 0x2 PUSH0 CALLER PUSH20 0xFFFFFFFFFFFFFFFFFFFFFFFFFFFFFFFFFFFFFFFF AND PUSH20 0xFFFFFFFFFFFFFFFFFFFFFFFFFFFFFFFFFFFFFFFF AND DUP2 MSTORE PUSH1 0x20 ADD SWAP1 DUP2 MSTORE PUSH1 0x20 ADD PUSH0 KECCAK256 PUSH0 DUP3 DUP3 SLOAD PUSH2 0x42F SWAP2 SWAP1 PUSH2 0x654 JUMP JUMPDEST SWAP3 POP POP DUP2 SWAP1 SSTORE POP JUMP JUMPDEST PUSH0 DUP1 REVERT JUMPDEST PUSH0 PUSH20 0xFFFFFFFFFFFFFFFFFFFFFFFFFFFFFFFFFFFFFFFF DUP3 AND SWAP1 POP SWAP2 SWAP1 POP JUMP JUMPDEST PUSH0 PUSH2 0x465 DUP3 PUSH2 0x43C JUMP JUMPDEST SWAP1 POP SWAP2 SWAP1 POP JUMP JUMPDEST PUSH2 0x475 DUP2 PUSH2 0x45B JUMP JUMPDEST DUP2 EQ PUSH2 0x47F JUMPI PUSH0 DUP1 REVERT JUMPDEST POP JUMP JUMPDEST PUSH0 DUP2 CALLDATALOAD SWAP1 POP PUSH2 0x490 DUP2 PUSH2 0x46C JUMP JUMPDEST SWAP3 SWAP2 POP POP JUMP JUMPDEST PUSH0 PUSH1 0x20 DUP3 DUP5 SUB SLT ISZERO PUSH2 0x4AB JUMPI PUSH2 0x4AA PUSH2 0x438 JUMP JUMPDEST JUMPDEST PUSH0 PUSH2 0x4B8 DUP5 DUP3 DUP6 ADD PUSH2 0x482 JUMP JUMPDEST SWAP2 POP POP SWAP3 SWAP2 POP POP JUMP JUMPDEST PUSH0 DUP2 SWAP1 POP SWAP2 SWAP1 POP JUMP JUMPDEST PUSH2 0x4D3 DUP2 PUSH2 0x4C1 JUMP JUMPDEST DUP3 MSTORE POP POP JUMP JUMPDEST PUSH0 PUSH1 0x20 DUP3 ADD SWAP1 POP PUSH2 0x4EC PUSH0 DUP4 ADD DUP5 PUSH2 0x4CA JUMP JUMPDEST SWAP3 SWAP2 POP POP JUMP JUMPDEST PUSH2 0x4FB DUP2 PUSH2 0x4C1 JUMP JUMPDEST DUP2 EQ PUSH2 0x505 JUMPI PUSH0 DUP1 REVERT JUMPDEST POP JUMP JUMPDEST PUSH0 DUP2 CALLDATALOAD SWAP1 POP PUSH2 0x516 DUP2 PUSH2 0x4F2 JUMP JUMPDEST SWAP3 SWAP2 POP POP JUMP JUMPDEST PUSH0 PUSH1 0x20 DUP3 DUP5 SUB SLT ISZERO PUSH2 0x531 JUMPI PUSH2 0x530 PUSH2 0x438 JUMP JUMPDEST JUMPDEST PUSH0 PUSH2 0x53E DUP5 DUP3 DUP6 ADD PUSH2 0x508 JUMP JUMPDEST SWAP2 POP POP SWAP3 SWAP2 POP POP JUMP JUMPDEST PUSH0 DUP3 DUP3 MSTORE PUSH1 0x20 DUP3 ADD SWAP1 POP SWAP3 SWAP2 POP POP JUMP JUMPDEST PUSH32 0x496E73756666696369656E742062616C616E6365000000000000000000000000 PUSH0 DUP3 ADD MSTORE POP JUMP JUMPDEST PUSH0 PUSH2 0x58B PUSH1 0x14 DUP4 PUSH2 0x547 JUMP JUMPDEST SWAP2 POP PUSH2 0x596 DUP3 PUSH2 0x557 JUMP JUMPDEST PUSH1 0x20 DUP3 ADD SWAP1 POP SWAP2 SWAP1 POP JUMP JUMPDEST PUSH0 PUSH1 0x20 DUP3 ADD SWAP1 POP DUP2 DUP2 SUB PUSH0 DUP4 ADD MSTORE PUSH2 0x5B8 DUP2 PUSH2 0x57F JUMP JUMPDEST SWAP1 POP SWAP2 SWAP1 POP JUMP JUMPDEST PUSH32 0x45786365656473207769746864726177616C206C696D69740000000000000000 PUSH0 DUP3 ADD MSTORE POP JUMP JUMPDEST PUSH0 PUSH2 0x5F3 PUSH1 0x18 DUP4 PUSH2 0x547 JUMP JUMPDEST SWAP2 POP PUSH2 0x5FE DUP3 PUSH2 0x5BF JUMP JUMPDEST PUSH1 0x20 DUP3 ADD SWAP1 POP SWAP2 SWAP1 POP JUMP JUMPDEST PUSH0 PUSH1 0x20 DUP3 ADD SWAP1 POP DUP2 DUP2 SUB PUSH0 DUP4 ADD MSTORE PUSH2 0x620 DUP2 PUSH2 0x5E7 JUMP JUMPDEST SWAP1 POP SWAP2 SWAP1 POP JUMP JUMPDEST PUSH32 0x4E487B7100000000000000000000000000000000000000000000000000000000 PUSH0 MSTORE PUSH1 0x11 PUSH1 0x4 MSTORE PUSH1 0x24 PUSH0 REVERT JUMPDEST PUSH0 PUSH2 0x65E DUP3 PUSH2 0x4C1 JUMP JUMPDEST SWAP2 POP PUSH2 0x669 DUP4 PUSH2 0x4C1 JUMP JUMPDEST SWAP3 POP DUP3 DUP3 ADD SWAP1 POP DUP1 DUP3 GT ISZERO PUSH2 0x681 JUMPI PUSH2 0x680 PUSH2 0x627 JUMP JUMPDEST JUMPDEST SWAP3 SWAP2 POP POP JUMP JUMPDEST PUSH32 0x5769746864726177616C206E6F7420616C6C6F77656420796574000000000000 PUSH0 DUP3 ADD MSTORE POP JUMP JUMPDEST PUSH0 PUSH2 0x6BB PUSH1 0x1A DUP4 PUSH2 0x547 JUMP JUMPDEST SWAP2 POP PUSH2 0x6C6 DUP3 PUSH2 0x687 JUMP JUMPDEST PUSH1 0x20 DUP3 ADD SWAP1 POP SWAP2 SWAP1 POP JUMP JUMPDEST PUSH0 PUSH1 0x20 DUP3 ADD SWAP1 POP DUP2 DUP2 SUB PUSH0 DUP4 ADD MSTORE PUSH2 0x6E8 DUP2 PUSH2 0x6AF JUMP JUMPDEST SWAP1 POP SWAP2 SWAP1 POP JUMP JUMPDEST PUSH0 DUP2 SWAP1 POP SWAP3 SWAP2 POP POP JUMP JUMPDEST POP JUMP JUMPDEST PUSH0 PUSH2 0x707 PUSH0 DUP4 PUSH2 0x6EF JUMP JUMPDEST SWAP2 POP PUSH2 0x712 DUP3 PUSH2 0x6F9 JUMP JUMPDEST PUSH0 DUP3 ADD SWAP1 POP SWAP2 SWAP1 POP JUMP JUMPDEST PUSH0 PUSH2 0x726 DUP3 PUSH2 0x6FC JUMP JUMPDEST SWAP2 POP DUP2 SWAP1 POP SWAP2 SWAP1 POP JUMP JUMPDEST PUSH32 0x5472616E73666572206661696C65640000000000000000000000000000000000 PUSH0 DUP3 ADD MSTORE POP JUMP JUMPDEST PUSH0 PUSH2 0x764 PUSH1 0xF DUP4 PUSH2 0x547 JUMP JUMPDEST SWAP2 POP PUSH2 0x76F DUP3 PUSH2 0x730 JUMP JUMPDEST PUSH1 0x20 DUP3 ADD SWAP1 POP SWAP2 SWAP1 POP JUMP JUMPDEST PUSH0 PUSH1 0x20 DUP3 ADD SWAP1 POP DUP2 DUP2 SUB PUSH0 DUP4 ADD MSTORE PUSH2 0x791 DUP2 PUSH2 0x758 JUMP JUMPDEST SWAP1 POP SWAP2 SWAP1 POP JUMP JUMPDEST PUSH0 PUSH2 0x7A2 DUP3 PUSH2 0x4C1 JUMP JUMPDEST SWAP2 POP PUSH2 0x7AD DUP4 PUSH2 0x4C1 JUMP JUMPDEST SWAP3 POP DUP3 DUP3 SUB SWAP1 POP DUP2 DUP2 GT ISZERO PUSH2 0x7C5 JUMPI PUSH2 0x7C4 PUSH2 0x627 JUMP JUMPDEST JUMPDEST SWAP3 SWAP2 POP POP JUMP INVALID LOG2 PUSH5 0x6970667358 0x22 SLT KECCAK256 0xAF 0xED 0xFB TIMESTAMP 0xBB 0x29 0xE2 0x2E 0xC8 0xD3 SHR 0xD2 0xCC DUP16 ADDMOD SWAP3 STOP 0xAC GAS 0xDC ADDRESS CALLCODE 0xBD PUSH30 0x17079333555341A364736F6C634300081A00330000000000000000000000 "
				},
				"gasEstimates": {
					"creation": {
						"codeDepositCost": "409800",
						"executionCost": "22552",
						"totalCost": "432352"
					},
					"external": {
						"balances(address)": "2824",
						"depositFunds()": "infinite",
						"lastWithdrawTime(address)": "2780",
						"withdrawFunds(uint256)": "infinite",
						"withdrawalLimit()": "2468"
					}
				},
				"methodIdentifiers": {
					"balances(address)": "27e235e3",
					"depositFunds()": "e2c41dbc",
					"lastWithdrawTime(address)": "1031ec31",
					"withdrawFunds(uint256)": "155dd5ee",
					"withdrawalLimit()": "7ddfe78d"
				}
			},
			"storageLayout": {
				"storage": [
					{
						"astId": 4,
						"contract": "contracts/EtherStore.sol:EtherStore",
						"label": "withdrawalLimit",
						"offset": 0,
						"slot": "0",
						"type": "t_uint256"
					},
					{
						"astId": 8,
						"contract": "contracts/EtherStore.sol:EtherStore",
						"label": "lastWithdrawTime",
						"offset": 0,
						"slot": "1",
						"type": "t_mapping(t_address,t_uint256)"
					},
					{
						"astId": 12,
						"contract": "contracts/EtherStore.sol:EtherStore",
						"label": "balances",
						"offset": 0,
						"slot": "2",
						"type": "t_mapping(t_address,t_uint256)"
					}
				],
				"types": {
					"t_address": {
						"encoding": "inplace",
						"label": "address",
						"numberOfBytes": "20"
					},
					"t_mapping(t_address,t_uint256)": {
						"encoding": "mapping",
						"key": "t_address",
						"label": "mapping(address => uint256)",
						"numberOfBytes": "32",
						"value": "t_uint256"
					},
					"t_uint256": {
						"encoding": "inplace",
						"label": "uint256",
						"numberOfBytes": "32"
					}
				}
			},
			"userdoc": {
				"kind": "user",
				"methods": {},
				"version": 1
			}
		}
	}
}