{
	"contracts/17_overrideTest.sol": {
		"A": {
			"abi": [
				{
					"inputs": [
						{
							"internalType": "uint256",
							"name": "",
							"type": "uint256"
						}
					],
					"stateMutability": "nonpayable",
					"type": "constructor"
				},
				{
					"inputs": [],
					"name": "a",
					"outputs": [
						{
							"internalType": "uint256",
							"name": "",
							"type": "uint256"
						}
					],
					"stateMutability": "view",
					"type": "function"
				},
				{
					"inputs": [],
					"name": "add",
					"outputs": [
						{
							"internalType": "string",
							"name": "",
							"type": "string"
						}
					],
					"stateMutability": "pure",
					"type": "function"
				},
				{
					"inputs": [],
					"name": "value",
					"outputs": [
						{
							"internalType": "uint256",
							"name": "",
							"type": "uint256"
						}
					],
					"stateMutability": "view",
					"type": "function"
				}
			],
			"devdoc": {
				"kind": "dev",
				"methods": {},
				"version": 1
			},
			"evm": {
				"assembly": "    /* \"contracts/17_overrideTest.sol\":61:289  contract A{... */\n  mstore(0x40, 0x80)\n    /* \"contracts/17_overrideTest.sol\":96:97  3 */\n  0x03\n    /* \"contracts/17_overrideTest.sol\":80:97  uint public a = 3 */\n  0x00\n  sstore\n    /* \"contracts/17_overrideTest.sol\":130:178  constructor(uint){... */\n  callvalue\n  dup1\n  iszero\n  tag_1\n  jumpi\n  0x00\n  dup1\n  revert\ntag_1:\n  pop\n  mload(0x40)\n  sub(codesize, bytecodeSize)\n  dup1\n  bytecodeSize\n  dup4\n  codecopy\n  dup2\n  dup2\n  add\n  0x40\n  mstore\n  dup2\n  add\n  swap1\n  tag_2\n  swap2\n  swap1\n  tag_3\n  jump\t// in\ntag_2:\n    /* \"contracts/17_overrideTest.sol\":165:170  value */\n  sload(0x01)\n    /* \"contracts/17_overrideTest.sol\":158:163  value */\n  0x01\n    /* \"contracts/17_overrideTest.sol\":158:170  value =value */\n  dup2\n  swap1\n  sstore\n  pop\n    /* \"contracts/17_overrideTest.sol\":130:178  constructor(uint){... */\n  pop\n    /* \"contracts/17_overrideTest.sol\":61:289  contract A{... */\n  jump(tag_6)\n    /* \"#utility.yul\":88:205   */\ntag_8:\n    /* \"#utility.yul\":197:198   */\n  0x00\n    /* \"#utility.yul\":194:195   */\n  dup1\n    /* \"#utility.yul\":187:199   */\n  revert\n    /* \"#utility.yul\":334:411   */\ntag_10:\n    /* \"#utility.yul\":371:378   */\n  0x00\n    /* \"#utility.yul\":400:405   */\n  dup2\n    /* \"#utility.yul\":389:405   */\n  swap1\n  pop\n    /* \"#utility.yul\":334:411   */\n  swap2\n  swap1\n  pop\n  jump\t// out\n    /* \"#utility.yul\":417:539   */\ntag_11:\n    /* \"#utility.yul\":490:514   */\n  tag_19\n    /* \"#utility.yul\":508:513   */\n  dup2\n    /* \"#utility.yul\":490:514   */\n  tag_10\n  jump\t// in\ntag_19:\n    /* \"#utility.yul\":483:488   */\n  dup2\n    /* \"#utility.yul\":480:515   */\n  eq\n    /* \"#utility.yul\":470:533   */\n  tag_20\n  jumpi\n    /* \"#utility.yul\":529:530   */\n  0x00\n    /* \"#utility.yul\":526:527   */\n  dup1\n    /* \"#utility.yul\":519:531   */\n  revert\n    /* \"#utility.yul\":470:533   */\ntag_20:\n    /* \"#utility.yul\":417:539   */\n  pop\n  jump\t// out\n    /* \"#utility.yul\":545:688   */\ntag_12:\n    /* \"#utility.yul\":602:607   */\n  0x00\n    /* \"#utility.yul\":633:639   */\n  dup2\n    /* \"#utility.yul\":627:640   */\n  mload\n    /* \"#utility.yul\":618:640   */\n  swap1\n  pop\n    /* \"#utility.yul\":649:682   */\n  tag_22\n    /* \"#utility.yul\":676:681   */\n  dup2\n    /* \"#utility.yul\":649:682   */\n  tag_11\n  jump\t// in\ntag_22:\n    /* \"#utility.yul\":545:688   */\n  swap3\n  swap2\n  pop\n  pop\n  jump\t// out\n    /* \"#utility.yul\":694:1045   */\ntag_3:\n    /* \"#utility.yul\":764:770   */\n  0x00\n    /* \"#utility.yul\":813:815   */\n  0x20\n    /* \"#utility.yul\":801:810   */\n  dup3\n    /* \"#utility.yul\":792:799   */\n  dup5\n    /* \"#utility.yul\":788:811   */\n  sub\n    /* \"#utility.yul\":784:816   */\n  slt\n    /* \"#utility.yul\":781:900   */\n  iszero\n  tag_24\n  jumpi\n    /* \"#utility.yul\":819:898   */\n  tag_25\n  tag_8\n  jump\t// in\ntag_25:\n    /* \"#utility.yul\":781:900   */\ntag_24:\n    /* \"#utility.yul\":939:940   */\n  0x00\n    /* \"#utility.yul\":964:1028   */\n  tag_26\n    /* \"#utility.yul\":1020:1027   */\n  dup5\n    /* \"#utility.yul\":1011:1017   */\n  dup3\n    /* \"#utility.yul\":1000:1009   */\n  dup6\n    /* \"#utility.yul\":996:1018   */\n  add\n    /* \"#utility.yul\":964:1028   */\n  tag_12\n  jump\t// in\ntag_26:\n    /* \"#utility.yul\":954:1028   */\n  swap2\n  pop\n    /* \"#utility.yul\":910:1038   */\n  pop\n    /* \"#utility.yul\":694:1045   */\n  swap3\n  swap2\n  pop\n  pop\n  jump\t// out\n    /* \"contracts/17_overrideTest.sol\":61:289  contract A{... */\ntag_6:\n  dataSize(sub_0)\n  dup1\n  dataOffset(sub_0)\n  0x00\n  codecopy\n  0x00\n  return\nstop\n\nsub_0: assembly {\n        /* \"contracts/17_overrideTest.sol\":61:289  contract A{... */\n      mstore(0x40, 0x80)\n      callvalue\n      dup1\n      iszero\n      tag_1\n      jumpi\n      0x00\n      dup1\n      revert\n    tag_1:\n      pop\n      jumpi(tag_2, lt(calldatasize, 0x04))\n      shr(0xe0, calldataload(0x00))\n      dup1\n      0x0dbe671f\n      eq\n      tag_3\n      jumpi\n      dup1\n      0x3fa4f245\n      eq\n      tag_4\n      jumpi\n      dup1\n      0x4f2be91f\n      eq\n      tag_5\n      jumpi\n    tag_2:\n      0x00\n      dup1\n      revert\n        /* \"contracts/17_overrideTest.sol\":80:97  uint public a = 3 */\n    tag_3:\n      tag_6\n      tag_7\n      jump\t// in\n    tag_6:\n      mload(0x40)\n      tag_8\n      swap2\n      swap1\n      tag_9\n      jump\t// in\n    tag_8:\n      mload(0x40)\n      dup1\n      swap2\n      sub\n      swap1\n      return\n        /* \"contracts/17_overrideTest.sol\":104:121  uint public value */\n    tag_4:\n      tag_10\n      tag_11\n      jump\t// in\n    tag_10:\n      mload(0x40)\n      tag_12\n      swap2\n      swap1\n      tag_9\n      jump\t// in\n    tag_12:\n      mload(0x40)\n      dup1\n      swap2\n      sub\n      swap1\n      return\n        /* \"contracts/17_overrideTest.sol\":190:284  function add() public virtual  pure returns (string memory){... */\n    tag_5:\n      tag_13\n      tag_14\n      jump\t// in\n    tag_13:\n      mload(0x40)\n      tag_15\n      swap2\n      swap1\n      tag_16\n      jump\t// in\n    tag_15:\n      mload(0x40)\n      dup1\n      swap2\n      sub\n      swap1\n      return\n        /* \"contracts/17_overrideTest.sol\":80:97  uint public a = 3 */\n    tag_7:\n      sload(0x00)\n      dup2\n      jump\t// out\n        /* \"contracts/17_overrideTest.sol\":104:121  uint public value */\n    tag_11:\n      sload(0x01)\n      dup2\n      jump\t// out\n        /* \"contracts/17_overrideTest.sol\":190:284  function add() public virtual  pure returns (string memory){... */\n    tag_14:\n        /* \"contracts/17_overrideTest.sol\":235:248  string memory */\n      0x60\n        /* \"contracts/17_overrideTest.sol\":260:276  return  \"i am a\" */\n      mload(0x40)\n      dup1\n      0x40\n      add\n      0x40\n      mstore\n      dup1\n      0x06\n      dup2\n      mstore\n      0x20\n      add\n      0x6920616d20610000000000000000000000000000000000000000000000000000\n      dup2\n      mstore\n      pop\n      swap1\n      pop\n        /* \"contracts/17_overrideTest.sol\":190:284  function add() public virtual  pure returns (string memory){... */\n      swap1\n      jump\t// out\n        /* \"#utility.yul\":7:84   */\n    tag_18:\n        /* \"#utility.yul\":44:51   */\n      0x00\n        /* \"#utility.yul\":73:78   */\n      dup2\n        /* \"#utility.yul\":62:78   */\n      swap1\n      pop\n        /* \"#utility.yul\":7:84   */\n      swap2\n      swap1\n      pop\n      jump\t// out\n        /* \"#utility.yul\":90:208   */\n    tag_19:\n        /* \"#utility.yul\":177:201   */\n      tag_28\n        /* \"#utility.yul\":195:200   */\n      dup2\n        /* \"#utility.yul\":177:201   */\n      tag_18\n      jump\t// in\n    tag_28:\n        /* \"#utility.yul\":172:175   */\n      dup3\n        /* \"#utility.yul\":165:202   */\n      mstore\n        /* \"#utility.yul\":90:208   */\n      pop\n      pop\n      jump\t// out\n        /* \"#utility.yul\":214:436   */\n    tag_9:\n        /* \"#utility.yul\":307:311   */\n      0x00\n        /* \"#utility.yul\":345:347   */\n      0x20\n        /* \"#utility.yul\":334:343   */\n      dup3\n        /* \"#utility.yul\":330:348   */\n      add\n        /* \"#utility.yul\":322:348   */\n      swap1\n      pop\n        /* \"#utility.yul\":358:429   */\n      tag_30\n        /* \"#utility.yul\":426:427   */\n      0x00\n        /* \"#utility.yul\":415:424   */\n      dup4\n        /* \"#utility.yul\":411:428   */\n      add\n        /* \"#utility.yul\":402:408   */\n      dup5\n        /* \"#utility.yul\":358:429   */\n      tag_19\n      jump\t// in\n    tag_30:\n        /* \"#utility.yul\":214:436   */\n      swap3\n      swap2\n      pop\n      pop\n      jump\t// out\n        /* \"#utility.yul\":442:541   */\n    tag_20:\n        /* \"#utility.yul\":494:500   */\n      0x00\n        /* \"#utility.yul\":528:533   */\n      dup2\n        /* \"#utility.yul\":522:534   */\n      mload\n        /* \"#utility.yul\":512:534   */\n      swap1\n      pop\n        /* \"#utility.yul\":442:541   */\n      swap2\n      swap1\n      pop\n      jump\t// out\n        /* \"#utility.yul\":547:716   */\n    tag_21:\n        /* \"#utility.yul\":631:642   */\n      0x00\n        /* \"#utility.yul\":665:671   */\n      dup3\n        /* \"#utility.yul\":660:663   */\n      dup3\n        /* \"#utility.yul\":653:672   */\n      mstore\n        /* \"#utility.yul\":705:709   */\n      0x20\n        /* \"#utility.yul\":700:703   */\n      dup3\n        /* \"#utility.yul\":696:710   */\n      add\n        /* \"#utility.yul\":681:710   */\n      swap1\n      pop\n        /* \"#utility.yul\":547:716   */\n      swap3\n      swap2\n      pop\n      pop\n      jump\t// out\n        /* \"#utility.yul\":722:861   */\n    tag_22:\n        /* \"#utility.yul\":811:817   */\n      dup3\n        /* \"#utility.yul\":806:809   */\n      dup2\n        /* \"#utility.yul\":801:804   */\n      dup4\n        /* \"#utility.yul\":795:818   */\n      mcopy\n        /* \"#utility.yul\":852:853   */\n      0x00\n        /* \"#utility.yul\":843:849   */\n      dup4\n        /* \"#utility.yul\":838:841   */\n      dup4\n        /* \"#utility.yul\":834:850   */\n      add\n        /* \"#utility.yul\":827:854   */\n      mstore\n        /* \"#utility.yul\":722:861   */\n      pop\n      pop\n      pop\n      jump\t// out\n        /* \"#utility.yul\":867:969   */\n    tag_23:\n        /* \"#utility.yul\":908:914   */\n      0x00\n        /* \"#utility.yul\":959:961   */\n      0x1f\n        /* \"#utility.yul\":955:962   */\n      not\n        /* \"#utility.yul\":950:952   */\n      0x1f\n        /* \"#utility.yul\":943:948   */\n      dup4\n        /* \"#utility.yul\":939:953   */\n      add\n        /* \"#utility.yul\":935:963   */\n      and\n        /* \"#utility.yul\":925:963   */\n      swap1\n      pop\n        /* \"#utility.yul\":867:969   */\n      swap2\n      swap1\n      pop\n      jump\t// out\n        /* \"#utility.yul\":975:1352   */\n    tag_24:\n        /* \"#utility.yul\":1063:1066   */\n      0x00\n        /* \"#utility.yul\":1091:1130   */\n      tag_36\n        /* \"#utility.yul\":1124:1129   */\n      dup3\n        /* \"#utility.yul\":1091:1130   */\n      tag_20\n      jump\t// in\n    tag_36:\n        /* \"#utility.yul\":1146:1217   */\n      tag_37\n        /* \"#utility.yul\":1210:1216   */\n      dup2\n        /* \"#utility.yul\":1205:1208   */\n      dup6\n        /* \"#utility.yul\":1146:1217   */\n      tag_21\n      jump\t// in\n    tag_37:\n        /* \"#utility.yul\":1139:1217   */\n      swap4\n      pop\n        /* \"#utility.yul\":1226:1291   */\n      tag_38\n        /* \"#utility.yul\":1284:1290   */\n      dup2\n        /* \"#utility.yul\":1279:1282   */\n      dup6\n        /* \"#utility.yul\":1272:1276   */\n      0x20\n        /* \"#utility.yul\":1265:1270   */\n      dup7\n        /* \"#utility.yul\":1261:1277   */\n      add\n        /* \"#utility.yul\":1226:1291   */\n      tag_22\n      jump\t// in\n    tag_38:\n        /* \"#utility.yul\":1316:1345   */\n      tag_39\n        /* \"#utility.yul\":1338:1344   */\n      dup2\n        /* \"#utility.yul\":1316:1345   */\n      tag_23\n      jump\t// in\n    tag_39:\n        /* \"#utility.yul\":1311:1314   */\n      dup5\n        /* \"#utility.yul\":1307:1346   */\n      add\n        /* \"#utility.yul\":1300:1346   */\n      swap2\n      pop\n        /* \"#utility.yul\":1067:1352   */\n      pop\n        /* \"#utility.yul\":975:1352   */\n      swap3\n      swap2\n      pop\n      pop\n      jump\t// out\n        /* \"#utility.yul\":1358:1671   */\n    tag_16:\n        /* \"#utility.yul\":1471:1475   */\n      0x00\n        /* \"#utility.yul\":1509:1511   */\n      0x20\n        /* \"#utility.yul\":1498:1507   */\n      dup3\n        /* \"#utility.yul\":1494:1512   */\n      add\n        /* \"#utility.yul\":1486:1512   */\n      swap1\n      pop\n        /* \"#utility.yul\":1558:1567   */\n      dup2\n        /* \"#utility.yul\":1552:1556   */\n      dup2\n        /* \"#utility.yul\":1548:1568   */\n      sub\n        /* \"#utility.yul\":1544:1545   */\n      0x00\n        /* \"#utility.yul\":1533:1542   */\n      dup4\n        /* \"#utility.yul\":1529:1546   */\n      add\n        /* \"#utility.yul\":1522:1569   */\n      mstore\n        /* \"#utility.yul\":1586:1664   */\n      tag_41\n        /* \"#utility.yul\":1659:1663   */\n      dup2\n        /* \"#utility.yul\":1650:1656   */\n      dup5\n        /* \"#utility.yul\":1586:1664   */\n      tag_24\n      jump\t// in\n    tag_41:\n        /* \"#utility.yul\":1578:1664   */\n      swap1\n      pop\n        /* \"#utility.yul\":1358:1671   */\n      swap3\n      swap2\n      pop\n      pop\n      jump\t// out\n\n    auxdata: 0xa264697066735822122045d95d76587041b2aab3e4a791760511e18e7bab2ba791ff3cd5cb73a5f74f0d64736f6c634300081a0033\n}\n",
				"bytecode": {
					"linkReferences": {},
					"object": "608060405260035f553480156012575f80fd5b506040516102813803806102818339818101604052810190603291906072565b600154600181905550506098565b5f80fd5b5f819050919050565b6054816044565b8114605d575f80fd5b50565b5f81519050606c81604d565b92915050565b5f6020828403121560845760836040565b5b5f608f848285016060565b91505092915050565b6101dc806100a55f395ff3fe608060405234801561000f575f80fd5b506004361061003f575f3560e01c80630dbe671f146100435780633fa4f245146100615780634f2be91f1461007f575b5f80fd5b61004b61009d565b60405161005891906100fd565b60405180910390f35b6100696100a2565b60405161007691906100fd565b60405180910390f35b6100876100a8565b6040516100949190610186565b60405180910390f35b5f5481565b60015481565b60606040518060400160405280600681526020017f6920616d20610000000000000000000000000000000000000000000000000000815250905090565b5f819050919050565b6100f7816100e5565b82525050565b5f6020820190506101105f8301846100ee565b92915050565b5f81519050919050565b5f82825260208201905092915050565b8281835e5f83830152505050565b5f601f19601f8301169050919050565b5f61015882610116565b6101628185610120565b9350610172818560208601610130565b61017b8161013e565b840191505092915050565b5f6020820190508181035f83015261019e818461014e565b90509291505056fea264697066735822122045d95d76587041b2aab3e4a791760511e18e7bab2ba791ff3cd5cb73a5f74f0d64736f6c634300081a0033",
					"opcodes": "PUSH1 0x80 PUSH1 0x40 MSTORE PUSH1 0x3 PUSH0 SSTORE CALLVALUE DUP1 ISZERO PUSH1 0x12 JUMPI PUSH0 DUP1 REVERT JUMPDEST POP PUSH1 0x40 MLOAD PUSH2 0x281 CODESIZE SUB DUP1 PUSH2 0x281 DUP4 CODECOPY DUP2 DUP2 ADD PUSH1 0x40 MSTORE DUP2 ADD SWAP1 PUSH1 0x32 SWAP2 SWAP1 PUSH1 0x72 JUMP JUMPDEST PUSH1 0x1 SLOAD PUSH1 0x1 DUP2 SWAP1 SSTORE POP POP PUSH1 0x98 JUMP JUMPDEST PUSH0 DUP1 REVERT JUMPDEST PUSH0 DUP2 SWAP1 POP SWAP2 SWAP1 POP JUMP JUMPDEST PUSH1 0x54 DUP2 PUSH1 0x44 JUMP JUMPDEST DUP2 EQ PUSH1 0x5D JUMPI PUSH0 DUP1 REVERT JUMPDEST POP JUMP JUMPDEST PUSH0 DUP2 MLOAD SWAP1 POP PUSH1 0x6C DUP2 PUSH1 0x4D JUMP JUMPDEST SWAP3 SWAP2 POP POP JUMP JUMPDEST PUSH0 PUSH1 0x20 DUP3 DUP5 SUB SLT ISZERO PUSH1 0x84 JUMPI PUSH1 0x83 PUSH1 0x40 JUMP JUMPDEST JUMPDEST PUSH0 PUSH1 0x8F DUP5 DUP3 DUP6 ADD PUSH1 0x60 JUMP JUMPDEST SWAP2 POP POP SWAP3 SWAP2 POP POP JUMP JUMPDEST PUSH2 0x1DC DUP1 PUSH2 0xA5 PUSH0 CODECOPY PUSH0 RETURN INVALID PUSH1 0x80 PUSH1 0x40 MSTORE CALLVALUE DUP1 ISZERO PUSH2 0xF JUMPI PUSH0 DUP1 REVERT JUMPDEST POP PUSH1 0x4 CALLDATASIZE LT PUSH2 0x3F JUMPI PUSH0 CALLDATALOAD PUSH1 0xE0 SHR DUP1 PUSH4 0xDBE671F EQ PUSH2 0x43 JUMPI DUP1 PUSH4 0x3FA4F245 EQ PUSH2 0x61 JUMPI DUP1 PUSH4 0x4F2BE91F EQ PUSH2 0x7F JUMPI JUMPDEST PUSH0 DUP1 REVERT JUMPDEST PUSH2 0x4B PUSH2 0x9D JUMP JUMPDEST PUSH1 0x40 MLOAD PUSH2 0x58 SWAP2 SWAP1 PUSH2 0xFD JUMP JUMPDEST PUSH1 0x40 MLOAD DUP1 SWAP2 SUB SWAP1 RETURN JUMPDEST PUSH2 0x69 PUSH2 0xA2 JUMP JUMPDEST PUSH1 0x40 MLOAD PUSH2 0x76 SWAP2 SWAP1 PUSH2 0xFD JUMP JUMPDEST PUSH1 0x40 MLOAD DUP1 SWAP2 SUB SWAP1 RETURN JUMPDEST PUSH2 0x87 PUSH2 0xA8 JUMP JUMPDEST PUSH1 0x40 MLOAD PUSH2 0x94 SWAP2 SWAP1 PUSH2 0x186 JUMP JUMPDEST PUSH1 0x40 MLOAD DUP1 SWAP2 SUB SWAP1 RETURN JUMPDEST PUSH0 SLOAD DUP2 JUMP JUMPDEST PUSH1 0x1 SLOAD DUP2 JUMP JUMPDEST PUSH1 0x60 PUSH1 0x40 MLOAD DUP1 PUSH1 0x40 ADD PUSH1 0x40 MSTORE DUP1 PUSH1 0x6 DUP2 MSTORE PUSH1 0x20 ADD PUSH32 0x6920616D20610000000000000000000000000000000000000000000000000000 DUP2 MSTORE POP SWAP1 POP SWAP1 JUMP JUMPDEST PUSH0 DUP2 SWAP1 POP SWAP2 SWAP1 POP JUMP JUMPDEST PUSH2 0xF7 DUP2 PUSH2 0xE5 JUMP JUMPDEST DUP3 MSTORE POP POP JUMP JUMPDEST PUSH0 PUSH1 0x20 DUP3 ADD SWAP1 POP PUSH2 0x110 PUSH0 DUP4 ADD DUP5 PUSH2 0xEE JUMP JUMPDEST SWAP3 SWAP2 POP POP JUMP JUMPDEST PUSH0 DUP2 MLOAD SWAP1 POP SWAP2 SWAP1 POP JUMP JUMPDEST PUSH0 DUP3 DUP3 MSTORE PUSH1 0x20 DUP3 ADD SWAP1 POP SWAP3 SWAP2 POP POP JUMP JUMPDEST DUP3 DUP2 DUP4 MCOPY PUSH0 DUP4 DUP4 ADD MSTORE POP POP POP JUMP JUMPDEST PUSH0 PUSH1 0x1F NOT PUSH1 0x1F DUP4 ADD AND SWAP1 POP SWAP2 SWAP1 POP JUMP JUMPDEST PUSH0 PUSH2 0x158 DUP3 PUSH2 0x116 JUMP JUMPDEST PUSH2 0x162 DUP2 DUP6 PUSH2 0x120 JUMP JUMPDEST SWAP4 POP PUSH2 0x172 DUP2 DUP6 PUSH1 0x20 DUP7 ADD PUSH2 0x130 JUMP JUMPDEST PUSH2 0x17B DUP2 PUSH2 0x13E JUMP JUMPDEST DUP5 ADD SWAP2 POP POP SWAP3 SWAP2 POP POP JUMP JUMPDEST PUSH0 PUSH1 0x20 DUP3 ADD SWAP1 POP DUP2 DUP2 SUB PUSH0 DUP4 ADD MSTORE PUSH2 0x19E DUP2 DUP5 PUSH2 0x14E JUMP JUMPDEST SWAP1 POP SWAP3 SWAP2 POP POP JUMP INVALID LOG2 PUSH5 0x6970667358 0x22 SLT KECCAK256 GASLIMIT 0xD9 TSTORE PUSH23 0x587041B2AAB3E4A791760511E18E7BAB2BA791FF3CD5CB PUSH20 0xA5F74F0D64736F6C634300081A00330000000000 "
				},
				"gasEstimates": {
					"creation": {
						"codeDepositCost": "95200",
						"executionCost": "infinite",
						"totalCost": "infinite"
					},
					"external": {
						"a()": "2402",
						"add()": "infinite",
						"value()": "2425"
					}
				},
				"methodIdentifiers": {
					"a()": "0dbe671f",
					"add()": "4f2be91f",
					"value()": "3fa4f245"
				}
			},
			"storageLayout": {
				"storage": [
					{
						"astId": 4,
						"contract": "contracts/17_overrideTest.sol:A",
						"label": "a",
						"offset": 0,
						"slot": "0",
						"type": "t_uint256"
					},
					{
						"astId": 6,
						"contract": "contracts/17_overrideTest.sol:A",
						"label": "value",
						"offset": 0,
						"slot": "1",
						"type": "t_uint256"
					}
				],
				"types": {
					"t_uint256": {
						"encoding": "inplace",
						"label": "uint256",
						"numberOfBytes": "32"
					}
				}
			},
			"userdoc": {
				"kind": "user",
				"methods": {},
				"version": 1
			}
		}
	}
}