{
	"contracts/11_structTest03.sol": {
		"test03": {
			"abi": [
				{
					"inputs": [
						{
							"internalType": "address",
							"name": "to",
							"type": "address"
						},
						{
							"internalType": "string",
							"name": "name",
							"type": "string"
						}
					],
					"name": "addTransaction",
					"outputs": [],
					"stateMutability": "nonpayable",
					"type": "function"
				},
				{
					"inputs": [
						{
							"internalType": "address",
							"name": "uid",
							"type": "address"
						},
						{
							"internalType": "uint256",
							"name": "balances",
							"type": "uint256"
						},
						{
							"internalType": "uint16",
							"name": "age",
							"type": "uint16"
						}
					],
					"name": "addUser",
					"outputs": [],
					"stateMutability": "nonpayable",
					"type": "function"
				},
				{
					"inputs": [
						{
							"internalType": "address",
							"name": "",
							"type": "address"
						}
					],
					"name": "users",
					"outputs": [
						{
							"internalType": "address",
							"name": "uid",
							"type": "address"
						},
						{
							"internalType": "uint256",
							"name": "balances",
							"type": "uint256"
						},
						{
							"internalType": "uint16",
							"name": "age",
							"type": "uint16"
						}
					],
					"stateMutability": "view",
					"type": "function"
				}
			],
			"devdoc": {
				"kind": "dev",
				"methods": {},
				"version": 1
			},
			"evm": {
				"assembly": "    /* \"contracts/11_structTest03.sol\":58:771  contract test03{... */\n  mstore(0x40, 0x80)\n  callvalue\n  dup1\n  iszero\n  tag_1\n  jumpi\n  0x00\n  dup1\n  revert\ntag_1:\n  pop\n  dataSize(sub_0)\n  dup1\n  dataOffset(sub_0)\n  0x00\n  codecopy\n  0x00\n  return\nstop\n\nsub_0: assembly {\n        /* \"contracts/11_structTest03.sol\":58:771  contract test03{... */\n      mstore(0x40, 0x80)\n      callvalue\n      dup1\n      iszero\n      tag_1\n      jumpi\n      0x00\n      dup1\n      revert\n    tag_1:\n      pop\n      jumpi(tag_2, lt(calldatasize, 0x04))\n      shr(0xe0, calldataload(0x00))\n      dup1\n      0x5244ea37\n      eq\n      tag_3\n      jumpi\n      dup1\n      0x53e62b58\n      eq\n      tag_4\n      jumpi\n      dup1\n      0xa87430ba\n      eq\n      tag_5\n      jumpi\n    tag_2:\n      0x00\n      dup1\n      revert\n        /* \"contracts/11_structTest03.sol\":529:766  function addTransaction(address to, string memory name)public {... */\n    tag_3:\n      tag_6\n      0x04\n      dup1\n      calldatasize\n      sub\n      dup2\n      add\n      swap1\n      tag_7\n      swap2\n      swap1\n      tag_8\n      jump\t// in\n    tag_7:\n      tag_9\n      jump\t// in\n    tag_6:\n      stop\n        /* \"contracts/11_structTest03.sol\":396:521  function addUser(address uid,uint256 balances , uint16 age ) public {... */\n    tag_4:\n      tag_10\n      0x04\n      dup1\n      calldatasize\n      sub\n      dup2\n      add\n      swap1\n      tag_11\n      swap2\n      swap1\n      tag_12\n      jump\t// in\n    tag_11:\n      tag_13\n      jump\t// in\n    tag_10:\n      stop\n        /* \"contracts/11_structTest03.sol\":345:387  mapping (address => Userful) public  users */\n    tag_5:\n      tag_14\n      0x04\n      dup1\n      calldatasize\n      sub\n      dup2\n      add\n      swap1\n      tag_15\n      swap2\n      swap1\n      tag_16\n      jump\t// in\n    tag_15:\n      tag_17\n      jump\t// in\n    tag_14:\n      mload(0x40)\n      tag_18\n      swap4\n      swap3\n      swap2\n      swap1\n      tag_19\n      jump\t// in\n    tag_18:\n      mload(0x40)\n      dup1\n      swap2\n      sub\n      swap1\n      return\n        /* \"contracts/11_structTest03.sol\":529:766  function addTransaction(address to, string memory name)public {... */\n    tag_9:\n        /* \"contracts/11_structTest03.sol\":608:623  bytes8 descHash */\n      0x00\n        /* \"contracts/11_structTest03.sol\":660:664  name */\n      dup2\n        /* \"contracts/11_structTest03.sol\":643:665  abi.encodePacked(name) */\n      add(0x20, mload(0x40))\n      tag_21\n      swap2\n      swap1\n      tag_22\n      jump\t// in\n    tag_21:\n      mload(0x40)\n      0x20\n      dup2\n      dup4\n      sub\n      sub\n      dup2\n      mstore\n      swap1\n      0x40\n      mstore\n        /* \"contracts/11_structTest03.sol\":633:666  keccak256(abi.encodePacked(name)) */\n      dup1\n      mload\n      swap1\n      0x20\n      add\n      keccak256\n        /* \"contracts/11_structTest03.sol\":608:667  bytes8 descHash = bytes8(keccak256(abi.encodePacked(name))) */\n      swap1\n      pop\n        /* \"contracts/11_structTest03.sol\":680:685  trans */\n      0x00\n        /* \"contracts/11_structTest03.sol\":680:697  trans[msg.sender] */\n      dup1\n        /* \"contracts/11_structTest03.sol\":686:696  msg.sender */\n      caller\n        /* \"contracts/11_structTest03.sol\":680:697  trans[msg.sender] */\n      0xffffffffffffffffffffffffffffffffffffffff\n      and\n      0xffffffffffffffffffffffffffffffffffffffff\n      and\n      dup2\n      mstore\n      0x20\n      add\n      swap1\n      dup2\n      mstore\n      0x20\n      add\n      0x00\n      keccak256\n        /* \"contracts/11_structTest03.sol\":704:757  Transaction({from: msg.sender,to : to,name:descHash}) */\n      mload(0x40)\n      dup1\n      0x60\n      add\n      0x40\n      mstore\n      dup1\n        /* \"contracts/11_structTest03.sol\":723:733  msg.sender */\n      caller\n        /* \"contracts/11_structTest03.sol\":704:757  Transaction({from: msg.sender,to : to,name:descHash}) */\n      0xffffffffffffffffffffffffffffffffffffffff\n      and\n      dup2\n      mstore\n      0x20\n      add\n        /* \"contracts/11_structTest03.sol\":739:741  to */\n      dup6\n        /* \"contracts/11_structTest03.sol\":704:757  Transaction({from: msg.sender,to : to,name:descHash}) */\n      0xffffffffffffffffffffffffffffffffffffffff\n      and\n      dup2\n      mstore\n      0x20\n      add\n        /* \"contracts/11_structTest03.sol\":747:755  descHash */\n      dup4\n        /* \"contracts/11_structTest03.sol\":704:757  Transaction({from: msg.sender,to : to,name:descHash}) */\n      not(0xffffffffffffffffffffffffffffffffffffffffffffffff)\n      and\n      dup2\n      mstore\n      pop\n        /* \"contracts/11_structTest03.sol\":680:758  trans[msg.sender].push( Transaction({from: msg.sender,to : to,name:descHash})) */\n      swap1\n      dup1\n      0x01\n      dup2\n      sload\n      add\n      dup1\n      dup3\n      sstore\n      dup1\n      swap2\n      pop\n      pop\n      0x01\n      swap1\n      sub\n      swap1\n      0x00\n      mstore\n      keccak256(0x00, 0x20)\n      swap1\n      0x02\n      mul\n      add\n      0x00\n      swap1\n      swap2\n      swap1\n      swap2\n      swap1\n      swap2\n      pop\n      0x00\n      dup3\n      add\n      mload\n      dup2\n      0x00\n      add\n      exp(0x0100, 0x00)\n      dup2\n      sload\n      dup2\n      0xffffffffffffffffffffffffffffffffffffffff\n      mul\n      not\n      and\n      swap1\n      dup4\n      0xffffffffffffffffffffffffffffffffffffffff\n      and\n      mul\n      or\n      swap1\n      sstore\n      pop\n      0x20\n      dup3\n      add\n      mload\n      dup2\n      0x01\n      add\n      exp(0x0100, 0x00)\n      dup2\n      sload\n      dup2\n      0xffffffffffffffffffffffffffffffffffffffff\n      mul\n      not\n      and\n      swap1\n      dup4\n      0xffffffffffffffffffffffffffffffffffffffff\n      and\n      mul\n      or\n      swap1\n      sstore\n      pop\n      0x40\n      dup3\n      add\n      mload\n      dup2\n      0x01\n      add\n      exp(0x0100, 0x14)\n      dup2\n      sload\n      dup2\n      0xffffffffffffffff\n      mul\n      not\n      and\n      swap1\n      dup4\n      0xc0\n      shr\n      mul\n      or\n      swap1\n      sstore\n      pop\n      pop\n      pop\n        /* \"contracts/11_structTest03.sol\":591:766  {... */\n      pop\n        /* \"contracts/11_structTest03.sol\":529:766  function addTransaction(address to, string memory name)public {... */\n      pop\n      pop\n      jump\t// out\n        /* \"contracts/11_structTest03.sol\":396:521  function addUser(address uid,uint256 balances , uint16 age ) public {... */\n    tag_13:\n        /* \"contracts/11_structTest03.sol\":488:513  Userful(uid,balances,age) */\n      mload(0x40)\n      dup1\n      0x60\n      add\n      0x40\n      mstore\n      dup1\n        /* \"contracts/11_structTest03.sol\":496:499  uid */\n      dup5\n        /* \"contracts/11_structTest03.sol\":488:513  Userful(uid,balances,age) */\n      0xffffffffffffffffffffffffffffffffffffffff\n      and\n      dup2\n      mstore\n      0x20\n      add\n        /* \"contracts/11_structTest03.sol\":500:508  balances */\n      dup4\n        /* \"contracts/11_structTest03.sol\":488:513  Userful(uid,balances,age) */\n      dup2\n      mstore\n      0x20\n      add\n        /* \"contracts/11_structTest03.sol\":509:512  age */\n      dup3\n        /* \"contracts/11_structTest03.sol\":488:513  Userful(uid,balances,age) */\n      0xffff\n      and\n      dup2\n      mstore\n      pop\n        /* \"contracts/11_structTest03.sol\":475:480  users */\n      0x01\n        /* \"contracts/11_structTest03.sol\":475:485  users[uid] */\n      0x00\n        /* \"contracts/11_structTest03.sol\":481:484  uid */\n      dup6\n        /* \"contracts/11_structTest03.sol\":475:485  users[uid] */\n      0xffffffffffffffffffffffffffffffffffffffff\n      and\n      0xffffffffffffffffffffffffffffffffffffffff\n      and\n      dup2\n      mstore\n      0x20\n      add\n      swap1\n      dup2\n      mstore\n      0x20\n      add\n      0x00\n      keccak256\n        /* \"contracts/11_structTest03.sol\":475:513  users[uid] = Userful(uid,balances,age) */\n      0x00\n      dup3\n      add\n      mload\n      dup2\n      0x00\n      add\n      exp(0x0100, 0x00)\n      dup2\n      sload\n      dup2\n      0xffffffffffffffffffffffffffffffffffffffff\n      mul\n      not\n      and\n      swap1\n      dup4\n      0xffffffffffffffffffffffffffffffffffffffff\n      and\n      mul\n      or\n      swap1\n      sstore\n      pop\n      0x20\n      dup3\n      add\n      mload\n      dup2\n      0x01\n      add\n      sstore\n      0x40\n      dup3\n      add\n      mload\n      dup2\n      0x02\n      add\n      exp(0x0100, 0x00)\n      dup2\n      sload\n      dup2\n      0xffff\n      mul\n      not\n      and\n      swap1\n      dup4\n      0xffff\n      and\n      mul\n      or\n      swap1\n      sstore\n      pop\n      swap1\n      pop\n      pop\n        /* \"contracts/11_structTest03.sol\":396:521  function addUser(address uid,uint256 balances , uint16 age ) public {... */\n      pop\n      pop\n      pop\n      jump\t// out\n        /* \"contracts/11_structTest03.sol\":345:387  mapping (address => Userful) public  users */\n    tag_17:\n      mstore(0x20, 0x01)\n      dup1\n      0x00\n      mstore\n      keccak256(0x00, 0x40)\n      0x00\n      swap2\n      pop\n      swap1\n      pop\n      dup1\n      0x00\n      add\n      0x00\n      swap1\n      sload\n      swap1\n      0x0100\n      exp\n      swap1\n      div\n      0xffffffffffffffffffffffffffffffffffffffff\n      and\n      swap1\n      dup1\n      0x01\n      add\n      sload\n      swap1\n      dup1\n      0x02\n      add\n      0x00\n      swap1\n      sload\n      swap1\n      0x0100\n      exp\n      swap1\n      div\n      0xffff\n      and\n      swap1\n      pop\n      dup4\n      jump\t// out\n        /* \"#utility.yul\":7:82   */\n    tag_25:\n        /* \"#utility.yul\":40:46   */\n      0x00\n        /* \"#utility.yul\":73:75   */\n      0x40\n        /* \"#utility.yul\":67:76   */\n      mload\n        /* \"#utility.yul\":57:76   */\n      swap1\n      pop\n        /* \"#utility.yul\":7:82   */\n      swap1\n      jump\t// out\n        /* \"#utility.yul\":88:205   */\n    tag_26:\n        /* \"#utility.yul\":197:198   */\n      0x00\n        /* \"#utility.yul\":194:195   */\n      dup1\n        /* \"#utility.yul\":187:199   */\n      revert\n        /* \"#utility.yul\":211:328   */\n    tag_27:\n        /* \"#utility.yul\":320:321   */\n      0x00\n        /* \"#utility.yul\":317:318   */\n      dup1\n        /* \"#utility.yul\":310:322   */\n      revert\n        /* \"#utility.yul\":334:460   */\n    tag_28:\n        /* \"#utility.yul\":371:378   */\n      0x00\n        /* \"#utility.yul\":411:453   */\n      0xffffffffffffffffffffffffffffffffffffffff\n        /* \"#utility.yul\":404:409   */\n      dup3\n        /* \"#utility.yul\":400:454   */\n      and\n        /* \"#utility.yul\":389:454   */\n      swap1\n      pop\n        /* \"#utility.yul\":334:460   */\n      swap2\n      swap1\n      pop\n      jump\t// out\n        /* \"#utility.yul\":466:562   */\n    tag_29:\n        /* \"#utility.yul\":503:510   */\n      0x00\n        /* \"#utility.yul\":532:556   */\n      tag_61\n        /* \"#utility.yul\":550:555   */\n      dup3\n        /* \"#utility.yul\":532:556   */\n      tag_28\n      jump\t// in\n    tag_61:\n        /* \"#utility.yul\":521:556   */\n      swap1\n      pop\n        /* \"#utility.yul\":466:562   */\n      swap2\n      swap1\n      pop\n      jump\t// out\n        /* \"#utility.yul\":568:690   */\n    tag_30:\n        /* \"#utility.yul\":641:665   */\n      tag_63\n        /* \"#utility.yul\":659:664   */\n      dup2\n        /* \"#utility.yul\":641:665   */\n      tag_29\n      jump\t// in\n    tag_63:\n        /* \"#utility.yul\":634:639   */\n      dup2\n        /* \"#utility.yul\":631:666   */\n      eq\n        /* \"#utility.yul\":621:684   */\n      tag_64\n      jumpi\n        /* \"#utility.yul\":680:681   */\n      0x00\n        /* \"#utility.yul\":677:678   */\n      dup1\n        /* \"#utility.yul\":670:682   */\n      revert\n        /* \"#utility.yul\":621:684   */\n    tag_64:\n        /* \"#utility.yul\":568:690   */\n      pop\n      jump\t// out\n        /* \"#utility.yul\":696:835   */\n    tag_31:\n        /* \"#utility.yul\":742:747   */\n      0x00\n        /* \"#utility.yul\":780:786   */\n      dup2\n        /* \"#utility.yul\":767:787   */\n      calldataload\n        /* \"#utility.yul\":758:787   */\n      swap1\n      pop\n        /* \"#utility.yul\":796:829   */\n      tag_66\n        /* \"#utility.yul\":823:828   */\n      dup2\n        /* \"#utility.yul\":796:829   */\n      tag_30\n      jump\t// in\n    tag_66:\n        /* \"#utility.yul\":696:835   */\n      swap3\n      swap2\n      pop\n      pop\n      jump\t// out\n        /* \"#utility.yul\":841:958   */\n    tag_32:\n        /* \"#utility.yul\":950:951   */\n      0x00\n        /* \"#utility.yul\":947:948   */\n      dup1\n        /* \"#utility.yul\":940:952   */\n      revert\n        /* \"#utility.yul\":964:1081   */\n    tag_33:\n        /* \"#utility.yul\":1073:1074   */\n      0x00\n        /* \"#utility.yul\":1070:1071   */\n      dup1\n        /* \"#utility.yul\":1063:1075   */\n      revert\n        /* \"#utility.yul\":1087:1189   */\n    tag_34:\n        /* \"#utility.yul\":1128:1134   */\n      0x00\n        /* \"#utility.yul\":1179:1181   */\n      0x1f\n        /* \"#utility.yul\":1175:1182   */\n      not\n        /* \"#utility.yul\":1170:1172   */\n      0x1f\n        /* \"#utility.yul\":1163:1168   */\n      dup4\n        /* \"#utility.yul\":1159:1173   */\n      add\n        /* \"#utility.yul\":1155:1183   */\n      and\n        /* \"#utility.yul\":1145:1183   */\n      swap1\n      pop\n        /* \"#utility.yul\":1087:1189   */\n      swap2\n      swap1\n      pop\n      jump\t// out\n        /* \"#utility.yul\":1195:1375   */\n    tag_35:\n        /* \"#utility.yul\":1243:1320   */\n      0x4e487b7100000000000000000000000000000000000000000000000000000000\n        /* \"#utility.yul\":1240:1241   */\n      0x00\n        /* \"#utility.yul\":1233:1321   */\n      mstore\n        /* \"#utility.yul\":1340:1344   */\n      0x41\n        /* \"#utility.yul\":1337:1338   */\n      0x04\n        /* \"#utility.yul\":1330:1345   */\n      mstore\n        /* \"#utility.yul\":1364:1368   */\n      0x24\n        /* \"#utility.yul\":1361:1362   */\n      0x00\n        /* \"#utility.yul\":1354:1369   */\n      revert\n        /* \"#utility.yul\":1381:1662   */\n    tag_36:\n        /* \"#utility.yul\":1464:1491   */\n      tag_72\n        /* \"#utility.yul\":1486:1490   */\n      dup3\n        /* \"#utility.yul\":1464:1491   */\n      tag_34\n      jump\t// in\n    tag_72:\n        /* \"#utility.yul\":1456:1462   */\n      dup2\n        /* \"#utility.yul\":1452:1492   */\n      add\n        /* \"#utility.yul\":1594:1600   */\n      dup2\n        /* \"#utility.yul\":1582:1592   */\n      dup2\n        /* \"#utility.yul\":1579:1601   */\n      lt\n        /* \"#utility.yul\":1558:1576   */\n      0xffffffffffffffff\n        /* \"#utility.yul\":1546:1556   */\n      dup3\n        /* \"#utility.yul\":1543:1577   */\n      gt\n        /* \"#utility.yul\":1540:1602   */\n      or\n        /* \"#utility.yul\":1537:1625   */\n      iszero\n      tag_73\n      jumpi\n        /* \"#utility.yul\":1605:1623   */\n      tag_74\n      tag_35\n      jump\t// in\n    tag_74:\n        /* \"#utility.yul\":1537:1625   */\n    tag_73:\n        /* \"#utility.yul\":1645:1655   */\n      dup1\n        /* \"#utility.yul\":1641:1643   */\n      0x40\n        /* \"#utility.yul\":1634:1656   */\n      mstore\n        /* \"#utility.yul\":1424:1662   */\n      pop\n        /* \"#utility.yul\":1381:1662   */\n      pop\n      pop\n      jump\t// out\n        /* \"#utility.yul\":1668:1797   */\n    tag_37:\n        /* \"#utility.yul\":1702:1708   */\n      0x00\n        /* \"#utility.yul\":1729:1749   */\n      tag_76\n      tag_25\n      jump\t// in\n    tag_76:\n        /* \"#utility.yul\":1719:1749   */\n      swap1\n      pop\n        /* \"#utility.yul\":1758:1791   */\n      tag_77\n        /* \"#utility.yul\":1786:1790   */\n      dup3\n        /* \"#utility.yul\":1778:1784   */\n      dup3\n        /* \"#utility.yul\":1758:1791   */\n      tag_36\n      jump\t// in\n    tag_77:\n        /* \"#utility.yul\":1668:1797   */\n      swap2\n      swap1\n      pop\n      jump\t// out\n        /* \"#utility.yul\":1803:2111   */\n    tag_38:\n        /* \"#utility.yul\":1865:1869   */\n      0x00\n        /* \"#utility.yul\":1955:1973   */\n      0xffffffffffffffff\n        /* \"#utility.yul\":1947:1953   */\n      dup3\n        /* \"#utility.yul\":1944:1974   */\n      gt\n        /* \"#utility.yul\":1941:1997   */\n      iszero\n      tag_79\n      jumpi\n        /* \"#utility.yul\":1977:1995   */\n      tag_80\n      tag_35\n      jump\t// in\n    tag_80:\n        /* \"#utility.yul\":1941:1997   */\n    tag_79:\n        /* \"#utility.yul\":2015:2044   */\n      tag_81\n        /* \"#utility.yul\":2037:2043   */\n      dup3\n        /* \"#utility.yul\":2015:2044   */\n      tag_34\n      jump\t// in\n    tag_81:\n        /* \"#utility.yul\":2007:2044   */\n      swap1\n      pop\n        /* \"#utility.yul\":2099:2103   */\n      0x20\n        /* \"#utility.yul\":2093:2097   */\n      dup2\n        /* \"#utility.yul\":2089:2104   */\n      add\n        /* \"#utility.yul\":2081:2104   */\n      swap1\n      pop\n        /* \"#utility.yul\":1803:2111   */\n      swap2\n      swap1\n      pop\n      jump\t// out\n        /* \"#utility.yul\":2117:2265   */\n    tag_39:\n        /* \"#utility.yul\":2215:2221   */\n      dup3\n        /* \"#utility.yul\":2210:2213   */\n      dup2\n        /* \"#utility.yul\":2205:2208   */\n      dup4\n        /* \"#utility.yul\":2192:2222   */\n      calldatacopy\n        /* \"#utility.yul\":2256:2257   */\n      0x00\n        /* \"#utility.yul\":2247:2253   */\n      dup4\n        /* \"#utility.yul\":2242:2245   */\n      dup4\n        /* \"#utility.yul\":2238:2254   */\n      add\n        /* \"#utility.yul\":2231:2258   */\n      mstore\n        /* \"#utility.yul\":2117:2265   */\n      pop\n      pop\n      pop\n      jump\t// out\n        /* \"#utility.yul\":2271:2696   */\n    tag_40:\n        /* \"#utility.yul\":2349:2354   */\n      0x00\n        /* \"#utility.yul\":2374:2440   */\n      tag_84\n        /* \"#utility.yul\":2390:2439   */\n      tag_85\n        /* \"#utility.yul\":2432:2438   */\n      dup5\n        /* \"#utility.yul\":2390:2439   */\n      tag_38\n      jump\t// in\n    tag_85:\n        /* \"#utility.yul\":2374:2440   */\n      tag_37\n      jump\t// in\n    tag_84:\n        /* \"#utility.yul\":2365:2440   */\n      swap1\n      pop\n        /* \"#utility.yul\":2463:2469   */\n      dup3\n        /* \"#utility.yul\":2456:2461   */\n      dup2\n        /* \"#utility.yul\":2449:2470   */\n      mstore\n        /* \"#utility.yul\":2501:2505   */\n      0x20\n        /* \"#utility.yul\":2494:2499   */\n      dup2\n        /* \"#utility.yul\":2490:2506   */\n      add\n        /* \"#utility.yul\":2539:2542   */\n      dup5\n        /* \"#utility.yul\":2530:2536   */\n      dup5\n        /* \"#utility.yul\":2525:2528   */\n      dup5\n        /* \"#utility.yul\":2521:2537   */\n      add\n        /* \"#utility.yul\":2518:2543   */\n      gt\n        /* \"#utility.yul\":2515:2627   */\n      iszero\n      tag_86\n      jumpi\n        /* \"#utility.yul\":2546:2625   */\n      tag_87\n      tag_33\n      jump\t// in\n    tag_87:\n        /* \"#utility.yul\":2515:2627   */\n    tag_86:\n        /* \"#utility.yul\":2636:2690   */\n      tag_88\n        /* \"#utility.yul\":2683:2689   */\n      dup5\n        /* \"#utility.yul\":2678:2681   */\n      dup3\n        /* \"#utility.yul\":2673:2676   */\n      dup6\n        /* \"#utility.yul\":2636:2690   */\n      tag_39\n      jump\t// in\n    tag_88:\n        /* \"#utility.yul\":2355:2696   */\n      pop\n        /* \"#utility.yul\":2271:2696   */\n      swap4\n      swap3\n      pop\n      pop\n      pop\n      jump\t// out\n        /* \"#utility.yul\":2716:3056   */\n    tag_41:\n        /* \"#utility.yul\":2772:2777   */\n      0x00\n        /* \"#utility.yul\":2821:2824   */\n      dup3\n        /* \"#utility.yul\":2814:2818   */\n      0x1f\n        /* \"#utility.yul\":2806:2812   */\n      dup4\n        /* \"#utility.yul\":2802:2819   */\n      add\n        /* \"#utility.yul\":2798:2825   */\n      slt\n        /* \"#utility.yul\":2788:2910   */\n      tag_90\n      jumpi\n        /* \"#utility.yul\":2829:2908   */\n      tag_91\n      tag_32\n      jump\t// in\n    tag_91:\n        /* \"#utility.yul\":2788:2910   */\n    tag_90:\n        /* \"#utility.yul\":2946:2952   */\n      dup2\n        /* \"#utility.yul\":2933:2953   */\n      calldataload\n        /* \"#utility.yul\":2971:3050   */\n      tag_92\n        /* \"#utility.yul\":3046:3049   */\n      dup5\n        /* \"#utility.yul\":3038:3044   */\n      dup3\n        /* \"#utility.yul\":3031:3035   */\n      0x20\n        /* \"#utility.yul\":3023:3029   */\n      dup7\n        /* \"#utility.yul\":3019:3036   */\n      add\n        /* \"#utility.yul\":2971:3050   */\n      tag_40\n      jump\t// in\n    tag_92:\n        /* \"#utility.yul\":2962:3050   */\n      swap2\n      pop\n        /* \"#utility.yul\":2778:3056   */\n      pop\n        /* \"#utility.yul\":2716:3056   */\n      swap3\n      swap2\n      pop\n      pop\n      jump\t// out\n        /* \"#utility.yul\":3062:3716   */\n    tag_8:\n        /* \"#utility.yul\":3140:3146   */\n      0x00\n        /* \"#utility.yul\":3148:3154   */\n      dup1\n        /* \"#utility.yul\":3197:3199   */\n      0x40\n        /* \"#utility.yul\":3185:3194   */\n      dup4\n        /* \"#utility.yul\":3176:3183   */\n      dup6\n        /* \"#utility.yul\":3172:3195   */\n      sub\n        /* \"#utility.yul\":3168:3200   */\n      slt\n        /* \"#utility.yul\":3165:3284   */\n      iszero\n      tag_94\n      jumpi\n        /* \"#utility.yul\":3203:3282   */\n      tag_95\n      tag_26\n      jump\t// in\n    tag_95:\n        /* \"#utility.yul\":3165:3284   */\n    tag_94:\n        /* \"#utility.yul\":3323:3324   */\n      0x00\n        /* \"#utility.yul\":3348:3401   */\n      tag_96\n        /* \"#utility.yul\":3393:3400   */\n      dup6\n        /* \"#utility.yul\":3384:3390   */\n      dup3\n        /* \"#utility.yul\":3373:3382   */\n      dup7\n        /* \"#utility.yul\":3369:3391   */\n      add\n        /* \"#utility.yul\":3348:3401   */\n      tag_31\n      jump\t// in\n    tag_96:\n        /* \"#utility.yul\":3338:3401   */\n      swap3\n      pop\n        /* \"#utility.yul\":3294:3411   */\n      pop\n        /* \"#utility.yul\":3478:3480   */\n      0x20\n        /* \"#utility.yul\":3467:3476   */\n      dup4\n        /* \"#utility.yul\":3463:3481   */\n      add\n        /* \"#utility.yul\":3450:3482   */\n      calldataload\n        /* \"#utility.yul\":3509:3527   */\n      0xffffffffffffffff\n        /* \"#utility.yul\":3501:3507   */\n      dup2\n        /* \"#utility.yul\":3498:3528   */\n      gt\n        /* \"#utility.yul\":3495:3612   */\n      iszero\n      tag_97\n      jumpi\n        /* \"#utility.yul\":3531:3610   */\n      tag_98\n      tag_27\n      jump\t// in\n    tag_98:\n        /* \"#utility.yul\":3495:3612   */\n    tag_97:\n        /* \"#utility.yul\":3636:3699   */\n      tag_99\n        /* \"#utility.yul\":3691:3698   */\n      dup6\n        /* \"#utility.yul\":3682:3688   */\n      dup3\n        /* \"#utility.yul\":3671:3680   */\n      dup7\n        /* \"#utility.yul\":3667:3689   */\n      add\n        /* \"#utility.yul\":3636:3699   */\n      tag_41\n      jump\t// in\n    tag_99:\n        /* \"#utility.yul\":3626:3699   */\n      swap2\n      pop\n        /* \"#utility.yul\":3421:3709   */\n      pop\n        /* \"#utility.yul\":3062:3716   */\n      swap3\n      pop\n      swap3\n      swap1\n      pop\n      jump\t// out\n        /* \"#utility.yul\":3722:3799   */\n    tag_42:\n        /* \"#utility.yul\":3759:3766   */\n      0x00\n        /* \"#utility.yul\":3788:3793   */\n      dup2\n        /* \"#utility.yul\":3777:3793   */\n      swap1\n      pop\n        /* \"#utility.yul\":3722:3799   */\n      swap2\n      swap1\n      pop\n      jump\t// out\n        /* \"#utility.yul\":3805:3927   */\n    tag_43:\n        /* \"#utility.yul\":3878:3902   */\n      tag_102\n        /* \"#utility.yul\":3896:3901   */\n      dup2\n        /* \"#utility.yul\":3878:3902   */\n      tag_42\n      jump\t// in\n    tag_102:\n        /* \"#utility.yul\":3871:3876   */\n      dup2\n        /* \"#utility.yul\":3868:3903   */\n      eq\n        /* \"#utility.yul\":3858:3921   */\n      tag_103\n      jumpi\n        /* \"#utility.yul\":3917:3918   */\n      0x00\n        /* \"#utility.yul\":3914:3915   */\n      dup1\n        /* \"#utility.yul\":3907:3919   */\n      revert\n        /* \"#utility.yul\":3858:3921   */\n    tag_103:\n        /* \"#utility.yul\":3805:3927   */\n      pop\n      jump\t// out\n        /* \"#utility.yul\":3933:4072   */\n    tag_44:\n        /* \"#utility.yul\":3979:3984   */\n      0x00\n        /* \"#utility.yul\":4017:4023   */\n      dup2\n        /* \"#utility.yul\":4004:4024   */\n      calldataload\n        /* \"#utility.yul\":3995:4024   */\n      swap1\n      pop\n        /* \"#utility.yul\":4033:4066   */\n      tag_105\n        /* \"#utility.yul\":4060:4065   */\n      dup2\n        /* \"#utility.yul\":4033:4066   */\n      tag_43\n      jump\t// in\n    tag_105:\n        /* \"#utility.yul\":3933:4072   */\n      swap3\n      swap2\n      pop\n      pop\n      jump\t// out\n        /* \"#utility.yul\":4078:4167   */\n    tag_45:\n        /* \"#utility.yul\":4114:4121   */\n      0x00\n        /* \"#utility.yul\":4154:4160   */\n      0xffff\n        /* \"#utility.yul\":4147:4152   */\n      dup3\n        /* \"#utility.yul\":4143:4161   */\n      and\n        /* \"#utility.yul\":4132:4161   */\n      swap1\n      pop\n        /* \"#utility.yul\":4078:4167   */\n      swap2\n      swap1\n      pop\n      jump\t// out\n        /* \"#utility.yul\":4173:4293   */\n    tag_46:\n        /* \"#utility.yul\":4245:4268   */\n      tag_108\n        /* \"#utility.yul\":4262:4267   */\n      dup2\n        /* \"#utility.yul\":4245:4268   */\n      tag_45\n      jump\t// in\n    tag_108:\n        /* \"#utility.yul\":4238:4243   */\n      dup2\n        /* \"#utility.yul\":4235:4269   */\n      eq\n        /* \"#utility.yul\":4225:4287   */\n      tag_109\n      jumpi\n        /* \"#utility.yul\":4283:4284   */\n      0x00\n        /* \"#utility.yul\":4280:4281   */\n      dup1\n        /* \"#utility.yul\":4273:4285   */\n      revert\n        /* \"#utility.yul\":4225:4287   */\n    tag_109:\n        /* \"#utility.yul\":4173:4293   */\n      pop\n      jump\t// out\n        /* \"#utility.yul\":4299:4436   */\n    tag_47:\n        /* \"#utility.yul\":4344:4349   */\n      0x00\n        /* \"#utility.yul\":4382:4388   */\n      dup2\n        /* \"#utility.yul\":4369:4389   */\n      calldataload\n        /* \"#utility.yul\":4360:4389   */\n      swap1\n      pop\n        /* \"#utility.yul\":4398:4430   */\n      tag_111\n        /* \"#utility.yul\":4424:4429   */\n      dup2\n        /* \"#utility.yul\":4398:4430   */\n      tag_46\n      jump\t// in\n    tag_111:\n        /* \"#utility.yul\":4299:4436   */\n      swap3\n      swap2\n      pop\n      pop\n      jump\t// out\n        /* \"#utility.yul\":4442:5059   */\n    tag_12:\n        /* \"#utility.yul\":4518:4524   */\n      0x00\n        /* \"#utility.yul\":4526:4532   */\n      dup1\n        /* \"#utility.yul\":4534:4540   */\n      0x00\n        /* \"#utility.yul\":4583:4585   */\n      0x60\n        /* \"#utility.yul\":4571:4580   */\n      dup5\n        /* \"#utility.yul\":4562:4569   */\n      dup7\n        /* \"#utility.yul\":4558:4581   */\n      sub\n        /* \"#utility.yul\":4554:4586   */\n      slt\n        /* \"#utility.yul\":4551:4670   */\n      iszero\n      tag_113\n      jumpi\n        /* \"#utility.yul\":4589:4668   */\n      tag_114\n      tag_26\n      jump\t// in\n    tag_114:\n        /* \"#utility.yul\":4551:4670   */\n    tag_113:\n        /* \"#utility.yul\":4709:4710   */\n      0x00\n        /* \"#utility.yul\":4734:4787   */\n      tag_115\n        /* \"#utility.yul\":4779:4786   */\n      dup7\n        /* \"#utility.yul\":4770:4776   */\n      dup3\n        /* \"#utility.yul\":4759:4768   */\n      dup8\n        /* \"#utility.yul\":4755:4777   */\n      add\n        /* \"#utility.yul\":4734:4787   */\n      tag_31\n      jump\t// in\n    tag_115:\n        /* \"#utility.yul\":4724:4787   */\n      swap4\n      pop\n        /* \"#utility.yul\":4680:4797   */\n      pop\n        /* \"#utility.yul\":4836:4838   */\n      0x20\n        /* \"#utility.yul\":4862:4915   */\n      tag_116\n        /* \"#utility.yul\":4907:4914   */\n      dup7\n        /* \"#utility.yul\":4898:4904   */\n      dup3\n        /* \"#utility.yul\":4887:4896   */\n      dup8\n        /* \"#utility.yul\":4883:4905   */\n      add\n        /* \"#utility.yul\":4862:4915   */\n      tag_44\n      jump\t// in\n    tag_116:\n        /* \"#utility.yul\":4852:4915   */\n      swap3\n      pop\n        /* \"#utility.yul\":4807:4925   */\n      pop\n        /* \"#utility.yul\":4964:4966   */\n      0x40\n        /* \"#utility.yul\":4990:5042   */\n      tag_117\n        /* \"#utility.yul\":5034:5041   */\n      dup7\n        /* \"#utility.yul\":5025:5031   */\n      dup3\n        /* \"#utility.yul\":5014:5023   */\n      dup8\n        /* \"#utility.yul\":5010:5032   */\n      add\n        /* \"#utility.yul\":4990:5042   */\n      tag_47\n      jump\t// in\n    tag_117:\n        /* \"#utility.yul\":4980:5042   */\n      swap2\n      pop\n        /* \"#utility.yul\":4935:5052   */\n      pop\n        /* \"#utility.yul\":4442:5059   */\n      swap3\n      pop\n      swap3\n      pop\n      swap3\n      jump\t// out\n        /* \"#utility.yul\":5065:5394   */\n    tag_16:\n        /* \"#utility.yul\":5124:5130   */\n      0x00\n        /* \"#utility.yul\":5173:5175   */\n      0x20\n        /* \"#utility.yul\":5161:5170   */\n      dup3\n        /* \"#utility.yul\":5152:5159   */\n      dup5\n        /* \"#utility.yul\":5148:5171   */\n      sub\n        /* \"#utility.yul\":5144:5176   */\n      slt\n        /* \"#utility.yul\":5141:5260   */\n      iszero\n      tag_119\n      jumpi\n        /* \"#utility.yul\":5179:5258   */\n      tag_120\n      tag_26\n      jump\t// in\n    tag_120:\n        /* \"#utility.yul\":5141:5260   */\n    tag_119:\n        /* \"#utility.yul\":5299:5300   */\n      0x00\n        /* \"#utility.yul\":5324:5377   */\n      tag_121\n        /* \"#utility.yul\":5369:5376   */\n      dup5\n        /* \"#utility.yul\":5360:5366   */\n      dup3\n        /* \"#utility.yul\":5349:5358   */\n      dup6\n        /* \"#utility.yul\":5345:5367   */\n      add\n        /* \"#utility.yul\":5324:5377   */\n      tag_31\n      jump\t// in\n    tag_121:\n        /* \"#utility.yul\":5314:5377   */\n      swap2\n      pop\n        /* \"#utility.yul\":5270:5387   */\n      pop\n        /* \"#utility.yul\":5065:5394   */\n      swap3\n      swap2\n      pop\n      pop\n      jump\t// out\n        /* \"#utility.yul\":5400:5518   */\n    tag_48:\n        /* \"#utility.yul\":5487:5511   */\n      tag_123\n        /* \"#utility.yul\":5505:5510   */\n      dup2\n        /* \"#utility.yul\":5487:5511   */\n      tag_29\n      jump\t// in\n    tag_123:\n        /* \"#utility.yul\":5482:5485   */\n      dup3\n        /* \"#utility.yul\":5475:5512   */\n      mstore\n        /* \"#utility.yul\":5400:5518   */\n      pop\n      pop\n      jump\t// out\n        /* \"#utility.yul\":5524:5642   */\n    tag_49:\n        /* \"#utility.yul\":5611:5635   */\n      tag_125\n        /* \"#utility.yul\":5629:5634   */\n      dup2\n        /* \"#utility.yul\":5611:5635   */\n      tag_42\n      jump\t// in\n    tag_125:\n        /* \"#utility.yul\":5606:5609   */\n      dup3\n        /* \"#utility.yul\":5599:5636   */\n      mstore\n        /* \"#utility.yul\":5524:5642   */\n      pop\n      pop\n      jump\t// out\n        /* \"#utility.yul\":5648:5763   */\n    tag_50:\n        /* \"#utility.yul\":5733:5756   */\n      tag_127\n        /* \"#utility.yul\":5750:5755   */\n      dup2\n        /* \"#utility.yul\":5733:5756   */\n      tag_45\n      jump\t// in\n    tag_127:\n        /* \"#utility.yul\":5728:5731   */\n      dup3\n        /* \"#utility.yul\":5721:5757   */\n      mstore\n        /* \"#utility.yul\":5648:5763   */\n      pop\n      pop\n      jump\t// out\n        /* \"#utility.yul\":5769:6207   */\n    tag_19:\n        /* \"#utility.yul\":5916:5920   */\n      0x00\n        /* \"#utility.yul\":5954:5956   */\n      0x60\n        /* \"#utility.yul\":5943:5952   */\n      dup3\n        /* \"#utility.yul\":5939:5957   */\n      add\n        /* \"#utility.yul\":5931:5957   */\n      swap1\n      pop\n        /* \"#utility.yul\":5967:6038   */\n      tag_129\n        /* \"#utility.yul\":6035:6036   */\n      0x00\n        /* \"#utility.yul\":6024:6033   */\n      dup4\n        /* \"#utility.yul\":6020:6037   */\n      add\n        /* \"#utility.yul\":6011:6017   */\n      dup7\n        /* \"#utility.yul\":5967:6038   */\n      tag_48\n      jump\t// in\n    tag_129:\n        /* \"#utility.yul\":6048:6120   */\n      tag_130\n        /* \"#utility.yul\":6116:6118   */\n      0x20\n        /* \"#utility.yul\":6105:6114   */\n      dup4\n        /* \"#utility.yul\":6101:6119   */\n      add\n        /* \"#utility.yul\":6092:6098   */\n      dup6\n        /* \"#utility.yul\":6048:6120   */\n      tag_49\n      jump\t// in\n    tag_130:\n        /* \"#utility.yul\":6130:6200   */\n      tag_131\n        /* \"#utility.yul\":6196:6198   */\n      0x40\n        /* \"#utility.yul\":6185:6194   */\n      dup4\n        /* \"#utility.yul\":6181:6199   */\n      add\n        /* \"#utility.yul\":6172:6178   */\n      dup5\n        /* \"#utility.yul\":6130:6200   */\n      tag_50\n      jump\t// in\n    tag_131:\n        /* \"#utility.yul\":5769:6207   */\n      swap5\n      swap4\n      pop\n      pop\n      pop\n      pop\n      jump\t// out\n        /* \"#utility.yul\":6213:6312   */\n    tag_51:\n        /* \"#utility.yul\":6265:6271   */\n      0x00\n        /* \"#utility.yul\":6299:6304   */\n      dup2\n        /* \"#utility.yul\":6293:6305   */\n      mload\n        /* \"#utility.yul\":6283:6305   */\n      swap1\n      pop\n        /* \"#utility.yul\":6213:6312   */\n      swap2\n      swap1\n      pop\n      jump\t// out\n        /* \"#utility.yul\":6318:6466   */\n    tag_52:\n        /* \"#utility.yul\":6420:6431   */\n      0x00\n        /* \"#utility.yul\":6457:6460   */\n      dup2\n        /* \"#utility.yul\":6442:6460   */\n      swap1\n      pop\n        /* \"#utility.yul\":6318:6466   */\n      swap3\n      swap2\n      pop\n      pop\n      jump\t// out\n        /* \"#utility.yul\":6472:6611   */\n    tag_53:\n        /* \"#utility.yul\":6561:6567   */\n      dup3\n        /* \"#utility.yul\":6556:6559   */\n      dup2\n        /* \"#utility.yul\":6551:6554   */\n      dup4\n        /* \"#utility.yul\":6545:6568   */\n      mcopy\n        /* \"#utility.yul\":6602:6603   */\n      0x00\n        /* \"#utility.yul\":6593:6599   */\n      dup4\n        /* \"#utility.yul\":6588:6591   */\n      dup4\n        /* \"#utility.yul\":6584:6600   */\n      add\n        /* \"#utility.yul\":6577:6604   */\n      mstore\n        /* \"#utility.yul\":6472:6611   */\n      pop\n      pop\n      pop\n      jump\t// out\n        /* \"#utility.yul\":6617:7007   */\n    tag_54:\n        /* \"#utility.yul\":6723:6726   */\n      0x00\n        /* \"#utility.yul\":6751:6790   */\n      tag_136\n        /* \"#utility.yul\":6784:6789   */\n      dup3\n        /* \"#utility.yul\":6751:6790   */\n      tag_51\n      jump\t// in\n    tag_136:\n        /* \"#utility.yul\":6806:6895   */\n      tag_137\n        /* \"#utility.yul\":6888:6894   */\n      dup2\n        /* \"#utility.yul\":6883:6886   */\n      dup6\n        /* \"#utility.yul\":6806:6895   */\n      tag_52\n      jump\t// in\n    tag_137:\n        /* \"#utility.yul\":6799:6895   */\n      swap4\n      pop\n        /* \"#utility.yul\":6904:6969   */\n      tag_138\n        /* \"#utility.yul\":6962:6968   */\n      dup2\n        /* \"#utility.yul\":6957:6960   */\n      dup6\n        /* \"#utility.yul\":6950:6954   */\n      0x20\n        /* \"#utility.yul\":6943:6948   */\n      dup7\n        /* \"#utility.yul\":6939:6955   */\n      add\n        /* \"#utility.yul\":6904:6969   */\n      tag_53\n      jump\t// in\n    tag_138:\n        /* \"#utility.yul\":6994:7000   */\n      dup1\n        /* \"#utility.yul\":6989:6992   */\n      dup5\n        /* \"#utility.yul\":6985:7001   */\n      add\n        /* \"#utility.yul\":6978:7001   */\n      swap2\n      pop\n        /* \"#utility.yul\":6727:7007   */\n      pop\n        /* \"#utility.yul\":6617:7007   */\n      swap3\n      swap2\n      pop\n      pop\n      jump\t// out\n        /* \"#utility.yul\":7013:7288   */\n    tag_22:\n        /* \"#utility.yul\":7145:7148   */\n      0x00\n        /* \"#utility.yul\":7167:7262   */\n      tag_140\n        /* \"#utility.yul\":7258:7261   */\n      dup3\n        /* \"#utility.yul\":7249:7255   */\n      dup5\n        /* \"#utility.yul\":7167:7262   */\n      tag_54\n      jump\t// in\n    tag_140:\n        /* \"#utility.yul\":7160:7262   */\n      swap2\n      pop\n        /* \"#utility.yul\":7279:7282   */\n      dup2\n        /* \"#utility.yul\":7272:7282   */\n      swap1\n      pop\n        /* \"#utility.yul\":7013:7288   */\n      swap3\n      swap2\n      pop\n      pop\n      jump\t// out\n\n    auxdata: 0xa2646970667358221220c734465a1caad9b476fdd7fea04b131c0a75c51279fd8db920e455dc058db22f64736f6c634300081a0033\n}\n",
				"bytecode": {
					"linkReferences": {},
					"object": "6080604052348015600e575f80fd5b506107768061001c5f395ff3fe608060405234801561000f575f80fd5b506004361061003f575f3560e01c80635244ea371461004357806353e62b581461005f578063a87430ba1461007b575b5f80fd5b61005d60048036038101906100589190610537565b6100ad565b005b610079600480360381019061007491906105fb565b610254565b005b6100956004803603810190610090919061064b565b61033e565b6040516100a4939291906106a3565b60405180910390f35b5f816040516020016100bf919061072a565b6040516020818303038152906040528051906020012090505f803373ffffffffffffffffffffffffffffffffffffffff1673ffffffffffffffffffffffffffffffffffffffff1681526020019081526020015f2060405180606001604052803373ffffffffffffffffffffffffffffffffffffffff1681526020018573ffffffffffffffffffffffffffffffffffffffff1681526020018377ffffffffffffffffffffffffffffffffffffffffffffffff1916815250908060018154018082558091505060019003905f5260205f2090600202015f909190919091505f820151815f015f6101000a81548173ffffffffffffffffffffffffffffffffffffffff021916908373ffffffffffffffffffffffffffffffffffffffff1602179055506020820151816001015f6101000a81548173ffffffffffffffffffffffffffffffffffffffff021916908373ffffffffffffffffffffffffffffffffffffffff16021790555060408201518160010160146101000a81548167ffffffffffffffff021916908360c01c02179055505050505050565b60405180606001604052808473ffffffffffffffffffffffffffffffffffffffff1681526020018381526020018261ffff1681525060015f8573ffffffffffffffffffffffffffffffffffffffff1673ffffffffffffffffffffffffffffffffffffffff1681526020019081526020015f205f820151815f015f6101000a81548173ffffffffffffffffffffffffffffffffffffffff021916908373ffffffffffffffffffffffffffffffffffffffff160217905550602082015181600101556040820151816002015f6101000a81548161ffff021916908361ffff160217905550905050505050565b6001602052805f5260405f205f91509050805f015f9054906101000a900473ffffffffffffffffffffffffffffffffffffffff1690806001015490806002015f9054906101000a900461ffff16905083565b5f604051905090565b5f80fd5b5f80fd5b5f73ffffffffffffffffffffffffffffffffffffffff82169050919050565b5f6103ca826103a1565b9050919050565b6103da816103c0565b81146103e4575f80fd5b50565b5f813590506103f5816103d1565b92915050565b5f80fd5b5f80fd5b5f601f19601f8301169050919050565b7f4e487b71000000000000000000000000000000000000000000000000000000005f52604160045260245ffd5b61044982610403565b810181811067ffffffffffffffff8211171561046857610467610413565b5b80604052505050565b5f61047a610390565b90506104868282610440565b919050565b5f67ffffffffffffffff8211156104a5576104a4610413565b5b6104ae82610403565b9050602081019050919050565b828183375f83830152505050565b5f6104db6104d68461048b565b610471565b9050828152602081018484840111156104f7576104f66103ff565b5b6105028482856104bb565b509392505050565b5f82601f83011261051e5761051d6103fb565b5b813561052e8482602086016104c9565b91505092915050565b5f806040838503121561054d5761054c610399565b5b5f61055a858286016103e7565b925050602083013567ffffffffffffffff81111561057b5761057a61039d565b5b6105878582860161050a565b9150509250929050565b5f819050919050565b6105a381610591565b81146105ad575f80fd5b50565b5f813590506105be8161059a565b92915050565b5f61ffff82169050919050565b6105da816105c4565b81146105e4575f80fd5b50565b5f813590506105f5816105d1565b92915050565b5f805f6060848603121561061257610611610399565b5b5f61061f868287016103e7565b9350506020610630868287016105b0565b9250506040610641868287016105e7565b9150509250925092565b5f602082840312156106605761065f610399565b5b5f61066d848285016103e7565b91505092915050565b61067f816103c0565b82525050565b61068e81610591565b82525050565b61069d816105c4565b82525050565b5f6060820190506106b65f830186610676565b6106c36020830185610685565b6106d06040830184610694565b949350505050565b5f81519050919050565b5f81905092915050565b8281835e5f83830152505050565b5f610704826106d8565b61070e81856106e2565b935061071e8185602086016106ec565b80840191505092915050565b5f61073582846106fa565b91508190509291505056fea2646970667358221220c734465a1caad9b476fdd7fea04b131c0a75c51279fd8db920e455dc058db22f64736f6c634300081a0033",
					"opcodes": "PUSH1 0x80 PUSH1 0x40 MSTORE CALLVALUE DUP1 ISZERO PUSH1 0xE JUMPI PUSH0 DUP1 REVERT JUMPDEST POP PUSH2 0x776 DUP1 PUSH2 0x1C PUSH0 CODECOPY PUSH0 RETURN INVALID PUSH1 0x80 PUSH1 0x40 MSTORE CALLVALUE DUP1 ISZERO PUSH2 0xF JUMPI PUSH0 DUP1 REVERT JUMPDEST POP PUSH1 0x4 CALLDATASIZE LT PUSH2 0x3F JUMPI PUSH0 CALLDATALOAD PUSH1 0xE0 SHR DUP1 PUSH4 0x5244EA37 EQ PUSH2 0x43 JUMPI DUP1 PUSH4 0x53E62B58 EQ PUSH2 0x5F JUMPI DUP1 PUSH4 0xA87430BA EQ PUSH2 0x7B JUMPI JUMPDEST PUSH0 DUP1 REVERT JUMPDEST PUSH2 0x5D PUSH1 0x4 DUP1 CALLDATASIZE SUB DUP2 ADD SWAP1 PUSH2 0x58 SWAP2 SWAP1 PUSH2 0x537 JUMP JUMPDEST PUSH2 0xAD JUMP JUMPDEST STOP JUMPDEST PUSH2 0x79 PUSH1 0x4 DUP1 CALLDATASIZE SUB DUP2 ADD SWAP1 PUSH2 0x74 SWAP2 SWAP1 PUSH2 0x5FB JUMP JUMPDEST PUSH2 0x254 JUMP JUMPDEST STOP JUMPDEST PUSH2 0x95 PUSH1 0x4 DUP1 CALLDATASIZE SUB DUP2 ADD SWAP1 PUSH2 0x90 SWAP2 SWAP1 PUSH2 0x64B JUMP JUMPDEST PUSH2 0x33E JUMP JUMPDEST PUSH1 0x40 MLOAD PUSH2 0xA4 SWAP4 SWAP3 SWAP2 SWAP1 PUSH2 0x6A3 JUMP JUMPDEST PUSH1 0x40 MLOAD DUP1 SWAP2 SUB SWAP1 RETURN JUMPDEST PUSH0 DUP2 PUSH1 0x40 MLOAD PUSH1 0x20 ADD PUSH2 0xBF SWAP2 SWAP1 PUSH2 0x72A JUMP JUMPDEST PUSH1 0x40 MLOAD PUSH1 0x20 DUP2 DUP4 SUB SUB DUP2 MSTORE SWAP1 PUSH1 0x40 MSTORE DUP1 MLOAD SWAP1 PUSH1 0x20 ADD KECCAK256 SWAP1 POP PUSH0 DUP1 CALLER PUSH20 0xFFFFFFFFFFFFFFFFFFFFFFFFFFFFFFFFFFFFFFFF AND PUSH20 0xFFFFFFFFFFFFFFFFFFFFFFFFFFFFFFFFFFFFFFFF AND DUP2 MSTORE PUSH1 0x20 ADD SWAP1 DUP2 MSTORE PUSH1 0x20 ADD PUSH0 KECCAK256 PUSH1 0x40 MLOAD DUP1 PUSH1 0x60 ADD PUSH1 0x40 MSTORE DUP1 CALLER PUSH20 0xFFFFFFFFFFFFFFFFFFFFFFFFFFFFFFFFFFFFFFFF AND DUP2 MSTORE PUSH1 0x20 ADD DUP6 PUSH20 0xFFFFFFFFFFFFFFFFFFFFFFFFFFFFFFFFFFFFFFFF AND DUP2 MSTORE PUSH1 0x20 ADD DUP4 PUSH24 0xFFFFFFFFFFFFFFFFFFFFFFFFFFFFFFFFFFFFFFFFFFFFFFFF NOT AND DUP2 MSTORE POP SWAP1 DUP1 PUSH1 0x1 DUP2 SLOAD ADD DUP1 DUP3 SSTORE DUP1 SWAP2 POP POP PUSH1 0x1 SWAP1 SUB SWAP1 PUSH0 MSTORE PUSH1 0x20 PUSH0 KECCAK256 SWAP1 PUSH1 0x2 MUL ADD PUSH0 SWAP1 SWAP2 SWAP1 SWAP2 SWAP1 SWAP2 POP PUSH0 DUP3 ADD MLOAD DUP2 PUSH0 ADD PUSH0 PUSH2 0x100 EXP DUP2 SLOAD DUP2 PUSH20 0xFFFFFFFFFFFFFFFFFFFFFFFFFFFFFFFFFFFFFFFF MUL NOT AND SWAP1 DUP4 PUSH20 0xFFFFFFFFFFFFFFFFFFFFFFFFFFFFFFFFFFFFFFFF AND MUL OR SWAP1 SSTORE POP PUSH1 0x20 DUP3 ADD MLOAD DUP2 PUSH1 0x1 ADD PUSH0 PUSH2 0x100 EXP DUP2 SLOAD DUP2 PUSH20 0xFFFFFFFFFFFFFFFFFFFFFFFFFFFFFFFFFFFFFFFF MUL NOT AND SWAP1 DUP4 PUSH20 0xFFFFFFFFFFFFFFFFFFFFFFFFFFFFFFFFFFFFFFFF AND MUL OR SWAP1 SSTORE POP PUSH1 0x40 DUP3 ADD MLOAD DUP2 PUSH1 0x1 ADD PUSH1 0x14 PUSH2 0x100 EXP DUP2 SLOAD DUP2 PUSH8 0xFFFFFFFFFFFFFFFF MUL NOT AND SWAP1 DUP4 PUSH1 0xC0 SHR MUL OR SWAP1 SSTORE POP POP POP POP POP POP JUMP JUMPDEST PUSH1 0x40 MLOAD DUP1 PUSH1 0x60 ADD PUSH1 0x40 MSTORE DUP1 DUP5 PUSH20 0xFFFFFFFFFFFFFFFFFFFFFFFFFFFFFFFFFFFFFFFF AND DUP2 MSTORE PUSH1 0x20 ADD DUP4 DUP2 MSTORE PUSH1 0x20 ADD DUP3 PUSH2 0xFFFF AND DUP2 MSTORE POP PUSH1 0x1 PUSH0 DUP6 PUSH20 0xFFFFFFFFFFFFFFFFFFFFFFFFFFFFFFFFFFFFFFFF AND PUSH20 0xFFFFFFFFFFFFFFFFFFFFFFFFFFFFFFFFFFFFFFFF AND DUP2 MSTORE PUSH1 0x20 ADD SWAP1 DUP2 MSTORE PUSH1 0x20 ADD PUSH0 KECCAK256 PUSH0 DUP3 ADD MLOAD DUP2 PUSH0 ADD PUSH0 PUSH2 0x100 EXP DUP2 SLOAD DUP2 PUSH20 0xFFFFFFFFFFFFFFFFFFFFFFFFFFFFFFFFFFFFFFFF MUL NOT AND SWAP1 DUP4 PUSH20 0xFFFFFFFFFFFFFFFFFFFFFFFFFFFFFFFFFFFFFFFF AND MUL OR SWAP1 SSTORE POP PUSH1 0x20 DUP3 ADD MLOAD DUP2 PUSH1 0x1 ADD SSTORE PUSH1 0x40 DUP3 ADD MLOAD DUP2 PUSH1 0x2 ADD PUSH0 PUSH2 0x100 EXP DUP2 SLOAD DUP2 PUSH2 0xFFFF MUL NOT AND SWAP1 DUP4 PUSH2 0xFFFF AND MUL OR SWAP1 SSTORE POP SWAP1 POP POP POP POP POP JUMP JUMPDEST PUSH1 0x1 PUSH1 0x20 MSTORE DUP1 PUSH0 MSTORE PUSH1 0x40 PUSH0 KECCAK256 PUSH0 SWAP2 POP SWAP1 POP DUP1 PUSH0 ADD PUSH0 SWAP1 SLOAD SWAP1 PUSH2 0x100 EXP SWAP1 DIV PUSH20 0xFFFFFFFFFFFFFFFFFFFFFFFFFFFFFFFFFFFFFFFF AND SWAP1 DUP1 PUSH1 0x1 ADD SLOAD SWAP1 DUP1 PUSH1 0x2 ADD PUSH0 SWAP1 SLOAD SWAP1 PUSH2 0x100 EXP SWAP1 DIV PUSH2 0xFFFF AND SWAP1 POP DUP4 JUMP JUMPDEST PUSH0 PUSH1 0x40 MLOAD SWAP1 POP SWAP1 JUMP JUMPDEST PUSH0 DUP1 REVERT JUMPDEST PUSH0 DUP1 REVERT JUMPDEST PUSH0 PUSH20 0xFFFFFFFFFFFFFFFFFFFFFFFFFFFFFFFFFFFFFFFF DUP3 AND SWAP1 POP SWAP2 SWAP1 POP JUMP JUMPDEST PUSH0 PUSH2 0x3CA DUP3 PUSH2 0x3A1 JUMP JUMPDEST SWAP1 POP SWAP2 SWAP1 POP JUMP JUMPDEST PUSH2 0x3DA DUP2 PUSH2 0x3C0 JUMP JUMPDEST DUP2 EQ PUSH2 0x3E4 JUMPI PUSH0 DUP1 REVERT JUMPDEST POP JUMP JUMPDEST PUSH0 DUP2 CALLDATALOAD SWAP1 POP PUSH2 0x3F5 DUP2 PUSH2 0x3D1 JUMP JUMPDEST SWAP3 SWAP2 POP POP JUMP JUMPDEST PUSH0 DUP1 REVERT JUMPDEST PUSH0 DUP1 REVERT JUMPDEST PUSH0 PUSH1 0x1F NOT PUSH1 0x1F DUP4 ADD AND SWAP1 POP SWAP2 SWAP1 POP JUMP JUMPDEST PUSH32 0x4E487B7100000000000000000000000000000000000000000000000000000000 PUSH0 MSTORE PUSH1 0x41 PUSH1 0x4 MSTORE PUSH1 0x24 PUSH0 REVERT JUMPDEST PUSH2 0x449 DUP3 PUSH2 0x403 JUMP JUMPDEST DUP2 ADD DUP2 DUP2 LT PUSH8 0xFFFFFFFFFFFFFFFF DUP3 GT OR ISZERO PUSH2 0x468 JUMPI PUSH2 0x467 PUSH2 0x413 JUMP JUMPDEST JUMPDEST DUP1 PUSH1 0x40 MSTORE POP POP POP JUMP JUMPDEST PUSH0 PUSH2 0x47A PUSH2 0x390 JUMP JUMPDEST SWAP1 POP PUSH2 0x486 DUP3 DUP3 PUSH2 0x440 JUMP JUMPDEST SWAP2 SWAP1 POP JUMP JUMPDEST PUSH0 PUSH8 0xFFFFFFFFFFFFFFFF DUP3 GT ISZERO PUSH2 0x4A5 JUMPI PUSH2 0x4A4 PUSH2 0x413 JUMP JUMPDEST JUMPDEST PUSH2 0x4AE DUP3 PUSH2 0x403 JUMP JUMPDEST SWAP1 POP PUSH1 0x20 DUP2 ADD SWAP1 POP SWAP2 SWAP1 POP JUMP JUMPDEST DUP3 DUP2 DUP4 CALLDATACOPY PUSH0 DUP4 DUP4 ADD MSTORE POP POP POP JUMP JUMPDEST PUSH0 PUSH2 0x4DB PUSH2 0x4D6 DUP5 PUSH2 0x48B JUMP JUMPDEST PUSH2 0x471 JUMP JUMPDEST SWAP1 POP DUP3 DUP2 MSTORE PUSH1 0x20 DUP2 ADD DUP5 DUP5 DUP5 ADD GT ISZERO PUSH2 0x4F7 JUMPI PUSH2 0x4F6 PUSH2 0x3FF JUMP JUMPDEST JUMPDEST PUSH2 0x502 DUP5 DUP3 DUP6 PUSH2 0x4BB JUMP JUMPDEST POP SWAP4 SWAP3 POP POP POP JUMP JUMPDEST PUSH0 DUP3 PUSH1 0x1F DUP4 ADD SLT PUSH2 0x51E JUMPI PUSH2 0x51D PUSH2 0x3FB JUMP JUMPDEST JUMPDEST DUP2 CALLDATALOAD PUSH2 0x52E DUP5 DUP3 PUSH1 0x20 DUP7 ADD PUSH2 0x4C9 JUMP JUMPDEST SWAP2 POP POP SWAP3 SWAP2 POP POP JUMP JUMPDEST PUSH0 DUP1 PUSH1 0x40 DUP4 DUP6 SUB SLT ISZERO PUSH2 0x54D JUMPI PUSH2 0x54C PUSH2 0x399 JUMP JUMPDEST JUMPDEST PUSH0 PUSH2 0x55A DUP6 DUP3 DUP7 ADD PUSH2 0x3E7 JUMP JUMPDEST SWAP3 POP POP PUSH1 0x20 DUP4 ADD CALLDATALOAD PUSH8 0xFFFFFFFFFFFFFFFF DUP2 GT ISZERO PUSH2 0x57B JUMPI PUSH2 0x57A PUSH2 0x39D JUMP JUMPDEST JUMPDEST PUSH2 0x587 DUP6 DUP3 DUP7 ADD PUSH2 0x50A JUMP JUMPDEST SWAP2 POP POP SWAP3 POP SWAP3 SWAP1 POP JUMP JUMPDEST PUSH0 DUP2 SWAP1 POP SWAP2 SWAP1 POP JUMP JUMPDEST PUSH2 0x5A3 DUP2 PUSH2 0x591 JUMP JUMPDEST DUP2 EQ PUSH2 0x5AD JUMPI PUSH0 DUP1 REVERT JUMPDEST POP JUMP JUMPDEST PUSH0 DUP2 CALLDATALOAD SWAP1 POP PUSH2 0x5BE DUP2 PUSH2 0x59A JUMP JUMPDEST SWAP3 SWAP2 POP POP JUMP JUMPDEST PUSH0 PUSH2 0xFFFF DUP3 AND SWAP1 POP SWAP2 SWAP1 POP JUMP JUMPDEST PUSH2 0x5DA DUP2 PUSH2 0x5C4 JUMP JUMPDEST DUP2 EQ PUSH2 0x5E4 JUMPI PUSH0 DUP1 REVERT JUMPDEST POP JUMP JUMPDEST PUSH0 DUP2 CALLDATALOAD SWAP1 POP PUSH2 0x5F5 DUP2 PUSH2 0x5D1 JUMP JUMPDEST SWAP3 SWAP2 POP POP JUMP JUMPDEST PUSH0 DUP1 PUSH0 PUSH1 0x60 DUP5 DUP7 SUB SLT ISZERO PUSH2 0x612 JUMPI PUSH2 0x611 PUSH2 0x399 JUMP JUMPDEST JUMPDEST PUSH0 PUSH2 0x61F DUP7 DUP3 DUP8 ADD PUSH2 0x3E7 JUMP JUMPDEST SWAP4 POP POP PUSH1 0x20 PUSH2 0x630 DUP7 DUP3 DUP8 ADD PUSH2 0x5B0 JUMP JUMPDEST SWAP3 POP POP PUSH1 0x40 PUSH2 0x641 DUP7 DUP3 DUP8 ADD PUSH2 0x5E7 JUMP JUMPDEST SWAP2 POP POP SWAP3 POP SWAP3 POP SWAP3 JUMP JUMPDEST PUSH0 PUSH1 0x20 DUP3 DUP5 SUB SLT ISZERO PUSH2 0x660 JUMPI PUSH2 0x65F PUSH2 0x399 JUMP JUMPDEST JUMPDEST PUSH0 PUSH2 0x66D DUP5 DUP3 DUP6 ADD PUSH2 0x3E7 JUMP JUMPDEST SWAP2 POP POP SWAP3 SWAP2 POP POP JUMP JUMPDEST PUSH2 0x67F DUP2 PUSH2 0x3C0 JUMP JUMPDEST DUP3 MSTORE POP POP JUMP JUMPDEST PUSH2 0x68E DUP2 PUSH2 0x591 JUMP JUMPDEST DUP3 MSTORE POP POP JUMP JUMPDEST PUSH2 0x69D DUP2 PUSH2 0x5C4 JUMP JUMPDEST DUP3 MSTORE POP POP JUMP JUMPDEST PUSH0 PUSH1 0x60 DUP3 ADD SWAP1 POP PUSH2 0x6B6 PUSH0 DUP4 ADD DUP7 PUSH2 0x676 JUMP JUMPDEST PUSH2 0x6C3 PUSH1 0x20 DUP4 ADD DUP6 PUSH2 0x685 JUMP JUMPDEST PUSH2 0x6D0 PUSH1 0x40 DUP4 ADD DUP5 PUSH2 0x694 JUMP JUMPDEST SWAP5 SWAP4 POP POP POP POP JUMP JUMPDEST PUSH0 DUP2 MLOAD SWAP1 POP SWAP2 SWAP1 POP JUMP JUMPDEST PUSH0 DUP2 SWAP1 POP SWAP3 SWAP2 POP POP JUMP JUMPDEST DUP3 DUP2 DUP4 MCOPY PUSH0 DUP4 DUP4 ADD MSTORE POP POP POP JUMP JUMPDEST PUSH0 PUSH2 0x704 DUP3 PUSH2 0x6D8 JUMP JUMPDEST PUSH2 0x70E DUP2 DUP6 PUSH2 0x6E2 JUMP JUMPDEST SWAP4 POP PUSH2 0x71E DUP2 DUP6 PUSH1 0x20 DUP7 ADD PUSH2 0x6EC JUMP JUMPDEST DUP1 DUP5 ADD SWAP2 POP POP SWAP3 SWAP2 POP POP JUMP JUMPDEST PUSH0 PUSH2 0x735 DUP3 DUP5 PUSH2 0x6FA JUMP JUMPDEST SWAP2 POP DUP2 SWAP1 POP SWAP3 SWAP2 POP POP JUMP INVALID LOG2 PUSH5 0x6970667358 0x22 SLT KECCAK256 0xC7 CALLVALUE CHAINID GAS SHR 0xAA 0xD9 0xB4 PUSH23 0xFDD7FEA04B131C0A75C51279FD8DB920E455DC058DB22F PUSH5 0x736F6C6343 STOP ADDMOD BYTE STOP CALLER "
				},
				"gasEstimates": {
					"creation": {
						"codeDepositCost": "382000",
						"executionCost": "416",
						"totalCost": "382416"
					},
					"external": {
						"addTransaction(address,string)": "infinite",
						"addUser(address,uint256,uint16)": "71661",
						"users(address)": "infinite"
					}
				},
				"methodIdentifiers": {
					"addTransaction(address,string)": "5244ea37",
					"addUser(address,uint256,uint16)": "53e62b58",
					"users(address)": "a87430ba"
				}
			},
			"storageLayout": {
				"storage": [
					{
						"astId": 21,
						"contract": "contracts/11_structTest03.sol:test03",
						"label": "trans",
						"offset": 0,
						"slot": "0",
						"type": "t_mapping(t_address,t_array(t_struct(Transaction)15_storage)dyn_storage)"
					},
					{
						"astId": 26,
						"contract": "contracts/11_structTest03.sol:test03",
						"label": "users",
						"offset": 0,
						"slot": "1",
						"type": "t_mapping(t_address,t_struct(Userful)8_storage)"
					}
				],
				"types": {
					"t_address": {
						"encoding": "inplace",
						"label": "address",
						"numberOfBytes": "20"
					},
					"t_array(t_struct(Transaction)15_storage)dyn_storage": {
						"base": "t_struct(Transaction)15_storage",
						"encoding": "dynamic_array",
						"label": "struct test03.Transaction[]",
						"numberOfBytes": "32"
					},
					"t_bytes8": {
						"encoding": "inplace",
						"label": "bytes8",
						"numberOfBytes": "8"
					},
					"t_mapping(t_address,t_array(t_struct(Transaction)15_storage)dyn_storage)": {
						"encoding": "mapping",
						"key": "t_address",
						"label": "mapping(address => struct test03.Transaction[])",
						"numberOfBytes": "32",
						"value": "t_array(t_struct(Transaction)15_storage)dyn_storage"
					},
					"t_mapping(t_address,t_struct(Userful)8_storage)": {
						"encoding": "mapping",
						"key": "t_address",
						"label": "mapping(address => struct test03.Userful)",
						"numberOfBytes": "32",
						"value": "t_struct(Userful)8_storage"
					},
					"t_struct(Transaction)15_storage": {
						"encoding": "inplace",
						"label": "struct test03.Transaction",
						"members": [
							{
								"astId": 10,
								"contract": "contracts/11_structTest03.sol:test03",
								"label": "from",
								"offset": 0,
								"slot": "0",
								"type": "t_address"
							},
							{
								"astId": 12,
								"contract": "contracts/11_structTest03.sol:test03",
								"label": "to",
								"offset": 0,
								"slot": "1",
								"type": "t_address"
							},
							{
								"astId": 14,
								"contract": "contracts/11_structTest03.sol:test03",
								"label": "name",
								"offset": 20,
								"slot": "1",
								"type": "t_bytes8"
							}
						],
						"numberOfBytes": "64"
					},
					"t_struct(Userful)8_storage": {
						"encoding": "inplace",
						"label": "struct test03.Userful",
						"members": [
							{
								"astId": 3,
								"contract": "contracts/11_structTest03.sol:test03",
								"label": "uid",
								"offset": 0,
								"slot": "0",
								"type": "t_address"
							},
							{
								"astId": 5,
								"contract": "contracts/11_structTest03.sol:test03",
								"label": "balances",
								"offset": 0,
								"slot": "1",
								"type": "t_uint256"
							},
							{
								"astId": 7,
								"contract": "contracts/11_structTest03.sol:test03",
								"label": "age",
								"offset": 0,
								"slot": "2",
								"type": "t_uint16"
							}
						],
						"numberOfBytes": "96"
					},
					"t_uint16": {
						"encoding": "inplace",
						"label": "uint16",
						"numberOfBytes": "2"
					},
					"t_uint256": {
						"encoding": "inplace",
						"label": "uint256",
						"numberOfBytes": "32"
					}
				}
			},
			"userdoc": {
				"kind": "user",
				"methods": {},
				"version": 1
			}
		}
	}
}