{
	"contracts/21_libraryTest01.sol": {
		"libraryTest01": {
			"abi": [
				{
					"inputs": [
						{
							"internalType": "uint256",
							"name": "x",
							"type": "uint256"
						},
						{
							"internalType": "uint256",
							"name": "y",
							"type": "uint256"
						}
					],
					"name": "add",
					"outputs": [
						{
							"internalType": "uint256",
							"name": "",
							"type": "uint256"
						}
					],
					"stateMutability": "pure",
					"type": "function"
				},
				{
					"inputs": [
						{
							"internalType": "uint256",
							"name": "x",
							"type": "uint256"
						},
						{
							"internalType": "uint256",
							"name": "y",
							"type": "uint256"
						}
					],
					"name": "notAdd",
					"outputs": [
						{
							"internalType": "uint256",
							"name": "",
							"type": "uint256"
						}
					],
					"stateMutability": "pure",
					"type": "function"
				},
				{
					"inputs": [
						{
							"internalType": "uint256",
							"name": "x",
							"type": "uint256"
						},
						{
							"internalType": "uint256",
							"name": "y",
							"type": "uint256"
						}
					],
					"name": "sum",
					"outputs": [
						{
							"internalType": "uint256",
							"name": "",
							"type": "uint256"
						}
					],
					"stateMutability": "pure",
					"type": "function"
				}
			],
			"devdoc": {
				"kind": "dev",
				"methods": {},
				"version": 1
			},
			"evm": {
				"assembly": "    /* \"contracts/21_libraryTest01.sol\":390:817  contract libraryTest01{... */\n  mstore(0x40, 0x80)\n  callvalue\n  dup1\n  iszero\n  tag_1\n  jumpi\n  0x00\n  dup1\n  revert\ntag_1:\n  pop\n  dataSize(sub_0)\n  dup1\n  dataOffset(sub_0)\n  0x00\n  codecopy\n  0x00\n  return\nstop\n\nsub_0: assembly {\n        /* \"contracts/21_libraryTest01.sol\":390:817  contract libraryTest01{... */\n      mstore(0x40, 0x80)\n      callvalue\n      dup1\n      iszero\n      tag_1\n      jumpi\n      0x00\n      dup1\n      revert\n    tag_1:\n      pop\n      jumpi(tag_2, lt(calldatasize, 0x04))\n      shr(0xe0, calldataload(0x00))\n      dup1\n      0x771602f7\n      eq\n      tag_3\n      jumpi\n      dup1\n      0x7c201e75\n      eq\n      tag_4\n      jumpi\n      dup1\n      0xcad0899b\n      eq\n      tag_5\n      jumpi\n    tag_2:\n      0x00\n      dup1\n      revert\n        /* \"contracts/21_libraryTest01.sol\":421:546  function add(uint x , uint y) public pure  returns(uint){... */\n    tag_3:\n      tag_6\n      0x04\n      dup1\n      calldatasize\n      sub\n      dup2\n      add\n      swap1\n      tag_7\n      swap2\n      swap1\n      tag_8\n      jump\t// in\n    tag_7:\n      tag_9\n      jump\t// in\n    tag_6:\n      mload(0x40)\n      tag_10\n      swap2\n      swap1\n      tag_11\n      jump\t// in\n    tag_10:\n      mload(0x40)\n      dup1\n      swap2\n      sub\n      swap1\n      return\n        /* \"contracts/21_libraryTest01.sol\":552:683  function notAdd(uint x , uint y) public pure  returns(uint){... */\n    tag_4:\n      tag_12\n      0x04\n      dup1\n      calldatasize\n      sub\n      dup2\n      add\n      swap1\n      tag_13\n      swap2\n      swap1\n      tag_8\n      jump\t// in\n    tag_13:\n      tag_14\n      jump\t// in\n    tag_12:\n      mload(0x40)\n      tag_15\n      swap2\n      swap1\n      tag_11\n      jump\t// in\n    tag_15:\n      mload(0x40)\n      dup1\n      swap2\n      sub\n      swap1\n      return\n        /* \"contracts/21_libraryTest01.sol\":689:814  function sum(uint x , uint y) public pure  returns(uint){... */\n    tag_5:\n      tag_16\n      0x04\n      dup1\n      calldatasize\n      sub\n      dup2\n      add\n      swap1\n      tag_17\n      swap2\n      swap1\n      tag_8\n      jump\t// in\n    tag_17:\n      tag_18\n      jump\t// in\n    tag_16:\n      mload(0x40)\n      tag_19\n      swap2\n      swap1\n      tag_11\n      jump\t// in\n    tag_19:\n      mload(0x40)\n      dup1\n      swap2\n      sub\n      swap1\n      return\n        /* \"contracts/21_libraryTest01.sol\":421:546  function add(uint x , uint y) public pure  returns(uint){... */\n    tag_9:\n        /* \"contracts/21_libraryTest01.sol\":472:476  uint */\n      0x00\n        /* \"contracts/21_libraryTest01.sol\":496:502  uint z */\n      dup1\n        /* \"contracts/21_libraryTest01.sol\":504:517  math.add(x,y) */\n      tag_21\n        /* \"contracts/21_libraryTest01.sol\":513:514  x */\n      dup5\n        /* \"contracts/21_libraryTest01.sol\":515:516  y */\n      dup5\n        /* \"contracts/21_libraryTest01.sol\":504:512  math.add */\n      tag_22\n        /* \"contracts/21_libraryTest01.sol\":504:517  math.add(x,y) */\n      jump\t// in\n    tag_21:\n        /* \"contracts/21_libraryTest01.sol\":496:517  uint z= math.add(x,y) */\n      swap1\n      pop\n        /* \"contracts/21_libraryTest01.sol\":537:538  z */\n      dup1\n        /* \"contracts/21_libraryTest01.sol\":530:538  return z */\n      swap2\n      pop\n      pop\n        /* \"contracts/21_libraryTest01.sol\":421:546  function add(uint x , uint y) public pure  returns(uint){... */\n      swap3\n      swap2\n      pop\n      pop\n      jump\t// out\n        /* \"contracts/21_libraryTest01.sol\":552:683  function notAdd(uint x , uint y) public pure  returns(uint){... */\n    tag_14:\n        /* \"contracts/21_libraryTest01.sol\":606:610  uint */\n      0x00\n        /* \"contracts/21_libraryTest01.sol\":630:636  uint z */\n      dup1\n        /* \"contracts/21_libraryTest01.sol\":638:654  math.notAdd(x,y) */\n      tag_24\n        /* \"contracts/21_libraryTest01.sol\":650:651  x */\n      dup5\n        /* \"contracts/21_libraryTest01.sol\":652:653  y */\n      dup5\n        /* \"contracts/21_libraryTest01.sol\":638:649  math.notAdd */\n      tag_25\n        /* \"contracts/21_libraryTest01.sol\":638:654  math.notAdd(x,y) */\n      jump\t// in\n    tag_24:\n        /* \"contracts/21_libraryTest01.sol\":630:654  uint z= math.notAdd(x,y) */\n      swap1\n      pop\n        /* \"contracts/21_libraryTest01.sol\":674:675  z */\n      dup1\n        /* \"contracts/21_libraryTest01.sol\":667:675  return z */\n      swap2\n      pop\n      pop\n        /* \"contracts/21_libraryTest01.sol\":552:683  function notAdd(uint x , uint y) public pure  returns(uint){... */\n      swap3\n      swap2\n      pop\n      pop\n      jump\t// out\n        /* \"contracts/21_libraryTest01.sol\":689:814  function sum(uint x , uint y) public pure  returns(uint){... */\n    tag_18:\n        /* \"contracts/21_libraryTest01.sol\":740:744  uint */\n      0x00\n        /* \"contracts/21_libraryTest01.sol\":764:770  uint z */\n      dup1\n        /* \"contracts/21_libraryTest01.sol\":772:785  math.sum(x,y) */\n      tag_27\n        /* \"contracts/21_libraryTest01.sol\":781:782  x */\n      dup5\n        /* \"contracts/21_libraryTest01.sol\":783:784  y */\n      dup5\n        /* \"contracts/21_libraryTest01.sol\":772:780  math.sum */\n      tag_28\n        /* \"contracts/21_libraryTest01.sol\":772:785  math.sum(x,y) */\n      jump\t// in\n    tag_27:\n        /* \"contracts/21_libraryTest01.sol\":764:785  uint z= math.sum(x,y) */\n      swap1\n      pop\n        /* \"contracts/21_libraryTest01.sol\":805:806  z */\n      dup1\n        /* \"contracts/21_libraryTest01.sol\":798:806  return z */\n      swap2\n      pop\n      pop\n        /* \"contracts/21_libraryTest01.sol\":689:814  function sum(uint x , uint y) public pure  returns(uint){... */\n      swap3\n      swap2\n      pop\n      pop\n      jump\t// out\n        /* \"contracts/21_libraryTest01.sol\":90:180  function add(uint x, uint y)internal pure returns (uint z){... */\n    tag_22:\n        /* \"contracts/21_libraryTest01.sol\":141:147  uint z */\n      0x00\n        /* \"contracts/21_libraryTest01.sol\":169:170  y */\n      dup2\n        /* \"contracts/21_libraryTest01.sol\":167:168  x */\n      dup4\n        /* \"contracts/21_libraryTest01.sol\":167:170  x+y */\n      tag_30\n      swap2\n      swap1\n      tag_31\n      jump\t// in\n    tag_30:\n        /* \"contracts/21_libraryTest01.sol\":163:170  z = x+y */\n      swap1\n      pop\n        /* \"contracts/21_libraryTest01.sol\":90:180  function add(uint x, uint y)internal pure returns (uint z){... */\n      swap3\n      swap2\n      pop\n      pop\n      jump\t// out\n        /* \"contracts/21_libraryTest01.sol\":188:281  function notAdd(uint x, uint y)internal pure returns (uint z){... */\n    tag_25:\n        /* \"contracts/21_libraryTest01.sol\":242:248  uint z */\n      0x00\n        /* \"contracts/21_libraryTest01.sol\":270:271  y */\n      dup2\n        /* \"contracts/21_libraryTest01.sol\":268:269  x */\n      dup4\n        /* \"contracts/21_libraryTest01.sol\":268:271  x-y */\n      tag_33\n      swap2\n      swap1\n      tag_34\n      jump\t// in\n    tag_33:\n        /* \"contracts/21_libraryTest01.sol\":264:271  z = x-y */\n      swap1\n      pop\n        /* \"contracts/21_libraryTest01.sol\":188:281  function notAdd(uint x, uint y)internal pure returns (uint z){... */\n      swap3\n      swap2\n      pop\n      pop\n      jump\t// out\n        /* \"contracts/21_libraryTest01.sol\":289:379  function sum(uint x, uint y)internal pure returns (uint z){... */\n    tag_28:\n        /* \"contracts/21_libraryTest01.sol\":340:346  uint z */\n      0x00\n        /* \"contracts/21_libraryTest01.sol\":368:369  y */\n      dup2\n        /* \"contracts/21_libraryTest01.sol\":366:367  x */\n      dup4\n        /* \"contracts/21_libraryTest01.sol\":366:369  x*y */\n      tag_36\n      swap2\n      swap1\n      tag_37\n      jump\t// in\n    tag_36:\n        /* \"contracts/21_libraryTest01.sol\":362:369  z = x*y */\n      swap1\n      pop\n        /* \"contracts/21_libraryTest01.sol\":289:379  function sum(uint x, uint y)internal pure returns (uint z){... */\n      swap3\n      swap2\n      pop\n      pop\n      jump\t// out\n        /* \"#utility.yul\":88:205   */\n    tag_39:\n        /* \"#utility.yul\":197:198   */\n      0x00\n        /* \"#utility.yul\":194:195   */\n      dup1\n        /* \"#utility.yul\":187:199   */\n      revert\n        /* \"#utility.yul\":334:411   */\n    tag_41:\n        /* \"#utility.yul\":371:378   */\n      0x00\n        /* \"#utility.yul\":400:405   */\n      dup2\n        /* \"#utility.yul\":389:405   */\n      swap1\n      pop\n        /* \"#utility.yul\":334:411   */\n      swap2\n      swap1\n      pop\n      jump\t// out\n        /* \"#utility.yul\":417:539   */\n    tag_42:\n        /* \"#utility.yul\":490:514   */\n      tag_52\n        /* \"#utility.yul\":508:513   */\n      dup2\n        /* \"#utility.yul\":490:514   */\n      tag_41\n      jump\t// in\n    tag_52:\n        /* \"#utility.yul\":483:488   */\n      dup2\n        /* \"#utility.yul\":480:515   */\n      eq\n        /* \"#utility.yul\":470:533   */\n      tag_53\n      jumpi\n        /* \"#utility.yul\":529:530   */\n      0x00\n        /* \"#utility.yul\":526:527   */\n      dup1\n        /* \"#utility.yul\":519:531   */\n      revert\n        /* \"#utility.yul\":470:533   */\n    tag_53:\n        /* \"#utility.yul\":417:539   */\n      pop\n      jump\t// out\n        /* \"#utility.yul\":545:684   */\n    tag_43:\n        /* \"#utility.yul\":591:596   */\n      0x00\n        /* \"#utility.yul\":629:635   */\n      dup2\n        /* \"#utility.yul\":616:636   */\n      calldataload\n        /* \"#utility.yul\":607:636   */\n      swap1\n      pop\n        /* \"#utility.yul\":645:678   */\n      tag_55\n        /* \"#utility.yul\":672:677   */\n      dup2\n        /* \"#utility.yul\":645:678   */\n      tag_42\n      jump\t// in\n    tag_55:\n        /* \"#utility.yul\":545:684   */\n      swap3\n      swap2\n      pop\n      pop\n      jump\t// out\n        /* \"#utility.yul\":690:1164   */\n    tag_8:\n        /* \"#utility.yul\":758:764   */\n      0x00\n        /* \"#utility.yul\":766:772   */\n      dup1\n        /* \"#utility.yul\":815:817   */\n      0x40\n        /* \"#utility.yul\":803:812   */\n      dup4\n        /* \"#utility.yul\":794:801   */\n      dup6\n        /* \"#utility.yul\":790:813   */\n      sub\n        /* \"#utility.yul\":786:818   */\n      slt\n        /* \"#utility.yul\":783:902   */\n      iszero\n      tag_57\n      jumpi\n        /* \"#utility.yul\":821:900   */\n      tag_58\n      tag_39\n      jump\t// in\n    tag_58:\n        /* \"#utility.yul\":783:902   */\n    tag_57:\n        /* \"#utility.yul\":941:942   */\n      0x00\n        /* \"#utility.yul\":966:1019   */\n      tag_59\n        /* \"#utility.yul\":1011:1018   */\n      dup6\n        /* \"#utility.yul\":1002:1008   */\n      dup3\n        /* \"#utility.yul\":991:1000   */\n      dup7\n        /* \"#utility.yul\":987:1009   */\n      add\n        /* \"#utility.yul\":966:1019   */\n      tag_43\n      jump\t// in\n    tag_59:\n        /* \"#utility.yul\":956:1019   */\n      swap3\n      pop\n        /* \"#utility.yul\":912:1029   */\n      pop\n        /* \"#utility.yul\":1068:1070   */\n      0x20\n        /* \"#utility.yul\":1094:1147   */\n      tag_60\n        /* \"#utility.yul\":1139:1146   */\n      dup6\n        /* \"#utility.yul\":1130:1136   */\n      dup3\n        /* \"#utility.yul\":1119:1128   */\n      dup7\n        /* \"#utility.yul\":1115:1137   */\n      add\n        /* \"#utility.yul\":1094:1147   */\n      tag_43\n      jump\t// in\n    tag_60:\n        /* \"#utility.yul\":1084:1147   */\n      swap2\n      pop\n        /* \"#utility.yul\":1039:1157   */\n      pop\n        /* \"#utility.yul\":690:1164   */\n      swap3\n      pop\n      swap3\n      swap1\n      pop\n      jump\t// out\n        /* \"#utility.yul\":1170:1288   */\n    tag_44:\n        /* \"#utility.yul\":1257:1281   */\n      tag_62\n        /* \"#utility.yul\":1275:1280   */\n      dup2\n        /* \"#utility.yul\":1257:1281   */\n      tag_41\n      jump\t// in\n    tag_62:\n        /* \"#utility.yul\":1252:1255   */\n      dup3\n        /* \"#utility.yul\":1245:1282   */\n      mstore\n        /* \"#utility.yul\":1170:1288   */\n      pop\n      pop\n      jump\t// out\n        /* \"#utility.yul\":1294:1516   */\n    tag_11:\n        /* \"#utility.yul\":1387:1391   */\n      0x00\n        /* \"#utility.yul\":1425:1427   */\n      0x20\n        /* \"#utility.yul\":1414:1423   */\n      dup3\n        /* \"#utility.yul\":1410:1428   */\n      add\n        /* \"#utility.yul\":1402:1428   */\n      swap1\n      pop\n        /* \"#utility.yul\":1438:1509   */\n      tag_64\n        /* \"#utility.yul\":1506:1507   */\n      0x00\n        /* \"#utility.yul\":1495:1504   */\n      dup4\n        /* \"#utility.yul\":1491:1508   */\n      add\n        /* \"#utility.yul\":1482:1488   */\n      dup5\n        /* \"#utility.yul\":1438:1509   */\n      tag_44\n      jump\t// in\n    tag_64:\n        /* \"#utility.yul\":1294:1516   */\n      swap3\n      swap2\n      pop\n      pop\n      jump\t// out\n        /* \"#utility.yul\":1522:1702   */\n    tag_45:\n        /* \"#utility.yul\":1570:1647   */\n      0x4e487b7100000000000000000000000000000000000000000000000000000000\n        /* \"#utility.yul\":1567:1568   */\n      0x00\n        /* \"#utility.yul\":1560:1648   */\n      mstore\n        /* \"#utility.yul\":1667:1671   */\n      0x11\n        /* \"#utility.yul\":1664:1665   */\n      0x04\n        /* \"#utility.yul\":1657:1672   */\n      mstore\n        /* \"#utility.yul\":1691:1695   */\n      0x24\n        /* \"#utility.yul\":1688:1689   */\n      0x00\n        /* \"#utility.yul\":1681:1696   */\n      revert\n        /* \"#utility.yul\":1708:1899   */\n    tag_31:\n        /* \"#utility.yul\":1748:1751   */\n      0x00\n        /* \"#utility.yul\":1767:1787   */\n      tag_67\n        /* \"#utility.yul\":1785:1786   */\n      dup3\n        /* \"#utility.yul\":1767:1787   */\n      tag_41\n      jump\t// in\n    tag_67:\n        /* \"#utility.yul\":1762:1787   */\n      swap2\n      pop\n        /* \"#utility.yul\":1801:1821   */\n      tag_68\n        /* \"#utility.yul\":1819:1820   */\n      dup4\n        /* \"#utility.yul\":1801:1821   */\n      tag_41\n      jump\t// in\n    tag_68:\n        /* \"#utility.yul\":1796:1821   */\n      swap3\n      pop\n        /* \"#utility.yul\":1844:1845   */\n      dup3\n        /* \"#utility.yul\":1841:1842   */\n      dup3\n        /* \"#utility.yul\":1837:1846   */\n      add\n        /* \"#utility.yul\":1830:1846   */\n      swap1\n      pop\n        /* \"#utility.yul\":1865:1868   */\n      dup1\n        /* \"#utility.yul\":1862:1863   */\n      dup3\n        /* \"#utility.yul\":1859:1869   */\n      gt\n        /* \"#utility.yul\":1856:1892   */\n      iszero\n      tag_69\n      jumpi\n        /* \"#utility.yul\":1872:1890   */\n      tag_70\n      tag_45\n      jump\t// in\n    tag_70:\n        /* \"#utility.yul\":1856:1892   */\n    tag_69:\n        /* \"#utility.yul\":1708:1899   */\n      swap3\n      swap2\n      pop\n      pop\n      jump\t// out\n        /* \"#utility.yul\":1905:2099   */\n    tag_34:\n        /* \"#utility.yul\":1945:1949   */\n      0x00\n        /* \"#utility.yul\":1965:1985   */\n      tag_72\n        /* \"#utility.yul\":1983:1984   */\n      dup3\n        /* \"#utility.yul\":1965:1985   */\n      tag_41\n      jump\t// in\n    tag_72:\n        /* \"#utility.yul\":1960:1985   */\n      swap2\n      pop\n        /* \"#utility.yul\":1999:2019   */\n      tag_73\n        /* \"#utility.yul\":2017:2018   */\n      dup4\n        /* \"#utility.yul\":1999:2019   */\n      tag_41\n      jump\t// in\n    tag_73:\n        /* \"#utility.yul\":1994:2019   */\n      swap3\n      pop\n        /* \"#utility.yul\":2043:2044   */\n      dup3\n        /* \"#utility.yul\":2040:2041   */\n      dup3\n        /* \"#utility.yul\":2036:2045   */\n      sub\n        /* \"#utility.yul\":2028:2045   */\n      swap1\n      pop\n        /* \"#utility.yul\":2067:2068   */\n      dup2\n        /* \"#utility.yul\":2061:2065   */\n      dup2\n        /* \"#utility.yul\":2058:2069   */\n      gt\n        /* \"#utility.yul\":2055:2092   */\n      iszero\n      tag_74\n      jumpi\n        /* \"#utility.yul\":2072:2090   */\n      tag_75\n      tag_45\n      jump\t// in\n    tag_75:\n        /* \"#utility.yul\":2055:2092   */\n    tag_74:\n        /* \"#utility.yul\":1905:2099   */\n      swap3\n      swap2\n      pop\n      pop\n      jump\t// out\n        /* \"#utility.yul\":2105:2515   */\n    tag_37:\n        /* \"#utility.yul\":2145:2152   */\n      0x00\n        /* \"#utility.yul\":2168:2188   */\n      tag_77\n        /* \"#utility.yul\":2186:2187   */\n      dup3\n        /* \"#utility.yul\":2168:2188   */\n      tag_41\n      jump\t// in\n    tag_77:\n        /* \"#utility.yul\":2163:2188   */\n      swap2\n      pop\n        /* \"#utility.yul\":2202:2222   */\n      tag_78\n        /* \"#utility.yul\":2220:2221   */\n      dup4\n        /* \"#utility.yul\":2202:2222   */\n      tag_41\n      jump\t// in\n    tag_78:\n        /* \"#utility.yul\":2197:2222   */\n      swap3\n      pop\n        /* \"#utility.yul\":2257:2258   */\n      dup3\n        /* \"#utility.yul\":2254:2255   */\n      dup3\n        /* \"#utility.yul\":2250:2259   */\n      mul\n        /* \"#utility.yul\":2279:2309   */\n      tag_79\n        /* \"#utility.yul\":2297:2308   */\n      dup2\n        /* \"#utility.yul\":2279:2309   */\n      tag_41\n      jump\t// in\n    tag_79:\n        /* \"#utility.yul\":2268:2309   */\n      swap2\n      pop\n        /* \"#utility.yul\":2458:2459   */\n      dup3\n        /* \"#utility.yul\":2449:2456   */\n      dup3\n        /* \"#utility.yul\":2445:2460   */\n      div\n        /* \"#utility.yul\":2442:2443   */\n      dup5\n        /* \"#utility.yul\":2439:2461   */\n      eq\n        /* \"#utility.yul\":2419:2420   */\n      dup4\n        /* \"#utility.yul\":2412:2421   */\n      iszero\n        /* \"#utility.yul\":2392:2475   */\n      or\n        /* \"#utility.yul\":2369:2508   */\n      tag_80\n      jumpi\n        /* \"#utility.yul\":2488:2506   */\n      tag_81\n      tag_45\n      jump\t// in\n    tag_81:\n        /* \"#utility.yul\":2369:2508   */\n    tag_80:\n        /* \"#utility.yul\":2153:2515   */\n      pop\n        /* \"#utility.yul\":2105:2515   */\n      swap3\n      swap2\n      pop\n      pop\n      jump\t// out\n\n    auxdata: 0xa26469706673582212209c29a65ff8e74e7766877fe472ea6e266207559e1e27e56d946d9380649cd92464736f6c634300081a0033\n}\n",
				"bytecode": {
					"linkReferences": {},
					"object": "6080604052348015600e575f80fd5b506103018061001c5f395ff3fe608060405234801561000f575f80fd5b506004361061003f575f3560e01c8063771602f7146100435780637c201e7514610073578063cad0899b146100a3575b5f80fd5b61005d60048036038101906100589190610191565b6100d3565b60405161006a91906101de565b60405180910390f35b61008d60048036038101906100889190610191565b6100eb565b60405161009a91906101de565b60405180910390f35b6100bd60048036038101906100b89190610191565b610103565b6040516100ca91906101de565b60405180910390f35b5f806100df848461011b565b90508091505092915050565b5f806100f78484610130565b90508091505092915050565b5f8061010f8484610145565b90508091505092915050565b5f81836101289190610224565b905092915050565b5f818361013d9190610257565b905092915050565b5f8183610152919061028a565b905092915050565b5f80fd5b5f819050919050565b6101708161015e565b811461017a575f80fd5b50565b5f8135905061018b81610167565b92915050565b5f80604083850312156101a7576101a661015a565b5b5f6101b48582860161017d565b92505060206101c58582860161017d565b9150509250929050565b6101d88161015e565b82525050565b5f6020820190506101f15f8301846101cf565b92915050565b7f4e487b71000000000000000000000000000000000000000000000000000000005f52601160045260245ffd5b5f61022e8261015e565b91506102398361015e565b9250828201905080821115610251576102506101f7565b5b92915050565b5f6102618261015e565b915061026c8361015e565b9250828203905081811115610284576102836101f7565b5b92915050565b5f6102948261015e565b915061029f8361015e565b92508282026102ad8161015e565b915082820484148315176102c4576102c36101f7565b5b509291505056fea26469706673582212209c29a65ff8e74e7766877fe472ea6e266207559e1e27e56d946d9380649cd92464736f6c634300081a0033",
					"opcodes": "PUSH1 0x80 PUSH1 0x40 MSTORE CALLVALUE DUP1 ISZERO PUSH1 0xE JUMPI PUSH0 DUP1 REVERT JUMPDEST POP PUSH2 0x301 DUP1 PUSH2 0x1C PUSH0 CODECOPY PUSH0 RETURN INVALID PUSH1 0x80 PUSH1 0x40 MSTORE CALLVALUE DUP1 ISZERO PUSH2 0xF JUMPI PUSH0 DUP1 REVERT JUMPDEST POP PUSH1 0x4 CALLDATASIZE LT PUSH2 0x3F JUMPI PUSH0 CALLDATALOAD PUSH1 0xE0 SHR DUP1 PUSH4 0x771602F7 EQ PUSH2 0x43 JUMPI DUP1 PUSH4 0x7C201E75 EQ PUSH2 0x73 JUMPI DUP1 PUSH4 0xCAD0899B EQ PUSH2 0xA3 JUMPI JUMPDEST PUSH0 DUP1 REVERT JUMPDEST PUSH2 0x5D PUSH1 0x4 DUP1 CALLDATASIZE SUB DUP2 ADD SWAP1 PUSH2 0x58 SWAP2 SWAP1 PUSH2 0x191 JUMP JUMPDEST PUSH2 0xD3 JUMP JUMPDEST PUSH1 0x40 MLOAD PUSH2 0x6A SWAP2 SWAP1 PUSH2 0x1DE JUMP JUMPDEST PUSH1 0x40 MLOAD DUP1 SWAP2 SUB SWAP1 RETURN JUMPDEST PUSH2 0x8D PUSH1 0x4 DUP1 CALLDATASIZE SUB DUP2 ADD SWAP1 PUSH2 0x88 SWAP2 SWAP1 PUSH2 0x191 JUMP JUMPDEST PUSH2 0xEB JUMP JUMPDEST PUSH1 0x40 MLOAD PUSH2 0x9A SWAP2 SWAP1 PUSH2 0x1DE JUMP JUMPDEST PUSH1 0x40 MLOAD DUP1 SWAP2 SUB SWAP1 RETURN JUMPDEST PUSH2 0xBD PUSH1 0x4 DUP1 CALLDATASIZE SUB DUP2 ADD SWAP1 PUSH2 0xB8 SWAP2 SWAP1 PUSH2 0x191 JUMP JUMPDEST PUSH2 0x103 JUMP JUMPDEST PUSH1 0x40 MLOAD PUSH2 0xCA SWAP2 SWAP1 PUSH2 0x1DE JUMP JUMPDEST PUSH1 0x40 MLOAD DUP1 SWAP2 SUB SWAP1 RETURN JUMPDEST PUSH0 DUP1 PUSH2 0xDF DUP5 DUP5 PUSH2 0x11B JUMP JUMPDEST SWAP1 POP DUP1 SWAP2 POP POP SWAP3 SWAP2 POP POP JUMP JUMPDEST PUSH0 DUP1 PUSH2 0xF7 DUP5 DUP5 PUSH2 0x130 JUMP JUMPDEST SWAP1 POP DUP1 SWAP2 POP POP SWAP3 SWAP2 POP POP JUMP JUMPDEST PUSH0 DUP1 PUSH2 0x10F DUP5 DUP5 PUSH2 0x145 JUMP JUMPDEST SWAP1 POP DUP1 SWAP2 POP POP SWAP3 SWAP2 POP POP JUMP JUMPDEST PUSH0 DUP2 DUP4 PUSH2 0x128 SWAP2 SWAP1 PUSH2 0x224 JUMP JUMPDEST SWAP1 POP SWAP3 SWAP2 POP POP JUMP JUMPDEST PUSH0 DUP2 DUP4 PUSH2 0x13D SWAP2 SWAP1 PUSH2 0x257 JUMP JUMPDEST SWAP1 POP SWAP3 SWAP2 POP POP JUMP JUMPDEST PUSH0 DUP2 DUP4 PUSH2 0x152 SWAP2 SWAP1 PUSH2 0x28A JUMP JUMPDEST SWAP1 POP SWAP3 SWAP2 POP POP JUMP JUMPDEST PUSH0 DUP1 REVERT JUMPDEST PUSH0 DUP2 SWAP1 POP SWAP2 SWAP1 POP JUMP JUMPDEST PUSH2 0x170 DUP2 PUSH2 0x15E JUMP JUMPDEST DUP2 EQ PUSH2 0x17A JUMPI PUSH0 DUP1 REVERT JUMPDEST POP JUMP JUMPDEST PUSH0 DUP2 CALLDATALOAD SWAP1 POP PUSH2 0x18B DUP2 PUSH2 0x167 JUMP JUMPDEST SWAP3 SWAP2 POP POP JUMP JUMPDEST PUSH0 DUP1 PUSH1 0x40 DUP4 DUP6 SUB SLT ISZERO PUSH2 0x1A7 JUMPI PUSH2 0x1A6 PUSH2 0x15A JUMP JUMPDEST JUMPDEST PUSH0 PUSH2 0x1B4 DUP6 DUP3 DUP7 ADD PUSH2 0x17D JUMP JUMPDEST SWAP3 POP POP PUSH1 0x20 PUSH2 0x1C5 DUP6 DUP3 DUP7 ADD PUSH2 0x17D JUMP JUMPDEST SWAP2 POP POP SWAP3 POP SWAP3 SWAP1 POP JUMP JUMPDEST PUSH2 0x1D8 DUP2 PUSH2 0x15E JUMP JUMPDEST DUP3 MSTORE POP POP JUMP JUMPDEST PUSH0 PUSH1 0x20 DUP3 ADD SWAP1 POP PUSH2 0x1F1 PUSH0 DUP4 ADD DUP5 PUSH2 0x1CF JUMP JUMPDEST SWAP3 SWAP2 POP POP JUMP JUMPDEST PUSH32 0x4E487B7100000000000000000000000000000000000000000000000000000000 PUSH0 MSTORE PUSH1 0x11 PUSH1 0x4 MSTORE PUSH1 0x24 PUSH0 REVERT JUMPDEST PUSH0 PUSH2 0x22E DUP3 PUSH2 0x15E JUMP JUMPDEST SWAP2 POP PUSH2 0x239 DUP4 PUSH2 0x15E JUMP JUMPDEST SWAP3 POP DUP3 DUP3 ADD SWAP1 POP DUP1 DUP3 GT ISZERO PUSH2 0x251 JUMPI PUSH2 0x250 PUSH2 0x1F7 JUMP JUMPDEST JUMPDEST SWAP3 SWAP2 POP POP JUMP JUMPDEST PUSH0 PUSH2 0x261 DUP3 PUSH2 0x15E JUMP JUMPDEST SWAP2 POP PUSH2 0x26C DUP4 PUSH2 0x15E JUMP JUMPDEST SWAP3 POP DUP3 DUP3 SUB SWAP1 POP DUP2 DUP2 GT ISZERO PUSH2 0x284 JUMPI PUSH2 0x283 PUSH2 0x1F7 JUMP JUMPDEST JUMPDEST SWAP3 SWAP2 POP POP JUMP JUMPDEST PUSH0 PUSH2 0x294 DUP3 PUSH2 0x15E JUMP JUMPDEST SWAP2 POP PUSH2 0x29F DUP4 PUSH2 0x15E JUMP JUMPDEST SWAP3 POP DUP3 DUP3 MUL PUSH2 0x2AD DUP2 PUSH2 0x15E JUMP JUMPDEST SWAP2 POP DUP3 DUP3 DIV DUP5 EQ DUP4 ISZERO OR PUSH2 0x2C4 JUMPI PUSH2 0x2C3 PUSH2 0x1F7 JUMP JUMPDEST JUMPDEST POP SWAP3 SWAP2 POP POP JUMP INVALID LOG2 PUSH5 0x6970667358 0x22 SLT KECCAK256 SWAP13 0x29 0xA6 PUSH0 0xF8 0xE7 0x4E PUSH24 0x66877FE472EA6E266207559E1E27E56D946D9380649CD924 PUSH5 0x736F6C6343 STOP ADDMOD BYTE STOP CALLER "
				},
				"gasEstimates": {
					"creation": {
						"codeDepositCost": "153800",
						"executionCost": "200",
						"totalCost": "154000"
					},
					"external": {
						"add(uint256,uint256)": "infinite",
						"notAdd(uint256,uint256)": "infinite",
						"sum(uint256,uint256)": "infinite"
					}
				},
				"methodIdentifiers": {
					"add(uint256,uint256)": "771602f7",
					"notAdd(uint256,uint256)": "7c201e75",
					"sum(uint256,uint256)": "cad0899b"
				}
			},
			"storageLayout": {
				"storage": [],
				"types": null
			},
			"userdoc": {
				"kind": "user",
				"methods": {},
				"version": 1
			}
		}
	}
}