{
	"contracts/EtherWallet.sol": {
		"etherWallet": {
			"abi": [
				{
					"inputs": [],
					"stateMutability": "nonpayable",
					"type": "constructor"
				},
				{
					"anonymous": false,
					"inputs": [
						{
							"indexed": false,
							"internalType": "string",
							"name": "funName",
							"type": "string"
						},
						{
							"indexed": false,
							"internalType": "address",
							"name": "_to",
							"type": "address"
						},
						{
							"indexed": false,
							"internalType": "uint256",
							"name": "amount",
							"type": "uint256"
						},
						{
							"indexed": false,
							"internalType": "bytes",
							"name": "data",
							"type": "bytes"
						}
					],
					"name": "Withdraw",
					"type": "event"
				},
				{
					"inputs": [],
					"name": "ower",
					"outputs": [
						{
							"internalType": "address",
							"name": "",
							"type": "address"
						}
					],
					"stateMutability": "view",
					"type": "function"
				},
				{
					"inputs": [],
					"name": "withdraw1",
					"outputs": [],
					"stateMutability": "payable",
					"type": "function"
				},
				{
					"inputs": [],
					"name": "withdraw2",
					"outputs": [
						{
							"internalType": "bool",
							"name": "success",
							"type": "bool"
						}
					],
					"stateMutability": "payable",
					"type": "function"
				},
				{
					"inputs": [],
					"name": "withdraw3",
					"outputs": [],
					"stateMutability": "nonpayable",
					"type": "function"
				},
				{
					"stateMutability": "payable",
					"type": "receive"
				}
			],
			"devdoc": {
				"kind": "dev",
				"methods": {},
				"version": 1
			},
			"evm": {
				"assembly": "    /* \"contracts/EtherWallet.sol\":61:903  contract etherWallet{... */\n  mstore(0x40, 0xa0)\n    /* \"contracts/EtherWallet.sol\":303:352  constructor(){... */\n  callvalue\n  dup1\n  iszero\n  tag_1\n  jumpi\n  revert(0x00, 0x00)\ntag_1:\n  pop\n    /* \"contracts/EtherWallet.sol\":334:344  msg.sender */\n  caller\n    /* \"contracts/EtherWallet.sol\":327:344  ower = msg.sender */\n  0xffffffffffffffffffffffffffffffffffffffff\n  and\n  0x80\n  dup2\n  0xffffffffffffffffffffffffffffffffffffffff\n  and\n  dup2\n  mstore\n  pop\n  pop\n    /* \"contracts/EtherWallet.sol\":61:903  contract etherWallet{... */\n  mload(0x80)\n  codecopy(0x00, dataOffset(sub_0), dataSize(sub_0))\n  0x00\n  assignImmutable(\"0x2a80e1ef1d7842f27f2e6be0972bb708b9a135c38860dbe73c27c3486c34f4de\")\n  return(0x00, dataSize(sub_0))\nstop\n\nsub_0: assembly {\n        /* \"contracts/EtherWallet.sol\":61:903  contract etherWallet{... */\n      mstore(0x40, 0x80)\n      jumpi(tag_1, lt(calldatasize, 0x04))\n      shr(0xe0, calldataload(0x00))\n      dup1\n      0x79efb0\n      eq\n      tag_3\n      jumpi\n      dup1\n      0x4fa3eeff\n      eq\n      tag_4\n      jumpi\n      dup1\n      0x9438f22a\n      eq\n      tag_5\n      jumpi\n      dup1\n      0xea98847b\n      eq\n      tag_6\n      jumpi\n      jump(tag_2)\n    tag_1:\n      jumpi(tag_2, calldatasize)\n        /* \"contracts/EtherWallet.sol\":398:443  Withdraw(\"receive\",msg.sender, msg.value, \"\") */\n      0xc087459e37fa5f90d4f348a2ddd98a573a59bab47620d725bceb030dcbe94a77\n        /* \"contracts/EtherWallet.sol\":417:427  msg.sender */\n      caller\n        /* \"contracts/EtherWallet.sol\":429:438  msg.value */\n      callvalue\n        /* \"contracts/EtherWallet.sol\":398:443  Withdraw(\"receive\",msg.sender, msg.value, \"\") */\n      mload(0x40)\n      tag_9\n      swap3\n      swap2\n      swap1\n      tag_10\n      jump\t// in\n    tag_9:\n      mload(0x40)\n      dup1\n      swap2\n      sub\n      swap1\n      log1\n        /* \"contracts/EtherWallet.sol\":61:903  contract etherWallet{... */\n      stop\n    tag_2:\n      revert(0x00, 0x00)\n        /* \"contracts/EtherWallet.sol\":459:569  function withdraw1() external payable   onlyOwner{... */\n    tag_3:\n      tag_11\n      tag_12\n      jump\t// in\n    tag_11:\n      stop\n        /* \"contracts/EtherWallet.sol\":725:896  function withdraw3()external  onlyOwner {... */\n    tag_4:\n      callvalue\n      dup1\n      iszero\n      tag_13\n      jumpi\n      revert(0x00, 0x00)\n    tag_13:\n      pop\n      tag_14\n      tag_15\n      jump\t// in\n    tag_14:\n      stop\n        /* \"contracts/EtherWallet.sol\":90:120  address public  immutable ower */\n    tag_5:\n      callvalue\n      dup1\n      iszero\n      tag_16\n      jumpi\n      revert(0x00, 0x00)\n    tag_16:\n      pop\n      tag_17\n      tag_18\n      jump\t// in\n    tag_17:\n      mload(0x40)\n      tag_19\n      swap2\n      swap1\n      tag_20\n      jump\t// in\n    tag_19:\n      mload(0x40)\n      dup1\n      swap2\n      sub\n      swap1\n      return\n        /* \"contracts/EtherWallet.sol\":578:717  function withdraw2()external payable onlyOwner returns (bool success) {... */\n    tag_6:\n      tag_21\n      tag_22\n      jump\t// in\n    tag_21:\n      mload(0x40)\n      tag_23\n      swap2\n      swap1\n      tag_24\n      jump\t// in\n    tag_23:\n      mload(0x40)\n      dup1\n      swap2\n      sub\n      swap1\n      return\n        /* \"contracts/EtherWallet.sol\":459:569  function withdraw1() external payable   onlyOwner{... */\n    tag_12:\n        /* \"contracts/EtherWallet.sol\":252:262  msg.sender */\n      caller\n        /* \"contracts/EtherWallet.sol\":244:262  ower == msg.sender */\n      0xffffffffffffffffffffffffffffffffffffffff\n      and\n        /* \"contracts/EtherWallet.sol\":244:248  ower */\n      immutable(\"0x2a80e1ef1d7842f27f2e6be0972bb708b9a135c38860dbe73c27c3486c34f4de\")\n        /* \"contracts/EtherWallet.sol\":244:262  ower == msg.sender */\n      0xffffffffffffffffffffffffffffffffffffffff\n      and\n      eq\n        /* \"contracts/EtherWallet.sol\":236:277  require(ower == msg.sender,\"ower is not\") */\n      tag_26\n      jumpi\n      mload(0x40)\n      0x08c379a000000000000000000000000000000000000000000000000000000000\n      dup2\n      mstore\n      0x04\n      add\n      tag_27\n      swap1\n      tag_28\n      jump\t// in\n    tag_27:\n      mload(0x40)\n      dup1\n      swap2\n      sub\n      swap1\n      revert\n    tag_26:\n        /* \"contracts/EtherWallet.sol\":530:540  msg.sender */\n      caller\n        /* \"contracts/EtherWallet.sol\":521:550  payable (msg.sender).transfer */\n      0xffffffffffffffffffffffffffffffffffffffff\n      and\n        /* \"contracts/EtherWallet.sol\":521:561  payable (msg.sender).transfer(msg.value) */\n      0x08fc\n        /* \"contracts/EtherWallet.sol\":551:560  msg.value */\n      callvalue\n        /* \"contracts/EtherWallet.sol\":521:561  payable (msg.sender).transfer(msg.value) */\n      swap1\n      dup2\n      iszero\n      mul\n      swap1\n      mload(0x40)\n      0x00\n      mload(0x40)\n      dup1\n      dup4\n      sub\n      dup2\n      dup6\n      dup9\n      dup9\n      call\n      swap4\n      pop\n      pop\n      pop\n      pop\n      iszero\n      dup1\n      iszero\n      tag_31\n      jumpi\n      returndatacopy(0x00, 0x00, returndatasize)\n      revert(0x00, returndatasize)\n    tag_31:\n      pop\n        /* \"contracts/EtherWallet.sol\":459:569  function withdraw1() external payable   onlyOwner{... */\n      jump\t// out\n        /* \"contracts/EtherWallet.sol\":725:896  function withdraw3()external  onlyOwner {... */\n    tag_15:\n        /* \"contracts/EtherWallet.sol\":252:262  msg.sender */\n      caller\n        /* \"contracts/EtherWallet.sol\":244:262  ower == msg.sender */\n      0xffffffffffffffffffffffffffffffffffffffff\n      and\n        /* \"contracts/EtherWallet.sol\":244:248  ower */\n      immutable(\"0x2a80e1ef1d7842f27f2e6be0972bb708b9a135c38860dbe73c27c3486c34f4de\")\n        /* \"contracts/EtherWallet.sol\":244:262  ower == msg.sender */\n      0xffffffffffffffffffffffffffffffffffffffff\n      and\n      eq\n        /* \"contracts/EtherWallet.sol\":236:277  require(ower == msg.sender,\"ower is not\") */\n      tag_33\n      jumpi\n      mload(0x40)\n      0x08c379a000000000000000000000000000000000000000000000000000000000\n      dup2\n      mstore\n      0x04\n      add\n      tag_34\n      swap1\n      tag_28\n      jump\t// in\n    tag_34:\n      mload(0x40)\n      dup1\n      swap2\n      sub\n      swap1\n      revert\n    tag_33:\n        /* \"contracts/EtherWallet.sol\":778:790  bool success */\n      0x00\n        /* \"contracts/EtherWallet.sol\":796:806  msg.sender */\n      caller\n        /* \"contracts/EtherWallet.sol\":796:811  msg.sender.call */\n      0xffffffffffffffffffffffffffffffffffffffff\n      and\n        /* \"contracts/EtherWallet.sol\":819:840  address(this).balance */\n      selfbalance\n        /* \"contracts/EtherWallet.sol\":796:845  msg.sender.call{value: address(this).balance}(\"\") */\n      mload(0x40)\n      tag_36\n      swap1\n      tag_37\n      jump\t// in\n    tag_36:\n      0x00\n      mload(0x40)\n      dup1\n      dup4\n      sub\n      dup2\n      dup6\n      dup8\n      gas\n      call\n      swap3\n      pop\n      pop\n      pop\n      returndatasize\n      dup1\n      0x00\n      dup2\n      eq\n      tag_40\n      jumpi\n      mload(0x40)\n      swap2\n      pop\n      and(add(returndatasize, 0x3f), not(0x1f))\n      dup3\n      add\n      0x40\n      mstore\n      returndatasize\n      dup3\n      mstore\n      returndatasize\n      0x00\n      0x20\n      dup5\n      add\n      returndatacopy\n      jump(tag_39)\n    tag_40:\n      0x60\n      swap2\n      pop\n    tag_39:\n      pop\n        /* \"contracts/EtherWallet.sol\":777:845  (bool success,)  = msg.sender.call{value: address(this).balance}(\"\") */\n      pop\n      swap1\n      pop\n        /* \"contracts/EtherWallet.sol\":863:870  success */\n      dup1\n        /* \"contracts/EtherWallet.sol\":855:886  require(success, \"Call Failed\") */\n      tag_41\n      jumpi\n      mload(0x40)\n      0x08c379a000000000000000000000000000000000000000000000000000000000\n      dup2\n      mstore\n      0x04\n      add\n      tag_42\n      swap1\n      tag_43\n      jump\t// in\n    tag_42:\n      mload(0x40)\n      dup1\n      swap2\n      sub\n      swap1\n      revert\n    tag_41:\n        /* \"contracts/EtherWallet.sol\":765:896  {... */\n      pop\n        /* \"contracts/EtherWallet.sol\":725:896  function withdraw3()external  onlyOwner {... */\n      jump\t// out\n        /* \"contracts/EtherWallet.sol\":90:120  address public  immutable ower */\n    tag_18:\n      immutable(\"0x2a80e1ef1d7842f27f2e6be0972bb708b9a135c38860dbe73c27c3486c34f4de\")\n      dup2\n      jump\t// out\n        /* \"contracts/EtherWallet.sol\":578:717  function withdraw2()external payable onlyOwner returns (bool success) {... */\n    tag_22:\n        /* \"contracts/EtherWallet.sol\":634:646  bool success */\n      0x00\n        /* \"contracts/EtherWallet.sol\":252:262  msg.sender */\n      caller\n        /* \"contracts/EtherWallet.sol\":244:262  ower == msg.sender */\n      0xffffffffffffffffffffffffffffffffffffffff\n      and\n        /* \"contracts/EtherWallet.sol\":244:248  ower */\n      immutable(\"0x2a80e1ef1d7842f27f2e6be0972bb708b9a135c38860dbe73c27c3486c34f4de\")\n        /* \"contracts/EtherWallet.sol\":244:262  ower == msg.sender */\n      0xffffffffffffffffffffffffffffffffffffffff\n      and\n      eq\n        /* \"contracts/EtherWallet.sol\":236:277  require(ower == msg.sender,\"ower is not\") */\n      tag_45\n      jumpi\n      mload(0x40)\n      0x08c379a000000000000000000000000000000000000000000000000000000000\n      dup2\n      mstore\n      0x04\n      add\n      tag_46\n      swap1\n      tag_28\n      jump\t// in\n    tag_46:\n      mload(0x40)\n      dup1\n      swap2\n      sub\n      swap1\n      revert\n    tag_45:\n        /* \"contracts/EtherWallet.sol\":680:690  msg.sender */\n      caller\n        /* \"contracts/EtherWallet.sol\":671:696  payable (msg.sender).send */\n      0xffffffffffffffffffffffffffffffffffffffff\n      and\n        /* \"contracts/EtherWallet.sol\":671:707  payable (msg.sender).send(msg.value) */\n      0x08fc\n        /* \"contracts/EtherWallet.sol\":697:706  msg.value */\n      callvalue\n        /* \"contracts/EtherWallet.sol\":671:707  payable (msg.sender).send(msg.value) */\n      swap1\n      dup2\n      iszero\n      mul\n      swap1\n      mload(0x40)\n      0x00\n      mload(0x40)\n      dup1\n      dup4\n      sub\n      dup2\n      dup6\n      dup9\n      dup9\n      call\n      swap4\n      pop\n      pop\n      pop\n      pop\n        /* \"contracts/EtherWallet.sol\":661:707  success = payable (msg.sender).send(msg.value) */\n      swap1\n      pop\n        /* \"contracts/EtherWallet.sol\":578:717  function withdraw2()external payable onlyOwner returns (bool success) {... */\n      swap1\n      jump\t// out\n        /* \"#utility.yul\":7:176   */\n    tag_49:\n        /* \"#utility.yul\":91:102   */\n      0x00\n        /* \"#utility.yul\":125:131   */\n      dup3\n        /* \"#utility.yul\":120:123   */\n      dup3\n        /* \"#utility.yul\":113:132   */\n      mstore\n        /* \"#utility.yul\":165:169   */\n      0x20\n        /* \"#utility.yul\":160:163   */\n      dup3\n        /* \"#utility.yul\":156:170   */\n      add\n        /* \"#utility.yul\":141:170   */\n      swap1\n      pop\n        /* \"#utility.yul\":7:176   */\n      swap3\n      swap2\n      pop\n      pop\n      jump\t// out\n        /* \"#utility.yul\":182:339   */\n    tag_50:\n        /* \"#utility.yul\":322:331   */\n      0x7265636569766500000000000000000000000000000000000000000000000000\n        /* \"#utility.yul\":318:319   */\n      0x00\n        /* \"#utility.yul\":310:316   */\n      dup3\n        /* \"#utility.yul\":306:320   */\n      add\n        /* \"#utility.yul\":299:332   */\n      mstore\n        /* \"#utility.yul\":182:339   */\n      pop\n      jump\t// out\n        /* \"#utility.yul\":345:710   */\n    tag_51:\n        /* \"#utility.yul\":487:490   */\n      0x00\n        /* \"#utility.yul\":508:574   */\n      tag_72\n        /* \"#utility.yul\":572:573   */\n      0x07\n        /* \"#utility.yul\":567:570   */\n      dup4\n        /* \"#utility.yul\":508:574   */\n      tag_49\n      jump\t// in\n    tag_72:\n        /* \"#utility.yul\":501:574   */\n      swap2\n      pop\n        /* \"#utility.yul\":583:676   */\n      tag_73\n        /* \"#utility.yul\":672:675   */\n      dup3\n        /* \"#utility.yul\":583:676   */\n      tag_50\n      jump\t// in\n    tag_73:\n        /* \"#utility.yul\":701:703   */\n      0x20\n        /* \"#utility.yul\":696:699   */\n      dup3\n        /* \"#utility.yul\":692:704   */\n      add\n        /* \"#utility.yul\":685:704   */\n      swap1\n      pop\n        /* \"#utility.yul\":345:710   */\n      swap2\n      swap1\n      pop\n      jump\t// out\n        /* \"#utility.yul\":716:842   */\n    tag_52:\n        /* \"#utility.yul\":753:760   */\n      0x00\n        /* \"#utility.yul\":793:835   */\n      0xffffffffffffffffffffffffffffffffffffffff\n        /* \"#utility.yul\":786:791   */\n      dup3\n        /* \"#utility.yul\":782:836   */\n      and\n        /* \"#utility.yul\":771:836   */\n      swap1\n      pop\n        /* \"#utility.yul\":716:842   */\n      swap2\n      swap1\n      pop\n      jump\t// out\n        /* \"#utility.yul\":848:944   */\n    tag_53:\n        /* \"#utility.yul\":885:892   */\n      0x00\n        /* \"#utility.yul\":914:938   */\n      tag_76\n        /* \"#utility.yul\":932:937   */\n      dup3\n        /* \"#utility.yul\":914:938   */\n      tag_52\n      jump\t// in\n    tag_76:\n        /* \"#utility.yul\":903:938   */\n      swap1\n      pop\n        /* \"#utility.yul\":848:944   */\n      swap2\n      swap1\n      pop\n      jump\t// out\n        /* \"#utility.yul\":950:1068   */\n    tag_54:\n        /* \"#utility.yul\":1037:1061   */\n      tag_78\n        /* \"#utility.yul\":1055:1060   */\n      dup2\n        /* \"#utility.yul\":1037:1061   */\n      tag_53\n      jump\t// in\n    tag_78:\n        /* \"#utility.yul\":1032:1035   */\n      dup3\n        /* \"#utility.yul\":1025:1062   */\n      mstore\n        /* \"#utility.yul\":950:1068   */\n      pop\n      pop\n      jump\t// out\n        /* \"#utility.yul\":1074:1151   */\n    tag_55:\n        /* \"#utility.yul\":1111:1118   */\n      0x00\n        /* \"#utility.yul\":1140:1145   */\n      dup2\n        /* \"#utility.yul\":1129:1145   */\n      swap1\n      pop\n        /* \"#utility.yul\":1074:1151   */\n      swap2\n      swap1\n      pop\n      jump\t// out\n        /* \"#utility.yul\":1157:1275   */\n    tag_56:\n        /* \"#utility.yul\":1244:1268   */\n      tag_81\n        /* \"#utility.yul\":1262:1267   */\n      dup2\n        /* \"#utility.yul\":1244:1268   */\n      tag_55\n      jump\t// in\n    tag_81:\n        /* \"#utility.yul\":1239:1242   */\n      dup3\n        /* \"#utility.yul\":1232:1269   */\n      mstore\n        /* \"#utility.yul\":1157:1275   */\n      pop\n      pop\n      jump\t// out\n        /* \"#utility.yul\":1281:1449   */\n    tag_57:\n        /* \"#utility.yul\":1364:1375   */\n      0x00\n        /* \"#utility.yul\":1398:1404   */\n      dup3\n        /* \"#utility.yul\":1393:1396   */\n      dup3\n        /* \"#utility.yul\":1386:1405   */\n      mstore\n        /* \"#utility.yul\":1438:1442   */\n      0x20\n        /* \"#utility.yul\":1433:1436   */\n      dup3\n        /* \"#utility.yul\":1429:1443   */\n      add\n        /* \"#utility.yul\":1414:1443   */\n      swap1\n      pop\n        /* \"#utility.yul\":1281:1449   */\n      swap3\n      swap2\n      pop\n      pop\n      jump\t// out\n        /* \"#utility.yul\":1455:1569   */\n    tag_58:\n      pop\n      jump\t// out\n        /* \"#utility.yul\":1575:1937   */\n    tag_59:\n        /* \"#utility.yul\":1716:1719   */\n      0x00\n        /* \"#utility.yul\":1737:1802   */\n      tag_85\n        /* \"#utility.yul\":1800:1801   */\n      0x00\n        /* \"#utility.yul\":1795:1798   */\n      dup4\n        /* \"#utility.yul\":1737:1802   */\n      tag_57\n      jump\t// in\n    tag_85:\n        /* \"#utility.yul\":1730:1802   */\n      swap2\n      pop\n        /* \"#utility.yul\":1811:1904   */\n      tag_86\n        /* \"#utility.yul\":1900:1903   */\n      dup3\n        /* \"#utility.yul\":1811:1904   */\n      tag_58\n      jump\t// in\n    tag_86:\n        /* \"#utility.yul\":1929:1930   */\n      0x00\n        /* \"#utility.yul\":1924:1927   */\n      dup3\n        /* \"#utility.yul\":1920:1931   */\n      add\n        /* \"#utility.yul\":1913:1931   */\n      swap1\n      pop\n        /* \"#utility.yul\":1575:1937   */\n      swap2\n      swap1\n      pop\n      jump\t// out\n        /* \"#utility.yul\":1943:2888   */\n    tag_10:\n        /* \"#utility.yul\":2265:2269   */\n      0x00\n        /* \"#utility.yul\":2303:2306   */\n      0x80\n        /* \"#utility.yul\":2292:2301   */\n      dup3\n        /* \"#utility.yul\":2288:2307   */\n      add\n        /* \"#utility.yul\":2280:2307   */\n      swap1\n      pop\n        /* \"#utility.yul\":2353:2362   */\n      dup2\n        /* \"#utility.yul\":2347:2351   */\n      dup2\n        /* \"#utility.yul\":2343:2363   */\n      sub\n        /* \"#utility.yul\":2339:2340   */\n      0x00\n        /* \"#utility.yul\":2328:2337   */\n      dup4\n        /* \"#utility.yul\":2324:2341   */\n      add\n        /* \"#utility.yul\":2317:2364   */\n      mstore\n        /* \"#utility.yul\":2381:2512   */\n      tag_88\n        /* \"#utility.yul\":2507:2511   */\n      dup2\n        /* \"#utility.yul\":2381:2512   */\n      tag_51\n      jump\t// in\n    tag_88:\n        /* \"#utility.yul\":2373:2512   */\n      swap1\n      pop\n        /* \"#utility.yul\":2522:2594   */\n      tag_89\n        /* \"#utility.yul\":2590:2592   */\n      0x20\n        /* \"#utility.yul\":2579:2588   */\n      dup4\n        /* \"#utility.yul\":2575:2593   */\n      add\n        /* \"#utility.yul\":2566:2572   */\n      dup6\n        /* \"#utility.yul\":2522:2594   */\n      tag_54\n      jump\t// in\n    tag_89:\n        /* \"#utility.yul\":2604:2676   */\n      tag_90\n        /* \"#utility.yul\":2672:2674   */\n      0x40\n        /* \"#utility.yul\":2661:2670   */\n      dup4\n        /* \"#utility.yul\":2657:2675   */\n      add\n        /* \"#utility.yul\":2648:2654   */\n      dup5\n        /* \"#utility.yul\":2604:2676   */\n      tag_56\n      jump\t// in\n    tag_90:\n        /* \"#utility.yul\":2723:2732   */\n      dup2\n        /* \"#utility.yul\":2717:2721   */\n      dup2\n        /* \"#utility.yul\":2713:2733   */\n      sub\n        /* \"#utility.yul\":2708:2710   */\n      0x60\n        /* \"#utility.yul\":2697:2706   */\n      dup4\n        /* \"#utility.yul\":2693:2711   */\n      add\n        /* \"#utility.yul\":2686:2734   */\n      mstore\n        /* \"#utility.yul\":2751:2881   */\n      tag_91\n        /* \"#utility.yul\":2876:2880   */\n      dup2\n        /* \"#utility.yul\":2751:2881   */\n      tag_59\n      jump\t// in\n    tag_91:\n        /* \"#utility.yul\":2743:2881   */\n      swap1\n      pop\n        /* \"#utility.yul\":1943:2888   */\n      swap4\n      swap3\n      pop\n      pop\n      pop\n      jump\t// out\n        /* \"#utility.yul\":2894:3116   */\n    tag_20:\n        /* \"#utility.yul\":2987:2991   */\n      0x00\n        /* \"#utility.yul\":3025:3027   */\n      0x20\n        /* \"#utility.yul\":3014:3023   */\n      dup3\n        /* \"#utility.yul\":3010:3028   */\n      add\n        /* \"#utility.yul\":3002:3028   */\n      swap1\n      pop\n        /* \"#utility.yul\":3038:3109   */\n      tag_93\n        /* \"#utility.yul\":3106:3107   */\n      0x00\n        /* \"#utility.yul\":3095:3104   */\n      dup4\n        /* \"#utility.yul\":3091:3108   */\n      add\n        /* \"#utility.yul\":3082:3088   */\n      dup5\n        /* \"#utility.yul\":3038:3109   */\n      tag_54\n      jump\t// in\n    tag_93:\n        /* \"#utility.yul\":2894:3116   */\n      swap3\n      swap2\n      pop\n      pop\n      jump\t// out\n        /* \"#utility.yul\":3122:3212   */\n    tag_60:\n        /* \"#utility.yul\":3156:3163   */\n      0x00\n        /* \"#utility.yul\":3199:3204   */\n      dup2\n        /* \"#utility.yul\":3192:3205   */\n      iszero\n        /* \"#utility.yul\":3185:3206   */\n      iszero\n        /* \"#utility.yul\":3174:3206   */\n      swap1\n      pop\n        /* \"#utility.yul\":3122:3212   */\n      swap2\n      swap1\n      pop\n      jump\t// out\n        /* \"#utility.yul\":3218:3327   */\n    tag_61:\n        /* \"#utility.yul\":3299:3320   */\n      tag_96\n        /* \"#utility.yul\":3314:3319   */\n      dup2\n        /* \"#utility.yul\":3299:3320   */\n      tag_60\n      jump\t// in\n    tag_96:\n        /* \"#utility.yul\":3294:3297   */\n      dup3\n        /* \"#utility.yul\":3287:3321   */\n      mstore\n        /* \"#utility.yul\":3218:3327   */\n      pop\n      pop\n      jump\t// out\n        /* \"#utility.yul\":3333:3543   */\n    tag_24:\n        /* \"#utility.yul\":3420:3424   */\n      0x00\n        /* \"#utility.yul\":3458:3460   */\n      0x20\n        /* \"#utility.yul\":3447:3456   */\n      dup3\n        /* \"#utility.yul\":3443:3461   */\n      add\n        /* \"#utility.yul\":3435:3461   */\n      swap1\n      pop\n        /* \"#utility.yul\":3471:3536   */\n      tag_98\n        /* \"#utility.yul\":3533:3534   */\n      0x00\n        /* \"#utility.yul\":3522:3531   */\n      dup4\n        /* \"#utility.yul\":3518:3535   */\n      add\n        /* \"#utility.yul\":3509:3515   */\n      dup5\n        /* \"#utility.yul\":3471:3536   */\n      tag_61\n      jump\t// in\n    tag_98:\n        /* \"#utility.yul\":3333:3543   */\n      swap3\n      swap2\n      pop\n      pop\n      jump\t// out\n        /* \"#utility.yul\":3549:3710   */\n    tag_62:\n        /* \"#utility.yul\":3689:3702   */\n      0x6f776572206973206e6f74000000000000000000000000000000000000000000\n        /* \"#utility.yul\":3685:3686   */\n      0x00\n        /* \"#utility.yul\":3677:3683   */\n      dup3\n        /* \"#utility.yul\":3673:3687   */\n      add\n        /* \"#utility.yul\":3666:3703   */\n      mstore\n        /* \"#utility.yul\":3549:3710   */\n      pop\n      jump\t// out\n        /* \"#utility.yul\":3716:4082   */\n    tag_63:\n        /* \"#utility.yul\":3858:3861   */\n      0x00\n        /* \"#utility.yul\":3879:3946   */\n      tag_101\n        /* \"#utility.yul\":3943:3945   */\n      0x0b\n        /* \"#utility.yul\":3938:3941   */\n      dup4\n        /* \"#utility.yul\":3879:3946   */\n      tag_49\n      jump\t// in\n    tag_101:\n        /* \"#utility.yul\":3872:3946   */\n      swap2\n      pop\n        /* \"#utility.yul\":3955:4048   */\n      tag_102\n        /* \"#utility.yul\":4044:4047   */\n      dup3\n        /* \"#utility.yul\":3955:4048   */\n      tag_62\n      jump\t// in\n    tag_102:\n        /* \"#utility.yul\":4073:4075   */\n      0x20\n        /* \"#utility.yul\":4068:4071   */\n      dup3\n        /* \"#utility.yul\":4064:4076   */\n      add\n        /* \"#utility.yul\":4057:4076   */\n      swap1\n      pop\n        /* \"#utility.yul\":3716:4082   */\n      swap2\n      swap1\n      pop\n      jump\t// out\n        /* \"#utility.yul\":4088:4507   */\n    tag_28:\n        /* \"#utility.yul\":4254:4258   */\n      0x00\n        /* \"#utility.yul\":4292:4294   */\n      0x20\n        /* \"#utility.yul\":4281:4290   */\n      dup3\n        /* \"#utility.yul\":4277:4295   */\n      add\n        /* \"#utility.yul\":4269:4295   */\n      swap1\n      pop\n        /* \"#utility.yul\":4341:4350   */\n      dup2\n        /* \"#utility.yul\":4335:4339   */\n      dup2\n        /* \"#utility.yul\":4331:4351   */\n      sub\n        /* \"#utility.yul\":4327:4328   */\n      0x00\n        /* \"#utility.yul\":4316:4325   */\n      dup4\n        /* \"#utility.yul\":4312:4329   */\n      add\n        /* \"#utility.yul\":4305:4352   */\n      mstore\n        /* \"#utility.yul\":4369:4500   */\n      tag_104\n        /* \"#utility.yul\":4495:4499   */\n      dup2\n        /* \"#utility.yul\":4369:4500   */\n      tag_63\n      jump\t// in\n    tag_104:\n        /* \"#utility.yul\":4361:4500   */\n      swap1\n      pop\n        /* \"#utility.yul\":4088:4507   */\n      swap2\n      swap1\n      pop\n      jump\t// out\n        /* \"#utility.yul\":4513:4660   */\n    tag_64:\n        /* \"#utility.yul\":4614:4625   */\n      0x00\n        /* \"#utility.yul\":4651:4654   */\n      dup2\n        /* \"#utility.yul\":4636:4654   */\n      swap1\n      pop\n        /* \"#utility.yul\":4513:4660   */\n      swap3\n      swap2\n      pop\n      pop\n      jump\t// out\n        /* \"#utility.yul\":4666:5064   */\n    tag_65:\n        /* \"#utility.yul\":4825:4828   */\n      0x00\n        /* \"#utility.yul\":4846:4929   */\n      tag_107\n        /* \"#utility.yul\":4927:4928   */\n      0x00\n        /* \"#utility.yul\":4922:4925   */\n      dup4\n        /* \"#utility.yul\":4846:4929   */\n      tag_64\n      jump\t// in\n    tag_107:\n        /* \"#utility.yul\":4839:4929   */\n      swap2\n      pop\n        /* \"#utility.yul\":4938:5031   */\n      tag_108\n        /* \"#utility.yul\":5027:5030   */\n      dup3\n        /* \"#utility.yul\":4938:5031   */\n      tag_58\n      jump\t// in\n    tag_108:\n        /* \"#utility.yul\":5056:5057   */\n      0x00\n        /* \"#utility.yul\":5051:5054   */\n      dup3\n        /* \"#utility.yul\":5047:5058   */\n      add\n        /* \"#utility.yul\":5040:5058   */\n      swap1\n      pop\n        /* \"#utility.yul\":4666:5064   */\n      swap2\n      swap1\n      pop\n      jump\t// out\n        /* \"#utility.yul\":5070:5449   */\n    tag_37:\n        /* \"#utility.yul\":5254:5257   */\n      0x00\n        /* \"#utility.yul\":5276:5423   */\n      tag_110\n        /* \"#utility.yul\":5419:5422   */\n      dup3\n        /* \"#utility.yul\":5276:5423   */\n      tag_65\n      jump\t// in\n    tag_110:\n        /* \"#utility.yul\":5269:5423   */\n      swap2\n      pop\n        /* \"#utility.yul\":5440:5443   */\n      dup2\n        /* \"#utility.yul\":5433:5443   */\n      swap1\n      pop\n        /* \"#utility.yul\":5070:5449   */\n      swap2\n      swap1\n      pop\n      jump\t// out\n        /* \"#utility.yul\":5455:5616   */\n    tag_66:\n        /* \"#utility.yul\":5595:5608   */\n      0x43616c6c204661696c6564000000000000000000000000000000000000000000\n        /* \"#utility.yul\":5591:5592   */\n      0x00\n        /* \"#utility.yul\":5583:5589   */\n      dup3\n        /* \"#utility.yul\":5579:5593   */\n      add\n        /* \"#utility.yul\":5572:5609   */\n      mstore\n        /* \"#utility.yul\":5455:5616   */\n      pop\n      jump\t// out\n        /* \"#utility.yul\":5622:5988   */\n    tag_67:\n        /* \"#utility.yul\":5764:5767   */\n      0x00\n        /* \"#utility.yul\":5785:5852   */\n      tag_113\n        /* \"#utility.yul\":5849:5851   */\n      0x0b\n        /* \"#utility.yul\":5844:5847   */\n      dup4\n        /* \"#utility.yul\":5785:5852   */\n      tag_49\n      jump\t// in\n    tag_113:\n        /* \"#utility.yul\":5778:5852   */\n      swap2\n      pop\n        /* \"#utility.yul\":5861:5954   */\n      tag_114\n        /* \"#utility.yul\":5950:5953   */\n      dup3\n        /* \"#utility.yul\":5861:5954   */\n      tag_66\n      jump\t// in\n    tag_114:\n        /* \"#utility.yul\":5979:5981   */\n      0x20\n        /* \"#utility.yul\":5974:5977   */\n      dup3\n        /* \"#utility.yul\":5970:5982   */\n      add\n        /* \"#utility.yul\":5963:5982   */\n      swap1\n      pop\n        /* \"#utility.yul\":5622:5988   */\n      swap2\n      swap1\n      pop\n      jump\t// out\n        /* \"#utility.yul\":5994:6413   */\n    tag_43:\n        /* \"#utility.yul\":6160:6164   */\n      0x00\n        /* \"#utility.yul\":6198:6200   */\n      0x20\n        /* \"#utility.yul\":6187:6196   */\n      dup3\n        /* \"#utility.yul\":6183:6201   */\n      add\n        /* \"#utility.yul\":6175:6201   */\n      swap1\n      pop\n        /* \"#utility.yul\":6247:6256   */\n      dup2\n        /* \"#utility.yul\":6241:6245   */\n      dup2\n        /* \"#utility.yul\":6237:6257   */\n      sub\n        /* \"#utility.yul\":6233:6234   */\n      0x00\n        /* \"#utility.yul\":6222:6231   */\n      dup4\n        /* \"#utility.yul\":6218:6235   */\n      add\n        /* \"#utility.yul\":6211:6258   */\n      mstore\n        /* \"#utility.yul\":6275:6406   */\n      tag_116\n        /* \"#utility.yul\":6401:6405   */\n      dup2\n        /* \"#utility.yul\":6275:6406   */\n      tag_67\n      jump\t// in\n    tag_116:\n        /* \"#utility.yul\":6267:6406   */\n      swap1\n      pop\n        /* \"#utility.yul\":5994:6413   */\n      swap2\n      swap1\n      pop\n      jump\t// out\n\n    auxdata: 0xa2646970667358221220c077e08c45b9a4c88e305a34af506de46f2a27903f60854a82b6855cea8c7b9f64736f6c634300081d0033\n}\n",
				"bytecode": {
					"linkReferences": {},
					"object": "60a0604052348015600e575f5ffd5b503373ffffffffffffffffffffffffffffffffffffffff1660808173ffffffffffffffffffffffffffffffffffffffff16815250506080516106a76100705f395f8181610106015281816101da015281816102fc015261033801526106a75ff3fe608060405260043610610041575f3560e01c806279efb0146100855780634fa3eeff1461008f5780639438f22a146100a5578063ea98847b146100cf57610081565b36610081577fc087459e37fa5f90d4f348a2ddd98a573a59bab47620d725bceb030dcbe94a7733346040516100779291906104ca565b60405180910390a1005b5f5ffd5b61008d6100ed565b005b34801561009a575f5ffd5b506100a36101c1565b005b3480156100b0575f5ffd5b506100b96102fa565b6040516100c69190610517565b60405180910390f35b6100d761031e565b6040516100e4919061054a565b60405180910390f35b3373ffffffffffffffffffffffffffffffffffffffff167f000000000000000000000000000000000000000000000000000000000000000073ffffffffffffffffffffffffffffffffffffffff161461017b576040517f08c379a0000000000000000000000000000000000000000000000000000000008152600401610172906105ad565b60405180910390fd5b3373ffffffffffffffffffffffffffffffffffffffff166108fc3490811502906040515f60405180830381858888f193505050501580156101be573d5f5f3e3d5ffd5b50565b3373ffffffffffffffffffffffffffffffffffffffff167f000000000000000000000000000000000000000000000000000000000000000073ffffffffffffffffffffffffffffffffffffffff161461024f576040517f08c379a0000000000000000000000000000000000000000000000000000000008152600401610246906105ad565b60405180910390fd5b5f3373ffffffffffffffffffffffffffffffffffffffff1647604051610274906105f5565b5f6040518083038185875af1925050503d805f81146102ae576040519150601f19603f3d011682016040523d82523d5f602084013e6102b3565b606091505b50509050806102f7576040517f08c379a00000000000000000000000000000000000000000000000000000000081526004016102ee90610653565b60405180910390fd5b50565b7f000000000000000000000000000000000000000000000000000000000000000081565b5f3373ffffffffffffffffffffffffffffffffffffffff167f000000000000000000000000000000000000000000000000000000000000000073ffffffffffffffffffffffffffffffffffffffff16146103ad576040517f08c379a00000000000000000000000000000000000000000000000000000000081526004016103a4906105ad565b60405180910390fd5b3373ffffffffffffffffffffffffffffffffffffffff166108fc3490811502906040515f60405180830381858888f19350505050905090565b5f82825260208201905092915050565b7f72656365697665000000000000000000000000000000000000000000000000005f82015250565b5f61042a6007836103e6565b9150610435826103f6565b602082019050919050565b5f73ffffffffffffffffffffffffffffffffffffffff82169050919050565b5f61046982610440565b9050919050565b6104798161045f565b82525050565b5f819050919050565b6104918161047f565b82525050565b5f82825260208201905092915050565b50565b5f6104b55f83610497565b91506104c0826104a7565b5f82019050919050565b5f6080820190508181035f8301526104e18161041e565b90506104f06020830185610470565b6104fd6040830184610488565b818103606083015261050e816104aa565b90509392505050565b5f60208201905061052a5f830184610470565b92915050565b5f8115159050919050565b61054481610530565b82525050565b5f60208201905061055d5f83018461053b565b92915050565b7f6f776572206973206e6f740000000000000000000000000000000000000000005f82015250565b5f610597600b836103e6565b91506105a282610563565b602082019050919050565b5f6020820190508181035f8301526105c48161058b565b9050919050565b5f81905092915050565b5f6105e05f836105cb565b91506105eb826104a7565b5f82019050919050565b5f6105ff826105d5565b9150819050919050565b7f43616c6c204661696c65640000000000000000000000000000000000000000005f82015250565b5f61063d600b836103e6565b915061064882610609565b602082019050919050565b5f6020820190508181035f83015261066a81610631565b905091905056fea2646970667358221220c077e08c45b9a4c88e305a34af506de46f2a27903f60854a82b6855cea8c7b9f64736f6c634300081d0033",
					"opcodes": "PUSH1 0xA0 PUSH1 0x40 MSTORE CALLVALUE DUP1 ISZERO PUSH1 0xE JUMPI PUSH0 PUSH0 REVERT JUMPDEST POP CALLER PUSH20 0xFFFFFFFFFFFFFFFFFFFFFFFFFFFFFFFFFFFFFFFF AND PUSH1 0x80 DUP2 PUSH20 0xFFFFFFFFFFFFFFFFFFFFFFFFFFFFFFFFFFFFFFFF AND DUP2 MSTORE POP POP PUSH1 0x80 MLOAD PUSH2 0x6A7 PUSH2 0x70 PUSH0 CODECOPY PUSH0 DUP2 DUP2 PUSH2 0x106 ADD MSTORE DUP2 DUP2 PUSH2 0x1DA ADD MSTORE DUP2 DUP2 PUSH2 0x2FC ADD MSTORE PUSH2 0x338 ADD MSTORE PUSH2 0x6A7 PUSH0 RETURN INVALID PUSH1 0x80 PUSH1 0x40 MSTORE PUSH1 0x4 CALLDATASIZE LT PUSH2 0x41 JUMPI PUSH0 CALLDATALOAD PUSH1 0xE0 SHR DUP1 PUSH3 0x79EFB0 EQ PUSH2 0x85 JUMPI DUP1 PUSH4 0x4FA3EEFF EQ PUSH2 0x8F JUMPI DUP1 PUSH4 0x9438F22A EQ PUSH2 0xA5 JUMPI DUP1 PUSH4 0xEA98847B EQ PUSH2 0xCF JUMPI PUSH2 0x81 JUMP JUMPDEST CALLDATASIZE PUSH2 0x81 JUMPI PUSH32 0xC087459E37FA5F90D4F348A2DDD98A573A59BAB47620D725BCEB030DCBE94A77 CALLER CALLVALUE PUSH1 0x40 MLOAD PUSH2 0x77 SWAP3 SWAP2 SWAP1 PUSH2 0x4CA JUMP JUMPDEST PUSH1 0x40 MLOAD DUP1 SWAP2 SUB SWAP1 LOG1 STOP JUMPDEST PUSH0 PUSH0 REVERT JUMPDEST PUSH2 0x8D PUSH2 0xED JUMP JUMPDEST STOP JUMPDEST CALLVALUE DUP1 ISZERO PUSH2 0x9A JUMPI PUSH0 PUSH0 REVERT JUMPDEST POP PUSH2 0xA3 PUSH2 0x1C1 JUMP JUMPDEST STOP JUMPDEST CALLVALUE DUP1 ISZERO PUSH2 0xB0 JUMPI PUSH0 PUSH0 REVERT JUMPDEST POP PUSH2 0xB9 PUSH2 0x2FA JUMP JUMPDEST PUSH1 0x40 MLOAD PUSH2 0xC6 SWAP2 SWAP1 PUSH2 0x517 JUMP JUMPDEST PUSH1 0x40 MLOAD DUP1 SWAP2 SUB SWAP1 RETURN JUMPDEST PUSH2 0xD7 PUSH2 0x31E JUMP JUMPDEST PUSH1 0x40 MLOAD PUSH2 0xE4 SWAP2 SWAP1 PUSH2 0x54A JUMP JUMPDEST PUSH1 0x40 MLOAD DUP1 SWAP2 SUB SWAP1 RETURN JUMPDEST CALLER PUSH20 0xFFFFFFFFFFFFFFFFFFFFFFFFFFFFFFFFFFFFFFFF AND PUSH32 0x0 PUSH20 0xFFFFFFFFFFFFFFFFFFFFFFFFFFFFFFFFFFFFFFFF AND EQ PUSH2 0x17B JUMPI PUSH1 0x40 MLOAD PUSH32 0x8C379A000000000000000000000000000000000000000000000000000000000 DUP2 MSTORE PUSH1 0x4 ADD PUSH2 0x172 SWAP1 PUSH2 0x5AD JUMP JUMPDEST PUSH1 0x40 MLOAD DUP1 SWAP2 SUB SWAP1 REVERT JUMPDEST CALLER PUSH20 0xFFFFFFFFFFFFFFFFFFFFFFFFFFFFFFFFFFFFFFFF AND PUSH2 0x8FC CALLVALUE SWAP1 DUP2 ISZERO MUL SWAP1 PUSH1 0x40 MLOAD PUSH0 PUSH1 0x40 MLOAD DUP1 DUP4 SUB DUP2 DUP6 DUP9 DUP9 CALL SWAP4 POP POP POP POP ISZERO DUP1 ISZERO PUSH2 0x1BE JUMPI RETURNDATASIZE PUSH0 PUSH0 RETURNDATACOPY RETURNDATASIZE PUSH0 REVERT JUMPDEST POP JUMP JUMPDEST CALLER PUSH20 0xFFFFFFFFFFFFFFFFFFFFFFFFFFFFFFFFFFFFFFFF AND PUSH32 0x0 PUSH20 0xFFFFFFFFFFFFFFFFFFFFFFFFFFFFFFFFFFFFFFFF AND EQ PUSH2 0x24F JUMPI PUSH1 0x40 MLOAD PUSH32 0x8C379A000000000000000000000000000000000000000000000000000000000 DUP2 MSTORE PUSH1 0x4 ADD PUSH2 0x246 SWAP1 PUSH2 0x5AD JUMP JUMPDEST PUSH1 0x40 MLOAD DUP1 SWAP2 SUB SWAP1 REVERT JUMPDEST PUSH0 CALLER PUSH20 0xFFFFFFFFFFFFFFFFFFFFFFFFFFFFFFFFFFFFFFFF AND SELFBALANCE PUSH1 0x40 MLOAD PUSH2 0x274 SWAP1 PUSH2 0x5F5 JUMP JUMPDEST PUSH0 PUSH1 0x40 MLOAD DUP1 DUP4 SUB DUP2 DUP6 DUP8 GAS CALL SWAP3 POP POP POP RETURNDATASIZE DUP1 PUSH0 DUP2 EQ PUSH2 0x2AE JUMPI PUSH1 0x40 MLOAD SWAP2 POP PUSH1 0x1F NOT PUSH1 0x3F RETURNDATASIZE ADD AND DUP3 ADD PUSH1 0x40 MSTORE RETURNDATASIZE DUP3 MSTORE RETURNDATASIZE PUSH0 PUSH1 0x20 DUP5 ADD RETURNDATACOPY PUSH2 0x2B3 JUMP JUMPDEST PUSH1 0x60 SWAP2 POP JUMPDEST POP POP SWAP1 POP DUP1 PUSH2 0x2F7 JUMPI PUSH1 0x40 MLOAD PUSH32 0x8C379A000000000000000000000000000000000000000000000000000000000 DUP2 MSTORE PUSH1 0x4 ADD PUSH2 0x2EE SWAP1 PUSH2 0x653 JUMP JUMPDEST PUSH1 0x40 MLOAD DUP1 SWAP2 SUB SWAP1 REVERT JUMPDEST POP JUMP JUMPDEST PUSH32 0x0 DUP2 JUMP JUMPDEST PUSH0 CALLER PUSH20 0xFFFFFFFFFFFFFFFFFFFFFFFFFFFFFFFFFFFFFFFF AND PUSH32 0x0 PUSH20 0xFFFFFFFFFFFFFFFFFFFFFFFFFFFFFFFFFFFFFFFF AND EQ PUSH2 0x3AD JUMPI PUSH1 0x40 MLOAD PUSH32 0x8C379A000000000000000000000000000000000000000000000000000000000 DUP2 MSTORE PUSH1 0x4 ADD PUSH2 0x3A4 SWAP1 PUSH2 0x5AD JUMP JUMPDEST PUSH1 0x40 MLOAD DUP1 SWAP2 SUB SWAP1 REVERT JUMPDEST CALLER PUSH20 0xFFFFFFFFFFFFFFFFFFFFFFFFFFFFFFFFFFFFFFFF AND PUSH2 0x8FC CALLVALUE SWAP1 DUP2 ISZERO MUL SWAP1 PUSH1 0x40 MLOAD PUSH0 PUSH1 0x40 MLOAD DUP1 DUP4 SUB DUP2 DUP6 DUP9 DUP9 CALL SWAP4 POP POP POP POP SWAP1 POP SWAP1 JUMP JUMPDEST PUSH0 DUP3 DUP3 MSTORE PUSH1 0x20 DUP3 ADD SWAP1 POP SWAP3 SWAP2 POP POP JUMP JUMPDEST PUSH32 0x7265636569766500000000000000000000000000000000000000000000000000 PUSH0 DUP3 ADD MSTORE POP JUMP JUMPDEST PUSH0 PUSH2 0x42A PUSH1 0x7 DUP4 PUSH2 0x3E6 JUMP JUMPDEST SWAP2 POP PUSH2 0x435 DUP3 PUSH2 0x3F6 JUMP JUMPDEST PUSH1 0x20 DUP3 ADD SWAP1 POP SWAP2 SWAP1 POP JUMP JUMPDEST PUSH0 PUSH20 0xFFFFFFFFFFFFFFFFFFFFFFFFFFFFFFFFFFFFFFFF DUP3 AND SWAP1 POP SWAP2 SWAP1 POP JUMP JUMPDEST PUSH0 PUSH2 0x469 DUP3 PUSH2 0x440 JUMP JUMPDEST SWAP1 POP SWAP2 SWAP1 POP JUMP JUMPDEST PUSH2 0x479 DUP2 PUSH2 0x45F JUMP JUMPDEST DUP3 MSTORE POP POP JUMP JUMPDEST PUSH0 DUP2 SWAP1 POP SWAP2 SWAP1 POP JUMP JUMPDEST PUSH2 0x491 DUP2 PUSH2 0x47F JUMP JUMPDEST DUP3 MSTORE POP POP JUMP JUMPDEST PUSH0 DUP3 DUP3 MSTORE PUSH1 0x20 DUP3 ADD SWAP1 POP SWAP3 SWAP2 POP POP JUMP JUMPDEST POP JUMP JUMPDEST PUSH0 PUSH2 0x4B5 PUSH0 DUP4 PUSH2 0x497 JUMP JUMPDEST SWAP2 POP PUSH2 0x4C0 DUP3 PUSH2 0x4A7 JUMP JUMPDEST PUSH0 DUP3 ADD SWAP1 POP SWAP2 SWAP1 POP JUMP JUMPDEST PUSH0 PUSH1 0x80 DUP3 ADD SWAP1 POP DUP2 DUP2 SUB PUSH0 DUP4 ADD MSTORE PUSH2 0x4E1 DUP2 PUSH2 0x41E JUMP JUMPDEST SWAP1 POP PUSH2 0x4F0 PUSH1 0x20 DUP4 ADD DUP6 PUSH2 0x470 JUMP JUMPDEST PUSH2 0x4FD PUSH1 0x40 DUP4 ADD DUP5 PUSH2 0x488 JUMP JUMPDEST DUP2 DUP2 SUB PUSH1 0x60 DUP4 ADD MSTORE PUSH2 0x50E DUP2 PUSH2 0x4AA JUMP JUMPDEST SWAP1 POP SWAP4 SWAP3 POP POP POP JUMP JUMPDEST PUSH0 PUSH1 0x20 DUP3 ADD SWAP1 POP PUSH2 0x52A PUSH0 DUP4 ADD DUP5 PUSH2 0x470 JUMP JUMPDEST SWAP3 SWAP2 POP POP JUMP JUMPDEST PUSH0 DUP2 ISZERO ISZERO SWAP1 POP SWAP2 SWAP1 POP JUMP JUMPDEST PUSH2 0x544 DUP2 PUSH2 0x530 JUMP JUMPDEST DUP3 MSTORE POP POP JUMP JUMPDEST PUSH0 PUSH1 0x20 DUP3 ADD SWAP1 POP PUSH2 0x55D PUSH0 DUP4 ADD DUP5 PUSH2 0x53B JUMP JUMPDEST SWAP3 SWAP2 POP POP JUMP JUMPDEST PUSH32 0x6F776572206973206E6F74000000000000000000000000000000000000000000 PUSH0 DUP3 ADD MSTORE POP JUMP JUMPDEST PUSH0 PUSH2 0x597 PUSH1 0xB DUP4 PUSH2 0x3E6 JUMP JUMPDEST SWAP2 POP PUSH2 0x5A2 DUP3 PUSH2 0x563 JUMP JUMPDEST PUSH1 0x20 DUP3 ADD SWAP1 POP SWAP2 SWAP1 POP JUMP JUMPDEST PUSH0 PUSH1 0x20 DUP3 ADD SWAP1 POP DUP2 DUP2 SUB PUSH0 DUP4 ADD MSTORE PUSH2 0x5C4 DUP2 PUSH2 0x58B JUMP JUMPDEST SWAP1 POP SWAP2 SWAP1 POP JUMP JUMPDEST PUSH0 DUP2 SWAP1 POP SWAP3 SWAP2 POP POP JUMP JUMPDEST PUSH0 PUSH2 0x5E0 PUSH0 DUP4 PUSH2 0x5CB JUMP JUMPDEST SWAP2 POP PUSH2 0x5EB DUP3 PUSH2 0x4A7 JUMP JUMPDEST PUSH0 DUP3 ADD SWAP1 POP SWAP2 SWAP1 POP JUMP JUMPDEST PUSH0 PUSH2 0x5FF DUP3 PUSH2 0x5D5 JUMP JUMPDEST SWAP2 POP DUP2 SWAP1 POP SWAP2 SWAP1 POP JUMP JUMPDEST PUSH32 0x43616C6C204661696C6564000000000000000000000000000000000000000000 PUSH0 DUP3 ADD MSTORE POP JUMP JUMPDEST PUSH0 PUSH2 0x63D PUSH1 0xB DUP4 PUSH2 0x3E6 JUMP JUMPDEST SWAP2 POP PUSH2 0x648 DUP3 PUSH2 0x609 JUMP JUMPDEST PUSH1 0x20 DUP3 ADD SWAP1 POP SWAP2 SWAP1 POP JUMP JUMPDEST PUSH0 PUSH1 0x20 DUP3 ADD SWAP1 POP DUP2 DUP2 SUB PUSH0 DUP4 ADD MSTORE PUSH2 0x66A DUP2 PUSH2 0x631 JUMP JUMPDEST SWAP1 POP SWAP2 SWAP1 POP JUMP INVALID LOG2 PUSH5 0x6970667358 0x22 SLT KECCAK256 0xC0 PUSH24 0xE08C45B9A4C88E305A34AF506DE46F2A27903F60854A82B6 DUP6 TLOAD 0xEA DUP13 PUSH28 0x9F64736F6C634300081D003300000000000000000000000000000000 "
				},
				"gasEstimates": {
					"creation": {
						"codeDepositCost": "340600",
						"executionCost": "infinite",
						"totalCost": "infinite"
					},
					"external": {
						"ower()": "infinite",
						"withdraw1()": "infinite",
						"withdraw2()": "infinite",
						"withdraw3()": "infinite"
					}
				},
				"methodIdentifiers": {
					"ower()": "9438f22a",
					"withdraw1()": "0079efb0",
					"withdraw2()": "ea98847b",
					"withdraw3()": "4fa3eeff"
				}
			},
			"storageLayout": {
				"storage": [],
				"types": null
			},
			"userdoc": {
				"kind": "user",
				"methods": {},
				"version": 1
			}
		}
	}
}