{
	"contracts/13_transcationTest01.sol": {
		"Trans": {
			"abi": [
				{
					"anonymous": false,
					"inputs": [
						{
							"indexed": true,
							"internalType": "address",
							"name": "from",
							"type": "address"
						},
						{
							"indexed": true,
							"internalType": "uint256",
							"name": "amount",
							"type": "uint256"
						},
						{
							"indexed": false,
							"internalType": "uint256",
							"name": "timestemp",
							"type": "uint256"
						}
					],
					"name": "Pays",
					"type": "event"
				},
				{
					"inputs": [],
					"name": "Transfer",
					"outputs": [
						{
							"internalType": "bool",
							"name": "",
							"type": "bool"
						}
					],
					"stateMutability": "payable",
					"type": "function"
				},
				{
					"inputs": [
						{
							"internalType": "address",
							"name": "",
							"type": "address"
						}
					],
					"name": "balances",
					"outputs": [
						{
							"internalType": "uint256",
							"name": "",
							"type": "uint256"
						}
					],
					"stateMutability": "view",
					"type": "function"
				},
				{
					"inputs": [],
					"name": "getBalances",
					"outputs": [
						{
							"internalType": "uint256",
							"name": "",
							"type": "uint256"
						}
					],
					"stateMutability": "view",
					"type": "function"
				},
				{
					"inputs": [
						{
							"internalType": "address",
							"name": "_user",
							"type": "address"
						}
					],
					"name": "getUserBalances",
					"outputs": [
						{
							"internalType": "uint256",
							"name": "",
							"type": "uint256"
						}
					],
					"stateMutability": "view",
					"type": "function"
				},
				{
					"inputs": [],
					"name": "test01",
					"outputs": [
						{
							"internalType": "uint256",
							"name": "",
							"type": "uint256"
						}
					],
					"stateMutability": "pure",
					"type": "function"
				}
			],
			"devdoc": {
				"kind": "dev",
				"methods": {},
				"version": 1
			},
			"evm": {
				"assembly": "    /* \"contracts/13_transcationTest01.sol\":61:885  contract Trans{... */\n  mstore(0x40, 0x80)\n  callvalue\n  dup1\n  iszero\n  tag_1\n  jumpi\n  0x00\n  dup1\n  revert\ntag_1:\n  pop\n  dataSize(sub_0)\n  dup1\n  dataOffset(sub_0)\n  0x00\n  codecopy\n  0x00\n  return\nstop\n\nsub_0: assembly {\n        /* \"contracts/13_transcationTest01.sol\":61:885  contract Trans{... */\n      mstore(0x40, 0x80)\n      jumpi(tag_1, lt(calldatasize, 0x04))\n      shr(0xe0, calldataload(0x00))\n      dup1\n      0x113e08\n      eq\n      tag_2\n      jumpi\n      dup1\n      0x1b18f952\n      eq\n      tag_3\n      jumpi\n      dup1\n      0x27e235e3\n      eq\n      tag_4\n      jumpi\n      dup1\n      0x406dade3\n      eq\n      tag_5\n      jumpi\n      dup1\n      0xabd3f612\n      eq\n      tag_6\n      jumpi\n    tag_1:\n      0x00\n      dup1\n      revert\n        /* \"contracts/13_transcationTest01.sol\":497:602  function getBalances()external view returns (uint256){... */\n    tag_2:\n      callvalue\n      dup1\n      iszero\n      tag_7\n      jumpi\n      0x00\n      dup1\n      revert\n    tag_7:\n      pop\n      tag_8\n      tag_9\n      jump\t// in\n    tag_8:\n      mload(0x40)\n      tag_10\n      swap2\n      swap1\n      tag_11\n      jump\t// in\n    tag_10:\n      mload(0x40)\n      dup1\n      swap2\n      sub\n      swap1\n      return\n        /* \"contracts/13_transcationTest01.sol\":762:881  function test01()public pure  returns (uint){... */\n    tag_3:\n      callvalue\n      dup1\n      iszero\n      tag_12\n      jumpi\n      0x00\n      dup1\n      revert\n    tag_12:\n      pop\n      tag_13\n      tag_14\n      jump\t// in\n    tag_13:\n      mload(0x40)\n      tag_15\n      swap2\n      swap1\n      tag_11\n      jump\t// in\n    tag_15:\n      mload(0x40)\n      dup1\n      swap2\n      sub\n      swap1\n      return\n        /* \"contracts/13_transcationTest01.sol\":86:127  mapping (address => uint) public balances */\n    tag_4:\n      callvalue\n      dup1\n      iszero\n      tag_16\n      jumpi\n      0x00\n      dup1\n      revert\n    tag_16:\n      pop\n      tag_17\n      0x04\n      dup1\n      calldatasize\n      sub\n      dup2\n      add\n      swap1\n      tag_18\n      swap2\n      swap1\n      tag_19\n      jump\t// in\n    tag_18:\n      tag_20\n      jump\t// in\n    tag_17:\n      mload(0x40)\n      tag_21\n      swap2\n      swap1\n      tag_11\n      jump\t// in\n    tag_21:\n      mload(0x40)\n      dup1\n      swap2\n      sub\n      swap1\n      return\n        /* \"contracts/13_transcationTest01.sol\":224:460  function Transfer()external payable returns (bool){... */\n    tag_5:\n      tag_22\n      tag_23\n      jump\t// in\n    tag_22:\n      mload(0x40)\n      tag_24\n      swap2\n      swap1\n      tag_25\n      jump\t// in\n    tag_24:\n      mload(0x40)\n      dup1\n      swap2\n      sub\n      swap1\n      return\n        /* \"contracts/13_transcationTest01.sol\":643:756  function getUserBalances(address _user) external view returns (uint256){... */\n    tag_6:\n      callvalue\n      dup1\n      iszero\n      tag_26\n      jumpi\n      0x00\n      dup1\n      revert\n    tag_26:\n      pop\n      tag_27\n      0x04\n      dup1\n      calldatasize\n      sub\n      dup2\n      add\n      swap1\n      tag_28\n      swap2\n      swap1\n      tag_19\n      jump\t// in\n    tag_28:\n      tag_29\n      jump\t// in\n    tag_27:\n      mload(0x40)\n      tag_30\n      swap2\n      swap1\n      tag_11\n      jump\t// in\n    tag_30:\n      mload(0x40)\n      dup1\n      swap2\n      sub\n      swap1\n      return\n        /* \"contracts/13_transcationTest01.sol\":497:602  function getBalances()external view returns (uint256){... */\n    tag_9:\n        /* \"contracts/13_transcationTest01.sol\":542:549  uint256 */\n      0x00\n        /* \"contracts/13_transcationTest01.sol\":573:594  address(this).balance */\n      selfbalance\n        /* \"contracts/13_transcationTest01.sol\":566:594  return address(this).balance */\n      swap1\n      pop\n        /* \"contracts/13_transcationTest01.sol\":497:602  function getBalances()external view returns (uint256){... */\n      swap1\n      jump\t// out\n        /* \"contracts/13_transcationTest01.sol\":762:881  function test01()public pure  returns (uint){... */\n    tag_14:\n        /* \"contracts/13_transcationTest01.sol\":801:805  uint */\n      0x00\n        /* \"contracts/13_transcationTest01.sol\":817:828  uint result */\n      dup1\n        /* \"contracts/13_transcationTest01.sol\":846:847  7 */\n      0x07\n        /* \"contracts/13_transcationTest01.sol\":831:848  mulmod(10, 20, 7) */\n      dup1\n      tag_33\n      jumpi\n      tag_34\n      tag_35\n      jump\t// in\n    tag_34:\n    tag_33:\n        /* \"contracts/13_transcationTest01.sol\":842:844  20 */\n      0x14\n        /* \"contracts/13_transcationTest01.sol\":838:840  10 */\n      0x0a\n        /* \"contracts/13_transcationTest01.sol\":831:848  mulmod(10, 20, 7) */\n      mulmod\n        /* \"contracts/13_transcationTest01.sol\":817:848  uint result = mulmod(10, 20, 7) */\n      swap1\n      pop\n        /* \"contracts/13_transcationTest01.sol\":867:873  result */\n      dup1\n        /* \"contracts/13_transcationTest01.sol\":859:873  return  result */\n      swap2\n      pop\n      pop\n        /* \"contracts/13_transcationTest01.sol\":762:881  function test01()public pure  returns (uint){... */\n      swap1\n      jump\t// out\n        /* \"contracts/13_transcationTest01.sol\":86:127  mapping (address => uint) public balances */\n    tag_20:\n      mstore(0x20, 0x00)\n      dup1\n      0x00\n      mstore\n      keccak256(0x00, 0x40)\n      0x00\n      swap2\n      pop\n      swap1\n      pop\n      sload\n      dup2\n      jump\t// out\n        /* \"contracts/13_transcationTest01.sol\":224:460  function Transfer()external payable returns (bool){... */\n    tag_23:\n        /* \"contracts/13_transcationTest01.sol\":269:273  bool */\n      0x00\n        /* \"contracts/13_transcationTest01.sol\":308:309  0 */\n      dup1\n        /* \"contracts/13_transcationTest01.sol\":295:304  msg.value */\n      callvalue\n        /* \"contracts/13_transcationTest01.sol\":295:309  msg.value == 0 */\n      eq\n        /* \"contracts/13_transcationTest01.sol\":287:326  require(msg.value == 0,\"invaild value\") */\n      tag_37\n      jumpi\n      mload(0x40)\n      0x08c379a000000000000000000000000000000000000000000000000000000000\n      dup2\n      mstore\n      0x04\n      add\n      tag_38\n      swap1\n      tag_39\n      jump\t// in\n    tag_38:\n      mload(0x40)\n      dup1\n      swap2\n      sub\n      swap1\n      revert\n    tag_37:\n        /* \"contracts/13_transcationTest01.sol\":363:372  msg.value */\n      callvalue\n        /* \"contracts/13_transcationTest01.sol\":339:347  balances */\n      0x00\n        /* \"contracts/13_transcationTest01.sol\":339:359  balances[msg.sender] */\n      dup1\n        /* \"contracts/13_transcationTest01.sol\":348:358  msg.sender */\n      caller\n        /* \"contracts/13_transcationTest01.sol\":339:359  balances[msg.sender] */\n      0xffffffffffffffffffffffffffffffffffffffff\n      and\n      0xffffffffffffffffffffffffffffffffffffffff\n      and\n      dup2\n      mstore\n      0x20\n      add\n      swap1\n      dup2\n      mstore\n      0x20\n      add\n      0x00\n      keccak256\n      0x00\n        /* \"contracts/13_transcationTest01.sol\":339:372  balances[msg.sender] += msg.value */\n      dup3\n      dup3\n      sload\n      tag_40\n      swap2\n      swap1\n      tag_41\n      jump\t// in\n    tag_40:\n      swap3\n      pop\n      pop\n      dup2\n      swap1\n      sstore\n      pop\n        /* \"contracts/13_transcationTest01.sol\":404:413  msg.value */\n      callvalue\n        /* \"contracts/13_transcationTest01.sol\":393:403  msg.sender */\n      caller\n        /* \"contracts/13_transcationTest01.sol\":388:430  Pays(msg.sender,msg.value,block.timestamp) */\n      0xffffffffffffffffffffffffffffffffffffffff\n      and\n      0x1d0843ff9677ffe051ab55040bfa3adf71e444c19ef0f19fc0688fe546b3b0c3\n        /* \"contracts/13_transcationTest01.sol\":414:429  block.timestamp */\n      timestamp\n        /* \"contracts/13_transcationTest01.sol\":388:430  Pays(msg.sender,msg.value,block.timestamp) */\n      mload(0x40)\n      tag_42\n      swap2\n      swap1\n      tag_11\n      jump\t// in\n    tag_42:\n      mload(0x40)\n      dup1\n      swap2\n      sub\n      swap1\n      log3\n        /* \"contracts/13_transcationTest01.sol\":448:452  true */\n      0x01\n        /* \"contracts/13_transcationTest01.sol\":441:452  return true */\n      swap1\n      pop\n        /* \"contracts/13_transcationTest01.sol\":224:460  function Transfer()external payable returns (bool){... */\n      swap1\n      jump\t// out\n        /* \"contracts/13_transcationTest01.sol\":643:756  function getUserBalances(address _user) external view returns (uint256){... */\n    tag_29:\n        /* \"contracts/13_transcationTest01.sol\":706:713  uint256 */\n      0x00\n        /* \"contracts/13_transcationTest01.sol\":733:741  balances */\n      dup1\n        /* \"contracts/13_transcationTest01.sol\":733:748  balances[_user] */\n      0x00\n        /* \"contracts/13_transcationTest01.sol\":742:747  _user */\n      dup4\n        /* \"contracts/13_transcationTest01.sol\":733:748  balances[_user] */\n      0xffffffffffffffffffffffffffffffffffffffff\n      and\n      0xffffffffffffffffffffffffffffffffffffffff\n      and\n      dup2\n      mstore\n      0x20\n      add\n      swap1\n      dup2\n      mstore\n      0x20\n      add\n      0x00\n      keccak256\n      sload\n        /* \"contracts/13_transcationTest01.sol\":726:748  return balances[_user] */\n      swap1\n      pop\n        /* \"contracts/13_transcationTest01.sol\":643:756  function getUserBalances(address _user) external view returns (uint256){... */\n      swap2\n      swap1\n      pop\n      jump\t// out\n        /* \"#utility.yul\":7:84   */\n    tag_44:\n        /* \"#utility.yul\":44:51   */\n      0x00\n        /* \"#utility.yul\":73:78   */\n      dup2\n        /* \"#utility.yul\":62:78   */\n      swap1\n      pop\n        /* \"#utility.yul\":7:84   */\n      swap2\n      swap1\n      pop\n      jump\t// out\n        /* \"#utility.yul\":90:208   */\n    tag_45:\n        /* \"#utility.yul\":177:201   */\n      tag_62\n        /* \"#utility.yul\":195:200   */\n      dup2\n        /* \"#utility.yul\":177:201   */\n      tag_44\n      jump\t// in\n    tag_62:\n        /* \"#utility.yul\":172:175   */\n      dup3\n        /* \"#utility.yul\":165:202   */\n      mstore\n        /* \"#utility.yul\":90:208   */\n      pop\n      pop\n      jump\t// out\n        /* \"#utility.yul\":214:436   */\n    tag_11:\n        /* \"#utility.yul\":307:311   */\n      0x00\n        /* \"#utility.yul\":345:347   */\n      0x20\n        /* \"#utility.yul\":334:343   */\n      dup3\n        /* \"#utility.yul\":330:348   */\n      add\n        /* \"#utility.yul\":322:348   */\n      swap1\n      pop\n        /* \"#utility.yul\":358:429   */\n      tag_64\n        /* \"#utility.yul\":426:427   */\n      0x00\n        /* \"#utility.yul\":415:424   */\n      dup4\n        /* \"#utility.yul\":411:428   */\n      add\n        /* \"#utility.yul\":402:408   */\n      dup5\n        /* \"#utility.yul\":358:429   */\n      tag_45\n      jump\t// in\n    tag_64:\n        /* \"#utility.yul\":214:436   */\n      swap3\n      swap2\n      pop\n      pop\n      jump\t// out\n        /* \"#utility.yul\":523:640   */\n    tag_47:\n        /* \"#utility.yul\":632:633   */\n      0x00\n        /* \"#utility.yul\":629:630   */\n      dup1\n        /* \"#utility.yul\":622:634   */\n      revert\n        /* \"#utility.yul\":769:895   */\n    tag_49:\n        /* \"#utility.yul\":806:813   */\n      0x00\n        /* \"#utility.yul\":846:888   */\n      0xffffffffffffffffffffffffffffffffffffffff\n        /* \"#utility.yul\":839:844   */\n      dup3\n        /* \"#utility.yul\":835:889   */\n      and\n        /* \"#utility.yul\":824:889   */\n      swap1\n      pop\n        /* \"#utility.yul\":769:895   */\n      swap2\n      swap1\n      pop\n      jump\t// out\n        /* \"#utility.yul\":901:997   */\n    tag_50:\n        /* \"#utility.yul\":938:945   */\n      0x00\n        /* \"#utility.yul\":967:991   */\n      tag_70\n        /* \"#utility.yul\":985:990   */\n      dup3\n        /* \"#utility.yul\":967:991   */\n      tag_49\n      jump\t// in\n    tag_70:\n        /* \"#utility.yul\":956:991   */\n      swap1\n      pop\n        /* \"#utility.yul\":901:997   */\n      swap2\n      swap1\n      pop\n      jump\t// out\n        /* \"#utility.yul\":1003:1125   */\n    tag_51:\n        /* \"#utility.yul\":1076:1100   */\n      tag_72\n        /* \"#utility.yul\":1094:1099   */\n      dup2\n        /* \"#utility.yul\":1076:1100   */\n      tag_50\n      jump\t// in\n    tag_72:\n        /* \"#utility.yul\":1069:1074   */\n      dup2\n        /* \"#utility.yul\":1066:1101   */\n      eq\n        /* \"#utility.yul\":1056:1119   */\n      tag_73\n      jumpi\n        /* \"#utility.yul\":1115:1116   */\n      0x00\n        /* \"#utility.yul\":1112:1113   */\n      dup1\n        /* \"#utility.yul\":1105:1117   */\n      revert\n        /* \"#utility.yul\":1056:1119   */\n    tag_73:\n        /* \"#utility.yul\":1003:1125   */\n      pop\n      jump\t// out\n        /* \"#utility.yul\":1131:1270   */\n    tag_52:\n        /* \"#utility.yul\":1177:1182   */\n      0x00\n        /* \"#utility.yul\":1215:1221   */\n      dup2\n        /* \"#utility.yul\":1202:1222   */\n      calldataload\n        /* \"#utility.yul\":1193:1222   */\n      swap1\n      pop\n        /* \"#utility.yul\":1231:1264   */\n      tag_75\n        /* \"#utility.yul\":1258:1263   */\n      dup2\n        /* \"#utility.yul\":1231:1264   */\n      tag_51\n      jump\t// in\n    tag_75:\n        /* \"#utility.yul\":1131:1270   */\n      swap3\n      swap2\n      pop\n      pop\n      jump\t// out\n        /* \"#utility.yul\":1276:1605   */\n    tag_19:\n        /* \"#utility.yul\":1335:1341   */\n      0x00\n        /* \"#utility.yul\":1384:1386   */\n      0x20\n        /* \"#utility.yul\":1372:1381   */\n      dup3\n        /* \"#utility.yul\":1363:1370   */\n      dup5\n        /* \"#utility.yul\":1359:1382   */\n      sub\n        /* \"#utility.yul\":1355:1387   */\n      slt\n        /* \"#utility.yul\":1352:1471   */\n      iszero\n      tag_77\n      jumpi\n        /* \"#utility.yul\":1390:1469   */\n      tag_78\n      tag_47\n      jump\t// in\n    tag_78:\n        /* \"#utility.yul\":1352:1471   */\n    tag_77:\n        /* \"#utility.yul\":1510:1511   */\n      0x00\n        /* \"#utility.yul\":1535:1588   */\n      tag_79\n        /* \"#utility.yul\":1580:1587   */\n      dup5\n        /* \"#utility.yul\":1571:1577   */\n      dup3\n        /* \"#utility.yul\":1560:1569   */\n      dup6\n        /* \"#utility.yul\":1556:1578   */\n      add\n        /* \"#utility.yul\":1535:1588   */\n      tag_52\n      jump\t// in\n    tag_79:\n        /* \"#utility.yul\":1525:1588   */\n      swap2\n      pop\n        /* \"#utility.yul\":1481:1598   */\n      pop\n        /* \"#utility.yul\":1276:1605   */\n      swap3\n      swap2\n      pop\n      pop\n      jump\t// out\n        /* \"#utility.yul\":1611:1701   */\n    tag_53:\n        /* \"#utility.yul\":1645:1652   */\n      0x00\n        /* \"#utility.yul\":1688:1693   */\n      dup2\n        /* \"#utility.yul\":1681:1694   */\n      iszero\n        /* \"#utility.yul\":1674:1695   */\n      iszero\n        /* \"#utility.yul\":1663:1695   */\n      swap1\n      pop\n        /* \"#utility.yul\":1611:1701   */\n      swap2\n      swap1\n      pop\n      jump\t// out\n        /* \"#utility.yul\":1707:1816   */\n    tag_54:\n        /* \"#utility.yul\":1788:1809   */\n      tag_82\n        /* \"#utility.yul\":1803:1808   */\n      dup2\n        /* \"#utility.yul\":1788:1809   */\n      tag_53\n      jump\t// in\n    tag_82:\n        /* \"#utility.yul\":1783:1786   */\n      dup3\n        /* \"#utility.yul\":1776:1810   */\n      mstore\n        /* \"#utility.yul\":1707:1816   */\n      pop\n      pop\n      jump\t// out\n        /* \"#utility.yul\":1822:2032   */\n    tag_25:\n        /* \"#utility.yul\":1909:1913   */\n      0x00\n        /* \"#utility.yul\":1947:1949   */\n      0x20\n        /* \"#utility.yul\":1936:1945   */\n      dup3\n        /* \"#utility.yul\":1932:1950   */\n      add\n        /* \"#utility.yul\":1924:1950   */\n      swap1\n      pop\n        /* \"#utility.yul\":1960:2025   */\n      tag_84\n        /* \"#utility.yul\":2022:2023   */\n      0x00\n        /* \"#utility.yul\":2011:2020   */\n      dup4\n        /* \"#utility.yul\":2007:2024   */\n      add\n        /* \"#utility.yul\":1998:2004   */\n      dup5\n        /* \"#utility.yul\":1960:2025   */\n      tag_54\n      jump\t// in\n    tag_84:\n        /* \"#utility.yul\":1822:2032   */\n      swap3\n      swap2\n      pop\n      pop\n      jump\t// out\n        /* \"#utility.yul\":2038:2218   */\n    tag_35:\n        /* \"#utility.yul\":2086:2163   */\n      0x4e487b7100000000000000000000000000000000000000000000000000000000\n        /* \"#utility.yul\":2083:2084   */\n      0x00\n        /* \"#utility.yul\":2076:2164   */\n      mstore\n        /* \"#utility.yul\":2183:2187   */\n      0x12\n        /* \"#utility.yul\":2180:2181   */\n      0x04\n        /* \"#utility.yul\":2173:2188   */\n      mstore\n        /* \"#utility.yul\":2207:2211   */\n      0x24\n        /* \"#utility.yul\":2204:2205   */\n      0x00\n        /* \"#utility.yul\":2197:2212   */\n      revert\n        /* \"#utility.yul\":2224:2393   */\n    tag_55:\n        /* \"#utility.yul\":2308:2319   */\n      0x00\n        /* \"#utility.yul\":2342:2348   */\n      dup3\n        /* \"#utility.yul\":2337:2340   */\n      dup3\n        /* \"#utility.yul\":2330:2349   */\n      mstore\n        /* \"#utility.yul\":2382:2386   */\n      0x20\n        /* \"#utility.yul\":2377:2380   */\n      dup3\n        /* \"#utility.yul\":2373:2387   */\n      add\n        /* \"#utility.yul\":2358:2387   */\n      swap1\n      pop\n        /* \"#utility.yul\":2224:2393   */\n      swap3\n      swap2\n      pop\n      pop\n      jump\t// out\n        /* \"#utility.yul\":2399:2562   */\n    tag_56:\n        /* \"#utility.yul\":2539:2554   */\n      0x696e7661696c642076616c756500000000000000000000000000000000000000\n        /* \"#utility.yul\":2535:2536   */\n      0x00\n        /* \"#utility.yul\":2527:2533   */\n      dup3\n        /* \"#utility.yul\":2523:2537   */\n      add\n        /* \"#utility.yul\":2516:2555   */\n      mstore\n        /* \"#utility.yul\":2399:2562   */\n      pop\n      jump\t// out\n        /* \"#utility.yul\":2568:2934   */\n    tag_57:\n        /* \"#utility.yul\":2710:2713   */\n      0x00\n        /* \"#utility.yul\":2731:2798   */\n      tag_89\n        /* \"#utility.yul\":2795:2797   */\n      0x0d\n        /* \"#utility.yul\":2790:2793   */\n      dup4\n        /* \"#utility.yul\":2731:2798   */\n      tag_55\n      jump\t// in\n    tag_89:\n        /* \"#utility.yul\":2724:2798   */\n      swap2\n      pop\n        /* \"#utility.yul\":2807:2900   */\n      tag_90\n        /* \"#utility.yul\":2896:2899   */\n      dup3\n        /* \"#utility.yul\":2807:2900   */\n      tag_56\n      jump\t// in\n    tag_90:\n        /* \"#utility.yul\":2925:2927   */\n      0x20\n        /* \"#utility.yul\":2920:2923   */\n      dup3\n        /* \"#utility.yul\":2916:2928   */\n      add\n        /* \"#utility.yul\":2909:2928   */\n      swap1\n      pop\n        /* \"#utility.yul\":2568:2934   */\n      swap2\n      swap1\n      pop\n      jump\t// out\n        /* \"#utility.yul\":2940:3359   */\n    tag_39:\n        /* \"#utility.yul\":3106:3110   */\n      0x00\n        /* \"#utility.yul\":3144:3146   */\n      0x20\n        /* \"#utility.yul\":3133:3142   */\n      dup3\n        /* \"#utility.yul\":3129:3147   */\n      add\n        /* \"#utility.yul\":3121:3147   */\n      swap1\n      pop\n        /* \"#utility.yul\":3193:3202   */\n      dup2\n        /* \"#utility.yul\":3187:3191   */\n      dup2\n        /* \"#utility.yul\":3183:3203   */\n      sub\n        /* \"#utility.yul\":3179:3180   */\n      0x00\n        /* \"#utility.yul\":3168:3177   */\n      dup4\n        /* \"#utility.yul\":3164:3181   */\n      add\n        /* \"#utility.yul\":3157:3204   */\n      mstore\n        /* \"#utility.yul\":3221:3352   */\n      tag_92\n        /* \"#utility.yul\":3347:3351   */\n      dup2\n        /* \"#utility.yul\":3221:3352   */\n      tag_57\n      jump\t// in\n    tag_92:\n        /* \"#utility.yul\":3213:3352   */\n      swap1\n      pop\n        /* \"#utility.yul\":2940:3359   */\n      swap2\n      swap1\n      pop\n      jump\t// out\n        /* \"#utility.yul\":3365:3545   */\n    tag_58:\n        /* \"#utility.yul\":3413:3490   */\n      0x4e487b7100000000000000000000000000000000000000000000000000000000\n        /* \"#utility.yul\":3410:3411   */\n      0x00\n        /* \"#utility.yul\":3403:3491   */\n      mstore\n        /* \"#utility.yul\":3510:3514   */\n      0x11\n        /* \"#utility.yul\":3507:3508   */\n      0x04\n        /* \"#utility.yul\":3500:3515   */\n      mstore\n        /* \"#utility.yul\":3534:3538   */\n      0x24\n        /* \"#utility.yul\":3531:3532   */\n      0x00\n        /* \"#utility.yul\":3524:3539   */\n      revert\n        /* \"#utility.yul\":3551:3742   */\n    tag_41:\n        /* \"#utility.yul\":3591:3594   */\n      0x00\n        /* \"#utility.yul\":3610:3630   */\n      tag_95\n        /* \"#utility.yul\":3628:3629   */\n      dup3\n        /* \"#utility.yul\":3610:3630   */\n      tag_44\n      jump\t// in\n    tag_95:\n        /* \"#utility.yul\":3605:3630   */\n      swap2\n      pop\n        /* \"#utility.yul\":3644:3664   */\n      tag_96\n        /* \"#utility.yul\":3662:3663   */\n      dup4\n        /* \"#utility.yul\":3644:3664   */\n      tag_44\n      jump\t// in\n    tag_96:\n        /* \"#utility.yul\":3639:3664   */\n      swap3\n      pop\n        /* \"#utility.yul\":3687:3688   */\n      dup3\n        /* \"#utility.yul\":3684:3685   */\n      dup3\n        /* \"#utility.yul\":3680:3689   */\n      add\n        /* \"#utility.yul\":3673:3689   */\n      swap1\n      pop\n        /* \"#utility.yul\":3708:3711   */\n      dup1\n        /* \"#utility.yul\":3705:3706   */\n      dup3\n        /* \"#utility.yul\":3702:3712   */\n      gt\n        /* \"#utility.yul\":3699:3735   */\n      iszero\n      tag_97\n      jumpi\n        /* \"#utility.yul\":3715:3733   */\n      tag_98\n      tag_58\n      jump\t// in\n    tag_98:\n        /* \"#utility.yul\":3699:3735   */\n    tag_97:\n        /* \"#utility.yul\":3551:3742   */\n      swap3\n      swap2\n      pop\n      pop\n      jump\t// out\n\n    auxdata: 0xa2646970667358221220daaf1ff432efdc119645fb31859ebfd3eca67fedcafdfc2830a5d80050db862f64736f6c634300081a0033\n}\n",
				"bytecode": {
					"linkReferences": {},
					"object": "6080604052348015600e575f80fd5b506104c98061001c5f395ff3fe608060405260043610610048575f3560e01c8062113e081461004c5780631b18f9521461007657806327e235e3146100a0578063406dade3146100dc578063abd3f612146100fa575b5f80fd5b348015610057575f80fd5b50610060610136565b60405161006d91906102b9565b60405180910390f35b348015610081575f80fd5b5061008a61013d565b60405161009791906102b9565b60405180910390f35b3480156100ab575f80fd5b506100c660048036038101906100c19190610330565b61015d565b6040516100d391906102b9565b60405180910390f35b6100e4610171565b6040516100f19190610375565b60405180910390f35b348015610105575f80fd5b50610120600480360381019061011b9190610330565b61025c565b60405161012d91906102b9565b60405180910390f35b5f47905090565b5f8060078061014f5761014e61038e565b5b6014600a0990508091505090565b5f602052805f5260405f205f915090505481565b5f8034146101b4576040517f08c379a00000000000000000000000000000000000000000000000000000000081526004016101ab90610415565b60405180910390fd5b345f803373ffffffffffffffffffffffffffffffffffffffff1673ffffffffffffffffffffffffffffffffffffffff1681526020019081526020015f205f8282546101ff9190610460565b92505081905550343373ffffffffffffffffffffffffffffffffffffffff167f1d0843ff9677ffe051ab55040bfa3adf71e444c19ef0f19fc0688fe546b3b0c34260405161024d91906102b9565b60405180910390a36001905090565b5f805f8373ffffffffffffffffffffffffffffffffffffffff1673ffffffffffffffffffffffffffffffffffffffff1681526020019081526020015f20549050919050565b5f819050919050565b6102b3816102a1565b82525050565b5f6020820190506102cc5f8301846102aa565b92915050565b5f80fd5b5f73ffffffffffffffffffffffffffffffffffffffff82169050919050565b5f6102ff826102d6565b9050919050565b61030f816102f5565b8114610319575f80fd5b50565b5f8135905061032a81610306565b92915050565b5f60208284031215610345576103446102d2565b5b5f6103528482850161031c565b91505092915050565b5f8115159050919050565b61036f8161035b565b82525050565b5f6020820190506103885f830184610366565b92915050565b7f4e487b71000000000000000000000000000000000000000000000000000000005f52601260045260245ffd5b5f82825260208201905092915050565b7f696e7661696c642076616c7565000000000000000000000000000000000000005f82015250565b5f6103ff600d836103bb565b915061040a826103cb565b602082019050919050565b5f6020820190508181035f83015261042c816103f3565b9050919050565b7f4e487b71000000000000000000000000000000000000000000000000000000005f52601160045260245ffd5b5f61046a826102a1565b9150610475836102a1565b925082820190508082111561048d5761048c610433565b5b9291505056fea2646970667358221220daaf1ff432efdc119645fb31859ebfd3eca67fedcafdfc2830a5d80050db862f64736f6c634300081a0033",
					"opcodes": "PUSH1 0x80 PUSH1 0x40 MSTORE CALLVALUE DUP1 ISZERO PUSH1 0xE JUMPI PUSH0 DUP1 REVERT JUMPDEST POP PUSH2 0x4C9 DUP1 PUSH2 0x1C PUSH0 CODECOPY PUSH0 RETURN INVALID PUSH1 0x80 PUSH1 0x40 MSTORE PUSH1 0x4 CALLDATASIZE LT PUSH2 0x48 JUMPI PUSH0 CALLDATALOAD PUSH1 0xE0 SHR DUP1 PUSH3 0x113E08 EQ PUSH2 0x4C JUMPI DUP1 PUSH4 0x1B18F952 EQ PUSH2 0x76 JUMPI DUP1 PUSH4 0x27E235E3 EQ PUSH2 0xA0 JUMPI DUP1 PUSH4 0x406DADE3 EQ PUSH2 0xDC JUMPI DUP1 PUSH4 0xABD3F612 EQ PUSH2 0xFA JUMPI JUMPDEST PUSH0 DUP1 REVERT JUMPDEST CALLVALUE DUP1 ISZERO PUSH2 0x57 JUMPI PUSH0 DUP1 REVERT JUMPDEST POP PUSH2 0x60 PUSH2 0x136 JUMP JUMPDEST PUSH1 0x40 MLOAD PUSH2 0x6D SWAP2 SWAP1 PUSH2 0x2B9 JUMP JUMPDEST PUSH1 0x40 MLOAD DUP1 SWAP2 SUB SWAP1 RETURN JUMPDEST CALLVALUE DUP1 ISZERO PUSH2 0x81 JUMPI PUSH0 DUP1 REVERT JUMPDEST POP PUSH2 0x8A PUSH2 0x13D JUMP JUMPDEST PUSH1 0x40 MLOAD PUSH2 0x97 SWAP2 SWAP1 PUSH2 0x2B9 JUMP JUMPDEST PUSH1 0x40 MLOAD DUP1 SWAP2 SUB SWAP1 RETURN JUMPDEST CALLVALUE DUP1 ISZERO PUSH2 0xAB JUMPI PUSH0 DUP1 REVERT JUMPDEST POP PUSH2 0xC6 PUSH1 0x4 DUP1 CALLDATASIZE SUB DUP2 ADD SWAP1 PUSH2 0xC1 SWAP2 SWAP1 PUSH2 0x330 JUMP JUMPDEST PUSH2 0x15D JUMP JUMPDEST PUSH1 0x40 MLOAD PUSH2 0xD3 SWAP2 SWAP1 PUSH2 0x2B9 JUMP JUMPDEST PUSH1 0x40 MLOAD DUP1 SWAP2 SUB SWAP1 RETURN JUMPDEST PUSH2 0xE4 PUSH2 0x171 JUMP JUMPDEST PUSH1 0x40 MLOAD PUSH2 0xF1 SWAP2 SWAP1 PUSH2 0x375 JUMP JUMPDEST PUSH1 0x40 MLOAD DUP1 SWAP2 SUB SWAP1 RETURN JUMPDEST CALLVALUE DUP1 ISZERO PUSH2 0x105 JUMPI PUSH0 DUP1 REVERT JUMPDEST POP PUSH2 0x120 PUSH1 0x4 DUP1 CALLDATASIZE SUB DUP2 ADD SWAP1 PUSH2 0x11B SWAP2 SWAP1 PUSH2 0x330 JUMP JUMPDEST PUSH2 0x25C JUMP JUMPDEST PUSH1 0x40 MLOAD PUSH2 0x12D SWAP2 SWAP1 PUSH2 0x2B9 JUMP JUMPDEST PUSH1 0x40 MLOAD DUP1 SWAP2 SUB SWAP1 RETURN JUMPDEST PUSH0 SELFBALANCE SWAP1 POP SWAP1 JUMP JUMPDEST PUSH0 DUP1 PUSH1 0x7 DUP1 PUSH2 0x14F JUMPI PUSH2 0x14E PUSH2 0x38E JUMP JUMPDEST JUMPDEST PUSH1 0x14 PUSH1 0xA MULMOD SWAP1 POP DUP1 SWAP2 POP POP SWAP1 JUMP JUMPDEST PUSH0 PUSH1 0x20 MSTORE DUP1 PUSH0 MSTORE PUSH1 0x40 PUSH0 KECCAK256 PUSH0 SWAP2 POP SWAP1 POP SLOAD DUP2 JUMP JUMPDEST PUSH0 DUP1 CALLVALUE EQ PUSH2 0x1B4 JUMPI PUSH1 0x40 MLOAD PUSH32 0x8C379A000000000000000000000000000000000000000000000000000000000 DUP2 MSTORE PUSH1 0x4 ADD PUSH2 0x1AB SWAP1 PUSH2 0x415 JUMP JUMPDEST PUSH1 0x40 MLOAD DUP1 SWAP2 SUB SWAP1 REVERT JUMPDEST CALLVALUE PUSH0 DUP1 CALLER PUSH20 0xFFFFFFFFFFFFFFFFFFFFFFFFFFFFFFFFFFFFFFFF AND PUSH20 0xFFFFFFFFFFFFFFFFFFFFFFFFFFFFFFFFFFFFFFFF AND DUP2 MSTORE PUSH1 0x20 ADD SWAP1 DUP2 MSTORE PUSH1 0x20 ADD PUSH0 KECCAK256 PUSH0 DUP3 DUP3 SLOAD PUSH2 0x1FF SWAP2 SWAP1 PUSH2 0x460 JUMP JUMPDEST SWAP3 POP POP DUP2 SWAP1 SSTORE POP CALLVALUE CALLER PUSH20 0xFFFFFFFFFFFFFFFFFFFFFFFFFFFFFFFFFFFFFFFF AND PUSH32 0x1D0843FF9677FFE051AB55040BFA3ADF71E444C19EF0F19FC0688FE546B3B0C3 TIMESTAMP PUSH1 0x40 MLOAD PUSH2 0x24D SWAP2 SWAP1 PUSH2 0x2B9 JUMP JUMPDEST PUSH1 0x40 MLOAD DUP1 SWAP2 SUB SWAP1 LOG3 PUSH1 0x1 SWAP1 POP SWAP1 JUMP JUMPDEST PUSH0 DUP1 PUSH0 DUP4 PUSH20 0xFFFFFFFFFFFFFFFFFFFFFFFFFFFFFFFFFFFFFFFF AND PUSH20 0xFFFFFFFFFFFFFFFFFFFFFFFFFFFFFFFFFFFFFFFF AND DUP2 MSTORE PUSH1 0x20 ADD SWAP1 DUP2 MSTORE PUSH1 0x20 ADD PUSH0 KECCAK256 SLOAD SWAP1 POP SWAP2 SWAP1 POP JUMP JUMPDEST PUSH0 DUP2 SWAP1 POP SWAP2 SWAP1 POP JUMP JUMPDEST PUSH2 0x2B3 DUP2 PUSH2 0x2A1 JUMP JUMPDEST DUP3 MSTORE POP POP JUMP JUMPDEST PUSH0 PUSH1 0x20 DUP3 ADD SWAP1 POP PUSH2 0x2CC PUSH0 DUP4 ADD DUP5 PUSH2 0x2AA JUMP JUMPDEST SWAP3 SWAP2 POP POP JUMP JUMPDEST PUSH0 DUP1 REVERT JUMPDEST PUSH0 PUSH20 0xFFFFFFFFFFFFFFFFFFFFFFFFFFFFFFFFFFFFFFFF DUP3 AND SWAP1 POP SWAP2 SWAP1 POP JUMP JUMPDEST PUSH0 PUSH2 0x2FF DUP3 PUSH2 0x2D6 JUMP JUMPDEST SWAP1 POP SWAP2 SWAP1 POP JUMP JUMPDEST PUSH2 0x30F DUP2 PUSH2 0x2F5 JUMP JUMPDEST DUP2 EQ PUSH2 0x319 JUMPI PUSH0 DUP1 REVERT JUMPDEST POP JUMP JUMPDEST PUSH0 DUP2 CALLDATALOAD SWAP1 POP PUSH2 0x32A DUP2 PUSH2 0x306 JUMP JUMPDEST SWAP3 SWAP2 POP POP JUMP JUMPDEST PUSH0 PUSH1 0x20 DUP3 DUP5 SUB SLT ISZERO PUSH2 0x345 JUMPI PUSH2 0x344 PUSH2 0x2D2 JUMP JUMPDEST JUMPDEST PUSH0 PUSH2 0x352 DUP5 DUP3 DUP6 ADD PUSH2 0x31C JUMP JUMPDEST SWAP2 POP POP SWAP3 SWAP2 POP POP JUMP JUMPDEST PUSH0 DUP2 ISZERO ISZERO SWAP1 POP SWAP2 SWAP1 POP JUMP JUMPDEST PUSH2 0x36F DUP2 PUSH2 0x35B JUMP JUMPDEST DUP3 MSTORE POP POP JUMP JUMPDEST PUSH0 PUSH1 0x20 DUP3 ADD SWAP1 POP PUSH2 0x388 PUSH0 DUP4 ADD DUP5 PUSH2 0x366 JUMP JUMPDEST SWAP3 SWAP2 POP POP JUMP JUMPDEST PUSH32 0x4E487B7100000000000000000000000000000000000000000000000000000000 PUSH0 MSTORE PUSH1 0x12 PUSH1 0x4 MSTORE PUSH1 0x24 PUSH0 REVERT JUMPDEST PUSH0 DUP3 DUP3 MSTORE PUSH1 0x20 DUP3 ADD SWAP1 POP SWAP3 SWAP2 POP POP JUMP JUMPDEST PUSH32 0x696E7661696C642076616C756500000000000000000000000000000000000000 PUSH0 DUP3 ADD MSTORE POP JUMP JUMPDEST PUSH0 PUSH2 0x3FF PUSH1 0xD DUP4 PUSH2 0x3BB JUMP JUMPDEST SWAP2 POP PUSH2 0x40A DUP3 PUSH2 0x3CB JUMP JUMPDEST PUSH1 0x20 DUP3 ADD SWAP1 POP SWAP2 SWAP1 POP JUMP JUMPDEST PUSH0 PUSH1 0x20 DUP3 ADD SWAP1 POP DUP2 DUP2 SUB PUSH0 DUP4 ADD MSTORE PUSH2 0x42C DUP2 PUSH2 0x3F3 JUMP JUMPDEST SWAP1 POP SWAP2 SWAP1 POP JUMP JUMPDEST PUSH32 0x4E487B7100000000000000000000000000000000000000000000000000000000 PUSH0 MSTORE PUSH1 0x11 PUSH1 0x4 MSTORE PUSH1 0x24 PUSH0 REVERT JUMPDEST PUSH0 PUSH2 0x46A DUP3 PUSH2 0x2A1 JUMP JUMPDEST SWAP2 POP PUSH2 0x475 DUP4 PUSH2 0x2A1 JUMP JUMPDEST SWAP3 POP DUP3 DUP3 ADD SWAP1 POP DUP1 DUP3 GT ISZERO PUSH2 0x48D JUMPI PUSH2 0x48C PUSH2 0x433 JUMP JUMPDEST JUMPDEST SWAP3 SWAP2 POP POP JUMP INVALID LOG2 PUSH5 0x6970667358 0x22 SLT KECCAK256 0xDA 0xAF 0x1F DELEGATECALL ORIGIN 0xEF 0xDC GT SWAP7 GASLIMIT 0xFB BALANCE DUP6 SWAP15 0xBF 0xD3 0xEC 0xA6 PUSH32 0xEDCAFDFC2830A5D80050DB862F64736F6C634300081A00330000000000000000 "
				},
				"gasEstimates": {
					"creation": {
						"codeDepositCost": "245000",
						"executionCost": "285",
						"totalCost": "245285"
					},
					"external": {
						"Transfer()": "infinite",
						"balances(address)": "2823",
						"getBalances()": "312",
						"getUserBalances(address)": "2895",
						"test01()": "376"
					}
				},
				"methodIdentifiers": {
					"Transfer()": "406dade3",
					"balances(address)": "27e235e3",
					"getBalances()": "00113e08",
					"getUserBalances(address)": "abd3f612",
					"test01()": "1b18f952"
				}
			},
			"storageLayout": {
				"storage": [
					{
						"astId": 5,
						"contract": "contracts/13_transcationTest01.sol:Trans",
						"label": "balances",
						"offset": 0,
						"slot": "0",
						"type": "t_mapping(t_address,t_uint256)"
					}
				],
				"types": {
					"t_address": {
						"encoding": "inplace",
						"label": "address",
						"numberOfBytes": "20"
					},
					"t_mapping(t_address,t_uint256)": {
						"encoding": "mapping",
						"key": "t_address",
						"label": "mapping(address => uint256)",
						"numberOfBytes": "32",
						"value": "t_uint256"
					},
					"t_uint256": {
						"encoding": "inplace",
						"label": "uint256",
						"numberOfBytes": "32"
					}
				}
			},
			"userdoc": {
				"kind": "user",
				"methods": {},
				"version": 1
			}
		}
	}
}