{
	"contracts/16_timesTest01.sol": {
		"Times": {
			"abi": [
				{
					"inputs": [
						{
							"internalType": "string",
							"name": "_value",
							"type": "string"
						}
					],
					"name": "inString",
					"outputs": [
						{
							"internalType": "bytes32",
							"name": "",
							"type": "bytes32"
						}
					],
					"stateMutability": "pure",
					"type": "function"
				},
				{
					"inputs": [
						{
							"internalType": "bytes",
							"name": "_value",
							"type": "bytes"
						}
					],
					"name": "outString",
					"outputs": [
						{
							"internalType": "string",
							"name": "",
							"type": "string"
						}
					],
					"stateMutability": "pure",
					"type": "function"
				}
			],
			"devdoc": {
				"kind": "dev",
				"methods": {},
				"version": 1
			},
			"evm": {
				"assembly": "    /* \"contracts/16_timesTest01.sol\":61:462  contract Times{... */\n  mstore(0x40, 0x80)\n  callvalue\n  dup1\n  iszero\n  tag_1\n  jumpi\n  0x00\n  dup1\n  revert\ntag_1:\n  pop\n  dataSize(sub_0)\n  dup1\n  dataOffset(sub_0)\n  0x00\n  codecopy\n  0x00\n  return\nstop\n\nsub_0: assembly {\n        /* \"contracts/16_timesTest01.sol\":61:462  contract Times{... */\n      mstore(0x40, 0x80)\n      callvalue\n      dup1\n      iszero\n      tag_1\n      jumpi\n      0x00\n      dup1\n      revert\n    tag_1:\n      pop\n      jumpi(tag_2, lt(calldatasize, 0x04))\n      shr(0xe0, calldataload(0x00))\n      dup1\n      0x77fe2654\n      eq\n      tag_3\n      jumpi\n      dup1\n      0x9edba4a4\n      eq\n      tag_4\n      jumpi\n    tag_2:\n      0x00\n      dup1\n      revert\n        /* \"contracts/16_timesTest01.sol\":86:256  function inString(string memory _value) public pure  returns (bytes32){... */\n    tag_3:\n      tag_5\n      0x04\n      dup1\n      calldatasize\n      sub\n      dup2\n      add\n      swap1\n      tag_6\n      swap2\n      swap1\n      tag_7\n      jump\t// in\n    tag_6:\n      tag_8\n      jump\t// in\n    tag_5:\n      mload(0x40)\n      tag_9\n      swap2\n      swap1\n      tag_10\n      jump\t// in\n    tag_9:\n      mload(0x40)\n      dup1\n      swap2\n      sub\n      swap1\n      return\n        /* \"contracts/16_timesTest01.sol\":264:459  function outString(bytes memory _value) public pure  returns (string memory){... */\n    tag_4:\n      tag_11\n      0x04\n      dup1\n      calldatasize\n      sub\n      dup2\n      add\n      swap1\n      tag_12\n      swap2\n      swap1\n      tag_13\n      jump\t// in\n    tag_12:\n      tag_14\n      jump\t// in\n    tag_11:\n      mload(0x40)\n      tag_15\n      swap2\n      swap1\n      tag_16\n      jump\t// in\n    tag_15:\n      mload(0x40)\n      dup1\n      swap2\n      sub\n      swap1\n      return\n        /* \"contracts/16_timesTest01.sol\":86:256  function inString(string memory _value) public pure  returns (bytes32){... */\n    tag_8:\n        /* \"contracts/16_timesTest01.sol\":148:155  bytes32 */\n      0x00\n        /* \"contracts/16_timesTest01.sol\":176:188  bytes32 hash */\n      dup1\n        /* \"contracts/16_timesTest01.sol\":218:224  _value */\n      dup3\n        /* \"contracts/16_timesTest01.sol\":201:225  abi.encodePacked(_value) */\n      add(0x20, mload(0x40))\n      tag_18\n      swap2\n      swap1\n      tag_19\n      jump\t// in\n    tag_18:\n      mload(0x40)\n      0x20\n      dup2\n      dup4\n      sub\n      sub\n      dup2\n      mstore\n      swap1\n      0x40\n      mstore\n        /* \"contracts/16_timesTest01.sol\":191:226  keccak256(abi.encodePacked(_value)) */\n      dup1\n      mload\n      swap1\n      0x20\n      add\n      keccak256\n        /* \"contracts/16_timesTest01.sol\":176:226  bytes32 hash = keccak256(abi.encodePacked(_value)) */\n      swap1\n      pop\n        /* \"contracts/16_timesTest01.sol\":244:248  hash */\n      dup1\n        /* \"contracts/16_timesTest01.sol\":236:248  return  hash */\n      swap2\n      pop\n      pop\n        /* \"contracts/16_timesTest01.sol\":86:256  function inString(string memory _value) public pure  returns (bytes32){... */\n      swap2\n      swap1\n      pop\n      jump\t// out\n        /* \"contracts/16_timesTest01.sol\":264:459  function outString(bytes memory _value) public pure  returns (string memory){... */\n    tag_14:\n        /* \"contracts/16_timesTest01.sol\":326:339  string memory */\n      0x60\n        /* \"contracts/16_timesTest01.sol\":361:388  string memory decodedString */\n      0x00\n        /* \"contracts/16_timesTest01.sol\":403:409  _value */\n      dup3\n        /* \"contracts/16_timesTest01.sol\":392:420  abi.decode(_value, (string)) */\n      dup1\n      0x20\n      add\n      swap1\n      mload\n      dup2\n      add\n      swap1\n      tag_21\n      swap2\n      swap1\n      tag_22\n      jump\t// in\n    tag_21:\n        /* \"contracts/16_timesTest01.sol\":360:420  (string memory decodedString) = abi.decode(_value, (string)) */\n      swap1\n      pop\n        /* \"contracts/16_timesTest01.sol\":438:451  decodedString */\n      dup1\n        /* \"contracts/16_timesTest01.sol\":430:451  return  decodedString */\n      swap2\n      pop\n      pop\n        /* \"contracts/16_timesTest01.sol\":264:459  function outString(bytes memory _value) public pure  returns (string memory){... */\n      swap2\n      swap1\n      pop\n      jump\t// out\n        /* \"#utility.yul\":7:82   */\n    tag_23:\n        /* \"#utility.yul\":40:46   */\n      0x00\n        /* \"#utility.yul\":73:75   */\n      0x40\n        /* \"#utility.yul\":67:76   */\n      mload\n        /* \"#utility.yul\":57:76   */\n      swap1\n      pop\n        /* \"#utility.yul\":7:82   */\n      swap1\n      jump\t// out\n        /* \"#utility.yul\":88:205   */\n    tag_24:\n        /* \"#utility.yul\":197:198   */\n      0x00\n        /* \"#utility.yul\":194:195   */\n      dup1\n        /* \"#utility.yul\":187:199   */\n      revert\n        /* \"#utility.yul\":211:328   */\n    tag_25:\n        /* \"#utility.yul\":320:321   */\n      0x00\n        /* \"#utility.yul\":317:318   */\n      dup1\n        /* \"#utility.yul\":310:322   */\n      revert\n        /* \"#utility.yul\":334:451   */\n    tag_26:\n        /* \"#utility.yul\":443:444   */\n      0x00\n        /* \"#utility.yul\":440:441   */\n      dup1\n        /* \"#utility.yul\":433:445   */\n      revert\n        /* \"#utility.yul\":457:574   */\n    tag_27:\n        /* \"#utility.yul\":566:567   */\n      0x00\n        /* \"#utility.yul\":563:564   */\n      dup1\n        /* \"#utility.yul\":556:568   */\n      revert\n        /* \"#utility.yul\":580:682   */\n    tag_28:\n        /* \"#utility.yul\":621:627   */\n      0x00\n        /* \"#utility.yul\":672:674   */\n      0x1f\n        /* \"#utility.yul\":668:675   */\n      not\n        /* \"#utility.yul\":663:665   */\n      0x1f\n        /* \"#utility.yul\":656:661   */\n      dup4\n        /* \"#utility.yul\":652:666   */\n      add\n        /* \"#utility.yul\":648:676   */\n      and\n        /* \"#utility.yul\":638:676   */\n      swap1\n      pop\n        /* \"#utility.yul\":580:682   */\n      swap2\n      swap1\n      pop\n      jump\t// out\n        /* \"#utility.yul\":688:868   */\n    tag_29:\n        /* \"#utility.yul\":736:813   */\n      0x4e487b7100000000000000000000000000000000000000000000000000000000\n        /* \"#utility.yul\":733:734   */\n      0x00\n        /* \"#utility.yul\":726:814   */\n      mstore\n        /* \"#utility.yul\":833:837   */\n      0x41\n        /* \"#utility.yul\":830:831   */\n      0x04\n        /* \"#utility.yul\":823:838   */\n      mstore\n        /* \"#utility.yul\":857:861   */\n      0x24\n        /* \"#utility.yul\":854:855   */\n      0x00\n        /* \"#utility.yul\":847:862   */\n      revert\n        /* \"#utility.yul\":874:1155   */\n    tag_30:\n        /* \"#utility.yul\":957:984   */\n      tag_58\n        /* \"#utility.yul\":979:983   */\n      dup3\n        /* \"#utility.yul\":957:984   */\n      tag_28\n      jump\t// in\n    tag_58:\n        /* \"#utility.yul\":949:955   */\n      dup2\n        /* \"#utility.yul\":945:985   */\n      add\n        /* \"#utility.yul\":1087:1093   */\n      dup2\n        /* \"#utility.yul\":1075:1085   */\n      dup2\n        /* \"#utility.yul\":1072:1094   */\n      lt\n        /* \"#utility.yul\":1051:1069   */\n      0xffffffffffffffff\n        /* \"#utility.yul\":1039:1049   */\n      dup3\n        /* \"#utility.yul\":1036:1070   */\n      gt\n        /* \"#utility.yul\":1033:1095   */\n      or\n        /* \"#utility.yul\":1030:1118   */\n      iszero\n      tag_59\n      jumpi\n        /* \"#utility.yul\":1098:1116   */\n      tag_60\n      tag_29\n      jump\t// in\n    tag_60:\n        /* \"#utility.yul\":1030:1118   */\n    tag_59:\n        /* \"#utility.yul\":1138:1148   */\n      dup1\n        /* \"#utility.yul\":1134:1136   */\n      0x40\n        /* \"#utility.yul\":1127:1149   */\n      mstore\n        /* \"#utility.yul\":917:1155   */\n      pop\n        /* \"#utility.yul\":874:1155   */\n      pop\n      pop\n      jump\t// out\n        /* \"#utility.yul\":1161:1290   */\n    tag_31:\n        /* \"#utility.yul\":1195:1201   */\n      0x00\n        /* \"#utility.yul\":1222:1242   */\n      tag_62\n      tag_23\n      jump\t// in\n    tag_62:\n        /* \"#utility.yul\":1212:1242   */\n      swap1\n      pop\n        /* \"#utility.yul\":1251:1284   */\n      tag_63\n        /* \"#utility.yul\":1279:1283   */\n      dup3\n        /* \"#utility.yul\":1271:1277   */\n      dup3\n        /* \"#utility.yul\":1251:1284   */\n      tag_30\n      jump\t// in\n    tag_63:\n        /* \"#utility.yul\":1161:1290   */\n      swap2\n      swap1\n      pop\n      jump\t// out\n        /* \"#utility.yul\":1296:1604   */\n    tag_32:\n        /* \"#utility.yul\":1358:1362   */\n      0x00\n        /* \"#utility.yul\":1448:1466   */\n      0xffffffffffffffff\n        /* \"#utility.yul\":1440:1446   */\n      dup3\n        /* \"#utility.yul\":1437:1467   */\n      gt\n        /* \"#utility.yul\":1434:1490   */\n      iszero\n      tag_65\n      jumpi\n        /* \"#utility.yul\":1470:1488   */\n      tag_66\n      tag_29\n      jump\t// in\n    tag_66:\n        /* \"#utility.yul\":1434:1490   */\n    tag_65:\n        /* \"#utility.yul\":1508:1537   */\n      tag_67\n        /* \"#utility.yul\":1530:1536   */\n      dup3\n        /* \"#utility.yul\":1508:1537   */\n      tag_28\n      jump\t// in\n    tag_67:\n        /* \"#utility.yul\":1500:1537   */\n      swap1\n      pop\n        /* \"#utility.yul\":1592:1596   */\n      0x20\n        /* \"#utility.yul\":1586:1590   */\n      dup2\n        /* \"#utility.yul\":1582:1597   */\n      add\n        /* \"#utility.yul\":1574:1597   */\n      swap1\n      pop\n        /* \"#utility.yul\":1296:1604   */\n      swap2\n      swap1\n      pop\n      jump\t// out\n        /* \"#utility.yul\":1610:1758   */\n    tag_33:\n        /* \"#utility.yul\":1708:1714   */\n      dup3\n        /* \"#utility.yul\":1703:1706   */\n      dup2\n        /* \"#utility.yul\":1698:1701   */\n      dup4\n        /* \"#utility.yul\":1685:1715   */\n      calldatacopy\n        /* \"#utility.yul\":1749:1750   */\n      0x00\n        /* \"#utility.yul\":1740:1746   */\n      dup4\n        /* \"#utility.yul\":1735:1738   */\n      dup4\n        /* \"#utility.yul\":1731:1747   */\n      add\n        /* \"#utility.yul\":1724:1751   */\n      mstore\n        /* \"#utility.yul\":1610:1758   */\n      pop\n      pop\n      pop\n      jump\t// out\n        /* \"#utility.yul\":1764:2189   */\n    tag_34:\n        /* \"#utility.yul\":1842:1847   */\n      0x00\n        /* \"#utility.yul\":1867:1933   */\n      tag_70\n        /* \"#utility.yul\":1883:1932   */\n      tag_71\n        /* \"#utility.yul\":1925:1931   */\n      dup5\n        /* \"#utility.yul\":1883:1932   */\n      tag_32\n      jump\t// in\n    tag_71:\n        /* \"#utility.yul\":1867:1933   */\n      tag_31\n      jump\t// in\n    tag_70:\n        /* \"#utility.yul\":1858:1933   */\n      swap1\n      pop\n        /* \"#utility.yul\":1956:1962   */\n      dup3\n        /* \"#utility.yul\":1949:1954   */\n      dup2\n        /* \"#utility.yul\":1942:1963   */\n      mstore\n        /* \"#utility.yul\":1994:1998   */\n      0x20\n        /* \"#utility.yul\":1987:1992   */\n      dup2\n        /* \"#utility.yul\":1983:1999   */\n      add\n        /* \"#utility.yul\":2032:2035   */\n      dup5\n        /* \"#utility.yul\":2023:2029   */\n      dup5\n        /* \"#utility.yul\":2018:2021   */\n      dup5\n        /* \"#utility.yul\":2014:2030   */\n      add\n        /* \"#utility.yul\":2011:2036   */\n      gt\n        /* \"#utility.yul\":2008:2120   */\n      iszero\n      tag_72\n      jumpi\n        /* \"#utility.yul\":2039:2118   */\n      tag_73\n      tag_27\n      jump\t// in\n    tag_73:\n        /* \"#utility.yul\":2008:2120   */\n    tag_72:\n        /* \"#utility.yul\":2129:2183   */\n      tag_74\n        /* \"#utility.yul\":2176:2182   */\n      dup5\n        /* \"#utility.yul\":2171:2174   */\n      dup3\n        /* \"#utility.yul\":2166:2169   */\n      dup6\n        /* \"#utility.yul\":2129:2183   */\n      tag_33\n      jump\t// in\n    tag_74:\n        /* \"#utility.yul\":1848:2189   */\n      pop\n        /* \"#utility.yul\":1764:2189   */\n      swap4\n      swap3\n      pop\n      pop\n      pop\n      jump\t// out\n        /* \"#utility.yul\":2209:2549   */\n    tag_35:\n        /* \"#utility.yul\":2265:2270   */\n      0x00\n        /* \"#utility.yul\":2314:2317   */\n      dup3\n        /* \"#utility.yul\":2307:2311   */\n      0x1f\n        /* \"#utility.yul\":2299:2305   */\n      dup4\n        /* \"#utility.yul\":2295:2312   */\n      add\n        /* \"#utility.yul\":2291:2318   */\n      slt\n        /* \"#utility.yul\":2281:2403   */\n      tag_76\n      jumpi\n        /* \"#utility.yul\":2322:2401   */\n      tag_77\n      tag_26\n      jump\t// in\n    tag_77:\n        /* \"#utility.yul\":2281:2403   */\n    tag_76:\n        /* \"#utility.yul\":2439:2445   */\n      dup2\n        /* \"#utility.yul\":2426:2446   */\n      calldataload\n        /* \"#utility.yul\":2464:2543   */\n      tag_78\n        /* \"#utility.yul\":2539:2542   */\n      dup5\n        /* \"#utility.yul\":2531:2537   */\n      dup3\n        /* \"#utility.yul\":2524:2528   */\n      0x20\n        /* \"#utility.yul\":2516:2522   */\n      dup7\n        /* \"#utility.yul\":2512:2529   */\n      add\n        /* \"#utility.yul\":2464:2543   */\n      tag_34\n      jump\t// in\n    tag_78:\n        /* \"#utility.yul\":2455:2543   */\n      swap2\n      pop\n        /* \"#utility.yul\":2271:2549   */\n      pop\n        /* \"#utility.yul\":2209:2549   */\n      swap3\n      swap2\n      pop\n      pop\n      jump\t// out\n        /* \"#utility.yul\":2555:3064   */\n    tag_7:\n        /* \"#utility.yul\":2624:2630   */\n      0x00\n        /* \"#utility.yul\":2673:2675   */\n      0x20\n        /* \"#utility.yul\":2661:2670   */\n      dup3\n        /* \"#utility.yul\":2652:2659   */\n      dup5\n        /* \"#utility.yul\":2648:2671   */\n      sub\n        /* \"#utility.yul\":2644:2676   */\n      slt\n        /* \"#utility.yul\":2641:2760   */\n      iszero\n      tag_80\n      jumpi\n        /* \"#utility.yul\":2679:2758   */\n      tag_81\n      tag_24\n      jump\t// in\n    tag_81:\n        /* \"#utility.yul\":2641:2760   */\n    tag_80:\n        /* \"#utility.yul\":2827:2828   */\n      0x00\n        /* \"#utility.yul\":2816:2825   */\n      dup3\n        /* \"#utility.yul\":2812:2829   */\n      add\n        /* \"#utility.yul\":2799:2830   */\n      calldataload\n        /* \"#utility.yul\":2857:2875   */\n      0xffffffffffffffff\n        /* \"#utility.yul\":2849:2855   */\n      dup2\n        /* \"#utility.yul\":2846:2876   */\n      gt\n        /* \"#utility.yul\":2843:2960   */\n      iszero\n      tag_82\n      jumpi\n        /* \"#utility.yul\":2879:2958   */\n      tag_83\n      tag_25\n      jump\t// in\n    tag_83:\n        /* \"#utility.yul\":2843:2960   */\n    tag_82:\n        /* \"#utility.yul\":2984:3047   */\n      tag_84\n        /* \"#utility.yul\":3039:3046   */\n      dup5\n        /* \"#utility.yul\":3030:3036   */\n      dup3\n        /* \"#utility.yul\":3019:3028   */\n      dup6\n        /* \"#utility.yul\":3015:3037   */\n      add\n        /* \"#utility.yul\":2984:3047   */\n      tag_35\n      jump\t// in\n    tag_84:\n        /* \"#utility.yul\":2974:3047   */\n      swap2\n      pop\n        /* \"#utility.yul\":2770:3057   */\n      pop\n        /* \"#utility.yul\":2555:3064   */\n      swap3\n      swap2\n      pop\n      pop\n      jump\t// out\n        /* \"#utility.yul\":3070:3147   */\n    tag_36:\n        /* \"#utility.yul\":3107:3114   */\n      0x00\n        /* \"#utility.yul\":3136:3141   */\n      dup2\n        /* \"#utility.yul\":3125:3141   */\n      swap1\n      pop\n        /* \"#utility.yul\":3070:3147   */\n      swap2\n      swap1\n      pop\n      jump\t// out\n        /* \"#utility.yul\":3153:3271   */\n    tag_37:\n        /* \"#utility.yul\":3240:3264   */\n      tag_87\n        /* \"#utility.yul\":3258:3263   */\n      dup2\n        /* \"#utility.yul\":3240:3264   */\n      tag_36\n      jump\t// in\n    tag_87:\n        /* \"#utility.yul\":3235:3238   */\n      dup3\n        /* \"#utility.yul\":3228:3265   */\n      mstore\n        /* \"#utility.yul\":3153:3271   */\n      pop\n      pop\n      jump\t// out\n        /* \"#utility.yul\":3277:3499   */\n    tag_10:\n        /* \"#utility.yul\":3370:3374   */\n      0x00\n        /* \"#utility.yul\":3408:3410   */\n      0x20\n        /* \"#utility.yul\":3397:3406   */\n      dup3\n        /* \"#utility.yul\":3393:3411   */\n      add\n        /* \"#utility.yul\":3385:3411   */\n      swap1\n      pop\n        /* \"#utility.yul\":3421:3492   */\n      tag_89\n        /* \"#utility.yul\":3489:3490   */\n      0x00\n        /* \"#utility.yul\":3478:3487   */\n      dup4\n        /* \"#utility.yul\":3474:3491   */\n      add\n        /* \"#utility.yul\":3465:3471   */\n      dup5\n        /* \"#utility.yul\":3421:3492   */\n      tag_37\n      jump\t// in\n    tag_89:\n        /* \"#utility.yul\":3277:3499   */\n      swap3\n      swap2\n      pop\n      pop\n      jump\t// out\n        /* \"#utility.yul\":3505:3812   */\n    tag_38:\n        /* \"#utility.yul\":3566:3570   */\n      0x00\n        /* \"#utility.yul\":3656:3674   */\n      0xffffffffffffffff\n        /* \"#utility.yul\":3648:3654   */\n      dup3\n        /* \"#utility.yul\":3645:3675   */\n      gt\n        /* \"#utility.yul\":3642:3698   */\n      iszero\n      tag_91\n      jumpi\n        /* \"#utility.yul\":3678:3696   */\n      tag_92\n      tag_29\n      jump\t// in\n    tag_92:\n        /* \"#utility.yul\":3642:3698   */\n    tag_91:\n        /* \"#utility.yul\":3716:3745   */\n      tag_93\n        /* \"#utility.yul\":3738:3744   */\n      dup3\n        /* \"#utility.yul\":3716:3745   */\n      tag_28\n      jump\t// in\n    tag_93:\n        /* \"#utility.yul\":3708:3745   */\n      swap1\n      pop\n        /* \"#utility.yul\":3800:3804   */\n      0x20\n        /* \"#utility.yul\":3794:3798   */\n      dup2\n        /* \"#utility.yul\":3790:3805   */\n      add\n        /* \"#utility.yul\":3782:3805   */\n      swap1\n      pop\n        /* \"#utility.yul\":3505:3812   */\n      swap2\n      swap1\n      pop\n      jump\t// out\n        /* \"#utility.yul\":3818:4241   */\n    tag_39:\n        /* \"#utility.yul\":3895:3900   */\n      0x00\n        /* \"#utility.yul\":3920:3985   */\n      tag_95\n        /* \"#utility.yul\":3936:3984   */\n      tag_96\n        /* \"#utility.yul\":3977:3983   */\n      dup5\n        /* \"#utility.yul\":3936:3984   */\n      tag_38\n      jump\t// in\n    tag_96:\n        /* \"#utility.yul\":3920:3985   */\n      tag_31\n      jump\t// in\n    tag_95:\n        /* \"#utility.yul\":3911:3985   */\n      swap1\n      pop\n        /* \"#utility.yul\":4008:4014   */\n      dup3\n        /* \"#utility.yul\":4001:4006   */\n      dup2\n        /* \"#utility.yul\":3994:4015   */\n      mstore\n        /* \"#utility.yul\":4046:4050   */\n      0x20\n        /* \"#utility.yul\":4039:4044   */\n      dup2\n        /* \"#utility.yul\":4035:4051   */\n      add\n        /* \"#utility.yul\":4084:4087   */\n      dup5\n        /* \"#utility.yul\":4075:4081   */\n      dup5\n        /* \"#utility.yul\":4070:4073   */\n      dup5\n        /* \"#utility.yul\":4066:4082   */\n      add\n        /* \"#utility.yul\":4063:4088   */\n      gt\n        /* \"#utility.yul\":4060:4172   */\n      iszero\n      tag_97\n      jumpi\n        /* \"#utility.yul\":4091:4170   */\n      tag_98\n      tag_27\n      jump\t// in\n    tag_98:\n        /* \"#utility.yul\":4060:4172   */\n    tag_97:\n        /* \"#utility.yul\":4181:4235   */\n      tag_99\n        /* \"#utility.yul\":4228:4234   */\n      dup5\n        /* \"#utility.yul\":4223:4226   */\n      dup3\n        /* \"#utility.yul\":4218:4221   */\n      dup6\n        /* \"#utility.yul\":4181:4235   */\n      tag_33\n      jump\t// in\n    tag_99:\n        /* \"#utility.yul\":3901:4241   */\n      pop\n        /* \"#utility.yul\":3818:4241   */\n      swap4\n      swap3\n      pop\n      pop\n      pop\n      jump\t// out\n        /* \"#utility.yul\":4260:4598   */\n    tag_40:\n        /* \"#utility.yul\":4315:4320   */\n      0x00\n        /* \"#utility.yul\":4364:4367   */\n      dup3\n        /* \"#utility.yul\":4357:4361   */\n      0x1f\n        /* \"#utility.yul\":4349:4355   */\n      dup4\n        /* \"#utility.yul\":4345:4362   */\n      add\n        /* \"#utility.yul\":4341:4368   */\n      slt\n        /* \"#utility.yul\":4331:4453   */\n      tag_101\n      jumpi\n        /* \"#utility.yul\":4372:4451   */\n      tag_102\n      tag_26\n      jump\t// in\n    tag_102:\n        /* \"#utility.yul\":4331:4453   */\n    tag_101:\n        /* \"#utility.yul\":4489:4495   */\n      dup2\n        /* \"#utility.yul\":4476:4496   */\n      calldataload\n        /* \"#utility.yul\":4514:4592   */\n      tag_103\n        /* \"#utility.yul\":4588:4591   */\n      dup5\n        /* \"#utility.yul\":4580:4586   */\n      dup3\n        /* \"#utility.yul\":4573:4577   */\n      0x20\n        /* \"#utility.yul\":4565:4571   */\n      dup7\n        /* \"#utility.yul\":4561:4578   */\n      add\n        /* \"#utility.yul\":4514:4592   */\n      tag_39\n      jump\t// in\n    tag_103:\n        /* \"#utility.yul\":4505:4592   */\n      swap2\n      pop\n        /* \"#utility.yul\":4321:4598   */\n      pop\n        /* \"#utility.yul\":4260:4598   */\n      swap3\n      swap2\n      pop\n      pop\n      jump\t// out\n        /* \"#utility.yul\":4604:5111   */\n    tag_13:\n        /* \"#utility.yul\":4672:4678   */\n      0x00\n        /* \"#utility.yul\":4721:4723   */\n      0x20\n        /* \"#utility.yul\":4709:4718   */\n      dup3\n        /* \"#utility.yul\":4700:4707   */\n      dup5\n        /* \"#utility.yul\":4696:4719   */\n      sub\n        /* \"#utility.yul\":4692:4724   */\n      slt\n        /* \"#utility.yul\":4689:4808   */\n      iszero\n      tag_105\n      jumpi\n        /* \"#utility.yul\":4727:4806   */\n      tag_106\n      tag_24\n      jump\t// in\n    tag_106:\n        /* \"#utility.yul\":4689:4808   */\n    tag_105:\n        /* \"#utility.yul\":4875:4876   */\n      0x00\n        /* \"#utility.yul\":4864:4873   */\n      dup3\n        /* \"#utility.yul\":4860:4877   */\n      add\n        /* \"#utility.yul\":4847:4878   */\n      calldataload\n        /* \"#utility.yul\":4905:4923   */\n      0xffffffffffffffff\n        /* \"#utility.yul\":4897:4903   */\n      dup2\n        /* \"#utility.yul\":4894:4924   */\n      gt\n        /* \"#utility.yul\":4891:5008   */\n      iszero\n      tag_107\n      jumpi\n        /* \"#utility.yul\":4927:5006   */\n      tag_108\n      tag_25\n      jump\t// in\n    tag_108:\n        /* \"#utility.yul\":4891:5008   */\n    tag_107:\n        /* \"#utility.yul\":5032:5094   */\n      tag_109\n        /* \"#utility.yul\":5086:5093   */\n      dup5\n        /* \"#utility.yul\":5077:5083   */\n      dup3\n        /* \"#utility.yul\":5066:5075   */\n      dup6\n        /* \"#utility.yul\":5062:5084   */\n      add\n        /* \"#utility.yul\":5032:5094   */\n      tag_40\n      jump\t// in\n    tag_109:\n        /* \"#utility.yul\":5022:5094   */\n      swap2\n      pop\n        /* \"#utility.yul\":4818:5104   */\n      pop\n        /* \"#utility.yul\":4604:5111   */\n      swap3\n      swap2\n      pop\n      pop\n      jump\t// out\n        /* \"#utility.yul\":5117:5216   */\n    tag_41:\n        /* \"#utility.yul\":5169:5175   */\n      0x00\n        /* \"#utility.yul\":5203:5208   */\n      dup2\n        /* \"#utility.yul\":5197:5209   */\n      mload\n        /* \"#utility.yul\":5187:5209   */\n      swap1\n      pop\n        /* \"#utility.yul\":5117:5216   */\n      swap2\n      swap1\n      pop\n      jump\t// out\n        /* \"#utility.yul\":5222:5391   */\n    tag_42:\n        /* \"#utility.yul\":5306:5317   */\n      0x00\n        /* \"#utility.yul\":5340:5346   */\n      dup3\n        /* \"#utility.yul\":5335:5338   */\n      dup3\n        /* \"#utility.yul\":5328:5347   */\n      mstore\n        /* \"#utility.yul\":5380:5384   */\n      0x20\n        /* \"#utility.yul\":5375:5378   */\n      dup3\n        /* \"#utility.yul\":5371:5385   */\n      add\n        /* \"#utility.yul\":5356:5385   */\n      swap1\n      pop\n        /* \"#utility.yul\":5222:5391   */\n      swap3\n      swap2\n      pop\n      pop\n      jump\t// out\n        /* \"#utility.yul\":5397:5536   */\n    tag_43:\n        /* \"#utility.yul\":5486:5492   */\n      dup3\n        /* \"#utility.yul\":5481:5484   */\n      dup2\n        /* \"#utility.yul\":5476:5479   */\n      dup4\n        /* \"#utility.yul\":5470:5493   */\n      mcopy\n        /* \"#utility.yul\":5527:5528   */\n      0x00\n        /* \"#utility.yul\":5518:5524   */\n      dup4\n        /* \"#utility.yul\":5513:5516   */\n      dup4\n        /* \"#utility.yul\":5509:5525   */\n      add\n        /* \"#utility.yul\":5502:5529   */\n      mstore\n        /* \"#utility.yul\":5397:5536   */\n      pop\n      pop\n      pop\n      jump\t// out\n        /* \"#utility.yul\":5542:5919   */\n    tag_44:\n        /* \"#utility.yul\":5630:5633   */\n      0x00\n        /* \"#utility.yul\":5658:5697   */\n      tag_114\n        /* \"#utility.yul\":5691:5696   */\n      dup3\n        /* \"#utility.yul\":5658:5697   */\n      tag_41\n      jump\t// in\n    tag_114:\n        /* \"#utility.yul\":5713:5784   */\n      tag_115\n        /* \"#utility.yul\":5777:5783   */\n      dup2\n        /* \"#utility.yul\":5772:5775   */\n      dup6\n        /* \"#utility.yul\":5713:5784   */\n      tag_42\n      jump\t// in\n    tag_115:\n        /* \"#utility.yul\":5706:5784   */\n      swap4\n      pop\n        /* \"#utility.yul\":5793:5858   */\n      tag_116\n        /* \"#utility.yul\":5851:5857   */\n      dup2\n        /* \"#utility.yul\":5846:5849   */\n      dup6\n        /* \"#utility.yul\":5839:5843   */\n      0x20\n        /* \"#utility.yul\":5832:5837   */\n      dup7\n        /* \"#utility.yul\":5828:5844   */\n      add\n        /* \"#utility.yul\":5793:5858   */\n      tag_43\n      jump\t// in\n    tag_116:\n        /* \"#utility.yul\":5883:5912   */\n      tag_117\n        /* \"#utility.yul\":5905:5911   */\n      dup2\n        /* \"#utility.yul\":5883:5912   */\n      tag_28\n      jump\t// in\n    tag_117:\n        /* \"#utility.yul\":5878:5881   */\n      dup5\n        /* \"#utility.yul\":5874:5913   */\n      add\n        /* \"#utility.yul\":5867:5913   */\n      swap2\n      pop\n        /* \"#utility.yul\":5634:5919   */\n      pop\n        /* \"#utility.yul\":5542:5919   */\n      swap3\n      swap2\n      pop\n      pop\n      jump\t// out\n        /* \"#utility.yul\":5925:6238   */\n    tag_16:\n        /* \"#utility.yul\":6038:6042   */\n      0x00\n        /* \"#utility.yul\":6076:6078   */\n      0x20\n        /* \"#utility.yul\":6065:6074   */\n      dup3\n        /* \"#utility.yul\":6061:6079   */\n      add\n        /* \"#utility.yul\":6053:6079   */\n      swap1\n      pop\n        /* \"#utility.yul\":6125:6134   */\n      dup2\n        /* \"#utility.yul\":6119:6123   */\n      dup2\n        /* \"#utility.yul\":6115:6135   */\n      sub\n        /* \"#utility.yul\":6111:6112   */\n      0x00\n        /* \"#utility.yul\":6100:6109   */\n      dup4\n        /* \"#utility.yul\":6096:6113   */\n      add\n        /* \"#utility.yul\":6089:6136   */\n      mstore\n        /* \"#utility.yul\":6153:6231   */\n      tag_119\n        /* \"#utility.yul\":6226:6230   */\n      dup2\n        /* \"#utility.yul\":6217:6223   */\n      dup5\n        /* \"#utility.yul\":6153:6231   */\n      tag_44\n      jump\t// in\n    tag_119:\n        /* \"#utility.yul\":6145:6231   */\n      swap1\n      pop\n        /* \"#utility.yul\":5925:6238   */\n      swap3\n      swap2\n      pop\n      pop\n      jump\t// out\n        /* \"#utility.yul\":6244:6392   */\n    tag_45:\n        /* \"#utility.yul\":6346:6357   */\n      0x00\n        /* \"#utility.yul\":6383:6386   */\n      dup2\n        /* \"#utility.yul\":6368:6386   */\n      swap1\n      pop\n        /* \"#utility.yul\":6244:6392   */\n      swap3\n      swap2\n      pop\n      pop\n      jump\t// out\n        /* \"#utility.yul\":6398:6788   */\n    tag_46:\n        /* \"#utility.yul\":6504:6507   */\n      0x00\n        /* \"#utility.yul\":6532:6571   */\n      tag_122\n        /* \"#utility.yul\":6565:6570   */\n      dup3\n        /* \"#utility.yul\":6532:6571   */\n      tag_41\n      jump\t// in\n    tag_122:\n        /* \"#utility.yul\":6587:6676   */\n      tag_123\n        /* \"#utility.yul\":6669:6675   */\n      dup2\n        /* \"#utility.yul\":6664:6667   */\n      dup6\n        /* \"#utility.yul\":6587:6676   */\n      tag_45\n      jump\t// in\n    tag_123:\n        /* \"#utility.yul\":6580:6676   */\n      swap4\n      pop\n        /* \"#utility.yul\":6685:6750   */\n      tag_124\n        /* \"#utility.yul\":6743:6749   */\n      dup2\n        /* \"#utility.yul\":6738:6741   */\n      dup6\n        /* \"#utility.yul\":6731:6735   */\n      0x20\n        /* \"#utility.yul\":6724:6729   */\n      dup7\n        /* \"#utility.yul\":6720:6736   */\n      add\n        /* \"#utility.yul\":6685:6750   */\n      tag_43\n      jump\t// in\n    tag_124:\n        /* \"#utility.yul\":6775:6781   */\n      dup1\n        /* \"#utility.yul\":6770:6773   */\n      dup5\n        /* \"#utility.yul\":6766:6782   */\n      add\n        /* \"#utility.yul\":6759:6782   */\n      swap2\n      pop\n        /* \"#utility.yul\":6508:6788   */\n      pop\n        /* \"#utility.yul\":6398:6788   */\n      swap3\n      swap2\n      pop\n      pop\n      jump\t// out\n        /* \"#utility.yul\":6794:7069   */\n    tag_19:\n        /* \"#utility.yul\":6926:6929   */\n      0x00\n        /* \"#utility.yul\":6948:7043   */\n      tag_126\n        /* \"#utility.yul\":7039:7042   */\n      dup3\n        /* \"#utility.yul\":7030:7036   */\n      dup5\n        /* \"#utility.yul\":6948:7043   */\n      tag_46\n      jump\t// in\n    tag_126:\n        /* \"#utility.yul\":6941:7043   */\n      swap2\n      pop\n        /* \"#utility.yul\":7060:7063   */\n      dup2\n        /* \"#utility.yul\":7053:7063   */\n      swap1\n      pop\n        /* \"#utility.yul\":6794:7069   */\n      swap3\n      swap2\n      pop\n      pop\n      jump\t// out\n        /* \"#utility.yul\":7075:7509   */\n    tag_47:\n        /* \"#utility.yul\":7164:7169   */\n      0x00\n        /* \"#utility.yul\":7189:7255   */\n      tag_128\n        /* \"#utility.yul\":7205:7254   */\n      tag_129\n        /* \"#utility.yul\":7247:7253   */\n      dup5\n        /* \"#utility.yul\":7205:7254   */\n      tag_32\n      jump\t// in\n    tag_129:\n        /* \"#utility.yul\":7189:7255   */\n      tag_31\n      jump\t// in\n    tag_128:\n        /* \"#utility.yul\":7180:7255   */\n      swap1\n      pop\n        /* \"#utility.yul\":7278:7284   */\n      dup3\n        /* \"#utility.yul\":7271:7276   */\n      dup2\n        /* \"#utility.yul\":7264:7285   */\n      mstore\n        /* \"#utility.yul\":7316:7320   */\n      0x20\n        /* \"#utility.yul\":7309:7314   */\n      dup2\n        /* \"#utility.yul\":7305:7321   */\n      add\n        /* \"#utility.yul\":7354:7357   */\n      dup5\n        /* \"#utility.yul\":7345:7351   */\n      dup5\n        /* \"#utility.yul\":7340:7343   */\n      dup5\n        /* \"#utility.yul\":7336:7352   */\n      add\n        /* \"#utility.yul\":7333:7358   */\n      gt\n        /* \"#utility.yul\":7330:7442   */\n      iszero\n      tag_130\n      jumpi\n        /* \"#utility.yul\":7361:7440   */\n      tag_131\n      tag_27\n      jump\t// in\n    tag_131:\n        /* \"#utility.yul\":7330:7442   */\n    tag_130:\n        /* \"#utility.yul\":7451:7503   */\n      tag_132\n        /* \"#utility.yul\":7496:7502   */\n      dup5\n        /* \"#utility.yul\":7491:7494   */\n      dup3\n        /* \"#utility.yul\":7486:7489   */\n      dup6\n        /* \"#utility.yul\":7451:7503   */\n      tag_43\n      jump\t// in\n    tag_132:\n        /* \"#utility.yul\":7170:7509   */\n      pop\n        /* \"#utility.yul\":7075:7509   */\n      swap4\n      swap3\n      pop\n      pop\n      pop\n      jump\t// out\n        /* \"#utility.yul\":7529:7884   */\n    tag_48:\n        /* \"#utility.yul\":7596:7601   */\n      0x00\n        /* \"#utility.yul\":7645:7648   */\n      dup3\n        /* \"#utility.yul\":7638:7642   */\n      0x1f\n        /* \"#utility.yul\":7630:7636   */\n      dup4\n        /* \"#utility.yul\":7626:7643   */\n      add\n        /* \"#utility.yul\":7622:7649   */\n      slt\n        /* \"#utility.yul\":7612:7734   */\n      tag_134\n      jumpi\n        /* \"#utility.yul\":7653:7732   */\n      tag_135\n      tag_26\n      jump\t// in\n    tag_135:\n        /* \"#utility.yul\":7612:7734   */\n    tag_134:\n        /* \"#utility.yul\":7763:7769   */\n      dup2\n        /* \"#utility.yul\":7757:7770   */\n      mload\n        /* \"#utility.yul\":7788:7878   */\n      tag_136\n        /* \"#utility.yul\":7874:7877   */\n      dup5\n        /* \"#utility.yul\":7866:7872   */\n      dup3\n        /* \"#utility.yul\":7859:7863   */\n      0x20\n        /* \"#utility.yul\":7851:7857   */\n      dup7\n        /* \"#utility.yul\":7847:7864   */\n      add\n        /* \"#utility.yul\":7788:7878   */\n      tag_47\n      jump\t// in\n    tag_136:\n        /* \"#utility.yul\":7779:7878   */\n      swap2\n      pop\n        /* \"#utility.yul\":7602:7884   */\n      pop\n        /* \"#utility.yul\":7529:7884   */\n      swap3\n      swap2\n      pop\n      pop\n      jump\t// out\n        /* \"#utility.yul\":7890:8414   */\n    tag_22:\n        /* \"#utility.yul\":7970:7976   */\n      0x00\n        /* \"#utility.yul\":8019:8021   */\n      0x20\n        /* \"#utility.yul\":8007:8016   */\n      dup3\n        /* \"#utility.yul\":7998:8005   */\n      dup5\n        /* \"#utility.yul\":7994:8017   */\n      sub\n        /* \"#utility.yul\":7990:8022   */\n      slt\n        /* \"#utility.yul\":7987:8106   */\n      iszero\n      tag_138\n      jumpi\n        /* \"#utility.yul\":8025:8104   */\n      tag_139\n      tag_24\n      jump\t// in\n    tag_139:\n        /* \"#utility.yul\":7987:8106   */\n    tag_138:\n        /* \"#utility.yul\":8166:8167   */\n      0x00\n        /* \"#utility.yul\":8155:8164   */\n      dup3\n        /* \"#utility.yul\":8151:8168   */\n      add\n        /* \"#utility.yul\":8145:8169   */\n      mload\n        /* \"#utility.yul\":8196:8214   */\n      0xffffffffffffffff\n        /* \"#utility.yul\":8188:8194   */\n      dup2\n        /* \"#utility.yul\":8185:8215   */\n      gt\n        /* \"#utility.yul\":8182:8299   */\n      iszero\n      tag_140\n      jumpi\n        /* \"#utility.yul\":8218:8297   */\n      tag_141\n      tag_25\n      jump\t// in\n    tag_141:\n        /* \"#utility.yul\":8182:8299   */\n    tag_140:\n        /* \"#utility.yul\":8323:8397   */\n      tag_142\n        /* \"#utility.yul\":8389:8396   */\n      dup5\n        /* \"#utility.yul\":8380:8386   */\n      dup3\n        /* \"#utility.yul\":8369:8378   */\n      dup6\n        /* \"#utility.yul\":8365:8387   */\n      add\n        /* \"#utility.yul\":8323:8397   */\n      tag_48\n      jump\t// in\n    tag_142:\n        /* \"#utility.yul\":8313:8397   */\n      swap2\n      pop\n        /* \"#utility.yul\":8116:8407   */\n      pop\n        /* \"#utility.yul\":7890:8414   */\n      swap3\n      swap2\n      pop\n      pop\n      jump\t// out\n\n    auxdata: 0xa264697066735822122033d824557efa50927e99a2a37c73b437bb686b731b0af2a08635a6725cd0a20864736f6c634300081a0033\n}\n",
				"bytecode": {
					"linkReferences": {},
					"object": "6080604052348015600e575f80fd5b506105538061001c5f395ff3fe608060405234801561000f575f80fd5b5060043610610034575f3560e01c806377fe2654146100385780639edba4a414610068575b5f80fd5b610052600480360381019061004d919061023b565b610098565b60405161005f919061029a565b60405180910390f35b610082600480360381019061007d9190610351565b6100cc565b60405161008f91906103f8565b60405180910390f35b5f80826040516020016100ab9190610452565b60405160208183030381529060405280519060200120905080915050919050565b60605f828060200190518101906100e391906104d6565b905080915050919050565b5f604051905090565b5f80fd5b5f80fd5b5f80fd5b5f80fd5b5f601f19601f8301169050919050565b7f4e487b71000000000000000000000000000000000000000000000000000000005f52604160045260245ffd5b61014d82610107565b810181811067ffffffffffffffff8211171561016c5761016b610117565b5b80604052505050565b5f61017e6100ee565b905061018a8282610144565b919050565b5f67ffffffffffffffff8211156101a9576101a8610117565b5b6101b282610107565b9050602081019050919050565b828183375f83830152505050565b5f6101df6101da8461018f565b610175565b9050828152602081018484840111156101fb576101fa610103565b5b6102068482856101bf565b509392505050565b5f82601f830112610222576102216100ff565b5b81356102328482602086016101cd565b91505092915050565b5f602082840312156102505761024f6100f7565b5b5f82013567ffffffffffffffff81111561026d5761026c6100fb565b5b6102798482850161020e565b91505092915050565b5f819050919050565b61029481610282565b82525050565b5f6020820190506102ad5f83018461028b565b92915050565b5f67ffffffffffffffff8211156102cd576102cc610117565b5b6102d682610107565b9050602081019050919050565b5f6102f56102f0846102b3565b610175565b90508281526020810184848401111561031157610310610103565b5b61031c8482856101bf565b509392505050565b5f82601f830112610338576103376100ff565b5b81356103488482602086016102e3565b91505092915050565b5f60208284031215610366576103656100f7565b5b5f82013567ffffffffffffffff811115610383576103826100fb565b5b61038f84828501610324565b91505092915050565b5f81519050919050565b5f82825260208201905092915050565b8281835e5f83830152505050565b5f6103ca82610398565b6103d481856103a2565b93506103e48185602086016103b2565b6103ed81610107565b840191505092915050565b5f6020820190508181035f83015261041081846103c0565b905092915050565b5f81905092915050565b5f61042c82610398565b6104368185610418565b93506104468185602086016103b2565b80840191505092915050565b5f61045d8284610422565b915081905092915050565b5f61047a6104758461018f565b610175565b90508281526020810184848401111561049657610495610103565b5b6104a18482856103b2565b509392505050565b5f82601f8301126104bd576104bc6100ff565b5b81516104cd848260208601610468565b91505092915050565b5f602082840312156104eb576104ea6100f7565b5b5f82015167ffffffffffffffff811115610508576105076100fb565b5b610514848285016104a9565b9150509291505056fea264697066735822122033d824557efa50927e99a2a37c73b437bb686b731b0af2a08635a6725cd0a20864736f6c634300081a0033",
					"opcodes": "PUSH1 0x80 PUSH1 0x40 MSTORE CALLVALUE DUP1 ISZERO PUSH1 0xE JUMPI PUSH0 DUP1 REVERT JUMPDEST POP PUSH2 0x553 DUP1 PUSH2 0x1C PUSH0 CODECOPY PUSH0 RETURN INVALID PUSH1 0x80 PUSH1 0x40 MSTORE CALLVALUE DUP1 ISZERO PUSH2 0xF JUMPI PUSH0 DUP1 REVERT JUMPDEST POP PUSH1 0x4 CALLDATASIZE LT PUSH2 0x34 JUMPI PUSH0 CALLDATALOAD PUSH1 0xE0 SHR DUP1 PUSH4 0x77FE2654 EQ PUSH2 0x38 JUMPI DUP1 PUSH4 0x9EDBA4A4 EQ PUSH2 0x68 JUMPI JUMPDEST PUSH0 DUP1 REVERT JUMPDEST PUSH2 0x52 PUSH1 0x4 DUP1 CALLDATASIZE SUB DUP2 ADD SWAP1 PUSH2 0x4D SWAP2 SWAP1 PUSH2 0x23B JUMP JUMPDEST PUSH2 0x98 JUMP JUMPDEST PUSH1 0x40 MLOAD PUSH2 0x5F SWAP2 SWAP1 PUSH2 0x29A JUMP JUMPDEST PUSH1 0x40 MLOAD DUP1 SWAP2 SUB SWAP1 RETURN JUMPDEST PUSH2 0x82 PUSH1 0x4 DUP1 CALLDATASIZE SUB DUP2 ADD SWAP1 PUSH2 0x7D SWAP2 SWAP1 PUSH2 0x351 JUMP JUMPDEST PUSH2 0xCC JUMP JUMPDEST PUSH1 0x40 MLOAD PUSH2 0x8F SWAP2 SWAP1 PUSH2 0x3F8 JUMP JUMPDEST PUSH1 0x40 MLOAD DUP1 SWAP2 SUB SWAP1 RETURN JUMPDEST PUSH0 DUP1 DUP3 PUSH1 0x40 MLOAD PUSH1 0x20 ADD PUSH2 0xAB SWAP2 SWAP1 PUSH2 0x452 JUMP JUMPDEST PUSH1 0x40 MLOAD PUSH1 0x20 DUP2 DUP4 SUB SUB DUP2 MSTORE SWAP1 PUSH1 0x40 MSTORE DUP1 MLOAD SWAP1 PUSH1 0x20 ADD KECCAK256 SWAP1 POP DUP1 SWAP2 POP POP SWAP2 SWAP1 POP JUMP JUMPDEST PUSH1 0x60 PUSH0 DUP3 DUP1 PUSH1 0x20 ADD SWAP1 MLOAD DUP2 ADD SWAP1 PUSH2 0xE3 SWAP2 SWAP1 PUSH2 0x4D6 JUMP JUMPDEST SWAP1 POP DUP1 SWAP2 POP POP SWAP2 SWAP1 POP JUMP JUMPDEST PUSH0 PUSH1 0x40 MLOAD SWAP1 POP SWAP1 JUMP JUMPDEST PUSH0 DUP1 REVERT JUMPDEST PUSH0 DUP1 REVERT JUMPDEST PUSH0 DUP1 REVERT JUMPDEST PUSH0 DUP1 REVERT JUMPDEST PUSH0 PUSH1 0x1F NOT PUSH1 0x1F DUP4 ADD AND SWAP1 POP SWAP2 SWAP1 POP JUMP JUMPDEST PUSH32 0x4E487B7100000000000000000000000000000000000000000000000000000000 PUSH0 MSTORE PUSH1 0x41 PUSH1 0x4 MSTORE PUSH1 0x24 PUSH0 REVERT JUMPDEST PUSH2 0x14D DUP3 PUSH2 0x107 JUMP JUMPDEST DUP2 ADD DUP2 DUP2 LT PUSH8 0xFFFFFFFFFFFFFFFF DUP3 GT OR ISZERO PUSH2 0x16C JUMPI PUSH2 0x16B PUSH2 0x117 JUMP JUMPDEST JUMPDEST DUP1 PUSH1 0x40 MSTORE POP POP POP JUMP JUMPDEST PUSH0 PUSH2 0x17E PUSH2 0xEE JUMP JUMPDEST SWAP1 POP PUSH2 0x18A DUP3 DUP3 PUSH2 0x144 JUMP JUMPDEST SWAP2 SWAP1 POP JUMP JUMPDEST PUSH0 PUSH8 0xFFFFFFFFFFFFFFFF DUP3 GT ISZERO PUSH2 0x1A9 JUMPI PUSH2 0x1A8 PUSH2 0x117 JUMP JUMPDEST JUMPDEST PUSH2 0x1B2 DUP3 PUSH2 0x107 JUMP JUMPDEST SWAP1 POP PUSH1 0x20 DUP2 ADD SWAP1 POP SWAP2 SWAP1 POP JUMP JUMPDEST DUP3 DUP2 DUP4 CALLDATACOPY PUSH0 DUP4 DUP4 ADD MSTORE POP POP POP JUMP JUMPDEST PUSH0 PUSH2 0x1DF PUSH2 0x1DA DUP5 PUSH2 0x18F JUMP JUMPDEST PUSH2 0x175 JUMP JUMPDEST SWAP1 POP DUP3 DUP2 MSTORE PUSH1 0x20 DUP2 ADD DUP5 DUP5 DUP5 ADD GT ISZERO PUSH2 0x1FB JUMPI PUSH2 0x1FA PUSH2 0x103 JUMP JUMPDEST JUMPDEST PUSH2 0x206 DUP5 DUP3 DUP6 PUSH2 0x1BF JUMP JUMPDEST POP SWAP4 SWAP3 POP POP POP JUMP JUMPDEST PUSH0 DUP3 PUSH1 0x1F DUP4 ADD SLT PUSH2 0x222 JUMPI PUSH2 0x221 PUSH2 0xFF JUMP JUMPDEST JUMPDEST DUP2 CALLDATALOAD PUSH2 0x232 DUP5 DUP3 PUSH1 0x20 DUP7 ADD PUSH2 0x1CD JUMP JUMPDEST SWAP2 POP POP SWAP3 SWAP2 POP POP JUMP JUMPDEST PUSH0 PUSH1 0x20 DUP3 DUP5 SUB SLT ISZERO PUSH2 0x250 JUMPI PUSH2 0x24F PUSH2 0xF7 JUMP JUMPDEST JUMPDEST PUSH0 DUP3 ADD CALLDATALOAD PUSH8 0xFFFFFFFFFFFFFFFF DUP2 GT ISZERO PUSH2 0x26D JUMPI PUSH2 0x26C PUSH2 0xFB JUMP JUMPDEST JUMPDEST PUSH2 0x279 DUP5 DUP3 DUP6 ADD PUSH2 0x20E JUMP JUMPDEST SWAP2 POP POP SWAP3 SWAP2 POP POP JUMP JUMPDEST PUSH0 DUP2 SWAP1 POP SWAP2 SWAP1 POP JUMP JUMPDEST PUSH2 0x294 DUP2 PUSH2 0x282 JUMP JUMPDEST DUP3 MSTORE POP POP JUMP JUMPDEST PUSH0 PUSH1 0x20 DUP3 ADD SWAP1 POP PUSH2 0x2AD PUSH0 DUP4 ADD DUP5 PUSH2 0x28B JUMP JUMPDEST SWAP3 SWAP2 POP POP JUMP JUMPDEST PUSH0 PUSH8 0xFFFFFFFFFFFFFFFF DUP3 GT ISZERO PUSH2 0x2CD JUMPI PUSH2 0x2CC PUSH2 0x117 JUMP JUMPDEST JUMPDEST PUSH2 0x2D6 DUP3 PUSH2 0x107 JUMP JUMPDEST SWAP1 POP PUSH1 0x20 DUP2 ADD SWAP1 POP SWAP2 SWAP1 POP JUMP JUMPDEST PUSH0 PUSH2 0x2F5 PUSH2 0x2F0 DUP5 PUSH2 0x2B3 JUMP JUMPDEST PUSH2 0x175 JUMP JUMPDEST SWAP1 POP DUP3 DUP2 MSTORE PUSH1 0x20 DUP2 ADD DUP5 DUP5 DUP5 ADD GT ISZERO PUSH2 0x311 JUMPI PUSH2 0x310 PUSH2 0x103 JUMP JUMPDEST JUMPDEST PUSH2 0x31C DUP5 DUP3 DUP6 PUSH2 0x1BF JUMP JUMPDEST POP SWAP4 SWAP3 POP POP POP JUMP JUMPDEST PUSH0 DUP3 PUSH1 0x1F DUP4 ADD SLT PUSH2 0x338 JUMPI PUSH2 0x337 PUSH2 0xFF JUMP JUMPDEST JUMPDEST DUP2 CALLDATALOAD PUSH2 0x348 DUP5 DUP3 PUSH1 0x20 DUP7 ADD PUSH2 0x2E3 JUMP JUMPDEST SWAP2 POP POP SWAP3 SWAP2 POP POP JUMP JUMPDEST PUSH0 PUSH1 0x20 DUP3 DUP5 SUB SLT ISZERO PUSH2 0x366 JUMPI PUSH2 0x365 PUSH2 0xF7 JUMP JUMPDEST JUMPDEST PUSH0 DUP3 ADD CALLDATALOAD PUSH8 0xFFFFFFFFFFFFFFFF DUP2 GT ISZERO PUSH2 0x383 JUMPI PUSH2 0x382 PUSH2 0xFB JUMP JUMPDEST JUMPDEST PUSH2 0x38F DUP5 DUP3 DUP6 ADD PUSH2 0x324 JUMP JUMPDEST SWAP2 POP POP SWAP3 SWAP2 POP POP JUMP JUMPDEST PUSH0 DUP2 MLOAD SWAP1 POP SWAP2 SWAP1 POP JUMP JUMPDEST PUSH0 DUP3 DUP3 MSTORE PUSH1 0x20 DUP3 ADD SWAP1 POP SWAP3 SWAP2 POP POP JUMP JUMPDEST DUP3 DUP2 DUP4 MCOPY PUSH0 DUP4 DUP4 ADD MSTORE POP POP POP JUMP JUMPDEST PUSH0 PUSH2 0x3CA DUP3 PUSH2 0x398 JUMP JUMPDEST PUSH2 0x3D4 DUP2 DUP6 PUSH2 0x3A2 JUMP JUMPDEST SWAP4 POP PUSH2 0x3E4 DUP2 DUP6 PUSH1 0x20 DUP7 ADD PUSH2 0x3B2 JUMP JUMPDEST PUSH2 0x3ED DUP2 PUSH2 0x107 JUMP JUMPDEST DUP5 ADD SWAP2 POP POP SWAP3 SWAP2 POP POP JUMP JUMPDEST PUSH0 PUSH1 0x20 DUP3 ADD SWAP1 POP DUP2 DUP2 SUB PUSH0 DUP4 ADD MSTORE PUSH2 0x410 DUP2 DUP5 PUSH2 0x3C0 JUMP JUMPDEST SWAP1 POP SWAP3 SWAP2 POP POP JUMP JUMPDEST PUSH0 DUP2 SWAP1 POP SWAP3 SWAP2 POP POP JUMP JUMPDEST PUSH0 PUSH2 0x42C DUP3 PUSH2 0x398 JUMP JUMPDEST PUSH2 0x436 DUP2 DUP6 PUSH2 0x418 JUMP JUMPDEST SWAP4 POP PUSH2 0x446 DUP2 DUP6 PUSH1 0x20 DUP7 ADD PUSH2 0x3B2 JUMP JUMPDEST DUP1 DUP5 ADD SWAP2 POP POP SWAP3 SWAP2 POP POP JUMP JUMPDEST PUSH0 PUSH2 0x45D DUP3 DUP5 PUSH2 0x422 JUMP JUMPDEST SWAP2 POP DUP2 SWAP1 POP SWAP3 SWAP2 POP POP JUMP JUMPDEST PUSH0 PUSH2 0x47A PUSH2 0x475 DUP5 PUSH2 0x18F JUMP JUMPDEST PUSH2 0x175 JUMP JUMPDEST SWAP1 POP DUP3 DUP2 MSTORE PUSH1 0x20 DUP2 ADD DUP5 DUP5 DUP5 ADD GT ISZERO PUSH2 0x496 JUMPI PUSH2 0x495 PUSH2 0x103 JUMP JUMPDEST JUMPDEST PUSH2 0x4A1 DUP5 DUP3 DUP6 PUSH2 0x3B2 JUMP JUMPDEST POP SWAP4 SWAP3 POP POP POP JUMP JUMPDEST PUSH0 DUP3 PUSH1 0x1F DUP4 ADD SLT PUSH2 0x4BD JUMPI PUSH2 0x4BC PUSH2 0xFF JUMP JUMPDEST JUMPDEST DUP2 MLOAD PUSH2 0x4CD DUP5 DUP3 PUSH1 0x20 DUP7 ADD PUSH2 0x468 JUMP JUMPDEST SWAP2 POP POP SWAP3 SWAP2 POP POP JUMP JUMPDEST PUSH0 PUSH1 0x20 DUP3 DUP5 SUB SLT ISZERO PUSH2 0x4EB JUMPI PUSH2 0x4EA PUSH2 0xF7 JUMP JUMPDEST JUMPDEST PUSH0 DUP3 ADD MLOAD PUSH8 0xFFFFFFFFFFFFFFFF DUP2 GT ISZERO PUSH2 0x508 JUMPI PUSH2 0x507 PUSH2 0xFB JUMP JUMPDEST JUMPDEST PUSH2 0x514 DUP5 DUP3 DUP6 ADD PUSH2 0x4A9 JUMP JUMPDEST SWAP2 POP POP SWAP3 SWAP2 POP POP JUMP INVALID LOG2 PUSH5 0x6970667358 0x22 SLT KECCAK256 CALLER 0xD8 0x24 SSTORE PUSH31 0xFA50927E99A2A37C73B437BB686B731B0AF2A08635A6725CD0A20864736F6C PUSH4 0x4300081A STOP CALLER "
				},
				"gasEstimates": {
					"creation": {
						"codeDepositCost": "272600",
						"executionCost": "310",
						"totalCost": "272910"
					},
					"external": {
						"inString(string)": "infinite",
						"outString(bytes)": "infinite"
					}
				},
				"methodIdentifiers": {
					"inString(string)": "77fe2654",
					"outString(bytes)": "9edba4a4"
				}
			},
			"storageLayout": {
				"storage": [],
				"types": null
			},
			"userdoc": {
				"kind": "user",
				"methods": {},
				"version": 1
			}
		}
	}
}