{
	"data": {
		"bytecode": {
			"linkReferences": {},
			"object": "6080604052348015600e575f80fd5b506107b68061001c5f395ff3fe608060405234801561000f575f80fd5b5060043610610055575f3560e01c80630f96cf34146100595780631e2aea06146100895780633a3f45b7146100b95780637e769fa3146100d7578063aa0a9171146100f3575b5f80fd5b610073600480360381019061006e91906102a0565b61010f565b60405161008091906102da565b60405180910390f35b6100a3600480360381019061009e9190610443565b61012e565b6040516100b091906102da565b60405180910390f35b6100c161017a565b6040516100ce91906102da565b60405180910390f35b6100f160048036038101906100ec91906105d8565b6101a9565b005b61010d600480360381019061010891906102a0565b610234565b005b5f818154811061011d575f80fd5b905f5260205f20015f915090505481565b5f805f5b83518110156101705783818151811061014e5761014d61064e565b5b60200260200101518261016191906106a8565b91508080600101915050610132565b5080915050919050565b5f8080548061018c5761018b6106db565b5b600190038181905f5260205f20015f905590555f80549050905090565b5f8251116101ec576040517f08c379a00000000000000000000000000000000000000000000000000000000081526004016101e390610762565b60405180910390fd5b6001815111610230576040517f08c379a000000000000000000000000000000000000000000000000000000000815260040161022790610762565b60405180910390fd5b5050565b5f81908060018154018082558091505060019003905f5260205f20015f909190919091505550565b5f604051905090565b5f80fd5b5f80fd5b5f819050919050565b61027f8161026d565b8114610289575f80fd5b50565b5f8135905061029a81610276565b92915050565b5f602082840312156102b5576102b4610265565b5b5f6102c28482850161028c565b91505092915050565b6102d48161026d565b82525050565b5f6020820190506102ed5f8301846102cb565b92915050565b5f80fd5b5f601f19601f8301169050919050565b7f4e487b71000000000000000000000000000000000000000000000000000000005f52604160045260245ffd5b61033d826102f7565b810181811067ffffffffffffffff8211171561035c5761035b610307565b5b80604052505050565b5f61036e61025c565b905061037a8282610334565b919050565b5f67ffffffffffffffff82111561039957610398610307565b5b602082029050602081019050919050565b5f80fd5b5f6103c06103bb8461037f565b610365565b905080838252602082019050602084028301858111156103e3576103e26103aa565b5b835b8181101561040c57806103f8888261028c565b8452602084019350506020810190506103e5565b5050509392505050565b5f82601f83011261042a576104296102f3565b5b813561043a8482602086016103ae565b91505092915050565b5f6020828403121561045857610457610265565b5b5f82013567ffffffffffffffff81111561047557610474610269565b5b61048184828501610416565b91505092915050565b5f80fd5b5f67ffffffffffffffff8211156104a8576104a7610307565b5b6104b1826102f7565b9050602081019050919050565b828183375f83830152505050565b5f6104de6104d98461048e565b610365565b9050828152602081018484840111156104fa576104f961048a565b5b6105058482856104be565b509392505050565b5f82601f830112610521576105206102f3565b5b81356105318482602086016104cc565b91505092915050565b5f67ffffffffffffffff82111561055457610553610307565b5b61055d826102f7565b9050602081019050919050565b5f61057c6105778461053a565b610365565b9050828152602081018484840111156105985761059761048a565b5b6105a38482856104be565b509392505050565b5f82601f8301126105bf576105be6102f3565b5b81356105cf84826020860161056a565b91505092915050565b5f80604083850312156105ee576105ed610265565b5b5f83013567ffffffffffffffff81111561060b5761060a610269565b5b6106178582860161050d565b925050602083013567ffffffffffffffff81111561063857610637610269565b5b610644858286016105ab565b9150509250929050565b7f4e487b71000000000000000000000000000000000000000000000000000000005f52603260045260245ffd5b7f4e487b71000000000000000000000000000000000000000000000000000000005f52601160045260245ffd5b5f6106b28261026d565b91506106bd8361026d565b92508282019050808211156106d5576106d461067b565b5b92915050565b7f4e487b71000000000000000000000000000000000000000000000000000000005f52603160045260245ffd5b5f82825260208201905092915050565b7f4e6f7420656e6f756768206461746100000000000000000000000000000000005f82015250565b5f61074c600f83610708565b915061075782610718565b602082019050919050565b5f6020820190508181035f83015261077981610740565b905091905056fea26469706673582212205d817354235236bf0770fe6b07576a7c08835ccdb9b9803ad82956297529b32164736f6c634300081a0033",
			"opcodes": "PUSH1 0x80 PUSH1 0x40 MSTORE CALLVALUE DUP1 ISZERO PUSH1 0xE JUMPI PUSH0 DUP1 REVERT JUMPDEST POP PUSH2 0x7B6 DUP1 PUSH2 0x1C PUSH0 CODECOPY PUSH0 RETURN INVALID PUSH1 0x80 PUSH1 0x40 MSTORE CALLVALUE DUP1 ISZERO PUSH2 0xF JUMPI PUSH0 DUP1 REVERT JUMPDEST POP PUSH1 0x4 CALLDATASIZE LT PUSH2 0x55 JUMPI PUSH0 CALLDATALOAD PUSH1 0xE0 SHR DUP1 PUSH4 0xF96CF34 EQ PUSH2 0x59 JUMPI DUP1 PUSH4 0x1E2AEA06 EQ PUSH2 0x89 JUMPI DUP1 PUSH4 0x3A3F45B7 EQ PUSH2 0xB9 JUMPI DUP1 PUSH4 0x7E769FA3 EQ PUSH2 0xD7 JUMPI DUP1 PUSH4 0xAA0A9171 EQ PUSH2 0xF3 JUMPI JUMPDEST PUSH0 DUP1 REVERT JUMPDEST PUSH2 0x73 PUSH1 0x4 DUP1 CALLDATASIZE SUB DUP2 ADD SWAP1 PUSH2 0x6E SWAP2 SWAP1 PUSH2 0x2A0 JUMP JUMPDEST PUSH2 0x10F JUMP JUMPDEST PUSH1 0x40 MLOAD PUSH2 0x80 SWAP2 SWAP1 PUSH2 0x2DA JUMP JUMPDEST PUSH1 0x40 MLOAD DUP1 SWAP2 SUB SWAP1 RETURN JUMPDEST PUSH2 0xA3 PUSH1 0x4 DUP1 CALLDATASIZE SUB DUP2 ADD SWAP1 PUSH2 0x9E SWAP2 SWAP1 PUSH2 0x443 JUMP JUMPDEST PUSH2 0x12E JUMP JUMPDEST PUSH1 0x40 MLOAD PUSH2 0xB0 SWAP2 SWAP1 PUSH2 0x2DA JUMP JUMPDEST PUSH1 0x40 MLOAD DUP1 SWAP2 SUB SWAP1 RETURN JUMPDEST PUSH2 0xC1 PUSH2 0x17A JUMP JUMPDEST PUSH1 0x40 MLOAD PUSH2 0xCE SWAP2 SWAP1 PUSH2 0x2DA JUMP JUMPDEST PUSH1 0x40 MLOAD DUP1 SWAP2 SUB SWAP1 RETURN JUMPDEST PUSH2 0xF1 PUSH1 0x4 DUP1 CALLDATASIZE SUB DUP2 ADD SWAP1 PUSH2 0xEC SWAP2 SWAP1 PUSH2 0x5D8 JUMP JUMPDEST PUSH2 0x1A9 JUMP JUMPDEST STOP JUMPDEST PUSH2 0x10D PUSH1 0x4 DUP1 CALLDATASIZE SUB DUP2 ADD SWAP1 PUSH2 0x108 SWAP2 SWAP1 PUSH2 0x2A0 JUMP JUMPDEST PUSH2 0x234 JUMP JUMPDEST STOP JUMPDEST PUSH0 DUP2 DUP2 SLOAD DUP2 LT PUSH2 0x11D JUMPI PUSH0 DUP1 REVERT JUMPDEST SWAP1 PUSH0 MSTORE PUSH1 0x20 PUSH0 KECCAK256 ADD PUSH0 SWAP2 POP SWAP1 POP SLOAD DUP2 JUMP JUMPDEST PUSH0 DUP1 PUSH0 JUMPDEST DUP4 MLOAD DUP2 LT ISZERO PUSH2 0x170 JUMPI DUP4 DUP2 DUP2 MLOAD DUP2 LT PUSH2 0x14E JUMPI PUSH2 0x14D PUSH2 0x64E JUMP JUMPDEST JUMPDEST PUSH1 0x20 MUL PUSH1 0x20 ADD ADD MLOAD DUP3 PUSH2 0x161 SWAP2 SWAP1 PUSH2 0x6A8 JUMP JUMPDEST SWAP2 POP DUP1 DUP1 PUSH1 0x1 ADD SWAP2 POP POP PUSH2 0x132 JUMP JUMPDEST POP DUP1 SWAP2 POP POP SWAP2 SWAP1 POP JUMP JUMPDEST PUSH0 DUP1 DUP1 SLOAD DUP1 PUSH2 0x18C JUMPI PUSH2 0x18B PUSH2 0x6DB JUMP JUMPDEST JUMPDEST PUSH1 0x1 SWAP1 SUB DUP2 DUP2 SWAP1 PUSH0 MSTORE PUSH1 0x20 PUSH0 KECCAK256 ADD PUSH0 SWAP1 SSTORE SWAP1 SSTORE PUSH0 DUP1 SLOAD SWAP1 POP SWAP1 POP SWAP1 JUMP JUMPDEST PUSH0 DUP3 MLOAD GT PUSH2 0x1EC JUMPI PUSH1 0x40 MLOAD PUSH32 0x8C379A000000000000000000000000000000000000000000000000000000000 DUP2 MSTORE PUSH1 0x4 ADD PUSH2 0x1E3 SWAP1 PUSH2 0x762 JUMP JUMPDEST PUSH1 0x40 MLOAD DUP1 SWAP2 SUB SWAP1 REVERT JUMPDEST PUSH1 0x1 DUP2 MLOAD GT PUSH2 0x230 JUMPI PUSH1 0x40 MLOAD PUSH32 0x8C379A000000000000000000000000000000000000000000000000000000000 DUP2 MSTORE PUSH1 0x4 ADD PUSH2 0x227 SWAP1 PUSH2 0x762 JUMP JUMPDEST PUSH1 0x40 MLOAD DUP1 SWAP2 SUB SWAP1 REVERT JUMPDEST POP POP JUMP JUMPDEST PUSH0 DUP2 SWAP1 DUP1 PUSH1 0x1 DUP2 SLOAD ADD DUP1 DUP3 SSTORE DUP1 SWAP2 POP POP PUSH1 0x1 SWAP1 SUB SWAP1 PUSH0 MSTORE PUSH1 0x20 PUSH0 KECCAK256 ADD PUSH0 SWAP1 SWAP2 SWAP1 SWAP2 SWAP1 SWAP2 POP SSTORE POP JUMP JUMPDEST PUSH0 PUSH1 0x40 MLOAD SWAP1 POP SWAP1 JUMP JUMPDEST PUSH0 DUP1 REVERT JUMPDEST PUSH0 DUP1 REVERT JUMPDEST PUSH0 DUP2 SWAP1 POP SWAP2 SWAP1 POP JUMP JUMPDEST PUSH2 0x27F DUP2 PUSH2 0x26D JUMP JUMPDEST DUP2 EQ PUSH2 0x289 JUMPI PUSH0 DUP1 REVERT JUMPDEST POP JUMP JUMPDEST PUSH0 DUP2 CALLDATALOAD SWAP1 POP PUSH2 0x29A DUP2 PUSH2 0x276 JUMP JUMPDEST SWAP3 SWAP2 POP POP JUMP JUMPDEST PUSH0 PUSH1 0x20 DUP3 DUP5 SUB SLT ISZERO PUSH2 0x2B5 JUMPI PUSH2 0x2B4 PUSH2 0x265 JUMP JUMPDEST JUMPDEST PUSH0 PUSH2 0x2C2 DUP5 DUP3 DUP6 ADD PUSH2 0x28C JUMP JUMPDEST SWAP2 POP POP SWAP3 SWAP2 POP POP JUMP JUMPDEST PUSH2 0x2D4 DUP2 PUSH2 0x26D JUMP JUMPDEST DUP3 MSTORE POP POP JUMP JUMPDEST PUSH0 PUSH1 0x20 DUP3 ADD SWAP1 POP PUSH2 0x2ED PUSH0 DUP4 ADD DUP5 PUSH2 0x2CB JUMP JUMPDEST SWAP3 SWAP2 POP POP JUMP JUMPDEST PUSH0 DUP1 REVERT JUMPDEST PUSH0 PUSH1 0x1F NOT PUSH1 0x1F DUP4 ADD AND SWAP1 POP SWAP2 SWAP1 POP JUMP JUMPDEST PUSH32 0x4E487B7100000000000000000000000000000000000000000000000000000000 PUSH0 MSTORE PUSH1 0x41 PUSH1 0x4 MSTORE PUSH1 0x24 PUSH0 REVERT JUMPDEST PUSH2 0x33D DUP3 PUSH2 0x2F7 JUMP JUMPDEST DUP2 ADD DUP2 DUP2 LT PUSH8 0xFFFFFFFFFFFFFFFF DUP3 GT OR ISZERO PUSH2 0x35C JUMPI PUSH2 0x35B PUSH2 0x307 JUMP JUMPDEST JUMPDEST DUP1 PUSH1 0x40 MSTORE POP POP POP JUMP JUMPDEST PUSH0 PUSH2 0x36E PUSH2 0x25C JUMP JUMPDEST SWAP1 POP PUSH2 0x37A DUP3 DUP3 PUSH2 0x334 JUMP JUMPDEST SWAP2 SWAP1 POP JUMP JUMPDEST PUSH0 PUSH8 0xFFFFFFFFFFFFFFFF DUP3 GT ISZERO PUSH2 0x399 JUMPI PUSH2 0x398 PUSH2 0x307 JUMP JUMPDEST JUMPDEST PUSH1 0x20 DUP3 MUL SWAP1 POP PUSH1 0x20 DUP2 ADD SWAP1 POP SWAP2 SWAP1 POP JUMP JUMPDEST PUSH0 DUP1 REVERT JUMPDEST PUSH0 PUSH2 0x3C0 PUSH2 0x3BB DUP5 PUSH2 0x37F JUMP JUMPDEST PUSH2 0x365 JUMP JUMPDEST SWAP1 POP DUP1 DUP4 DUP3 MSTORE PUSH1 0x20 DUP3 ADD SWAP1 POP PUSH1 0x20 DUP5 MUL DUP4 ADD DUP6 DUP2 GT ISZERO PUSH2 0x3E3 JUMPI PUSH2 0x3E2 PUSH2 0x3AA JUMP JUMPDEST JUMPDEST DUP4 JUMPDEST DUP2 DUP2 LT ISZERO PUSH2 0x40C JUMPI DUP1 PUSH2 0x3F8 DUP9 DUP3 PUSH2 0x28C JUMP JUMPDEST DUP5 MSTORE PUSH1 0x20 DUP5 ADD SWAP4 POP POP PUSH1 0x20 DUP2 ADD SWAP1 POP PUSH2 0x3E5 JUMP JUMPDEST POP POP POP SWAP4 SWAP3 POP POP POP JUMP JUMPDEST PUSH0 DUP3 PUSH1 0x1F DUP4 ADD SLT PUSH2 0x42A JUMPI PUSH2 0x429 PUSH2 0x2F3 JUMP JUMPDEST JUMPDEST DUP2 CALLDATALOAD PUSH2 0x43A DUP5 DUP3 PUSH1 0x20 DUP7 ADD PUSH2 0x3AE JUMP JUMPDEST SWAP2 POP POP SWAP3 SWAP2 POP POP JUMP JUMPDEST PUSH0 PUSH1 0x20 DUP3 DUP5 SUB SLT ISZERO PUSH2 0x458 JUMPI PUSH2 0x457 PUSH2 0x265 JUMP JUMPDEST JUMPDEST PUSH0 DUP3 ADD CALLDATALOAD PUSH8 0xFFFFFFFFFFFFFFFF DUP2 GT ISZERO PUSH2 0x475 JUMPI PUSH2 0x474 PUSH2 0x269 JUMP JUMPDEST JUMPDEST PUSH2 0x481 DUP5 DUP3 DUP6 ADD PUSH2 0x416 JUMP JUMPDEST SWAP2 POP POP SWAP3 SWAP2 POP POP JUMP JUMPDEST PUSH0 DUP1 REVERT JUMPDEST PUSH0 PUSH8 0xFFFFFFFFFFFFFFFF DUP3 GT ISZERO PUSH2 0x4A8 JUMPI PUSH2 0x4A7 PUSH2 0x307 JUMP JUMPDEST JUMPDEST PUSH2 0x4B1 DUP3 PUSH2 0x2F7 JUMP JUMPDEST SWAP1 POP PUSH1 0x20 DUP2 ADD SWAP1 POP SWAP2 SWAP1 POP JUMP JUMPDEST DUP3 DUP2 DUP4 CALLDATACOPY PUSH0 DUP4 DUP4 ADD MSTORE POP POP POP JUMP JUMPDEST PUSH0 PUSH2 0x4DE PUSH2 0x4D9 DUP5 PUSH2 0x48E JUMP JUMPDEST PUSH2 0x365 JUMP JUMPDEST SWAP1 POP DUP3 DUP2 MSTORE PUSH1 0x20 DUP2 ADD DUP5 DUP5 DUP5 ADD GT ISZERO PUSH2 0x4FA JUMPI PUSH2 0x4F9 PUSH2 0x48A JUMP JUMPDEST JUMPDEST PUSH2 0x505 DUP5 DUP3 DUP6 PUSH2 0x4BE JUMP JUMPDEST POP SWAP4 SWAP3 POP POP POP JUMP JUMPDEST PUSH0 DUP3 PUSH1 0x1F DUP4 ADD SLT PUSH2 0x521 JUMPI PUSH2 0x520 PUSH2 0x2F3 JUMP JUMPDEST JUMPDEST DUP2 CALLDATALOAD PUSH2 0x531 DUP5 DUP3 PUSH1 0x20 DUP7 ADD PUSH2 0x4CC JUMP JUMPDEST SWAP2 POP POP SWAP3 SWAP2 POP POP JUMP JUMPDEST PUSH0 PUSH8 0xFFFFFFFFFFFFFFFF DUP3 GT ISZERO PUSH2 0x554 JUMPI PUSH2 0x553 PUSH2 0x307 JUMP JUMPDEST JUMPDEST PUSH2 0x55D DUP3 PUSH2 0x2F7 JUMP JUMPDEST SWAP1 POP PUSH1 0x20 DUP2 ADD SWAP1 POP SWAP2 SWAP1 POP JUMP JUMPDEST PUSH0 PUSH2 0x57C PUSH2 0x577 DUP5 PUSH2 0x53A JUMP JUMPDEST PUSH2 0x365 JUMP JUMPDEST SWAP1 POP DUP3 DUP2 MSTORE PUSH1 0x20 DUP2 ADD DUP5 DUP5 DUP5 ADD GT ISZERO PUSH2 0x598 JUMPI PUSH2 0x597 PUSH2 0x48A JUMP JUMPDEST JUMPDEST PUSH2 0x5A3 DUP5 DUP3 DUP6 PUSH2 0x4BE JUMP JUMPDEST POP SWAP4 SWAP3 POP POP POP JUMP JUMPDEST PUSH0 DUP3 PUSH1 0x1F DUP4 ADD SLT PUSH2 0x5BF JUMPI PUSH2 0x5BE PUSH2 0x2F3 JUMP JUMPDEST JUMPDEST DUP2 CALLDATALOAD PUSH2 0x5CF DUP5 DUP3 PUSH1 0x20 DUP7 ADD PUSH2 0x56A JUMP JUMPDEST SWAP2 POP POP SWAP3 SWAP2 POP POP JUMP JUMPDEST PUSH0 DUP1 PUSH1 0x40 DUP4 DUP6 SUB SLT ISZERO PUSH2 0x5EE JUMPI PUSH2 0x5ED PUSH2 0x265 JUMP JUMPDEST JUMPDEST PUSH0 DUP4 ADD CALLDATALOAD PUSH8 0xFFFFFFFFFFFFFFFF DUP2 GT ISZERO PUSH2 0x60B JUMPI PUSH2 0x60A PUSH2 0x269 JUMP JUMPDEST JUMPDEST PUSH2 0x617 DUP6 DUP3 DUP7 ADD PUSH2 0x50D JUMP JUMPDEST SWAP3 POP POP PUSH1 0x20 DUP4 ADD CALLDATALOAD PUSH8 0xFFFFFFFFFFFFFFFF DUP2 GT ISZERO PUSH2 0x638 JUMPI PUSH2 0x637 PUSH2 0x269 JUMP JUMPDEST JUMPDEST PUSH2 0x644 DUP6 DUP3 DUP7 ADD PUSH2 0x5AB JUMP JUMPDEST SWAP2 POP POP SWAP3 POP SWAP3 SWAP1 POP JUMP JUMPDEST PUSH32 0x4E487B7100000000000000000000000000000000000000000000000000000000 PUSH0 MSTORE PUSH1 0x32 PUSH1 0x4 MSTORE PUSH1 0x24 PUSH0 REVERT JUMPDEST PUSH32 0x4E487B7100000000000000000000000000000000000000000000000000000000 PUSH0 MSTORE PUSH1 0x11 PUSH1 0x4 MSTORE PUSH1 0x24 PUSH0 REVERT JUMPDEST PUSH0 PUSH2 0x6B2 DUP3 PUSH2 0x26D JUMP JUMPDEST SWAP2 POP PUSH2 0x6BD DUP4 PUSH2 0x26D JUMP JUMPDEST SWAP3 POP DUP3 DUP3 ADD SWAP1 POP DUP1 DUP3 GT ISZERO PUSH2 0x6D5 JUMPI PUSH2 0x6D4 PUSH2 0x67B JUMP JUMPDEST JUMPDEST SWAP3 SWAP2 POP POP JUMP JUMPDEST PUSH32 0x4E487B7100000000000000000000000000000000000000000000000000000000 PUSH0 MSTORE PUSH1 0x31 PUSH1 0x4 MSTORE PUSH1 0x24 PUSH0 REVERT JUMPDEST PUSH0 DUP3 DUP3 MSTORE PUSH1 0x20 DUP3 ADD SWAP1 POP SWAP3 SWAP2 POP POP JUMP JUMPDEST PUSH32 0x4E6F7420656E6F75676820646174610000000000000000000000000000000000 PUSH0 DUP3 ADD MSTORE POP JUMP JUMPDEST PUSH0 PUSH2 0x74C PUSH1 0xF DUP4 PUSH2 0x708 JUMP JUMPDEST SWAP2 POP PUSH2 0x757 DUP3 PUSH2 0x718 JUMP JUMPDEST PUSH1 0x20 DUP3 ADD SWAP1 POP SWAP2 SWAP1 POP JUMP JUMPDEST PUSH0 PUSH1 0x20 DUP3 ADD SWAP1 POP DUP2 DUP2 SUB PUSH0 DUP4 ADD MSTORE PUSH2 0x779 DUP2 PUSH2 0x740 JUMP JUMPDEST SWAP1 POP SWAP2 SWAP1 POP JUMP INVALID LOG2 PUSH5 0x6970667358 0x22 SLT KECCAK256 TSTORE DUP2 PUSH20 0x54235236BF0770FE6B07576A7C08835CCDB9B980 GASPRICE 0xD8 0x29 JUMP 0x29 PUSH22 0x29B32164736F6C634300081A00330000000000000000 "
		},
		"gasEstimates": {
			"creation": {
				"codeDepositCost": "394800",
				"executionCost": "428",
				"totalCost": "395228"
			},
			"external": {
				"addArray(uint256)": "46886",
				"addressArray(uint256)": "infinite",
				"muchArray(bytes,string)": "infinite",
				"sumArray(uint256[])": "infinite",
				"updateArray()": "31759"
			}
		},
		"methodIdentifiers": {
			"addArray(uint256)": "aa0a9171",
			"addressArray(uint256)": "0f96cf34",
			"muchArray(bytes,string)": "7e769fa3",
			"sumArray(uint256[])": "1e2aea06",
			"updateArray()": "3a3f45b7"
		}
	},
	"abi": [
		{
			"inputs": [
				{
					"internalType": "uint256",
					"name": "i",
					"type": "uint256"
				}
			],
			"name": "addArray",
			"outputs": [],
			"stateMutability": "nonpayable",
			"type": "function"
		},
		{
			"inputs": [
				{
					"internalType": "uint256",
					"name": "",
					"type": "uint256"
				}
			],
			"name": "addressArray",
			"outputs": [
				{
					"internalType": "uint256",
					"name": "",
					"type": "uint256"
				}
			],
			"stateMutability": "view",
			"type": "function"
		},
		{
			"inputs": [
				{
					"internalType": "bytes",
					"name": "_array",
					"type": "bytes"
				},
				{
					"internalType": "string",
					"name": "_string",
					"type": "string"
				}
			],
			"name": "muchArray",
			"outputs": [],
			"stateMutability": "nonpayable",
			"type": "function"
		},
		{
			"inputs": [
				{
					"internalType": "uint256[]",
					"name": "array",
					"type": "uint256[]"
				}
			],
			"name": "sumArray",
			"outputs": [
				{
					"internalType": "uint256",
					"name": "",
					"type": "uint256"
				}
			],
			"stateMutability": "view",
			"type": "function"
		},
		{
			"inputs": [],
			"name": "updateArray",
			"outputs": [
				{
					"internalType": "uint256",
					"name": "",
					"type": "uint256"
				}
			],
			"stateMutability": "nonpayable",
			"type": "function"
		}
	]
}