{
	"data": {
		"bytecode": {
			"linkReferences": {},
			"object": "6080604052604051600e906069565b604051809103905ff0801580156026573d5f5f3e3d5ffd5b505f5f6101000a81548173ffffffffffffffffffffffffffffffffffffffff021916908373ffffffffffffffffffffffffffffffffffffffff1602179055506076565b6101d4806106d283390190565b61064f806100835f395ff3fe608060405234801561000f575f5ffd5b5060043610610055575f3560e01c8063366a4a1e146100595780636085f0e9146100635780636fbac4b51461006d578063eb17881c14610077578063ff1a7bcf14610081575b5f5ffd5b61006161008b565b005b61006b6101de565b005b610075610331565b005b61007f610400565b005b61008961049b565b005b5f5f5f5f9054906101000a900473ffffffffffffffffffffffffffffffffffffffff1673ffffffffffffffffffffffffffffffffffffffff1660016040516024016040516020818303038152906040527f9f862ee2000000000000000000000000000000000000000000000000000000007bffffffffffffffffffffffffffffffffffffffffffffffffffffffff19166020820180517bffffffffffffffffffffffffffffffffffffffffffffffffffffffff83818316178352505050506040516101569190610554565b5f6040518083038185875af1925050503d805f8114610190576040519150601f19603f3d011682016040523d82523d5f602084013e610195565b606091505b5091509150816101da576040517f08c379a00000000000000000000000000000000000000000000000000000000081526004016101d1906105c4565b60405180910390fd5b5050565b5f5f5f5f9054906101000a900473ffffffffffffffffffffffffffffffffffffffff1673ffffffffffffffffffffffffffffffffffffffff1660016040516024016040516020818303038152906040527fc2985578000000000000000000000000000000000000000000000000000000007bffffffffffffffffffffffffffffffffffffffffffffffffffffffff19166020820180517bffffffffffffffffffffffffffffffffffffffffffffffffffffffff83818316178352505050506040516102a99190610554565b5f6040518083038185875af1925050503d805f81146102e3576040519150601f19603f3d011682016040523d82523d5f602084013e6102e8565b606091505b50915091508161032d576040517f08c379a0000000000000000000000000000000000000000000000000000000008152600401610324906105c4565b60405180910390fd5b5050565b5f5f5f5f9054906101000a900473ffffffffffffffffffffffffffffffffffffffff1673ffffffffffffffffffffffffffffffffffffffff16600160405161037890610605565b5f6040518083038185875af1925050503d805f81146103b2576040519150601f19603f3d011682016040523d82523d5f602084013e6103b7565b606091505b5091509150816103fc576040517f08c379a00000000000000000000000000000000000000000000000000000000081526004016103f3906105c4565b60405180910390fd5b5050565b5f5f5f9054906101000a900473ffffffffffffffffffffffffffffffffffffffff1673ffffffffffffffffffffffffffffffffffffffff166108fc600190811502906040515f60405180830381858888f19350505050905080610498576040517f08c379a000000000000000000000000000000000000000000000000000000000815260040161048f906105c4565b60405180910390fd5b50565b5f5f9054906101000a900473ffffffffffffffffffffffffffffffffffffffff1673ffffffffffffffffffffffffffffffffffffffff166108fc600190811502906040515f60405180830381858888f193505050501580156104ff573d5f5f3e3d5ffd5b50565b5f81519050919050565b5f81905092915050565b8281835e5f83830152505050565b5f61052e82610502565b610538818561050c565b9350610548818560208601610516565b80840191505092915050565b5f61055f8284610524565b915081905092915050565b5f82825260208201905092915050565b7f4661696c656420746f2073656e642045746865720000000000000000000000005f82015250565b5f6105ae60148361056a565b91506105b98261057a565b602082019050919050565b5f6020820190508181035f8301526105db816105a2565b9050919050565b50565b5f6105f05f8361050c565b91506105fb826105e2565b5f82019050919050565b5f61060f826105e5565b915081905091905056fea26469706673582212207bcbf4a7cdf92a7ae70094b353ad448faf9a4e164c90d071d32f5a428b9b404e64736f6c634300081d00336080604052348015600e575f5ffd5b506101b88061001c5f395ff3fe608060405260043610610021575f3560e01c8063c2985578146100615761005d565b3661005d577fac7c932dfed5a12f8cee69b87b1db28759f9abab0760d37031670980a55a2168604051610053906100fc565b60405180910390a1005b5f5ffd5b61006961006b565b005b7fac7c932dfed5a12f8cee69b87b1db28759f9abab0760d37031670980a55a216860405161009890610164565b60405180910390a1565b5f82825260208201905092915050565b7f74686973206973207265636569766500000000000000000000000000000000005f82015250565b5f6100e6600f836100a2565b91506100f1826100b2565b602082019050919050565b5f6020820190508181035f830152610113816100da565b9050919050565b7f7468697320697320666f6f0000000000000000000000000000000000000000005f82015250565b5f61014e600b836100a2565b91506101598261011a565b602082019050919050565b5f6020820190508181035f83015261017b81610142565b905091905056fea26469706673582212201afe12bbe9f90ebe32594ed1be74a8f6d7814643c5c7a45c7ef6d0cffcd2a81164736f6c634300081d0033",
			"opcodes": "PUSH1 0x80 PUSH1 0x40 MSTORE PUSH1 0x40 MLOAD PUSH1 0xE SWAP1 PUSH1 0x69 JUMP JUMPDEST PUSH1 0x40 MLOAD DUP1 SWAP2 SUB SWAP1 PUSH0 CREATE DUP1 ISZERO DUP1 ISZERO PUSH1 0x26 JUMPI RETURNDATASIZE PUSH0 PUSH0 RETURNDATACOPY RETURNDATASIZE PUSH0 REVERT JUMPDEST POP PUSH0 PUSH0 PUSH2 0x100 EXP DUP2 SLOAD DUP2 PUSH20 0xFFFFFFFFFFFFFFFFFFFFFFFFFFFFFFFFFFFFFFFF MUL NOT AND SWAP1 DUP4 PUSH20 0xFFFFFFFFFFFFFFFFFFFFFFFFFFFFFFFFFFFFFFFF AND MUL OR SWAP1 SSTORE POP PUSH1 0x76 JUMP JUMPDEST PUSH2 0x1D4 DUP1 PUSH2 0x6D2 DUP4 CODECOPY ADD SWAP1 JUMP JUMPDEST PUSH2 0x64F DUP1 PUSH2 0x83 PUSH0 CODECOPY PUSH0 RETURN INVALID PUSH1 0x80 PUSH1 0x40 MSTORE CALLVALUE DUP1 ISZERO PUSH2 0xF JUMPI PUSH0 PUSH0 REVERT JUMPDEST POP PUSH1 0x4 CALLDATASIZE LT PUSH2 0x55 JUMPI PUSH0 CALLDATALOAD PUSH1 0xE0 SHR DUP1 PUSH4 0x366A4A1E EQ PUSH2 0x59 JUMPI DUP1 PUSH4 0x6085F0E9 EQ PUSH2 0x63 JUMPI DUP1 PUSH4 0x6FBAC4B5 EQ PUSH2 0x6D JUMPI DUP1 PUSH4 0xEB17881C EQ PUSH2 0x77 JUMPI DUP1 PUSH4 0xFF1A7BCF EQ PUSH2 0x81 JUMPI JUMPDEST PUSH0 PUSH0 REVERT JUMPDEST PUSH2 0x61 PUSH2 0x8B JUMP JUMPDEST STOP JUMPDEST PUSH2 0x6B PUSH2 0x1DE JUMP JUMPDEST STOP JUMPDEST PUSH2 0x75 PUSH2 0x331 JUMP JUMPDEST STOP JUMPDEST PUSH2 0x7F PUSH2 0x400 JUMP JUMPDEST STOP JUMPDEST PUSH2 0x89 PUSH2 0x49B JUMP JUMPDEST STOP JUMPDEST PUSH0 PUSH0 PUSH0 PUSH0 SWAP1 SLOAD SWAP1 PUSH2 0x100 EXP SWAP1 DIV PUSH20 0xFFFFFFFFFFFFFFFFFFFFFFFFFFFFFFFFFFFFFFFF AND PUSH20 0xFFFFFFFFFFFFFFFFFFFFFFFFFFFFFFFFFFFFFFFF AND PUSH1 0x1 PUSH1 0x40 MLOAD PUSH1 0x24 ADD PUSH1 0x40 MLOAD PUSH1 0x20 DUP2 DUP4 SUB SUB DUP2 MSTORE SWAP1 PUSH1 0x40 MSTORE PUSH32 0x9F862EE200000000000000000000000000000000000000000000000000000000 PUSH28 0xFFFFFFFFFFFFFFFFFFFFFFFFFFFFFFFFFFFFFFFFFFFFFFFFFFFFFFFF NOT AND PUSH1 0x20 DUP3 ADD DUP1 MLOAD PUSH28 0xFFFFFFFFFFFFFFFFFFFFFFFFFFFFFFFFFFFFFFFFFFFFFFFFFFFFFFFF DUP4 DUP2 DUP4 AND OR DUP4 MSTORE POP POP POP POP PUSH1 0x40 MLOAD PUSH2 0x156 SWAP2 SWAP1 PUSH2 0x554 JUMP JUMPDEST PUSH0 PUSH1 0x40 MLOAD DUP1 DUP4 SUB DUP2 DUP6 DUP8 GAS CALL SWAP3 POP POP POP RETURNDATASIZE DUP1 PUSH0 DUP2 EQ PUSH2 0x190 JUMPI PUSH1 0x40 MLOAD SWAP2 POP PUSH1 0x1F NOT PUSH1 0x3F RETURNDATASIZE ADD AND DUP3 ADD PUSH1 0x40 MSTORE RETURNDATASIZE DUP3 MSTORE RETURNDATASIZE PUSH0 PUSH1 0x20 DUP5 ADD RETURNDATACOPY PUSH2 0x195 JUMP JUMPDEST PUSH1 0x60 SWAP2 POP JUMPDEST POP SWAP2 POP SWAP2 POP DUP2 PUSH2 0x1DA JUMPI PUSH1 0x40 MLOAD PUSH32 0x8C379A000000000000000000000000000000000000000000000000000000000 DUP2 MSTORE PUSH1 0x4 ADD PUSH2 0x1D1 SWAP1 PUSH2 0x5C4 JUMP JUMPDEST PUSH1 0x40 MLOAD DUP1 SWAP2 SUB SWAP1 REVERT JUMPDEST POP POP JUMP JUMPDEST PUSH0 PUSH0 PUSH0 PUSH0 SWAP1 SLOAD SWAP1 PUSH2 0x100 EXP SWAP1 DIV PUSH20 0xFFFFFFFFFFFFFFFFFFFFFFFFFFFFFFFFFFFFFFFF AND PUSH20 0xFFFFFFFFFFFFFFFFFFFFFFFFFFFFFFFFFFFFFFFF AND PUSH1 0x1 PUSH1 0x40 MLOAD PUSH1 0x24 ADD PUSH1 0x40 MLOAD PUSH1 0x20 DUP2 DUP4 SUB SUB DUP2 MSTORE SWAP1 PUSH1 0x40 MSTORE PUSH32 0xC298557800000000000000000000000000000000000000000000000000000000 PUSH28 0xFFFFFFFFFFFFFFFFFFFFFFFFFFFFFFFFFFFFFFFFFFFFFFFFFFFFFFFF NOT AND PUSH1 0x20 DUP3 ADD DUP1 MLOAD PUSH28 0xFFFFFFFFFFFFFFFFFFFFFFFFFFFFFFFFFFFFFFFFFFFFFFFFFFFFFFFF DUP4 DUP2 DUP4 AND OR DUP4 MSTORE POP POP POP POP PUSH1 0x40 MLOAD PUSH2 0x2A9 SWAP2 SWAP1 PUSH2 0x554 JUMP JUMPDEST PUSH0 PUSH1 0x40 MLOAD DUP1 DUP4 SUB DUP2 DUP6 DUP8 GAS CALL SWAP3 POP POP POP RETURNDATASIZE DUP1 PUSH0 DUP2 EQ PUSH2 0x2E3 JUMPI PUSH1 0x40 MLOAD SWAP2 POP PUSH1 0x1F NOT PUSH1 0x3F RETURNDATASIZE ADD AND DUP3 ADD PUSH1 0x40 MSTORE RETURNDATASIZE DUP3 MSTORE RETURNDATASIZE PUSH0 PUSH1 0x20 DUP5 ADD RETURNDATACOPY PUSH2 0x2E8 JUMP JUMPDEST PUSH1 0x60 SWAP2 POP JUMPDEST POP SWAP2 POP SWAP2 POP DUP2 PUSH2 0x32D JUMPI PUSH1 0x40 MLOAD PUSH32 0x8C379A000000000000000000000000000000000000000000000000000000000 DUP2 MSTORE PUSH1 0x4 ADD PUSH2 0x324 SWAP1 PUSH2 0x5C4 JUMP JUMPDEST PUSH1 0x40 MLOAD DUP1 SWAP2 SUB SWAP1 REVERT JUMPDEST POP POP JUMP JUMPDEST PUSH0 PUSH0 PUSH0 PUSH0 SWAP1 SLOAD SWAP1 PUSH2 0x100 EXP SWAP1 DIV PUSH20 0xFFFFFFFFFFFFFFFFFFFFFFFFFFFFFFFFFFFFFFFF AND PUSH20 0xFFFFFFFFFFFFFFFFFFFFFFFFFFFFFFFFFFFFFFFF AND PUSH1 0x1 PUSH1 0x40 MLOAD PUSH2 0x378 SWAP1 PUSH2 0x605 JUMP JUMPDEST PUSH0 PUSH1 0x40 MLOAD DUP1 DUP4 SUB DUP2 DUP6 DUP8 GAS CALL SWAP3 POP POP POP RETURNDATASIZE DUP1 PUSH0 DUP2 EQ PUSH2 0x3B2 JUMPI PUSH1 0x40 MLOAD SWAP2 POP PUSH1 0x1F NOT PUSH1 0x3F RETURNDATASIZE ADD AND DUP3 ADD PUSH1 0x40 MSTORE RETURNDATASIZE DUP3 MSTORE RETURNDATASIZE PUSH0 PUSH1 0x20 DUP5 ADD RETURNDATACOPY PUSH2 0x3B7 JUMP JUMPDEST PUSH1 0x60 SWAP2 POP JUMPDEST POP SWAP2 POP SWAP2 POP DUP2 PUSH2 0x3FC JUMPI PUSH1 0x40 MLOAD PUSH32 0x8C379A000000000000000000000000000000000000000000000000000000000 DUP2 MSTORE PUSH1 0x4 ADD PUSH2 0x3F3 SWAP1 PUSH2 0x5C4 JUMP JUMPDEST PUSH1 0x40 MLOAD DUP1 SWAP2 SUB SWAP1 REVERT JUMPDEST POP POP JUMP JUMPDEST PUSH0 PUSH0 PUSH0 SWAP1 SLOAD SWAP1 PUSH2 0x100 EXP SWAP1 DIV PUSH20 0xFFFFFFFFFFFFFFFFFFFFFFFFFFFFFFFFFFFFFFFF AND PUSH20 0xFFFFFFFFFFFFFFFFFFFFFFFFFFFFFFFFFFFFFFFF AND PUSH2 0x8FC PUSH1 0x1 SWAP1 DUP2 ISZERO MUL SWAP1 PUSH1 0x40 MLOAD PUSH0 PUSH1 0x40 MLOAD DUP1 DUP4 SUB DUP2 DUP6 DUP9 DUP9 CALL SWAP4 POP POP POP POP SWAP1 POP DUP1 PUSH2 0x498 JUMPI PUSH1 0x40 MLOAD PUSH32 0x8C379A000000000000000000000000000000000000000000000000000000000 DUP2 MSTORE PUSH1 0x4 ADD PUSH2 0x48F SWAP1 PUSH2 0x5C4 JUMP JUMPDEST PUSH1 0x40 MLOAD DUP1 SWAP2 SUB SWAP1 REVERT JUMPDEST POP JUMP JUMPDEST PUSH0 PUSH0 SWAP1 SLOAD SWAP1 PUSH2 0x100 EXP SWAP1 DIV PUSH20 0xFFFFFFFFFFFFFFFFFFFFFFFFFFFFFFFFFFFFFFFF AND PUSH20 0xFFFFFFFFFFFFFFFFFFFFFFFFFFFFFFFFFFFFFFFF AND PUSH2 0x8FC PUSH1 0x1 SWAP1 DUP2 ISZERO MUL SWAP1 PUSH1 0x40 MLOAD PUSH0 PUSH1 0x40 MLOAD DUP1 DUP4 SUB DUP2 DUP6 DUP9 DUP9 CALL SWAP4 POP POP POP POP ISZERO DUP1 ISZERO PUSH2 0x4FF JUMPI RETURNDATASIZE PUSH0 PUSH0 RETURNDATACOPY RETURNDATASIZE PUSH0 REVERT JUMPDEST POP JUMP JUMPDEST PUSH0 DUP2 MLOAD SWAP1 POP SWAP2 SWAP1 POP JUMP JUMPDEST PUSH0 DUP2 SWAP1 POP SWAP3 SWAP2 POP POP JUMP JUMPDEST DUP3 DUP2 DUP4 MCOPY PUSH0 DUP4 DUP4 ADD MSTORE POP POP POP JUMP JUMPDEST PUSH0 PUSH2 0x52E DUP3 PUSH2 0x502 JUMP JUMPDEST PUSH2 0x538 DUP2 DUP6 PUSH2 0x50C JUMP JUMPDEST SWAP4 POP PUSH2 0x548 DUP2 DUP6 PUSH1 0x20 DUP7 ADD PUSH2 0x516 JUMP JUMPDEST DUP1 DUP5 ADD SWAP2 POP POP SWAP3 SWAP2 POP POP JUMP JUMPDEST PUSH0 PUSH2 0x55F DUP3 DUP5 PUSH2 0x524 JUMP JUMPDEST SWAP2 POP DUP2 SWAP1 POP SWAP3 SWAP2 POP POP JUMP JUMPDEST PUSH0 DUP3 DUP3 MSTORE PUSH1 0x20 DUP3 ADD SWAP1 POP SWAP3 SWAP2 POP POP JUMP JUMPDEST PUSH32 0x4661696C656420746F2073656E64204574686572000000000000000000000000 PUSH0 DUP3 ADD MSTORE POP JUMP JUMPDEST PUSH0 PUSH2 0x5AE PUSH1 0x14 DUP4 PUSH2 0x56A JUMP JUMPDEST SWAP2 POP PUSH2 0x5B9 DUP3 PUSH2 0x57A JUMP JUMPDEST PUSH1 0x20 DUP3 ADD SWAP1 POP SWAP2 SWAP1 POP JUMP JUMPDEST PUSH0 PUSH1 0x20 DUP3 ADD SWAP1 POP DUP2 DUP2 SUB PUSH0 DUP4 ADD MSTORE PUSH2 0x5DB DUP2 PUSH2 0x5A2 JUMP JUMPDEST SWAP1 POP SWAP2 SWAP1 POP JUMP JUMPDEST POP JUMP JUMPDEST PUSH0 PUSH2 0x5F0 PUSH0 DUP4 PUSH2 0x50C JUMP JUMPDEST SWAP2 POP PUSH2 0x5FB DUP3 PUSH2 0x5E2 JUMP JUMPDEST PUSH0 DUP3 ADD SWAP1 POP SWAP2 SWAP1 POP JUMP JUMPDEST PUSH0 PUSH2 0x60F DUP3 PUSH2 0x5E5 JUMP JUMPDEST SWAP2 POP DUP2 SWAP1 POP SWAP2 SWAP1 POP JUMP INVALID LOG2 PUSH5 0x6970667358 0x22 SLT KECCAK256 PUSH28 0xCBF4A7CDF92A7AE70094B353AD448FAF9A4E164C90D071D32F5A428B SWAP12 BLOCKHASH 0x4E PUSH5 0x736F6C6343 STOP ADDMOD SAR STOP CALLER PUSH1 0x80 PUSH1 0x40 MSTORE CALLVALUE DUP1 ISZERO PUSH1 0xE JUMPI PUSH0 PUSH0 REVERT JUMPDEST POP PUSH2 0x1B8 DUP1 PUSH2 0x1C PUSH0 CODECOPY PUSH0 RETURN INVALID PUSH1 0x80 PUSH1 0x40 MSTORE PUSH1 0x4 CALLDATASIZE LT PUSH2 0x21 JUMPI PUSH0 CALLDATALOAD PUSH1 0xE0 SHR DUP1 PUSH4 0xC2985578 EQ PUSH2 0x61 JUMPI PUSH2 0x5D JUMP JUMPDEST CALLDATASIZE PUSH2 0x5D JUMPI PUSH32 0xAC7C932DFED5A12F8CEE69B87B1DB28759F9ABAB0760D37031670980A55A2168 PUSH1 0x40 MLOAD PUSH2 0x53 SWAP1 PUSH2 0xFC JUMP JUMPDEST PUSH1 0x40 MLOAD DUP1 SWAP2 SUB SWAP1 LOG1 STOP JUMPDEST PUSH0 PUSH0 REVERT JUMPDEST PUSH2 0x69 PUSH2 0x6B JUMP JUMPDEST STOP JUMPDEST PUSH32 0xAC7C932DFED5A12F8CEE69B87B1DB28759F9ABAB0760D37031670980A55A2168 PUSH1 0x40 MLOAD PUSH2 0x98 SWAP1 PUSH2 0x164 JUMP JUMPDEST PUSH1 0x40 MLOAD DUP1 SWAP2 SUB SWAP1 LOG1 JUMP JUMPDEST PUSH0 DUP3 DUP3 MSTORE PUSH1 0x20 DUP3 ADD SWAP1 POP SWAP3 SWAP2 POP POP JUMP JUMPDEST PUSH32 0x7468697320697320726563656976650000000000000000000000000000000000 PUSH0 DUP3 ADD MSTORE POP JUMP JUMPDEST PUSH0 PUSH2 0xE6 PUSH1 0xF DUP4 PUSH2 0xA2 JUMP JUMPDEST SWAP2 POP PUSH2 0xF1 DUP3 PUSH2 0xB2 JUMP JUMPDEST PUSH1 0x20 DUP3 ADD SWAP1 POP SWAP2 SWAP1 POP JUMP JUMPDEST PUSH0 PUSH1 0x20 DUP3 ADD SWAP1 POP DUP2 DUP2 SUB PUSH0 DUP4 ADD MSTORE PUSH2 0x113 DUP2 PUSH2 0xDA JUMP JUMPDEST SWAP1 POP SWAP2 SWAP1 POP JUMP JUMPDEST PUSH32 0x7468697320697320666F6F000000000000000000000000000000000000000000 PUSH0 DUP3 ADD MSTORE POP JUMP JUMPDEST PUSH0 PUSH2 0x14E PUSH1 0xB DUP4 PUSH2 0xA2 JUMP JUMPDEST SWAP2 POP PUSH2 0x159 DUP3 PUSH2 0x11A JUMP JUMPDEST PUSH1 0x20 DUP3 ADD SWAP1 POP SWAP2 SWAP1 POP JUMP JUMPDEST PUSH0 PUSH1 0x20 DUP3 ADD SWAP1 POP DUP2 DUP2 SUB PUSH0 DUP4 ADD MSTORE PUSH2 0x17B DUP2 PUSH2 0x142 JUMP JUMPDEST SWAP1 POP SWAP2 SWAP1 POP JUMP INVALID LOG2 PUSH5 0x6970667358 0x22 SLT KECCAK256 BYTE INVALID SLT 0xBB 0xE9 EXTDELEGATECALL 0xE 0xBE ORIGIN MSIZE 0x4E DATALOADN 0xBE74 0xA8 0xF6 0xD7 DUP2 CHAINID NUMBER 0xC5 0xC7 LOG4 TLOAD PUSH31 0xF6D0CFFCD2A81164736F6C634300081D003300000000000000000000000000 "
		},
		"gasEstimates": {
			"creation": {
				"codeDepositCost": "323000",
				"executionCost": "infinite",
				"totalCost": "infinite"
			},
			"external": {
				"callFallback()": "infinite",
				"callFoo()": "infinite",
				"callReceive()": "infinite",
				"sendReceive()": "infinite",
				"transferReceive()": "infinite"
			}
		},
		"methodIdentifiers": {
			"callFallback()": "366a4a1e",
			"callFoo()": "6085f0e9",
			"callReceive()": "6fbac4b5",
			"sendReceive()": "eb17881c",
			"transferReceive()": "ff1a7bcf"
		}
	},
	"abi": [
		{
			"inputs": [],
			"stateMutability": "payable",
			"type": "constructor"
		},
		{
			"inputs": [],
			"name": "callFallback",
			"outputs": [],
			"stateMutability": "nonpayable",
			"type": "function"
		},
		{
			"inputs": [],
			"name": "callFoo",
			"outputs": [],
			"stateMutability": "nonpayable",
			"type": "function"
		},
		{
			"inputs": [],
			"name": "callReceive",
			"outputs": [],
			"stateMutability": "nonpayable",
			"type": "function"
		},
		{
			"inputs": [],
			"name": "sendReceive",
			"outputs": [],
			"stateMutability": "nonpayable",
			"type": "function"
		},
		{
			"inputs": [],
			"name": "transferReceive",
			"outputs": [],
			"stateMutability": "nonpayable",
			"type": "function"
		}
	]
}