{
	"data": {
		"bytecode": {
			"linkReferences": {},
			"object": "6080604052612710600655348015610015575f5ffd5b50604051612335380380612335833981810160405281019061003791906101ae565b8181815f90816100479190610434565b5080600190816100579190610434565b5050505050610503565b5f604051905090565b5f5ffd5b5f5ffd5b5f5ffd5b5f5ffd5b5f601f19601f8301169050919050565b7f4e487b71000000000000000000000000000000000000000000000000000000005f52604160045260245ffd5b6100c08261007a565b810181811067ffffffffffffffff821117156100df576100de61008a565b5b80604052505050565b5f6100f1610061565b90506100fd82826100b7565b919050565b5f67ffffffffffffffff82111561011c5761011b61008a565b5b6101258261007a565b9050602081019050919050565b8281835e5f83830152505050565b5f61015261014d84610102565b6100e8565b90508281526020810184848401111561016e5761016d610076565b5b610179848285610132565b509392505050565b5f82601f83011261019557610194610072565b5b81516101a5848260208601610140565b91505092915050565b5f5f604083850312156101c4576101c361006a565b5b5f83015167ffffffffffffffff8111156101e1576101e061006e565b5b6101ed85828601610181565b925050602083015167ffffffffffffffff81111561020e5761020d61006e565b5b61021a85828601610181565b9150509250929050565b5f81519050919050565b7f4e487b71000000000000000000000000000000000000000000000000000000005f52602260045260245ffd5b5f600282049050600182168061027257607f821691505b6020821081036102855761028461022e565b5b50919050565b5f819050815f5260205f209050919050565b5f6020601f8301049050919050565b5f82821b905092915050565b5f600883026102e77fffffffffffffffffffffffffffffffffffffffffffffffffffffffffffffffff826102ac565b6102f186836102ac565b95508019841693508086168417925050509392505050565b5f819050919050565b5f819050919050565b5f61033561033061032b84610309565b610312565b610309565b9050919050565b5f819050919050565b61034e8361031b565b61036261035a8261033c565b8484546102b8565b825550505050565b5f5f905090565b61037961036a565b610384818484610345565b505050565b5b818110156103a75761039c5f82610371565b60018101905061038a565b5050565b601f8211156103ec576103bd8161028b565b6103c68461029d565b810160208510156103d5578190505b6103e96103e18561029d565b830182610389565b50505b505050565b5f82821c905092915050565b5f61040c5f19846008026103f1565b1980831691505092915050565b5f61042483836103fd565b9150826002028217905092915050565b61043d82610224565b67ffffffffffffffff8111156104565761045561008a565b5b610460825461025b565b61046b8282856103ab565b5f60209050601f83116001811461049c575f841561048a578287015190505b6104948582610419565b8655506104fb565b601f1984166104aa8661028b565b5f5b828110156104d1578489015182556001820191506020850194506020810190506104ac565b868310156104ee57848901516104ea601f8916826103fd565b8355505b6001600288020188555050505b505050505050565b611e25806105105f395ff3fe608060405234801561000f575f5ffd5b50600436106100f3575f3560e01c80636352211e11610095578063b88d4fde11610064578063b88d4fde1461027f578063bb8a16bd1461029b578063c87b56dd146102b9578063e985e9c5146102e9576100f3565b80636352211e146101e557806370a082311461021557806395d89b4114610245578063a22cb46514610263576100f3565b8063095ea7b3116100d1578063095ea7b31461017557806323b872dd1461019157806340c10f19146101ad57806342842e0e146101c9576100f3565b806301ffc9a7146100f757806306fdde0314610127578063081812fc14610145575b5f5ffd5b610111600480360381019061010c9190611632565b610319565b60405161011e9190611677565b60405180910390f35b61012f6103fa565b60405161013c9190611700565b60405180910390f35b61015f600480360381019061015a9190611753565b610489565b60405161016c91906117bd565b60405180910390f35b61018f600480360381019061018a9190611800565b6104a4565b005b6101ab60048036038101906101a6919061183e565b6104ba565b005b6101c760048036038101906101c29190611800565b6105b9565b005b6101e360048036038101906101de919061183e565b610617565b005b6101ff60048036038101906101fa9190611753565b610636565b60405161020c91906117bd565b60405180910390f35b61022f600480360381019061022a919061188e565b610647565b60405161023c91906118c8565b60405180910390f35b61024d6106fd565b60405161025a9190611700565b60405180910390f35b61027d6004803603810190610278919061190b565b61078d565b005b61029960048036038101906102949190611a75565b6107a3565b005b6102a36107c8565b6040516102b091906118c8565b60405180910390f35b6102d360048036038101906102ce9190611753565b6107ce565b6040516102e09190611700565b60405180910390f35b61030360048036038101906102fe9190611af5565b610834565b6040516103109190611677565b60405180910390f35b5f7f80ac58cd000000000000000000000000000000000000000000000000000000007bffffffffffffffffffffffffffffffffffffffffffffffffffffffff1916827bffffffffffffffffffffffffffffffffffffffffffffffffffffffff191614806103e357507f5b5e139f000000000000000000000000000000000000000000000000000000007bffffffffffffffffffffffffffffffffffffffffffffffffffffffff1916827bffffffffffffffffffffffffffffffffffffffffffffffffffffffff1916145b806103f357506103f2826108c2565b5b9050919050565b60605f805461040890611b60565b80601f016020809104026020016040519081016040528092919081815260200182805461043490611b60565b801561047f5780601f106104565761010080835404028352916020019161047f565b820191905f5260205f20905b81548152906001019060200180831161046257829003601f168201915b5050505050905090565b5f6104938261092b565b5061049d826109b1565b9050919050565b6104b682826104b16109ea565b6109f1565b5050565b5f73ffffffffffffffffffffffffffffffffffffffff168273ffffffffffffffffffffffffffffffffffffffff160361052a575f6040517f64a0ae9200000000000000000000000000000000000000000000000000000000815260040161052191906117bd565b60405180910390fd5b5f61053d83836105386109ea565b610a03565b90508373ffffffffffffffffffffffffffffffffffffffff168173ffffffffffffffffffffffffffffffffffffffff16146105b3578382826040517f64283d7b0000000000000000000000000000000000000000000000000000000081526004016105aa93929190611b90565b60405180910390fd5b50505050565b5f81101580156105ca575060065481105b610609576040517f08c379a000000000000000000000000000000000000000000000000000000000815260040161060090611c0f565b60405180910390fd5b6106138282610c0e565b5050565b61063183838360405180602001604052805f8152506107a3565b505050565b5f6106408261092b565b9050919050565b5f5f73ffffffffffffffffffffffffffffffffffffffff168273ffffffffffffffffffffffffffffffffffffffff16036106b8575f6040517f89c62b640000000000000000000000000000000000000000000000000000000081526004016106af91906117bd565b60405180910390fd5b60035f8373ffffffffffffffffffffffffffffffffffffffff1673ffffffffffffffffffffffffffffffffffffffff1681526020019081526020015f20549050919050565b60606001805461070c90611b60565b80601f016020809104026020016040519081016040528092919081815260200182805461073890611b60565b80156107835780601f1061075a57610100808354040283529160200191610783565b820191905f5260205f20905b81548152906001019060200180831161076657829003601f168201915b5050505050905090565b61079f6107986109ea565b8383610d01565b5050565b6107ae8484846104ba565b6107c26107b96109ea565b85858585610e6a565b50505050565b60065481565b60606107d98261092b565b505f6107e3611016565b90505f8151116108015760405180602001604052805f81525061082c565b8061080b84611036565b60405160200161081c929190611c67565b6040516020818303038152906040525b915050919050565b5f60055f8473ffffffffffffffffffffffffffffffffffffffff1673ffffffffffffffffffffffffffffffffffffffff1681526020019081526020015f205f8373ffffffffffffffffffffffffffffffffffffffff1673ffffffffffffffffffffffffffffffffffffffff1681526020019081526020015f205f9054906101000a900460ff16905092915050565b5f7f01ffc9a7000000000000000000000000000000000000000000000000000000007bffffffffffffffffffffffffffffffffffffffffffffffffffffffff1916827bffffffffffffffffffffffffffffffffffffffffffffffffffffffff1916149050919050565b5f5f61093683611100565b90505f73ffffffffffffffffffffffffffffffffffffffff168173ffffffffffffffffffffffffffffffffffffffff16036109a857826040517f7e27328900000000000000000000000000000000000000000000000000000000815260040161099f91906118c8565b60405180910390fd5b80915050919050565b5f60045f8381526020019081526020015f205f9054906101000a900473ffffffffffffffffffffffffffffffffffffffff169050919050565b5f33905090565b6109fe8383836001611139565b505050565b5f5f610a0e84611100565b90505f73ffffffffffffffffffffffffffffffffffffffff168373ffffffffffffffffffffffffffffffffffffffff1614610a4f57610a4e8184866112f8565b5b5f73ffffffffffffffffffffffffffffffffffffffff168173ffffffffffffffffffffffffffffffffffffffff1614610ada57610a8e5f855f5f611139565b600160035f8373ffffffffffffffffffffffffffffffffffffffff1673ffffffffffffffffffffffffffffffffffffffff1681526020019081526020015f205f82825403925050819055505b5f73ffffffffffffffffffffffffffffffffffffffff168573ffffffffffffffffffffffffffffffffffffffff1614610b5957600160035f8773ffffffffffffffffffffffffffffffffffffffff1673ffffffffffffffffffffffffffffffffffffffff1681526020019081526020015f205f82825401925050819055505b8460025f8681526020019081526020015f205f6101000a81548173ffffffffffffffffffffffffffffffffffffffff021916908373ffffffffffffffffffffffffffffffffffffffff160217905550838573ffffffffffffffffffffffffffffffffffffffff168273ffffffffffffffffffffffffffffffffffffffff167fddf252ad1be2c89b69c2b068fc378daa952ba7f163c4a11628f55a4df523b3ef60405160405180910390a4809150509392505050565b5f73ffffffffffffffffffffffffffffffffffffffff168273ffffffffffffffffffffffffffffffffffffffff1603610c7e575f6040517f64a0ae92000000000000000000000000000000000000000000000000000000008152600401610c7591906117bd565b60405180910390fd5b5f610c8a83835f610a03565b90505f73ffffffffffffffffffffffffffffffffffffffff168173ffffffffffffffffffffffffffffffffffffffff1614610cfc575f6040517f73c6ac6e000000000000000000000000000000000000000000000000000000008152600401610cf391906117bd565b60405180910390fd5b505050565b5f73ffffffffffffffffffffffffffffffffffffffff168273ffffffffffffffffffffffffffffffffffffffff1603610d7157816040517f5b08ba18000000000000000000000000000000000000000000000000000000008152600401610d6891906117bd565b60405180910390fd5b8060055f8573ffffffffffffffffffffffffffffffffffffffff1673ffffffffffffffffffffffffffffffffffffffff1681526020019081526020015f205f8473ffffffffffffffffffffffffffffffffffffffff1673ffffffffffffffffffffffffffffffffffffffff1681526020019081526020015f205f6101000a81548160ff0219169083151502179055508173ffffffffffffffffffffffffffffffffffffffff168373ffffffffffffffffffffffffffffffffffffffff167f17307eab39ab6107e8899845ad3d59bd9653f200f220920489ca2b5937696c3183604051610e5d9190611677565b60405180910390a3505050565b5f8373ffffffffffffffffffffffffffffffffffffffff163b111561100f578273ffffffffffffffffffffffffffffffffffffffff1663150b7a02868685856040518563ffffffff1660e01b8152600401610ec89493929190611cdc565b6020604051808303815f875af1925050508015610f0357506040513d601f19601f82011682018060405250810190610f009190611d3a565b60015b610f84573d805f8114610f31576040519150601f19603f3d011682016040523d82523d5f602084013e610f36565b606091505b505f815103610f7c57836040517f64a0ae92000000000000000000000000000000000000000000000000000000008152600401610f7391906117bd565b60405180910390fd5b805181602001fd5b63150b7a0260e01b7bffffffffffffffffffffffffffffffffffffffffffffffffffffffff1916817bffffffffffffffffffffffffffffffffffffffffffffffffffffffff19161461100d57836040517f64a0ae9200000000000000000000000000000000000000000000000000000000815260040161100491906117bd565b60405180910390fd5b505b5050505050565b6060604051806060016040528060368152602001611dba60369139905090565b60605f6001611044846113bb565b0190505f8167ffffffffffffffff81111561106257611061611951565b5b6040519080825280601f01601f1916602001820160405280156110945781602001600182028036833780820191505090505b5090505f82602001820190505b6001156110f5578080600190039150507f3031323334353637383961626364656600000000000000000000000000000000600a86061a8153600a85816110ea576110e9611d65565b5b0494505f85036110a1575b819350505050919050565b5f60025f8381526020019081526020015f205f9054906101000a900473ffffffffffffffffffffffffffffffffffffffff169050919050565b808061117157505f73ffffffffffffffffffffffffffffffffffffffff168273ffffffffffffffffffffffffffffffffffffffff1614155b156112a3575f6111808461092b565b90505f73ffffffffffffffffffffffffffffffffffffffff168373ffffffffffffffffffffffffffffffffffffffff16141580156111ea57508273ffffffffffffffffffffffffffffffffffffffff168173ffffffffffffffffffffffffffffffffffffffff1614155b80156111fd57506111fb8184610834565b155b1561123f57826040517fa9fbf51f00000000000000000000000000000000000000000000000000000000815260040161123691906117bd565b60405180910390fd5b81156112a157838573ffffffffffffffffffffffffffffffffffffffff168273ffffffffffffffffffffffffffffffffffffffff167f8c5be1e5ebec7d5bd14f71427d1e84f3dd0314c0f7b2291e5b200ac8c7c3b92560405160405180910390a45b505b8360045f8581526020019081526020015f205f6101000a81548173ffffffffffffffffffffffffffffffffffffffff021916908373ffffffffffffffffffffffffffffffffffffffff16021790555050505050565b61130383838361150c565b6113b6575f73ffffffffffffffffffffffffffffffffffffffff168373ffffffffffffffffffffffffffffffffffffffff160361137757806040517f7e27328900000000000000000000000000000000000000000000000000000000815260040161136e91906118c8565b60405180910390fd5b81816040517f177e802f0000000000000000000000000000000000000000000000000000000081526004016113ad929190611d92565b60405180910390fd5b505050565b5f5f5f90507a184f03e93ff9f4daa797ed6e38ed64bf6a1f0100000000000000008310611417577a184f03e93ff9f4daa797ed6e38ed64bf6a1f010000000000000000838161140d5761140c611d65565b5b0492506040810190505b6d04ee2d6d415b85acef81000000008310611454576d04ee2d6d415b85acef8100000000838161144a57611449611d65565b5b0492506020810190505b662386f26fc10000831061148357662386f26fc10000838161147957611478611d65565b5b0492506010810190505b6305f5e10083106114ac576305f5e10083816114a2576114a1611d65565b5b0492506008810190505b61271083106114d15761271083816114c7576114c6611d65565b5b0492506004810190505b606483106114f457606483816114ea576114e9611d65565b5b0492506002810190505b600a8310611503576001810190505b80915050919050565b5f5f73ffffffffffffffffffffffffffffffffffffffff168373ffffffffffffffffffffffffffffffffffffffff16141580156115c357508273ffffffffffffffffffffffffffffffffffffffff168473ffffffffffffffffffffffffffffffffffffffff16148061158457506115838484610834565b5b806115c257508273ffffffffffffffffffffffffffffffffffffffff166115aa836109b1565b73ffffffffffffffffffffffffffffffffffffffff16145b5b90509392505050565b5f604051905090565b5f5ffd5b5f5ffd5b5f7fffffffff0000000000000000000000000000000000000000000000000000000082169050919050565b611611816115dd565b811461161b575f5ffd5b50565b5f8135905061162c81611608565b92915050565b5f60208284031215611647576116466115d5565b5b5f6116548482850161161e565b91505092915050565b5f8115159050919050565b6116718161165d565b82525050565b5f60208201905061168a5f830184611668565b92915050565b5f81519050919050565b5f82825260208201905092915050565b8281835e5f83830152505050565b5f601f19601f8301169050919050565b5f6116d282611690565b6116dc818561169a565b93506116ec8185602086016116aa565b6116f5816116b8565b840191505092915050565b5f6020820190508181035f83015261171881846116c8565b905092915050565b5f819050919050565b61173281611720565b811461173c575f5ffd5b50565b5f8135905061174d81611729565b92915050565b5f60208284031215611768576117676115d5565b5b5f6117758482850161173f565b91505092915050565b5f73ffffffffffffffffffffffffffffffffffffffff82169050919050565b5f6117a78261177e565b9050919050565b6117b78161179d565b82525050565b5f6020820190506117d05f8301846117ae565b92915050565b6117df8161179d565b81146117e9575f5ffd5b50565b5f813590506117fa816117d6565b92915050565b5f5f60408385031215611816576118156115d5565b5b5f611823858286016117ec565b92505060206118348582860161173f565b9150509250929050565b5f5f5f60608486031215611855576118546115d5565b5b5f611862868287016117ec565b9350506020611873868287016117ec565b92505060406118848682870161173f565b9150509250925092565b5f602082840312156118a3576118a26115d5565b5b5f6118b0848285016117ec565b91505092915050565b6118c281611720565b82525050565b5f6020820190506118db5f8301846118b9565b92915050565b6118ea8161165d565b81146118f4575f5ffd5b50565b5f81359050611905816118e1565b92915050565b5f5f60408385031215611921576119206115d5565b5b5f61192e858286016117ec565b925050602061193f858286016118f7565b9150509250929050565b5f5ffd5b5f5ffd5b7f4e487b71000000000000000000000000000000000000000000000000000000005f52604160045260245ffd5b611987826116b8565b810181811067ffffffffffffffff821117156119a6576119a5611951565b5b80604052505050565b5f6119b86115cc565b90506119c4828261197e565b919050565b5f67ffffffffffffffff8211156119e3576119e2611951565b5b6119ec826116b8565b9050602081019050919050565b828183375f83830152505050565b5f611a19611a14846119c9565b6119af565b905082815260208101848484011115611a3557611a3461194d565b5b611a408482856119f9565b509392505050565b5f82601f830112611a5c57611a5b611949565b5b8135611a6c848260208601611a07565b91505092915050565b5f5f5f5f60808587031215611a8d57611a8c6115d5565b5b5f611a9a878288016117ec565b9450506020611aab878288016117ec565b9350506040611abc8782880161173f565b925050606085013567ffffffffffffffff811115611add57611adc6115d9565b5b611ae987828801611a48565b91505092959194509250565b5f5f60408385031215611b0b57611b0a6115d5565b5b5f611b18858286016117ec565b9250506020611b29858286016117ec565b9150509250929050565b7f4e487b71000000000000000000000000000000000000000000000000000000005f52602260045260245ffd5b5f6002820490506001821680611b7757607f821691505b602082108103611b8a57611b89611b33565b5b50919050565b5f606082019050611ba35f8301866117ae565b611bb060208301856118b9565b611bbd60408301846117ae565b949350505050565b7f746f6b656e4964206f7574206f662072616e67650000000000000000000000005f82015250565b5f611bf960148361169a565b9150611c0482611bc5565b602082019050919050565b5f6020820190508181035f830152611c2681611bed565b9050919050565b5f81905092915050565b5f611c4182611690565b611c4b8185611c2d565b9350611c5b8185602086016116aa565b80840191505092915050565b5f611c728285611c37565b9150611c7e8284611c37565b91508190509392505050565b5f81519050919050565b5f82825260208201905092915050565b5f611cae82611c8a565b611cb88185611c94565b9350611cc88185602086016116aa565b611cd1816116b8565b840191505092915050565b5f608082019050611cef5f8301876117ae565b611cfc60208301866117ae565b611d0960408301856118b9565b8181036060830152611d1b8184611ca4565b905095945050505050565b5f81519050611d3481611608565b92915050565b5f60208284031215611d4f57611d4e6115d5565b5b5f611d5c84828501611d26565b91505092915050565b7f4e487b71000000000000000000000000000000000000000000000000000000005f52601260045260245ffd5b5f604082019050611da55f8301856117ae565b611db260208301846118b9565b939250505056fe697066733a2f2f516d65536a53696e4870506e6d586d73704d6a776958794e367a533445397a63636172694752336a7863615774712fa26469706673582212200099e3f05a45073cdfa7775737edf236d0f89a6856941ede678b395f2715ecf164736f6c634300081d0033",
			"opcodes": "PUSH1 0x80 PUSH1 0x40 MSTORE PUSH2 0x2710 PUSH1 0x6 SSTORE CALLVALUE DUP1 ISZERO PUSH2 0x15 JUMPI PUSH0 PUSH0 REVERT JUMPDEST POP PUSH1 0x40 MLOAD PUSH2 0x2335 CODESIZE SUB DUP1 PUSH2 0x2335 DUP4 CODECOPY DUP2 DUP2 ADD PUSH1 0x40 MSTORE DUP2 ADD SWAP1 PUSH2 0x37 SWAP2 SWAP1 PUSH2 0x1AE JUMP JUMPDEST DUP2 DUP2 DUP2 PUSH0 SWAP1 DUP2 PUSH2 0x47 SWAP2 SWAP1 PUSH2 0x434 JUMP JUMPDEST POP DUP1 PUSH1 0x1 SWAP1 DUP2 PUSH2 0x57 SWAP2 SWAP1 PUSH2 0x434 JUMP JUMPDEST POP POP POP POP POP PUSH2 0x503 JUMP JUMPDEST PUSH0 PUSH1 0x40 MLOAD SWAP1 POP SWAP1 JUMP JUMPDEST PUSH0 PUSH0 REVERT JUMPDEST PUSH0 PUSH0 REVERT JUMPDEST PUSH0 PUSH0 REVERT JUMPDEST PUSH0 PUSH0 REVERT JUMPDEST PUSH0 PUSH1 0x1F NOT PUSH1 0x1F DUP4 ADD AND SWAP1 POP SWAP2 SWAP1 POP JUMP JUMPDEST PUSH32 0x4E487B7100000000000000000000000000000000000000000000000000000000 PUSH0 MSTORE PUSH1 0x41 PUSH1 0x4 MSTORE PUSH1 0x24 PUSH0 REVERT JUMPDEST PUSH2 0xC0 DUP3 PUSH2 0x7A JUMP JUMPDEST DUP2 ADD DUP2 DUP2 LT PUSH8 0xFFFFFFFFFFFFFFFF DUP3 GT OR ISZERO PUSH2 0xDF JUMPI PUSH2 0xDE PUSH2 0x8A JUMP JUMPDEST JUMPDEST DUP1 PUSH1 0x40 MSTORE POP POP POP JUMP JUMPDEST PUSH0 PUSH2 0xF1 PUSH2 0x61 JUMP JUMPDEST SWAP1 POP PUSH2 0xFD DUP3 DUP3 PUSH2 0xB7 JUMP JUMPDEST SWAP2 SWAP1 POP JUMP JUMPDEST PUSH0 PUSH8 0xFFFFFFFFFFFFFFFF DUP3 GT ISZERO PUSH2 0x11C JUMPI PUSH2 0x11B PUSH2 0x8A JUMP JUMPDEST JUMPDEST PUSH2 0x125 DUP3 PUSH2 0x7A JUMP JUMPDEST SWAP1 POP PUSH1 0x20 DUP2 ADD SWAP1 POP SWAP2 SWAP1 POP JUMP JUMPDEST DUP3 DUP2 DUP4 MCOPY PUSH0 DUP4 DUP4 ADD MSTORE POP POP POP JUMP JUMPDEST PUSH0 PUSH2 0x152 PUSH2 0x14D DUP5 PUSH2 0x102 JUMP JUMPDEST PUSH2 0xE8 JUMP JUMPDEST SWAP1 POP DUP3 DUP2 MSTORE PUSH1 0x20 DUP2 ADD DUP5 DUP5 DUP5 ADD GT ISZERO PUSH2 0x16E JUMPI PUSH2 0x16D PUSH2 0x76 JUMP JUMPDEST JUMPDEST PUSH2 0x179 DUP5 DUP3 DUP6 PUSH2 0x132 JUMP JUMPDEST POP SWAP4 SWAP3 POP POP POP JUMP JUMPDEST PUSH0 DUP3 PUSH1 0x1F DUP4 ADD SLT PUSH2 0x195 JUMPI PUSH2 0x194 PUSH2 0x72 JUMP JUMPDEST JUMPDEST DUP2 MLOAD PUSH2 0x1A5 DUP5 DUP3 PUSH1 0x20 DUP7 ADD PUSH2 0x140 JUMP JUMPDEST SWAP2 POP POP SWAP3 SWAP2 POP POP JUMP JUMPDEST PUSH0 PUSH0 PUSH1 0x40 DUP4 DUP6 SUB SLT ISZERO PUSH2 0x1C4 JUMPI PUSH2 0x1C3 PUSH2 0x6A JUMP JUMPDEST JUMPDEST PUSH0 DUP4 ADD MLOAD PUSH8 0xFFFFFFFFFFFFFFFF DUP2 GT ISZERO PUSH2 0x1E1 JUMPI PUSH2 0x1E0 PUSH2 0x6E JUMP JUMPDEST JUMPDEST PUSH2 0x1ED DUP6 DUP3 DUP7 ADD PUSH2 0x181 JUMP JUMPDEST SWAP3 POP POP PUSH1 0x20 DUP4 ADD MLOAD PUSH8 0xFFFFFFFFFFFFFFFF DUP2 GT ISZERO PUSH2 0x20E JUMPI PUSH2 0x20D PUSH2 0x6E JUMP JUMPDEST JUMPDEST PUSH2 0x21A DUP6 DUP3 DUP7 ADD PUSH2 0x181 JUMP JUMPDEST SWAP2 POP POP SWAP3 POP SWAP3 SWAP1 POP JUMP JUMPDEST PUSH0 DUP2 MLOAD SWAP1 POP SWAP2 SWAP1 POP JUMP JUMPDEST PUSH32 0x4E487B7100000000000000000000000000000000000000000000000000000000 PUSH0 MSTORE PUSH1 0x22 PUSH1 0x4 MSTORE PUSH1 0x24 PUSH0 REVERT JUMPDEST PUSH0 PUSH1 0x2 DUP3 DIV SWAP1 POP PUSH1 0x1 DUP3 AND DUP1 PUSH2 0x272 JUMPI PUSH1 0x7F DUP3 AND SWAP2 POP JUMPDEST PUSH1 0x20 DUP3 LT DUP2 SUB PUSH2 0x285 JUMPI PUSH2 0x284 PUSH2 0x22E JUMP JUMPDEST JUMPDEST POP SWAP2 SWAP1 POP JUMP JUMPDEST PUSH0 DUP2 SWAP1 POP DUP2 PUSH0 MSTORE PUSH1 0x20 PUSH0 KECCAK256 SWAP1 POP SWAP2 SWAP1 POP JUMP JUMPDEST PUSH0 PUSH1 0x20 PUSH1 0x1F DUP4 ADD DIV SWAP1 POP SWAP2 SWAP1 POP JUMP JUMPDEST PUSH0 DUP3 DUP3 SHL SWAP1 POP SWAP3 SWAP2 POP POP JUMP JUMPDEST PUSH0 PUSH1 0x8 DUP4 MUL PUSH2 0x2E7 PUSH32 0xFFFFFFFFFFFFFFFFFFFFFFFFFFFFFFFFFFFFFFFFFFFFFFFFFFFFFFFFFFFFFFFF DUP3 PUSH2 0x2AC JUMP JUMPDEST PUSH2 0x2F1 DUP7 DUP4 PUSH2 0x2AC JUMP JUMPDEST SWAP6 POP DUP1 NOT DUP5 AND SWAP4 POP DUP1 DUP7 AND DUP5 OR SWAP3 POP POP POP SWAP4 SWAP3 POP POP POP JUMP JUMPDEST PUSH0 DUP2 SWAP1 POP SWAP2 SWAP1 POP JUMP JUMPDEST PUSH0 DUP2 SWAP1 POP SWAP2 SWAP1 POP JUMP JUMPDEST PUSH0 PUSH2 0x335 PUSH2 0x330 PUSH2 0x32B DUP5 PUSH2 0x309 JUMP JUMPDEST PUSH2 0x312 JUMP JUMPDEST PUSH2 0x309 JUMP JUMPDEST SWAP1 POP SWAP2 SWAP1 POP JUMP JUMPDEST PUSH0 DUP2 SWAP1 POP SWAP2 SWAP1 POP JUMP JUMPDEST PUSH2 0x34E DUP4 PUSH2 0x31B JUMP JUMPDEST PUSH2 0x362 PUSH2 0x35A DUP3 PUSH2 0x33C JUMP JUMPDEST DUP5 DUP5 SLOAD PUSH2 0x2B8 JUMP JUMPDEST DUP3 SSTORE POP POP POP POP JUMP JUMPDEST PUSH0 PUSH0 SWAP1 POP SWAP1 JUMP JUMPDEST PUSH2 0x379 PUSH2 0x36A JUMP JUMPDEST PUSH2 0x384 DUP2 DUP5 DUP5 PUSH2 0x345 JUMP JUMPDEST POP POP POP JUMP JUMPDEST JUMPDEST DUP2 DUP2 LT ISZERO PUSH2 0x3A7 JUMPI PUSH2 0x39C PUSH0 DUP3 PUSH2 0x371 JUMP JUMPDEST PUSH1 0x1 DUP2 ADD SWAP1 POP PUSH2 0x38A JUMP JUMPDEST POP POP JUMP JUMPDEST PUSH1 0x1F DUP3 GT ISZERO PUSH2 0x3EC JUMPI PUSH2 0x3BD DUP2 PUSH2 0x28B JUMP JUMPDEST PUSH2 0x3C6 DUP5 PUSH2 0x29D JUMP JUMPDEST DUP2 ADD PUSH1 0x20 DUP6 LT ISZERO PUSH2 0x3D5 JUMPI DUP2 SWAP1 POP JUMPDEST PUSH2 0x3E9 PUSH2 0x3E1 DUP6 PUSH2 0x29D JUMP JUMPDEST DUP4 ADD DUP3 PUSH2 0x389 JUMP JUMPDEST POP POP JUMPDEST POP POP POP JUMP JUMPDEST PUSH0 DUP3 DUP3 SHR SWAP1 POP SWAP3 SWAP2 POP POP JUMP JUMPDEST PUSH0 PUSH2 0x40C PUSH0 NOT DUP5 PUSH1 0x8 MUL PUSH2 0x3F1 JUMP JUMPDEST NOT DUP1 DUP4 AND SWAP2 POP POP SWAP3 SWAP2 POP POP JUMP JUMPDEST PUSH0 PUSH2 0x424 DUP4 DUP4 PUSH2 0x3FD JUMP JUMPDEST SWAP2 POP DUP3 PUSH1 0x2 MUL DUP3 OR SWAP1 POP SWAP3 SWAP2 POP POP JUMP JUMPDEST PUSH2 0x43D DUP3 PUSH2 0x224 JUMP JUMPDEST PUSH8 0xFFFFFFFFFFFFFFFF DUP2 GT ISZERO PUSH2 0x456 JUMPI PUSH2 0x455 PUSH2 0x8A JUMP JUMPDEST JUMPDEST PUSH2 0x460 DUP3 SLOAD PUSH2 0x25B JUMP JUMPDEST PUSH2 0x46B DUP3 DUP3 DUP6 PUSH2 0x3AB JUMP JUMPDEST PUSH0 PUSH1 0x20 SWAP1 POP PUSH1 0x1F DUP4 GT PUSH1 0x1 DUP2 EQ PUSH2 0x49C JUMPI PUSH0 DUP5 ISZERO PUSH2 0x48A JUMPI DUP3 DUP8 ADD MLOAD SWAP1 POP JUMPDEST PUSH2 0x494 DUP6 DUP3 PUSH2 0x419 JUMP JUMPDEST DUP7 SSTORE POP PUSH2 0x4FB JUMP JUMPDEST PUSH1 0x1F NOT DUP5 AND PUSH2 0x4AA DUP7 PUSH2 0x28B JUMP JUMPDEST PUSH0 JUMPDEST DUP3 DUP2 LT ISZERO PUSH2 0x4D1 JUMPI DUP5 DUP10 ADD MLOAD DUP3 SSTORE PUSH1 0x1 DUP3 ADD SWAP2 POP PUSH1 0x20 DUP6 ADD SWAP5 POP PUSH1 0x20 DUP2 ADD SWAP1 POP PUSH2 0x4AC JUMP JUMPDEST DUP7 DUP4 LT ISZERO PUSH2 0x4EE JUMPI DUP5 DUP10 ADD MLOAD PUSH2 0x4EA PUSH1 0x1F DUP10 AND DUP3 PUSH2 0x3FD JUMP JUMPDEST DUP4 SSTORE POP JUMPDEST PUSH1 0x1 PUSH1 0x2 DUP9 MUL ADD DUP9 SSTORE POP POP POP JUMPDEST POP POP POP POP POP POP JUMP JUMPDEST PUSH2 0x1E25 DUP1 PUSH2 0x510 PUSH0 CODECOPY PUSH0 RETURN INVALID PUSH1 0x80 PUSH1 0x40 MSTORE CALLVALUE DUP1 ISZERO PUSH2 0xF JUMPI PUSH0 PUSH0 REVERT JUMPDEST POP PUSH1 0x4 CALLDATASIZE LT PUSH2 0xF3 JUMPI PUSH0 CALLDATALOAD PUSH1 0xE0 SHR DUP1 PUSH4 0x6352211E GT PUSH2 0x95 JUMPI DUP1 PUSH4 0xB88D4FDE GT PUSH2 0x64 JUMPI DUP1 PUSH4 0xB88D4FDE EQ PUSH2 0x27F JUMPI DUP1 PUSH4 0xBB8A16BD EQ PUSH2 0x29B JUMPI DUP1 PUSH4 0xC87B56DD EQ PUSH2 0x2B9 JUMPI DUP1 PUSH4 0xE985E9C5 EQ PUSH2 0x2E9 JUMPI PUSH2 0xF3 JUMP JUMPDEST DUP1 PUSH4 0x6352211E EQ PUSH2 0x1E5 JUMPI DUP1 PUSH4 0x70A08231 EQ PUSH2 0x215 JUMPI DUP1 PUSH4 0x95D89B41 EQ PUSH2 0x245 JUMPI DUP1 PUSH4 0xA22CB465 EQ PUSH2 0x263 JUMPI PUSH2 0xF3 JUMP JUMPDEST DUP1 PUSH4 0x95EA7B3 GT PUSH2 0xD1 JUMPI DUP1 PUSH4 0x95EA7B3 EQ PUSH2 0x175 JUMPI DUP1 PUSH4 0x23B872DD EQ PUSH2 0x191 JUMPI DUP1 PUSH4 0x40C10F19 EQ PUSH2 0x1AD JUMPI DUP1 PUSH4 0x42842E0E EQ PUSH2 0x1C9 JUMPI PUSH2 0xF3 JUMP JUMPDEST DUP1 PUSH4 0x1FFC9A7 EQ PUSH2 0xF7 JUMPI DUP1 PUSH4 0x6FDDE03 EQ PUSH2 0x127 JUMPI DUP1 PUSH4 0x81812FC EQ PUSH2 0x145 JUMPI JUMPDEST PUSH0 PUSH0 REVERT JUMPDEST PUSH2 0x111 PUSH1 0x4 DUP1 CALLDATASIZE SUB DUP2 ADD SWAP1 PUSH2 0x10C SWAP2 SWAP1 PUSH2 0x1632 JUMP JUMPDEST PUSH2 0x319 JUMP JUMPDEST PUSH1 0x40 MLOAD PUSH2 0x11E SWAP2 SWAP1 PUSH2 0x1677 JUMP JUMPDEST PUSH1 0x40 MLOAD DUP1 SWAP2 SUB SWAP1 RETURN JUMPDEST PUSH2 0x12F PUSH2 0x3FA JUMP JUMPDEST PUSH1 0x40 MLOAD PUSH2 0x13C SWAP2 SWAP1 PUSH2 0x1700 JUMP JUMPDEST PUSH1 0x40 MLOAD DUP1 SWAP2 SUB SWAP1 RETURN JUMPDEST PUSH2 0x15F PUSH1 0x4 DUP1 CALLDATASIZE SUB DUP2 ADD SWAP1 PUSH2 0x15A SWAP2 SWAP1 PUSH2 0x1753 JUMP JUMPDEST PUSH2 0x489 JUMP JUMPDEST PUSH1 0x40 MLOAD PUSH2 0x16C SWAP2 SWAP1 PUSH2 0x17BD JUMP JUMPDEST PUSH1 0x40 MLOAD DUP1 SWAP2 SUB SWAP1 RETURN JUMPDEST PUSH2 0x18F PUSH1 0x4 DUP1 CALLDATASIZE SUB DUP2 ADD SWAP1 PUSH2 0x18A SWAP2 SWAP1 PUSH2 0x1800 JUMP JUMPDEST PUSH2 0x4A4 JUMP JUMPDEST STOP JUMPDEST PUSH2 0x1AB PUSH1 0x4 DUP1 CALLDATASIZE SUB DUP2 ADD SWAP1 PUSH2 0x1A6 SWAP2 SWAP1 PUSH2 0x183E JUMP JUMPDEST PUSH2 0x4BA JUMP JUMPDEST STOP JUMPDEST PUSH2 0x1C7 PUSH1 0x4 DUP1 CALLDATASIZE SUB DUP2 ADD SWAP1 PUSH2 0x1C2 SWAP2 SWAP1 PUSH2 0x1800 JUMP JUMPDEST PUSH2 0x5B9 JUMP JUMPDEST STOP JUMPDEST PUSH2 0x1E3 PUSH1 0x4 DUP1 CALLDATASIZE SUB DUP2 ADD SWAP1 PUSH2 0x1DE SWAP2 SWAP1 PUSH2 0x183E JUMP JUMPDEST PUSH2 0x617 JUMP JUMPDEST STOP JUMPDEST PUSH2 0x1FF PUSH1 0x4 DUP1 CALLDATASIZE SUB DUP2 ADD SWAP1 PUSH2 0x1FA SWAP2 SWAP1 PUSH2 0x1753 JUMP JUMPDEST PUSH2 0x636 JUMP JUMPDEST PUSH1 0x40 MLOAD PUSH2 0x20C SWAP2 SWAP1 PUSH2 0x17BD JUMP JUMPDEST PUSH1 0x40 MLOAD DUP1 SWAP2 SUB SWAP1 RETURN JUMPDEST PUSH2 0x22F PUSH1 0x4 DUP1 CALLDATASIZE SUB DUP2 ADD SWAP1 PUSH2 0x22A SWAP2 SWAP1 PUSH2 0x188E JUMP JUMPDEST PUSH2 0x647 JUMP JUMPDEST PUSH1 0x40 MLOAD PUSH2 0x23C SWAP2 SWAP1 PUSH2 0x18C8 JUMP JUMPDEST PUSH1 0x40 MLOAD DUP1 SWAP2 SUB SWAP1 RETURN JUMPDEST PUSH2 0x24D PUSH2 0x6FD JUMP JUMPDEST PUSH1 0x40 MLOAD PUSH2 0x25A SWAP2 SWAP1 PUSH2 0x1700 JUMP JUMPDEST PUSH1 0x40 MLOAD DUP1 SWAP2 SUB SWAP1 RETURN JUMPDEST PUSH2 0x27D PUSH1 0x4 DUP1 CALLDATASIZE SUB DUP2 ADD SWAP1 PUSH2 0x278 SWAP2 SWAP1 PUSH2 0x190B JUMP JUMPDEST PUSH2 0x78D JUMP JUMPDEST STOP JUMPDEST PUSH2 0x299 PUSH1 0x4 DUP1 CALLDATASIZE SUB DUP2 ADD SWAP1 PUSH2 0x294 SWAP2 SWAP1 PUSH2 0x1A75 JUMP JUMPDEST PUSH2 0x7A3 JUMP JUMPDEST STOP JUMPDEST PUSH2 0x2A3 PUSH2 0x7C8 JUMP JUMPDEST PUSH1 0x40 MLOAD PUSH2 0x2B0 SWAP2 SWAP1 PUSH2 0x18C8 JUMP JUMPDEST PUSH1 0x40 MLOAD DUP1 SWAP2 SUB SWAP1 RETURN JUMPDEST PUSH2 0x2D3 PUSH1 0x4 DUP1 CALLDATASIZE SUB DUP2 ADD SWAP1 PUSH2 0x2CE SWAP2 SWAP1 PUSH2 0x1753 JUMP JUMPDEST PUSH2 0x7CE JUMP JUMPDEST PUSH1 0x40 MLOAD PUSH2 0x2E0 SWAP2 SWAP1 PUSH2 0x1700 JUMP JUMPDEST PUSH1 0x40 MLOAD DUP1 SWAP2 SUB SWAP1 RETURN JUMPDEST PUSH2 0x303 PUSH1 0x4 DUP1 CALLDATASIZE SUB DUP2 ADD SWAP1 PUSH2 0x2FE SWAP2 SWAP1 PUSH2 0x1AF5 JUMP JUMPDEST PUSH2 0x834 JUMP JUMPDEST PUSH1 0x40 MLOAD PUSH2 0x310 SWAP2 SWAP1 PUSH2 0x1677 JUMP JUMPDEST PUSH1 0x40 MLOAD DUP1 SWAP2 SUB SWAP1 RETURN JUMPDEST PUSH0 PUSH32 0x80AC58CD00000000000000000000000000000000000000000000000000000000 PUSH28 0xFFFFFFFFFFFFFFFFFFFFFFFFFFFFFFFFFFFFFFFFFFFFFFFFFFFFFFFF NOT AND DUP3 PUSH28 0xFFFFFFFFFFFFFFFFFFFFFFFFFFFFFFFFFFFFFFFFFFFFFFFFFFFFFFFF NOT AND EQ DUP1 PUSH2 0x3E3 JUMPI POP PUSH32 0x5B5E139F00000000000000000000000000000000000000000000000000000000 PUSH28 0xFFFFFFFFFFFFFFFFFFFFFFFFFFFFFFFFFFFFFFFFFFFFFFFFFFFFFFFF NOT AND DUP3 PUSH28 0xFFFFFFFFFFFFFFFFFFFFFFFFFFFFFFFFFFFFFFFFFFFFFFFFFFFFFFFF NOT AND EQ JUMPDEST DUP1 PUSH2 0x3F3 JUMPI POP PUSH2 0x3F2 DUP3 PUSH2 0x8C2 JUMP JUMPDEST JUMPDEST SWAP1 POP SWAP2 SWAP1 POP JUMP JUMPDEST PUSH1 0x60 PUSH0 DUP1 SLOAD PUSH2 0x408 SWAP1 PUSH2 0x1B60 JUMP JUMPDEST DUP1 PUSH1 0x1F ADD PUSH1 0x20 DUP1 SWAP2 DIV MUL PUSH1 0x20 ADD PUSH1 0x40 MLOAD SWAP1 DUP2 ADD PUSH1 0x40 MSTORE DUP1 SWAP3 SWAP2 SWAP1 DUP2 DUP2 MSTORE PUSH1 0x20 ADD DUP3 DUP1 SLOAD PUSH2 0x434 SWAP1 PUSH2 0x1B60 JUMP JUMPDEST DUP1 ISZERO PUSH2 0x47F JUMPI DUP1 PUSH1 0x1F LT PUSH2 0x456 JUMPI PUSH2 0x100 DUP1 DUP4 SLOAD DIV MUL DUP4 MSTORE SWAP2 PUSH1 0x20 ADD SWAP2 PUSH2 0x47F JUMP JUMPDEST DUP3 ADD SWAP2 SWAP1 PUSH0 MSTORE PUSH1 0x20 PUSH0 KECCAK256 SWAP1 JUMPDEST DUP2 SLOAD DUP2 MSTORE SWAP1 PUSH1 0x1 ADD SWAP1 PUSH1 0x20 ADD DUP1 DUP4 GT PUSH2 0x462 JUMPI DUP3 SWAP1 SUB PUSH1 0x1F AND DUP3 ADD SWAP2 JUMPDEST POP POP POP POP POP SWAP1 POP SWAP1 JUMP JUMPDEST PUSH0 PUSH2 0x493 DUP3 PUSH2 0x92B JUMP JUMPDEST POP PUSH2 0x49D DUP3 PUSH2 0x9B1 JUMP JUMPDEST SWAP1 POP SWAP2 SWAP1 POP JUMP JUMPDEST PUSH2 0x4B6 DUP3 DUP3 PUSH2 0x4B1 PUSH2 0x9EA JUMP JUMPDEST PUSH2 0x9F1 JUMP JUMPDEST POP POP JUMP JUMPDEST PUSH0 PUSH20 0xFFFFFFFFFFFFFFFFFFFFFFFFFFFFFFFFFFFFFFFF AND DUP3 PUSH20 0xFFFFFFFFFFFFFFFFFFFFFFFFFFFFFFFFFFFFFFFF AND SUB PUSH2 0x52A JUMPI PUSH0 PUSH1 0x40 MLOAD PUSH32 0x64A0AE9200000000000000000000000000000000000000000000000000000000 DUP2 MSTORE PUSH1 0x4 ADD PUSH2 0x521 SWAP2 SWAP1 PUSH2 0x17BD JUMP JUMPDEST PUSH1 0x40 MLOAD DUP1 SWAP2 SUB SWAP1 REVERT JUMPDEST PUSH0 PUSH2 0x53D DUP4 DUP4 PUSH2 0x538 PUSH2 0x9EA JUMP JUMPDEST PUSH2 0xA03 JUMP JUMPDEST SWAP1 POP DUP4 PUSH20 0xFFFFFFFFFFFFFFFFFFFFFFFFFFFFFFFFFFFFFFFF AND DUP2 PUSH20 0xFFFFFFFFFFFFFFFFFFFFFFFFFFFFFFFFFFFFFFFF AND EQ PUSH2 0x5B3 JUMPI DUP4 DUP3 DUP3 PUSH1 0x40 MLOAD PUSH32 0x64283D7B00000000000000000000000000000000000000000000000000000000 DUP2 MSTORE PUSH1 0x4 ADD PUSH2 0x5AA SWAP4 SWAP3 SWAP2 SWAP1 PUSH2 0x1B90 JUMP JUMPDEST PUSH1 0x40 MLOAD DUP1 SWAP2 SUB SWAP1 REVERT JUMPDEST POP POP POP POP JUMP JUMPDEST PUSH0 DUP2 LT ISZERO DUP1 ISZERO PUSH2 0x5CA JUMPI POP PUSH1 0x6 SLOAD DUP2 LT JUMPDEST PUSH2 0x609 JUMPI PUSH1 0x40 MLOAD PUSH32 0x8C379A000000000000000000000000000000000000000000000000000000000 DUP2 MSTORE PUSH1 0x4 ADD PUSH2 0x600 SWAP1 PUSH2 0x1C0F JUMP JUMPDEST PUSH1 0x40 MLOAD DUP1 SWAP2 SUB SWAP1 REVERT JUMPDEST PUSH2 0x613 DUP3 DUP3 PUSH2 0xC0E JUMP JUMPDEST POP POP JUMP JUMPDEST PUSH2 0x631 DUP4 DUP4 DUP4 PUSH1 0x40 MLOAD DUP1 PUSH1 0x20 ADD PUSH1 0x40 MSTORE DUP1 PUSH0 DUP2 MSTORE POP PUSH2 0x7A3 JUMP JUMPDEST POP POP POP JUMP JUMPDEST PUSH0 PUSH2 0x640 DUP3 PUSH2 0x92B JUMP JUMPDEST SWAP1 POP SWAP2 SWAP1 POP JUMP JUMPDEST PUSH0 PUSH0 PUSH20 0xFFFFFFFFFFFFFFFFFFFFFFFFFFFFFFFFFFFFFFFF AND DUP3 PUSH20 0xFFFFFFFFFFFFFFFFFFFFFFFFFFFFFFFFFFFFFFFF AND SUB PUSH2 0x6B8 JUMPI PUSH0 PUSH1 0x40 MLOAD PUSH32 0x89C62B6400000000000000000000000000000000000000000000000000000000 DUP2 MSTORE PUSH1 0x4 ADD PUSH2 0x6AF SWAP2 SWAP1 PUSH2 0x17BD JUMP JUMPDEST PUSH1 0x40 MLOAD DUP1 SWAP2 SUB SWAP1 REVERT JUMPDEST PUSH1 0x3 PUSH0 DUP4 PUSH20 0xFFFFFFFFFFFFFFFFFFFFFFFFFFFFFFFFFFFFFFFF AND PUSH20 0xFFFFFFFFFFFFFFFFFFFFFFFFFFFFFFFFFFFFFFFF AND DUP2 MSTORE PUSH1 0x20 ADD SWAP1 DUP2 MSTORE PUSH1 0x20 ADD PUSH0 KECCAK256 SLOAD SWAP1 POP SWAP2 SWAP1 POP JUMP JUMPDEST PUSH1 0x60 PUSH1 0x1 DUP1 SLOAD PUSH2 0x70C SWAP1 PUSH2 0x1B60 JUMP JUMPDEST DUP1 PUSH1 0x1F ADD PUSH1 0x20 DUP1 SWAP2 DIV MUL PUSH1 0x20 ADD PUSH1 0x40 MLOAD SWAP1 DUP2 ADD PUSH1 0x40 MSTORE DUP1 SWAP3 SWAP2 SWAP1 DUP2 DUP2 MSTORE PUSH1 0x20 ADD DUP3 DUP1 SLOAD PUSH2 0x738 SWAP1 PUSH2 0x1B60 JUMP JUMPDEST DUP1 ISZERO PUSH2 0x783 JUMPI DUP1 PUSH1 0x1F LT PUSH2 0x75A JUMPI PUSH2 0x100 DUP1 DUP4 SLOAD DIV MUL DUP4 MSTORE SWAP2 PUSH1 0x20 ADD SWAP2 PUSH2 0x783 JUMP JUMPDEST DUP3 ADD SWAP2 SWAP1 PUSH0 MSTORE PUSH1 0x20 PUSH0 KECCAK256 SWAP1 JUMPDEST DUP2 SLOAD DUP2 MSTORE SWAP1 PUSH1 0x1 ADD SWAP1 PUSH1 0x20 ADD DUP1 DUP4 GT PUSH2 0x766 JUMPI DUP3 SWAP1 SUB PUSH1 0x1F AND DUP3 ADD SWAP2 JUMPDEST POP POP POP POP POP SWAP1 POP SWAP1 JUMP JUMPDEST PUSH2 0x79F PUSH2 0x798 PUSH2 0x9EA JUMP JUMPDEST DUP4 DUP4 PUSH2 0xD01 JUMP JUMPDEST POP POP JUMP JUMPDEST PUSH2 0x7AE DUP5 DUP5 DUP5 PUSH2 0x4BA JUMP JUMPDEST PUSH2 0x7C2 PUSH2 0x7B9 PUSH2 0x9EA JUMP JUMPDEST DUP6 DUP6 DUP6 DUP6 PUSH2 0xE6A JUMP JUMPDEST POP POP POP POP JUMP JUMPDEST PUSH1 0x6 SLOAD DUP2 JUMP JUMPDEST PUSH1 0x60 PUSH2 0x7D9 DUP3 PUSH2 0x92B JUMP JUMPDEST POP PUSH0 PUSH2 0x7E3 PUSH2 0x1016 JUMP JUMPDEST SWAP1 POP PUSH0 DUP2 MLOAD GT PUSH2 0x801 JUMPI PUSH1 0x40 MLOAD DUP1 PUSH1 0x20 ADD PUSH1 0x40 MSTORE DUP1 PUSH0 DUP2 MSTORE POP PUSH2 0x82C JUMP JUMPDEST DUP1 PUSH2 0x80B DUP5 PUSH2 0x1036 JUMP JUMPDEST PUSH1 0x40 MLOAD PUSH1 0x20 ADD PUSH2 0x81C SWAP3 SWAP2 SWAP1 PUSH2 0x1C67 JUMP JUMPDEST PUSH1 0x40 MLOAD PUSH1 0x20 DUP2 DUP4 SUB SUB DUP2 MSTORE SWAP1 PUSH1 0x40 MSTORE JUMPDEST SWAP2 POP POP SWAP2 SWAP1 POP JUMP JUMPDEST PUSH0 PUSH1 0x5 PUSH0 DUP5 PUSH20 0xFFFFFFFFFFFFFFFFFFFFFFFFFFFFFFFFFFFFFFFF AND PUSH20 0xFFFFFFFFFFFFFFFFFFFFFFFFFFFFFFFFFFFFFFFF AND DUP2 MSTORE PUSH1 0x20 ADD SWAP1 DUP2 MSTORE PUSH1 0x20 ADD PUSH0 KECCAK256 PUSH0 DUP4 PUSH20 0xFFFFFFFFFFFFFFFFFFFFFFFFFFFFFFFFFFFFFFFF AND PUSH20 0xFFFFFFFFFFFFFFFFFFFFFFFFFFFFFFFFFFFFFFFF AND DUP2 MSTORE PUSH1 0x20 ADD SWAP1 DUP2 MSTORE PUSH1 0x20 ADD PUSH0 KECCAK256 PUSH0 SWAP1 SLOAD SWAP1 PUSH2 0x100 EXP SWAP1 DIV PUSH1 0xFF AND SWAP1 POP SWAP3 SWAP2 POP POP JUMP JUMPDEST PUSH0 PUSH32 0x1FFC9A700000000000000000000000000000000000000000000000000000000 PUSH28 0xFFFFFFFFFFFFFFFFFFFFFFFFFFFFFFFFFFFFFFFFFFFFFFFFFFFFFFFF NOT AND DUP3 PUSH28 0xFFFFFFFFFFFFFFFFFFFFFFFFFFFFFFFFFFFFFFFFFFFFFFFFFFFFFFFF NOT AND EQ SWAP1 POP SWAP2 SWAP1 POP JUMP JUMPDEST PUSH0 PUSH0 PUSH2 0x936 DUP4 PUSH2 0x1100 JUMP JUMPDEST SWAP1 POP PUSH0 PUSH20 0xFFFFFFFFFFFFFFFFFFFFFFFFFFFFFFFFFFFFFFFF AND DUP2 PUSH20 0xFFFFFFFFFFFFFFFFFFFFFFFFFFFFFFFFFFFFFFFF AND SUB PUSH2 0x9A8 JUMPI DUP3 PUSH1 0x40 MLOAD PUSH32 0x7E27328900000000000000000000000000000000000000000000000000000000 DUP2 MSTORE PUSH1 0x4 ADD PUSH2 0x99F SWAP2 SWAP1 PUSH2 0x18C8 JUMP JUMPDEST PUSH1 0x40 MLOAD DUP1 SWAP2 SUB SWAP1 REVERT JUMPDEST DUP1 SWAP2 POP POP SWAP2 SWAP1 POP JUMP JUMPDEST PUSH0 PUSH1 0x4 PUSH0 DUP4 DUP2 MSTORE PUSH1 0x20 ADD SWAP1 DUP2 MSTORE PUSH1 0x20 ADD PUSH0 KECCAK256 PUSH0 SWAP1 SLOAD SWAP1 PUSH2 0x100 EXP SWAP1 DIV PUSH20 0xFFFFFFFFFFFFFFFFFFFFFFFFFFFFFFFFFFFFFFFF AND SWAP1 POP SWAP2 SWAP1 POP JUMP JUMPDEST PUSH0 CALLER SWAP1 POP SWAP1 JUMP JUMPDEST PUSH2 0x9FE DUP4 DUP4 DUP4 PUSH1 0x1 PUSH2 0x1139 JUMP JUMPDEST POP POP POP JUMP JUMPDEST PUSH0 PUSH0 PUSH2 0xA0E DUP5 PUSH2 0x1100 JUMP JUMPDEST SWAP1 POP PUSH0 PUSH20 0xFFFFFFFFFFFFFFFFFFFFFFFFFFFFFFFFFFFFFFFF AND DUP4 PUSH20 0xFFFFFFFFFFFFFFFFFFFFFFFFFFFFFFFFFFFFFFFF AND EQ PUSH2 0xA4F JUMPI PUSH2 0xA4E DUP2 DUP5 DUP7 PUSH2 0x12F8 JUMP JUMPDEST JUMPDEST PUSH0 PUSH20 0xFFFFFFFFFFFFFFFFFFFFFFFFFFFFFFFFFFFFFFFF AND DUP2 PUSH20 0xFFFFFFFFFFFFFFFFFFFFFFFFFFFFFFFFFFFFFFFF AND EQ PUSH2 0xADA JUMPI PUSH2 0xA8E PUSH0 DUP6 PUSH0 PUSH0 PUSH2 0x1139 JUMP JUMPDEST PUSH1 0x1 PUSH1 0x3 PUSH0 DUP4 PUSH20 0xFFFFFFFFFFFFFFFFFFFFFFFFFFFFFFFFFFFFFFFF AND PUSH20 0xFFFFFFFFFFFFFFFFFFFFFFFFFFFFFFFFFFFFFFFF AND DUP2 MSTORE PUSH1 0x20 ADD SWAP1 DUP2 MSTORE PUSH1 0x20 ADD PUSH0 KECCAK256 PUSH0 DUP3 DUP3 SLOAD SUB SWAP3 POP POP DUP2 SWAP1 SSTORE POP JUMPDEST PUSH0 PUSH20 0xFFFFFFFFFFFFFFFFFFFFFFFFFFFFFFFFFFFFFFFF AND DUP6 PUSH20 0xFFFFFFFFFFFFFFFFFFFFFFFFFFFFFFFFFFFFFFFF AND EQ PUSH2 0xB59 JUMPI PUSH1 0x1 PUSH1 0x3 PUSH0 DUP8 PUSH20 0xFFFFFFFFFFFFFFFFFFFFFFFFFFFFFFFFFFFFFFFF AND PUSH20 0xFFFFFFFFFFFFFFFFFFFFFFFFFFFFFFFFFFFFFFFF AND DUP2 MSTORE PUSH1 0x20 ADD SWAP1 DUP2 MSTORE PUSH1 0x20 ADD PUSH0 KECCAK256 PUSH0 DUP3 DUP3 SLOAD ADD SWAP3 POP POP DUP2 SWAP1 SSTORE POP JUMPDEST DUP5 PUSH1 0x2 PUSH0 DUP7 DUP2 MSTORE PUSH1 0x20 ADD SWAP1 DUP2 MSTORE PUSH1 0x20 ADD PUSH0 KECCAK256 PUSH0 PUSH2 0x100 EXP DUP2 SLOAD DUP2 PUSH20 0xFFFFFFFFFFFFFFFFFFFFFFFFFFFFFFFFFFFFFFFF MUL NOT AND SWAP1 DUP4 PUSH20 0xFFFFFFFFFFFFFFFFFFFFFFFFFFFFFFFFFFFFFFFF AND MUL OR SWAP1 SSTORE POP DUP4 DUP6 PUSH20 0xFFFFFFFFFFFFFFFFFFFFFFFFFFFFFFFFFFFFFFFF AND DUP3 PUSH20 0xFFFFFFFFFFFFFFFFFFFFFFFFFFFFFFFFFFFFFFFF AND PUSH32 0xDDF252AD1BE2C89B69C2B068FC378DAA952BA7F163C4A11628F55A4DF523B3EF PUSH1 0x40 MLOAD PUSH1 0x40 MLOAD DUP1 SWAP2 SUB SWAP1 LOG4 DUP1 SWAP2 POP POP SWAP4 SWAP3 POP POP POP JUMP JUMPDEST PUSH0 PUSH20 0xFFFFFFFFFFFFFFFFFFFFFFFFFFFFFFFFFFFFFFFF AND DUP3 PUSH20 0xFFFFFFFFFFFFFFFFFFFFFFFFFFFFFFFFFFFFFFFF AND SUB PUSH2 0xC7E JUMPI PUSH0 PUSH1 0x40 MLOAD PUSH32 0x64A0AE9200000000000000000000000000000000000000000000000000000000 DUP2 MSTORE PUSH1 0x4 ADD PUSH2 0xC75 SWAP2 SWAP1 PUSH2 0x17BD JUMP JUMPDEST PUSH1 0x40 MLOAD DUP1 SWAP2 SUB SWAP1 REVERT JUMPDEST PUSH0 PUSH2 0xC8A DUP4 DUP4 PUSH0 PUSH2 0xA03 JUMP JUMPDEST SWAP1 POP PUSH0 PUSH20 0xFFFFFFFFFFFFFFFFFFFFFFFFFFFFFFFFFFFFFFFF AND DUP2 PUSH20 0xFFFFFFFFFFFFFFFFFFFFFFFFFFFFFFFFFFFFFFFF AND EQ PUSH2 0xCFC JUMPI PUSH0 PUSH1 0x40 MLOAD PUSH32 0x73C6AC6E00000000000000000000000000000000000000000000000000000000 DUP2 MSTORE PUSH1 0x4 ADD PUSH2 0xCF3 SWAP2 SWAP1 PUSH2 0x17BD JUMP JUMPDEST PUSH1 0x40 MLOAD DUP1 SWAP2 SUB SWAP1 REVERT JUMPDEST POP POP POP JUMP JUMPDEST PUSH0 PUSH20 0xFFFFFFFFFFFFFFFFFFFFFFFFFFFFFFFFFFFFFFFF AND DUP3 PUSH20 0xFFFFFFFFFFFFFFFFFFFFFFFFFFFFFFFFFFFFFFFF AND SUB PUSH2 0xD71 JUMPI DUP2 PUSH1 0x40 MLOAD PUSH32 0x5B08BA1800000000000000000000000000000000000000000000000000000000 DUP2 MSTORE PUSH1 0x4 ADD PUSH2 0xD68 SWAP2 SWAP1 PUSH2 0x17BD JUMP JUMPDEST PUSH1 0x40 MLOAD DUP1 SWAP2 SUB SWAP1 REVERT JUMPDEST DUP1 PUSH1 0x5 PUSH0 DUP6 PUSH20 0xFFFFFFFFFFFFFFFFFFFFFFFFFFFFFFFFFFFFFFFF AND PUSH20 0xFFFFFFFFFFFFFFFFFFFFFFFFFFFFFFFFFFFFFFFF AND DUP2 MSTORE PUSH1 0x20 ADD SWAP1 DUP2 MSTORE PUSH1 0x20 ADD PUSH0 KECCAK256 PUSH0 DUP5 PUSH20 0xFFFFFFFFFFFFFFFFFFFFFFFFFFFFFFFFFFFFFFFF AND PUSH20 0xFFFFFFFFFFFFFFFFFFFFFFFFFFFFFFFFFFFFFFFF AND DUP2 MSTORE PUSH1 0x20 ADD SWAP1 DUP2 MSTORE PUSH1 0x20 ADD PUSH0 KECCAK256 PUSH0 PUSH2 0x100 EXP DUP2 SLOAD DUP2 PUSH1 0xFF MUL NOT AND SWAP1 DUP4 ISZERO ISZERO MUL OR SWAP1 SSTORE POP DUP2 PUSH20 0xFFFFFFFFFFFFFFFFFFFFFFFFFFFFFFFFFFFFFFFF AND DUP4 PUSH20 0xFFFFFFFFFFFFFFFFFFFFFFFFFFFFFFFFFFFFFFFF AND PUSH32 0x17307EAB39AB6107E8899845AD3D59BD9653F200F220920489CA2B5937696C31 DUP4 PUSH1 0x40 MLOAD PUSH2 0xE5D SWAP2 SWAP1 PUSH2 0x1677 JUMP JUMPDEST PUSH1 0x40 MLOAD DUP1 SWAP2 SUB SWAP1 LOG3 POP POP POP JUMP JUMPDEST PUSH0 DUP4 PUSH20 0xFFFFFFFFFFFFFFFFFFFFFFFFFFFFFFFFFFFFFFFF AND EXTCODESIZE GT ISZERO PUSH2 0x100F JUMPI DUP3 PUSH20 0xFFFFFFFFFFFFFFFFFFFFFFFFFFFFFFFFFFFFFFFF AND PUSH4 0x150B7A02 DUP7 DUP7 DUP6 DUP6 PUSH1 0x40 MLOAD DUP6 PUSH4 0xFFFFFFFF AND PUSH1 0xE0 SHL DUP2 MSTORE PUSH1 0x4 ADD PUSH2 0xEC8 SWAP5 SWAP4 SWAP3 SWAP2 SWAP1 PUSH2 0x1CDC JUMP JUMPDEST PUSH1 0x20 PUSH1 0x40 MLOAD DUP1 DUP4 SUB DUP2 PUSH0 DUP8 GAS CALL SWAP3 POP POP POP DUP1 ISZERO PUSH2 0xF03 JUMPI POP PUSH1 0x40 MLOAD RETURNDATASIZE PUSH1 0x1F NOT PUSH1 0x1F DUP3 ADD AND DUP3 ADD DUP1 PUSH1 0x40 MSTORE POP DUP2 ADD SWAP1 PUSH2 0xF00 SWAP2 SWAP1 PUSH2 0x1D3A JUMP JUMPDEST PUSH1 0x1 JUMPDEST PUSH2 0xF84 JUMPI RETURNDATASIZE DUP1 PUSH0 DUP2 EQ PUSH2 0xF31 JUMPI PUSH1 0x40 MLOAD SWAP2 POP PUSH1 0x1F NOT PUSH1 0x3F RETURNDATASIZE ADD AND DUP3 ADD PUSH1 0x40 MSTORE RETURNDATASIZE DUP3 MSTORE RETURNDATASIZE PUSH0 PUSH1 0x20 DUP5 ADD RETURNDATACOPY PUSH2 0xF36 JUMP JUMPDEST PUSH1 0x60 SWAP2 POP JUMPDEST POP PUSH0 DUP2 MLOAD SUB PUSH2 0xF7C JUMPI DUP4 PUSH1 0x40 MLOAD PUSH32 0x64A0AE9200000000000000000000000000000000000000000000000000000000 DUP2 MSTORE PUSH1 0x4 ADD PUSH2 0xF73 SWAP2 SWAP1 PUSH2 0x17BD JUMP JUMPDEST PUSH1 0x40 MLOAD DUP1 SWAP2 SUB SWAP1 REVERT JUMPDEST DUP1 MLOAD DUP2 PUSH1 0x20 ADD REVERT JUMPDEST PUSH4 0x150B7A02 PUSH1 0xE0 SHL PUSH28 0xFFFFFFFFFFFFFFFFFFFFFFFFFFFFFFFFFFFFFFFFFFFFFFFFFFFFFFFF NOT AND DUP2 PUSH28 0xFFFFFFFFFFFFFFFFFFFFFFFFFFFFFFFFFFFFFFFFFFFFFFFFFFFFFFFF NOT AND EQ PUSH2 0x100D JUMPI DUP4 PUSH1 0x40 MLOAD PUSH32 0x64A0AE9200000000000000000000000000000000000000000000000000000000 DUP2 MSTORE PUSH1 0x4 ADD PUSH2 0x1004 SWAP2 SWAP1 PUSH2 0x17BD JUMP JUMPDEST PUSH1 0x40 MLOAD DUP1 SWAP2 SUB SWAP1 REVERT JUMPDEST POP JUMPDEST POP POP POP POP POP JUMP JUMPDEST PUSH1 0x60 PUSH1 0x40 MLOAD DUP1 PUSH1 0x60 ADD PUSH1 0x40 MSTORE DUP1 PUSH1 0x36 DUP2 MSTORE PUSH1 0x20 ADD PUSH2 0x1DBA PUSH1 0x36 SWAP2 CODECOPY SWAP1 POP SWAP1 JUMP JUMPDEST PUSH1 0x60 PUSH0 PUSH1 0x1 PUSH2 0x1044 DUP5 PUSH2 0x13BB JUMP JUMPDEST ADD SWAP1 POP PUSH0 DUP2 PUSH8 0xFFFFFFFFFFFFFFFF DUP2 GT ISZERO PUSH2 0x1062 JUMPI PUSH2 0x1061 PUSH2 0x1951 JUMP JUMPDEST JUMPDEST PUSH1 0x40 MLOAD SWAP1 DUP1 DUP3 MSTORE DUP1 PUSH1 0x1F ADD PUSH1 0x1F NOT AND PUSH1 0x20 ADD DUP3 ADD PUSH1 0x40 MSTORE DUP1 ISZERO PUSH2 0x1094 JUMPI DUP2 PUSH1 0x20 ADD PUSH1 0x1 DUP3 MUL DUP1 CALLDATASIZE DUP4 CALLDATACOPY DUP1 DUP3 ADD SWAP2 POP POP SWAP1 POP JUMPDEST POP SWAP1 POP PUSH0 DUP3 PUSH1 0x20 ADD DUP3 ADD SWAP1 POP JUMPDEST PUSH1 0x1 ISZERO PUSH2 0x10F5 JUMPI DUP1 DUP1 PUSH1 0x1 SWAP1 SUB SWAP2 POP POP PUSH32 0x3031323334353637383961626364656600000000000000000000000000000000 PUSH1 0xA DUP7 MOD BYTE DUP2 MSTORE8 PUSH1 0xA DUP6 DUP2 PUSH2 0x10EA JUMPI PUSH2 0x10E9 PUSH2 0x1D65 JUMP JUMPDEST JUMPDEST DIV SWAP5 POP PUSH0 DUP6 SUB PUSH2 0x10A1 JUMPI JUMPDEST DUP2 SWAP4 POP POP POP POP SWAP2 SWAP1 POP JUMP JUMPDEST PUSH0 PUSH1 0x2 PUSH0 DUP4 DUP2 MSTORE PUSH1 0x20 ADD SWAP1 DUP2 MSTORE PUSH1 0x20 ADD PUSH0 KECCAK256 PUSH0 SWAP1 SLOAD SWAP1 PUSH2 0x100 EXP SWAP1 DIV PUSH20 0xFFFFFFFFFFFFFFFFFFFFFFFFFFFFFFFFFFFFFFFF AND SWAP1 POP SWAP2 SWAP1 POP JUMP JUMPDEST DUP1 DUP1 PUSH2 0x1171 JUMPI POP PUSH0 PUSH20 0xFFFFFFFFFFFFFFFFFFFFFFFFFFFFFFFFFFFFFFFF AND DUP3 PUSH20 0xFFFFFFFFFFFFFFFFFFFFFFFFFFFFFFFFFFFFFFFF AND EQ ISZERO JUMPDEST ISZERO PUSH2 0x12A3 JUMPI PUSH0 PUSH2 0x1180 DUP5 PUSH2 0x92B JUMP JUMPDEST SWAP1 POP PUSH0 PUSH20 0xFFFFFFFFFFFFFFFFFFFFFFFFFFFFFFFFFFFFFFFF AND DUP4 PUSH20 0xFFFFFFFFFFFFFFFFFFFFFFFFFFFFFFFFFFFFFFFF AND EQ ISZERO DUP1 ISZERO PUSH2 0x11EA JUMPI POP DUP3 PUSH20 0xFFFFFFFFFFFFFFFFFFFFFFFFFFFFFFFFFFFFFFFF AND DUP2 PUSH20 0xFFFFFFFFFFFFFFFFFFFFFFFFFFFFFFFFFFFFFFFF AND EQ ISZERO JUMPDEST DUP1 ISZERO PUSH2 0x11FD JUMPI POP PUSH2 0x11FB DUP2 DUP5 PUSH2 0x834 JUMP JUMPDEST ISZERO JUMPDEST ISZERO PUSH2 0x123F JUMPI DUP3 PUSH1 0x40 MLOAD PUSH32 0xA9FBF51F00000000000000000000000000000000000000000000000000000000 DUP2 MSTORE PUSH1 0x4 ADD PUSH2 0x1236 SWAP2 SWAP1 PUSH2 0x17BD JUMP JUMPDEST PUSH1 0x40 MLOAD DUP1 SWAP2 SUB SWAP1 REVERT JUMPDEST DUP2 ISZERO PUSH2 0x12A1 JUMPI DUP4 DUP6 PUSH20 0xFFFFFFFFFFFFFFFFFFFFFFFFFFFFFFFFFFFFFFFF AND DUP3 PUSH20 0xFFFFFFFFFFFFFFFFFFFFFFFFFFFFFFFFFFFFFFFF AND PUSH32 0x8C5BE1E5EBEC7D5BD14F71427D1E84F3DD0314C0F7B2291E5B200AC8C7C3B925 PUSH1 0x40 MLOAD PUSH1 0x40 MLOAD DUP1 SWAP2 SUB SWAP1 LOG4 JUMPDEST POP JUMPDEST DUP4 PUSH1 0x4 PUSH0 DUP6 DUP2 MSTORE PUSH1 0x20 ADD SWAP1 DUP2 MSTORE PUSH1 0x20 ADD PUSH0 KECCAK256 PUSH0 PUSH2 0x100 EXP DUP2 SLOAD DUP2 PUSH20 0xFFFFFFFFFFFFFFFFFFFFFFFFFFFFFFFFFFFFFFFF MUL NOT AND SWAP1 DUP4 PUSH20 0xFFFFFFFFFFFFFFFFFFFFFFFFFFFFFFFFFFFFFFFF AND MUL OR SWAP1 SSTORE POP POP POP POP POP JUMP JUMPDEST PUSH2 0x1303 DUP4 DUP4 DUP4 PUSH2 0x150C JUMP JUMPDEST PUSH2 0x13B6 JUMPI PUSH0 PUSH20 0xFFFFFFFFFFFFFFFFFFFFFFFFFFFFFFFFFFFFFFFF AND DUP4 PUSH20 0xFFFFFFFFFFFFFFFFFFFFFFFFFFFFFFFFFFFFFFFF AND SUB PUSH2 0x1377 JUMPI DUP1 PUSH1 0x40 MLOAD PUSH32 0x7E27328900000000000000000000000000000000000000000000000000000000 DUP2 MSTORE PUSH1 0x4 ADD PUSH2 0x136E SWAP2 SWAP1 PUSH2 0x18C8 JUMP JUMPDEST PUSH1 0x40 MLOAD DUP1 SWAP2 SUB SWAP1 REVERT JUMPDEST DUP2 DUP2 PUSH1 0x40 MLOAD PUSH32 0x177E802F00000000000000000000000000000000000000000000000000000000 DUP2 MSTORE PUSH1 0x4 ADD PUSH2 0x13AD SWAP3 SWAP2 SWAP1 PUSH2 0x1D92 JUMP JUMPDEST PUSH1 0x40 MLOAD DUP1 SWAP2 SUB SWAP1 REVERT JUMPDEST POP POP POP JUMP JUMPDEST PUSH0 PUSH0 PUSH0 SWAP1 POP PUSH27 0x184F03E93FF9F4DAA797ED6E38ED64BF6A1F010000000000000000 DUP4 LT PUSH2 0x1417 JUMPI PUSH27 0x184F03E93FF9F4DAA797ED6E38ED64BF6A1F010000000000000000 DUP4 DUP2 PUSH2 0x140D JUMPI PUSH2 0x140C PUSH2 0x1D65 JUMP JUMPDEST JUMPDEST DIV SWAP3 POP PUSH1 0x40 DUP2 ADD SWAP1 POP JUMPDEST PUSH14 0x4EE2D6D415B85ACEF8100000000 DUP4 LT PUSH2 0x1454 JUMPI PUSH14 0x4EE2D6D415B85ACEF8100000000 DUP4 DUP2 PUSH2 0x144A JUMPI PUSH2 0x1449 PUSH2 0x1D65 JUMP JUMPDEST JUMPDEST DIV SWAP3 POP PUSH1 0x20 DUP2 ADD SWAP1 POP JUMPDEST PUSH7 0x2386F26FC10000 DUP4 LT PUSH2 0x1483 JUMPI PUSH7 0x2386F26FC10000 DUP4 DUP2 PUSH2 0x1479 JUMPI PUSH2 0x1478 PUSH2 0x1D65 JUMP JUMPDEST JUMPDEST DIV SWAP3 POP PUSH1 0x10 DUP2 ADD SWAP1 POP JUMPDEST PUSH4 0x5F5E100 DUP4 LT PUSH2 0x14AC JUMPI PUSH4 0x5F5E100 DUP4 DUP2 PUSH2 0x14A2 JUMPI PUSH2 0x14A1 PUSH2 0x1D65 JUMP JUMPDEST JUMPDEST DIV SWAP3 POP PUSH1 0x8 DUP2 ADD SWAP1 POP JUMPDEST PUSH2 0x2710 DUP4 LT PUSH2 0x14D1 JUMPI PUSH2 0x2710 DUP4 DUP2 PUSH2 0x14C7 JUMPI PUSH2 0x14C6 PUSH2 0x1D65 JUMP JUMPDEST JUMPDEST DIV SWAP3 POP PUSH1 0x4 DUP2 ADD SWAP1 POP JUMPDEST PUSH1 0x64 DUP4 LT PUSH2 0x14F4 JUMPI PUSH1 0x64 DUP4 DUP2 PUSH2 0x14EA JUMPI PUSH2 0x14E9 PUSH2 0x1D65 JUMP JUMPDEST JUMPDEST DIV SWAP3 POP PUSH1 0x2 DUP2 ADD SWAP1 POP JUMPDEST PUSH1 0xA DUP4 LT PUSH2 0x1503 JUMPI PUSH1 0x1 DUP2 ADD SWAP1 POP JUMPDEST DUP1 SWAP2 POP POP SWAP2 SWAP1 POP JUMP JUMPDEST PUSH0 PUSH0 PUSH20 0xFFFFFFFFFFFFFFFFFFFFFFFFFFFFFFFFFFFFFFFF AND DUP4 PUSH20 0xFFFFFFFFFFFFFFFFFFFFFFFFFFFFFFFFFFFFFFFF AND EQ ISZERO DUP1 ISZERO PUSH2 0x15C3 JUMPI POP DUP3 PUSH20 0xFFFFFFFFFFFFFFFFFFFFFFFFFFFFFFFFFFFFFFFF AND DUP5 PUSH20 0xFFFFFFFFFFFFFFFFFFFFFFFFFFFFFFFFFFFFFFFF AND EQ DUP1 PUSH2 0x1584 JUMPI POP PUSH2 0x1583 DUP5 DUP5 PUSH2 0x834 JUMP JUMPDEST JUMPDEST DUP1 PUSH2 0x15C2 JUMPI POP DUP3 PUSH20 0xFFFFFFFFFFFFFFFFFFFFFFFFFFFFFFFFFFFFFFFF AND PUSH2 0x15AA DUP4 PUSH2 0x9B1 JUMP JUMPDEST PUSH20 0xFFFFFFFFFFFFFFFFFFFFFFFFFFFFFFFFFFFFFFFF AND EQ JUMPDEST JUMPDEST SWAP1 POP SWAP4 SWAP3 POP POP POP JUMP JUMPDEST PUSH0 PUSH1 0x40 MLOAD SWAP1 POP SWAP1 JUMP JUMPDEST PUSH0 PUSH0 REVERT JUMPDEST PUSH0 PUSH0 REVERT JUMPDEST PUSH0 PUSH32 0xFFFFFFFF00000000000000000000000000000000000000000000000000000000 DUP3 AND SWAP1 POP SWAP2 SWAP1 POP JUMP JUMPDEST PUSH2 0x1611 DUP2 PUSH2 0x15DD JUMP JUMPDEST DUP2 EQ PUSH2 0x161B JUMPI PUSH0 PUSH0 REVERT JUMPDEST POP JUMP JUMPDEST PUSH0 DUP2 CALLDATALOAD SWAP1 POP PUSH2 0x162C DUP2 PUSH2 0x1608 JUMP JUMPDEST SWAP3 SWAP2 POP POP JUMP JUMPDEST PUSH0 PUSH1 0x20 DUP3 DUP5 SUB SLT ISZERO PUSH2 0x1647 JUMPI PUSH2 0x1646 PUSH2 0x15D5 JUMP JUMPDEST JUMPDEST PUSH0 PUSH2 0x1654 DUP5 DUP3 DUP6 ADD PUSH2 0x161E JUMP JUMPDEST SWAP2 POP POP SWAP3 SWAP2 POP POP JUMP JUMPDEST PUSH0 DUP2 ISZERO ISZERO SWAP1 POP SWAP2 SWAP1 POP JUMP JUMPDEST PUSH2 0x1671 DUP2 PUSH2 0x165D JUMP JUMPDEST DUP3 MSTORE POP POP JUMP JUMPDEST PUSH0 PUSH1 0x20 DUP3 ADD SWAP1 POP PUSH2 0x168A PUSH0 DUP4 ADD DUP5 PUSH2 0x1668 JUMP JUMPDEST SWAP3 SWAP2 POP POP JUMP JUMPDEST PUSH0 DUP2 MLOAD SWAP1 POP SWAP2 SWAP1 POP JUMP JUMPDEST PUSH0 DUP3 DUP3 MSTORE PUSH1 0x20 DUP3 ADD SWAP1 POP SWAP3 SWAP2 POP POP JUMP JUMPDEST DUP3 DUP2 DUP4 MCOPY PUSH0 DUP4 DUP4 ADD MSTORE POP POP POP JUMP JUMPDEST PUSH0 PUSH1 0x1F NOT PUSH1 0x1F DUP4 ADD AND SWAP1 POP SWAP2 SWAP1 POP JUMP JUMPDEST PUSH0 PUSH2 0x16D2 DUP3 PUSH2 0x1690 JUMP JUMPDEST PUSH2 0x16DC DUP2 DUP6 PUSH2 0x169A JUMP JUMPDEST SWAP4 POP PUSH2 0x16EC DUP2 DUP6 PUSH1 0x20 DUP7 ADD PUSH2 0x16AA JUMP JUMPDEST PUSH2 0x16F5 DUP2 PUSH2 0x16B8 JUMP JUMPDEST DUP5 ADD SWAP2 POP POP SWAP3 SWAP2 POP POP JUMP JUMPDEST PUSH0 PUSH1 0x20 DUP3 ADD SWAP1 POP DUP2 DUP2 SUB PUSH0 DUP4 ADD MSTORE PUSH2 0x1718 DUP2 DUP5 PUSH2 0x16C8 JUMP JUMPDEST SWAP1 POP SWAP3 SWAP2 POP POP JUMP JUMPDEST PUSH0 DUP2 SWAP1 POP SWAP2 SWAP1 POP JUMP JUMPDEST PUSH2 0x1732 DUP2 PUSH2 0x1720 JUMP JUMPDEST DUP2 EQ PUSH2 0x173C JUMPI PUSH0 PUSH0 REVERT JUMPDEST POP JUMP JUMPDEST PUSH0 DUP2 CALLDATALOAD SWAP1 POP PUSH2 0x174D DUP2 PUSH2 0x1729 JUMP JUMPDEST SWAP3 SWAP2 POP POP JUMP JUMPDEST PUSH0 PUSH1 0x20 DUP3 DUP5 SUB SLT ISZERO PUSH2 0x1768 JUMPI PUSH2 0x1767 PUSH2 0x15D5 JUMP JUMPDEST JUMPDEST PUSH0 PUSH2 0x1775 DUP5 DUP3 DUP6 ADD PUSH2 0x173F JUMP JUMPDEST SWAP2 POP POP SWAP3 SWAP2 POP POP JUMP JUMPDEST PUSH0 PUSH20 0xFFFFFFFFFFFFFFFFFFFFFFFFFFFFFFFFFFFFFFFF DUP3 AND SWAP1 POP SWAP2 SWAP1 POP JUMP JUMPDEST PUSH0 PUSH2 0x17A7 DUP3 PUSH2 0x177E JUMP JUMPDEST SWAP1 POP SWAP2 SWAP1 POP JUMP JUMPDEST PUSH2 0x17B7 DUP2 PUSH2 0x179D JUMP JUMPDEST DUP3 MSTORE POP POP JUMP JUMPDEST PUSH0 PUSH1 0x20 DUP3 ADD SWAP1 POP PUSH2 0x17D0 PUSH0 DUP4 ADD DUP5 PUSH2 0x17AE JUMP JUMPDEST SWAP3 SWAP2 POP POP JUMP JUMPDEST PUSH2 0x17DF DUP2 PUSH2 0x179D JUMP JUMPDEST DUP2 EQ PUSH2 0x17E9 JUMPI PUSH0 PUSH0 REVERT JUMPDEST POP JUMP JUMPDEST PUSH0 DUP2 CALLDATALOAD SWAP1 POP PUSH2 0x17FA DUP2 PUSH2 0x17D6 JUMP JUMPDEST SWAP3 SWAP2 POP POP JUMP JUMPDEST PUSH0 PUSH0 PUSH1 0x40 DUP4 DUP6 SUB SLT ISZERO PUSH2 0x1816 JUMPI PUSH2 0x1815 PUSH2 0x15D5 JUMP JUMPDEST JUMPDEST PUSH0 PUSH2 0x1823 DUP6 DUP3 DUP7 ADD PUSH2 0x17EC JUMP JUMPDEST SWAP3 POP POP PUSH1 0x20 PUSH2 0x1834 DUP6 DUP3 DUP7 ADD PUSH2 0x173F JUMP JUMPDEST SWAP2 POP POP SWAP3 POP SWAP3 SWAP1 POP JUMP JUMPDEST PUSH0 PUSH0 PUSH0 PUSH1 0x60 DUP5 DUP7 SUB SLT ISZERO PUSH2 0x1855 JUMPI PUSH2 0x1854 PUSH2 0x15D5 JUMP JUMPDEST JUMPDEST PUSH0 PUSH2 0x1862 DUP7 DUP3 DUP8 ADD PUSH2 0x17EC JUMP JUMPDEST SWAP4 POP POP PUSH1 0x20 PUSH2 0x1873 DUP7 DUP3 DUP8 ADD PUSH2 0x17EC JUMP JUMPDEST SWAP3 POP POP PUSH1 0x40 PUSH2 0x1884 DUP7 DUP3 DUP8 ADD PUSH2 0x173F JUMP JUMPDEST SWAP2 POP POP SWAP3 POP SWAP3 POP SWAP3 JUMP JUMPDEST PUSH0 PUSH1 0x20 DUP3 DUP5 SUB SLT ISZERO PUSH2 0x18A3 JUMPI PUSH2 0x18A2 PUSH2 0x15D5 JUMP JUMPDEST JUMPDEST PUSH0 PUSH2 0x18B0 DUP5 DUP3 DUP6 ADD PUSH2 0x17EC JUMP JUMPDEST SWAP2 POP POP SWAP3 SWAP2 POP POP JUMP JUMPDEST PUSH2 0x18C2 DUP2 PUSH2 0x1720 JUMP JUMPDEST DUP3 MSTORE POP POP JUMP JUMPDEST PUSH0 PUSH1 0x20 DUP3 ADD SWAP1 POP PUSH2 0x18DB PUSH0 DUP4 ADD DUP5 PUSH2 0x18B9 JUMP JUMPDEST SWAP3 SWAP2 POP POP JUMP JUMPDEST PUSH2 0x18EA DUP2 PUSH2 0x165D JUMP JUMPDEST DUP2 EQ PUSH2 0x18F4 JUMPI PUSH0 PUSH0 REVERT JUMPDEST POP JUMP JUMPDEST PUSH0 DUP2 CALLDATALOAD SWAP1 POP PUSH2 0x1905 DUP2 PUSH2 0x18E1 JUMP JUMPDEST SWAP3 SWAP2 POP POP JUMP JUMPDEST PUSH0 PUSH0 PUSH1 0x40 DUP4 DUP6 SUB SLT ISZERO PUSH2 0x1921 JUMPI PUSH2 0x1920 PUSH2 0x15D5 JUMP JUMPDEST JUMPDEST PUSH0 PUSH2 0x192E DUP6 DUP3 DUP7 ADD PUSH2 0x17EC JUMP JUMPDEST SWAP3 POP POP PUSH1 0x20 PUSH2 0x193F DUP6 DUP3 DUP7 ADD PUSH2 0x18F7 JUMP JUMPDEST SWAP2 POP POP SWAP3 POP SWAP3 SWAP1 POP JUMP JUMPDEST PUSH0 PUSH0 REVERT JUMPDEST PUSH0 PUSH0 REVERT JUMPDEST PUSH32 0x4E487B7100000000000000000000000000000000000000000000000000000000 PUSH0 MSTORE PUSH1 0x41 PUSH1 0x4 MSTORE PUSH1 0x24 PUSH0 REVERT JUMPDEST PUSH2 0x1987 DUP3 PUSH2 0x16B8 JUMP JUMPDEST DUP2 ADD DUP2 DUP2 LT PUSH8 0xFFFFFFFFFFFFFFFF DUP3 GT OR ISZERO PUSH2 0x19A6 JUMPI PUSH2 0x19A5 PUSH2 0x1951 JUMP JUMPDEST JUMPDEST DUP1 PUSH1 0x40 MSTORE POP POP POP JUMP JUMPDEST PUSH0 PUSH2 0x19B8 PUSH2 0x15CC JUMP JUMPDEST SWAP1 POP PUSH2 0x19C4 DUP3 DUP3 PUSH2 0x197E JUMP JUMPDEST SWAP2 SWAP1 POP JUMP JUMPDEST PUSH0 PUSH8 0xFFFFFFFFFFFFFFFF DUP3 GT ISZERO PUSH2 0x19E3 JUMPI PUSH2 0x19E2 PUSH2 0x1951 JUMP JUMPDEST JUMPDEST PUSH2 0x19EC DUP3 PUSH2 0x16B8 JUMP JUMPDEST SWAP1 POP PUSH1 0x20 DUP2 ADD SWAP1 POP SWAP2 SWAP1 POP JUMP JUMPDEST DUP3 DUP2 DUP4 CALLDATACOPY PUSH0 DUP4 DUP4 ADD MSTORE POP POP POP JUMP JUMPDEST PUSH0 PUSH2 0x1A19 PUSH2 0x1A14 DUP5 PUSH2 0x19C9 JUMP JUMPDEST PUSH2 0x19AF JUMP JUMPDEST SWAP1 POP DUP3 DUP2 MSTORE PUSH1 0x20 DUP2 ADD DUP5 DUP5 DUP5 ADD GT ISZERO PUSH2 0x1A35 JUMPI PUSH2 0x1A34 PUSH2 0x194D JUMP JUMPDEST JUMPDEST PUSH2 0x1A40 DUP5 DUP3 DUP6 PUSH2 0x19F9 JUMP JUMPDEST POP SWAP4 SWAP3 POP POP POP JUMP JUMPDEST PUSH0 DUP3 PUSH1 0x1F DUP4 ADD SLT PUSH2 0x1A5C JUMPI PUSH2 0x1A5B PUSH2 0x1949 JUMP JUMPDEST JUMPDEST DUP2 CALLDATALOAD PUSH2 0x1A6C DUP5 DUP3 PUSH1 0x20 DUP7 ADD PUSH2 0x1A07 JUMP JUMPDEST SWAP2 POP POP SWAP3 SWAP2 POP POP JUMP JUMPDEST PUSH0 PUSH0 PUSH0 PUSH0 PUSH1 0x80 DUP6 DUP8 SUB SLT ISZERO PUSH2 0x1A8D JUMPI PUSH2 0x1A8C PUSH2 0x15D5 JUMP JUMPDEST JUMPDEST PUSH0 PUSH2 0x1A9A DUP8 DUP3 DUP9 ADD PUSH2 0x17EC JUMP JUMPDEST SWAP5 POP POP PUSH1 0x20 PUSH2 0x1AAB DUP8 DUP3 DUP9 ADD PUSH2 0x17EC JUMP JUMPDEST SWAP4 POP POP PUSH1 0x40 PUSH2 0x1ABC DUP8 DUP3 DUP9 ADD PUSH2 0x173F JUMP JUMPDEST SWAP3 POP POP PUSH1 0x60 DUP6 ADD CALLDATALOAD PUSH8 0xFFFFFFFFFFFFFFFF DUP2 GT ISZERO PUSH2 0x1ADD JUMPI PUSH2 0x1ADC PUSH2 0x15D9 JUMP JUMPDEST JUMPDEST PUSH2 0x1AE9 DUP8 DUP3 DUP9 ADD PUSH2 0x1A48 JUMP JUMPDEST SWAP2 POP POP SWAP3 SWAP6 SWAP2 SWAP5 POP SWAP3 POP JUMP JUMPDEST PUSH0 PUSH0 PUSH1 0x40 DUP4 DUP6 SUB SLT ISZERO PUSH2 0x1B0B JUMPI PUSH2 0x1B0A PUSH2 0x15D5 JUMP JUMPDEST JUMPDEST PUSH0 PUSH2 0x1B18 DUP6 DUP3 DUP7 ADD PUSH2 0x17EC JUMP JUMPDEST SWAP3 POP POP PUSH1 0x20 PUSH2 0x1B29 DUP6 DUP3 DUP7 ADD PUSH2 0x17EC JUMP JUMPDEST SWAP2 POP POP SWAP3 POP SWAP3 SWAP1 POP JUMP JUMPDEST PUSH32 0x4E487B7100000000000000000000000000000000000000000000000000000000 PUSH0 MSTORE PUSH1 0x22 PUSH1 0x4 MSTORE PUSH1 0x24 PUSH0 REVERT JUMPDEST PUSH0 PUSH1 0x2 DUP3 DIV SWAP1 POP PUSH1 0x1 DUP3 AND DUP1 PUSH2 0x1B77 JUMPI PUSH1 0x7F DUP3 AND SWAP2 POP JUMPDEST PUSH1 0x20 DUP3 LT DUP2 SUB PUSH2 0x1B8A JUMPI PUSH2 0x1B89 PUSH2 0x1B33 JUMP JUMPDEST JUMPDEST POP SWAP2 SWAP1 POP JUMP JUMPDEST PUSH0 PUSH1 0x60 DUP3 ADD SWAP1 POP PUSH2 0x1BA3 PUSH0 DUP4 ADD DUP7 PUSH2 0x17AE JUMP JUMPDEST PUSH2 0x1BB0 PUSH1 0x20 DUP4 ADD DUP6 PUSH2 0x18B9 JUMP JUMPDEST PUSH2 0x1BBD PUSH1 0x40 DUP4 ADD DUP5 PUSH2 0x17AE JUMP JUMPDEST SWAP5 SWAP4 POP POP POP POP JUMP JUMPDEST PUSH32 0x746F6B656E4964206F7574206F662072616E6765000000000000000000000000 PUSH0 DUP3 ADD MSTORE POP JUMP JUMPDEST PUSH0 PUSH2 0x1BF9 PUSH1 0x14 DUP4 PUSH2 0x169A JUMP JUMPDEST SWAP2 POP PUSH2 0x1C04 DUP3 PUSH2 0x1BC5 JUMP JUMPDEST PUSH1 0x20 DUP3 ADD SWAP1 POP SWAP2 SWAP1 POP JUMP JUMPDEST PUSH0 PUSH1 0x20 DUP3 ADD SWAP1 POP DUP2 DUP2 SUB PUSH0 DUP4 ADD MSTORE PUSH2 0x1C26 DUP2 PUSH2 0x1BED JUMP JUMPDEST SWAP1 POP SWAP2 SWAP1 POP JUMP JUMPDEST PUSH0 DUP2 SWAP1 POP SWAP3 SWAP2 POP POP JUMP JUMPDEST PUSH0 PUSH2 0x1C41 DUP3 PUSH2 0x1690 JUMP JUMPDEST PUSH2 0x1C4B DUP2 DUP6 PUSH2 0x1C2D JUMP JUMPDEST SWAP4 POP PUSH2 0x1C5B DUP2 DUP6 PUSH1 0x20 DUP7 ADD PUSH2 0x16AA JUMP JUMPDEST DUP1 DUP5 ADD SWAP2 POP POP SWAP3 SWAP2 POP POP JUMP JUMPDEST PUSH0 PUSH2 0x1C72 DUP3 DUP6 PUSH2 0x1C37 JUMP JUMPDEST SWAP2 POP PUSH2 0x1C7E DUP3 DUP5 PUSH2 0x1C37 JUMP JUMPDEST SWAP2 POP DUP2 SWAP1 POP SWAP4 SWAP3 POP POP POP JUMP JUMPDEST PUSH0 DUP2 MLOAD SWAP1 POP SWAP2 SWAP1 POP JUMP JUMPDEST PUSH0 DUP3 DUP3 MSTORE PUSH1 0x20 DUP3 ADD SWAP1 POP SWAP3 SWAP2 POP POP JUMP JUMPDEST PUSH0 PUSH2 0x1CAE DUP3 PUSH2 0x1C8A JUMP JUMPDEST PUSH2 0x1CB8 DUP2 DUP6 PUSH2 0x1C94 JUMP JUMPDEST SWAP4 POP PUSH2 0x1CC8 DUP2 DUP6 PUSH1 0x20 DUP7 ADD PUSH2 0x16AA JUMP JUMPDEST PUSH2 0x1CD1 DUP2 PUSH2 0x16B8 JUMP JUMPDEST DUP5 ADD SWAP2 POP POP SWAP3 SWAP2 POP POP JUMP JUMPDEST PUSH0 PUSH1 0x80 DUP3 ADD SWAP1 POP PUSH2 0x1CEF PUSH0 DUP4 ADD DUP8 PUSH2 0x17AE JUMP JUMPDEST PUSH2 0x1CFC PUSH1 0x20 DUP4 ADD DUP7 PUSH2 0x17AE JUMP JUMPDEST PUSH2 0x1D09 PUSH1 0x40 DUP4 ADD DUP6 PUSH2 0x18B9 JUMP JUMPDEST DUP2 DUP2 SUB PUSH1 0x60 DUP4 ADD MSTORE PUSH2 0x1D1B DUP2 DUP5 PUSH2 0x1CA4 JUMP JUMPDEST SWAP1 POP SWAP6 SWAP5 POP POP POP POP POP JUMP JUMPDEST PUSH0 DUP2 MLOAD SWAP1 POP PUSH2 0x1D34 DUP2 PUSH2 0x1608 JUMP JUMPDEST SWAP3 SWAP2 POP POP JUMP JUMPDEST PUSH0 PUSH1 0x20 DUP3 DUP5 SUB SLT ISZERO PUSH2 0x1D4F JUMPI PUSH2 0x1D4E PUSH2 0x15D5 JUMP JUMPDEST JUMPDEST PUSH0 PUSH2 0x1D5C DUP5 DUP3 DUP6 ADD PUSH2 0x1D26 JUMP JUMPDEST SWAP2 POP POP SWAP3 SWAP2 POP POP JUMP JUMPDEST PUSH32 0x4E487B7100000000000000000000000000000000000000000000000000000000 PUSH0 MSTORE PUSH1 0x12 PUSH1 0x4 MSTORE PUSH1 0x24 PUSH0 REVERT JUMPDEST PUSH0 PUSH1 0x40 DUP3 ADD SWAP1 POP PUSH2 0x1DA5 PUSH0 DUP4 ADD DUP6 PUSH2 0x17AE JUMP JUMPDEST PUSH2 0x1DB2 PUSH1 0x20 DUP4 ADD DUP5 PUSH2 0x18B9 JUMP JUMPDEST SWAP4 SWAP3 POP POP POP JUMP INVALID PUSH10 0x7066733A2F2F516D6553 PUSH11 0x53696E4870506E6D586D73 PUSH17 0x4D6A776958794E367A533445397A636361 PUSH19 0x694752336A7863615774712FA2646970667358 0x22 SLT KECCAK256 STOP SWAP10 CALLF 0xF05A GASLIMIT SMOD EXTCODECOPY 0xDF 0xA7 PUSH24 0x5737EDF236D0F89A6856941EDE678B395F2715ECF164736F PUSH13 0x634300081D0033000000000000 "
		},
		"gasEstimates": {
			"creation": {
				"codeDepositCost": "1543400",
				"executionCost": "infinite",
				"totalCost": "infinite"
			},
			"external": {
				"MAX_APES()": "2469",
				"approve(address,uint256)": "infinite",
				"balanceOf(address)": "infinite",
				"getApproved(uint256)": "infinite",
				"isApprovedForAll(address,address)": "infinite",
				"mint(address,uint256)": "infinite",
				"name()": "infinite",
				"ownerOf(uint256)": "infinite",
				"safeTransferFrom(address,address,uint256)": "infinite",
				"safeTransferFrom(address,address,uint256,bytes)": "infinite",
				"setApprovalForAll(address,bool)": "infinite",
				"supportsInterface(bytes4)": "787",
				"symbol()": "infinite",
				"tokenURI(uint256)": "infinite",
				"transferFrom(address,address,uint256)": "infinite"
			},
			"internal": {
				"_baseURI()": "infinite"
			}
		},
		"methodIdentifiers": {
			"MAX_APES()": "bb8a16bd",
			"approve(address,uint256)": "095ea7b3",
			"balanceOf(address)": "70a08231",
			"getApproved(uint256)": "081812fc",
			"isApprovedForAll(address,address)": "e985e9c5",
			"mint(address,uint256)": "40c10f19",
			"name()": "06fdde03",
			"ownerOf(uint256)": "6352211e",
			"safeTransferFrom(address,address,uint256)": "42842e0e",
			"safeTransferFrom(address,address,uint256,bytes)": "b88d4fde",
			"setApprovalForAll(address,bool)": "a22cb465",
			"supportsInterface(bytes4)": "01ffc9a7",
			"symbol()": "95d89b41",
			"tokenURI(uint256)": "c87b56dd",
			"transferFrom(address,address,uint256)": "23b872dd"
		}
	},
	"abi": [
		{
			"inputs": [
				{
					"internalType": "string",
					"name": "name_",
					"type": "string"
				},
				{
					"internalType": "string",
					"name": "symbol_",
					"type": "string"
				}
			],
			"stateMutability": "nonpayable",
			"type": "constructor"
		},
		{
			"inputs": [
				{
					"internalType": "address",
					"name": "sender",
					"type": "address"
				},
				{
					"internalType": "uint256",
					"name": "tokenId",
					"type": "uint256"
				},
				{
					"internalType": "address",
					"name": "owner",
					"type": "address"
				}
			],
			"name": "ERC721IncorrectOwner",
			"type": "error"
		},
		{
			"inputs": [
				{
					"internalType": "address",
					"name": "operator",
					"type": "address"
				},
				{
					"internalType": "uint256",
					"name": "tokenId",
					"type": "uint256"
				}
			],
			"name": "ERC721InsufficientApproval",
			"type": "error"
		},
		{
			"inputs": [
				{
					"internalType": "address",
					"name": "approver",
					"type": "address"
				}
			],
			"name": "ERC721InvalidApprover",
			"type": "error"
		},
		{
			"inputs": [
				{
					"internalType": "address",
					"name": "operator",
					"type": "address"
				}
			],
			"name": "ERC721InvalidOperator",
			"type": "error"
		},
		{
			"inputs": [
				{
					"internalType": "address",
					"name": "owner",
					"type": "address"
				}
			],
			"name": "ERC721InvalidOwner",
			"type": "error"
		},
		{
			"inputs": [
				{
					"internalType": "address",
					"name": "receiver",
					"type": "address"
				}
			],
			"name": "ERC721InvalidReceiver",
			"type": "error"
		},
		{
			"inputs": [
				{
					"internalType": "address",
					"name": "sender",
					"type": "address"
				}
			],
			"name": "ERC721InvalidSender",
			"type": "error"
		},
		{
			"inputs": [
				{
					"internalType": "uint256",
					"name": "tokenId",
					"type": "uint256"
				}
			],
			"name": "ERC721NonexistentToken",
			"type": "error"
		},
		{
			"anonymous": false,
			"inputs": [
				{
					"indexed": true,
					"internalType": "address",
					"name": "owner",
					"type": "address"
				},
				{
					"indexed": true,
					"internalType": "address",
					"name": "approved",
					"type": "address"
				},
				{
					"indexed": true,
					"internalType": "uint256",
					"name": "tokenId",
					"type": "uint256"
				}
			],
			"name": "Approval",
			"type": "event"
		},
		{
			"anonymous": false,
			"inputs": [
				{
					"indexed": true,
					"internalType": "address",
					"name": "owner",
					"type": "address"
				},
				{
					"indexed": true,
					"internalType": "address",
					"name": "operator",
					"type": "address"
				},
				{
					"indexed": false,
					"internalType": "bool",
					"name": "approved",
					"type": "bool"
				}
			],
			"name": "ApprovalForAll",
			"type": "event"
		},
		{
			"anonymous": false,
			"inputs": [
				{
					"indexed": true,
					"internalType": "address",
					"name": "from",
					"type": "address"
				},
				{
					"indexed": true,
					"internalType": "address",
					"name": "to",
					"type": "address"
				},
				{
					"indexed": true,
					"internalType": "uint256",
					"name": "tokenId",
					"type": "uint256"
				}
			],
			"name": "Transfer",
			"type": "event"
		},
		{
			"inputs": [],
			"name": "MAX_APES",
			"outputs": [
				{
					"internalType": "uint256",
					"name": "",
					"type": "uint256"
				}
			],
			"stateMutability": "view",
			"type": "function"
		},
		{
			"inputs": [
				{
					"internalType": "address",
					"name": "to",
					"type": "address"
				},
				{
					"internalType": "uint256",
					"name": "tokenId",
					"type": "uint256"
				}
			],
			"name": "approve",
			"outputs": [],
			"stateMutability": "nonpayable",
			"type": "function"
		},
		{
			"inputs": [
				{
					"internalType": "address",
					"name": "owner",
					"type": "address"
				}
			],
			"name": "balanceOf",
			"outputs": [
				{
					"internalType": "uint256",
					"name": "",
					"type": "uint256"
				}
			],
			"stateMutability": "view",
			"type": "function"
		},
		{
			"inputs": [
				{
					"internalType": "uint256",
					"name": "tokenId",
					"type": "uint256"
				}
			],
			"name": "getApproved",
			"outputs": [
				{
					"internalType": "address",
					"name": "",
					"type": "address"
				}
			],
			"stateMutability": "view",
			"type": "function"
		},
		{
			"inputs": [
				{
					"internalType": "address",
					"name": "owner",
					"type": "address"
				},
				{
					"internalType": "address",
					"name": "operator",
					"type": "address"
				}
			],
			"name": "isApprovedForAll",
			"outputs": [
				{
					"internalType": "bool",
					"name": "",
					"type": "bool"
				}
			],
			"stateMutability": "view",
			"type": "function"
		},
		{
			"inputs": [
				{
					"internalType": "address",
					"name": "to",
					"type": "address"
				},
				{
					"internalType": "uint256",
					"name": "tokenId",
					"type": "uint256"
				}
			],
			"name": "mint",
			"outputs": [],
			"stateMutability": "nonpayable",
			"type": "function"
		},
		{
			"inputs": [],
			"name": "name",
			"outputs": [
				{
					"internalType": "string",
					"name": "",
					"type": "string"
				}
			],
			"stateMutability": "view",
			"type": "function"
		},
		{
			"inputs": [
				{
					"internalType": "uint256",
					"name": "tokenId",
					"type": "uint256"
				}
			],
			"name": "ownerOf",
			"outputs": [
				{
					"internalType": "address",
					"name": "",
					"type": "address"
				}
			],
			"stateMutability": "view",
			"type": "function"
		},
		{
			"inputs": [
				{
					"internalType": "address",
					"name": "from",
					"type": "address"
				},
				{
					"internalType": "address",
					"name": "to",
					"type": "address"
				},
				{
					"internalType": "uint256",
					"name": "tokenId",
					"type": "uint256"
				}
			],
			"name": "safeTransferFrom",
			"outputs": [],
			"stateMutability": "nonpayable",
			"type": "function"
		},
		{
			"inputs": [
				{
					"internalType": "address",
					"name": "from",
					"type": "address"
				},
				{
					"internalType": "address",
					"name": "to",
					"type": "address"
				},
				{
					"internalType": "uint256",
					"name": "tokenId",
					"type": "uint256"
				},
				{
					"internalType": "bytes",
					"name": "data",
					"type": "bytes"
				}
			],
			"name": "safeTransferFrom",
			"outputs": [],
			"stateMutability": "nonpayable",
			"type": "function"
		},
		{
			"inputs": [
				{
					"internalType": "address",
					"name": "operator",
					"type": "address"
				},
				{
					"internalType": "bool",
					"name": "approved",
					"type": "bool"
				}
			],
			"name": "setApprovalForAll",
			"outputs": [],
			"stateMutability": "nonpayable",
			"type": "function"
		},
		{
			"inputs": [
				{
					"internalType": "bytes4",
					"name": "interfaceId",
					"type": "bytes4"
				}
			],
			"name": "supportsInterface",
			"outputs": [
				{
					"internalType": "bool",
					"name": "",
					"type": "bool"
				}
			],
			"stateMutability": "view",
			"type": "function"
		},
		{
			"inputs": [],
			"name": "symbol",
			"outputs": [
				{
					"internalType": "string",
					"name": "",
					"type": "string"
				}
			],
			"stateMutability": "view",
			"type": "function"
		},
		{
			"inputs": [
				{
					"internalType": "uint256",
					"name": "tokenId",
					"type": "uint256"
				}
			],
			"name": "tokenURI",
			"outputs": [
				{
					"internalType": "string",
					"name": "",
					"type": "string"
				}
			],
			"stateMutability": "view",
			"type": "function"
		},
		{
			"inputs": [
				{
					"internalType": "address",
					"name": "from",
					"type": "address"
				},
				{
					"internalType": "address",
					"name": "to",
					"type": "address"
				},
				{
					"internalType": "uint256",
					"name": "tokenId",
					"type": "uint256"
				}
			],
			"name": "transferFrom",
			"outputs": [],
			"stateMutability": "nonpayable",
			"type": "function"
		}
	]
}