{
	"data": {
		"bytecode": {
			"linkReferences": {},
			"object": "6080604052348015600e575f80fd5b506104488061001c5f395ff3fe608060405234801561000f575f80fd5b506004361061003f575f3560e01c8063222fbb8c146100435780632ed1d50c1461004d57806384e8c4521461006f575b5f80fd5b61004b6100a0565b005b61005561013f565b604051610066959493929190610202565b60405180910390f35b610089600480360381019061008491906102ab565b61015a565b6040516100979291906102e9565b60405180910390f35b5f7f68e4e0081e7a229ec0f60492b3a5f571e5cd91d40f883f76ec6bfc9efc4f31f990505f8161012360646040516024016100dc92919061035e565b604051602081830303815290604052907bffffffffffffffffffffffffffffffffffffffffffffffffffffffff19166020820180517bffffffffffffffffffffffffffffffffffffffffffffffffffffffff838183161783525050505090505050565b5f805f805f4194504393504492504591505a90509091929394565b5f805f84846040516020016101709291906102e9565b60405160208183030381529060405290505f808280602001905181019061019791906103d4565b915091508181945094505050509250929050565b5f73ffffffffffffffffffffffffffffffffffffffff82169050919050565b5f6101d4826101ab565b9050919050565b6101e4816101ca565b82525050565b5f819050919050565b6101fc816101ea565b82525050565b5f60a0820190506102155f8301886101db565b61022260208301876101f3565b61022f60408301866101f3565b61023c60608301856101f3565b61024960808301846101f3565b9695505050505050565b5f80fd5b610260816101ca565b811461026a575f80fd5b50565b5f8135905061027b81610257565b92915050565b61028a816101ea565b8114610294575f80fd5b50565b5f813590506102a581610281565b92915050565b5f80604083850312156102c1576102c0610253565b5b5f6102ce8582860161026d565b92505060206102df85828601610297565b9150509250929050565b5f6040820190506102fc5f8301856101db565b61030960208301846101f3565b9392505050565b5f819050919050565b5f60ff82169050919050565b5f819050919050565b5f61034861034361033e84610310565b610325565b610319565b9050919050565b6103588161032e565b82525050565b5f6040820190506103715f8301856101db565b61037e602083018461034f565b9392505050565b5f61038f826101ab565b9050919050565b61039f81610385565b81146103a9575f80fd5b50565b5f815190506103ba81610396565b92915050565b5f815190506103ce81610281565b92915050565b5f80604083850312156103ea576103e9610253565b5b5f6103f7858286016103ac565b9250506020610408858286016103c0565b915050925092905056fea26469706673582212201bc2b6aef24e3094ac4d033a83f9ac742fba86ca637a4446804f3a52dc6a5df464736f6c634300081a0033",
			"opcodes": "PUSH1 0x80 PUSH1 0x40 MSTORE CALLVALUE DUP1 ISZERO PUSH1 0xE JUMPI PUSH0 DUP1 REVERT JUMPDEST POP PUSH2 0x448 DUP1 PUSH2 0x1C PUSH0 CODECOPY PUSH0 RETURN INVALID PUSH1 0x80 PUSH1 0x40 MSTORE CALLVALUE DUP1 ISZERO PUSH2 0xF JUMPI PUSH0 DUP1 REVERT JUMPDEST POP PUSH1 0x4 CALLDATASIZE LT PUSH2 0x3F JUMPI PUSH0 CALLDATALOAD PUSH1 0xE0 SHR DUP1 PUSH4 0x222FBB8C EQ PUSH2 0x43 JUMPI DUP1 PUSH4 0x2ED1D50C EQ PUSH2 0x4D JUMPI DUP1 PUSH4 0x84E8C452 EQ PUSH2 0x6F JUMPI JUMPDEST PUSH0 DUP1 REVERT JUMPDEST PUSH2 0x4B PUSH2 0xA0 JUMP JUMPDEST STOP JUMPDEST PUSH2 0x55 PUSH2 0x13F JUMP JUMPDEST PUSH1 0x40 MLOAD PUSH2 0x66 SWAP6 SWAP5 SWAP4 SWAP3 SWAP2 SWAP1 PUSH2 0x202 JUMP JUMPDEST PUSH1 0x40 MLOAD DUP1 SWAP2 SUB SWAP1 RETURN JUMPDEST PUSH2 0x89 PUSH1 0x4 DUP1 CALLDATASIZE SUB DUP2 ADD SWAP1 PUSH2 0x84 SWAP2 SWAP1 PUSH2 0x2AB JUMP JUMPDEST PUSH2 0x15A JUMP JUMPDEST PUSH1 0x40 MLOAD PUSH2 0x97 SWAP3 SWAP2 SWAP1 PUSH2 0x2E9 JUMP JUMPDEST PUSH1 0x40 MLOAD DUP1 SWAP2 SUB SWAP1 RETURN JUMPDEST PUSH0 PUSH32 0x68E4E0081E7A229EC0F60492B3A5F571E5CD91D40F883F76EC6BFC9EFC4F31F9 SWAP1 POP PUSH0 DUP2 PUSH2 0x123 PUSH1 0x64 PUSH1 0x40 MLOAD PUSH1 0x24 ADD PUSH2 0xDC SWAP3 SWAP2 SWAP1 PUSH2 0x35E JUMP JUMPDEST PUSH1 0x40 MLOAD PUSH1 0x20 DUP2 DUP4 SUB SUB DUP2 MSTORE SWAP1 PUSH1 0x40 MSTORE SWAP1 PUSH28 0xFFFFFFFFFFFFFFFFFFFFFFFFFFFFFFFFFFFFFFFFFFFFFFFFFFFFFFFF NOT AND PUSH1 0x20 DUP3 ADD DUP1 MLOAD PUSH28 0xFFFFFFFFFFFFFFFFFFFFFFFFFFFFFFFFFFFFFFFFFFFFFFFFFFFFFFFF DUP4 DUP2 DUP4 AND OR DUP4 MSTORE POP POP POP POP SWAP1 POP POP POP JUMP JUMPDEST PUSH0 DUP1 PUSH0 DUP1 PUSH0 COINBASE SWAP5 POP NUMBER SWAP4 POP PREVRANDAO SWAP3 POP GASLIMIT SWAP2 POP GAS SWAP1 POP SWAP1 SWAP2 SWAP3 SWAP4 SWAP5 JUMP JUMPDEST PUSH0 DUP1 PUSH0 DUP5 DUP5 PUSH1 0x40 MLOAD PUSH1 0x20 ADD PUSH2 0x170 SWAP3 SWAP2 SWAP1 PUSH2 0x2E9 JUMP JUMPDEST PUSH1 0x40 MLOAD PUSH1 0x20 DUP2 DUP4 SUB SUB DUP2 MSTORE SWAP1 PUSH1 0x40 MSTORE SWAP1 POP PUSH0 DUP1 DUP3 DUP1 PUSH1 0x20 ADD SWAP1 MLOAD DUP2 ADD SWAP1 PUSH2 0x197 SWAP2 SWAP1 PUSH2 0x3D4 JUMP JUMPDEST SWAP2 POP SWAP2 POP DUP2 DUP2 SWAP5 POP SWAP5 POP POP POP POP SWAP3 POP SWAP3 SWAP1 POP JUMP JUMPDEST PUSH0 PUSH20 0xFFFFFFFFFFFFFFFFFFFFFFFFFFFFFFFFFFFFFFFF DUP3 AND SWAP1 POP SWAP2 SWAP1 POP JUMP JUMPDEST PUSH0 PUSH2 0x1D4 DUP3 PUSH2 0x1AB JUMP JUMPDEST SWAP1 POP SWAP2 SWAP1 POP JUMP JUMPDEST PUSH2 0x1E4 DUP2 PUSH2 0x1CA JUMP JUMPDEST DUP3 MSTORE POP POP JUMP JUMPDEST PUSH0 DUP2 SWAP1 POP SWAP2 SWAP1 POP JUMP JUMPDEST PUSH2 0x1FC DUP2 PUSH2 0x1EA JUMP JUMPDEST DUP3 MSTORE POP POP JUMP JUMPDEST PUSH0 PUSH1 0xA0 DUP3 ADD SWAP1 POP PUSH2 0x215 PUSH0 DUP4 ADD DUP9 PUSH2 0x1DB JUMP JUMPDEST PUSH2 0x222 PUSH1 0x20 DUP4 ADD DUP8 PUSH2 0x1F3 JUMP JUMPDEST PUSH2 0x22F PUSH1 0x40 DUP4 ADD DUP7 PUSH2 0x1F3 JUMP JUMPDEST PUSH2 0x23C PUSH1 0x60 DUP4 ADD DUP6 PUSH2 0x1F3 JUMP JUMPDEST PUSH2 0x249 PUSH1 0x80 DUP4 ADD DUP5 PUSH2 0x1F3 JUMP JUMPDEST SWAP7 SWAP6 POP POP POP POP POP POP JUMP JUMPDEST PUSH0 DUP1 REVERT JUMPDEST PUSH2 0x260 DUP2 PUSH2 0x1CA JUMP JUMPDEST DUP2 EQ PUSH2 0x26A JUMPI PUSH0 DUP1 REVERT JUMPDEST POP JUMP JUMPDEST PUSH0 DUP2 CALLDATALOAD SWAP1 POP PUSH2 0x27B DUP2 PUSH2 0x257 JUMP JUMPDEST SWAP3 SWAP2 POP POP JUMP JUMPDEST PUSH2 0x28A DUP2 PUSH2 0x1EA JUMP JUMPDEST DUP2 EQ PUSH2 0x294 JUMPI PUSH0 DUP1 REVERT JUMPDEST POP JUMP JUMPDEST PUSH0 DUP2 CALLDATALOAD SWAP1 POP PUSH2 0x2A5 DUP2 PUSH2 0x281 JUMP JUMPDEST SWAP3 SWAP2 POP POP JUMP JUMPDEST PUSH0 DUP1 PUSH1 0x40 DUP4 DUP6 SUB SLT ISZERO PUSH2 0x2C1 JUMPI PUSH2 0x2C0 PUSH2 0x253 JUMP JUMPDEST JUMPDEST PUSH0 PUSH2 0x2CE DUP6 DUP3 DUP7 ADD PUSH2 0x26D JUMP JUMPDEST SWAP3 POP POP PUSH1 0x20 PUSH2 0x2DF DUP6 DUP3 DUP7 ADD PUSH2 0x297 JUMP JUMPDEST SWAP2 POP POP SWAP3 POP SWAP3 SWAP1 POP JUMP JUMPDEST PUSH0 PUSH1 0x40 DUP3 ADD SWAP1 POP PUSH2 0x2FC PUSH0 DUP4 ADD DUP6 PUSH2 0x1DB JUMP JUMPDEST PUSH2 0x309 PUSH1 0x20 DUP4 ADD DUP5 PUSH2 0x1F3 JUMP JUMPDEST SWAP4 SWAP3 POP POP POP JUMP JUMPDEST PUSH0 DUP2 SWAP1 POP SWAP2 SWAP1 POP JUMP JUMPDEST PUSH0 PUSH1 0xFF DUP3 AND SWAP1 POP SWAP2 SWAP1 POP JUMP JUMPDEST PUSH0 DUP2 SWAP1 POP SWAP2 SWAP1 POP JUMP JUMPDEST PUSH0 PUSH2 0x348 PUSH2 0x343 PUSH2 0x33E DUP5 PUSH2 0x310 JUMP JUMPDEST PUSH2 0x325 JUMP JUMPDEST PUSH2 0x319 JUMP JUMPDEST SWAP1 POP SWAP2 SWAP1 POP JUMP JUMPDEST PUSH2 0x358 DUP2 PUSH2 0x32E JUMP JUMPDEST DUP3 MSTORE POP POP JUMP JUMPDEST PUSH0 PUSH1 0x40 DUP3 ADD SWAP1 POP PUSH2 0x371 PUSH0 DUP4 ADD DUP6 PUSH2 0x1DB JUMP JUMPDEST PUSH2 0x37E PUSH1 0x20 DUP4 ADD DUP5 PUSH2 0x34F JUMP JUMPDEST SWAP4 SWAP3 POP POP POP JUMP JUMPDEST PUSH0 PUSH2 0x38F DUP3 PUSH2 0x1AB JUMP JUMPDEST SWAP1 POP SWAP2 SWAP1 POP JUMP JUMPDEST PUSH2 0x39F DUP2 PUSH2 0x385 JUMP JUMPDEST DUP2 EQ PUSH2 0x3A9 JUMPI PUSH0 DUP1 REVERT JUMPDEST POP JUMP JUMPDEST PUSH0 DUP2 MLOAD SWAP1 POP PUSH2 0x3BA DUP2 PUSH2 0x396 JUMP JUMPDEST SWAP3 SWAP2 POP POP JUMP JUMPDEST PUSH0 DUP2 MLOAD SWAP1 POP PUSH2 0x3CE DUP2 PUSH2 0x281 JUMP JUMPDEST SWAP3 SWAP2 POP POP JUMP JUMPDEST PUSH0 DUP1 PUSH1 0x40 DUP4 DUP6 SUB SLT ISZERO PUSH2 0x3EA JUMPI PUSH2 0x3E9 PUSH2 0x253 JUMP JUMPDEST JUMPDEST PUSH0 PUSH2 0x3F7 DUP6 DUP3 DUP7 ADD PUSH2 0x3AC JUMP JUMPDEST SWAP3 POP POP PUSH1 0x20 PUSH2 0x408 DUP6 DUP3 DUP7 ADD PUSH2 0x3C0 JUMP JUMPDEST SWAP2 POP POP SWAP3 POP SWAP3 SWAP1 POP JUMP INVALID LOG2 PUSH5 0x6970667358 0x22 SLT KECCAK256 SHL 0xC2 0xB6 0xAE CALLCODE 0x4E ADDRESS SWAP5 0xAC 0x4D SUB GASPRICE DUP4 0xF9 0xAC PUSH21 0x2FBA86CA637A4446804F3A52DC6A5DF464736F6C63 NUMBER STOP ADDMOD BYTE STOP CALLER "
		},
		"gasEstimates": {
			"creation": {
				"codeDepositCost": "219200",
				"executionCost": "261",
				"totalCost": "219461"
			},
			"external": {
				"decodeTest(address,uint256)": "infinite",
				"decodeTest02()": "695",
				"outputBlock()": "infinite"
			}
		},
		"methodIdentifiers": {
			"decodeTest(address,uint256)": "84e8c452",
			"decodeTest02()": "222fbb8c",
			"outputBlock()": "2ed1d50c"
		}
	},
	"abi": [
		{
			"inputs": [
				{
					"internalType": "address",
					"name": "_user",
					"type": "address"
				},
				{
					"internalType": "uint256",
					"name": "_value",
					"type": "uint256"
				}
			],
			"name": "decodeTest",
			"outputs": [
				{
					"internalType": "address",
					"name": "",
					"type": "address"
				},
				{
					"internalType": "uint256",
					"name": "",
					"type": "uint256"
				}
			],
			"stateMutability": "pure",
			"type": "function"
		},
		{
			"inputs": [],
			"name": "decodeTest02",
			"outputs": [],
			"stateMutability": "pure",
			"type": "function"
		},
		{
			"inputs": [],
			"name": "outputBlock",
			"outputs": [
				{
					"internalType": "address",
					"name": "coin",
					"type": "address"
				},
				{
					"internalType": "uint256",
					"name": "num",
					"type": "uint256"
				},
				{
					"internalType": "uint256",
					"name": "difficult",
					"type": "uint256"
				},
				{
					"internalType": "uint256",
					"name": "gasLimit",
					"type": "uint256"
				},
				{
					"internalType": "uint256",
					"name": "left",
					"type": "uint256"
				}
			],
			"stateMutability": "view",
			"type": "function"
		}
	]
}