{
	"contracts/second/test01.sol": {
		"bank": {
			"abi": [
				{
					"inputs": [],
					"stateMutability": "payable",
					"type": "constructor"
				},
				{
					"anonymous": false,
					"inputs": [
						{
							"indexed": false,
							"internalType": "address",
							"name": "_own",
							"type": "address"
						},
						{
							"indexed": false,
							"internalType": "uint256",
							"name": "a",
							"type": "uint256"
						}
					],
					"name": "dosirty",
					"type": "event"
				},
				{
					"anonymous": false,
					"inputs": [
						{
							"indexed": false,
							"internalType": "uint256",
							"name": "account",
							"type": "uint256"
						}
					],
					"name": "withdraw",
					"type": "event"
				},
				{
					"inputs": [],
					"name": "getBalance",
					"outputs": [
						{
							"internalType": "uint256",
							"name": "",
							"type": "uint256"
						}
					],
					"stateMutability": "view",
					"type": "function"
				},
				{
					"inputs": [],
					"name": "owner",
					"outputs": [
						{
							"internalType": "address",
							"name": "",
							"type": "address"
						}
					],
					"stateMutability": "view",
					"type": "function"
				},
				{
					"inputs": [],
					"name": "withdraw1",
					"outputs": [],
					"stateMutability": "nonpayable",
					"type": "function"
				},
				{
					"stateMutability": "payable",
					"type": "receive"
				}
			],
			"devdoc": {
				"kind": "dev",
				"methods": {},
				"version": 1
			},
			"evm": {
				"assembly": "    /* \"contracts/second/test01.sol\":61:688  contract bank{... */\n  mstore(0x40, 0xa0)\n    /* \"contracts/second/test01.sol\":355:365  msg.sender */\n  caller\n    /* \"contracts/second/test01.sol\":347:365  owner = msg.sender */\n  0xffffffffffffffffffffffffffffffffffffffff\n  and\n  0x80\n  dup2\n  0xffffffffffffffffffffffffffffffffffffffff\n  and\n  dup2\n  mstore\n  pop\n  pop\n    /* \"contracts/second/test01.sol\":61:688  contract bank{... */\n  mload(0x80)\n  codecopy(0x00, dataOffset(sub_0), dataSize(sub_0))\n  0x00\n  assignImmutable(\"0x2a80e1ef1d7842f27f2e6be0972bb708b9a135c38860dbe73c27c3486c34f4de\")\n  return(0x00, dataSize(sub_0))\nstop\n\nsub_0: assembly {\n        /* \"contracts/second/test01.sol\":61:688  contract bank{... */\n      mstore(0x40, 0x80)\n      jumpi(tag_1, lt(calldatasize, 0x04))\n      shr(0xe0, calldataload(0x00))\n      dup1\n      0x79efb0\n      eq\n      tag_3\n      jumpi\n      dup1\n      0x12065fe0\n      eq\n      tag_4\n      jumpi\n      dup1\n      0x8da5cb5b\n      eq\n      tag_5\n      jumpi\n      jump(tag_2)\n    tag_1:\n      jumpi(tag_2, calldatasize)\n        /* \"contracts/second/test01.sol\":265:295  dosirty(msg.sender, msg.value) */\n      0x7ab77505cca1347747a3b4c9806da295e5ad5632b15d8a6d1e817c37478e5349\n        /* \"contracts/second/test01.sol\":273:283  msg.sender */\n      caller\n        /* \"contracts/second/test01.sol\":285:294  msg.value */\n      callvalue\n        /* \"contracts/second/test01.sol\":265:295  dosirty(msg.sender, msg.value) */\n      mload(0x40)\n      tag_8\n      swap3\n      swap2\n      swap1\n      tag_9\n      jump\t// in\n    tag_8:\n      mload(0x40)\n      dup1\n      swap2\n      sub\n      swap1\n      log1\n        /* \"contracts/second/test01.sol\":61:688  contract bank{... */\n      stop\n    tag_2:\n      0x00\n      dup1\n      revert\n        /* \"contracts/second/test01.sol\":383:580  function withdraw1() external  {... */\n    tag_3:\n      callvalue\n      dup1\n      iszero\n      tag_10\n      jumpi\n      0x00\n      dup1\n      revert\n    tag_10:\n      pop\n      tag_11\n      tag_12\n      jump\t// in\n    tag_11:\n      stop\n        /* \"contracts/second/test01.sol\":589:685  function getBalance() public view returns(uint){... */\n    tag_4:\n      callvalue\n      dup1\n      iszero\n      tag_13\n      jumpi\n      0x00\n      dup1\n      revert\n    tag_13:\n      pop\n      tag_14\n      tag_15\n      jump\t// in\n    tag_14:\n      mload(0x40)\n      tag_16\n      swap2\n      swap1\n      tag_17\n      jump\t// in\n    tag_16:\n      mload(0x40)\n      dup1\n      swap2\n      sub\n      swap1\n      return\n        /* \"contracts/second/test01.sol\":101:131  address public immutable owner */\n    tag_5:\n      callvalue\n      dup1\n      iszero\n      tag_18\n      jumpi\n      0x00\n      dup1\n      revert\n    tag_18:\n      pop\n      tag_19\n      tag_20\n      jump\t// in\n    tag_19:\n      mload(0x40)\n      tag_21\n      swap2\n      swap1\n      tag_22\n      jump\t// in\n    tag_21:\n      mload(0x40)\n      dup1\n      swap2\n      sub\n      swap1\n      return\n        /* \"contracts/second/test01.sol\":383:580  function withdraw1() external  {... */\n    tag_12:\n        /* \"contracts/second/test01.sol\":444:454  msg.sender */\n      caller\n        /* \"contracts/second/test01.sol\":435:454  owner == msg.sender */\n      0xffffffffffffffffffffffffffffffffffffffff\n      and\n        /* \"contracts/second/test01.sol\":435:440  owner */\n      immutable(\"0x2a80e1ef1d7842f27f2e6be0972bb708b9a135c38860dbe73c27c3486c34f4de\")\n        /* \"contracts/second/test01.sol\":435:454  owner == msg.sender */\n      0xffffffffffffffffffffffffffffffffffffffff\n      and\n      eq\n        /* \"contracts/second/test01.sol\":427:479  require(owner == msg.sender,\"address is not valid!\") */\n      tag_24\n      jumpi\n      mload(0x40)\n      0x08c379a000000000000000000000000000000000000000000000000000000000\n      dup2\n      mstore\n      0x04\n      add\n      tag_25\n      swap1\n      tag_26\n      jump\t// in\n    tag_25:\n      mload(0x40)\n      dup1\n      swap2\n      sub\n      swap1\n      revert\n    tag_24:\n        /* \"contracts/second/test01.sol\":495:526  withdraw(address(this).balance) */\n      0x2e1a7d4d13322e7b96f9a57413e1525c250fb7a9021cf91d1540d5b69f16a49f\n        /* \"contracts/second/test01.sol\":504:525  address(this).balance */\n      selfbalance\n        /* \"contracts/second/test01.sol\":495:526  withdraw(address(this).balance) */\n      mload(0x40)\n      tag_27\n      swap2\n      swap1\n      tag_17\n      jump\t// in\n    tag_27:\n      mload(0x40)\n      dup1\n      swap2\n      sub\n      swap1\n      log1\n        /* \"contracts/second/test01.sol\":559:569  msg.sender */\n      caller\n        /* \"contracts/second/test01.sol\":537:571  selfdestruct(payable (msg.sender)) */\n      0xffffffffffffffffffffffffffffffffffffffff\n      and\n      selfdestruct\n        /* \"contracts/second/test01.sol\":589:685  function getBalance() public view returns(uint){... */\n    tag_15:\n        /* \"contracts/second/test01.sol\":631:635  uint */\n      0x00\n        /* \"contracts/second/test01.sol\":655:676  address(this).balance */\n      selfbalance\n        /* \"contracts/second/test01.sol\":647:676  return  address(this).balance */\n      swap1\n      pop\n        /* \"contracts/second/test01.sol\":589:685  function getBalance() public view returns(uint){... */\n      swap1\n      jump\t// out\n        /* \"contracts/second/test01.sol\":101:131  address public immutable owner */\n    tag_20:\n      immutable(\"0x2a80e1ef1d7842f27f2e6be0972bb708b9a135c38860dbe73c27c3486c34f4de\")\n      dup2\n      jump\t// out\n        /* \"#utility.yul\":7:133   */\n    tag_29:\n        /* \"#utility.yul\":44:51   */\n      0x00\n        /* \"#utility.yul\":84:126   */\n      0xffffffffffffffffffffffffffffffffffffffff\n        /* \"#utility.yul\":77:82   */\n      dup3\n        /* \"#utility.yul\":73:127   */\n      and\n        /* \"#utility.yul\":62:127   */\n      swap1\n      pop\n        /* \"#utility.yul\":7:133   */\n      swap2\n      swap1\n      pop\n      jump\t// out\n        /* \"#utility.yul\":139:235   */\n    tag_30:\n        /* \"#utility.yul\":176:183   */\n      0x00\n        /* \"#utility.yul\":205:229   */\n      tag_40\n        /* \"#utility.yul\":223:228   */\n      dup3\n        /* \"#utility.yul\":205:229   */\n      tag_29\n      jump\t// in\n    tag_40:\n        /* \"#utility.yul\":194:229   */\n      swap1\n      pop\n        /* \"#utility.yul\":139:235   */\n      swap2\n      swap1\n      pop\n      jump\t// out\n        /* \"#utility.yul\":241:359   */\n    tag_31:\n        /* \"#utility.yul\":328:352   */\n      tag_42\n        /* \"#utility.yul\":346:351   */\n      dup2\n        /* \"#utility.yul\":328:352   */\n      tag_30\n      jump\t// in\n    tag_42:\n        /* \"#utility.yul\":323:326   */\n      dup3\n        /* \"#utility.yul\":316:353   */\n      mstore\n        /* \"#utility.yul\":241:359   */\n      pop\n      pop\n      jump\t// out\n        /* \"#utility.yul\":365:442   */\n    tag_32:\n        /* \"#utility.yul\":402:409   */\n      0x00\n        /* \"#utility.yul\":431:436   */\n      dup2\n        /* \"#utility.yul\":420:436   */\n      swap1\n      pop\n        /* \"#utility.yul\":365:442   */\n      swap2\n      swap1\n      pop\n      jump\t// out\n        /* \"#utility.yul\":448:566   */\n    tag_33:\n        /* \"#utility.yul\":535:559   */\n      tag_45\n        /* \"#utility.yul\":553:558   */\n      dup2\n        /* \"#utility.yul\":535:559   */\n      tag_32\n      jump\t// in\n    tag_45:\n        /* \"#utility.yul\":530:533   */\n      dup3\n        /* \"#utility.yul\":523:560   */\n      mstore\n        /* \"#utility.yul\":448:566   */\n      pop\n      pop\n      jump\t// out\n        /* \"#utility.yul\":572:904   */\n    tag_9:\n        /* \"#utility.yul\":693:697   */\n      0x00\n        /* \"#utility.yul\":731:733   */\n      0x40\n        /* \"#utility.yul\":720:729   */\n      dup3\n        /* \"#utility.yul\":716:734   */\n      add\n        /* \"#utility.yul\":708:734   */\n      swap1\n      pop\n        /* \"#utility.yul\":744:815   */\n      tag_47\n        /* \"#utility.yul\":812:813   */\n      0x00\n        /* \"#utility.yul\":801:810   */\n      dup4\n        /* \"#utility.yul\":797:814   */\n      add\n        /* \"#utility.yul\":788:794   */\n      dup6\n        /* \"#utility.yul\":744:815   */\n      tag_31\n      jump\t// in\n    tag_47:\n        /* \"#utility.yul\":825:897   */\n      tag_48\n        /* \"#utility.yul\":893:895   */\n      0x20\n        /* \"#utility.yul\":882:891   */\n      dup4\n        /* \"#utility.yul\":878:896   */\n      add\n        /* \"#utility.yul\":869:875   */\n      dup5\n        /* \"#utility.yul\":825:897   */\n      tag_33\n      jump\t// in\n    tag_48:\n        /* \"#utility.yul\":572:904   */\n      swap4\n      swap3\n      pop\n      pop\n      pop\n      jump\t// out\n        /* \"#utility.yul\":910:1132   */\n    tag_17:\n        /* \"#utility.yul\":1003:1007   */\n      0x00\n        /* \"#utility.yul\":1041:1043   */\n      0x20\n        /* \"#utility.yul\":1030:1039   */\n      dup3\n        /* \"#utility.yul\":1026:1044   */\n      add\n        /* \"#utility.yul\":1018:1044   */\n      swap1\n      pop\n        /* \"#utility.yul\":1054:1125   */\n      tag_50\n        /* \"#utility.yul\":1122:1123   */\n      0x00\n        /* \"#utility.yul\":1111:1120   */\n      dup4\n        /* \"#utility.yul\":1107:1124   */\n      add\n        /* \"#utility.yul\":1098:1104   */\n      dup5\n        /* \"#utility.yul\":1054:1125   */\n      tag_33\n      jump\t// in\n    tag_50:\n        /* \"#utility.yul\":910:1132   */\n      swap3\n      swap2\n      pop\n      pop\n      jump\t// out\n        /* \"#utility.yul\":1138:1360   */\n    tag_22:\n        /* \"#utility.yul\":1231:1235   */\n      0x00\n        /* \"#utility.yul\":1269:1271   */\n      0x20\n        /* \"#utility.yul\":1258:1267   */\n      dup3\n        /* \"#utility.yul\":1254:1272   */\n      add\n        /* \"#utility.yul\":1246:1272   */\n      swap1\n      pop\n        /* \"#utility.yul\":1282:1353   */\n      tag_52\n        /* \"#utility.yul\":1350:1351   */\n      0x00\n        /* \"#utility.yul\":1339:1348   */\n      dup4\n        /* \"#utility.yul\":1335:1352   */\n      add\n        /* \"#utility.yul\":1326:1332   */\n      dup5\n        /* \"#utility.yul\":1282:1353   */\n      tag_31\n      jump\t// in\n    tag_52:\n        /* \"#utility.yul\":1138:1360   */\n      swap3\n      swap2\n      pop\n      pop\n      jump\t// out\n        /* \"#utility.yul\":1366:1535   */\n    tag_34:\n        /* \"#utility.yul\":1450:1461   */\n      0x00\n        /* \"#utility.yul\":1484:1490   */\n      dup3\n        /* \"#utility.yul\":1479:1482   */\n      dup3\n        /* \"#utility.yul\":1472:1491   */\n      mstore\n        /* \"#utility.yul\":1524:1528   */\n      0x20\n        /* \"#utility.yul\":1519:1522   */\n      dup3\n        /* \"#utility.yul\":1515:1529   */\n      add\n        /* \"#utility.yul\":1500:1529   */\n      swap1\n      pop\n        /* \"#utility.yul\":1366:1535   */\n      swap3\n      swap2\n      pop\n      pop\n      jump\t// out\n        /* \"#utility.yul\":1541:1712   */\n    tag_35:\n        /* \"#utility.yul\":1681:1704   */\n      0x61646472657373206973206e6f742076616c6964210000000000000000000000\n        /* \"#utility.yul\":1677:1678   */\n      0x00\n        /* \"#utility.yul\":1669:1675   */\n      dup3\n        /* \"#utility.yul\":1665:1679   */\n      add\n        /* \"#utility.yul\":1658:1705   */\n      mstore\n        /* \"#utility.yul\":1541:1712   */\n      pop\n      jump\t// out\n        /* \"#utility.yul\":1718:2084   */\n    tag_36:\n        /* \"#utility.yul\":1860:1863   */\n      0x00\n        /* \"#utility.yul\":1881:1948   */\n      tag_56\n        /* \"#utility.yul\":1945:1947   */\n      0x15\n        /* \"#utility.yul\":1940:1943   */\n      dup4\n        /* \"#utility.yul\":1881:1948   */\n      tag_34\n      jump\t// in\n    tag_56:\n        /* \"#utility.yul\":1874:1948   */\n      swap2\n      pop\n        /* \"#utility.yul\":1957:2050   */\n      tag_57\n        /* \"#utility.yul\":2046:2049   */\n      dup3\n        /* \"#utility.yul\":1957:2050   */\n      tag_35\n      jump\t// in\n    tag_57:\n        /* \"#utility.yul\":2075:2077   */\n      0x20\n        /* \"#utility.yul\":2070:2073   */\n      dup3\n        /* \"#utility.yul\":2066:2078   */\n      add\n        /* \"#utility.yul\":2059:2078   */\n      swap1\n      pop\n        /* \"#utility.yul\":1718:2084   */\n      swap2\n      swap1\n      pop\n      jump\t// out\n        /* \"#utility.yul\":2090:2509   */\n    tag_26:\n        /* \"#utility.yul\":2256:2260   */\n      0x00\n        /* \"#utility.yul\":2294:2296   */\n      0x20\n        /* \"#utility.yul\":2283:2292   */\n      dup3\n        /* \"#utility.yul\":2279:2297   */\n      add\n        /* \"#utility.yul\":2271:2297   */\n      swap1\n      pop\n        /* \"#utility.yul\":2343:2352   */\n      dup2\n        /* \"#utility.yul\":2337:2341   */\n      dup2\n        /* \"#utility.yul\":2333:2353   */\n      sub\n        /* \"#utility.yul\":2329:2330   */\n      0x00\n        /* \"#utility.yul\":2318:2327   */\n      dup4\n        /* \"#utility.yul\":2314:2331   */\n      add\n        /* \"#utility.yul\":2307:2354   */\n      mstore\n        /* \"#utility.yul\":2371:2502   */\n      tag_59\n        /* \"#utility.yul\":2497:2501   */\n      dup2\n        /* \"#utility.yul\":2371:2502   */\n      tag_36\n      jump\t// in\n    tag_59:\n        /* \"#utility.yul\":2363:2502   */\n      swap1\n      pop\n        /* \"#utility.yul\":2090:2509   */\n      swap2\n      swap1\n      pop\n      jump\t// out\n\n    auxdata: 0xa2646970667358221220a5c56cb79bcef2deb4d38d631b7eae80f58db0a9e1239606ebef57e5435cc93964736f6c634300081a0033\n}\n",
				"bytecode": {
					"linkReferences": {},
					"object": "60a06040523373ffffffffffffffffffffffffffffffffffffffff1660808173ffffffffffffffffffffffffffffffffffffffff168152505060805161034b6100565f395f818160fd01526101cb015261034b5ff3fe608060405260043610610036575f3560e01c806279efb01461007a57806312065fe0146100905780638da5cb5b146100ba57610076565b36610076577f7ab77505cca1347747a3b4c9806da295e5ad5632b15d8a6d1e817c37478e5349333460405161006c929190610244565b60405180910390a1005b5f80fd5b348015610085575f80fd5b5061008e6100e4565b005b34801561009b575f80fd5b506100a46101c2565b6040516100b1919061026b565b60405180910390f35b3480156100c5575f80fd5b506100ce6101c9565b6040516100db9190610284565b60405180910390f35b3373ffffffffffffffffffffffffffffffffffffffff167f000000000000000000000000000000000000000000000000000000000000000073ffffffffffffffffffffffffffffffffffffffff1614610172576040517f08c379a0000000000000000000000000000000000000000000000000000000008152600401610169906102f7565b60405180910390fd5b7f2e1a7d4d13322e7b96f9a57413e1525c250fb7a9021cf91d1540d5b69f16a49f476040516101a1919061026b565b60405180910390a13373ffffffffffffffffffffffffffffffffffffffff16ff5b5f47905090565b7f000000000000000000000000000000000000000000000000000000000000000081565b5f73ffffffffffffffffffffffffffffffffffffffff82169050919050565b5f610216826101ed565b9050919050565b6102268161020c565b82525050565b5f819050919050565b61023e8161022c565b82525050565b5f6040820190506102575f83018561021d565b6102646020830184610235565b9392505050565b5f60208201905061027e5f830184610235565b92915050565b5f6020820190506102975f83018461021d565b92915050565b5f82825260208201905092915050565b7f61646472657373206973206e6f742076616c69642100000000000000000000005f82015250565b5f6102e160158361029d565b91506102ec826102ad565b602082019050919050565b5f6020820190508181035f83015261030e816102d5565b905091905056fea2646970667358221220a5c56cb79bcef2deb4d38d631b7eae80f58db0a9e1239606ebef57e5435cc93964736f6c634300081a0033",
					"opcodes": "PUSH1 0xA0 PUSH1 0x40 MSTORE CALLER PUSH20 0xFFFFFFFFFFFFFFFFFFFFFFFFFFFFFFFFFFFFFFFF AND PUSH1 0x80 DUP2 PUSH20 0xFFFFFFFFFFFFFFFFFFFFFFFFFFFFFFFFFFFFFFFF AND DUP2 MSTORE POP POP PUSH1 0x80 MLOAD PUSH2 0x34B PUSH2 0x56 PUSH0 CODECOPY PUSH0 DUP2 DUP2 PUSH1 0xFD ADD MSTORE PUSH2 0x1CB ADD MSTORE PUSH2 0x34B PUSH0 RETURN INVALID PUSH1 0x80 PUSH1 0x40 MSTORE PUSH1 0x4 CALLDATASIZE LT PUSH2 0x36 JUMPI PUSH0 CALLDATALOAD PUSH1 0xE0 SHR DUP1 PUSH3 0x79EFB0 EQ PUSH2 0x7A JUMPI DUP1 PUSH4 0x12065FE0 EQ PUSH2 0x90 JUMPI DUP1 PUSH4 0x8DA5CB5B EQ PUSH2 0xBA JUMPI PUSH2 0x76 JUMP JUMPDEST CALLDATASIZE PUSH2 0x76 JUMPI PUSH32 0x7AB77505CCA1347747A3B4C9806DA295E5AD5632B15D8A6D1E817C37478E5349 CALLER CALLVALUE PUSH1 0x40 MLOAD PUSH2 0x6C SWAP3 SWAP2 SWAP1 PUSH2 0x244 JUMP JUMPDEST PUSH1 0x40 MLOAD DUP1 SWAP2 SUB SWAP1 LOG1 STOP JUMPDEST PUSH0 DUP1 REVERT JUMPDEST CALLVALUE DUP1 ISZERO PUSH2 0x85 JUMPI PUSH0 DUP1 REVERT JUMPDEST POP PUSH2 0x8E PUSH2 0xE4 JUMP JUMPDEST STOP JUMPDEST CALLVALUE DUP1 ISZERO PUSH2 0x9B JUMPI PUSH0 DUP1 REVERT JUMPDEST POP PUSH2 0xA4 PUSH2 0x1C2 JUMP JUMPDEST PUSH1 0x40 MLOAD PUSH2 0xB1 SWAP2 SWAP1 PUSH2 0x26B JUMP JUMPDEST PUSH1 0x40 MLOAD DUP1 SWAP2 SUB SWAP1 RETURN JUMPDEST CALLVALUE DUP1 ISZERO PUSH2 0xC5 JUMPI PUSH0 DUP1 REVERT JUMPDEST POP PUSH2 0xCE PUSH2 0x1C9 JUMP JUMPDEST PUSH1 0x40 MLOAD PUSH2 0xDB SWAP2 SWAP1 PUSH2 0x284 JUMP JUMPDEST PUSH1 0x40 MLOAD DUP1 SWAP2 SUB SWAP1 RETURN JUMPDEST CALLER PUSH20 0xFFFFFFFFFFFFFFFFFFFFFFFFFFFFFFFFFFFFFFFF AND PUSH32 0x0 PUSH20 0xFFFFFFFFFFFFFFFFFFFFFFFFFFFFFFFFFFFFFFFF AND EQ PUSH2 0x172 JUMPI PUSH1 0x40 MLOAD PUSH32 0x8C379A000000000000000000000000000000000000000000000000000000000 DUP2 MSTORE PUSH1 0x4 ADD PUSH2 0x169 SWAP1 PUSH2 0x2F7 JUMP JUMPDEST PUSH1 0x40 MLOAD DUP1 SWAP2 SUB SWAP1 REVERT JUMPDEST PUSH32 0x2E1A7D4D13322E7B96F9A57413E1525C250FB7A9021CF91D1540D5B69F16A49F SELFBALANCE PUSH1 0x40 MLOAD PUSH2 0x1A1 SWAP2 SWAP1 PUSH2 0x26B JUMP JUMPDEST PUSH1 0x40 MLOAD DUP1 SWAP2 SUB SWAP1 LOG1 CALLER PUSH20 0xFFFFFFFFFFFFFFFFFFFFFFFFFFFFFFFFFFFFFFFF AND SELFDESTRUCT JUMPDEST PUSH0 SELFBALANCE SWAP1 POP SWAP1 JUMP JUMPDEST PUSH32 0x0 DUP2 JUMP JUMPDEST PUSH0 PUSH20 0xFFFFFFFFFFFFFFFFFFFFFFFFFFFFFFFFFFFFFFFF DUP3 AND SWAP1 POP SWAP2 SWAP1 POP JUMP JUMPDEST PUSH0 PUSH2 0x216 DUP3 PUSH2 0x1ED JUMP JUMPDEST SWAP1 POP SWAP2 SWAP1 POP JUMP JUMPDEST PUSH2 0x226 DUP2 PUSH2 0x20C JUMP JUMPDEST DUP3 MSTORE POP POP JUMP JUMPDEST PUSH0 DUP2 SWAP1 POP SWAP2 SWAP1 POP JUMP JUMPDEST PUSH2 0x23E DUP2 PUSH2 0x22C JUMP JUMPDEST DUP3 MSTORE POP POP JUMP JUMPDEST PUSH0 PUSH1 0x40 DUP3 ADD SWAP1 POP PUSH2 0x257 PUSH0 DUP4 ADD DUP6 PUSH2 0x21D JUMP JUMPDEST PUSH2 0x264 PUSH1 0x20 DUP4 ADD DUP5 PUSH2 0x235 JUMP JUMPDEST SWAP4 SWAP3 POP POP POP JUMP JUMPDEST PUSH0 PUSH1 0x20 DUP3 ADD SWAP1 POP PUSH2 0x27E PUSH0 DUP4 ADD DUP5 PUSH2 0x235 JUMP JUMPDEST SWAP3 SWAP2 POP POP JUMP JUMPDEST PUSH0 PUSH1 0x20 DUP3 ADD SWAP1 POP PUSH2 0x297 PUSH0 DUP4 ADD DUP5 PUSH2 0x21D JUMP JUMPDEST SWAP3 SWAP2 POP POP JUMP JUMPDEST PUSH0 DUP3 DUP3 MSTORE PUSH1 0x20 DUP3 ADD SWAP1 POP SWAP3 SWAP2 POP POP JUMP JUMPDEST PUSH32 0x61646472657373206973206E6F742076616C6964210000000000000000000000 PUSH0 DUP3 ADD MSTORE POP JUMP JUMPDEST PUSH0 PUSH2 0x2E1 PUSH1 0x15 DUP4 PUSH2 0x29D JUMP JUMPDEST SWAP2 POP PUSH2 0x2EC DUP3 PUSH2 0x2AD JUMP JUMPDEST PUSH1 0x20 DUP3 ADD SWAP1 POP SWAP2 SWAP1 POP JUMP JUMPDEST PUSH0 PUSH1 0x20 DUP3 ADD SWAP1 POP DUP2 DUP2 SUB PUSH0 DUP4 ADD MSTORE PUSH2 0x30E DUP2 PUSH2 0x2D5 JUMP JUMPDEST SWAP1 POP SWAP2 SWAP1 POP JUMP INVALID LOG2 PUSH5 0x6970667358 0x22 SLT KECCAK256 0xA5 0xC5 PUSH13 0xB79BCEF2DEB4D38D631B7EAE80 CREATE2 DUP14 0xB0 0xA9 0xE1 0x23 SWAP7 MOD 0xEB 0xEF JUMPI 0xE5 NUMBER TLOAD 0xC9 CODECOPY PUSH5 0x736F6C6343 STOP ADDMOD BYTE STOP CALLER "
				},
				"gasEstimates": {
					"creation": {
						"codeDepositCost": "168600",
						"executionCost": "infinite",
						"totalCost": "infinite"
					},
					"external": {
						"getBalance()": "334",
						"owner()": "infinite",
						"withdraw1()": "infinite"
					}
				},
				"methodIdentifiers": {
					"getBalance()": "12065fe0",
					"owner()": "8da5cb5b",
					"withdraw1()": "0079efb0"
				}
			},
			"storageLayout": {
				"storage": [],
				"types": null
			},
			"userdoc": {
				"kind": "user",
				"methods": {},
				"version": 1
			}
		}
	}
}