{
	"data": {
		"bytecode": {
			"linkReferences": {},
			"object": "6080604052348015600e575f80fd5b5060ee8061001b5f395ff3fe6080604052348015600e575f80fd5b50600436106030575f3560e01c8063b439548d146034578063dd49702c14604f575b5f80fd5b603a6057565b60405160469291906095565b60405180910390f35b6055606a565b005b5f805f8001545f60010154915091509091565b600a5f80018190555060645f60010181905550565b5f819050919050565b608f81607f565b82525050565b5f60408201905060a65f8301856088565b60b160208301846088565b939250505056fea2646970667358221220e4c168106315ac13d7037841063f613605e5f509d9076000d92f0daa4611de5664736f6c634300081a0033",
			"opcodes": "PUSH1 0x80 PUSH1 0x40 MSTORE CALLVALUE DUP1 ISZERO PUSH1 0xE JUMPI PUSH0 DUP1 REVERT JUMPDEST POP PUSH1 0xEE DUP1 PUSH2 0x1B PUSH0 CODECOPY PUSH0 RETURN INVALID PUSH1 0x80 PUSH1 0x40 MSTORE CALLVALUE DUP1 ISZERO PUSH1 0xE JUMPI PUSH0 DUP1 REVERT JUMPDEST POP PUSH1 0x4 CALLDATASIZE LT PUSH1 0x30 JUMPI PUSH0 CALLDATALOAD PUSH1 0xE0 SHR DUP1 PUSH4 0xB439548D EQ PUSH1 0x34 JUMPI DUP1 PUSH4 0xDD49702C EQ PUSH1 0x4F JUMPI JUMPDEST PUSH0 DUP1 REVERT JUMPDEST PUSH1 0x3A PUSH1 0x57 JUMP JUMPDEST PUSH1 0x40 MLOAD PUSH1 0x46 SWAP3 SWAP2 SWAP1 PUSH1 0x95 JUMP JUMPDEST PUSH1 0x40 MLOAD DUP1 SWAP2 SUB SWAP1 RETURN JUMPDEST PUSH1 0x55 PUSH1 0x6A JUMP JUMPDEST STOP JUMPDEST PUSH0 DUP1 PUSH0 DUP1 ADD SLOAD PUSH0 PUSH1 0x1 ADD SLOAD SWAP2 POP SWAP2 POP SWAP1 SWAP2 JUMP JUMPDEST PUSH1 0xA PUSH0 DUP1 ADD DUP2 SWAP1 SSTORE POP PUSH1 0x64 PUSH0 PUSH1 0x1 ADD DUP2 SWAP1 SSTORE POP JUMP JUMPDEST PUSH0 DUP2 SWAP1 POP SWAP2 SWAP1 POP JUMP JUMPDEST PUSH1 0x8F DUP2 PUSH1 0x7F JUMP JUMPDEST DUP3 MSTORE POP POP JUMP JUMPDEST PUSH0 PUSH1 0x40 DUP3 ADD SWAP1 POP PUSH1 0xA6 PUSH0 DUP4 ADD DUP6 PUSH1 0x88 JUMP JUMPDEST PUSH1 0xB1 PUSH1 0x20 DUP4 ADD DUP5 PUSH1 0x88 JUMP JUMPDEST SWAP4 SWAP3 POP POP POP JUMP INVALID LOG2 PUSH5 0x6970667358 0x22 SLT KECCAK256 0xE4 0xC1 PUSH9 0x106315AC13D7037841 MOD EXTCODEHASH PUSH2 0x3605 0xE5 CREATE2 MULMOD 0xD9 SMOD PUSH1 0x0 0xD9 0x2F 0xD 0xAA CHAINID GT 0xDE JUMP PUSH5 0x736F6C6343 STOP ADDMOD BYTE STOP CALLER "
		},
		"gasEstimates": {
			"creation": {
				"codeDepositCost": "47600",
				"executionCost": "97",
				"totalCost": "47697"
			},
			"external": {
				"getStudent()": "infinite",
				"initStudent()": "44381"
			}
		},
		"methodIdentifiers": {
			"getStudent()": "b439548d",
			"initStudent()": "dd49702c"
		}
	},
	"abi": [
		{
			"inputs": [],
			"name": "getStudent",
			"outputs": [
				{
					"internalType": "uint256",
					"name": "",
					"type": "uint256"
				},
				{
					"internalType": "uint256",
					"name": "",
					"type": "uint256"
				}
			],
			"stateMutability": "view",
			"type": "function"
		},
		{
			"inputs": [],
			"name": "initStudent",
			"outputs": [],
			"stateMutability": "nonpayable",
			"type": "function"
		}
	]
}