{
	".deps/remix-tests/study/four.sol": {
		"Four": {
			"abi": [
				{
					"inputs": [],
					"name": "getData",
					"outputs": [
						{
							"internalType": "uint256[]",
							"name": "",
							"type": "uint256[]"
						}
					],
					"stateMutability": "view",
					"type": "function"
				},
				{
					"inputs": [
						{
							"internalType": "uint256[]",
							"name": "memData",
							"type": "uint256[]"
						}
					],
					"name": "modifyMemoryData",
					"outputs": [
						{
							"internalType": "uint256[]",
							"name": "",
							"type": "uint256[]"
						}
					],
					"stateMutability": "nonpayable",
					"type": "function"
				},
				{
					"inputs": [
						{
							"internalType": "uint256[]",
							"name": "memData",
							"type": "uint256[]"
						}
					],
					"name": "modifyMemoryData1",
					"outputs": [
						{
							"internalType": "uint256[]",
							"name": "",
							"type": "uint256[]"
						}
					],
					"stateMutability": "nonpayable",
					"type": "function"
				},
				{
					"inputs": [
						{
							"internalType": "uint256",
							"name": "index",
							"type": "uint256"
						},
						{
							"internalType": "uint256",
							"name": "value",
							"type": "uint256"
						}
					],
					"name": "modifyStorageData",
					"outputs": [],
					"stateMutability": "nonpayable",
					"type": "function"
				},
				{
					"inputs": [
						{
							"internalType": "uint256[]",
							"name": "newData",
							"type": "uint256[]"
						}
					],
					"name": "updateData",
					"outputs": [],
					"stateMutability": "nonpayable",
					"type": "function"
				}
			],
			"devdoc": {
				"kind": "dev",
				"methods": {},
				"version": 1
			},
			"evm": {
				"assembly": "    /* \".deps/remix-tests/study/four.sol\":28:907  contract Four {... */\n  mstore(0x40, 0x80)\n  callvalue\n  dup1\n  iszero\n  tag_1\n  jumpi\n  0x00\n  dup1\n  revert\ntag_1:\n  pop\n  dataSize(sub_0)\n  dup1\n  dataOffset(sub_0)\n  0x00\n  codecopy\n  0x00\n  return\nstop\n\nsub_0: assembly {\n        /* \".deps/remix-tests/study/four.sol\":28:907  contract Four {... */\n      mstore(0x40, 0x80)\n      callvalue\n      dup1\n      iszero\n      tag_1\n      jumpi\n      0x00\n      dup1\n      revert\n    tag_1:\n      pop\n      jumpi(tag_2, lt(calldatasize, 0x04))\n      shr(0xe0, calldataload(0x00))\n      dup1\n      0x3bc5de30\n      eq\n      tag_3\n      jumpi\n      dup1\n      0xaa44269d\n      eq\n      tag_4\n      jumpi\n      dup1\n      0xbc9c9536\n      eq\n      tag_5\n      jumpi\n      dup1\n      0xc104210b\n      eq\n      tag_6\n      jumpi\n      dup1\n      0xe6b80ce6\n      eq\n      tag_7\n      jumpi\n    tag_2:\n      0x00\n      dup1\n      revert\n        /* \".deps/remix-tests/study/four.sol\":160:245  function getData() public view  returns (uint[] memory){... */\n    tag_3:\n      tag_8\n      tag_9\n      jump\t// in\n    tag_8:\n      mload(0x40)\n      tag_10\n      swap2\n      swap1\n      tag_11\n      jump\t// in\n    tag_10:\n      mload(0x40)\n      dup1\n      swap2\n      sub\n      swap1\n      return\n        /* \".deps/remix-tests/study/four.sol\":70:152  function updateData(uint[] memory newData) public {... */\n    tag_4:\n      tag_12\n      0x04\n      dup1\n      calldatasize\n      sub\n      dup2\n      add\n      swap1\n      tag_13\n      swap2\n      swap1\n      tag_14\n      jump\t// in\n    tag_13:\n      tag_15\n      jump\t// in\n    tag_12:\n      stop\n        /* \".deps/remix-tests/study/four.sol\":656:900  function modifyMemoryData1(uint[] memory memData) public returns (uint[] memory) {... */\n    tag_5:\n      tag_16\n      0x04\n      dup1\n      calldatasize\n      sub\n      dup2\n      add\n      swap1\n      tag_17\n      swap2\n      swap1\n      tag_14\n      jump\t// in\n    tag_17:\n      tag_18\n      jump\t// in\n    tag_16:\n      mload(0x40)\n      tag_19\n      swap2\n      swap1\n      tag_11\n      jump\t// in\n    tag_19:\n      mload(0x40)\n      dup1\n      swap2\n      sub\n      swap1\n      return\n        /* \".deps/remix-tests/study/four.sol\":416:648  function modifyMemoryData(uint[] memory memData) public  returns (uint[] memory){... */\n    tag_6:\n      tag_20\n      0x04\n      dup1\n      calldatasize\n      sub\n      dup2\n      add\n      swap1\n      tag_21\n      swap2\n      swap1\n      tag_14\n      jump\t// in\n    tag_21:\n      tag_22\n      jump\t// in\n    tag_20:\n      mload(0x40)\n      tag_23\n      swap2\n      swap1\n      tag_11\n      jump\t// in\n    tag_23:\n      mload(0x40)\n      dup1\n      swap2\n      sub\n      swap1\n      return\n        /* \".deps/remix-tests/study/four.sol\":253:408  function modifyStorageData(uint index,uint value) public {... */\n    tag_7:\n      tag_24\n      0x04\n      dup1\n      calldatasize\n      sub\n      dup2\n      add\n      swap1\n      tag_25\n      swap2\n      swap1\n      tag_26\n      jump\t// in\n    tag_25:\n      tag_27\n      jump\t// in\n    tag_24:\n      stop\n        /* \".deps/remix-tests/study/four.sol\":160:245  function getData() public view  returns (uint[] memory){... */\n    tag_9:\n        /* \".deps/remix-tests/study/four.sol\":201:214  uint[] memory */\n      0x60\n        /* \".deps/remix-tests/study/four.sol\":233:237  data */\n      0x00\n        /* \".deps/remix-tests/study/four.sol\":225:237  return  data */\n      dup1\n      sload\n      dup1\n      0x20\n      mul\n      0x20\n      add\n      mload(0x40)\n      swap1\n      dup2\n      add\n      0x40\n      mstore\n      dup1\n      swap3\n      swap2\n      swap1\n      dup2\n      dup2\n      mstore\n      0x20\n      add\n      dup3\n      dup1\n      sload\n      dup1\n      iszero\n      tag_29\n      jumpi\n      0x20\n      mul\n      dup3\n      add\n      swap2\n      swap1\n      0x00\n      mstore\n      keccak256(0x00, 0x20)\n      swap1\n    tag_30:\n      dup2\n      sload\n      dup2\n      mstore\n      0x20\n      add\n      swap1\n      0x01\n      add\n      swap1\n      dup1\n      dup4\n      gt\n      tag_30\n      jumpi\n    tag_29:\n      pop\n      pop\n      pop\n      pop\n      pop\n      swap1\n      pop\n        /* \".deps/remix-tests/study/four.sol\":160:245  function getData() public view  returns (uint[] memory){... */\n      swap1\n      jump\t// out\n        /* \".deps/remix-tests/study/four.sol\":70:152  function updateData(uint[] memory newData) public {... */\n    tag_15:\n        /* \".deps/remix-tests/study/four.sol\":137:144  newData */\n      dup1\n        /* \".deps/remix-tests/study/four.sol\":131:135  data */\n      0x00\n        /* \".deps/remix-tests/study/four.sol\":131:144  data =newData */\n      swap1\n      dup1\n      mload\n      swap1\n      0x20\n      add\n      swap1\n      tag_32\n      swap3\n      swap2\n      swap1\n      tag_33\n      jump\t// in\n    tag_32:\n      pop\n        /* \".deps/remix-tests/study/four.sol\":70:152  function updateData(uint[] memory newData) public {... */\n      pop\n      jump\t// out\n        /* \".deps/remix-tests/study/four.sol\":656:900  function modifyMemoryData1(uint[] memory memData) public returns (uint[] memory) {... */\n    tag_18:\n        /* \".deps/remix-tests/study/four.sol\":722:735  uint[] memory */\n      0x60\n        /* \".deps/remix-tests/study/four.sol\":769:770  0 */\n      0x00\n        /* \".deps/remix-tests/study/four.sol\":752:759  memData */\n      dup3\n        /* \".deps/remix-tests/study/four.sol\":752:766  memData.length */\n      mload\n        /* \".deps/remix-tests/study/four.sol\":752:770  memData.length > 0 */\n      gt\n        /* \".deps/remix-tests/study/four.sol\":748:842  if (memData.length > 0) {... */\n      iszero\n      tag_35\n      jumpi\n        /* \".deps/remix-tests/study/four.sol\":800:803  999 */\n      0x03e7\n        /* \".deps/remix-tests/study/four.sol\":787:794  memData */\n      dup3\n        /* \".deps/remix-tests/study/four.sol\":795:796  0 */\n      0x00\n        /* \".deps/remix-tests/study/four.sol\":787:797  memData[0] */\n      dup2\n      mload\n      dup2\n      lt\n      tag_36\n      jumpi\n      tag_37\n      tag_38\n      jump\t// in\n    tag_37:\n    tag_36:\n      0x20\n      mul\n      0x20\n      add\n      add\n        /* \".deps/remix-tests/study/four.sol\":787:803  memData[0] = 999 */\n      dup2\n      dup2\n      mstore\n      pop\n      pop\n        /* \".deps/remix-tests/study/four.sol\":748:842  if (memData.length > 0) {... */\n    tag_35:\n        /* \".deps/remix-tests/study/four.sol\":859:866  memData */\n      dup2\n        /* \".deps/remix-tests/study/four.sol\":852:856  data */\n      0x00\n        /* \".deps/remix-tests/study/four.sol\":852:866  data = memData */\n      swap1\n      dup1\n      mload\n      swap1\n      0x20\n      add\n      swap1\n      tag_39\n      swap3\n      swap2\n      swap1\n      tag_33\n      jump\t// in\n    tag_39:\n      pop\n        /* \".deps/remix-tests/study/four.sol\":885:892  memData */\n      dup2\n        /* \".deps/remix-tests/study/four.sol\":878:892  return memData */\n      swap1\n      pop\n        /* \".deps/remix-tests/study/four.sol\":656:900  function modifyMemoryData1(uint[] memory memData) public returns (uint[] memory) {... */\n      swap2\n      swap1\n      pop\n      jump\t// out\n        /* \".deps/remix-tests/study/four.sol\":416:648  function modifyMemoryData(uint[] memory memData) public  returns (uint[] memory){... */\n    tag_22:\n        /* \".deps/remix-tests/study/four.sol\":482:495  uint[] memory */\n      0x60\n        /* \".deps/remix-tests/study/four.sol\":528:529  0 */\n      0x00\n        /* \".deps/remix-tests/study/four.sol\":511:518  memData */\n      dup3\n        /* \".deps/remix-tests/study/four.sol\":511:525  memData.length */\n      mload\n        /* \".deps/remix-tests/study/four.sol\":511:529  memData.length > 0 */\n      gt\n        /* \".deps/remix-tests/study/four.sol\":507:615  if (memData.length > 0) {... */\n      iszero\n      tag_41\n      jumpi\n        /* \".deps/remix-tests/study/four.sol\":560:563  999 */\n      0x03e7\n        /* \".deps/remix-tests/study/four.sol\":547:554  memData */\n      dup3\n        /* \".deps/remix-tests/study/four.sol\":555:556  0 */\n      0x00\n        /* \".deps/remix-tests/study/four.sol\":547:557  memData[0] */\n      dup2\n      mload\n      dup2\n      lt\n      tag_42\n      jumpi\n      tag_43\n      tag_38\n      jump\t// in\n    tag_43:\n    tag_42:\n      0x20\n      mul\n      0x20\n      add\n      add\n        /* \".deps/remix-tests/study/four.sol\":547:563  memData[0] = 999 */\n      dup2\n      dup2\n      mstore\n      pop\n      pop\n        /* \".deps/remix-tests/study/four.sol\":507:615  if (memData.length > 0) {... */\n    tag_41:\n        /* \".deps/remix-tests/study/four.sol\":633:640  memData */\n      dup2\n        /* \".deps/remix-tests/study/four.sol\":625:640  return  memData */\n      swap1\n      pop\n        /* \".deps/remix-tests/study/four.sol\":416:648  function modifyMemoryData(uint[] memory memData) public  returns (uint[] memory){... */\n      swap2\n      swap1\n      pop\n      jump\t// out\n        /* \".deps/remix-tests/study/four.sol\":253:408  function modifyStorageData(uint index,uint value) public {... */\n    tag_27:\n        /* \".deps/remix-tests/study/four.sol\":337:341  data */\n      0x00\n        /* \".deps/remix-tests/study/four.sol\":337:348  data.length */\n      dup1\n      sload\n      swap1\n      pop\n        /* \".deps/remix-tests/study/four.sol\":329:334  index */\n      dup3\n        /* \".deps/remix-tests/study/four.sol\":329:348  index < data.length */\n      lt\n        /* \".deps/remix-tests/study/four.sol\":321:372  require(index < data.length, \"Index out of bounds\") */\n      tag_45\n      jumpi\n      mload(0x40)\n      0x08c379a000000000000000000000000000000000000000000000000000000000\n      dup2\n      mstore\n      0x04\n      add\n      tag_46\n      swap1\n      tag_47\n      jump\t// in\n    tag_46:\n      mload(0x40)\n      dup1\n      swap2\n      sub\n      swap1\n      revert\n    tag_45:\n        /* \".deps/remix-tests/study/four.sol\":395:400  value */\n      dup1\n        /* \".deps/remix-tests/study/four.sol\":382:386  data */\n      0x00\n        /* \".deps/remix-tests/study/four.sol\":387:392  index */\n      dup4\n        /* \".deps/remix-tests/study/four.sol\":382:393  data[index] */\n      dup2\n      sload\n      dup2\n      lt\n      tag_48\n      jumpi\n      tag_49\n      tag_38\n      jump\t// in\n    tag_49:\n    tag_48:\n      swap1\n      0x00\n      mstore\n      keccak256(0x00, 0x20)\n      add\n        /* \".deps/remix-tests/study/four.sol\":382:400  data[index] =value */\n      dup2\n      swap1\n      sstore\n      pop\n        /* \".deps/remix-tests/study/four.sol\":253:408  function modifyStorageData(uint index,uint value) public {... */\n      pop\n      pop\n      jump\t// out\n    tag_33:\n      dup3\n      dup1\n      sload\n      dup3\n      dup3\n      sstore\n      swap1\n      0x00\n      mstore\n      keccak256(0x00, 0x20)\n      swap1\n      dup2\n      add\n      swap3\n      dup3\n      iszero\n      tag_51\n      jumpi\n      swap2\n      0x20\n      mul\n      dup3\n      add\n    tag_52:\n      dup3\n      dup2\n      gt\n      iszero\n      tag_53\n      jumpi\n      dup3\n      mload\n      dup3\n      sstore\n      swap2\n      0x20\n      add\n      swap2\n      swap1\n      0x01\n      add\n      swap1\n      jump(tag_52)\n    tag_53:\n    tag_51:\n      pop\n      swap1\n      pop\n      tag_54\n      swap2\n      swap1\n      tag_55\n      jump\t// in\n    tag_54:\n      pop\n      swap1\n      jump\t// out\n    tag_55:\n    tag_56:\n      dup1\n      dup3\n      gt\n      iszero\n      tag_57\n      jumpi\n      0x00\n      dup2\n      0x00\n      swap1\n      sstore\n      pop\n      0x01\n      add\n      jump(tag_56)\n    tag_57:\n      pop\n      swap1\n      jump\t// out\n        /* \"#utility.yul\":7:121   */\n    tag_58:\n        /* \"#utility.yul\":74:80   */\n      0x00\n        /* \"#utility.yul\":108:113   */\n      dup2\n        /* \"#utility.yul\":102:114   */\n      mload\n        /* \"#utility.yul\":92:114   */\n      swap1\n      pop\n        /* \"#utility.yul\":7:121   */\n      swap2\n      swap1\n      pop\n      jump\t// out\n        /* \"#utility.yul\":127:311   */\n    tag_59:\n        /* \"#utility.yul\":226:237   */\n      0x00\n        /* \"#utility.yul\":260:266   */\n      dup3\n        /* \"#utility.yul\":255:258   */\n      dup3\n        /* \"#utility.yul\":248:267   */\n      mstore\n        /* \"#utility.yul\":300:304   */\n      0x20\n        /* \"#utility.yul\":295:298   */\n      dup3\n        /* \"#utility.yul\":291:305   */\n      add\n        /* \"#utility.yul\":276:305   */\n      swap1\n      pop\n        /* \"#utility.yul\":127:311   */\n      swap3\n      swap2\n      pop\n      pop\n      jump\t// out\n        /* \"#utility.yul\":317:449   */\n    tag_60:\n        /* \"#utility.yul\":384:388   */\n      0x00\n        /* \"#utility.yul\":407:410   */\n      dup2\n        /* \"#utility.yul\":399:410   */\n      swap1\n      pop\n        /* \"#utility.yul\":437:441   */\n      0x20\n        /* \"#utility.yul\":432:435   */\n      dup3\n        /* \"#utility.yul\":428:442   */\n      add\n        /* \"#utility.yul\":420:442   */\n      swap1\n      pop\n        /* \"#utility.yul\":317:449   */\n      swap2\n      swap1\n      pop\n      jump\t// out\n        /* \"#utility.yul\":455:532   */\n    tag_61:\n        /* \"#utility.yul\":492:499   */\n      0x00\n        /* \"#utility.yul\":521:526   */\n      dup2\n        /* \"#utility.yul\":510:526   */\n      swap1\n      pop\n        /* \"#utility.yul\":455:532   */\n      swap2\n      swap1\n      pop\n      jump\t// out\n        /* \"#utility.yul\":538:646   */\n    tag_62:\n        /* \"#utility.yul\":615:639   */\n      tag_89\n        /* \"#utility.yul\":633:638   */\n      dup2\n        /* \"#utility.yul\":615:639   */\n      tag_61\n      jump\t// in\n    tag_89:\n        /* \"#utility.yul\":610:613   */\n      dup3\n        /* \"#utility.yul\":603:640   */\n      mstore\n        /* \"#utility.yul\":538:646   */\n      pop\n      pop\n      jump\t// out\n        /* \"#utility.yul\":652:831   */\n    tag_63:\n        /* \"#utility.yul\":721:731   */\n      0x00\n        /* \"#utility.yul\":742:788   */\n      tag_91\n        /* \"#utility.yul\":784:787   */\n      dup4\n        /* \"#utility.yul\":776:782   */\n      dup4\n        /* \"#utility.yul\":742:788   */\n      tag_62\n      jump\t// in\n    tag_91:\n        /* \"#utility.yul\":820:824   */\n      0x20\n        /* \"#utility.yul\":815:818   */\n      dup4\n        /* \"#utility.yul\":811:825   */\n      add\n        /* \"#utility.yul\":797:825   */\n      swap1\n      pop\n        /* \"#utility.yul\":652:831   */\n      swap3\n      swap2\n      pop\n      pop\n      jump\t// out\n        /* \"#utility.yul\":837:950   */\n    tag_64:\n        /* \"#utility.yul\":907:911   */\n      0x00\n        /* \"#utility.yul\":939:943   */\n      0x20\n        /* \"#utility.yul\":934:937   */\n      dup3\n        /* \"#utility.yul\":930:944   */\n      add\n        /* \"#utility.yul\":922:944   */\n      swap1\n      pop\n        /* \"#utility.yul\":837:950   */\n      swap2\n      swap1\n      pop\n      jump\t// out\n        /* \"#utility.yul\":986:1718   */\n    tag_65:\n        /* \"#utility.yul\":1105:1108   */\n      0x00\n        /* \"#utility.yul\":1134:1188   */\n      tag_94\n        /* \"#utility.yul\":1182:1187   */\n      dup3\n        /* \"#utility.yul\":1134:1188   */\n      tag_58\n      jump\t// in\n    tag_94:\n        /* \"#utility.yul\":1204:1290   */\n      tag_95\n        /* \"#utility.yul\":1283:1289   */\n      dup2\n        /* \"#utility.yul\":1278:1281   */\n      dup6\n        /* \"#utility.yul\":1204:1290   */\n      tag_59\n      jump\t// in\n    tag_95:\n        /* \"#utility.yul\":1197:1290   */\n      swap4\n      pop\n        /* \"#utility.yul\":1314:1370   */\n      tag_96\n        /* \"#utility.yul\":1364:1369   */\n      dup4\n        /* \"#utility.yul\":1314:1370   */\n      tag_60\n      jump\t// in\n    tag_96:\n        /* \"#utility.yul\":1393:1400   */\n      dup1\n        /* \"#utility.yul\":1424:1425   */\n      0x00\n        /* \"#utility.yul\":1409:1693   */\n    tag_97:\n        /* \"#utility.yul\":1434:1440   */\n      dup4\n        /* \"#utility.yul\":1431:1432   */\n      dup2\n        /* \"#utility.yul\":1428:1441   */\n      lt\n        /* \"#utility.yul\":1409:1693   */\n      iszero\n      tag_99\n      jumpi\n        /* \"#utility.yul\":1510:1516   */\n      dup2\n        /* \"#utility.yul\":1504:1517   */\n      mload\n        /* \"#utility.yul\":1537:1600   */\n      tag_100\n        /* \"#utility.yul\":1596:1599   */\n      dup9\n        /* \"#utility.yul\":1581:1594   */\n      dup3\n        /* \"#utility.yul\":1537:1600   */\n      tag_63\n      jump\t// in\n    tag_100:\n        /* \"#utility.yul\":1530:1600   */\n      swap8\n      pop\n        /* \"#utility.yul\":1623:1683   */\n      tag_101\n        /* \"#utility.yul\":1676:1682   */\n      dup4\n        /* \"#utility.yul\":1623:1683   */\n      tag_64\n      jump\t// in\n    tag_101:\n        /* \"#utility.yul\":1613:1683   */\n      swap3\n      pop\n        /* \"#utility.yul\":1469:1693   */\n      pop\n        /* \"#utility.yul\":1456:1457   */\n      0x01\n        /* \"#utility.yul\":1453:1454   */\n      dup2\n        /* \"#utility.yul\":1449:1458   */\n      add\n        /* \"#utility.yul\":1444:1458   */\n      swap1\n      pop\n        /* \"#utility.yul\":1409:1693   */\n      jump(tag_97)\n    tag_99:\n        /* \"#utility.yul\":1413:1427   */\n      pop\n        /* \"#utility.yul\":1709:1712   */\n      dup6\n        /* \"#utility.yul\":1702:1712   */\n      swap4\n      pop\n        /* \"#utility.yul\":1110:1718   */\n      pop\n      pop\n      pop\n        /* \"#utility.yul\":986:1718   */\n      swap3\n      swap2\n      pop\n      pop\n      jump\t// out\n        /* \"#utility.yul\":1724:2097   */\n    tag_11:\n        /* \"#utility.yul\":1867:1871   */\n      0x00\n        /* \"#utility.yul\":1905:1907   */\n      0x20\n        /* \"#utility.yul\":1894:1903   */\n      dup3\n        /* \"#utility.yul\":1890:1908   */\n      add\n        /* \"#utility.yul\":1882:1908   */\n      swap1\n      pop\n        /* \"#utility.yul\":1954:1963   */\n      dup2\n        /* \"#utility.yul\":1948:1952   */\n      dup2\n        /* \"#utility.yul\":1944:1964   */\n      sub\n        /* \"#utility.yul\":1940:1941   */\n      0x00\n        /* \"#utility.yul\":1929:1938   */\n      dup4\n        /* \"#utility.yul\":1925:1942   */\n      add\n        /* \"#utility.yul\":1918:1965   */\n      mstore\n        /* \"#utility.yul\":1982:2090   */\n      tag_103\n        /* \"#utility.yul\":2085:2089   */\n      dup2\n        /* \"#utility.yul\":2076:2082   */\n      dup5\n        /* \"#utility.yul\":1982:2090   */\n      tag_65\n      jump\t// in\n    tag_103:\n        /* \"#utility.yul\":1974:2090   */\n      swap1\n      pop\n        /* \"#utility.yul\":1724:2097   */\n      swap3\n      swap2\n      pop\n      pop\n      jump\t// out\n        /* \"#utility.yul\":2103:2178   */\n    tag_66:\n        /* \"#utility.yul\":2136:2142   */\n      0x00\n        /* \"#utility.yul\":2169:2171   */\n      0x40\n        /* \"#utility.yul\":2163:2172   */\n      mload\n        /* \"#utility.yul\":2153:2172   */\n      swap1\n      pop\n        /* \"#utility.yul\":2103:2178   */\n      swap1\n      jump\t// out\n        /* \"#utility.yul\":2184:2301   */\n    tag_67:\n        /* \"#utility.yul\":2293:2294   */\n      0x00\n        /* \"#utility.yul\":2290:2291   */\n      dup1\n        /* \"#utility.yul\":2283:2295   */\n      revert\n        /* \"#utility.yul\":2307:2424   */\n    tag_68:\n        /* \"#utility.yul\":2416:2417   */\n      0x00\n        /* \"#utility.yul\":2413:2414   */\n      dup1\n        /* \"#utility.yul\":2406:2418   */\n      revert\n        /* \"#utility.yul\":2430:2547   */\n    tag_69:\n        /* \"#utility.yul\":2539:2540   */\n      0x00\n        /* \"#utility.yul\":2536:2537   */\n      dup1\n        /* \"#utility.yul\":2529:2541   */\n      revert\n        /* \"#utility.yul\":2553:2655   */\n    tag_70:\n        /* \"#utility.yul\":2594:2600   */\n      0x00\n        /* \"#utility.yul\":2645:2647   */\n      0x1f\n        /* \"#utility.yul\":2641:2648   */\n      not\n        /* \"#utility.yul\":2636:2638   */\n      0x1f\n        /* \"#utility.yul\":2629:2634   */\n      dup4\n        /* \"#utility.yul\":2625:2639   */\n      add\n        /* \"#utility.yul\":2621:2649   */\n      and\n        /* \"#utility.yul\":2611:2649   */\n      swap1\n      pop\n        /* \"#utility.yul\":2553:2655   */\n      swap2\n      swap1\n      pop\n      jump\t// out\n        /* \"#utility.yul\":2661:2841   */\n    tag_71:\n        /* \"#utility.yul\":2709:2786   */\n      0x4e487b7100000000000000000000000000000000000000000000000000000000\n        /* \"#utility.yul\":2706:2707   */\n      0x00\n        /* \"#utility.yul\":2699:2787   */\n      mstore\n        /* \"#utility.yul\":2806:2810   */\n      0x41\n        /* \"#utility.yul\":2803:2804   */\n      0x04\n        /* \"#utility.yul\":2796:2811   */\n      mstore\n        /* \"#utility.yul\":2830:2834   */\n      0x24\n        /* \"#utility.yul\":2827:2828   */\n      0x00\n        /* \"#utility.yul\":2820:2835   */\n      revert\n        /* \"#utility.yul\":2847:3128   */\n    tag_72:\n        /* \"#utility.yul\":2930:2957   */\n      tag_111\n        /* \"#utility.yul\":2952:2956   */\n      dup3\n        /* \"#utility.yul\":2930:2957   */\n      tag_70\n      jump\t// in\n    tag_111:\n        /* \"#utility.yul\":2922:2928   */\n      dup2\n        /* \"#utility.yul\":2918:2958   */\n      add\n        /* \"#utility.yul\":3060:3066   */\n      dup2\n        /* \"#utility.yul\":3048:3058   */\n      dup2\n        /* \"#utility.yul\":3045:3067   */\n      lt\n        /* \"#utility.yul\":3024:3042   */\n      0xffffffffffffffff\n        /* \"#utility.yul\":3012:3022   */\n      dup3\n        /* \"#utility.yul\":3009:3043   */\n      gt\n        /* \"#utility.yul\":3006:3068   */\n      or\n        /* \"#utility.yul\":3003:3091   */\n      iszero\n      tag_112\n      jumpi\n        /* \"#utility.yul\":3071:3089   */\n      tag_113\n      tag_71\n      jump\t// in\n    tag_113:\n        /* \"#utility.yul\":3003:3091   */\n    tag_112:\n        /* \"#utility.yul\":3111:3121   */\n      dup1\n        /* \"#utility.yul\":3107:3109   */\n      0x40\n        /* \"#utility.yul\":3100:3122   */\n      mstore\n        /* \"#utility.yul\":2890:3128   */\n      pop\n        /* \"#utility.yul\":2847:3128   */\n      pop\n      pop\n      jump\t// out\n        /* \"#utility.yul\":3134:3263   */\n    tag_73:\n        /* \"#utility.yul\":3168:3174   */\n      0x00\n        /* \"#utility.yul\":3195:3215   */\n      tag_115\n      tag_66\n      jump\t// in\n    tag_115:\n        /* \"#utility.yul\":3185:3215   */\n      swap1\n      pop\n        /* \"#utility.yul\":3224:3257   */\n      tag_116\n        /* \"#utility.yul\":3252:3256   */\n      dup3\n        /* \"#utility.yul\":3244:3250   */\n      dup3\n        /* \"#utility.yul\":3224:3257   */\n      tag_72\n      jump\t// in\n    tag_116:\n        /* \"#utility.yul\":3134:3263   */\n      swap2\n      swap1\n      pop\n      jump\t// out\n        /* \"#utility.yul\":3269:3580   */\n    tag_74:\n        /* \"#utility.yul\":3346:3350   */\n      0x00\n        /* \"#utility.yul\":3436:3454   */\n      0xffffffffffffffff\n        /* \"#utility.yul\":3428:3434   */\n      dup3\n        /* \"#utility.yul\":3425:3455   */\n      gt\n        /* \"#utility.yul\":3422:3478   */\n      iszero\n      tag_118\n      jumpi\n        /* \"#utility.yul\":3458:3476   */\n      tag_119\n      tag_71\n      jump\t// in\n    tag_119:\n        /* \"#utility.yul\":3422:3478   */\n    tag_118:\n        /* \"#utility.yul\":3508:3512   */\n      0x20\n        /* \"#utility.yul\":3500:3506   */\n      dup3\n        /* \"#utility.yul\":3496:3513   */\n      mul\n        /* \"#utility.yul\":3488:3513   */\n      swap1\n      pop\n        /* \"#utility.yul\":3568:3572   */\n      0x20\n        /* \"#utility.yul\":3562:3566   */\n      dup2\n        /* \"#utility.yul\":3558:3573   */\n      add\n        /* \"#utility.yul\":3550:3573   */\n      swap1\n      pop\n        /* \"#utility.yul\":3269:3580   */\n      swap2\n      swap1\n      pop\n      jump\t// out\n        /* \"#utility.yul\":3586:3703   */\n    tag_75:\n        /* \"#utility.yul\":3695:3696   */\n      0x00\n        /* \"#utility.yul\":3692:3693   */\n      dup1\n        /* \"#utility.yul\":3685:3697   */\n      revert\n        /* \"#utility.yul\":3709:3831   */\n    tag_76:\n        /* \"#utility.yul\":3782:3806   */\n      tag_122\n        /* \"#utility.yul\":3800:3805   */\n      dup2\n        /* \"#utility.yul\":3782:3806   */\n      tag_61\n      jump\t// in\n    tag_122:\n        /* \"#utility.yul\":3775:3780   */\n      dup2\n        /* \"#utility.yul\":3772:3807   */\n      eq\n        /* \"#utility.yul\":3762:3825   */\n      tag_123\n      jumpi\n        /* \"#utility.yul\":3821:3822   */\n      0x00\n        /* \"#utility.yul\":3818:3819   */\n      dup1\n        /* \"#utility.yul\":3811:3823   */\n      revert\n        /* \"#utility.yul\":3762:3825   */\n    tag_123:\n        /* \"#utility.yul\":3709:3831   */\n      pop\n      jump\t// out\n        /* \"#utility.yul\":3837:3976   */\n    tag_77:\n        /* \"#utility.yul\":3883:3888   */\n      0x00\n        /* \"#utility.yul\":3921:3927   */\n      dup2\n        /* \"#utility.yul\":3908:3928   */\n      calldataload\n        /* \"#utility.yul\":3899:3928   */\n      swap1\n      pop\n        /* \"#utility.yul\":3937:3970   */\n      tag_125\n        /* \"#utility.yul\":3964:3969   */\n      dup2\n        /* \"#utility.yul\":3937:3970   */\n      tag_76\n      jump\t// in\n    tag_125:\n        /* \"#utility.yul\":3837:3976   */\n      swap3\n      swap2\n      pop\n      pop\n      jump\t// out\n        /* \"#utility.yul\":3999:4709   */\n    tag_78:\n        /* \"#utility.yul\":4095:4100   */\n      0x00\n        /* \"#utility.yul\":4120:4201   */\n      tag_127\n        /* \"#utility.yul\":4136:4200   */\n      tag_128\n        /* \"#utility.yul\":4193:4199   */\n      dup5\n        /* \"#utility.yul\":4136:4200   */\n      tag_74\n      jump\t// in\n    tag_128:\n        /* \"#utility.yul\":4120:4201   */\n      tag_73\n      jump\t// in\n    tag_127:\n        /* \"#utility.yul\":4111:4201   */\n      swap1\n      pop\n        /* \"#utility.yul\":4221:4226   */\n      dup1\n        /* \"#utility.yul\":4250:4256   */\n      dup4\n        /* \"#utility.yul\":4243:4248   */\n      dup3\n        /* \"#utility.yul\":4236:4257   */\n      mstore\n        /* \"#utility.yul\":4284:4288   */\n      0x20\n        /* \"#utility.yul\":4277:4282   */\n      dup3\n        /* \"#utility.yul\":4273:4289   */\n      add\n        /* \"#utility.yul\":4266:4289   */\n      swap1\n      pop\n        /* \"#utility.yul\":4337:4341   */\n      0x20\n        /* \"#utility.yul\":4329:4335   */\n      dup5\n        /* \"#utility.yul\":4325:4342   */\n      mul\n        /* \"#utility.yul\":4317:4323   */\n      dup4\n        /* \"#utility.yul\":4313:4343   */\n      add\n        /* \"#utility.yul\":4366:4369   */\n      dup6\n        /* \"#utility.yul\":4358:4364   */\n      dup2\n        /* \"#utility.yul\":4355:4370   */\n      gt\n        /* \"#utility.yul\":4352:4474   */\n      iszero\n      tag_129\n      jumpi\n        /* \"#utility.yul\":4385:4464   */\n      tag_130\n      tag_75\n      jump\t// in\n    tag_130:\n        /* \"#utility.yul\":4352:4474   */\n    tag_129:\n        /* \"#utility.yul\":4500:4506   */\n      dup4\n        /* \"#utility.yul\":4483:4703   */\n    tag_131:\n        /* \"#utility.yul\":4517:4523   */\n      dup2\n        /* \"#utility.yul\":4512:4515   */\n      dup2\n        /* \"#utility.yul\":4509:4524   */\n      lt\n        /* \"#utility.yul\":4483:4703   */\n      iszero\n      tag_133\n      jumpi\n        /* \"#utility.yul\":4592:4595   */\n      dup1\n        /* \"#utility.yul\":4621:4658   */\n      tag_134\n        /* \"#utility.yul\":4654:4657   */\n      dup9\n        /* \"#utility.yul\":4642:4652   */\n      dup3\n        /* \"#utility.yul\":4621:4658   */\n      tag_77\n      jump\t// in\n    tag_134:\n        /* \"#utility.yul\":4616:4619   */\n      dup5\n        /* \"#utility.yul\":4609:4659   */\n      mstore\n        /* \"#utility.yul\":4688:4692   */\n      0x20\n        /* \"#utility.yul\":4683:4686   */\n      dup5\n        /* \"#utility.yul\":4679:4693   */\n      add\n        /* \"#utility.yul\":4672:4693   */\n      swap4\n      pop\n        /* \"#utility.yul\":4559:4703   */\n      pop\n        /* \"#utility.yul\":4543:4547   */\n      0x20\n        /* \"#utility.yul\":4538:4541   */\n      dup2\n        /* \"#utility.yul\":4534:4548   */\n      add\n        /* \"#utility.yul\":4527:4548   */\n      swap1\n      pop\n        /* \"#utility.yul\":4483:4703   */\n      jump(tag_131)\n    tag_133:\n        /* \"#utility.yul\":4487:4508   */\n      pop\n        /* \"#utility.yul\":4101:4709   */\n      pop\n      pop\n        /* \"#utility.yul\":3999:4709   */\n      swap4\n      swap3\n      pop\n      pop\n      pop\n      jump\t// out\n        /* \"#utility.yul\":4732:5102   */\n    tag_79:\n        /* \"#utility.yul\":4803:4808   */\n      0x00\n        /* \"#utility.yul\":4852:4855   */\n      dup3\n        /* \"#utility.yul\":4845:4849   */\n      0x1f\n        /* \"#utility.yul\":4837:4843   */\n      dup4\n        /* \"#utility.yul\":4833:4850   */\n      add\n        /* \"#utility.yul\":4829:4856   */\n      slt\n        /* \"#utility.yul\":4819:4941   */\n      tag_136\n      jumpi\n        /* \"#utility.yul\":4860:4939   */\n      tag_137\n      tag_69\n      jump\t// in\n    tag_137:\n        /* \"#utility.yul\":4819:4941   */\n    tag_136:\n        /* \"#utility.yul\":4977:4983   */\n      dup2\n        /* \"#utility.yul\":4964:4984   */\n      calldataload\n        /* \"#utility.yul\":5002:5096   */\n      tag_138\n        /* \"#utility.yul\":5092:5095   */\n      dup5\n        /* \"#utility.yul\":5084:5090   */\n      dup3\n        /* \"#utility.yul\":5077:5081   */\n      0x20\n        /* \"#utility.yul\":5069:5075   */\n      dup7\n        /* \"#utility.yul\":5065:5082   */\n      add\n        /* \"#utility.yul\":5002:5096   */\n      tag_78\n      jump\t// in\n    tag_138:\n        /* \"#utility.yul\":4993:5096   */\n      swap2\n      pop\n        /* \"#utility.yul\":4809:5102   */\n      pop\n        /* \"#utility.yul\":4732:5102   */\n      swap3\n      swap2\n      pop\n      pop\n      jump\t// out\n        /* \"#utility.yul\":5108:5647   */\n    tag_14:\n        /* \"#utility.yul\":5192:5198   */\n      0x00\n        /* \"#utility.yul\":5241:5243   */\n      0x20\n        /* \"#utility.yul\":5229:5238   */\n      dup3\n        /* \"#utility.yul\":5220:5227   */\n      dup5\n        /* \"#utility.yul\":5216:5239   */\n      sub\n        /* \"#utility.yul\":5212:5244   */\n      slt\n        /* \"#utility.yul\":5209:5328   */\n      iszero\n      tag_140\n      jumpi\n        /* \"#utility.yul\":5247:5326   */\n      tag_141\n      tag_67\n      jump\t// in\n    tag_141:\n        /* \"#utility.yul\":5209:5328   */\n    tag_140:\n        /* \"#utility.yul\":5395:5396   */\n      0x00\n        /* \"#utility.yul\":5384:5393   */\n      dup3\n        /* \"#utility.yul\":5380:5397   */\n      add\n        /* \"#utility.yul\":5367:5398   */\n      calldataload\n        /* \"#utility.yul\":5425:5443   */\n      0xffffffffffffffff\n        /* \"#utility.yul\":5417:5423   */\n      dup2\n        /* \"#utility.yul\":5414:5444   */\n      gt\n        /* \"#utility.yul\":5411:5528   */\n      iszero\n      tag_142\n      jumpi\n        /* \"#utility.yul\":5447:5526   */\n      tag_143\n      tag_68\n      jump\t// in\n    tag_143:\n        /* \"#utility.yul\":5411:5528   */\n    tag_142:\n        /* \"#utility.yul\":5552:5630   */\n      tag_144\n        /* \"#utility.yul\":5622:5629   */\n      dup5\n        /* \"#utility.yul\":5613:5619   */\n      dup3\n        /* \"#utility.yul\":5602:5611   */\n      dup6\n        /* \"#utility.yul\":5598:5620   */\n      add\n        /* \"#utility.yul\":5552:5630   */\n      tag_79\n      jump\t// in\n    tag_144:\n        /* \"#utility.yul\":5542:5630   */\n      swap2\n      pop\n        /* \"#utility.yul\":5338:5640   */\n      pop\n        /* \"#utility.yul\":5108:5647   */\n      swap3\n      swap2\n      pop\n      pop\n      jump\t// out\n        /* \"#utility.yul\":5653:6127   */\n    tag_26:\n        /* \"#utility.yul\":5721:5727   */\n      0x00\n        /* \"#utility.yul\":5729:5735   */\n      dup1\n        /* \"#utility.yul\":5778:5780   */\n      0x40\n        /* \"#utility.yul\":5766:5775   */\n      dup4\n        /* \"#utility.yul\":5757:5764   */\n      dup6\n        /* \"#utility.yul\":5753:5776   */\n      sub\n        /* \"#utility.yul\":5749:5781   */\n      slt\n        /* \"#utility.yul\":5746:5865   */\n      iszero\n      tag_146\n      jumpi\n        /* \"#utility.yul\":5784:5863   */\n      tag_147\n      tag_67\n      jump\t// in\n    tag_147:\n        /* \"#utility.yul\":5746:5865   */\n    tag_146:\n        /* \"#utility.yul\":5904:5905   */\n      0x00\n        /* \"#utility.yul\":5929:5982   */\n      tag_148\n        /* \"#utility.yul\":5974:5981   */\n      dup6\n        /* \"#utility.yul\":5965:5971   */\n      dup3\n        /* \"#utility.yul\":5954:5963   */\n      dup7\n        /* \"#utility.yul\":5950:5972   */\n      add\n        /* \"#utility.yul\":5929:5982   */\n      tag_77\n      jump\t// in\n    tag_148:\n        /* \"#utility.yul\":5919:5982   */\n      swap3\n      pop\n        /* \"#utility.yul\":5875:5992   */\n      pop\n        /* \"#utility.yul\":6031:6033   */\n      0x20\n        /* \"#utility.yul\":6057:6110   */\n      tag_149\n        /* \"#utility.yul\":6102:6109   */\n      dup6\n        /* \"#utility.yul\":6093:6099   */\n      dup3\n        /* \"#utility.yul\":6082:6091   */\n      dup7\n        /* \"#utility.yul\":6078:6100   */\n      add\n        /* \"#utility.yul\":6057:6110   */\n      tag_77\n      jump\t// in\n    tag_149:\n        /* \"#utility.yul\":6047:6110   */\n      swap2\n      pop\n        /* \"#utility.yul\":6002:6120   */\n      pop\n        /* \"#utility.yul\":5653:6127   */\n      swap3\n      pop\n      swap3\n      swap1\n      pop\n      jump\t// out\n        /* \"#utility.yul\":6133:6313   */\n    tag_38:\n        /* \"#utility.yul\":6181:6258   */\n      0x4e487b7100000000000000000000000000000000000000000000000000000000\n        /* \"#utility.yul\":6178:6179   */\n      0x00\n        /* \"#utility.yul\":6171:6259   */\n      mstore\n        /* \"#utility.yul\":6278:6282   */\n      0x32\n        /* \"#utility.yul\":6275:6276   */\n      0x04\n        /* \"#utility.yul\":6268:6283   */\n      mstore\n        /* \"#utility.yul\":6302:6306   */\n      0x24\n        /* \"#utility.yul\":6299:6300   */\n      0x00\n        /* \"#utility.yul\":6292:6307   */\n      revert\n        /* \"#utility.yul\":6319:6488   */\n    tag_80:\n        /* \"#utility.yul\":6403:6414   */\n      0x00\n        /* \"#utility.yul\":6437:6443   */\n      dup3\n        /* \"#utility.yul\":6432:6435   */\n      dup3\n        /* \"#utility.yul\":6425:6444   */\n      mstore\n        /* \"#utility.yul\":6477:6481   */\n      0x20\n        /* \"#utility.yul\":6472:6475   */\n      dup3\n        /* \"#utility.yul\":6468:6482   */\n      add\n        /* \"#utility.yul\":6453:6482   */\n      swap1\n      pop\n        /* \"#utility.yul\":6319:6488   */\n      swap3\n      swap2\n      pop\n      pop\n      jump\t// out\n        /* \"#utility.yul\":6494:6663   */\n    tag_81:\n        /* \"#utility.yul\":6634:6655   */\n      0x496e646578206f7574206f6620626f756e647300000000000000000000000000\n        /* \"#utility.yul\":6630:6631   */\n      0x00\n        /* \"#utility.yul\":6622:6628   */\n      dup3\n        /* \"#utility.yul\":6618:6632   */\n      add\n        /* \"#utility.yul\":6611:6656   */\n      mstore\n        /* \"#utility.yul\":6494:6663   */\n      pop\n      jump\t// out\n        /* \"#utility.yul\":6669:7035   */\n    tag_82:\n        /* \"#utility.yul\":6811:6814   */\n      0x00\n        /* \"#utility.yul\":6832:6899   */\n      tag_154\n        /* \"#utility.yul\":6896:6898   */\n      0x13\n        /* \"#utility.yul\":6891:6894   */\n      dup4\n        /* \"#utility.yul\":6832:6899   */\n      tag_80\n      jump\t// in\n    tag_154:\n        /* \"#utility.yul\":6825:6899   */\n      swap2\n      pop\n        /* \"#utility.yul\":6908:7001   */\n      tag_155\n        /* \"#utility.yul\":6997:7000   */\n      dup3\n        /* \"#utility.yul\":6908:7001   */\n      tag_81\n      jump\t// in\n    tag_155:\n        /* \"#utility.yul\":7026:7028   */\n      0x20\n        /* \"#utility.yul\":7021:7024   */\n      dup3\n        /* \"#utility.yul\":7017:7029   */\n      add\n        /* \"#utility.yul\":7010:7029   */\n      swap1\n      pop\n        /* \"#utility.yul\":6669:7035   */\n      swap2\n      swap1\n      pop\n      jump\t// out\n        /* \"#utility.yul\":7041:7460   */\n    tag_47:\n        /* \"#utility.yul\":7207:7211   */\n      0x00\n        /* \"#utility.yul\":7245:7247   */\n      0x20\n        /* \"#utility.yul\":7234:7243   */\n      dup3\n        /* \"#utility.yul\":7230:7248   */\n      add\n        /* \"#utility.yul\":7222:7248   */\n      swap1\n      pop\n        /* \"#utility.yul\":7294:7303   */\n      dup2\n        /* \"#utility.yul\":7288:7292   */\n      dup2\n        /* \"#utility.yul\":7284:7304   */\n      sub\n        /* \"#utility.yul\":7280:7281   */\n      0x00\n        /* \"#utility.yul\":7269:7278   */\n      dup4\n        /* \"#utility.yul\":7265:7282   */\n      add\n        /* \"#utility.yul\":7258:7305   */\n      mstore\n        /* \"#utility.yul\":7322:7453   */\n      tag_157\n        /* \"#utility.yul\":7448:7452   */\n      dup2\n        /* \"#utility.yul\":7322:7453   */\n      tag_82\n      jump\t// in\n    tag_157:\n        /* \"#utility.yul\":7314:7453   */\n      swap1\n      pop\n        /* \"#utility.yul\":7041:7460   */\n      swap2\n      swap1\n      pop\n      jump\t// out\n\n    auxdata: 0xa26469706673582212204ab836f9dd8afbd485d280f17331dc4b4bb5ac548b792581c60ed5901d8f41a764736f6c634300081a0033\n}\n",
				"bytecode": {
					"linkReferences": {},
					"object": "6080604052348015600e575f80fd5b5061069a8061001c5f395ff3fe608060405234801561000f575f80fd5b5060043610610055575f3560e01c80633bc5de3014610059578063aa44269d14610077578063bc9c953614610093578063c104210b146100c3578063e6b80ce6146100f3575b5f80fd5b61006161010f565b60405161006e919061038f565b60405180910390f35b610091600480360381019061008c919061053a565b610164565b005b6100ad60048036038101906100a8919061053a565b61017d565b6040516100ba919061038f565b60405180910390f35b6100dd60048036038101906100d8919061053a565b6101c9565b6040516100ea919061038f565b60405180910390f35b61010d60048036038101906101089190610581565b6101ff565b005b60605f80548060200260200160405190810160405280929190818152602001828054801561015a57602002820191905f5260205f20905b815481526020019060010190808311610146575b5050505050905090565b805f9080519060200190610179929190610269565b5050565b60605f825111156101ab576103e7825f8151811061019e5761019d6105bf565b5b6020026020010181815250505b815f90805190602001906101c0929190610269565b50819050919050565b60605f825111156101f7576103e7825f815181106101ea576101e96105bf565b5b6020026020010181815250505b819050919050565b5f805490508210610245576040517f08c379a000000000000000000000000000000000000000000000000000000000815260040161023c90610646565b60405180910390fd5b805f8381548110610259576102586105bf565b5b905f5260205f2001819055505050565b828054828255905f5260205f209081019282156102a3579160200282015b828111156102a2578251825591602001919060010190610287565b5b5090506102b091906102b4565b5090565b5b808211156102cb575f815f9055506001016102b5565b5090565b5f81519050919050565b5f82825260208201905092915050565b5f819050602082019050919050565b5f819050919050565b61030a816102f8565b82525050565b5f61031b8383610301565b60208301905092915050565b5f602082019050919050565b5f61033d826102cf565b61034781856102d9565b9350610352836102e9565b805f5b838110156103825781516103698882610310565b975061037483610327565b925050600181019050610355565b5085935050505092915050565b5f6020820190508181035f8301526103a78184610333565b905092915050565b5f604051905090565b5f80fd5b5f80fd5b5f80fd5b5f601f19601f8301169050919050565b7f4e487b71000000000000000000000000000000000000000000000000000000005f52604160045260245ffd5b61040a826103c4565b810181811067ffffffffffffffff82111715610429576104286103d4565b5b80604052505050565b5f61043b6103af565b90506104478282610401565b919050565b5f67ffffffffffffffff821115610466576104656103d4565b5b602082029050602081019050919050565b5f80fd5b610484816102f8565b811461048e575f80fd5b50565b5f8135905061049f8161047b565b92915050565b5f6104b76104b28461044c565b610432565b905080838252602082019050602084028301858111156104da576104d9610477565b5b835b8181101561050357806104ef8882610491565b8452602084019350506020810190506104dc565b5050509392505050565b5f82601f830112610521576105206103c0565b5b81356105318482602086016104a5565b91505092915050565b5f6020828403121561054f5761054e6103b8565b5b5f82013567ffffffffffffffff81111561056c5761056b6103bc565b5b6105788482850161050d565b91505092915050565b5f8060408385031215610597576105966103b8565b5b5f6105a485828601610491565b92505060206105b585828601610491565b9150509250929050565b7f4e487b71000000000000000000000000000000000000000000000000000000005f52603260045260245ffd5b5f82825260208201905092915050565b7f496e646578206f7574206f6620626f756e6473000000000000000000000000005f82015250565b5f6106306013836105ec565b915061063b826105fc565b602082019050919050565b5f6020820190508181035f83015261065d81610624565b905091905056fea26469706673582212204ab836f9dd8afbd485d280f17331dc4b4bb5ac548b792581c60ed5901d8f41a764736f6c634300081a0033",
					"opcodes": "PUSH1 0x80 PUSH1 0x40 MSTORE CALLVALUE DUP1 ISZERO PUSH1 0xE JUMPI PUSH0 DUP1 REVERT JUMPDEST POP PUSH2 0x69A DUP1 PUSH2 0x1C PUSH0 CODECOPY PUSH0 RETURN INVALID PUSH1 0x80 PUSH1 0x40 MSTORE CALLVALUE DUP1 ISZERO PUSH2 0xF JUMPI PUSH0 DUP1 REVERT JUMPDEST POP PUSH1 0x4 CALLDATASIZE LT PUSH2 0x55 JUMPI PUSH0 CALLDATALOAD PUSH1 0xE0 SHR DUP1 PUSH4 0x3BC5DE30 EQ PUSH2 0x59 JUMPI DUP1 PUSH4 0xAA44269D EQ PUSH2 0x77 JUMPI DUP1 PUSH4 0xBC9C9536 EQ PUSH2 0x93 JUMPI DUP1 PUSH4 0xC104210B EQ PUSH2 0xC3 JUMPI DUP1 PUSH4 0xE6B80CE6 EQ PUSH2 0xF3 JUMPI JUMPDEST PUSH0 DUP1 REVERT JUMPDEST PUSH2 0x61 PUSH2 0x10F JUMP JUMPDEST PUSH1 0x40 MLOAD PUSH2 0x6E SWAP2 SWAP1 PUSH2 0x38F JUMP JUMPDEST PUSH1 0x40 MLOAD DUP1 SWAP2 SUB SWAP1 RETURN JUMPDEST PUSH2 0x91 PUSH1 0x4 DUP1 CALLDATASIZE SUB DUP2 ADD SWAP1 PUSH2 0x8C SWAP2 SWAP1 PUSH2 0x53A JUMP JUMPDEST PUSH2 0x164 JUMP JUMPDEST STOP JUMPDEST PUSH2 0xAD PUSH1 0x4 DUP1 CALLDATASIZE SUB DUP2 ADD SWAP1 PUSH2 0xA8 SWAP2 SWAP1 PUSH2 0x53A JUMP JUMPDEST PUSH2 0x17D JUMP JUMPDEST PUSH1 0x40 MLOAD PUSH2 0xBA SWAP2 SWAP1 PUSH2 0x38F JUMP JUMPDEST PUSH1 0x40 MLOAD DUP1 SWAP2 SUB SWAP1 RETURN JUMPDEST PUSH2 0xDD PUSH1 0x4 DUP1 CALLDATASIZE SUB DUP2 ADD SWAP1 PUSH2 0xD8 SWAP2 SWAP1 PUSH2 0x53A JUMP JUMPDEST PUSH2 0x1C9 JUMP JUMPDEST PUSH1 0x40 MLOAD PUSH2 0xEA SWAP2 SWAP1 PUSH2 0x38F JUMP JUMPDEST PUSH1 0x40 MLOAD DUP1 SWAP2 SUB SWAP1 RETURN JUMPDEST PUSH2 0x10D PUSH1 0x4 DUP1 CALLDATASIZE SUB DUP2 ADD SWAP1 PUSH2 0x108 SWAP2 SWAP1 PUSH2 0x581 JUMP JUMPDEST PUSH2 0x1FF JUMP JUMPDEST STOP JUMPDEST PUSH1 0x60 PUSH0 DUP1 SLOAD DUP1 PUSH1 0x20 MUL PUSH1 0x20 ADD PUSH1 0x40 MLOAD SWAP1 DUP2 ADD PUSH1 0x40 MSTORE DUP1 SWAP3 SWAP2 SWAP1 DUP2 DUP2 MSTORE PUSH1 0x20 ADD DUP3 DUP1 SLOAD DUP1 ISZERO PUSH2 0x15A JUMPI PUSH1 0x20 MUL DUP3 ADD SWAP2 SWAP1 PUSH0 MSTORE PUSH1 0x20 PUSH0 KECCAK256 SWAP1 JUMPDEST DUP2 SLOAD DUP2 MSTORE PUSH1 0x20 ADD SWAP1 PUSH1 0x1 ADD SWAP1 DUP1 DUP4 GT PUSH2 0x146 JUMPI JUMPDEST POP POP POP POP POP SWAP1 POP SWAP1 JUMP JUMPDEST DUP1 PUSH0 SWAP1 DUP1 MLOAD SWAP1 PUSH1 0x20 ADD SWAP1 PUSH2 0x179 SWAP3 SWAP2 SWAP1 PUSH2 0x269 JUMP JUMPDEST POP POP JUMP JUMPDEST PUSH1 0x60 PUSH0 DUP3 MLOAD GT ISZERO PUSH2 0x1AB JUMPI PUSH2 0x3E7 DUP3 PUSH0 DUP2 MLOAD DUP2 LT PUSH2 0x19E JUMPI PUSH2 0x19D PUSH2 0x5BF JUMP JUMPDEST JUMPDEST PUSH1 0x20 MUL PUSH1 0x20 ADD ADD DUP2 DUP2 MSTORE POP POP JUMPDEST DUP2 PUSH0 SWAP1 DUP1 MLOAD SWAP1 PUSH1 0x20 ADD SWAP1 PUSH2 0x1C0 SWAP3 SWAP2 SWAP1 PUSH2 0x269 JUMP JUMPDEST POP DUP2 SWAP1 POP SWAP2 SWAP1 POP JUMP JUMPDEST PUSH1 0x60 PUSH0 DUP3 MLOAD GT ISZERO PUSH2 0x1F7 JUMPI PUSH2 0x3E7 DUP3 PUSH0 DUP2 MLOAD DUP2 LT PUSH2 0x1EA JUMPI PUSH2 0x1E9 PUSH2 0x5BF JUMP JUMPDEST JUMPDEST PUSH1 0x20 MUL PUSH1 0x20 ADD ADD DUP2 DUP2 MSTORE POP POP JUMPDEST DUP2 SWAP1 POP SWAP2 SWAP1 POP JUMP JUMPDEST PUSH0 DUP1 SLOAD SWAP1 POP DUP3 LT PUSH2 0x245 JUMPI PUSH1 0x40 MLOAD PUSH32 0x8C379A000000000000000000000000000000000000000000000000000000000 DUP2 MSTORE PUSH1 0x4 ADD PUSH2 0x23C SWAP1 PUSH2 0x646 JUMP JUMPDEST PUSH1 0x40 MLOAD DUP1 SWAP2 SUB SWAP1 REVERT JUMPDEST DUP1 PUSH0 DUP4 DUP2 SLOAD DUP2 LT PUSH2 0x259 JUMPI PUSH2 0x258 PUSH2 0x5BF JUMP JUMPDEST JUMPDEST SWAP1 PUSH0 MSTORE PUSH1 0x20 PUSH0 KECCAK256 ADD DUP2 SWAP1 SSTORE POP POP POP JUMP JUMPDEST DUP3 DUP1 SLOAD DUP3 DUP3 SSTORE SWAP1 PUSH0 MSTORE PUSH1 0x20 PUSH0 KECCAK256 SWAP1 DUP2 ADD SWAP3 DUP3 ISZERO PUSH2 0x2A3 JUMPI SWAP2 PUSH1 0x20 MUL DUP3 ADD JUMPDEST DUP3 DUP2 GT ISZERO PUSH2 0x2A2 JUMPI DUP3 MLOAD DUP3 SSTORE SWAP2 PUSH1 0x20 ADD SWAP2 SWAP1 PUSH1 0x1 ADD SWAP1 PUSH2 0x287 JUMP JUMPDEST JUMPDEST POP SWAP1 POP PUSH2 0x2B0 SWAP2 SWAP1 PUSH2 0x2B4 JUMP JUMPDEST POP SWAP1 JUMP JUMPDEST JUMPDEST DUP1 DUP3 GT ISZERO PUSH2 0x2CB JUMPI PUSH0 DUP2 PUSH0 SWAP1 SSTORE POP PUSH1 0x1 ADD PUSH2 0x2B5 JUMP JUMPDEST POP SWAP1 JUMP JUMPDEST PUSH0 DUP2 MLOAD SWAP1 POP SWAP2 SWAP1 POP JUMP JUMPDEST PUSH0 DUP3 DUP3 MSTORE PUSH1 0x20 DUP3 ADD SWAP1 POP SWAP3 SWAP2 POP POP JUMP JUMPDEST PUSH0 DUP2 SWAP1 POP PUSH1 0x20 DUP3 ADD SWAP1 POP SWAP2 SWAP1 POP JUMP JUMPDEST PUSH0 DUP2 SWAP1 POP SWAP2 SWAP1 POP JUMP JUMPDEST PUSH2 0x30A DUP2 PUSH2 0x2F8 JUMP JUMPDEST DUP3 MSTORE POP POP JUMP JUMPDEST PUSH0 PUSH2 0x31B DUP4 DUP4 PUSH2 0x301 JUMP JUMPDEST PUSH1 0x20 DUP4 ADD SWAP1 POP SWAP3 SWAP2 POP POP JUMP JUMPDEST PUSH0 PUSH1 0x20 DUP3 ADD SWAP1 POP SWAP2 SWAP1 POP JUMP JUMPDEST PUSH0 PUSH2 0x33D DUP3 PUSH2 0x2CF JUMP JUMPDEST PUSH2 0x347 DUP2 DUP6 PUSH2 0x2D9 JUMP JUMPDEST SWAP4 POP PUSH2 0x352 DUP4 PUSH2 0x2E9 JUMP JUMPDEST DUP1 PUSH0 JUMPDEST DUP4 DUP2 LT ISZERO PUSH2 0x382 JUMPI DUP2 MLOAD PUSH2 0x369 DUP9 DUP3 PUSH2 0x310 JUMP JUMPDEST SWAP8 POP PUSH2 0x374 DUP4 PUSH2 0x327 JUMP JUMPDEST SWAP3 POP POP PUSH1 0x1 DUP2 ADD SWAP1 POP PUSH2 0x355 JUMP JUMPDEST POP DUP6 SWAP4 POP POP POP POP SWAP3 SWAP2 POP POP JUMP JUMPDEST PUSH0 PUSH1 0x20 DUP3 ADD SWAP1 POP DUP2 DUP2 SUB PUSH0 DUP4 ADD MSTORE PUSH2 0x3A7 DUP2 DUP5 PUSH2 0x333 JUMP JUMPDEST SWAP1 POP SWAP3 SWAP2 POP POP JUMP JUMPDEST PUSH0 PUSH1 0x40 MLOAD SWAP1 POP SWAP1 JUMP JUMPDEST PUSH0 DUP1 REVERT JUMPDEST PUSH0 DUP1 REVERT JUMPDEST PUSH0 DUP1 REVERT JUMPDEST PUSH0 PUSH1 0x1F NOT PUSH1 0x1F DUP4 ADD AND SWAP1 POP SWAP2 SWAP1 POP JUMP JUMPDEST PUSH32 0x4E487B7100000000000000000000000000000000000000000000000000000000 PUSH0 MSTORE PUSH1 0x41 PUSH1 0x4 MSTORE PUSH1 0x24 PUSH0 REVERT JUMPDEST PUSH2 0x40A DUP3 PUSH2 0x3C4 JUMP JUMPDEST DUP2 ADD DUP2 DUP2 LT PUSH8 0xFFFFFFFFFFFFFFFF DUP3 GT OR ISZERO PUSH2 0x429 JUMPI PUSH2 0x428 PUSH2 0x3D4 JUMP JUMPDEST JUMPDEST DUP1 PUSH1 0x40 MSTORE POP POP POP JUMP JUMPDEST PUSH0 PUSH2 0x43B PUSH2 0x3AF JUMP JUMPDEST SWAP1 POP PUSH2 0x447 DUP3 DUP3 PUSH2 0x401 JUMP JUMPDEST SWAP2 SWAP1 POP JUMP JUMPDEST PUSH0 PUSH8 0xFFFFFFFFFFFFFFFF DUP3 GT ISZERO PUSH2 0x466 JUMPI PUSH2 0x465 PUSH2 0x3D4 JUMP JUMPDEST JUMPDEST PUSH1 0x20 DUP3 MUL SWAP1 POP PUSH1 0x20 DUP2 ADD SWAP1 POP SWAP2 SWAP1 POP JUMP JUMPDEST PUSH0 DUP1 REVERT JUMPDEST PUSH2 0x484 DUP2 PUSH2 0x2F8 JUMP JUMPDEST DUP2 EQ PUSH2 0x48E JUMPI PUSH0 DUP1 REVERT JUMPDEST POP JUMP JUMPDEST PUSH0 DUP2 CALLDATALOAD SWAP1 POP PUSH2 0x49F DUP2 PUSH2 0x47B JUMP JUMPDEST SWAP3 SWAP2 POP POP JUMP JUMPDEST PUSH0 PUSH2 0x4B7 PUSH2 0x4B2 DUP5 PUSH2 0x44C JUMP JUMPDEST PUSH2 0x432 JUMP JUMPDEST SWAP1 POP DUP1 DUP4 DUP3 MSTORE PUSH1 0x20 DUP3 ADD SWAP1 POP PUSH1 0x20 DUP5 MUL DUP4 ADD DUP6 DUP2 GT ISZERO PUSH2 0x4DA JUMPI PUSH2 0x4D9 PUSH2 0x477 JUMP JUMPDEST JUMPDEST DUP4 JUMPDEST DUP2 DUP2 LT ISZERO PUSH2 0x503 JUMPI DUP1 PUSH2 0x4EF DUP9 DUP3 PUSH2 0x491 JUMP JUMPDEST DUP5 MSTORE PUSH1 0x20 DUP5 ADD SWAP4 POP POP PUSH1 0x20 DUP2 ADD SWAP1 POP PUSH2 0x4DC JUMP JUMPDEST POP POP POP SWAP4 SWAP3 POP POP POP JUMP JUMPDEST PUSH0 DUP3 PUSH1 0x1F DUP4 ADD SLT PUSH2 0x521 JUMPI PUSH2 0x520 PUSH2 0x3C0 JUMP JUMPDEST JUMPDEST DUP2 CALLDATALOAD PUSH2 0x531 DUP5 DUP3 PUSH1 0x20 DUP7 ADD PUSH2 0x4A5 JUMP JUMPDEST SWAP2 POP POP SWAP3 SWAP2 POP POP JUMP JUMPDEST PUSH0 PUSH1 0x20 DUP3 DUP5 SUB SLT ISZERO PUSH2 0x54F JUMPI PUSH2 0x54E PUSH2 0x3B8 JUMP JUMPDEST JUMPDEST PUSH0 DUP3 ADD CALLDATALOAD PUSH8 0xFFFFFFFFFFFFFFFF DUP2 GT ISZERO PUSH2 0x56C JUMPI PUSH2 0x56B PUSH2 0x3BC JUMP JUMPDEST JUMPDEST PUSH2 0x578 DUP5 DUP3 DUP6 ADD PUSH2 0x50D JUMP JUMPDEST SWAP2 POP POP SWAP3 SWAP2 POP POP JUMP JUMPDEST PUSH0 DUP1 PUSH1 0x40 DUP4 DUP6 SUB SLT ISZERO PUSH2 0x597 JUMPI PUSH2 0x596 PUSH2 0x3B8 JUMP JUMPDEST JUMPDEST PUSH0 PUSH2 0x5A4 DUP6 DUP3 DUP7 ADD PUSH2 0x491 JUMP JUMPDEST SWAP3 POP POP PUSH1 0x20 PUSH2 0x5B5 DUP6 DUP3 DUP7 ADD PUSH2 0x491 JUMP JUMPDEST SWAP2 POP POP SWAP3 POP SWAP3 SWAP1 POP JUMP JUMPDEST PUSH32 0x4E487B7100000000000000000000000000000000000000000000000000000000 PUSH0 MSTORE PUSH1 0x32 PUSH1 0x4 MSTORE PUSH1 0x24 PUSH0 REVERT JUMPDEST PUSH0 DUP3 DUP3 MSTORE PUSH1 0x20 DUP3 ADD SWAP1 POP SWAP3 SWAP2 POP POP JUMP JUMPDEST PUSH32 0x496E646578206F7574206F6620626F756E647300000000000000000000000000 PUSH0 DUP3 ADD MSTORE POP JUMP JUMPDEST PUSH0 PUSH2 0x630 PUSH1 0x13 DUP4 PUSH2 0x5EC JUMP JUMPDEST SWAP2 POP PUSH2 0x63B DUP3 PUSH2 0x5FC JUMP JUMPDEST PUSH1 0x20 DUP3 ADD SWAP1 POP SWAP2 SWAP1 POP JUMP JUMPDEST PUSH0 PUSH1 0x20 DUP3 ADD SWAP1 POP DUP2 DUP2 SUB PUSH0 DUP4 ADD MSTORE PUSH2 0x65D DUP2 PUSH2 0x624 JUMP JUMPDEST SWAP1 POP SWAP2 SWAP1 POP JUMP INVALID LOG2 PUSH5 0x6970667358 0x22 SLT KECCAK256 BLOBBASEFEE 0xB8 CALLDATASIZE 0xF9 0xDD DUP11 0xFB 0xD4 DUP6 0xD2 DUP1 CALL PUSH20 0x31DC4B4BB5AC548B792581C60ED5901D8F41A764 PUSH20 0x6F6C634300081A00330000000000000000000000 "
				},
				"gasEstimates": {
					"creation": {
						"codeDepositCost": "338000",
						"executionCost": "372",
						"totalCost": "338372"
					},
					"external": {
						"getData()": "infinite",
						"modifyMemoryData(uint256[])": "infinite",
						"modifyMemoryData1(uint256[])": "infinite",
						"modifyStorageData(uint256,uint256)": "infinite",
						"updateData(uint256[])": "infinite"
					}
				},
				"methodIdentifiers": {
					"getData()": "3bc5de30",
					"modifyMemoryData(uint256[])": "c104210b",
					"modifyMemoryData1(uint256[])": "bc9c9536",
					"modifyStorageData(uint256,uint256)": "e6b80ce6",
					"updateData(uint256[])": "aa44269d"
				}
			},
			"storageLayout": {
				"storage": [
					{
						"astId": 4,
						"contract": ".deps/remix-tests/study/four.sol:Four",
						"label": "data",
						"offset": 0,
						"slot": "0",
						"type": "t_array(t_uint256)dyn_storage"
					}
				],
				"types": {
					"t_array(t_uint256)dyn_storage": {
						"base": "t_uint256",
						"encoding": "dynamic_array",
						"label": "uint256[]",
						"numberOfBytes": "32"
					},
					"t_uint256": {
						"encoding": "inplace",
						"label": "uint256",
						"numberOfBytes": "32"
					}
				}
			},
			"userdoc": {
				"kind": "user",
				"methods": {},
				"version": 1
			}
		}
	}
}