{
	"data": {
		"bytecode": {
			"linkReferences": {},
			"object": "6080604052348015600e575f80fd5b50600a5f8190555061051f806100235f395ff3fe608060405234801561000f575f80fd5b506004361061007b575f3560e01c8063b41cd3c811610059578063b41cd3c8146100fd578063b68af89b1461011b578063de2927891461014b578063f88e9fbf146101695761007b565b80636f52cd7a1461007f57806372a099b7146100af578063771602f7146100cd575b5f80fd5b610099600480360381019061009491906102a4565b610199565b6040516100a691906102f1565b60405180910390f35b6100b76101a6565b6040516100c49190610325565b60405180910390f35b6100e760048036038101906100e2919061033e565b6101bb565b6040516100f4919061038b565b60405180910390f35b6101056101d0565b604051610112919061038b565b60405180910390f35b610135600480360381019061013091906102a4565b6101ee565b60405161014291906102f1565b60405180910390f35b6101536101fb565b604051610160919061038b565b60405180910390f35b610183600480360381019061017e919061033e565b610225565b604051610190919061038b565b60405180910390f35b5f8183901b905092915050565b5f80600190505f600282039050809250505090565b5f81836101c891906103d1565b905092915050565b5f80600190505f816101e190610404565b9150819050809250505090565b5f8183901d905092915050565b5f80600190505f600290508082610212919061044b565b5f5461021e91906103d1565b9250505090565b5f818361023291906104b9565b905092915050565b5f80fd5b5f819050919050565b6102508161023e565b811461025a575f80fd5b50565b5f8135905061026b81610247565b92915050565b5f819050919050565b61028381610271565b811461028d575f80fd5b50565b5f8135905061029e8161027a565b92915050565b5f80604083850312156102ba576102b961023a565b5b5f6102c78582860161025d565b92505060206102d885828601610290565b9150509250929050565b6102eb8161023e565b82525050565b5f6020820190506103045f8301846102e2565b92915050565b5f60ff82169050919050565b61031f8161030a565b82525050565b5f6020820190506103385f830184610316565b92915050565b5f80604083850312156103545761035361023a565b5b5f61036185828601610290565b925050602061037285828601610290565b9150509250929050565b61038581610271565b82525050565b5f60208201905061039e5f83018461037c565b92915050565b7f4e487b71000000000000000000000000000000000000000000000000000000005f52601160045260245ffd5b5f6103db82610271565b91506103e683610271565b92508282019050808211156103fe576103fd6103a4565b5b92915050565b5f61040e82610271565b91507fffffffffffffffffffffffffffffffffffffffffffffffffffffffffffffffff82036104405761043f6103a4565b5b600182019050919050565b5f61045582610271565b915061046083610271565b925082820261046e81610271565b91508282048414831517610485576104846103a4565b5b5092915050565b7f4e487b71000000000000000000000000000000000000000000000000000000005f52601260045260245ffd5b5f6104c382610271565b91506104ce83610271565b9250826104de576104dd61048c565b5b82820490509291505056fea26469706673582212206aa54883b815cb19e2fa44b7ded7084bbc30d88c5f629469dc20adb1533eee7d64736f6c634300081a0033",
			"opcodes": "PUSH1 0x80 PUSH1 0x40 MSTORE CALLVALUE DUP1 ISZERO PUSH1 0xE JUMPI PUSH0 DUP1 REVERT JUMPDEST POP PUSH1 0xA PUSH0 DUP2 SWAP1 SSTORE POP PUSH2 0x51F DUP1 PUSH2 0x23 PUSH0 CODECOPY PUSH0 RETURN INVALID PUSH1 0x80 PUSH1 0x40 MSTORE CALLVALUE DUP1 ISZERO PUSH2 0xF JUMPI PUSH0 DUP1 REVERT JUMPDEST POP PUSH1 0x4 CALLDATASIZE LT PUSH2 0x7B JUMPI PUSH0 CALLDATALOAD PUSH1 0xE0 SHR DUP1 PUSH4 0xB41CD3C8 GT PUSH2 0x59 JUMPI DUP1 PUSH4 0xB41CD3C8 EQ PUSH2 0xFD JUMPI DUP1 PUSH4 0xB68AF89B EQ PUSH2 0x11B JUMPI DUP1 PUSH4 0xDE292789 EQ PUSH2 0x14B JUMPI DUP1 PUSH4 0xF88E9FBF EQ PUSH2 0x169 JUMPI PUSH2 0x7B JUMP JUMPDEST DUP1 PUSH4 0x6F52CD7A EQ PUSH2 0x7F JUMPI DUP1 PUSH4 0x72A099B7 EQ PUSH2 0xAF JUMPI DUP1 PUSH4 0x771602F7 EQ PUSH2 0xCD JUMPI JUMPDEST PUSH0 DUP1 REVERT JUMPDEST PUSH2 0x99 PUSH1 0x4 DUP1 CALLDATASIZE SUB DUP2 ADD SWAP1 PUSH2 0x94 SWAP2 SWAP1 PUSH2 0x2A4 JUMP JUMPDEST PUSH2 0x199 JUMP JUMPDEST PUSH1 0x40 MLOAD PUSH2 0xA6 SWAP2 SWAP1 PUSH2 0x2F1 JUMP JUMPDEST PUSH1 0x40 MLOAD DUP1 SWAP2 SUB SWAP1 RETURN JUMPDEST PUSH2 0xB7 PUSH2 0x1A6 JUMP JUMPDEST PUSH1 0x40 MLOAD PUSH2 0xC4 SWAP2 SWAP1 PUSH2 0x325 JUMP JUMPDEST PUSH1 0x40 MLOAD DUP1 SWAP2 SUB SWAP1 RETURN JUMPDEST PUSH2 0xE7 PUSH1 0x4 DUP1 CALLDATASIZE SUB DUP2 ADD SWAP1 PUSH2 0xE2 SWAP2 SWAP1 PUSH2 0x33E JUMP JUMPDEST PUSH2 0x1BB JUMP JUMPDEST PUSH1 0x40 MLOAD PUSH2 0xF4 SWAP2 SWAP1 PUSH2 0x38B JUMP JUMPDEST PUSH1 0x40 MLOAD DUP1 SWAP2 SUB SWAP1 RETURN JUMPDEST PUSH2 0x105 PUSH2 0x1D0 JUMP JUMPDEST PUSH1 0x40 MLOAD PUSH2 0x112 SWAP2 SWAP1 PUSH2 0x38B JUMP JUMPDEST PUSH1 0x40 MLOAD DUP1 SWAP2 SUB SWAP1 RETURN JUMPDEST PUSH2 0x135 PUSH1 0x4 DUP1 CALLDATASIZE SUB DUP2 ADD SWAP1 PUSH2 0x130 SWAP2 SWAP1 PUSH2 0x2A4 JUMP JUMPDEST PUSH2 0x1EE JUMP JUMPDEST PUSH1 0x40 MLOAD PUSH2 0x142 SWAP2 SWAP1 PUSH2 0x2F1 JUMP JUMPDEST PUSH1 0x40 MLOAD DUP1 SWAP2 SUB SWAP1 RETURN JUMPDEST PUSH2 0x153 PUSH2 0x1FB JUMP JUMPDEST PUSH1 0x40 MLOAD PUSH2 0x160 SWAP2 SWAP1 PUSH2 0x38B JUMP JUMPDEST PUSH1 0x40 MLOAD DUP1 SWAP2 SUB SWAP1 RETURN JUMPDEST PUSH2 0x183 PUSH1 0x4 DUP1 CALLDATASIZE SUB DUP2 ADD SWAP1 PUSH2 0x17E SWAP2 SWAP1 PUSH2 0x33E JUMP JUMPDEST PUSH2 0x225 JUMP JUMPDEST PUSH1 0x40 MLOAD PUSH2 0x190 SWAP2 SWAP1 PUSH2 0x38B JUMP JUMPDEST PUSH1 0x40 MLOAD DUP1 SWAP2 SUB SWAP1 RETURN JUMPDEST PUSH0 DUP2 DUP4 SWAP1 SHL SWAP1 POP SWAP3 SWAP2 POP POP JUMP JUMPDEST PUSH0 DUP1 PUSH1 0x1 SWAP1 POP PUSH0 PUSH1 0x2 DUP3 SUB SWAP1 POP DUP1 SWAP3 POP POP POP SWAP1 JUMP JUMPDEST PUSH0 DUP2 DUP4 PUSH2 0x1C8 SWAP2 SWAP1 PUSH2 0x3D1 JUMP JUMPDEST SWAP1 POP SWAP3 SWAP2 POP POP JUMP JUMPDEST PUSH0 DUP1 PUSH1 0x1 SWAP1 POP PUSH0 DUP2 PUSH2 0x1E1 SWAP1 PUSH2 0x404 JUMP JUMPDEST SWAP2 POP DUP2 SWAP1 POP DUP1 SWAP3 POP POP POP SWAP1 JUMP JUMPDEST PUSH0 DUP2 DUP4 SWAP1 SAR SWAP1 POP SWAP3 SWAP2 POP POP JUMP JUMPDEST PUSH0 DUP1 PUSH1 0x1 SWAP1 POP PUSH0 PUSH1 0x2 SWAP1 POP DUP1 DUP3 PUSH2 0x212 SWAP2 SWAP1 PUSH2 0x44B JUMP JUMPDEST PUSH0 SLOAD PUSH2 0x21E SWAP2 SWAP1 PUSH2 0x3D1 JUMP JUMPDEST SWAP3 POP POP POP SWAP1 JUMP JUMPDEST PUSH0 DUP2 DUP4 PUSH2 0x232 SWAP2 SWAP1 PUSH2 0x4B9 JUMP JUMPDEST SWAP1 POP SWAP3 SWAP2 POP POP JUMP JUMPDEST PUSH0 DUP1 REVERT JUMPDEST PUSH0 DUP2 SWAP1 POP SWAP2 SWAP1 POP JUMP JUMPDEST PUSH2 0x250 DUP2 PUSH2 0x23E JUMP JUMPDEST DUP2 EQ PUSH2 0x25A JUMPI PUSH0 DUP1 REVERT JUMPDEST POP JUMP JUMPDEST PUSH0 DUP2 CALLDATALOAD SWAP1 POP PUSH2 0x26B DUP2 PUSH2 0x247 JUMP JUMPDEST SWAP3 SWAP2 POP POP JUMP JUMPDEST PUSH0 DUP2 SWAP1 POP SWAP2 SWAP1 POP JUMP JUMPDEST PUSH2 0x283 DUP2 PUSH2 0x271 JUMP JUMPDEST DUP2 EQ PUSH2 0x28D JUMPI PUSH0 DUP1 REVERT JUMPDEST POP JUMP JUMPDEST PUSH0 DUP2 CALLDATALOAD SWAP1 POP PUSH2 0x29E DUP2 PUSH2 0x27A JUMP JUMPDEST SWAP3 SWAP2 POP POP JUMP JUMPDEST PUSH0 DUP1 PUSH1 0x40 DUP4 DUP6 SUB SLT ISZERO PUSH2 0x2BA JUMPI PUSH2 0x2B9 PUSH2 0x23A JUMP JUMPDEST JUMPDEST PUSH0 PUSH2 0x2C7 DUP6 DUP3 DUP7 ADD PUSH2 0x25D JUMP JUMPDEST SWAP3 POP POP PUSH1 0x20 PUSH2 0x2D8 DUP6 DUP3 DUP7 ADD PUSH2 0x290 JUMP JUMPDEST SWAP2 POP POP SWAP3 POP SWAP3 SWAP1 POP JUMP JUMPDEST PUSH2 0x2EB DUP2 PUSH2 0x23E JUMP JUMPDEST DUP3 MSTORE POP POP JUMP JUMPDEST PUSH0 PUSH1 0x20 DUP3 ADD SWAP1 POP PUSH2 0x304 PUSH0 DUP4 ADD DUP5 PUSH2 0x2E2 JUMP JUMPDEST SWAP3 SWAP2 POP POP JUMP JUMPDEST PUSH0 PUSH1 0xFF DUP3 AND SWAP1 POP SWAP2 SWAP1 POP JUMP JUMPDEST PUSH2 0x31F DUP2 PUSH2 0x30A JUMP JUMPDEST DUP3 MSTORE POP POP JUMP JUMPDEST PUSH0 PUSH1 0x20 DUP3 ADD SWAP1 POP PUSH2 0x338 PUSH0 DUP4 ADD DUP5 PUSH2 0x316 JUMP JUMPDEST SWAP3 SWAP2 POP POP JUMP JUMPDEST PUSH0 DUP1 PUSH1 0x40 DUP4 DUP6 SUB SLT ISZERO PUSH2 0x354 JUMPI PUSH2 0x353 PUSH2 0x23A JUMP JUMPDEST JUMPDEST PUSH0 PUSH2 0x361 DUP6 DUP3 DUP7 ADD PUSH2 0x290 JUMP JUMPDEST SWAP3 POP POP PUSH1 0x20 PUSH2 0x372 DUP6 DUP3 DUP7 ADD PUSH2 0x290 JUMP JUMPDEST SWAP2 POP POP SWAP3 POP SWAP3 SWAP1 POP JUMP JUMPDEST PUSH2 0x385 DUP2 PUSH2 0x271 JUMP JUMPDEST DUP3 MSTORE POP POP JUMP JUMPDEST PUSH0 PUSH1 0x20 DUP3 ADD SWAP1 POP PUSH2 0x39E PUSH0 DUP4 ADD DUP5 PUSH2 0x37C JUMP JUMPDEST SWAP3 SWAP2 POP POP JUMP JUMPDEST PUSH32 0x4E487B7100000000000000000000000000000000000000000000000000000000 PUSH0 MSTORE PUSH1 0x11 PUSH1 0x4 MSTORE PUSH1 0x24 PUSH0 REVERT JUMPDEST PUSH0 PUSH2 0x3DB DUP3 PUSH2 0x271 JUMP JUMPDEST SWAP2 POP PUSH2 0x3E6 DUP4 PUSH2 0x271 JUMP JUMPDEST SWAP3 POP DUP3 DUP3 ADD SWAP1 POP DUP1 DUP3 GT ISZERO PUSH2 0x3FE JUMPI PUSH2 0x3FD PUSH2 0x3A4 JUMP JUMPDEST JUMPDEST SWAP3 SWAP2 POP POP JUMP JUMPDEST PUSH0 PUSH2 0x40E DUP3 PUSH2 0x271 JUMP JUMPDEST SWAP2 POP PUSH32 0xFFFFFFFFFFFFFFFFFFFFFFFFFFFFFFFFFFFFFFFFFFFFFFFFFFFFFFFFFFFFFFFF DUP3 SUB PUSH2 0x440 JUMPI PUSH2 0x43F PUSH2 0x3A4 JUMP JUMPDEST JUMPDEST PUSH1 0x1 DUP3 ADD SWAP1 POP SWAP2 SWAP1 POP JUMP JUMPDEST PUSH0 PUSH2 0x455 DUP3 PUSH2 0x271 JUMP JUMPDEST SWAP2 POP PUSH2 0x460 DUP4 PUSH2 0x271 JUMP JUMPDEST SWAP3 POP DUP3 DUP3 MUL PUSH2 0x46E DUP2 PUSH2 0x271 JUMP JUMPDEST SWAP2 POP DUP3 DUP3 DIV DUP5 EQ DUP4 ISZERO OR PUSH2 0x485 JUMPI PUSH2 0x484 PUSH2 0x3A4 JUMP JUMPDEST JUMPDEST POP SWAP3 SWAP2 POP POP JUMP JUMPDEST PUSH32 0x4E487B7100000000000000000000000000000000000000000000000000000000 PUSH0 MSTORE PUSH1 0x12 PUSH1 0x4 MSTORE PUSH1 0x24 PUSH0 REVERT JUMPDEST PUSH0 PUSH2 0x4C3 DUP3 PUSH2 0x271 JUMP JUMPDEST SWAP2 POP PUSH2 0x4CE DUP4 PUSH2 0x271 JUMP JUMPDEST SWAP3 POP DUP3 PUSH2 0x4DE JUMPI PUSH2 0x4DD PUSH2 0x48C JUMP JUMPDEST JUMPDEST DUP3 DUP3 DIV SWAP1 POP SWAP3 SWAP2 POP POP JUMP INVALID LOG2 PUSH5 0x6970667358 0x22 SLT KECCAK256 PUSH11 0xA54883B815CB19E2FA44B7 0xDE 0xD7 ADDMOD 0x4B 0xBC ADDRESS 0xD8 DUP13 PUSH0 PUSH3 0x9469DC KECCAK256 0xAD 0xB1 MSTORE8 RETURNDATACOPY 0xEE PUSH30 0x64736F6C634300081A003300000000000000000000000000000000000000 "
		},
		"gasEstimates": {
			"creation": {
				"codeDepositCost": "262200",
				"executionCost": "22411",
				"totalCost": "284611"
			},
			"external": {
				"add(uint256,uint256)": "infinite",
				"divide(uint256,uint256)": "infinite",
				"getResult()": "infinite",
				"leftshift(int256,uint256)": "infinite",
				"rightshift(int256,uint256)": "infinite",
				"sub1()": "392",
				"testPlusPlus()": "infinite"
			}
		},
		"methodIdentifiers": {
			"add(uint256,uint256)": "771602f7",
			"divide(uint256,uint256)": "f88e9fbf",
			"getResult()": "de292789",
			"leftshift(int256,uint256)": "6f52cd7a",
			"rightshift(int256,uint256)": "b68af89b",
			"sub1()": "72a099b7",
			"testPlusPlus()": "b41cd3c8"
		}
	},
	"abi": [
		{
			"inputs": [],
			"stateMutability": "nonpayable",
			"type": "constructor"
		},
		{
			"inputs": [
				{
					"internalType": "uint256",
					"name": "x",
					"type": "uint256"
				},
				{
					"internalType": "uint256",
					"name": "y",
					"type": "uint256"
				}
			],
			"name": "add",
			"outputs": [
				{
					"internalType": "uint256",
					"name": "z",
					"type": "uint256"
				}
			],
			"stateMutability": "pure",
			"type": "function"
		},
		{
			"inputs": [
				{
					"internalType": "uint256",
					"name": "x",
					"type": "uint256"
				},
				{
					"internalType": "uint256",
					"name": "y",
					"type": "uint256"
				}
			],
			"name": "divide",
			"outputs": [
				{
					"internalType": "uint256",
					"name": "z",
					"type": "uint256"
				}
			],
			"stateMutability": "pure",
			"type": "function"
		},
		{
			"inputs": [],
			"name": "getResult",
			"outputs": [
				{
					"internalType": "uint256",
					"name": "",
					"type": "uint256"
				}
			],
			"stateMutability": "view",
			"type": "function"
		},
		{
			"inputs": [
				{
					"internalType": "int256",
					"name": "x",
					"type": "int256"
				},
				{
					"internalType": "uint256",
					"name": "y",
					"type": "uint256"
				}
			],
			"name": "leftshift",
			"outputs": [
				{
					"internalType": "int256",
					"name": "z",
					"type": "int256"
				}
			],
			"stateMutability": "pure",
			"type": "function"
		},
		{
			"inputs": [
				{
					"internalType": "int256",
					"name": "x",
					"type": "int256"
				},
				{
					"internalType": "uint256",
					"name": "y",
					"type": "uint256"
				}
			],
			"name": "rightshift",
			"outputs": [
				{
					"internalType": "int256",
					"name": "z",
					"type": "int256"
				}
			],
			"stateMutability": "pure",
			"type": "function"
		},
		{
			"inputs": [],
			"name": "sub1",
			"outputs": [
				{
					"internalType": "uint8",
					"name": "",
					"type": "uint8"
				}
			],
			"stateMutability": "pure",
			"type": "function"
		},
		{
			"inputs": [],
			"name": "testPlusPlus",
			"outputs": [
				{
					"internalType": "uint256",
					"name": "",
					"type": "uint256"
				}
			],
			"stateMutability": "pure",
			"type": "function"
		}
	]
}